:04000000E1EF01F03B
:100008005F82E9CFCCF0EACFCDF0E1CFCEF0E2CFFE
:10001800CFF0D9CFD0F0DACFD1F0F3CFD2F0F4CF00
:10002800D3F0F6CFD4F0F7CFD5F0F8CFD6F0F5CFA0
:10003800D7F09EAA22EF00F024EF00F0FEEF00F0C8
:10004800CFEC3BF00001D96FEF0ED919D8A42FEFF0
:1000580000F031EF00F054EF00F09E51D8B437EFC4
:1000680000F039EF00F041EF00F09A05D8A43FEF17
:1000780000F041EF00F054EF00F0010E9D6F000E0C
:10008800916F000E906F100E9025D96E010E912180
:10009800DA6ED9C0DFFF0001904B912B28EF01F0F9
:1000A8009D05D8A45AEF00F05CEF00F028EF01F0AE
:1000B800100E9025D96E010E9121DA6ED9C0DFFF9E
:1000C800915107E1050E905DD8B06DEF00F06FEF2C
:1000D80000F0FAEF00F0FE0ED919D8A476EF00F080
:1000E80078EF00F04FEF00F00101115112250001E7
:1000F800D86FD85101011319D8A485EF00F087EF04
:1001080000F0CCEF00F000019A51D8B48EEF00F067
:1001180090EF00F09AEF00F0F50E01011219D8A443
:1001280098EF00F09AEF00F0B2EF00F0000E000137
:10013800DA6F100EDA25D96EDA6A010EDA22DF508C
:1001480036EC3CF00001DA2B040EDA65AEEF00F075
:10015800B0EF00F09DEF00F0C2EF00F0000E0001DC
:10016800DA6F160E36EC3CF00001DA2B040EDA6575
:10017800C0EF00F0C2EF00F0B5EF00F0010E9E6F87
:10018800000E916F000E906F020E986FE2EF00F074
:10019800000E00019E6F000E916F000E906F000E12
:1001A800DA6F150E36EC3CF00001DA2B040EDA6536
:1001B800E0EF00F0E2EF00F0D5EF00F0F50E0101FE
:1001C8001219D8A4EAEF00F0ECEF00F04FEF00F0BE
:1001D800020E00019819D8A4F4EF00F0F6EF00F031
:1001E8004FEF00F0010E9C6F4FEF00F0000E9D6F77
:1001F8004FEF00F0A4AA03EF01F005EF01F01EEFA6
:1002080001F08CC0BBF08DC0BCF0DBC0BDF0DCC021
:10021800BEF0DDC0BFF0DEC0C0F0E1C0C1F0E2C09A
:10022800C2F099C0C3F005EC1CF0000E0001986FF5
:1002380028EF01F0ACA223EF01F025EF01F028EF41
:1002480001F0AC92AC98AC8800019405D8A42FEFCB
:1002580001F031EF01F079EF01F0DEBF3EEF01F080
:10026800DE51DD11DC1108E1DB05D8A03EEF01F01D
:1002780040EF01F04AEF01F0FF0EDB27FF0EDC2311
:10028800FF0EDD23FF0EDE2352EF01F0000EDB6FC1
:10029800000EDC6F000EDD6F000EDE6F01017CBF0B
:1002A80060EF01F07C517B117A1108E17905D8A043
:1002B80060EF01F062EF01F06CEF01F0FF0E7927BB
:1002C800FF0E7A23FF0E7B23FF0E7C2376EF01F0CF
:1002D800140E796F000E7A6F000E7B6F000E7C6F24
:1002E800B5EC3AF0000E0001946F9EA07EEF01F08D
:1002F80080EF01F087EF01F09E0ECF6E570ECE6EA5
:100308009E90010E946FF0A28CEF01F08EEF01F039
:10031800C7EF01F0060E0001CB6F130ECA6FAD0ECA
:10032800E82EFED7CA2FFCD7CB2FFAD700D0000172
:100338007A517B11D8A4A3EF01F0A5EF01F0B2EF39
:1003480001F081A8AAEF01F0ACEF01F0B2EF01F0E3
:10035800000E7B6F010E7A6FC6EF01F07A057B11F4
:10036800D8A4B9EF01F0BBEF01F0C6EF01F081A806
:10037800C0EF01F0C2EF01F0C6EF01F0000E7B6F95
:10038800000E7A6FF092D7C0F5FFD6C0F8FFD5C03F
:10039800F7FFD4C0F6FFD3C0F4FFD2C0F3FFD1C03B
:1003A800DAFFD0C0D9FFCFC0E2FFCEC0E1FFCDC099
:0E03B800EAFFCCC0E9FF5F921100CBEF37F0F7
:10100000004572726F723A20496E76616C69642095
:1010100055415254206E756D6265722E0A005365FB
:101020006E7420726573706F6E736520285541521F
:101030005431293A200052656365697665642064FD
:10104000617461202855415254003078253032585F
:0B105000000D0A002C200025640000A9
:10105C00F29E25EC37F0770E1AEC36F053EC3CF0A0
:10106C0020EC3CF0F5EC38F0E2EC3BF0F28ED3984F
:10107C00D39AD39CD390D39294949388CA96CA98BB
:10108C00CA9ACA9CFC0ECA16040ECB6ECF0EBB16A7
:10109C00BB50F00B0C09BB6E000EBC6ECA848B925D
:1010AC0089941E0E0001DB6F000EDC6F000EDD6FED
:1010BC00000EDE6FD08E9F8AA58AC0908C808C82A9
:1010CC00000E0101666F280E656FFF0E676F67ECEF
:1010DC0034F0060E0101786F130E776FAD0EE82E0B
:1010EC00FED7772FFCD7782FFAD700D0A5EC39F0A4
:1010FC00F29E100E01016B6F000E6C6F000E6D6F87
:10110C00000E6E6FECEC36F06BC18EF06CC18FF094
:10111C00F28E8EC099F0010E0001996598EF08F0DF
:10112C009AEF08F0ACEF08F0010E996FF29E100EDA
:10113C0001016B6F000E6C6F000E6D6F000E6E6F09
:10114C0099C06FF1706B2BEC38F0F28E000E000131
:10115C00876F010E866F86C065F187C066F199C0F6
:10116C0067F167EC34F0000E0001836F010E826FA3
:10117C00F29E200E01016B6F000E6C6F000E6D6FF6
:10118C00000E6E6FECEC36F06BC18EF06CC18FF014
:10119C00F28E00018E518A6F8B6B8B5109E1310EEF
:1011AC008A5DD8A0DCEF08F0DEEF08F0E9EF08F07C
:1011BC008B5109E13B0E8A5DD8A0E7EF08F0E9EF0F
:1011CC0008F0FEEF08F0000E8B6F310E8A6FF29E66
:1011DC00200E01016B6F000E6C6F000E6D6F000E18
:1011EC006E6F8AC06FF18BC070F12BEC38F0F28E01
:1011FC00F29E600E01016B6F000E6C6F000E6D6F36
:10120C00000E6E6FECEC36F06BC18EF06CC18FF093
:10121C00F28E8EC097F02F0E0001976518EF09F033
:10122C001AEF09F022EF09F0350E976520EF09F05F
:10123C0022EF09F066EF09F0300E976F000E896F00
:10124C00000E886FF29E600E01016B6F000E6C6FCA
:10125C00000E6D6F000E6E6F97C06FF1706B2BEC04
:10126C0038F0F28E8CEF09F0030E0001896FE80E56
:10127C00886F8CEF09F0070E0001896FD00E886F14
:10128C008CEF09F00B0E0001896FB80E886F8CEF94
:10129C0009F00F0E0001896FA00E886F8CEF09F01A
:1012AC00130E0001896F880E886F8CEF09F0000E09
:1012BC000001896F000E886F300E976F8CEF09F06C
:1012CC0097510101776F786B7851000AD8B471EFA0
:1012DC0009F05DEF09F07751300AD8B45DEF09F0F1
:1012EC00010AD8B43AEF09F0030AD8B441EF09F077
:1012FC00010AD8B448EF09F0070AD8B44FEF09F047
:10130C00010AD8B456EF09F05DEF09F0F29E500EC9
:10131C0001016B6F000E6C6F000E6D6F000E6E6F27
:10132C00ECEC36F06BC18EF06CC18FF0F28E8EC08F
:10133C0095F0960E00019565A6EF09F0A8EF09F05F
:10134C00C1EF09F0000E956FF29E500E01016B6F0C
:10135C00000E6C6F000E6D6F000E6E6F95C06FF10E
:10136C00706B2BEC38F0F28E000E00018D6F000EBE
:10137C008C6FC4EF09F095C08CF08D6BF29E400E13
:10138C0001016B6F000E6C6F000E6D6F000E6E6FB7
:10139C00ECEC36F06BC18EF06CC18FF0F28E8EC01F
:1013AC0096F0810E00019619D8B4DFEF09F0E1EF49
:1013BC0009F062EF0AF0820E9619D8B4E8EF09F042
:1013CC00EAEF09F062EF0AF0830E9619D8B4F1EF48
:1013DC0009F0F3EF09F062EF0AF0840E9619D8B415
:1013EC00FAEF09F0FCEF09F062EF0AF0850E96199E
:1013FC00D8B403EF0AF005EF0AF062EF0AF0860E9C
:10140C009619D8B40CEF0AF00EEF0AF062EF0AF05E
:10141C00870E9619D8B415EF0AF017EF0AF062EFA1
:10142C000AF0070EE26FD00EE16F820E966FF29EFD
:10143C00400E01016B6F000E6C6F000E6D6F000E95
:10144C006E6F96C06FF1706B2BEC38F0F28E8CEFE8
:10145C000AF0030E0001E26FE80EE16F8CEF0AF068
:10146C000B0E0001E26FB80EE16F8CEF0AF00F0E5D
:10147C000001E26FA00EE16F8CEF0AF0130E000179
:10148C00E26F880EE16F8CEF0AF0030E0001E26F41
:10149C00200EE16F8CEF0AF0050E0001E26FDC0EFE
:1014AC00E16F8CEF0AF0070E0001E26FD00EE16FD6
:1014BC00820E966F8CEF0AF096510101776F786B64
:1014CC007851000AD8B46DEF0AF059EF0AF0775151
:1014DC00810AD8B42FEF0AF0030AD8B459EF0AF0F6
:1014EC00010AD8B436EF0AF0070AD8B43DEF0AF077
:1014FC00010AD8B444EF0AF0030AD8B44BEF0AF04F
:10150C00010AD8B452EF0AF059EF0AF03F0E00016D
:10151C00E36FF29E300E01016B6F000E6C6F000ECC
:10152C006D6F000E6E6FECEC36F06BC18EF06CC113
:10153C008FF0F28E8EC0E3F00001E351D8B4A9EF26
:10154C000AF0ABEF0AF0CFEF0AF03F0EE319D8B474
:10155C00B2EF0AF0B4EF0AF0CFEF0AF07F0EE31906
:10156C00D8B4BBEF0AF0BDEF0AF0CFEF0AF03F0E94
:10157C00E36FF29E300E01016B6F000E6C6F000E6C
:10158C006D6F000E6E6FE3C06FF1706B2BEC38F06B
:10159C00F28E1E0E0001DB6F000EDC6F000EDD6F95
:1015AC00000EDE6F32EC2DF08C92F29E700E01016B
:1015BC006B6F000E6C6F000E6D6F000E6E6FECECAF
:1015CC0036F06BC18EF06CC18FF0F28E00018E5133
:1015DC00926F936B92519311D8B4F7EF0AF0F9EF25
:1015EC000AF055EF0BF092059311D8B400EF0BF005
:1015FC0002EF0BF055EF0BF0020E92199311D8B4C9
:10160C000AEF0BF00CEF0BF055EF0BF0030E9219E9
:10161C009311D8B414EF0BF016EF0BF055EF0BF051
:10162C00040E92199311D8B41EEF0BF020EF0BF0AF
:10163C0055EF0BF0000E936F000E926FF29E700E32
:10164C0001016B6F000E6C6F000E6D6F000E6E6FF4
:10165C0092C06FF193C070F12BEC38F0F28E78EFF2
:10166C000BF0000E3B6F000E3A6F78EF0BF0000E94
:10167C003B6F070E3A6F78EF0BF0000E3B6F090EC5
:10168C003A6F78EF0BF0000E3B6F0C0E3A6F78EF61
:10169C000BF0000E3B6F140E3A6F78EF0BF092C00C
:1016AC0077F193C078F101017851000AD8B461EF59
:1016BC000BF037EF0BF07751000AD8B437EF0BF083
:1016CC00010AD8B43DEF0BF0030AD8B443EF0BF08A
:1016DC00010AD8B449EF0BF0070AD8B44FEF0BF05E
:1016EC0037EF0BF0F29E800E01016B6F000E6C6FEA
:1016FC00000E6D6F000E6E6FECEC36F06BC18EF061
:10170C006CC18FF0F28E00018E51DF6FE06B280EF2
:10171C00DF19E011D8B495EF0BF097EF0BF0ACEFAD
:10172C000BF0000EE06F280EDF6FF29E800E0101B1
:10173C006B6F000E6C6F000E6D6F000E6E6FDFC066
:10174C006FF1E0C070F12BEC38F0F28EF29E900E3F
:10175C0001016B6F000E6C6F000E6D6F000E6E6FE3
:10176C00ECEC36F06BC18EF06CC18FF0F28E000198
:10177C008E517C6F7D6B7C057D11D8B4C8EF0BF05E
:10178C00CAEF0BF0E8EF0BF07C517D11D8B4D1EF20
:10179C000BF0D3EF0BF0E8EF0BF0000E7D6F010EAA
:1017AC007C6FF29E900E01016B6F000E6C6F000E41
:1017BC006D6F000E6E6F7CC06FF17DC070F12BEC05
:1017CC0038F0F28E3AC15DF13BC15EF13AEC3BF080
:1017DC0004001E0E0001DB6F000EDC6F000EDD6FCF
:1017EC00000EDE6FA5EC39F0E8EF1BF082C086F03E
:1017FC0083C087F081B805EF0CF007EF0CF0A7EF72
:10180C000CF092C063F193C064F199C065F1A1EC46
:10181C002CF0000175BF1CEF0CF0E80E745D030E8C
:10182C007559D8A01CEF0CF01EEF0CF050EF0CF01B
:10183C0092C071F193C072F172EC2BF071C13AF15C
:10184C0072C13BF1700E01016B6F000E6C6F000EDC
:10185C006D6F000E6E6FECEC36F06BC192F06CC1DC
:10186C0093F084EC39F092C063F193C064F199C0A9
:10187C0065F1A1EC2CF0060E0101786F130E776F59
:10188C00AD0EE82EFED7772FFCD7782FFAD700D0E5
:10189C008FEF0CF075BF5EEF0CF0E80E745D030E6D
:1018AC007559D8B05CEF0CF05EEF0CF08FEF0CF0CC
:1018BC0092C063F193C064F199C065F1A1EC2CF076
:1018CC00020E0101786F860E776F990EE82EFED707
:1018DC00772FFCD7782FFAD7000E0001756F000E0A
:1018EC00746F8FEF0CF092C063F193C064F199C0E8
:1018FC0065F1A1EC2CF01A0E0101776FF80EE82EB1
:10190C00FED7772FFCD700F00A0E00017427000ECB
:10191C007523000175BF9CEF0CF0E80E745D030E8F
:10192C007559D8A09CEF0CF09EEF0CF079EF0CF0F1
:10193C0081A8A3EF0CF0A5EF0CF007EF0CF0ACEFC7
:10194C000CF0000E0001756F000E746F81B6B1EFD4
:10195C000CF0B3EF0CF06CEF0DF0630E86198711E1
:10196C00D8B4BBEF0CF0BDEF0CF06CEF0DF081B602
:10197C00C2EF0CF0C4EF0CF070EF0DF079BFD0EFAC
:10198C000CF0E80E785D030E7959D8A0D0EF0CF06E
:10199C00D2EF0CF0FAEF0CF0875107E15A0E865D8E
:1019AC00D8B0DBEF0CF0DDEF0CF0FAEF0CF00A0E18
:1019BC008625866F000E8721876F86C065F187C0EC
:1019CC0066F199C067F167EC34F00B0E0101786F8A
:1019DC00260E776F5D0EE82EFED7772FFCD7782F6B
:1019EC00FAD700D027EF0DF079BF08EF0DF0E80E15
:1019FC00785D030E7959D8B006EF0DF008EF0DF0B5
:101A0C0027EF0DF0010E8625866F000E8721876F5C
:101A1C0086C065F187C066F199C067F167EC34F058
:101A2C00020E0101786F860E776F990EE82EFED7A5
:101A3C00772FFCD7782FFAD7000E0001796F000EA4
:101A4C00786F81B62CEF0DF02EEF0DF052EF0DF0FC
:101A5C0080BA33EF0DF035EF0DF052EF0DF0000EB4
:101A6C000001876F000E866F86C065F187C066F136
:101A7C0099C067F167EC34F052EF0DF01A0E0101CA
:101A8C00776FF80EE82EFED7772FFCD700F00A0EF2
:101A9C0000017827000E792381B657EF0DF059EF2E
:101AAC000DF06AEF0DF0000179BF66EF0DF0E80E56
:101ABC00785D030E7959D8A066EF0DF068EF0DF044
:101ACC0044EF0DF070EF0DF070EF0DF0000E796F2C
:101ADC00000E786F80BA75EF0DF077EF0DF030EFE8
:101AEC000EF0000186518711D8B47FEF0DF081EF15
:101AFC000DF030EF0EF080BA86EF0DF088EF0DF0A0
:101B0C0035EF0EF077BF94EF0DF0E80E765D030E17
:101B1C007759D8A094EF0DF096EF0DF0BEEF0DF0C5
:101B2C00875109E10A0E865DD8A09FEF0DF0A1EF59
:101B3C000DF0BEEF0DF0F60E8625866FFF0E872199
:101B4C00876F86C065F187C066F199C067F167EC55
:101B5C0034F00B0E0101786F260E776F5D0EE82EB8
:101B6C00FED7772FFCD7782FFAD700D0EBEF0DF0FC
:101B7C0077BFCCEF0DF0E80E765D030E7759D8B039
:101B8C00CAEF0DF0CCEF0DF0EBEF0DF0FF0E86254C
:101B9C00866FFF0E8721876F86C065F187C066F15F
:101BAC0099C067F167EC34F0020E0101786F860E74
:101BBC00776F990EE82EFED7772FFCD7782FFAD7B0
:101BCC00000E0001776F000E766F80BAF0EF0DF00B
:101BDC00F2EF0DF016EF0EF081B6F7EF0DF0F9EF16
:101BEC000DF016EF0EF0000E0001876F000E866FE1
:101BFC0086C065F187C066F199C067F167EC34F077
:101C0C0016EF0EF01A0E0101776FF80EE82EFED7C4
:101C1C00772FFCD700F00A0E00017627000E7723F1
:101C2C0080BA1BEF0EF01DEF0EF02EEF0EF0000140
:101C3C0077BF2AEF0EF0E80E765D030E7759D8A029
:101C4C002AEF0EF02CEF0EF008EF0EF035EF0EF041
:101C5C0035EF0EF0000E0001776F000E766F86C028
:101C6C0082F087C083F086C065F187C066F199C0A9
:101C7C0067F167EC34F000017A057B11D8A449EFC9
:101C8C000EF04BEF0EF05CEF0EF0010E9A6F1E0E85
:101C9C00DB6F000EDC6F000EDD6F000EDE6FF1EC03
:101CAC0021F0000E00019C6F000E9A6F00019E0542
:101CBC00D8A463EF0EF065EF0EF099EF15F05AEF24
:101CCC0015F0F10E1219D8A46EEF0EF070EF0EF0A5
:101CDC008DEF0EF000019A51D8A477EF0EF079EF4A
:101CEC000EF08DEF0EF0000E9C6F010E9A6F82C0FD
:101CFC0086F083C087F01E0EDB6F000EDC6F000ECB
:101D0C00DD6F000EDE6F81EC27F00AEF10F0F20EA3
:101D1C0001011219D8A495EF0EF097EF0EF0F3EF26
:101D2C000FF000019A51D8A49EEF0EF0A0EF0EF028
:101D3C00F3EF0FF0000E7B6F010E7A6F010E9A6FAE
:101D4C0013C186F0876B86C065F187C066F199C0B8
:101D5C0067F167EC34F01E0E0001DB6F000EDC6FD8
:101D6C00000EDD6F000EDE6F9905D8A4C0EF0EF0EB
:101D7C00C2EF0EF0D9EF0EF08B82E1C05DF1E2C044
:101D8C005EF1ECEC3AF08B92040E0101786F0C0EC4
:101D9C00776F330EE82EFED7772FFCD7782FFAD734
:101DAC0000D0DCEF0EF08B92CAEF0EF089846DEC54
:101DBC003CF0020E0101786F860E776F990EE82EBB
:101DCC00FED7772FFCD7782FFAD71E0E0001DB6FCA
:101DDC00000EDC6F000EDD6F000EDE6FFDEC37F0D9
:101DEC005DC17EF05EC17FF00001DB51DC11DD11C5
:101DFC00DE11D8A404EF0FF006EF0FF033EF0FF065
:101E0C0072EC3CF0EF0E0001606FE10E616F000EA2
:101E1C00626F61516225636FFE0E646F000E816FFD
:101E2C00000E806F815109E1050E805DD8A021EF75
:101E3C000FF023EF0FF025EF0FF033EF0FF0600EE4
:101E4C008025D96E000E8121DA6EDF5014EC3CF047
:101E5C000001804B812B18EF0FF07E517F11D8A41D
:101E6C003AEF0FF03CEF0FF0F4EF0EF04E0E0101D5
:101E7C00776FEB0EE82EFED7772FFCD71E0E0001E6
:101E8C00DB6F000EDC6F000EDD6F000EDE6FFDEC05
:101E9C0037F05DC17EF05EC17FF00001DB51DC11DB
:101EAC00DD11DE11D8A45DEF0FF05FEF0FF08CEFBA
:101EBC000FF072EC3CF0EF0E0001606FE20E616F00
:101ECC00000E626F61516225636FFE0E646F000E2F
:101EDC00816F000E806F815109E1050E805DD8A0E5
:101EEC007AEF0FF07CEF0FF07EEF0FF08CEF0FF02E
:101EFC00600E8025D96E000E8121DA6EDF5014EC55
:101F0C003CF00001804B812B71EF0FF07E057F11AF
:101F1C00D8A493EF0FF095EF0FF04DEF0FF01E0ECE
:101F2C00DB6F000EDC6F000EDD6F000EDE6F8CC001
:101F3C005DF18DC05EF1ECEC3AF072EC3CF000011E
:101F4C009905D8A4ACEF0FF0AEEF0FF0C5EF0FF082
:101F5C008B82E1C05DF1E2C05EF1ECEC3AF08B9269
:101F6C00040E0101786F0C0E776F330EE82EFED73E
:101F7C00772FFCD7782FFAD700D0C8EF0FF08B92C1
:101F8C00B6EF0FF0EF0E0001606FF90E616F000EEF
:101F9C00626F61516225636FFE0E646F000E816F7C
:101FAC00000E806F815109E1050E805DD8A0E1EF34
:101FBC000FF0E3EF0FF0E5EF0FF00AEF10F0600E0B
:101FCC008025D96E000E8121DA6EDF5014EC3CF0C6
:101FDC000001804B812BD8EF0FF0F50E0101121987
:101FEC00D8A4FBEF0FF0FDEF0FF00AEF10F000019B
:101FFC009A51D8A404EF10F006EF10F00AEF10F08D
:10200C00000E7B6F000E7A6F43EC3AF060EC3AF006
:10201C00000E00019C6F000E9A6F90EF15F012519C
:10202C00D8B41BEF10F01DEF10F03EEF12F00001D2
:10203C009A51D8A424EF10F026EF10F03EEF12F0D6
:10204C00000E7B6F010E7A6F010E9A6F12C186F033
:10205C00876B86C065F187C066F199C067F167EC44
:10206C0034F086C082F087C083F01E0E0001DB6F57
:10207C00000EDC6F000EDD6F000EDE6F400E0101F6
:10208C006B6F000E6C6F000E6D6F000E6E6FECECD4
:10209C0036F001016B510001966F7AEF10F0030ED0
:1020AC000001E26FE80EE16F9CEF10F00B0E0001E7
:1020BC00E26FB80EE16F9CEF10F00F0E0001E26FB3
:1020CC00A00EE16F9CEF10F0130E0001E26F880E72
:1020DC00E16F9CEF10F0070E0001E26FD00EE16F84
:1020EC00820E966F9CEF10F096510101776F786B12
:1020FC007851000AD8B485EF10F071EF10F07751D9
:10210C00810AD8B455EF10F0030AD8B471EF10F06F
:10211C00010AD8B45CEF10F0070AD8B463EF10F0E2
:10212C00010AD8B46AEF10F071EF10F0600E0101E3
:10213C006B6F000E6C6F000E6D6F000E6E6FECEC23
:10214C0036F001016B510001976FD9EF10F0030EBF
:10215C000001896FE80E886FFFEF10F0070E000189
:10216C00896FD00E886FFFEF10F00B0E0001896F96
:10217C00B80E886FFFEF10F00F0E0001896FA00EE4
:10218C00886FFFEF10F0130E0001896F880E886FB7
:10219C00FFEF10F0000E0001896F000E886F300EFB
:1021AC00976FFFEF10F097510101776F786B7851B3
:1021BC00000AD8B4E4EF10F0D0EF10F07751300AE9
:1021CC00D8B4D0EF10F0010AD8B4ADEF10F0030A78
:1021DC00D8B4B4EF10F0010AD8B4BBEF10F0070A72
:1021EC00D8B4C2EF10F0010AD8B4C9EF10F0D0EF98
:1021FC0010F09905D8A405EF11F007EF11F01EEFC0
:10220C0011F08B82E1C05DF1E2C05EF1ECEC3AF0D2
:10221C008B92040E0101786F0C0E776F330EE82E43
:10222C00FED7772FFCD7782FFAD700D021EF11F0FB
:10223C008B920FEF11F0898488C05DF189C05EF13B
:10224C00ECEC3AF06DEC3CF0020E0101786F860E6E
:10225C00776F990EE82EFED7772FFCD7782FFAD709
:10226C001E0E0001DB6F000EDC6F000EDD6F000E2A
:10227C00DE6FFDEC37F05DC17EF05EC17FF00001DA
:10228C00DB51DC11DD11DE11D8A44FEF11F051EF51
:10229C0011F07EEF11F072EC3CF0EF0E0001606F6C
:1022AC00E10E616F000E626F61516225636FFE0E6D
:1022BC00646F000E816F000E806F815109E1050E75
:1022CC00805DD8A06CEF11F06EEF11F070EF11F093
:1022DC007EEF11F0600E8025D96E000E8121DA6E32
:1022EC00DF5014EC3CF00001804B812B63EF11F0BC
:1022FC007E517F11D8A485EF11F087EF11F03FEFDD
:10230C0011F04E0E0101776FEB0EE82EFED7772FF2
:10231C00FCD71E0E0001DB6F000EDC6F000EDD6FB4
:10232C00000EDE6FFDEC37F05DC17EF05EC17FF01C
:10233C000001DB51DC11DD11DE11D8A4A8EF11F086
:10234C00AAEF11F0D7EF11F072EC3CF0EF0E000198
:10235C00606FE20E616F000E626F61516225636FF8
:10236C00FE0E646F000E816F000E806F815109E1CB
:10237C00050E805DD8A0C5EF11F0C7EF11F0C9EFC5
:10238C0011F0D7EF11F0600E8025D96E000E81216F
:10239C00DA6EDF5014EC3CF00001804B812BBCEF6B
:1023AC0011F07E057F11D8A4DEEF11F0E0EF11F0F3
:1023BC0098EF11F01E0EDB6F000EDC6F000EDD6F60
:1023CC00000EDE6F8CC05DF18DC05EF1ECEC3AF06E
:1023DC0072EC3CF000019905D8A4F7EF11F0F9EF7D
:1023EC0011F010EF12F08B82E1C05DF1E2C05EF1F2
:1023FC00ECEC3AF08B92040E0101786F0C0E776FB7
:10240C00330EE82EFED7772FFCD7782FFAD700D0D3
:10241C0013EF12F08B9201EF12F0EF0E0001606FD0
:10242C00F90E616F000E626F61516225636FFE0ED3
:10243C00646F000E816F000E806F815109E1050EF3
:10244C00805DD8A02CEF12F02EEF12F030EF12F0CE
:10245C0055EF12F0600E8025D96E000E8121DA6ED8
:10246C00DF5014EC3CF00001804B812B23EF12F079
:10247C00F50E01011219D8A446EF12F048EF12F034
:10248C0055EF12F000019A51D8A44FEF12F051EF12
:10249C0012F055EF12F0000E7B6F000E7A6F43ECCA
:1024AC003AF060EC3AF0000E00017B6F000E7A6F90
:1024BC00000E9C6F000E9A6F90EF15F000019A5170
:1024CC00D8A46BEF12F06DEF12F090EF15F0010E37
:1024DC009A6F12C197F09FEF12F0030E0001896FF3
:1024EC00E80E886FC5EF12F0070E0001896FD00E51
:1024FC00886FC5EF12F00B0E0001896FB80E886F54
:10250C00C5EF12F00F0E0001896FA00E886FC5EF9A
:10251C0012F0130E0001896F880E886FC5EF12F050
:10252C00000E0001896F000E886F300E976FC5EF9B
:10253C0012F097510101776F786B7851000AD8B47B
:10254C00AAEF12F096EF12F07751300AD8B496EF4A
:10255C0012F0010AD8B473EF12F0030AD8B47AEF70
:10256C0012F0010AD8B481EF12F0070AD8B488EF40
:10257C0012F0010AD8B48FEF12F096EF12F0600E41
:10258C0001016B6F000E6C6F000E6D6F000E6E6FA5
:10259C0097C06FF1706B2BEC38F043EC3AF0000EF7
:1025AC0000019A6F90EF15F000019A51D8A4E1EF59
:1025BC0012F0E3EF12F090EF15F001011251D8A4D4
:1025CC00EAEF12F0ECEF12F054EF13F0010E0001F1
:1025DC009A6F600E01016B6F000E6C6F000E6D6FC9
:1025EC00000E6E6FECEC36F001016B510001976F31
:1025FC00400E01016B6F000E6C6F000E6D6F000EC4
:10260C006E6FECEC36F001016B510001966F700EA1
:10261C0001016B6F000E6C6F000E6D6F000E6E6F14
:10262C00ECEC36F06BC192F06CC193F0EF0E000144
:10263C00606F97C061F092C062F096C063F0FE0EBE
:10264C00646F020E0101786F040E776FBA0EE82EDC
:10265C00FED7772FFCD7782FFAD700F0000E0001A9
:10266C00816F000E806F815109E1050E805DD8A04D
:10267C0042EF13F044EF13F046EF13F054EF13F066
:10268C00600E8025D96E000E8121DA6EDF5014ECBD
:10269C003CF00001804B812B39EF13F060EC3AF0E9
:1026AC00D5EF12F000019A51D8A45FEF13F061EF4F
:1026BC0013F090EF15F001011251D8A468EF13F04C
:1026CC006AEF13F054EF13F0010E00019A6F900EA5
:1026DC0001016B6F000E6C6F000E6D6F000E6E6F54
:1026EC00ECEC36F06BC17CF06CC17DF0800E01011E
:1026FC006B6F000E6C6F000E6D6F000E6E6FECEC5E
:10270C0036F06BC1DFF06CC1E0F082C086F083C0A4
:10271C0087F0EF0E0001606F7CC061F0DFC062F0EB
:10272C0086C063F0FE0E646F020E0101786F040E1A
:10273C00776FBA0EE82EFED7772FFCD7782FFAD703
:10274C0000F0000E0001816F000E806F815109E1D5
:10275C00050E805DD8A0B5EF13F0B7EF13F0B9EF0D
:10276C0013F054EF13F0600E8025D96E000E81210A
:10277C00DA6EDF5014EC3CF00001804B812BACEF97
:10278C0013F000019A51D8A4CEEF13F0D0EF13F050
:10279C002EEF14F0010E9A6F12C196F0FBEF13F0AE
:1027AC00030E0001E26FE80EE16F1DEF14F00B0E4B
:1027BC000001E26FB80EE16F1DEF14F00F0E000177
:1027CC00E26FA00EE16F1DEF14F0130E0001E26F2B
:1027DC00880EE16F1DEF14F0070E0001E26FD00EB2
:1027EC00E16F820E966F1DEF14F096510101776F19
:1027FC00786B7851000AD8B406EF14F0F2EF13F0AE
:10280C007751810AD8B4D6EF13F0030AD8B4F2EF9B
:10281C0013F0010AD8B4DDEF13F0070AD8B4E4EFD3
:10282C0013F0010AD8B4EBEF13F0F2EF13F0400EF3
:10283C0001016B6F000E6C6F000E6D6F000E6E6FF2
:10284C0096C06FF1706B2BEC38F0000E00019A6F94
:10285C0000019A51D8A435EF14F037EF14F090EF33
:10286C0015F0010E9A6F12C195F095C08CF08D6B1E
:10287C00500E01016B6F000E6C6F000E6D6F000E31
:10288C006E6F95C06FF1706B2BEC38F0D5EF12F0CA
:10289C0000019A51D8A455EF14F057EF14F090EFB3
:1028AC0015F0010E9A6F710E01011219D8A461EF87
:1028BC0014F063EF14F06FEF14F0000E726F040E4F
:1028CC00716F72EC2BF071C13AF172C13BF1C3EF35
:1028DC0014F0720E1219D8A476EF14F078EF14F0ED
:1028EC0084EF14F0000E726F000E716F72EC2BF00F
:1028FC0071C13AF172C13BF1C3EF14F0730E1219AE
:10290C00D8A48BEF14F08DEF14F099EF14F0000EA7
:10291C00726F010E716F72EC2BF071C13AF172C1D2
:10292C003BF1C3EF14F0740E1219D8A4A0EF14F0FD
:10293C00A2EF14F0AEEF14F0000E726F020E716F76
:10294C0072EC2BF071C13AF172C13BF1C3EF14F090
:10295C00750E1219D8A4B5EF14F0B7EF14F0C3EF3D
:10296C0014F0000E726F030E716F72EC2BF071C1CC
:10297C003AF172C13BF1C3EF14F0700E01016B6FB1
:10298C00000E6C6F000E6D6F000E6E6FECEC36F07F
:10299C006BC192F06CC193F084EC39F092C063F18E
:1029AC0093C064F199C065F1A1EC2CF0040E010107
:1029BC00786F0C0E776F330EE82EFED7772FFCD77F
:1029CC00782FFAD700D0D5EF12F000019A51D8A485
:1029DC00F2EF14F0F4EF14F090EF15F0010E9A6F83
:1029EC00650E01011219D8A4FEEF14F000EF15F0DA
:1029FC0007EF15F0000E0001876F310E866F1BEF8D
:102A0C0015F0660E1219D8A40EEF15F010EF15F094
:102A1C0017EF15F0000E0001876F5A0E866F1BEF33
:102A2C0015F012C186F00001876B86C082F087C05A
:102A3C0083F086C065F187C066F199C067F167ECD9
:102A4C0034F0D5EF12F000019A51D8A430EF15F004
:102A5C0032EF15F090EF15F0010E9A6F12C17CF069
:102A6C007D6B7C517D11D8B43EEF15F040EF15F025
:102A7C00D5EF12F07C057D11D8B447EF15F049EF76
:102A8C0015F0D5EF12F0900E01016B6F000E6C6F0C
:102A9C00000E6D6F000E6E6F7CC06FF17DC070F11B
:102AAC002BEC38F0D5EF12F001011151776F786BE8
:102ABC007851000AD8B465EF15F090EF15F0775106
:102ACC00230AD8B464EF12F0670AD8B467EF0EF09B
:102ADC00020AD8B415EF10F0170AD8B4DAEF12F0D6
:102AEC00030AD8B458EF13F0060AD8B44EEF14F01A
:102AFC00010AD8B429EF15F0300AD8B4C7EF13F097
:102B0C00030AD8B42EEF14F0120AD8B4EBEF14F079
:102B1C0090EF15F0000E00019E6F000E9D6F000EE1
:102B2C00986F9BEF15F0000E986F00019E05D8A4CE
:102B3C00A2EF15F0A4EF15F0E4EF1BF0A1EF1BF0E2
:102B4C0000019A51D8A4ADEF15F0AFEF15F0DBEF03
:102B5C001BF001011251D8A4B6EF15F0B8EF15F027
:102B6C00C8EF15F0000E00019C6F010E9A6FEF0E6E
:102B7C00606F600E616F000E626F61516225636F52
:102B8C00FE0E646F000E0001816F000E806F81518C
:102B9C0009E1050E805DD8A0D6EF15F0D8EF15F041
:102BAC00DAEF15F0E8EF15F0600E8025D96E000E07
:102BBC008121DA6EDF5008EC3CF00001804B812B58
:102BCC00CDEF15F043EC3AF060EC3AF0000E00015A
:102BDC009C6F000E00019A6FDBEF1BF0F10E1219C7
:102BEC00D8A4FBEF15F0FDEF15F01AEF16F000016D
:102BFC009A51D8A404EF16F006EF16F01AEF16F05F
:102C0C00000E9C6F010E9A6F82C086F083C087F015
:102C1C001E0EDB6F000EDC6F000EDD6F000EDE6F24
:102C2C0081EC27F056EF16F0F20E01011219D8A420
:102C3C0022EF16F024EF16F03FEF16F000019A5138
:102C4C00D8A42BEF16F02DEF16F03FEF16F0000E78
:102C5C007B6F010E7A6F010E9A6F1E0EDB6F000EEA
:102C6C00DC6F000EDD6F000EDE6FF1EC21F056EF25
:102C7C0016F0F50E01011219D8A447EF16F049EF22
:102C8C0016F056EF16F000019A51D8A450EF16F03A
:102C9C0052EF16F056EF16F0000E7B6F000E7A6FA7
:102CAC0043EC3AF060EC3AF0000E00019C6F000E21
:102CBC009A6FDBEF1BF01251D8B467EF16F069EF87
:102CCC0016F086EF18F000019A51D8A470EF16F0A8
:102CDC0072EF16F086EF18F0000E7B6F010E7A6F14
:102CEC00010E9A6F12C186F0876B86C065F187C0A2
:102CFC0066F199C067F167EC34F01E0E0001DB6FD2
:102D0C00000EDC6F000EDD6F000EDE6F400E010159
:102D1C006B6F000E6C6F000E6D6F000E6E6FECEC37
:102D2C0036F001016B510001966FC2EF16F0030EE5
:102D3C000001E26FE80EE16FE4EF16F00B0E0001FC
:102D4C00E26FB80EE16FE4EF16F00F0E0001E26FC8
:102D5C00A00EE16FE4EF16F0130E0001E26F880E87
:102D6C00E16FE4EF16F0070E0001E26FD00EE16F99
:102D7C00820E966FE4EF16F096510101776F786B27
:102D8C007851000AD8B4CDEF16F0B9EF16F07751A0
:102D9C00810AD8B49DEF16F0030AD8B4B9EF16F037
:102DAC00010AD8B4A4EF16F0070AD8B4ABEF16F0AA
:102DBC00010AD8B4B2EF16F0B9EF16F0600E0101AB
:102DCC006B6F000E6C6F000E6D6F000E6E6FECEC87
:102DDC0036F001016B510001976F21EF17F0030ED4
:102DEC000001896FE80E886F47EF17F0070E00019E
:102DFC00896FD00E886F47EF17F00B0E0001896FAB
:102E0C00B80E886F47EF17F00F0E0001896FA00EF8
:102E1C00886F47EF17F0130E0001896F880E886FCB
:102E2C0047EF17F0000E0001896F000E886F300E0F
:102E3C00976F47EF17F097510101776F786B7851C7
:102E4C00000AD8B42CEF17F018EF17F07751300AAE
:102E5C00D8B418EF17F0010AD8B4F5EF16F0030A3E
:102E6C00D8B4FCEF16F0010AD8B403EF17F0070A38
:102E7C00D8B40AEF17F0010AD8B411EF17F018EF15
:102E8C0017F09905D8A44DEF17F04FEF17F066EF38
:102E9C0017F08B82E1C05DF1E2C05EF1ECEC3AF030
:102EAC008B92040E0101786F0C0E776F330EE82EA7
:102EBC00FED7772FFCD7782FFAD700D069EF17F011
:102ECC008B9257EF17F0898488C05DF189C05EF151
:102EDC00ECEC3AF06DEC3CF0020E0101786F860ED2
:102EEC00776F990EE82EFED7772FFCD7782FFAD76D
:102EFC001E0E0001DB6F000EDC6F000EDD6F000E8E
:102F0C00DE6FFDEC37F05DC17EF05EC17FF000013D
:102F1C00DB51DC11DD11DE11D8A497EF17F099EF1E
:102F2C0017F0C6EF17F072EC3CF0EF0E0001606F7B
:102F3C00E10E616F000E626F61516225636FFE0ED0
:102F4C00646F000E816F000E806F815109E1050ED8
:102F5C00805DD8A0B4EF17F0B6EF17F0B8EF17F00C
:102F6C00C6EF17F0600E8025D96E000E8121DA6E47
:102F7C00DF5008EC3CF00001804B812BABEF17F0DD
:102F8C007E517F11D8A4CDEF17F0CFEF17F087EF5C
:102F9C0017F04E0E0101776FEB0EE82EFED7772F50
:102FAC00FCD71E0E0001DB6F000EDC6F000EDD6F18
:102FBC00000EDE6FFDEC37F05DC17EF05EC17FF080
:102FCC000001DB51DC11DD11DE11D8A4F0EF17F09C
:102FDC00F2EF17F01FEF18F072EC3CF0EF0E00015F
:102FEC00606FE20E616F000E626F61516225636F5C
:102FFC00FE0E646F000E816F000E806F815109E12F
:10300C00050E805DD8A00DEF18F00FEF18F011EF42
:10301C0018F01FEF18F0600E8025D96E000E81217C
:10302C00DA6EDF5008EC3CF00001804B812B04EF92
:10303C0018F07E057F11D8A426EF18F028EF18F0B1
:10304C00E0EF17F01E0EDB6F000EDC6F000EDD6F75
:10305C00000EDE6F8CC05DF18DC05EF1ECEC3AF0D1
:10306C0072EC3CF000019905D8A43FEF18F041EF49
:10307C0018F058EF18F08B82E1C05DF1E2C05EF100
:10308C00ECEC3AF08B92040E0101786F0C0E776F1A
:10309C00330EE82EFED7772FFCD7782FFAD700D037
:1030AC005BEF18F08B9249EF18F0EF0E0001606F98
:1030BC00F90E616F000E626F61516225636FFE0E37
:1030CC00646F000E816F000E806F815109E1050E57
:1030DC00805DD8A074EF18F076EF18F078EF18F048
:1030EC009DEF18F0600E8025D96E000E8121DA6EEE
:1030FC00DF5008EC3CF00001804B812B6BEF18F09B
:10310C00F50E01011219D8A48EEF18F090EF18F0FB
:10311C009DEF18F000019A51D8A497EF18F099EF91
:10312C0018F09DEF18F0000E7B6F000E7A6F43ECD9
:10313C003AF060EC3AF0000E00017B6F000E7A6FF3
:10314C00000E9C6F000E9A6FDBEF1BF000019A5182
:10315C00D8A4B3EF18F0B5EF18F0DBEF1BF0010EAD
:10316C009A6F12C197F0E7EF18F0030E0001896F08
:10317C00E80E886F0DEF19F0070E0001896FD00E65
:10318C00886F0DEF19F00B0E0001896FB80E886F68
:10319C000DEF19F00F0E0001896FA00E886F0DEF67
:1031AC0019F0130E0001896F880E886F0DEF19F05E
:1031BC00000E0001896F000E886F300E976F0DEFB7
:1031CC0019F097510101776F786B7851000AD8B4D8
:1031DC00F2EF18F0DEEF18F07751300AD8B4DEEFCA
:1031EC0018F0010AD8B4BBEF18F0030AD8B4C2EF38
:1031FC0018F0010AD8B4C9EF18F0070AD8B4D0EF08
:10320C0018F0010AD8B4D7EF18F0DEEF18F0600E02
:10321C0001016B6F000E6C6F000E6D6F000E6E6F08
:10322C0097C06FF1706B2BEC38F043EC3AF0EFEF8A
:10323C0015F000019A51D8A426EF19F028EF19F0D7
:10324C00DBEF1BF001011251D8A42FEF19F031EF75
:10325C0019F099EF19F0010E00019A6F600E01013F
:10326C006B6F000E6C6F000E6D6F000E6E6FECECE2
:10327C0036F001016B510001976F400E01016B6F2D
:10328C00000E6C6F000E6D6F000E6E6FECEC36F076
:10329C0001016B510001966F700E01016B6F000EF6
:1032AC006C6F000E6D6F000E6E6FECEC36F06BC138
:1032BC0092F06CC193F0EF0E0001606F97C061F05B
:1032CC0092C062F096C063F0FE0E646F020E0101B4
:1032DC00786F040E776FBA0EE82EFED7772FFCD7D7
:1032EC00782FFAD700F0000E0001816F000E806F6E
:1032FC00815109E1050E805DD8A087EF19F089EFA7
:10330C0019F08BEF19F099EF19F0600E8025D96E3A
:10331C00000E8121DA6EDF5008EC3CF00001804B8E
:10332C00812B7EEF19F060EC3AF0EFEF15F0000115
:10333C009A51D8A4A4EF19F0A6EF19F0DBEF1BF00B
:10334C0001011251D8A4ADEF19F0AFEF19F099EFBC
:10335C0019F0010E00019A6F900E01016B6F000EB7
:10336C006C6F000E6D6F000E6E6FECEC36F06BC177
:10337C007CF06CC17DF0800E01016B6F000E6C6FE8
:10338C00000E6D6F000E6E6FECEC36F06BC1DFF063
:10339C006CC1E0F082C086F083C087F0EF0E0001B4
:1033AC00606F7CC061F0DFC062F086C063F0FE0E1F
:1033BC00646F020E0101786F040E776FBA0EE82E5F
:1033CC00FED7772FFCD7782FFAD700F0000E00012C
:1033DC00816F000E806F815109E1050E805DD8A0D0
:1033EC00FAEF19F0FCEF19F0FEEF19F099EF19F064
:1033FC00600E8025D96E000E8121DA6EDF5008EC4C
:10340C003CF00001804B812BF1EF19F000019A5137
:10341C00D8A413EF1AF015EF1AF073EF1AF0010E8F
:10342C009A6F12C196F040EF1AF0030E0001E26F92
:10343C00E80EE16F62EF1AF00B0E0001E26FB80EAE
:10344C00E16F62EF1AF00F0E0001E26FA00EE16F58
:10345C0062EF1AF0130E0001E26F880EE16F62EF5B
:10346C001AF0070E0001E26FD00EE16F820E966F1C
:10347C0062EF1AF096510101776F786B7851000A60
:10348C00D8B44BEF1AF037EF1AF07751810AD8B451
:10349C001BEF1AF0030AD8B437EF1AF0010AD8B4AC
:1034AC0022EF1AF0070AD8B429EF1AF0010AD8B49F
:1034BC0030EF1AF037EF1AF0400E01016B6F000E6F
:1034CC006C6F000E6D6F000E6E6F96C06FF1706BAF
:1034DC002BEC38F0000E00019A6F00019A51D8A421
:1034EC007AEF1AF07CEF1AF0DBEF1BF0010E9A6FFB
:1034FC0012C195F095C08CF08D6B500E01016B6F65
:10350C00000E6C6F000E6D6F000E6E6F95C06FF13C
:10351C00706B2BEC38F0EFEF15F000019A51D8A43A
:10352C009AEF1AF09CEF1AF0DBEF1BF0010E9A6F7A
:10353C00710E01011219D8A4A6EF1AF0A8EF1AF017
:10354C00B4EF1AF0000E726F040E716F72EC2BF068
:10355C0071C13AF172C13BF108EF1BF0720E1219F6
:10356C00D8A4BBEF1AF0BDEF1AF0C9EF1AF0000E99
:10357C00726F000E716F72EC2BF071C13AF172C167
:10358C003BF108EF1BF0730E1219D8A4D0EF1AF010
:10359C00D2EF1AF0DEEF1AF0000E726F010E716F9F
:1035AC0072EC2BF071C13AF172C13BF108EF1BF0D8
:1035BC00740E1219D8A4E5EF1AF0E7EF1AF0F3EF36
:1035CC001AF0000E726F020E716F72EC2BF071C15B
:1035DC003AF172C13BF108EF1BF0750E1219D8A429
:1035EC00FAEF1AF0FCEF1AF008EF1BF0000E726FF6
:1035FC00030E716F72EC2BF071C13AF172C13BF199
:10360C0008EF1BF0700E01016B6F000E6C6F000E5B
:10361C006D6F000E6E6FECEC36F06BC192F06CC1FE
:10362C0093F084EC39F092C063F193C064F199C0CB
:10363C0065F1A1EC2CF0040E0101786F0C0E776F84
:10364C00330EE82EFED7772FFCD7782FFAD700D081
:10365C00EFEF15F000019A51D8A437EF1BF039EFBA
:10366C001BF0DBEF1BF0010E9A6F650E01011219B6
:10367C00D8A443EF1BF045EF1BF04CEF1BF0000EF2
:10368C000001876F310E866F60EF1BF0660E12190A
:10369C00D8A453EF1BF055EF1BF05CEF1BF0000EA2
:1036AC000001876F5A0E866F60EF1BF012C186F017
:1036BC000001876B86C082F087C083F086C065F1FD
:1036CC0087C066F199C067F167EC34F0EFEF15F045
:1036DC0000019A51D8A475EF1BF077EF1BF0DBEFCC
:1036EC001BF0010E9A6F12C17CF07D6B7C517D1129
:1036FC00D8B483EF1BF085EF1BF090EF1BF07C052B
:10370C007D11D8B48CEF1BF08EEF1BF090EF1BF0FB
:10371C00EFEF15F0900E01016B6F000E6C6F000E49
:10372C006D6F000E6E6F7CC06FF17DC070F12BEC75
:10373C0038F0EFEF15F001011151776F786B78517C
:10374C00000AD8B4ACEF1BF0DBEF1BF07751060A84
:10375C00D8B4A6EF15F0250AD8B4ACEF18F0670A68
:10376C00D8B4F4EF15F0020AD8B461EF16F0170ACA
:10377C00D8B41FEF19F0030AD8B49DEF19F0060A5C
:10378C00D8B493EF1AF0010AD8B46EEF1BF0300ADC
:10379C00D8B40CEF1AF0030AD8B473EF1AF0120A6B
:1037AC00D8B430EF1BF0DBEF1BF0000E00019E6F66
:1037BC00000E9D6F000E986FE8EF0BF0000E986FE7
:1037CC00E8EF0BF0000198510101776F786B78519D
:1037DC00000AD8B4F4EF1BF0E8EF0BF07751000AB5
:1037EC00D8B4FCEF0BF0020AD8B45CEF0EF0010A6F
:1037FC00D8B49BEF15F0E8EF0BF0E1EF01F0898402
:10380C00020EA7EC38F00101256FEF0E2519D8A494
:10381C0012EF1CF014EF1CF0F0EF21F0000E000181
:10382C00C96F010EC86F250EC825D96E010EC921AE
:10383C00DA6E020EA7EC38F0DF6E0001C84BC92B14
:10384C00C9BF32EF1CF0C95109E1050EC85DD8A003
:10385C0032EF1CF034EF1CF019EF1CF026C1A5F070
:10386C0027C1A4F028C1A3F029C1A2F0EF0E0101D9
:10387C002519D8A444EF1CF046EF1CF0DFEF21F023
:10388C00FE0E0001A219D8A44EEF1CF050EF1CF054
:10389C00DFEF21F0A5C0B1F0A4C0B2F0A3C0B3F02B
:1038AC00A2C0B4F0010125513FEC39F09CEF21F09E
:1038BC00600EA16F000EA06FA151A0259F6FA1C03B
:1038CC00B1F0A0C0B2F09FC0B3F0E4C0B4F0E551C9
:1038DC003FEC39F0EFEC3BF0DAEF21F0F10EA419EC
:1038EC00D8A47BEF1CF07DEF1CF099EF1CF09A51E3
:1038FC00D8A483EF1CF085EF1CF099EF1CF0000EA0
:10390C009C6F010E9A6F82C086F083C087F01E0EEA
:10391C00BD6F000EBE6F000EBF6F000EC06FB4EC1B
:10392C0028F0D1EF1CF0F20EA419D8A4A0EF1CF0D3
:10393C00A2EF1CF0BCEF1CF09A51D8A4A8EF1CF01D
:10394C00AAEF1CF0BCEF1CF0000E7B6F010E7A6F1F
:10395C00010E9A6F1E0EBD6F000EBE6F000EBF6F74
:10396C00000EC06F21EC24F0D1EF1CF0F50EA41961
:10397C00D8A4C3EF1CF0C5EF1CF0D1EF1CF09A518A
:10398C00D8A4CBEF1CF0CDEF1CF0D1EF1CF0000E47
:10399C007B6F000E7A6F99EC3AF04BEC3CF0000E1A
:1039AC0000019C6F000E00019A6FDAEF21F0A45118
:1039BC00D8B4E3EF1CF0E5EF1CF0C6EF1EF09A5103
:1039CC00D8A4EBEF1CF0EDEF1CF0C6EF1EF0000ED0
:1039DC007B6F010E7A6F010E9A6FA4C086F0876B15
:1039EC0086C009F087C00AF0C3C00BF0C6EC35F0F6
:1039FC0086C082F087C083F01E0E0001BD6F000EE2
:103A0C00BE6F000EBF6F000EC06F880EA419D8A435
:103A1C0012EF1DF014EF1DF018EF1DF0010EC36F27
:103A2C0023EF1DF0770EA419D8A41FEF1DF021EF82
:103A3C001DF023EF1DF0000EC36FC6EC39F0400EE5
:103A4C000F6E000E106E000E116E000E126E97ECC3
:103A5C0037F00F500001966F54EF1DF0030EC26F3C
:103A6C00E80EC16F75EF1DF00B0EC26FB80EC16F73
:103A7C0075EF1DF00F0EC26FA00EC16F75EF1DF02C
:103A8C00130EC26F880EC16F75EF1DF0070EC26F5B
:103A9C00D00EC16F820E966F75EF1DF09651C46FEC
:103AAC00C56BC551000AD8B45EEF1DF04CEF1DF08C
:103ABC00C451810AD8B434EF1DF0030AD8B44CEFCA
:103ACC001DF0010AD8B43AEF1DF0070AD8B440EF44
:103ADC001DF0010AD8B446EF1DF04CEF1DF0600E3E
:103AEC000F6E000E106E000E116E000E126E97EC23
:103AFC0037F00F500001976FAAEF1DF0030E896F7E
:103B0C00E80E886FCFEF1DF0070E896FD00E886F0F
:103B1C00CFEF1DF00B0E896FB80E886FCFEF1DF035
:103B2C000F0E896FA00E886FCFEF1DF0130E896FEB
:103B3C00880E886FCFEF1DF0000E896F000E886F16
:103B4C00300E976FCFEF1DF09751C46FC56BC551F9
:103B5C00000AD8B4B4EF1DF0A2EF1DF0C451300A26
:103B6C00D8B4A2EF1DF0010AD8B484EF1DF0030AFB
:103B7C00D8B48AEF1DF0010AD8B490EF1DF0070AF3
:103B8C00D8B496EF1DF0010AD8B49CEF1DF0A2EF4B
:103B9C001DF0C351D8B4D5EF1DF0D7EF1DF0EEEFEB
:103BAC001DF08B82C1C001F0C2C002F069EC3BF089
:103BBC008B92040E0001C56F0C0EC46F330EE82EF1
:103BCC00FED7C42FFCD7C52FFAD700D0EFEF1DF0CE
:103BDC008B92898488C001F089C002F069EC3BF0BB
:103BEC0077EC3CF0020E0001C56F860EC46F990E87
:103BFC00E82EFED7C42FFCD7C52FFAD71E0E000116
:103C0C00BD6F000EBE6F000EBF6F000EC06F55EC87
:103C1C0038F001C0C6F002C0C7F00001BD51BE11A2
:103C2C00BF11C011D8A41DEF1EF01FEF1EF034EF12
:103C3C001EF07CEC3CF0E10E0001A16F110EA06FA8
:103C4C00A151A0259F6FA1C0B1F0A0C0B2F09FC040
:103C5C00B3F0E4C0B4F0E5513FEC39F00001C651CB
:103C6C00C711D8A43CEF1EF03EEF1EF00DEF1EF076
:103C7C004E0E0001C46FEB0EE82EFED7C42FFCD7FE
:103C8C001E0E0001BD6F000EBE6F000EBF6F000E4A
:103C9C00C06F55EC38F001C0C6F002C0C7F000018F
:103CAC00BD51BE11BF11C011D8A45FEF1EF061EF62
:103CBC001EF076EF1EF07CEC3CF0E20E0001A16FE2
:103CCC00110EA06FA151A0259F6FA1C0B1F0A0C093
:103CDC00B2F09FC0B3F0E4C0B4F0E5513FEC39F062
:103CEC000001C605C711D8A47EEF1EF080EF1EF0B0
:103CFC004FEF1EF01E0EBD6F000EBE6F000EBF6F9D
:103D0C00000EC06FBBC001F0BCC002F069EC3BF010
:103D1C007CEC3CF00001C351D8B497EF1EF099EF46
:103D2C001EF0B0EF1EF08B82C1C001F0C2C002F0D9
:103D3C0069EC3BF08B92040E0001C56F0C0EC46F46
:103D4C00330EE82EFED7C42FFCD7C52FFAD700D0E0
:103D5C00B1EF1EF08B92F90E0001A16FA4C0A0F080
:103D6C00A151A0259F6FA1C0B1F0A0C0B2F09FC01F
:103D7C00B3F0E4C0B4F0E5513FEC39F0DBEF1EF0EA
:103D8C00F50EA419D8A4CDEF1EF0CFEF1EF0DBEF8B
:103D9C001EF09A51D8A4D5EF1EF0D7EF1EF0DBEF32
:103DAC001EF0000E7B6F000E7A6F99EC3AF04BEC24
:103DBC003CF0000E00017B6F000E7A6FD5EF1CF00B
:103DCC007CEC3CF0310E0001B16F000EB26F310E85
:103DDC00B36FFE0EB46FEF0E3FEC39F0DAEF21F05B
:103DEC007CEC3CF0320E0001B16F000EB26F310E64
:103DFC00B36FFE0EB46FEF0E3FEC39F0DAEF21F03B
:103E0C009A51D8A40CEF1FF00EEF1FF0DAEF21F04F
:103E1C00010E9A6FA4C097F03AEF1FF0030E896F52
:103E2C00E80E886F5FEF1FF0070E896FD00E886F5A
:103E3C005FEF1FF00B0E896FB80E886F5FEF1FF0EE
:103E4C000F0E896FA00E886F5FEF1FF0130E896F36
:103E5C00880E886F5FEF1FF0000E896F000E886F61
:103E6C00300E976F5FEF1FF09751C46FC56BC55144
:103E7C00000AD8B444EF1FF032EF1FF0C451300ADF
:103E8C00D8B432EF1FF0010AD8B414EF1FF0030AB4
:103E9C00D8B41AEF1FF0010AD8B420EF1FF0070AAC
:103EAC00D8B426EF1FF0010AD8B42CEF1FF032EF74
:103EBC001FF0600E0F6E000E106E000E116E000ED5
:103ECC00126E97C013F0146A1AEC39F099EC3AF0B0
:103EDC00D8EF1CF09A51D8A476EF1FF078EF1FF0B2
:103EEC00DAEF21F0010E9A6FA4C096F09EEF1FF04E
:103EFC00030EC26FE80EC16FBFEF1FF00B0EC26F47
:103F0C00B80EC16FBFEF1FF00F0EC26FA00EC16FC6
:103F1C00BFEF1FF0130EC26F880EC16FBFEF1FF003
:103F2C00070EC26FD00EC16F820E966FBFEF1FF0DF
:103F3C009651C46FC56BC551000AD8B4A8EF1FF0D9
:103F4C0096EF1FF0C451810AD8B47EEF1FF0030A1C
:103F5C00D8B496EF1FF0010AD8B484EF1FF0070A0B
:103F6C00D8B48AEF1FF0010AD8B490EF1FF096EF87
:103F7C001FF0400E0F6E000E106E000E116E000E34
:103F8C00126E96C013F0146A1AEC39F0D8EF1CF0CC
:103F9C009A51D8A4D4EF1FF0D6EF1FF0DAEF21F02E
:103FAC00A451D8A4DCEF1FF0DEEF1FF027EF20F0B8
:103FBC00010E9A6F600E0F6E000E106E000E116ED9
:103FCC00000E126E97EC37F00F500001976F400EF9
:103FDC000F6E000E106E000E116E000E126E97EC2E
:103FEC0037F00F500001966F700E0F6E000E106EB2
:103FFC00000E116E000E126E97EC37F00FC092F09F
:10400C0010C093F097C0A1F092C0A0F096C09FF0A2
:10401C00020E0001C56F040EC46FBA0EE82EFED757
:10402C00C42FFCD7C52FFAD700F0A1C0B1F0A0C0A7
:10403C00B2F09FC0B3F0E4C0B4F00001E5513FEC26
:10404C0039F04BEC3CF0D8EF1CF09A51D8A431EF7E
:10405C0020F033EF20F0DAEF21F0A451D8A439EF9F
:10406C0020F03BEF20F027EF20F0010E9A6F900E1E
:10407C000F6E000E106E000E116E000E126E97EC8D
:10408C0037F00FC07CF010C07DF0800E0F6E000E6C
:10409C00106E000E116E000E126E97EC37F00FC002
:1040AC00DFF010C0E0F082C086F083C087F07CC0E7
:1040BC00A1F0DFC0A0F086C09FF0020E0001C56F1A
:1040CC00040EC46FBA0EE82EFED7C42FFCD7C52F32
:1040DC00FAD700F0A1C0B1F0A0C0B2F09FC0B3F00D
:1040EC00E4C0B4F00001E5513FEC39F027EF20F0CB
:1040FC00710EA419D8A485EF20F087EF20F098EF6B
:10410C0020F0000E166E040E156E0AEC2CF015C085
:10411C003AF116C03BF1000E0001C36F710EA06F97
:10412C00F8EF20F0720EA419D8A49FEF20F0A1EFA5
:10413C0020F0B0EF20F0000E166E000E156E0AEC9B
:10414C002CF015C03AF116C03BF1720E0001A06FB5
:10415C00F8EF20F0730EA419D8A4B7EF20F0B9EF44
:10416C0020F0C8EF20F0000E166E010E156E0AEC52
:10417C002CF015C03AF116C03BF1730E0001A06F84
:10418C00F8EF20F0740EA419D8A4CFEF20F0D1EFE3
:10419C0020F0E0EF20F0000E166E020E156E0AEC09
:1041AC002CF015C03AF116C03BF1740E0001A06F53
:1041BC00F8EF20F0750EA419D8A4E7EF20F0E9EF82
:1041CC0020F0F8EF20F0000E166E030E156E0AECC0
:1041DC002CF015C03AF116C03BF1750E0001A06F22
:1041EC00F8EF20F0700E0F6E000E106E000E116EB8
:1041FC00000E126E97EC37F00FC092F010C093F0D7
:10420C00C6EC39F0540E0001A16FA151A0259F6F8F
:10421C00A1C0B1F0A0C0B2F09FC0B3F0E4C0B4F044
:10422C00E5513FEC39F03AC101F03BC102F052ECE0
:10423C003BF0040E0001C56F0C0EC46F330EE82E5C
:10424C00FED7C42FFCD7C52FFAD700D099EC3AF083
:10425C004BEC3CF0DAEF21F09A51D8A438EF21F076
:10426C003AEF21F0DAEF21F0010E9A6F650EA419E6
:10427C00D8A443EF21F045EF21F04BEF21F0000ED5
:10428C00876F310E866F5DEF21F0660EA419D8A4EE
:10429C0052EF21F054EF21F05AEF21F0000E876F0E
:1042AC005A0E866F5DEF21F0A4C086F0876B86C036
:1042BC0082F087C083F086C009F087C00AF0C3C0C3
:1042CC000BF0C6EC35F0D8EF1CF09A51D8A471EF76
:1042DC0021F073EF21F0DAEF21F0010E9A6FA4C0F8
:1042EC007CF07D6B7C517D11D8B47FEF21F081EF98
:1042FC0021F08CEF21F07C057D11D8B488EF21F0F2
:10430C008AEF21F08CEF21F0D8EF1CF0900E0F6E9D
:10431C00000E106E000E116E000E126E7CC013F0AB
:10432C007DC014F01AEC39F0D8EF1CF00001A55147
:10433C00C46FC56BC551000AD8B4A7EF21F0DAEFF2
:10434C0021F0C451060AD8B45EEF1CF0250AD8B48B
:10435C0006EF1FF0120AD8B4E6EF1EF0030AD8B429
:10436C00F6EF1EF0760AD8B474EF1CF0020AD8B43B
:10437C00DDEF1CF0170AD8B4CEEF1FF0030AD8B447
:10438C002BEF20F0060AD8B47EEF20F0010AD8B447
:10439C006BEF21F0300AD8B470EF1FF0110AD8B4CB
:1043AC0032EF21F0DAEF21F0000E0001986FF0EF00
:1043BC0021F00001A569A469A369A5C0B1F0A4C04E
:1043CC00B2F0A3C0B3F0E4C0B4F0E5513FEC39F067
:1043DC00DAEF21F0120000019905D8A4F8EF21F0D2
:1043EC00FAEF21F011EF22F08B82E1C05DF1E2C017
:1043FC005EF106EC3BF08B92040E01016F6F0C0E1C
:10440C006E6F330EE82EFED76E2FFCD76F2FFAD7B8
:10441C0000D014EF22F08B9202EF22F0898400017D
:10442C0086518711D8A41DEF22F01FEF22F025EF43
:10443C0022F0000E856F010E846FC6EF23F0000E84
:10444C00856F000E846FC6EF23F0040045EC33F04B
:10445C00A5EC39F088C05DF189C05EF106EC3BF04B
:10446C006DEC3CF0020E01016F6F6C0E6E6F9F0EC7
:10447C00E82EFED76E2FFCD76F2FFAD700D01E0E6A
:10448C000001DB6F000EDC6F000EDD6F000EDE6FC7
:10449C00FDEC37F05DC17EF05EC17FF00001DB51B9
:1044AC00DC11DD11DE11D8A45EEF22F060EF22F0FA
:1044BC0065EF22F0310E61EC30F072EC3CF0000153
:1044CC007E517F11D8A46DEF22F06FEF22F04EEFEA
:1044DC0022F04E0E01016E6FEB0EE82EFED76E2F02
:1044EC00FCD71E0E0001DB6F000EDC6F000EDD6FC3
:1044FC00000EDE6FFDEC37F05DC17EF05EC17FF02B
:10450C000001DB51DC11DD11DE11D8A490EF22F09B
:10451C0092EF22F097EF22F0320E61EC30F072EC59
:10452C003CF000017E057F11D8A49FEF22F0A1EF93
:10453C0022F080EF22F01E0EDB6F000EDC6F000EFF
:10454C00DD6F000EDE6F8CC05DF18DC05EF106EC90
:10455C003BF072EC3CF0000186518711D8B4B9EFF6
:10456C0022F0BBEF22F0C7EF22F084058511D8B4FE
:10457C00C2EF22F0C4EF22F0C7EF22F08607D8A0DA
:10458C00870786C065F187C066F199C067F167EC53
:10459C0034F000019905D8A4D6EF22F0D8EF22F020
:1045AC0001EF23F086518711D8A4DFEF22F0E1EF61
:1045BC0022F0EAEF22F084058511D8A4E8EF22F06E
:1045CC00EAEF22F001EF23F08B82E1C05DF1E2C053
:1045DC005EF106EC3BF08B92040E01016F6F0C0E3A
:1045EC006E6F330EE82EFED76E2FFCD76F2FFAD7D7
:1045FC0000D043EF23F09951D8A407EF23F009EF33
:10460C0023F043EF23F086518711D8A410EF23F049
:10461C0012EF23F01BEF23F084058511D8A419EFBA
:10462C0023F01BEF23F043EF23F08B92865187117D
:10463C00D8A423EF23F025EF23F02EEF23F08405ED
:10464C008511D8A42CEF23F02EEF23F036EF23F0B6
:10465C00E1C05DF1E2C05EF106EC3BF043EF23F00C
:10466C00060E01016F6F130E6E6FAD0EE82EFED7A6
:10467C006E2FFCD76F2FFAD700D000019C05D8A461
:10468C004AEF23F04CEF23F07EEF23F0D9EF23F029
:10469C00000E856F020E846F86C065F187C066F1CF
:1046AC009951D8B45CEF23F05FEF23F0010E60EF6B
:1046BC0023F0000E0101676F67EC34F0820E0101EC
:1046CC006E6FDD0EE82EFED76E2FFCD700D086C0A5
:1046DC0065F187C066F199C067F167EC34F0820E22
:1046EC0001016E6FDD0EE82EFED76E2FFCD700D0C9
:1046FC0000017A517B11D8A486EF23F088EF23F0C8
:10470C009AEF23F084058511D8B48FEF23F091EF45
:10471C0023F04EEF23F084518511D8B498EF23F099
:10472C009AEF23F04EEF23F086C065F187C066F157
:10473C0099C067F167EC34F000017A517B11D8A471
:10474C00AAEF23F0ACEF23F0BDEF23F086518711D5
:10475C00D8B4B3EF23F0B5EF23F0BDEF23F086C050
:10476C0082F087C083F0000E876F000E866F820E7A
:10477C0001016E6FDD0EE82EFED76E2FFCD700D038
:10478C00000186518711D8A4CEEF23F0D0EF23F08F
:10479C002BEF22F084058511D8B4D7EF23F0D9EF95
:1047AC0023F02BEF22F0899486518711D8B4E1EFD6
:1047BC0023F0E3EF23F0EBEF23F09C05D8A4E9EF13
:1047CC0023F0EBEF23F011EF24F084518511D8A4E2
:1047DC00F2EF23F0F4EF23F011EF24F09905D8A4B5
:1047EC00FAEF23F0FCEF23F011EF24F08B82E1C001
:1047FC005DF1E2C05EF106EC3BF08B92040E010120
:10480C006F6F0C0E6E6F330EE82EFED76E2FFCD72B
:10481C006F2FFAD700D0000E0001856F000E846F49
:10482C00000E876F000E866F000E7B6F000E7A6F86
:10483C00000E986F120000019905D8A428EF24F0FF
:10484C002AEF24F03FEF24F08B82E1C001F0E2C0AC
:10485C0002F07FEC3BF08B92040E136E0C0E126E7A
:10486C00340EE82EFED7122EFCD7132EFAD742EFB9
:10487C0024F08B9232EF24F0898400018651871149
:10488C00D8A44BEF24F04DEF24F053EF24F0000E9E
:10489C00856F010E846FE7EF25F0000E856F000E1B
:1048AC00846FE7EF25F0040009EC34F0E6EC39F006
:1048BC0088C001F089C002F07FEC3BF077EC3CF053
:1048CC00020E136E6C0E126EA00EE82EFED7122E78
:1048DC00FCD7132EFAD71E0E0001DB6F000EDC6F17
:1048EC00000EDD6F000EDE6F55EC38F001C07EF06F
:1048FC0002C07FF00001DB51DC11DD11DE11D8A408
:10490C008AEF24F08CEF24F091EF24F0310ED7ECE9
:10491C0030F07CEC3CF000017E517F11D8A499EF73
:10492C0024F09BEF24F07AEF24F04E0E126EEB0E77
:10493C00E82EFED7122EFCD700F01E0E0001DB6F06
:10494C00000EDC6F000EDD6F000EDE6F55EC38F0E4
:10495C0001C07EF002C07FF00001DB51DC11DD11E3
:10496C00DE11D8A4BCEF24F0BEEF24F0C3EF24F08A
:10497C00320ED7EC30F07CEC3CF000017E057F1160
:10498C00D8A4CBEF24F0CDEF24F0ACEF24F01E0E26
:10499C00DB6F000EDC6F000EDD6F000EDE6F8CC067
:1049AC0001F08DC002F07FEC3BF07CEC3CF00001A0
:1049BC0086518711D8B4E5EF24F0E7EF24F0F3EF3C
:1049CC0024F084058511D8B4EEEF24F0F0EF24F038
:1049DC00F3EF24F08607D8A0870786C009F087C0BC
:1049EC000AF099C00BF0C6EC35F000019905D8A47B
:1049FC0002EF25F004EF25F02BEF25F086518711FF
:104A0C00D8A40BEF25F00DEF25F016EF25F084055B
:104A1C008511D8A414EF25F016EF25F02BEF25F017
:104A2C008B82E1C001F0E2C002F07FEC3BF08B9294
:104A3C00040E136E0C0E126E340EE82EFED7122ED0
:104A4C00FCD7132EFAD76BEF25F09951D8A431EF80
:104A5C0025F033EF25F06BEF25F086518711D8A4A4
:104A6C003AEF25F03CEF25F045EF25F08405851154
:104A7C00D8A443EF25F045EF25F06BEF25F08B9292
:104A8C0086518711D8A44DEF25F04FEF25F058EF44
:104A9C0025F084058511D8A456EF25F058EF25F0A4
:104AAC0060EF25F0E1C001F0E2C002F07FEC3BF0DA
:104ABC006BEF25F0060E136E130E126EAE0EE82E73
:104ACC00FED7122EFCD7132EFAD700019C05D8A4C2
:104ADC0072EF25F074EF25F0A1EF25F0FAEF25F039
:104AEC00000E856F020E846F86C009F087C00AF035
:104AFC009951D8B484EF25F087EF25F0010E88EF9B
:104B0C0025F0000E0B6EC6EC35F0820E126EDE0E2A
:104B1C00E82EFED7122EFCD786C009F087C00AF00B
:104B2C0099C00BF0C6EC35F0820E126EDE0EE82E3C
:104B3C00FED7122EFCD700017A517B11D8A4A9EF15
:104B4C0025F0ABEF25F0BDEF25F084058511D8B429
:104B5C00B2EF25F0B4EF25F076EF25F084518511F6
:104B6C00D8B4BBEF25F0BDEF25F076EF25F086C06D
:104B7C0009F087C00AF099C00BF0C6EC35F00001C3
:104B8C007A517B11D8A4CDEF25F0CFEF25F0E0EFD3
:104B9C0025F086518711D8B4D6EF25F0D8EF25F043
:104BAC00E0EF25F086C082F087C083F0000E876F9F
:104BBC00000E866F820E126EDE0EE82EFED7122EBF
:104BCC00FCD7000186518711D8A4EFEF25F0F1EF47
:104BDC0025F059EF24F084058511D8B4F8EF25F0B1
:104BEC00FAEF25F059EF24F0899486518711D8B447
:104BFC0002EF26F004EF26F00CEF26F09C05D8A46B
:104C0C000AEF26F00CEF26F030EF26F084518511D8
:104C1C00D8A413EF26F015EF26F030EF26F0990507
:104C2C00D8A41BEF26F01DEF26F030EF26F08B8278
:104C3C00E1C001F0E2C002F07FEC3BF08B92040E7D
:104C4C00136E0C0E126E340EE82EFED7122EFCD7FD
:104C5C00132EFAD7000E0001856F000E846F000E24
:104C6C00876F000E866F000E7B6F000E7A6F000E42
:104C7C00986F12002EC0D9FF2FC0DAFFDECFF6FFDF
:104C8C00DDCFF7FFF86A0800F550250AD8A451EFDC
:104C9C0026F053EF26F06BEF27F02EC0D9FF2FC074
:104CAC00DAFFDE2A000EDD22000E0001716F000E0D
:104CBC00706F70C05EF072697369000E356E000E15
:104CCC00346E94EF26F05E822EC0D9FF2FC0DAFF2F
:104CDC00DE2A000EDD2294EF26F0000E356E010E5A
:104CEC00346E94EF26F02EC0D9FF2FC0DAFFDECF42
:104CFC00F6FFDDCFF7FFF86A0800F550326E336A25
:104D0C003350000AD8B48DEF26F073EF26F03250F2
:104D1C00300AD8B469EF26F073EF26F03450351012
:104D2C00D8B49BEF26F09DEF26F079EF26F02EC03D
:104D3C0007F02FC008F030C009F031C00AF018ECB1
:104D4C0032F007C070F008C071F0000171BFB3EF12
:104D5C0026F0B1EF26F0B8EF26F05E80706D711F73
:104D6C00D8B0712B2EC0D9FF2FC0DAFFDECF3AF0AE
:104D7C00DDCF3BF03AC0F6FF3BC0F7FFF86A080006
:104D8C00F550640AD8B4CDEF26F0CFEF26F0DEEF65
:104D9C0026F03AC0F6FF3BC0F7FFF86A0800F55062
:104DAC00690AD8A4DCEF26F0DEEF26F00CEF27F032
:104DBC0030C0D9FF31C0DAFFDFCF32F0020EDE2671
:104DCC00DFCF33F0000EDD2232C0D9FF33C0DAFF63
:104DDC00DECF36F0DDCF37F0010E3A24326E000E06
:104DEC003B20336E2EC0D9FF2FC0DAFF32C0DEFF5E
:104DFC0033C0DDFF2CC01CF02DC01DF036C01EF0E2
:104E0C0037C01FF0DFEC29F080EF27F03AC0F6FF37
:104E1C003BC0F7FFF86A0800F550580AD8A419EF00
:104E2C0027F01BEF27F062EF27F030C0D9FF31C01D
:104E3C00DAFFDFCF32F0020EDE26DFCF33F0000ECA
:104E4C00DD2232C0D9FF33C0DAFFDECF36F0DDCF42
:104E5C0037F0010E3A24326E000E3B20336E2EC01A
:104E6C00D9FF2FC0DAFF32C0DEFF33C0DDFF4BEFBE
:104E7C0027F02CC01CF02DC01DF036C01EF037C022
:104E8C001FF0C6EC2AF080EF27F03AC0F6FF3BC0CB
:104E9C00F7FFF86A0800F550326E336A3350000A97
:104EAC00D8B45BEF27F062EF27F03250580AD8B431
:104EBC003FEF27F062EF27F02EC0D9FF2FC0DAFFAB
:104ECC00DE2A000EDD2280EF27F02EC0D9FF2FC086
:104EDC00DAFFDECFF6FFDDCFF7FFF86A0800F550FA
:104EEC00016E026A2CC003F02DC004F07DEC32F090
:104EFC0062EF27F01200000E00017F6F000E7E6F34
:104F0C00410E5FEC2FF000019905D8A490EF27F02B
:104F1C0092EF27F0A9EF27F08B82E1C05DF1E2C0A0
:104F2C005EF106EC3BF08B92040E0101676F0C0EE8
:104F3C00666F330EE82EFED7662FFCD7672FFAD795
:104F4C0000D0ACEF27F08B929AEF27F0898467EFB3
:104F5C0028F0040045EC33F0A5EC39F088C05DF185
:104F6C0089C05EF106EC3BF06DEC3CF0020E0101E9
:104F7C00676F6C0E666F9F0EE82EFED7662FFCD700
:104F8C00672FFAD700D01E0E0001DB6F000EDC6F0E
:104F9C00000EDD6F000EDE6FFDEC37F05DC17EF0B4
:104FAC005EC17FF00001DB51DC11DD11DE11D8A4F4
:104FBC00E2EF27F0E4EF27F0E9EF27F0310E61EC98
:104FCC0030F072EC3CF000017E517F11D8A4F1EF6F
:104FDC0027F0F3EF27F0D2EF27F04E0E0101666FAA
:104FEC00EB0EE82EFED7662FFCD71E0E0001DB6FF2
:104FFC00000EDC6F000EDD6F000EDE6FFDEC37F087
:10500C005DC17EF05EC17FF00001DB51DC11DD1172
:10501C00DE11D8A414EF28F016EF28F01BEF28F0BF
:10502C00320E61EC30F072EC3CF000017E057F1129
:10503C00D8A423EF28F025EF28F004EF28F01E0E5B
:10504C00DB6F000EDC6F000EDD6F000EDE6F8CC0B0
:10505C005DF18DC05EF106EC3BF072EC3CF00001B2
:10506C009905D8A43CEF28F03EEF28F055EF28F036
:10507C008B82E1C05DF1E2C05EF106EC3BF08B92FD
:10508C00040E0101676F0C0E666F330EE82EFED70F
:10509C00662FFCD7672FFAD700D05CEF28F08B92E5
:1050AC00E1C05DF1E2C05EF106EC3BF000019C0555
:1050BC00D8A463EF28F065EF28F067EF28F070EFC5
:1050CC0028F000019C51D8B46EEF28F070EF28F056
:1050DC00AFEF27F0899486518711D8B478EF28F078
:1050EC007AEF28F082EF28F09C05D8A480EF28F006
:1050FC0082EF28F09FEF28F09905D8A488EF28F0CC
:10510C008AEF28F09FEF28F08B82E1C05DF1E2C0BE
:10511C005EF106EC3BF08B92040E0101676F0C0EF6
:10512C00666F330EE82EFED7662FFCD7672FFAD7A3
:10513C0000D0000E0001876F000E866F020E9819CA
:10514C00D8A4ABEF28F0ADEF28F0B1EF28F0020EA9
:10515C00986FB3EF28F0030E986F1200000E000149
:10516C007F6F000E7E6F410EE1EC2FF00001990570
:10517C00D8A4C3EF28F0C5EF28F0DAEF28F08B8223
:10518C00E1C001F0E2C002F07FEC3BF08B92040E28
:10519C000B6E0C0E0A6E340EE82EFED70A2EFCD7C0
:1051AC000B2EFAD7DDEF28F08B92CDEF28F0898407
:1051BC0094EF29F0040009EC34F0E6EC39F088C0E7
:1051CC0001F089C002F07FEC3BF077EC3CF0020E72
:1051DC000B6E6C0E0A6EA00EE82EFED70A2EFCD7B4
:1051EC000B2EFAD71E0E0001DB6F000EDC6F000ECB
:1051FC00DD6F000EDE6F55EC38F001C07EF002C0A2
:10520C007FF00001DB51DC11DD11DE11D8A411EFB0
:10521C0029F013EF29F018EF29F0310ED7EC30F00C
:10522C007CEC3CF000017E517F11D8A420EF29F0DA
:10523C0022EF29F001EF29F04E0E0A6EEB0EE82E4C
:10524C00FED70A2EFCD700F01E0E0001DB6F000EFD
:10525C00DC6F000EDD6F000EDE6F55EC38F001C018
:10526C007EF002C07FF00001DB51DC11DD11DE119C
:10527C00D8A443EF29F045EF29F04AEF29F0320E7C
:10528C00D7EC30F07CEC3CF000017E057F11D8A40B
:10529C0052EF29F054EF29F033EF29F01E0EDB6F9B
:1052AC00000EDC6F000EDD6F000EDE6F8CC001F0A7
:1052BC008DC002F07FEC3BF07CEC3CF000019905DA
:1052CC00D8A46BEF29F06DEF29F082EF29F08B82D7
:1052DC00E1C001F0E2C002F07FEC3BF08B92040ED7
:1052EC000B6E0C0E0A6E340EE82EFED70A2EFCD76F
:1052FC000B2EFAD789EF29F08B92E1C001F0E2C0B6
:10530C0002F07FEC3BF000019C05D8A490EF29F053
:10531C0092EF29F094EF29F09DEF29F000019C51B8
:10532C00D8B49BEF29F09DEF29F0E0EF28F0899499
:10533C0086518711D8B4A5EF29F0A7EF29F0AFEF6C
:10534C0029F09C05D8A4ADEF29F0AFEF29F0CAEFF6
:10535C0029F09905D8A4B5EF29F0B7EF29F0CAEFD9
:10536C0029F08B82E1C001F0E2C002F07FEC3BF04F
:10537C008B92040E0B6E0C0E0A6E340EE82EFED7BA
:10538C000A2EFCD70B2EFAD7000E0001876F000EE9
:10539C00866F020E9819D8A4D6EF29F0D8EF29F011
:1053AC00DCEF29F0020E986FDEEF29F0030E986FF8
:1053BC0012001FBEE4EF29F0E7EF29F0010EE8EF31
:1053CC0029F0000E286E2850D8B4EFEF29F0F1EF39
:1053DC0029F0F5EF29F01E6C1F1ED8B01F2A000112
:1053EC0073BFFBEF29F0FDEF29F0FEEF29F05E9281
:1053FC0073BF05EF2AF003EF2AF00BEF2AF0000E33
:10540C00236E010E226E0FEF2AF072C022F073C0D1
:10541C0023F070C024F071C025F02850D8B419EFD7
:10542C002AF01BEF2AF032EF2AF02406D8A025062A
:10543C002850D8A424EF2AF026EF2AF02CEF2AF0DB
:10544C00000E216E2B0E206E30EF2AF0000E216E16
:10545C002D0E206E20C028F0000E276E1F0E266E1B
:10546C00000E01015C6F6BEF2AF02606D8A0270610
:10547C003D0E2624D96E010E2720DA6E1EC001F0D7
:10548C001FC002F0000E046E0A0E036E19EC35F00C
:10549C0001C007F002C008F006EC3AF00750300FDC
:1054AC00DF6E2206D8A023062406D8A025061EC02F
:1054BC0001F01FC002F0000E046E0A0E036EA7EC82
:1054CC0033F001C01EF002C01FF027BE76EF2AF0A9
:1054DC00275008E12604D8A076EF2AF078EF2AF0BE
:1054EC00A2EF2AF01E501F10D8A47FEF2AF081EFF4
:1054FC002AF03BEF2AF023BE8EEF2AF0235006E170
:10550C002204D8B08CEF2AF08EEF2AF03BEF2AF071
:10551C0025BE99EF2AF0255008E12404D8A099EF74
:10552C002AF09BEF2AF0A2EF2AF05EB2A0EF2AF04D
:10553C00A2EF2AF03BEF2AF02850D8B4A8EF2AF0BB
:10554C00AAEF2AF0B5EF2AF02606D8A027063D0EC2
:10555C002624D96E010E2720DA6E28C0DFFF1CC06E
:10556C0011F01DC012F03D0E2624136E010E2720E3
:10557C00146E24C015F025C016F071EC35F0120035
:10558C00000173BFCCEF2AF0CEEF2AF0CFEF2AF058
:10559C005E9273BFD6EF2AF0D4EF2AF0DCEF2AF03C
:1055AC00000E266E010E256EE0EF2AF072C025F07B
:1055BC0073C026F070C027F071C028F0000E2A6E60
:1055CC001F0E296E000E01015C6F29EF2BF02906CE
:1055DC00D8A02A061E500F0B2B6E090E2B64F9EF68
:1055EC002AF0FBEF2AF003EF2BF0370E2B24236E5F
:1055FC00246A000E242209EF2BF0300E2B24236E8C
:10560C00246A000E242223C02BF03D0E2924D96ECF
:10561C00010E2A20DA6E2BC0DFFF2506D8A0260645
:10562C002706D8A028061EC020F01FC021F0040EAB
:10563C00226ED89021322032222E1FEF2BF020C068
:10564C001EF021C01FF02ABE35EF2BF02A5009E1C5
:10565C00020E295CD8A035EF2BF037EF2BF061EF61
:10566C002BF01E501F10D8A43EEF2BF040EF2BF068
:10567C00EDEF2AF026BE4DEF2BF0265006E1250467
:10568C00D8B04BEF2BF04DEF2BF0EDEF2AF028BEFE
:10569C0058EF2BF0285008E12704D8A058EF2BF036
:1056AC005AEF2BF061EF2BF05EB25FEF2BF061EF56
:1056BC002BF0EDEF2AF01CC011F01DC012F03D0EC6
:1056CC002924136E010E2A20146E27C015F028C051
:1056DC0016F071EC35F01200E2EF2BF0000E766F45
:1056EC00070E756FF29E700E6B6F000E6C6F000ED6
:1056FC006D6F000E6E6F000E706F010E6F6F2BECE6
:10570C0038F0F28E05EF2CF0000E766F090E756FE7
:10571C00F29E700E6B6F000E6C6F000E6D6F000EB4
:10572C006E6F000E706F020E6F6F2BEC38F0F28EF6
:10573C0005EF2CF0000E766F0C0E756FF29E700E4E
:10574C006B6F000E6C6F000E6D6F000E6E6F000EA7
:10575C00706F030E6F6F2BEC38F0F28E05EF2CF0A0
:10576C00000E766F140E756FF29E700E6B6F000E3E
:10577C006C6F000E6D6F000E6E6F000E706F040E6E
:10578C006F6F2BEC38F0F28E05EF2CF0000E766F6D
:10579C00000E756FF29E700E6B6F000E6C6F000E2C
:1057AC006D6F000E6E6F000E706F000E6F6F2BEC36
:1057BC0038F0F28E05EF2CF071C173F172C174F1F7
:1057CC0001017451000AD8B4EEEF2BF005EF2CF068
:1057DC007351000AD8B474EF2BF0010AD8B48AEFD5
:1057EC002BF0030AD8B4A0EF2BF0010AD8B4B6EF13
:1057FC002BF0070AD8B4CCEF2BF005EF2CF075C1C9
:10580C0071F176C172F112007AEF2CF0000E1A6E63
:10581C00070E196EF29E700E0F6E000E106E000EBB
:10582C00116E000E126E000E146E010E136E1AEC39
:10583C0039F0F28E9CEF2CF0000E1A6E090E196ED8
:10584C00F29E700E0F6E000E106E000E116E000E9A
:10585C00126E000E146E020E136E1AEC39F0F28EEC
:10586C009CEF2CF0000E1A6E0C0E196EF29E700E40
:10587C000F6E000E106E000E116E000E126E000EEA
:10588C00146E030E136E1AEC39F0F28E9CEF2CF0A2
:10589C00000E1A6E140E196EF29E700E0F6E000E24
:1058AC00106E000E116E000E126E000E146E040EB1
:1058BC00136E1AEC39F0F28E9CEF2CF0000E1A6E6F
:1058CC00000E196EF29E700E0F6E000E106E000E12
:1058DC00116E000E126E000E146E000E136E1AEC8A
:1058EC0039F0F28E9CEF2CF015C017F016C018F0A2
:1058FC001850000AD8B485EF2CF09CEF2CF0175000
:10590C00000AD8B40CEF2CF0010AD8B422EF2CF01A
:10591C00030AD8B438EF2CF0010AD8B44EEF2CF0AF
:10592C00070AD8B464EF2CF09CEF2CF019C015F0DA
:10593C001AC016F012008B98000E69EC36F08B88AA
:10594C008B98000E69EC36F001016505D8A4B1EF17
:10595C002CF0B3EF2CF0C4EF2CF063056411D8A439
:10596C00BAEF2CF0BCEF2CF0C4EF2CF03E0E69EC2F
:10597C0036F0860E69EC36F02BEF2DF06505D8A4C9
:10598C00CAEF2CF0CCEF2CF0DEEF2CF0020E6319EA
:10599C006411D8A4D4EF2CF0D6EF2CF0DEEF2CF061
:1059AC003E0E69EC36F0DB0E69EC36F02BEF2DF089
:1059BC006505D8A4E4EF2CF0E6EF2CF0F8EF2CF012
:1059CC00030E63196411D8A4EEEF2CF0F0EF2CF059
:1059DC00F8EF2CF03E0E69EC36F0CF0E69EC36F099
:1059EC002BEF2DF06505D8A4FEEF2CF000EF2DF079
:1059FC0012EF2DF0040E63196411D8A408EF2DF0EA
:105A0C000AEF2DF012EF2DF03E0E69EC36F0E60E9B
:105A1C0069EC36F02BEF2DF06551D8A418EF2DF072
:105A2C001AEF2DF02BEF2DF063516411D8A421EF58
:105A3C002DF023EF2DF02BEF2DF03E0E69EC36F010
:105A4C00BF0E69EC36F02BEF2DF08B888B980D0E7A
:105A5C0069EC36F08B88120089846DEC3CF0040EF6
:105A6C000101676F8E0E666F120EE82EFED7662F41
:105A7C00FCD7672FFAD700F01E0E0001DB6F000E6B
:105A8C00DC6F000EDD6F000EDE6FFDEC37F05DC1DC
:105A9C007EF05EC17FF00001DB51DC11DD11DE1107
:105AAC00D8A45BEF2DF05DEF2DF062EF2DF0310EF1
:105ABC0061EC30F072EC3CF000017E517F11D8A407
:105ACC006AEF2DF06CEF2DF04BEF2DF04E0E010127
:105ADC00666FEB0EE82EFED7662FFCD71E0E00016C
:105AEC00DB6F000EDC6F000EDD6F000EDE6FFDEC69
:105AFC0037F05DC17EF05EC17FF00001DB51DC113F
:105B0C00DD11DE11D8A48DEF2DF08FEF2DF094EF79
:105B1C002DF0320E61EC30F072EC3CF000017E05A1
:105B2C007F11D8A49CEF2DF09EEF2DF07DEF2DF082
:105B3C001E0EDB6F000EDC6F000EDD6F000EDE6FD5
:105B4C008CC05DF18DC05EF106EC3BF072EC3CF06C
:105B5C00060E0101676F130E666FAD0EE82EFED7B1
:105B6C00662FFCD7672FFAD700D0000E00017F6F8D
:105B7C00000E7E6F89941200000E0001B06F000EB3
:105B8C00AF6F42EF2EF0AB05D8A4CFEF2DF0D1EFD5
:105B9C002DF026EF2EF09EA8D6EF2DF0D8EF2DF09D
:105BAC00D1EF2DF00001AF51A725D96EB051A8212E
:105BBC00DA6EDF50AE6E1E0E016E100E026E0150CC
:105BCC000210D8A4000E036E5EEC37F00001AF514A
:105BDC00A725D96EB051A821DA6EDF5020EC3BF02E
:105BEC00FF0E0001A925AC6FFF0EAA21AD6FAC51C1
:105BFC00AF5DB051800AAE6FAD51800AAE59D8B0CE
:105C0C000AEF2EF00CEF2EF019EF2EF0540E016E61
:105C1C00100E026E01500210D8A4000E036E5EEC42
:105C2C0037F03FEF2EF0510E016E100E026E015048
:105C3C000210D8A4000E036E5EEC37F03FEF2EF08E
:105C4C00020EAB19D8A42DEF2EF02FEF2EF03FEF54
:105C5C002EF0A4A834EF2EF036EF2EF02FEF2EF00E
:105C6C000001AF51A725D96EB051A821DA6EDF50D3
:105C7C00A96E0001AF4BB02BA951AF5DB051800A9A
:105C8C00AC6FAA51800AAC59D8A04FEF2EF051EF4F
:105C9C002EF0C9EF2DF01200000E0101666F64BFEB
:105CAC005CEF2EF05AEF2EF066EF2EF0641F631FA0
:105CBC00621F616D000E622363236423010E666F05
:105CCC0060BF6DEF2EF06BEF2EF077EF2EF0601FB4
:105CDC005F1F5E1F5D6D000E5E235F236023010E50
:105CEC00661B000E676F000E686F000E696F000E6A
:105CFC006A6F6151621163116411D8B488EF2EF090
:105D0C008AEF2EF0C0EF2EF0010E656F94EF2EF09F
:105D1C00D8906137623763376437652B64AF99EF7E
:105D2C002EF09BEF2EF08EEF2EF0D8906737683761
:105D3C0069376A3761515D5D62515E5963515F59D4
:105D4C0064516059D8A0ADEF2EF0AFEF2EF0B8EF44
:105D5C002EF061515D5F62515E5B63515F5B64511C
:105D6C00605B6781D8906433633362336133652F32
:105D7C009BEF2EF06651D8B4C6EF2EF0C8EF2EF084
:105D8C00D0EF2EF06A1F691F681F676D000E682325
:105D9C0069236A2367C15DF168C15EF169C15FF176
:105DAC006AC160F11200000E0A6E08BEE2EF2EF01E
:105DBC00E0EF2EF0ECEF2EF0081E071E061E056C11
:105DCC00000E062207220822010E0A6E04BEF3EF13
:105DDC002EF0F1EF2EF0FDEF2EF0041E031E021E2E
:105DEC00016C000E022203220422010E0A1A000E7C
:105DFC000B6E000E0C6E000E0D6E000E0E6E05502E
:105E0C00061007100810D8B40EEF2FF010EF2FF07B
:105E1C0046EF2FF0010E096E1AEF2FF0D8900536D1
:105E2C00063607360836092A08AE1FEF2FF021EF89
:105E3C002FF014EF2FF0D8900B360C360D360E36A3
:105E4C000550015C0650025807500358085004587E
:105E5C00D8A033EF2FF035EF2FF03EEF2FF0055099
:105E6C00015E0650025A0750035A0850045A0B8020
:105E7C00D8900832073206320532092E21EF2FF066
:105E8C000A50D8B44CEF2FF04EEF2FF056EF2FF006
:105E9C000E1E0D1E0C1E0B6C000E0C220D220E2263
:105EAC000BC001F00CC002F00DC003F00EC004F0EA
:105EBC0012000101656F8B98000E69EC36F08B882F
:105ECC008B98000E69EC36F0ACEF2FF0790E69EC84
:105EDC0036F03F0E69EC36F0DAEF2FF03F0E69EC3E
:105EEC0036F0730E69EC36F0DAEF2FF0390E69EC00
:105EFC0036F0770E69EC36F0DAEF2FF0000E69EC25
:105F0C0036F0000E69EC36F0DAEF2FF0000E69EC8B
:105F1C0036F03F0E69EC36F0DAEF2FF0790E69ECC3
:105F2C0036F0060E69EC36F0DAEF2FF0770E69ECEE
:105F3C0036F03E0E69EC36F0DAEF2FF0000E69EC1D
:105F4C0036F03E0E69EC36F0DAEF2FF001016551B8
:105F5C00636F646B6451000AD8B4B7EF2FF0DAEFBB
:105F6C002FF06351410AD8B49CEF2FF0020AD8B439
:105F7C007CEF2FF0060AD8B46CEF2FF0020AD8B4DD
:105F8C008CEF2FF0080AD8B474EF2FF01C0AD8B499
:105F9C0094EF2FF0050AD8B4A4EF2FF00E0AD8B462
:105FAC0084EF2FF0DAEF2FF08B888B980D0E69ECC5
:105FBC0036F08B881200096E8B98000EACEC36F024
:105FCC008B888B98000EACEC36F02DEF30F0790E00
:105FDC00ACEC36F03F0EACEC36F05AEF30F03F0E36
:105FEC00ACEC36F0730EACEC36F05AEF30F0390EF8
:105FFC00ACEC36F0770EACEC36F05AEF30F0000E1D
:10600C00ACEC36F0000EACEC36F05AEF30F0000E83
:10601C00ACEC36F03F0EACEC36F05AEF30F0790EBB
:10602C00ACEC36F0060EACEC36F05AEF30F0770EE6
:10603C00ACEC36F03E0EACEC36F05AEF30F0000E15
:10604C00ACEC36F03E0EACEC36F05AEF30F00950BA
:10605C00076E086A0850000AD8B437EF30F05AEFD0
:10606C0030F00750410AD8B41DEF30F0020AD8B412
:10607C00FDEF2FF0060AD8B4EDEF2FF0020AD8B4DA
:10608C000DEF30F0080AD8B4F5EF2FF01C0AD8B495
:10609C0015EF30F0050AD8B425EF30F00E0AD8B45D
:1060AC0005EF30F05AEF30F08B888B980D0EACEC7E
:1060BC0036F08B8812000101656F8B98000E69EC2D
:1060CC0036F08B888B98000E69EC36F0A6EF30F02A
:1060DC00790E69EC36F0770E69EC36F0D0EF30F0D3
:1060EC00790E69EC36F03F0E69EC36F0D0EF30F0FB
:1060FC00790E69EC36F0060E69EC36F0D0EF30F024
:10610C00790E69EC36F05B0E69EC36F0D0EF30F0BE
:10611C00000E69EC36F03F0E69EC36F0D0EF30F043
:10612C00790E69EC36F0060E69EC36F0D0EF30F0F3
:10613C00770E69EC36F03E0E69EC36F0D0EF30F0AD
:10614C0001016551636F646B6451000AD8B4B1EFFF
:10615C0030F0D0EF30F06351300AD8B476EF30F035
:10616C00010AD8B47EEF30F0030AD8B486EF30F0D1
:10617C00730AD8B49EEF30F0040AD8B46EEF30F046
:10618C00020AD8B48EEF30F0140AD8B496EF30F07F
:10619C00D0EF30F08B888B980D0E69EC36F08B8835
:1061AC001200096E8B98000EACEC36F08B888B9835
:1061BC00000EACEC36F01BEF31F0790EACEC36F097
:1061CC00770EACEC36F044EF31F0790EACEC36F0E7
:1061DC003F0EACEC36F044EF31F0790EACEC36F00F
:1061EC00060EACEC36F044EF31F0790EACEC36F038
:1061FC005B0EACEC36F044EF31F0000EACEC36F04C
:10620C003F0EACEC36F044EF31F0790EACEC36F0DE
:10621C00060EACEC36F044EF31F0770EACEC36F009
:10622C003E0EACEC36F044EF31F00950076E086AC4
:10623C000850000AD8B425EF31F044EF31F0075084
:10624C00300AD8B4EBEF30F0010AD8B4F3EF30F0E9
:10625C00030AD8B4FBEF30F0730AD8B413EF31F063
:10626C00040AD8B4E3EF30F0020AD8B403EF31F0EB
:10627C00140AD8B40BEF31F044EF31F08B888B98C3
:10628C000D0EACEC36F08B88120079EF31F03F0E2E
:10629C00616FB0EF31F0060E616FB0EF31F05B0E55
:1062AC00616FB0EF31F04F0E616FB0EF31F0660EF1
:1062BC00616FB0EF31F06D0E616FB0EF31F07D0EAC
:1062CC00616FB0EF31F0070E616FB0EF31F07F0E00
:1062DC00616FB0EF31F06F0E616FB0EF31F0000E07
:1062EC00616FB0EF31F05DC15FF15EC160F1010132
:1062FC006051000AD8B485EF31F075EF31F05F5181
:10630C00000AD8B44DEF31F0010AD8B451EF31F096
:10631C00030AD8B455EF31F0010AD8B459EF31F073
:10632C00070AD8B45DEF31F0010AD8B461EF31F04F
:10633C00030AD8B465EF31F0010AD8B469EF31F033
:10634C000F0AD8B46DEF31F0010AD8B471EF31F007
:10635C0075EF31F061511200E0EF31F03F0E056E38
:10636C0016EF32F0060E056E16EF32F05B0E056E70
:10637C0016EF32F04F0E056E16EF32F0660E056E0C
:10638C0016EF32F06D0E056E16EF32F07D0E056EC7
:10639C0016EF32F0070E056E16EF32F07F0E056E1B
:1063AC0016EF32F06F0E056E16EF32F0000E056E22
:1063BC0016EF32F001C003F002C004F00450000AE2
:1063CC00D8B4EBEF31F0DCEF31F00350000AD8B465
:1063DC00B4EF31F0010AD8B4B8EF31F0030AD8B4F5
:1063EC00BCEF31F0010AD8B4C0EF31F0070AD8B4D1
:1063FC00C4EF31F0010AD8B4C8EF31F0030AD8B4B5
:10640C00CCEF31F0010AD8B4D0EF31F00F0AD8B488
:10641C00D4EF31F0010AD8B4D8EF31F0DCEF31F021
:10642C0005501200000E0F6E000E0E6E07C0D9FF45
:10643C0008C0DAFFDECFF6FFDDCFF7FFF86A080001
:10644C00F5502A0AD8A42DEF32F02FEF32F063EF7B
:10645C0032F007C0D9FF08C0DAFFDE2A000EDD22B9
:10646C0009C0D9FF0AC0DAFFDFCF0BF0020EDE261F
:10647C00DFCF0CF0000EDD220BC0D9FF0CC0DAFF11
:10648C00DECF0EF0DDCF0FF078EF32F00EC001F062
:10649C000FC002F0000E046E0A0E036EBCEC3BF053
:1064AC000D5001240E6E000E02200F6E07C0D9FF96
:1064BC0008C0DAFFDE2A000EDD2207C0D9FF08C0B3
:1064CC00DAFFDECFF6FFDDCFF7FFF86A0800F550F4
:1064DC00D00F0D6E090E0D6476EF32F078EF32F0BE
:1064EC004CEF32F00EC007F00FC008F01200035052
:1064FC000410D8B484EF32F086EF32F08FEF32F024
:10650C0003500410D8A48DEF32F08FEF32F094EFDB
:10651C0032F00150ABEC3CF0E1EF32F020EE0AF03F
:10652C000350D9260450DA22DE50DE10D8B4A1EF85
:10653C0032F0A3EF32F0BEEF32F020EE0AF003504F
:10654C00D9260450DA2210EE03F00350E126045051
:10655C00E222DE50E65CE650800A096EDE50800ACC
:10656C000958D8B0BCEF32F0BEEF32F0E1EF32F0A8
:10657C0020EE03F00350D9260450DA22DECF05F0CA
:10658C00DDCF06F003C0D9FF04C0DAFFDECF07F081
:10659C00DDCF08F005500724D96E06500820DA6EBE
:1065AC0001C0DFFF20EE03F00350D9260450DA229D
:1065BC00DE2A000EDD221200000E0101626F60BFA8
:1065CC00ECEF32F0EAEF32F0F2EF32F05F6D601F79
:1065DC00D8B0602B010E626F5EBFF9EF32F0F7EFAF
:1065EC0032F0FFEF32F05D6D5E1FD8B05E2B010E06
:1065FC00621B000E646F000E636F5F516011D8B4A4
:10660C000AEF33F00CEF33F034EF33F0010E616F1F
:10661C0014EF33F0D8905F376037612B60AF19EF10
:10662C0033F01BEF33F010EF33F0D890633764374F
:10663C005F515D5D60515E59D8A027EF33F029EFB3
:10664C0033F02EEF33F05F515D5F60515E5B638121
:10665C00D89060335F33612F1BEF33F06251D8B4A5
:10666C003AEF33F03CEF33F040EF33F0636D641FDF
:10667C00D8B0642B63C15DF164C15EF11200A50E4C
:10668C000001606F450E616F000E626F450E636F07
:10669C00FE0E646FF29E020E9819D8A458EF33F0D8
:1066AC005AEF33F07BEF33F0000E0101606F000EF8
:1066BC005F6F600E5F25D96E000E6021DA6EDF50C1
:1066CC0014EC3CF001015F4B602B60BF77EF33F0B3
:1066DC00605109E1050E5F5DD8A077EF33F079EFDB
:1066EC0033F05FEF33F0A3EF33F0030E9819D8A417
:1066FC0082EF33F084EF33F0A3EF33F0000E01019F
:10670C00606F000E5F6F600E5F25D96E000E60210A
