:0400000045EF02F0D6
:100008005782D9CF35F0DACF36F09EAA0EEF00F03E
:1000180010EF00F0DDEF00F075EC22F0386EA50E61
:100028003818D8A41AEF00F01CEF00F03EEF00F0EB
:100038003050D8B422EF00F024EF00F02CEF00F09D
:100048002C04D8A42AEF00F02CEF00F03EEF00F0CB
:10005800010E2F6E000E226E000E216E800E2124DE
:10006800D96E000E2220DA6E38C0DFFF214A222A1C
:10007800A5EF01F02F04D8A444EF00F046EF00F0FC
:10008800A5EF01F0800E2124D96E000E2220DA6E31
:1000980038C0DFFF225007E1050E215CD8B057EFCA
:1000A80000F059EF00F0D9EF00F05A0E3818D8A434
:1000B80060EF00F062EF00F03AEF00F000018151CC
:1000C8008225376E37508319D8A46DEF00F06FEF93
:1000D80000F0AEEF00F02C50D8B475EF00F077EFD9
:1000E80000F080EF00F0F50E8219D8A47EEF00F042
:1000F80080EF00F096EF00F0000E396E800E392484
:10010800D96EDA6A000EDA22DF50C0EC22F0392A02
:10011800040E396492EF00F094EF00F082EF00F0E3
:10012800A4EF00F0000E396E160EC0EC22F0392A4A
:10013800040E3964A2EF00F0A4EF00F098EF00F08D
:10014800010E306E000E226E000E216E020E296E18
:10015800C2EF00F0000E306E000E226E000E216E0F
:10016800000E396E150EC0EC22F0392A040E3964DF
:10017800C0EF00F0C2EF00F0B6EF00F0F50E00019E
:100188008219D8A4CAEF00F0CCEF00F03AEF00F0E3
:10019800020E2918D8A4D3EF00F0D5EF00F03AEFFB
:1001A80000F0010E2E6E3AEF00F0000E2F6E3AEFBF
:1001B80000F0A4AAE2EF00F0E4EF00F09BEF01F0FA
:1001C800CBEC22F0386EA50E3818D8A4EEEF00F06C
:1001D800F0EF00F002EF01F03050D8B4F6EF00F085
:1001E800F8EF00F02CEF00F02C04D8A4FEEF00F09C
:1001F80000EF01F002EF01F02CEF00F02F04D8A47B
:1002080008EF01F00AEF01F0A5EF01F0800E2124BC
:10021800D96E000E2220DA6E38C0DFFF225007E1C7
:10022800050E215CD8B01BEF01F01DEF01F0D9EFEE
:1002380000F05A0E3818D8A424EF01F026EF01F088
:100248003AEF00F0000181518225376E375083194B
:10025800D8A431EF01F033EF01F072EF01F02C5028
:10026800D8B439EF01F03BEF01F044EF01F0F50E9F
:100278008219D8A442EF01F044EF01F05AEF01F0DF
:10028800000E396E800E3924D96EDA6A000EDA2231
:10029800DF50B5EC22F0392A040E396456EF01F02C
:1002A80058EF01F046EF01F068EF01F0000E396EEB
:1002B800160EB5EC22F0392A040E396466EF01F007
:1002C80068EF01F05CEF01F0010E306E000E226E57
:1002D800000E216E030E296E86EF01F0000E306EBF
:1002E800000E226E000E216E000E396E150EB5EC52
:1002F80022F0392A040E396484EF01F086EF01F008
:100308007AEF01F0F50E00018219D8A48EEF01F002
:1003180090EF01F03AEF00F0030E2918D8A497EFF8
:1003280001F099EF01F03AEF00F0D5EF00F0ACA240
:10033800A0EF01F0A2EF01F0A5EF01F0AC92AC98AC
:10034800AC882504D8A4ABEF01F0ADEF01F0F4EFD1
:1003580001F051BEBAEF01F0515050104F1008E1B2
:100368004E04D8A0BAEF01F0BCEF01F0C6EF01F0DF
:10037800FF0E4E26FF0E4F22FF0E5022FF0E512277
:10038800CEEF01F0000E4E6E000E4F6E000E506E56
:10039800000E516E0001AEBFDCEF01F0AE51AD11A1
:1003A800AC1108E1AB05D8A0DCEF01F0DEEF01F0FD
:1003B800E8EF01F0FF0EAB27FF0EAC23FF0EAD23D5
:1003C800FF0EAE23F2EF01F0140EAB6F000EAC6F10
:1003D800000EAD6F000EAE6F04EC22F0000E256E1D
:1003E8009EA0F9EF01F0FBEF01F002EF02F09E0E84
:1003F800CF6E570ECE6E9E90010E256EF0A207EFBF
:1004080002F009EF02F03FEF02F0060E346E130E11
:10041800336EAE0EE82EFED7332EFCD7342EFAD725
:1004280007500810D8A41BEF02F01DEF02F02AEFC6
:1004380002F081A822EF02F024EF02F02AEF02F086
:10044800000E086E010E076E3EEF02F0070408105A
:10045800D8A431EF02F033EF02F03EEF02F081A8AA
:1004680038EF02F03AEF02F03EEF02F0000E086EAD
:10047800000E076EF09236C0DAFF35C0D9FF5792EA
:060488001100CDEF20F091
:10100000004572726F723A20496E76616C69642095
:1010100055415254206E756D6265722E0A005365FB
:101020006E7420726573706F6E736520285541521F
:101030005431293A200052656365697665642064FD
:10104000617461202855415254003078253032585F
:0B105000000D0A002C200025640000A9
:10105C00F29E60EC20F0770EDAEC1FF0E0EC22F060
:10106C0094EC22F027EC21F088EC22F0F28ED3984D
:10107C00D39AD39CD390D39294949388CA96CA98BB
:10108C00CA9ACA9CFC0ECA16040ECB6ECF0EBB16A7
:10109C00BB50F00B0C09BB6E000EBC6ECA848B925D
:1010AC0089941E0E4E6E000E4F6E000E506E000E8A
:1010BC00516ED08E9F8AA58AC0908C808C82000E37
:1010CC00436E250E426EFF0E446E86EC1FF0060E2C
:1010DC000001AA6F130EA96FAD0EE82EFED7A92F33
:1010EC00FCD7AA2FFAD700D090EC21F0F29E100E6C
:1010FC00486E000E496E000E4A6E000E4B6E99EC57
:10110C0020F048C01FF049C020F0F28E1FC02BF019
:10111C00010E2B6494EF08F096EF08F0A7EF08F09F
:10112C00010E2B6EF29E100E486E000E496E000ED4
:10113C004A6E000E4B6E2BC04CF04D6A4CEC21F0FD
:10114C00F28E000E186E010E176E17C042F018C00A
:10115C0043F02BC044F086EC1FF0000E146E010E11
:10116C00136EF29E200E486E000E496E000E4A6EF3
:10117C00000E4B6E99EC20F048C01FF049C020F0D7
:10118C00F28E1F501B6E1C6A1C5009E1310E1B5C49
:10119C00D8A0D3EF08F0D5EF08F0E0EF08F01C5022
:1011AC0009E13B0E1B5CD8A0DEEF08F0E0EF08F085
:1011BC00F4EF08F0000E1C6E310E1B6EF29E200E2A
:1011CC00486E000E496E000E4A6E000E4B6E1BC030
:1011DC004CF01CC04DF04CEC21F0F28EF29E600EE7
:1011EC00486E000E496E000E4A6E000E4B6E99EC66
:1011FC0020F048C01FF049C020F0F28E1FC028F02C
:10120C002F0E28640CEF09F00EEF09F016EF09F021
:10121C00350E286414EF09F016EF09F053EF09F0BE
:10122C00300E286E000E1A6E000E196EF29E600EB5
:10123C00486E000E496E000E4A6E000E4B6E28C0B2
:10124C004CF04D6A4CEC21F0F28E79EF09F0000E67
:10125C001A6E000E196E300E286E79EF09F0030E1F
:10126C001A6EE80E196E79EF09F0070E1A6ED00E91
:10127C00196E79EF09F00B0E1A6EB80E196E79EF24
:10128C0009F00F0E1A6EA00E196E79EF09F0130EFD
:10129C001A6E880E196E79EF09F028500001A96FAB
:1012AC00AA6BAA51000AD8B45EEF09F02DEF09F031
:1012BC00A951300AD8B42DEF09F0010AD8B435EF92
:1012CC0009F0030AD8B43BEF09F0010AD8B441EF96
:1012DC0009F0070AD8B447EF09F0010AD8B44DEF6A
:1012EC0009F02DEF09F0F29E500E486E000E496E7B
:1012FC00000E4A6E000E4B6E99EC20F048C01FF0A9
:10130C0049C020F0F28E1FC026F0960E266491EF95
:10131C0009F093EF09F0AAEF09F0000E266EF29E89
:10132C00500E486E000E496E000E4A6E000E4B6E4B
:10133C0026C04CF04D6A4CEC21F0F28E000E1E6E65
:10134C00000E1D6EADEF09F026C01DF01E6AF29E58
:10135C00400E486E000E496E000E4A6E000E4B6E2B
:10136C0099EC20F048C01FF049C020F0F28E1FC04D
:10137C0027F0810E2718D8B4C6EF09F0C8EF09F092
:10138C0041EF0AF0820E2718D8B4CFEF09F0D1EF55
:10139C0009F041EF0AF0830E2718D8B4D8EF09F002
:1013AC00DAEF09F041EF0AF0840E2718D8B4E1EF18
:1013BC0009F0E3EF09F041EF0AF0850E2718D8B4D5
:1013CC00EAEF09F0ECEF09F041EF0AF0860E27186E
:1013DC00D8B4F3EF09F0F5EF09F041EF0AF0870EFE
:1013EC002718D8B4FCEF09F0FEEF09F041EF0AF032
:1013FC00070E556ED00E546E820E276EF29E400E66
:10140C00486E000E496E000E4A6E000E4B6E27C0E1
:10141C004CF04D6A4CEC21F0F28E6BEF0AF0030E9F
:10142C00556EE80E546E6BEF0AF0070E556ED00E2B
:10143C00546E820E276E6BEF0AF00B0E556EB80EC3
:10144C00546E6BEF0AF00F0E556EA00E546E6BEFD0
:10145C000AF0130E556E880E546E6BEF0AF0030EE5
:10146C00556E200E546E6BEF0AF0050E556EDC0EA9
:10147C00546E6BEF0AF027500001A96FAA6BAA51AA
:10148C00000AD8B44CEF0AF01BEF0AF0A951810AFC
:10149C00D8B415EF0AF0030AD8B41BEF0AF0010A0E
:1014AC00D8B423EF0AF0070AD8B429EF0AF0010ADE
:1014BC00D8B42FEF0AF0030AD8B435EF0AF0010ABA
:1014CC00D8B43BEF0AF01BEF0AF03F0E566EF29EBB
:1014DC00300E486E000E496E000E4A6E000E4B6EBA
:1014EC0099EC20F048C01FF049C020F0F28E1FC0CC
:1014FC0056F05650D8B485EF0AF087EF0AF0AAEFF1
:10150C000AF03F0E5618D8B48EEF0AF090EF0AF09E
:10151C00AAEF0AF07F0E5618D8B497EF0AF099EF9D
:10152C000AF0AAEF0AF03F0E566EF29E300E486E8D
:10153C00000E496E000E4A6E000E4B6E56C04CF0FB
:10154C004D6A4CEC21F0F28E1E0E4E6E000E4F6E5C
:10155C00000E506E000E516E8EEC1CF08C92F29EB2
:10156C00700E486E000E496E000E4A6E000E4B6EE9
:10157C0099EC20F048C01FF049C020F0F28E1F50AB
:10158C00096E0A6A09500A10D8B4CFEF0AF0D1EFED
:10159C000AF02CEF0BF009040A10D8B4D8EF0AF0BB
:1015AC00DAEF0AF02CEF0BF0020E09180A10D8B47F
:1015BC00E2EF0AF0E4EF0AF02CEF0BF0030E09183F
:1015CC000A10D8B4ECEF0AF0EEEF0AF02CEF0BF0A7
:1015DC00040E09180A10D8B4F6EF0AF0F8EF0AF066
:1015EC002CEF0BF0000E0A6E000E096EF29E700EC0
:1015FC00486E000E496E000E4A6E000E4B6E09C00E
:10160C004CF00AC04DF04CEC21F0F28E4FEF0BF089
:10161C00000E246E000E236E4FEF0BF0000E246EA6
:10162C00070E236E4FEF0BF0000E246E090E236E87
:10163C004FEF0BF0000E246E0C0E236E4FEF0BF0E1
:10164C00000E246E140E236E4FEF0BF009C0A9F0A0
:10165C000AC0AAF00001AA51000AD8B438EF0BF066
:10166C000EEF0BF0A951000AD8B40EEF0BF0010AE3
:10167C00D8B414EF0BF0030AD8B41AEF0BF0010A2C
:10168C00D8B420EF0BF0070AD8B426EF0BF00EEF0E
:10169C000BF0F29E800E486E000E496E000E4A6EE4
:1016AC00000E4B6E99EC20F048C01FF049C020F0A2
:1016BC00F28E1F50526E536A250E52185310D8B426
:1016CC006AEF0BF06CEF0BF080EF0BF0000E536E2B
:1016DC00250E526EF29E800E486E000E496E000E64
:1016EC004A6E000E4B6E52C04CF053C04DF04CEC99
:1016FC0021F0F28EF29E900E486E000E496E000E96
:10170C004A6E000E4B6E99EC20F048C01FF049C099
:10171C0020F0F28E1F500B6E0C6A0B040C10D8B418
:10172C009AEF0BF09CEF0BF0B9EF0BF00B500C1089
:10173C00D8B4A3EF0BF0A5EF0BF0B9EF0BF0000E44
:10174C000C6E010E0B6EF29E900E486E000E496EE2
:10175C00000E4A6E000E4B6E0BC04CF00CC04DF0E0
:10176C004CEC21F0F28E23C03AF024C03BF01FEC7D
:10177C0022F004001E0E4E6E000E4F6E000E506EC8
:10178C00000E516E90EC21F095EF17F013C017F08E
:10179C0014C018F081B8D5EF0BF0D7EF0BF072EF47
:1017AC000CF009C040F00AC041F02BC042F078ECBC
:1017BC001BF002BEEBEF0BF0E80E015C030E0258BF
:1017CC00D8A0EBEF0BF0EDEF0BF01EEF0CF009C017
:1017DC00A3F00AC0A4F0E0EC1AF0A3C023F0A4C05C
:1017EC0024F0700E486E000E496E000E4A6E000E0C
:1017FC004B6E99EC20F048C009F049C00AF071EC2E
:10180C0021F009C040F00AC041F02BC042F078EC46
:10181C001BF0060E0001AA6F130EA96FAD0EE82E79
:10182C00FED7A92FFCD7AA2FFAD700D05BEF0CF06C
:10183C0002BE2CEF0CF0E80E015C030E0258D8B07F
:10184C002AEF0CF02CEF0CF05BEF0CF009C040F021
:10185C000AC041F02BC042F078EC1BF0020E0001E4
:10186C00AA6F860EA96F990EE82EFED7A92FFCD76A
:10187C00AA2FFAD7000E026E000E016E5BEF0CF071
:10188C0009C040F00AC041F02BC042F078EC1BF0CC
:10189C001A0E0001A96FF80EE82EFED7A92FFCD75F
:1018AC0000F00A0E0126000E022202BE67EF0CF0B9
:1018BC00E80E015C030E0258D8A067EF0CF069EF3C
:1018CC000CF046EF0CF081A86EEF0CF070EF0CF002
:1018DC00D7EF0BF076EF0CF0000E026E000E016EDF
:1018EC0081B67BEF0CF07DEF0CF032EF0DF0630E58
:1018FC0017181810D8B485EF0CF087EF0CF032EFF6
:10190C000DF081B68CEF0CF08EEF0CF036EF0DF085
:10191C0006BE9AEF0CF0E80E055C030E0658D8A034
:10192C009AEF0CF09CEF0CF0C4EF0CF0185007E1A0
:10193C005A0E175CD8B0A5EF0CF0A7EF0CF0C4EF63
:10194C000CF00A0E1724176E000E1820186E17C014
:10195C0042F018C043F02BC044F086EC1FF00B0E85
:10196C000001AA6F260EA96F5D0EE82EFED7A92FD7
:10197C00FCD7AA2FFAD700D0F0EF0CF006BED2EFAE
:10198C000CF0E80E055C030E0658D8B0D0EF0CF046
:10199C00D2EF0CF0F0EF0CF0010E1724176E000EC6
:1019AC001820186E17C042F018C043F02BC044F03A
:1019BC0086EC1FF0020E0001AA6F860EA96F990E1D
:1019CC00E82EFED7A92FFCD7AA2FFAD7000E066E49
:1019DC00000E056E81B6F5EF0CF0F7EF0CF019EF79
:1019EC000DF080BAFCEF0CF0FEEF0CF019EF0DF0DF
:1019FC00000E186E000E176E17C042F018C043F0A0
:101A0C002BC044F086EC1FF019EF0DF01A0E0001FC
:101A1C00A96FF80EE82EFED7A92FFCD700F00A0EFE
:101A2C000526000E062281B61EEF0DF020EF0DF0FC
:101A3C0030EF0DF006BE2CEF0DF0E80E055C030E3A
:101A4C000658D8A02CEF0DF02EEF0DF00CEF0DF08A
:101A5C0036EF0DF036EF0DF0000E066E000E056E33
:101A6C0080BA3BEF0DF03DEF0DF0F1EF0DF017509C
:101A7C001810D8B444EF0DF046EF0DF0F1EF0DF067
:101A8C0080BA4BEF0DF04DEF0DF0F5EF0DF004BEFD
:101A9C0059EF0DF0E80E035C030E0458D8A059EF73
:101AAC000DF05BEF0DF083EF0DF0185009E10A0E0D
:101ABC00175CD8A064EF0DF066EF0DF083EF0DF01E
:101ACC00F60E1724176EFF0E1820186E17C042F072
:101ADC0018C043F02BC044F086EC1FF00B0E000135
:101AEC00AA6F260EA96F5D0EE82EFED7A92FFCD784
:101AFC00AA2FFAD700D0AFEF0DF004BE91EF0DF086
:101B0C00E80E035C030E0458D8B08FEF0DF091EF84
:101B1C000DF0AFEF0DF0FF0E1724176EFF0E18200F
:101B2C00186E17C042F018C043F02BC044F086EC7E
:101B3C001FF0020E0001AA6F860EA96F990EE82EF7
:101B4C00FED7A92FFCD7AA2FFAD7000E046E000ED1
:101B5C00036E80BAB4EF0DF0B6EF0DF0D8EF0DF0C8
:101B6C0081B6BBEF0DF0BDEF0DF0D8EF0DF0000E10
:101B7C00186E000E176E17C042F018C043F02BC041
:101B8C0044F086EC1FF0D8EF0DF01A0E0001A96F8F
:101B9C00F80EE82EFED7A92FFCD700F00A0E03266C
:101BAC00000E042280BADDEF0DF0DFEF0DF0EFEF49
:101BBC000DF004BEEBEF0DF0E80E035C030E0458C1
:101BCC00D8A0EBEF0DF0EDEF0DF0CBEF0DF0F5EF46
:101BDC000DF0F5EF0DF0000E046E000E036E17C045
:101BEC0013F018C014F017C042F018C043F02BC00B
:101BFC0044F086EC1FF007040810D8A408EF0EF090
:101C0C000AEF0EF01AEF0EF0010E2C6E1E0E4E6E39
:101C1C00000E4F6E000E506E000E516EB1EC17F0B0
:101C2C00000E2E6E000E2C6E3004D8A420EF0EF099
:101C3C0022EF0EF036EF14F0F8EF13F0F10E8219DC
:101C4C00D8A42BEF0EF02DEF0EF049EF0EF02C5028
:101C5C00D8A433EF0EF035EF0EF049EF0EF0000E76
:101C6C002E6E010E2C6E13C017F014C018F01E0E41
:101C7C004E6E000E4F6E000E506E000E516EC1EC8B
:101C8C0019F0C1EF0FF0F20E8219D8A450EF0EF03C
:101C9C0052EF0EF0ACEF0FF02C50D8A458EF0EF022
:101CAC005AEF0EF0ACEF0FF0000E086E010E076E3F
:101CBC00010E2C6E83C017F0186A17C042F018C0C2
:101CCC0043F02BC044F086EC1FF01E0E4E6E000E3F
:101CDC004F6E000E506E000E516E2B04D8A479EF8F
:101CEC000EF07BEF0EF092EF0EF08B8254C03AF0B8
:101CFC0055C03BF036EC22F08B92040E0001AA6F1B
:101D0C000C0EA96F330EE82EFED7A92FFCD7AA2FE5
:101D1C00FAD700D095EF0EF08B9283EF0EF08984FA
:101D2C00EDEC22F0020E0001AA6F860EA96F990E3F
:101D3C00E82EFED7A92FFCD7AA2FFAD71E0E4E6E6F
:101D4C00000E4F6E000E506E000E516EFEEC20F029
:101D5C003AC00FF03BC010F04E504F1050105110C5
:101D6C00D8A4BBEF0EF0BDEF0EF0EBEF0EF0F2ECE3
:101D7C0022F0A50E0001606FE10E616F000E626F24
:101D8C0061516225636F5A0E646FF29E000E126EE3
:101D9C00000E116E125009E1050E115CD8A0D9EF9E
:101DAC000EF0DBEF0EF0DDEF0EF0EAEF0EF0600E52
:101DBC001124D96E000E1220DA6EDF50AAEC22F03C
:101DCC00114A122AD0EF0EF0F28E0F501010D8A438
:101DDC00F2EF0EF0F4EF0EF0ACEF0EF04E0E000141
:101DEC00A96FEB0EE82EFED7A92FFCD71E0E4E6E58
:101DFC00000E4F6E000E506E000E516EFEEC20F079
:101E0C003AC00FF03BC010F04E504F105010511014
:101E1C00D8A413EF0FF015EF0FF043EF0FF0F2EC27
:101E2C0022F0A50E0001606FE20E616F000E626F72
:101E3C0061516225636F5A0E646FF29E000E126E32
:101E4C00000E116E125009E1050E115CD8A031EF95
:101E5C000FF033EF0FF035EF0FF042EF0FF0600E95
:101E6C001124D96E000E1220DA6EDF50AAEC22F08B
:101E7C00114A122A28EF0FF0F28E0F041010D8A47A
:101E8C004AEF0FF04CEF0FF004EF0FF01E0E4E6EFA
:101E9C00000E4F6E000E506E000E516E1DC03AF0CB
:101EAC001EC03BF036EC22F0F2EC22F02B04D8A44E
:101EBC0062EF0FF064EF0FF07BEF0FF08B8254C0EA
:101ECC003AF055C03BF036EC22F08B92040E000138
:101EDC00AA6F0C0EA96F330EE82EFED7A92FFCD7D4
:101EEC00AA2FFAD700D07EEF0FF08B926CEF0FF089
:101EFC00A50E0001606FF90E616F000E626F6151EB
:101F0C006225636F5A0E646FF29E000E126E000E05
:101F1C00116E125009E1050E115CD8A098EF0FF06C
:101F2C009AEF0FF09CEF0FF0A9EF0FF0600E112459
:101F3C00D96E000E1220DA6EDF50AAEC22F0114A94
:101F4C00122A8FEF0FF0F28EC1EF0FF0F50E8219FF
:101F5C00D8A4B3EF0FF0B5EF0FF0C1EF0FF02C508A
:101F6C00D8A4BBEF0FF0BDEF0FF0C1EF0FF0000ED8
:101F7C00086E000E076EAFEC21F0CCEC21F0000ED9
:101F8C002E6E000E2C6E2EEF14F08251D8B4D1EFC1
:101F9C000FF0D3EF0FF02DEF11F02C50D8A4D9EF98
:101FAC000FF0DBEF0FF02DEF11F0000E086E010EAD
:101FBC00076E010E2C6E82C017F0186A17C042F023
:101FCC0018C043F02BC044F086EC1FF01E0E4E6E72
:101FDC00000E4F6E000E506E000E516E2B04D8A4E6
:101FEC00FAEF0FF0FCEF0FF013EF10F08B8254C0F0
:101FFC003AF055C03BF036EC22F08B92040E000107
:10200C00AA6F0C0EA96F330EE82EFED7A92FFCD7A2
:10201C00AA2FFAD700D016EF10F08B9204EF10F025
:10202C008984EDEC22F0020E0001AA6F860EA96FD6
:10203C00990EE82EFED7A92FFCD7AA2FFAD71E0E81
:10204C004E6E000E4F6E000E506E000E516EFEEC7A
:10205C0020F03AC00FF03BC010F04E504F10501013
:10206C005110D8A43CEF10F03EEF10F06CEF10F0D4
:10207C00F2EC22F0A50E0001606FE10E616F000E14
:10208C00626F61516225636F5A0E646FF29E000E8F
:10209C00126E000E116E125009E1050E115CD8A0E3
:1020AC005AEF10F05CEF10F05EEF10F06BEF10F0E9
:1020BC00600E1124D96E000E1220DA6EDF50AAECDD
:1020CC0022F0114A122A51EF10F0F28E0F5010101C
:1020DC00D8A473EF10F075EF10F02DEF10F04E0E3A
:1020EC000001A96FEB0EE82EFED7A92FFCD71E0E10
:1020FC004E6E000E4F6E000E506E000E516EFEECCA
:10210C0020F03AC00FF03BC010F04E504F10501062
:10211C005110D8A494EF10F096EF10F0C4EF10F01B
:10212C00F2EC22F0A50E0001606FE20E616F000E62
:10213C00626F61516225636F5A0E646FF29E000EDE
:10214C00126E000E116E125009E1050E115CD8A032
:10215C00B2EF10F0B4EF10F0B6EF10F0C3EF10F0D8
:10216C00600E1124D96E000E1220DA6EDF50AAEC2C
:10217C0022F0114A122AA9EF10F0F28E0F0410105F
:10218C00D8A4CBEF10F0CDEF10F085EF10F01E0EB1
:10219C004E6E000E4F6E000E506E000E516E1DC036
:1021AC003AF01EC03BF036EC22F0F2EC22F02B049D
:1021BC00D8A4E3EF10F0E5EF10F0FCEF10F08B82F9
:1021CC0054C03AF055C03BF036EC22F08B92040E22
:1021DC000001AA6F0C0EA96F330EE82EFED7A92FA3
:1021EC00FCD7AA2FFAD700D0FFEF10F08B92EDEFAF
:1021FC0010F0A50E0001606FF90E616F000E626F9A
:10220C0061516225636F5A0E646FF29E000E126E5E
:10221C00000E116E125009E1050E115CD8A019EFD9
:10222C0011F01BEF11F01DEF11F02AEF11F0600E01
:10223C001124D96E000E1220DA6EDF50AAEC22F0B7
:10224C00114A122A10EF11F0F28E42EF11F0F50E36
:10225C008219D8A434EF11F036EF11F042EF11F0DF
:10226C002C50D8A43CEF11F03EEF11F042EF11F0DE
:10227C00000E086E000E076EAFEC21F0CCEC21F0D6
:10228C00000E086E000E076E000E2E6E000E2C6EE9
:10229C002EEF14F02C50D8A456EF11F058EF11F08B
:1022AC002EEF14F0010E2C6E82C028F084EF11F08A
:1022BC00000E1A6E000E196E300E286EA9EF11F07A
:1022CC00030E1A6EE80E196EA9EF11F0070E1A6EB6
:1022DC00D00E196EA9EF11F00B0E1A6EB80E196E06
:1022EC00A9EF11F00F0E1A6EA00E196EA9EF11F0D6
:1022FC00130E1A6E880E196EA9EF11F02850A96FE3
:10230C00AA6BAA51000AD8B48EEF11F05EEF11F04F
:10231C00A951300AD8B45EEF11F0010AD8B466EFB7
:10232C0011F0030AD8B46CEF11F0010AD8B472EFB3
:10233C0011F0070AD8B478EF11F0010AD8B47EEF87
:10234C0011F05EEF11F0F29E600E486E000E496EB9
:10235C00000E4A6E000E4B6E28C04CF04D6A4CECD1
:10236C0021F0F28EAFEC21F0000E2C6E2EEF14F05B
:10237C002C50D8A4C4EF11F0C6EF11F02EEF14F0CE
:10238C008251D8A4CCEF11F0CEEF11F030EF12F057
:10239C00010E2C6E600E486E000E496E000E4A6ED9
:1023AC00000E4B6E99EC20F04850286E400E486E93
:1023BC00000E496E000E4A6E000E4B6E99EC20F02A
:1023CC004850276E700E486E000E496E000E4A6E15
:1023DC00000E4B6E99EC20F048C009F049C00AF091
:1023EC0013C017F014C018F0510E0001606F28C014
:1023FC0061F009C062F027C063F017C064F0020EF0
:10240C000001AA6F040EA96FBA0EE82EFED7A92FF1
:10241C00FCD7AA2FFAD700F0000E126E000E116E28
:10242C00125009E1050E115CD8A01FEF12F021EF3C
:10243C0012F023EF12F030EF12F0600E1124D96E6F
:10244C00000E1220DA6EDF50AAEC22F0114A122A8A
:10245C0016EF12F0CCEC21F0BAEF11F02C50D8A4FE
:10246C003AEF12F03CEF12F02EEF14F08251D8A498
:10247C0042EF12F044EF12F030EF12F0010E2C6E1E
:10248C00900E486E000E496E000E4A6E000E4B6E9A
:10249C0099EC20F048C00BF049C00CF0800E486E4F
:1024AC00000E496E000E4A6E000E4B6E99EC20F039
:1024BC0048C052F049C053F0520E0001606F0BC07F
:1024CC0061F052C062F0000E636F000E646F020E7A
:1024DC000001AA6F040EA96FBA0EE82EFED7A92F21
:1024EC00FCD7AA2FFAD700F0000E126E000E116E58
:1024FC00125009E1050E115CD8A087EF12F089EF9C
:10250C0012F08BEF12F030EF12F0600E1124D96E36
:10251C00000E1220DA6EDF50AAEC22F0114A122AB9
:10252C007EEF12F02C50D8A49EEF12F0A0EF12F018
:10253C00F8EF12F0010E2C6E82C027F0C6EF12F0ED
:10254C00030E556EE80E546EE7EF12F0070E556E43
:10255C00D00E546E820E276EE7EF12F00B0E556EF6
:10256C00B80E546EE7EF12F00F0E556EA00E546EAF
:10257C00E7EF12F0130E556E880E546EE7EF12F063
:10258C002750A96FAA6BAA51000AD8B4D0EF12F049
:10259C00ACEF12F0A951810AD8B4A6EF12F0030ADD
:1025AC00D8B4ACEF12F0010AD8B4B4EF12F0070AA9
:1025BC00D8B4BAEF12F0010AD8B4C0EF12F0ACEFF5
:1025CC0012F0F29E400E486E000E496E000E4A6EDE
:1025DC00000E4B6E27C04CF04D6A4CEC21F0F28E85
:1025EC00000E2C6E2C50D8A4FEEF12F000EF13F05E
:1025FC002EEF14F0010E2C6E82C026F026C01DF0BA
:10260C001E6AF29E500E486E000E496E000E4A6E07
:10261C00000E4B6E26C04CF04D6A4CEC21F0F28E45
:10262C00BAEF11F02C50D8A41EEF13F020EF13F0DA
:10263C002EEF14F0010E2C6E710E8219D8A429EF16
:10264C0013F02BEF13F03BEF13F0000E0A6E040E99
:10265C00096E09C0A3F00AC0A4F0E0EC1AF0A3C004
:10266C0023F0A4C024F077EF13F0720E8219D8A4D3
:10267C0042EF13F044EF13F04AEF13F0000E0A6E22
:10268C00000E096E2FEF13F0730E8219D8A451EFC0
:10269C0013F053EF13F059EF13F0000E0A6E010E06
:1026AC00096E2FEF13F0740E8219D8A460EF13F09B
:1026BC0062EF13F068EF13F0000E0A6E020E096E53
:1026CC002FEF13F0750E8219D8A46FEF13F071EF82
:1026DC0013F02FEF13F0000E0A6E030E096E2FEF9E
:1026EC0013F009C040F00AC041F02BC042F078EC66
:1026FC001BF0060E0001AA6F130EA96FAD0EE82E8B
:10270C00FED7A92FFCD7AA2FFAD700D0BAEF11F019
:10271C002C50D8A494EF13F096EF13F02EEF14F086
:10272C00010E2C6E650E8219D8A49FEF13F0A1EF49
:10273C0013F0A7EF13F0000E186E310E176EB9EFF1
:10274C0013F0660E8219D8A4AEEF13F0B0EF13F0AD
:10275C00B6EF13F0000E186E5A0E176EB9EF13F099
:10276C0082C017F0186A17C013F018C014F017C005
:10277C0042F018C043F02BC044F086EC1FF0BAEFC7
:10278C0011F02C50D8A4CDEF13F0CFEF13F02EEFA7
:10279C0014F0010E2C6E82C00BF00C6A0B500C1056
:1027AC00D8B4DBEF13F0DDEF13F0E7EF13F00B040D
:1027BC000C10D8B4E4EF13F0E6EF13F0E7EF13F0DE
:1027CC00F29E900E486E000E496E000E4A6E000E80
:1027DC004B6E0BC04CF00CC04DF04CEC21F0F28E5B
:1027EC00BAEF11F000018151A96FAA6BAA51000A2E
:1027FC00D8B403EF14F02EEF14F0A951230AD8B477
:10280C0050EF11F0670AD8B424EF0EF0020AD8B4D6
:10281C00CBEF0FF0170AD8B4BEEF11F0030AD8B4FF
:10282C0034EF12F0060AD8B418EF13F0010AD8B43A
:10283C00C7EF13F0300AD8B498EF12F0030AD8B4EB
:10284C00F8EF12F0120AD8B48EEF13F02EEF14F04A
:10285C00000E306E000E2F6E000E296E38EF14F045
:10286C00000E296E3004D8A43EEF14F040EF14F0A3
:10287C0091EF17F057EF17F0F10E8219D8A449EF2A
:10288C0014F04BEF14F067EF14F02C50D8A451EF68
:10289C0014F053EF14F067EF14F0000E2E6E010ECF
:1028AC002C6E13C017F014C018F01E0E4E6E000ED6
:1028BC004F6E000E506E000E516EC1EC19F0A3EF6E
:1028CC0014F0F20E8219D8A46EEF14F070EF14F01D
:1028DC008EEF14F02C50D8A476EF14F078EF14F09F
:1028EC008EEF14F0000E086E010E076E010E2C6EAA
:1028FC001E0E4E6E000E4F6E000E506E000E516E80
:10290C0013C017F014C018F0B1EC17F0A3EF14F0CB
:10291C00F50E8219D8A495EF14F097EF14F0A3EFED
:10292C0014F02C50D8A49DEF14F09FEF14F0A3EFEB
:10293C0014F0000E086E000E076EAFEC21F0CCEC1C
:10294C0021F0000E2E6E000E2C6E89EF17F02C501D
:10295C00D8A4B3EF14F0B5EF14F089EF17F0010E13
:10296C002C6E82C028F0E1EF14F0000E1A6E000EEF
:10297C00196E300E286E06EF15F0030E1A6EE80E67
:10298C00196E06EF15F0070E1A6ED00E196E06EFC3
:10299C0015F00B0E1A6EB80E196E06EF15F00F0E21
:1029AC001A6EA00E196E06EF15F0130E1A6E880E25
:1029BC00196E06EF15F02850A96FAA6BAA51000AE0
:1029CC00D8B4EBEF14F0BBEF14F0A951300AD8B423
:1029DC00BBEF14F0010AD8B4C3EF14F0030AD8B457
:1029EC00C9EF14F0010AD8B4CFEF14F0070AD8B429
:1029FC00D5EF14F0010AD8B4DBEF14F0BBEF14F0F0
:102A0C00F29E600E486E000E496E000E4A6E000E6D
:102A1C004B6E28C04CF04D6A4CEC21F0F28EAFECB2
:102A2C0021F0000E2C6E89EF17F02C50D8A421EF5A
:102A3C0015F023EF15F089EF17F08251D8A429EF88
:102A4C0015F02BEF15F08DEF15F0010E2C6E600EBE
:102A5C00486E000E496E000E4A6E000E4B6E99ECDD
:102A6C0020F04850286E400E486E000E496E000E45
:102A7C004A6E000E4B6E99EC20F04850276E700E8B
:102A8C00486E000E496E000E4A6E000E4B6E99ECAD
:102A9C0020F048C009F049C00AF013C017F014C068
:102AAC0018F0510E0001606F28C061F009C062F08F
:102ABC0027C063F017C064F0020E0001AA6F040E69
:102ACC00A96FBA0EE82EFED7A92FFCD7AA2FFAD7DA
:102ADC0000F0000E126E000E116E125009E1050E80
:102AEC00115CD8A07CEF15F07EEF15F080EF15F09F
:102AFC008DEF15F0600E1124D96E000E1220DA6ED7
:102B0C00DF509FEC22F0114A122A73EF15F0CCEC37
:102B1C0021F017EF15F02C50D8A497EF15F099EF82
:102B2C0015F089EF17F08251D8A49FEF15F0A1EFA3
:102B3C0015F08DEF15F0010E2C6E900E486E000EF8
:102B4C00496E000E4A6E000E4B6E99EC20F048C098
:102B5C000BF049C00CF0800E486E000E496E000E52
:102B6C004A6E000E4B6E99EC20F048C052F049C0F2
:102B7C0053F0520E0001606F0BC061F052C062F056
:102B8C00000E636F000E646F020E0001AA6F040E3C
:102B9C00A96FBA0EE82EFED7A92FFCD7AA2FFAD709
:102BAC0000F0000E126E000E116E125009E1050EAF
:102BBC00115CD8A0E4EF15F0E6EF15F0E8EF15F096
:102BCC008DEF15F0600E1124D96E000E1220DA6E06
:102BDC00DF509FEC22F0114A122ADBEF15F02C503B
:102BEC00D8A4FBEF15F0FDEF15F055EF16F0010E24
:102BFC002C6E82C027F023EF16F0030E556EE80EF4
:102C0C00546E44EF16F0070E556ED00E546E820EB5
:102C1C00276E44EF16F00B0E556EB80E546E44EF43
:102C2C0016F00F0E556EA00E546E44EF16F0130EE8
:102C3C00556E880E546E44EF16F02750A96FAA6B90
:102C4C00AA51000AD8B42DEF16F009EF16F0A951CD
:102C5C00810AD8B403EF16F0030AD8B409EF16F0C2
:102C6C00010AD8B411EF16F0070AD8B417EF16F012
:102C7C00010AD8B41DEF16F009EF16F0F29E400EC3
:102C8C00486E000E496E000E4A6E000E4B6E27C049
:102C9C004CF04D6A4CEC21F0F28E000E2C6E2C5048
:102CAC00D8A45BEF16F05DEF16F089EF17F0010E6C
:102CBC002C6E82C026F026C01DF01E6AF29E500EAD
:102CCC00486E000E496E000E4A6E000E4B6E26C00A
:102CDC004CF04D6A4CEC21F0F28E17EF15F02C50A5
:102CEC00D8A47BEF16F07DEF16F089EF17F0010EEC
:102CFC002C6E710E8219D8A486EF16F088EF16F0A0
:102D0C0098EF16F0000E0A6E040E096E09C0A3F0BF
:102D1C000AC0A4F0E0EC1AF0A3C023F0A4C024F085
:102D2C00D4EF16F0720E8219D8A49FEF16F0A1EF13
:102D3C0016F0A7EF16F0000E0A6E000E096E8CEF5F
:102D4C0016F0730E8219D8A4AEEF16F0B0EF16F091
:102D5C00B6EF16F0000E0A6E010E096E8CEF16F02F
:102D6C00740E8219D8A4BDEF16F0BFEF16F0C5EFA4
:102D7C0016F0000E0A6E020E096E8CEF16F0750E30
:102D8C008219D8A4CCEF16F0CEEF16F08CEF16F01B
:102D9C00000E0A6E030E096E8CEF16F009C040F09F
:102DAC000AC041F02BC042F078EC1BF0060E00017B
:102DBC00AA6F130EA96FAD0EE82EFED7A92FFCD764
:102DCC00AA2FFAD700D017EF15F02C50D8A4F1EF9A
:102DDC0016F0F3EF16F089EF17F0010E2C6E650E5E
:102DEC008219D8A4FCEF16F0FEEF16F004EF17F0E2
:102DFC00000E186E310E176E16EF17F0660E821954
:102E0C00D8A40BEF17F00DEF17F013EF17F0000E1F
:102E1C00186E5A0E176E16EF17F082C017F0186A5C
:102E2C0017C013F018C014F017C042F018C043F0CC
:102E3C002BC044F086EC1FF017EF15F02C50D8A4E3
:102E4C002AEF17F02CEF17F089EF17F0010E2C6E0C
:102E5C0082C00BF00C6A0B500C10D8B438EF17F082
:102E6C003AEF17F045EF17F00B040C10D8B441EF04
:102E7C0017F043EF17F045EF17F017EF15F0F29E30
:102E8C00900E486E000E496E000E4A6E000E4B6E90
:102E9C000BC04CF00CC04DF04CEC21F0F28E17EF47
:102EAC0015F000018151A96FAA6BAA51000AD8B480
:102EBC0062EF17F089EF17F0A951230AD8B4ADEFE0
:102ECC0014F0670AD8B442EF14F0150AD8B41BEF0B
:102EDC0015F0030AD8B491EF15F0060AD8B475EFC3
:102EEC0016F0010AD8B424EF17F0300AD8B4F5EF75
:102EFC0015F0030AD8B455EF16F0120AD8B4EBEF5C
:102F0C0016F089EF17F0000E306E000E2F6E000ECB
:102F1C00296EB9EF0BF0000E296EB9EF0BF02950AA
:102F2C000001A96FAA6BAA51000AD8B4A0EF17F040
:102F3C00B9EF0BF0A951000AD8B4CCEF0BF0020A90
:102F4C00D8B41AEF0EF0010AD8B438EF14F0B9EF78
:102F5C000BF045EF02F02B04D8A4B7EF17F0B9EF44
:102F6C0017F0CEEF17F08B8254C03AF055C03BF0FF
:102F7C004CEC22F08B92040E4C6E0C0E4B6E340EFD
:102F8C00E82EFED74B2EFCD74C2EFAD7D1EF17F0EC
:102F9C008B92C1EF17F0898417501810D8A4D9EF71
:102FAC0017F0DBEF17F0E1EF17F0000E166E010EC5
:102FBC00156E6AEF19F0000E166E000E156E6AEFA4
:102FCC0019F00400D0EC1EF090EC21F019C03AF08E
:102FDC001AC03BF04CEC22F0EDEC22F0020E4C6EE1
:102FEC006C0E4B6EA00EE82EFED74B2EFCD74C2E43
:102FFC00FAD71E0E4E6E000E4F6E000E506E000E67
:10300C00516EFEEC20F03AC00FF03BC010F04E5069
:10301C004F1050105110D8A416EF18F018EF18F0EC
:10302C001DEF18F0310E94EC1DF0F2EC22F00F5065
:10303C001010D8A424EF18F026EF18F007EF18F0B2
:10304C004E0E4B6EEB0EE82EFED74B2EFCD700F03F
:10305C001E0E4E6E000E4F6E000E506E000E516E18
:10306C00FEEC20F03AC00FF03BC010F04E504F1069
:10307C0050105110D8A445EF18F047EF18F04CEF52
:10308C0018F0320E94EC1DF0F2EC22F00F0410103C
:10309C00D8A453EF18F055EF18F036EF18F01E0EB9
:1030AC004E6E000E4F6E000E506E000E516E1DC017
:1030BC003AF01EC03BF04CEC22F0F2EC22F0175030
:1030CC001810D8B46CEF18F06EEF18F07AEF18F007
:1030DC0015041610D8B475EF18F077EF18F07AEFD6
:1030EC0018F01706D8A0180617C042F018C043F005
:1030FC002BC044F086EC1FF02B04D8A488EF18F0FA
:10310C008AEF18F0B1EF18F017501810D8A491EFFF
:10311C0018F093EF18F09CEF18F015041610D8A4C3
:10312C009AEF18F09CEF18F0B1EF18F08B8254C0A6
:10313C003AF055C03BF04CEC22F08B92040E4C6EE6
:10314C000C0E4B6E340EE82EFED74B2EFCD74C2EAD
:10315C00FAD7F1EF18F02B50D8A4B7EF18F0B9EF5D
:10316C0018F0F1EF18F017501810D8A4C0EF18F0A1
:10317C00C2EF18F0CBEF18F015041610D8A4C9EF55
:10318C0018F0CBEF18F0F1EF18F08B9217501810D5
:10319C00D8A4D3EF18F0D5EF18F0DEEF18F0150423
:1031AC001610D8A4DCEF18F0DEEF18F0E6EF18F0EC
:1031BC0054C03AF055C03BF04CEC22F0F1EF18F053
:1031CC00060E4C6E130E4B6EAE0EE82EFED74B2E2B
:1031DC00FCD74C2EFAD72E04D8A4F7EF18F0F9EF41
:1031EC0018F026EF19F07CEF19F0000E166E020E97
:1031FC00156E17C042F018C043F02B50D8B409EF2D
:10320C0019F00CEF19F0010E0DEF19F0000E446ED1
:10321C0086EC1FF0820E4B6EDE0EE82EFED74B2E88
:10322C00FCD717C042F018C043F02BC044F086EC1A
:10323C001FF0820E4B6EDE0EE82EFED74B2EFCD707
:10324C0007500810D8A42DEF19F02FEF19F041EF0B
:10325C0019F015041610D8B436EF19F038EF19F030
:10326C00FBEF18F015501610D8B43FEF19F041EFE2
:10327C0019F0FBEF18F017C042F018C043F02BC048
:10328C0044F086EC1FF007500810D8A450EF19F04A
:10329C0052EF19F063EF19F017501810D8B459EF1A
:1032AC0019F05BEF19F063EF19F017C013F018C0A9
:1032BC0014F0000E186E000E176E820E4B6EDE0EA2
:1032CC00E82EFED74B2EFCD717501810D8A471EF50
:1032DC0019F073EF19F0E7EF17F015041610D8B4C6
:1032EC007AEF19F07CEF19F0E7EF17F0899417508B
:1032FC001810D8B484EF19F086EF19F08EEF19F08E
:10330C002E04D8A48CEF19F08EEF19F0B2EF19F04F
:10331C0015501610D8A495EF19F097EF19F0B2EFDD
:10332C0019F02B04D8A49DEF19F09FEF19F0B2EF10
:10333C0019F08B8254C03AF055C03BF04CEC22F0A3
:10334C008B92040E4C6E0C0E4B6E340EE82EFED788
:10335C004B2EFCD74C2EFAD7000E166E000E156EA7
:10336C00000E186E000E176E000E086E000E076E23
:10337C00000E296E1200000E106E000E0F6E410E24
:10338C0014EC1DF02B04D8A4CEEF19F0D0EF19F0EB
:10339C00E5EF19F08B8254C03AF055C03BF04CEC81
:1033AC0022F08B92040E446E0C0E436E340EE82EFB
:1033BC00FED7432EFCD7442EFAD7E8EF19F08B92A8
:1033CC00D8EF19F0898497EF1AF00400D0EC1EF0B6
:1033DC0090EC21F019C03AF01AC03BF04CEC22F002
:1033EC00EDEC22F0020E446E6C0E436EA00EE82E35
:1033FC00FED7432EFCD7442EFAD71E0E4E6E000E6F
:10340C004F6E000E506E000E516EFEEC20F03AC066
:10341C000FF03BC010F04E504F1050105110D8A46C
:10342C001AEF1AF01CEF1AF021EF1AF0310E94EC8F
:10343C001DF0F2EC22F00F501010D8A428EF1AF067
:10344C002AEF1AF00BEF1AF04E0E436EEB0EE82E2D
:10345C00FED7432EFCD700F01E0E4E6E000E4F6EA4
:10346C00000E506E000E516EFEEC20F03AC00FF0C4
:10347C003BC010F04E504F1050105110D8A449EFD3
:10348C001AF04BEF1AF050EF1AF0320E94EC1DF0CC
:10349C00F2EC22F00F041010D8A457EF1AF059EFE9
:1034AC001AF03AEF1AF01E0E4E6E000E4F6E000E12
:1034BC00506E000E516E1DC03AF01EC03BF04CEC2D
:1034CC0022F0F2EC22F02B04D8A46FEF1AF071EF7B
:1034DC001AF086EF1AF08B8254C03AF055C03BF0CC
:1034EC004CEC22F08B92040E446E0C0E436E340E98
:1034FC00E82EFED7432EFCD7442EFAD78DEF1AF0C8
:10350C008B9254C03AF055C03BF04CEC22F02E0498
:10351C00D8A493EF1AF095EF1AF097EF1AF09FEFEB
:10352C001AF02E50D8B49DEF1AF09FEF1AF0EBEF73
:10353C0019F0899417501810D8B4A7EF1AF0A9EF06
:10354C001AF0B1EF1AF02E04D8A4AFEF1AF0B1EFC5
:10355C001AF0CCEF1AF02B04D8A4B7EF1AF0B9EF8D
:10356C001AF0CCEF1AF08B8254C03AF055C03BF0F5
:10357C004CEC22F08B92040E446E0C0E436E340E07
:10358C00E82EFED7432EFCD7442EFAD7000E186E29
:10359C00000E176E020E2918D8A4D7EF1AF0D9EF27
:1035AC001AF0DDEF1AF0020E296EDFEF1AF0030E9F
:1035BC00296E120050EF1BF0000EA86F070EA76FBC
:1035CC00F29E700E486E000E496E000E4A6E000E92
:1035DC004B6E000E4D6E010E4C6E4CEC21F0F28ECB
:1035EC0073EF1BF0000EA86F090EA76FF29E700E02
:1035FC00486E000E496E000E4A6E000E4B6E000EA9
:10360C004D6E020E4C6E4CEC21F0F28E73EF1BF0F3
:10361C00000EA86F0C0EA76FF29E700E486E000E77
:10362C00496E000E4A6E000E4B6E000E4D6E030E70
:10363C004C6E4CEC21F0F28E73EF1BF0000EA86F69
:10364C00140EA76FF29E700E486E000E496E000E9F
:10365C004A6E000E4B6E000E4D6E040E4C6E4CEC12
:10366C0021F0F28E73EF1BF0000EA86F000EA76F07
:10367C00F29E700E486E000E496E000E4A6E000EE1
:10368C004B6E000E4D6E000E4C6E4CEC21F0F28E1B
:10369C0073EF1BF0A3C0A5F0A4C0A6F00001A651C7
:1036AC00000AD8B45CEF1BF073EF1BF0A551000AB5
:1036BC00D8B4E2EF1AF0010AD8B4F8EF1AF0030A02
:1036CC00D8B40EEF1BF0010AD8B424EF1BF0070A94
:1036DC00D8B43AEF1BF073EF1BF0A7C0A3F0A8C04F
:1036EC00A4F012008B98000E20EC20F08B888B98A5
:1036FC00000E20EC20F04204D8A487EF1BF089EFD9
:10370C001BF09AEF1BF040044110D8A490EF1BF073
:10371C0092EF1BF09AEF1BF03E0E20EC20F0860E81
:10372C0020EC20F001EF1CF04204D8A4A0EF1BF019
:10373C00A2EF1BF0B4EF1BF0020E40184110D8A4FE
:10374C00AAEF1BF0ACEF1BF0B4EF1BF03E0E20EC1D
:10375C0020F0DB0E20EC20F001EF1CF04204D8A48A
:10376C00BAEF1BF0BCEF1BF0CEEF1BF0030E4018B2
:10377C004110D8A4C4EF1BF0C6EF1BF0CEEF1BF02A
:10378C003E0E20EC20F0CF0E20EC20F001EF1CF0D0
:10379C004204D8A4D4EF1BF0D6EF1BF0E8EF1BF0DB
:1037AC00040E40184110D8A4DEEF1BF0E0EF1BF024
:1037BC00E8EF1BF03E0E20EC20F0E60E20EC20F0A3
:1037CC0001EF1CF04250D8A4EEEF1BF0F0EF1BF011
:1037DC0001EF1CF040504110D8A4F7EF1BF0F9EFAB
:1037EC001BF001EF1CF03E0E20EC20F0BF0E20EC85
:1037FC0020F001EF1CF08B888B980D0E20EC20F044
:10380C008B881200000E436E41BE11EF1CF00FEFBF
:10381C001CF01BEF1CF0411E401E3F1E3E6C000EA8
:10382C003F2240224122010E436E3DBE22EF1CF08E
:10383C0020EF1CF02CEF1CF03D1E3C1E3B1E3A6C86
:10384C00000E3B223C223D22010E431A000E446E18
:10385C00000E456E000E466E000E476E3E503F1039
:10386C0040104110D8B43DEF1CF03FEF1CF075EF49
:10387C001CF0010E426E49EF1CF0D8903E363F36DC
:10388C0040364136422A41AE4EEF1CF050EF1CF050
:10389C0043EF1CF0D89044364536463647363E50FA
:1038AC003A5C3F503B5840503C5841503D58D8A092
:1038BC0062EF1CF064EF1CF06DEF1CF03E503A5EB2
:1038CC003F503B5A40503C5A41503D5A4480D8904E
:1038DC00413240323F323E32422E50EF1CF04350C8
:1038EC00D8B47BEF1CF07DEF1CF085EF1CF0471E6D
:1038FC00461E451E446C000E45224622472244C0FB
:10390C003AF045C03BF046C03CF047C03DF01200D9
:10391C008984EDEC22F0040E446E8E0E436E120E72
:10392C00E82EFED7432EFCD7442EFAD700D01E0E1D
:10393C004E6E000E4F6E000E506E000E516EFEEC71
:10394C0020F03AC00FF03BC010F04E504F1050100A
:10395C005110D8A4B4EF1CF0B6EF1CF0BBEF1CF068
:10396C00310E94EC1DF0F2EC22F00F501010D8A494
:10397C00C2EF1CF0C4EF1CF0A5EF1CF04E0E436E12
:10398C00EB0EE82EFED7432EFCD700F01E0E4E6E2B
:10399C00000E4F6E000E506E000E516EFEEC20F0BD
:1039AC003AC00FF03BC010F04E504F105010511059
:1039BC00D8A4E3EF1CF0E5EF1CF0EAEF1CF0320E9C
:1039CC0094EC1DF0F2EC22F00F041010D8A4F1EFDF
:1039DC001CF0F3EF1CF0D4EF1CF01E0E4E6E000E1C
:1039EC004F6E000E506E000E516E1DC03AF01EC090
:1039FC003BF04CEC22F0F2EC22F0060E446E130E6F
:103A0C00436EAE0EE82EFED7432EFCD7442EFAD7CB
:103A1C00000E106E000E0F6E89941200426E8B9881
:103A2C00000E20EC20F08B888B98000E20EC20F000
:103A3C0060EF1DF0790E20EC20F03F0E20EC20F012
:103A4C008DEF1DF03F0E20EC20F0730E20EC20F0DB
:103A5C008DEF1DF0390E20EC20F0770E20EC20F0CD
:103A6C008DEF1DF0000E20EC20F0000E20EC20F06D
:103A7C008DEF1DF0000E20EC20F03F0E20EC20F01E
:103A8C008DEF1DF0790E20EC20F0060E20EC20F0CE
:103A9C008DEF1DF0770E20EC20F03E0E20EC20F088
:103AAC008DEF1DF0000E20EC20F03E0E20EC20F0EF
:103ABC008DEF1DF04250406E416A4150000AD8B45F
:103ACC006AEF1DF08DEF1DF04050410AD8B450EF55
:103ADC001DF0020AD8B430EF1DF0060AD8B420EF5E
:103AEC001DF0020AD8B440EF1DF0080AD8B428EF34
:103AFC001DF01C0AD8B448EF1DF0050AD8B458EFD5
:103B0C001DF00E0AD8B438EF1DF08DEF1DF08B8828
:103B1C008B980D0E20EC20F08B881200426E8B9847
:103B2C00000E20EC20F08B888B98000E20EC20F0FF
:103B3C00D8EF1DF0790E20EC20F0770E20EC20F061
:103B4C0001EF1EF0790E20EC20F03F0E20EC20F05F
:103B5C0001EF1EF0790E20EC20F0060E20EC20F088
:103B6C0001EF1EF0790E20EC20F05B0E20EC20F023
:103B7C0001EF1EF0000E20EC20F03F0E20EC20F0A8
:103B8C0001EF1EF0790E20EC20F0060E20EC20F058
:103B9C0001EF1EF0770E20EC20F03E0E20EC20F012
:103BAC0001EF1EF04250406E416A4150000AD8B4F9
:103BBC00E2EF1DF001EF1EF04050300AD8B4A8EF30
:103BCC001DF0010AD8B4B0EF1DF0030AD8B4B8EF59
:103BDC001DF0730AD8B4D0EF1DF0040AD8B4A0EFCE
:103BEC001DF0020AD8B4C0EF1DF0140AD8B4C8EF07
:103BFC001DF001EF1EF08B888B980D0E20EC20F041
:103C0C008B88120036EF1EF03F0E3E6E6CEF1EF0EE
:103C1C00060E3E6E6CEF1EF05B0E3E6E6CEF1EF0F1
:103C2C004F0E3E6E6CEF1EF0660E3E6E6CEF1EF08D
:103C3C006D0E3E6E6CEF1EF07D0E3E6E6CEF1EF048
:103C4C00070E3E6E6CEF1EF07F0E3E6E6CEF1EF09C
:103C5C006F0E3E6E6CEF1EF0000E3E6E6CEF1EF0A3
:103C6C003AC03CF03BC03DF03D50000AD8B441EFA7
:103C7C001EF032EF1EF03C50000AD8B40AEF1EF0D2
:103C8C00010AD8B40EEF1EF0030AD8B412EF1EF0DE
:103C9C00010AD8B416EF1EF0070AD8B41AEF1EF0BA
:103CAC00010AD8B41EEF1EF0030AD8B422EF1EF09E
:103CBC00010AD8B426EF1EF00F0AD8B42AEF1EF072
:103CCC00010AD8B42EEF1EF032EF1EF03E50120057
:103CDC00000E3F6E3DBE77EF1EF075EF1EF07DEFD0
:103CEC001EF03C6C3D1ED8B03D2A010E3F6E3BBE13
:103CFC0084EF1EF082EF1EF08AEF1EF03A6C3B1E32
:103D0C00D8B03B2A010E3F1A000E416E000E406ED9
:103D1C003C503D10D8B495EF1EF097EF1EF0BFEF5E
:103D2C001EF0010E3E6E9FEF1EF0D8903C363D36D5
:103D3C003E2A3DAEA4EF1EF0A6EF1EF09BEF1EF048
:103D4C00D890403641363C503A5C3D503B58D8A058
:103D5C00B2EF1EF0B4EF1EF0B9EF1EF03C503A5E1D
:103D6C003D503B5A4080D8903D323C323E2EA6EF1F
:103D7C001EF03F50D8B4C5EF1EF0C7EF1EF0CBEFCE
:103D8C001EF0406C411ED8B0412A40C03AF041C0F0
:103D9C003BF01200A50E0001606F450E616F000E26
:103DAC00626F450E636F5A0E646FF29E020E2918F5
:103DBC00D8A4E3EF1EF0E5EF1EF004EF1FF0000EA9
:103DCC003D6E000E3C6E600E3C24D96E000E3D2004
:103DDC00DA6EDF50AAEC22F03C4A3D2A3DBE00EFE1
:103DEC001FF03D5009E1050E3C5CD8A000EF1FF020
:103DFC0002EF1FF0E9EF1EF02AEF1FF0030E291857
:103E0C00D8A40BEF1FF00DEF1FF02AEF1FF0000EE0
:103E1C003D6E000E3C6E600E3C24D96E000E3D20B3
:103E2C00DA6EDF509FEC22F03C4A3D2A3DBE28EF73
:103E3C001FF03D5009E1050E3C5CD8A028EF1FF0A7
:103E4C002AEF1FF011EF1FF0F28ECCEC21F01200D4
:103E5C00000E3F6E3BBE37EF1FF035EF1FF03DEF0E
:103E6C001FF03A6C3B1ED8B03B2A010E3F6E3DBE94
:103E7C0044EF1FF042EF1FF048EF1FF03C6C3D1E6B
:103E8C00D8B03D2A3C503D10D8B44FEF1FF051EF45
:103E9C001FF075EF1FF0010E3E6E59EF1FF0D8901A
:103EAC003C363D363E2A3DAE5EEF1FF060EF1FF014
:103EBC0055EF1FF03C503A5C3D503B58D8A069EF91
:103ECC001FF06BEF1FF06FEF1FF03C503A5E3D5050
:103EDC003B5AD8903D323C323E2E60EF1FF03F50A3
:103EEC00D8B47BEF1FF07DEF1FF081EF1FF03A6C21
:103EFC003B1ED8B03B2A3AC03AF03BC03BF0120014
:103F0C0042C03AF043C03BF0000E3D6E0A0E3C6ED0
:103F1C002EEC1FF03AC045F03BC046F042C03AF0E0
:103F2C0043C03BF0000E3D6E0A0E3C6E6EEC1EF074
:103F3C003AC047F03BC048F08B98000E20EC20F0C4
:103F4C008B888B98000E20EC20F047C03AF048C0CC
:103F5C003BF008EC1EF04A6E45C03AF046C03BF010
:103F6C0008EC1EF0496E4450D8B4BFEF1FF0C1EFFF
:103F7C001FF0CDEF1FF04428D8A4C7EF1FF0C9EFF6
:103F8C001FF0CCEF1FF04A8ECDEF1FF0498E4A5038
:103F9C0020EC20F0495020EC20F08B888B980D0EF3
:103FAC0020EC20F08B881200426E8B888B98300EA0
:103FBC0020EC20F08B888B98300E20EC20F042C047
:103FCC0040F0403A0F0E4016050E416ED890403628
:103FDC00412EECEF1FF04050050920EC20F08B88AF
:103FEC008B98110E20EC20F08B888B98110E20EC06
:103FFC0020F0425020EC20F0425020EC20F04250B7
:10400C0020EC20F08B888B98180E20EC20F08B88FD
:10401C008B98180E20EC20F0425020EC20F04250EF
:10402C0020EC20F0425020EC20F0425020EC20F00C
:10403C008B8812003C6E000E3E6E8B963EC03AF0A2
:10404C00010E3B6E3A2A2DEF20F0D8903B363A2EDB
:10405C002BEF20F03B503C143D6E3D50D8B439EF63
:10406C0020F03BEF20F03EEF20F08B8A3FEF20F06A
:10407C008B9A000E3F6E3F2A040E3F6448EF20F0EF
:10408C004AEF20F041EF20F08B86000E3F6E3F2A66
:10409C00040E3F6454EF20F056EF20F04DEF20F06B
:1040AC003E2A070E3E645DEF20F05FEF20F023EF19
:1040BC0020F01200FB0E926E9368840E946EC00E6C
:1040CC00956E000E966E000E976E050E986EC29E43
:1040DC00C29CC290C18EC19CC19AC188C196C18438
:1040EC00C192C190C088C190C182C184C186C1886F
:1040FC00C18EC098F28E030ED312700ED312000E26
:10410C00C46E000EC36EC294C296C298C29AC18C81
:10411C00C280C282C2B295EF20F097EF20F090EFF0
:10412C0020F0C19C120004EC23F0000E3B6EA00E9C
:10413C00D6EC22F048C03AF049C03BF04AC03CF003
:10414C004BC03DF0000E3E6E010E3F6E000E406EF9
:10415C00000E416E08EC1CF03A50E7EC22F048508F
:10416C00E7EC22F0FCEC22F0010E3B6EA00ED6EC3C
:10417C0022F0000EE9EC21F03BC04CF03CC04DF0BD
:10418C0000EC23F04CC048F04DC049F01200200E5A
:10419C00F66E460EF76E000EF86E00EEABF010EEFB
:1041AC0004F00900F5CFEEFFE550E150FAE1EE0E18
:1041BC00F66E450EF76E000EF86E00EE4EF010EE39
:1041CC0009F00900F5CFEEFFE550E150FAE100EE01
:1041DC0060F0430EEE6AE806FDE100EE01F0310EF0
:1041EC00EE6AE806FDE15790579200012EEF08F0B9
:1041FC0080A203EF21F005EF21F022EF21F00B500C
:10420C000C10D8A40CEF21F00EEF21F01CEF21F0D4
:10421C000D0E3C6EFC0EE82EFED73C2EFCD780A279
:10422C001AEF21F01CEF21F026EF21F0000E3B6E6F
:10423C00000E3A6E26EF21F0000E3B6E010E3A6E28
:10424C001200949C948E98929884AD98AD9CAD8AF3
:10425C00A898A89CA88AAC9CAC889C9C9C88AD9E79
:10426C00AC86AC8EA89E9C869C8E7E96AD847C96ED
:10427C00A8849D8A9D98A38AA398190EB06E000EEF
:10428C007F6E190EAB6E000E7D6E120004EC23F0E7
:10429C00000E3B6EA00ED6EC22F048C03AF049C09E
:1042AC003BF04AC03CF04BC03DF0000E3E6E010EA0
:1042BC003F6E000E406E000E416E08EC1CF03A5042
:1042CC00E7EC22F04850E7EC22F04C50E7EC22F0FF
:1042DC0000EC23F0120009500A10D8A478EF21F05A
:1042EC007AEF21F07EEF21F0000E2B6E80EF21F0A3
:1042FC00010E2B6EF29E100E486E000E496E000ED3
:10430C004A6E000E4B6E2BC04CF04D6A4CEC21F0FB
:10431C00F28E1200C294C296C298C29AC280000E4B
:10432C003B6E050E3A6E4CEC22F0C282C2B2A1EF8B
:10433C0021F0A3EF21F09CEF21F0C350C4CF3DF04E
:10434C003E6A3DC03EF03D6A3D100D6E3E500E6E15
:10435C001200000E3B6E000E3A6E800E3A24D96E9F
:10436C00000E3B20DA6E000EDF6E3A4A3B2A3BBE53
:10437C00C9EF21F03B5009E1100E3A5CD8A0C9EF0F
:10438C0021F0CBEF21F0B3EF21F01200000E3B6EC9
:10439C00000E3A6E600E3A24D96E000E3B20DA6E97
:1043AC00000EDF6E3A4A3B2A3BBEE6EF21F03B5053
:1043BC0009E1100E3A5CD8A0E6EF21F0E8EF21F00D
:1043CC00D0EF21F012003D6E62EC22F06B8662ECB5
:1043DC0022F06FCF3EF062EC22F03D50D8B4F9EFF2
:1043EC0021F0FBEF21F0FEEF21F06B9AFFEF21F0B3
:1043FC006B8A6B883EC03BF03C6A1200670E0D5C0A
:10440C00030E0E58D8B00DEF22F00FEF22F012EF82
:10441C0022F08C821EEF22F0C00E0D5C030E0E58A3
:10442C00D8A01BEF22F01DEF22F01EEF22F08C9291
:10443C0012003AC03CF0030E3C163C3ABB503C1800
:10444C00CF0B3C18BB6E3AC03CF03BC03DF0D89053
:10445C003D323C32D8903D323C323C50BC6E120066
:10446C0042EF22F0030E3C6E980EE82EFED73C2E47
:10447C00FCD73A06D8A03B063A503B10D8A449EFDB
:10448C0022F04BEF22F038EF22F0120058EF22F01E
:10449C00030E3C6E980EE82EFED73C2EFCD73A0647
:1044AC00D8A03B063A503B10D8A45FEF22F061EF46
:1044BC0022F04EEF22F012006BCF3AF01F0E3A169C
:1044CC00D8A46BEF22F06DEF22F062EF22F06DB406
:1044DC0072EF22F074EF22F062EF22F01200ACA225
:1044EC007AEF22F07CEF22F084EF22F0AC98AFCF81
:1044FC0032F0AFCF32F0AC8886EF22F0AFCF32F093
:10450C0032501200310ECD6E9E0ECF6E570ECE6E07
:10451C009E909D809F80000E256E1200958A958C32
:10452C00280E6C6E000E6B6E270E6E6EC00E6D6ECE
:10453C0012003A6E3AC0A9FFA8A2A7EF22F0A9EF89
:10454C0022F0A2EF22F012003A6E3AC0AEFFADA2FA
:10455C00B2EF22F0B4EF22F0ADEF22F01200326E87
:10456C0032C0A9FFA8A2BDEF22F0BFEF22F0B8EF36
:10457C0022F01200326E32C0AEFFADA2C8EF22F0B4
:10458C00CAEF22F0C3EF22F01200A4AAD0EF22F05F
:10459C00D2EF22F0CBEF22F0AACF32F03250120041
:1045AC003C6E3CC03DF03B503D2662EC22F03DC0E1
:1045BC006FFF1200C70E776E7996798C000E766EAF
:1045CC0012003B6E62EC22F03BC06FFF12008F8634
:1045DC008F8808EC23F012000CEC23F08F868F8868
:0B45EC0012001E0000002500D0073F59
:1045F80062EC22F06B82120062EC22F06B841200F3
:1046080062EC22F06B801200080E736E7684120042
:0C461800000E736E769412001400000077
:067FF800AEF703FBF8F1F7
:00000001FF
