:0400000081EF01F09B
:100008005982D9CF33F0DACF34F09EAA0EEF00F040
:1000180010EF00F0E3EF00F0C8EC12F0366EA50E1A
:100028003618D8A41AEF00F01CEF00F03EEF00F0ED
:100038003150D8B422EF00F024EF00F02CEF00F09C
:100048002D04D8A42AEF00F02CEF00F03EEF00F0CA
:10005800010E306E000E246E000E236E800E2324D7
:10006800D96E000E2420DA6E36C0DFFF234A242A18
:10007800EDEF00F03004D8A444EF00F046EF00F0B4
:10008800EDEF00F0800E2324D96E000E2420DA6EE6
:1000980036C0DFFF245007E1050E235CD8B057EFC8
:1000A80000F059EF00F0DFEF00F05A0E3618D8A430
:1000B80060EF00F062EF00F03AEF00F000018151CC
:1000C8008225356E35508319D8A46DEF00F06FEF97
:1000D80000F0B2EF00F02D50D8B475EF00F077EFD4
:1000E80000F080EF00F0F50E8219D8A47EEF00F042
:1000F80080EF00F098EF00F0F29E000E376E800E51
:100108003724D96EDA6A000EDA22DF500FEC13F0CA
:10011800372A040E376493EF00F095EF00F083EF71
:1001280000F0F28EA8EF00F0F29E000E376E160E69
:100138000FEC13F0372A040E3764A5EF00F0A7EF91
:1001480000F09BEF00F0F28E010E316E000E246E6F
:10015800000E236E020E2A6EC8EF00F0000E316EFC
:10016800000E246E000E236EF29E000E376E150EE2
:100178000FEC13F0372A040E3764C5EF00F0C7EF11
:1001880000F0BBEF00F0F28EF50E00018219D8A442
:10019800D0EF00F0D2EF00F03AEF00F0020E2A188C
:1001A800D8A4D9EF00F0DBEF00F03AEF00F0010E31
:1001B8002F6E3AEF00F0000E306E3AEF00F0ACA26E
:1001C800E8EF00F0EAEF00F0EDEF00F0AC92AC9849
:1001D800AC882504D8A4F3EF00F0F5EF00F03BEF6E
:1001E80001F055BE02EF01F055505410531008E1CC
:1001F8005204D8A002EF01F004EF01F00EEF01F075
:10020800FF0E5226FF0E5322FF0E5422FF0E5522D8
:1002180016EF01F0000E526E000E536E000E546E73
:10022800000E556E51BE23EF01F0515050104F1083
:1002380008E14E04D8A023EF01F025EF01F02FEFDD
:1002480001F0FF0E4E26FF0E4F22FF0E5022FF0E2A
:10025800512239EF01F0140E4E6E000E4F6E000E53
:10026800506E000E516E5AEC12F0000E256E9EA0D4
:1002780040EF01F042EF01F049EF01F09E0ECF6E22
:10028800570ECE6E9E90010E256EF0A24EEF01F035
:1002980050EF01F07BEF01F007500810D8A457EF9A
:1002A80001F059EF01F066EF01F081A85EEF01F06F
:1002B80060EF01F066EF01F0000E086E010E076EA8
:1002C8007AEF01F007040810D8A46DEF01F06FEF82
:1002D80001F07AEF01F081A874EF01F076EF01F0F8
:1002E8007AEF01F0000E086E000E076EF09234C02F
:1002F800DAFF33C0D9FF59921100A4EF11F0F29E32
:10030800E5EC10F0770E5FEC10F024EC13F0F9EC4C
:1003180012F0A2EC12F0EDEC12F0D398D39AD39C21
:10032800D390D39294949388CA96CA98CA9ACA9C2E
:10033800FC0ECA16040ECB6ECF0EBB16BB50F00BCC
:100348000C09BB6E000EBC6ECA848B9289941E0E7B
:10035800526E000E536E000E546E000E556ED08E07
:100368009F8AF28EF28EC0908C808C82000E416E35
:10037800250E406EFF0E426E0BEC10F0060E0001CB
:100388009F6F130E9E6FAD0EE82EFED79E2FFCD7E3
:100398009F2FFAD700D0E6EC11F0F29E100E466EB1
:1003A800000E476E000E486E000E496E1EEC11F0EE
:1003B80046C021F047C022F0F28E21C02CF0010E79
:1003C8002C64E9EF01F0EBEF01F0FCEF01F0010E16
:1003D8002C6EF29E100E466E000E476E000E486E92
:1003E800000E496E2CC04AF04B6A7FEC11F0F28E79
:1003F800000E186E010E176E17C040F018C041F0BD
:100408002CC042F00BEC10F0000E146E010E136EAF
:10041800F29E200E466E000E476E000E486E000ECD
:10042800496E1EEC11F046C021F047C022F0F28E52
:1004380021501B6E1C6A1C5009E1310E1B5CD8A0B0
:1004480028EF02F02AEF02F035EF02F01C5009E124
:100458003B0E1B5CD8A033EF02F035EF02F049EFFA
:1004680002F0000E1C6E310E1B6EF29E200E466EC0
:10047800000E476E000E486E000E496E1BC04AF013
:100488001CC04BF07FEC11F0F28EF29E600E466EAF
:10049800000E476E000E486E000E496E1EEC11F0FD
:1004A80046C021F047C022F0F28E21C029F02F0E5D
:1004B800296461EF02F063EF02F06BEF02F0350E92
:1004C800296469EF02F06BEF02F0A8EF02F0300E3A
:1004D800296E000E1A6E000E196EF29E600E466EA0
:1004E800000E476E000E486E000E496E29C04AF095
:1004F8004B6A7FEC11F0F28ECEEF02F0000E1A6E0E
:10050800000E196E300E296ECEEF02F0030E1A6E31
:10051800E80E196ECEEF02F0070E1A6ED00E196EA5
:10052800CEEF02F00B0E1A6EB80E196ECEEF02F077
:100538000F0E1A6EA00E196ECEEF02F0130E1A6E81
:10054800880E196ECEEF02F0295000019E6F9F6B46
:100558009F51000AD8B4B3EF02F082EF02F09E5127
:10056800300AD8B482EF02F0010AD8B48AEF02F058
:10057800030AD8B490EF02F0010AD8B496EF02F05B
:10058800070AD8B49CEF02F0010AD8B4A2EF02F02F
:1005980082EF02F0F29E500E466E000E476E000E7D
:1005A800486E000E496E1EEC11F046C021F047C09F
:1005B80022F0F28E21C027F0960E2764E6EF02F0B3
:1005C800E8EF02F0FFEF02F0000E276EF29E500EE9
:1005D800466E000E476E000E486E000E496E27C02C
:1005E8004AF04B6A7FEC11F0F28E000E1E6E000E80
:1005F8001D6E02EF03F027C01DF01E6AF29E400E2A
:10060800466E000E476E000E486E000E496E1EECD8
:1006180011F046C021F047C022F0F28E21C028F028
:10062800810E2818D8B41BEF03F01DEF03F096EFE6
:1006380003F0820E2818D8B424EF03F026EF03F055
:1006480096EF03F0830E2818D8B42DEF03F02FEFA0
:1006580003F096EF03F0840E2818D8B436EF03F0B1
:1006680038EF03F096EF03F0850E2818D8B43FEF63
:1006780003F041EF03F096EF03F0860E2818D8B484
:1006880048EF03F04AEF03F096EF03F0870E2818BF
:10069800D8B451EF03F053EF03F096EF03F0070ED1
:1006A800576ED00E566E820E286EF29E400E466E23
:1006B800000E476E000E486E000E496E28C04AF0C4
:1006C8004B6A7FEC11F0F28EC0EF03F0030E576E09
:1006D800E80E566EC0EF03F0070E576ED00E566E3A
:1006E800820E286EC0EF03F00B0E576EB80E566ED2
:1006F800C0EF03F00F0E576EA00E566EC0EF03F05A
:10070800130E576E880E566EC0EF03F0030E576E29
:10071800200E566EC0EF03F0050E576EDC0E566EB7
:10072800C0EF03F0285000019E6F9F6B9F51000A95
:10073800D8B4A1EF03F070EF03F09E51810AD8B44A
:100748006AEF03F0030AD8B470EF03F0010AD8B4D3
:1007580078EF03F0070AD8B47EEF03F0010AD8B4A3
:1007680084EF03F0030AD8B48AEF03F0010AD8B47F
:1007780090EF03F070EF03F03F0E586EF29E300ECC
:10078800466E000E476E000E486E000E496E1EEC57
:1007980011F046C021F047C022F0F28E21C058F077
:1007A8005850D8B4DAEF03F0DCEF03F0FFEF03F0B2
:1007B8003F0E5818D8B4E3EF03F0E5EF03F0FFEF6E
:1007C80003F07F0E5818D8B4ECEF03F0EEEF03F007
:1007D800FFEF03F03F0E586EF29E300E466E000E8D
:1007E800476E000E486E000E496E58C04AF04B6ABC
:1007F8007FEC11F0F28E1E0E526E000E536E000E3C
:10080800546E000E556E7DEC0CF08C92F29E700EBC
:10081800466E000E476E000E486E000E496E1EECC6
:1008280011F046C021F047C022F0F28E21500B6E25
:100838000C6A0B500C10D8B424EF04F026EF04F027
:1008480071EF04F00B040C10D8B42DEF04F02FEF67
:1008580004F071EF04F0020E0B180C10D8B437EF47
:1008680004F039EF04F071EF04F0030E0B180C10CC
:10087800D8B441EF04F043EF04F071EF04F0000E38
:100888000C6E000E0B6EF29E700E466E000E476EDA
:10089800000E486E000E496E0BC04AF00CC04BF0BB
:1008A8007FEC11F0F28E90EF04F0000E0A6E000E4D
:1008B800096E90EF04F0000E0A6E070E096E90EFB5
:1008C80004F0000E0A6E0A0E096E90EF04F0000E96
:1008D8000A6E140E096E90EF04F00BC09EF00CC067
:1008E8009FF000019F51000AD8B47DEF04F059EF42
:1008F80004F09E51000AD8B459EF04F0010AD8B4A4
:100908005FEF04F0030AD8B465EF04F0010AD8B425
:100918006BEF04F059EF04F009C038F00AC039F061
:1009280075EC12F004001E0E526E000E536E000E8F
:10093800546E000E556EE6EC11F0BBEF08F013C0D4
:1009480017F014C018F081B8ACEF04F0AEEF04F063
:10095800E4EF04F081B8B3EF04F0B5EF04F0E4EF8E
:1009680004F00BC04CF00CC04DF083EC0DF04CC003
:1009780009F04DC00AF0700E466E000E476E000E6C
:10098800486E000E496E1EEC11F046C00BF047C0D1
:100998000CF0C7EC11F00BC03EF00CC03FF02CC0BF
:1009A80040F001EC0EF0060E00019F6F130E9E6FD3
:1009B800AD0EE82EFED79E2FFCD79F2FFAD700D07A
:1009C80081B6E9EF04F0EBEF04F0A0EF05F0630E59
:1009D80017181810D8B4F3EF04F0F5EF04F0A0EFEF
:1009E80005F081B6FAEF04F0FCEF04F0A4EF05F08F
:1009F80006BE08EF05F0E80E055C030E0658D8A001
:100A080008EF05F00AEF05F032EF05F0185007E19E
:100A18005A0E175CD8B013EF05F015EF05F032EF5A
:100A280005F0060E00019F6F130E9E6FAD0EE82EA7
:100A3800FED79E2FFCD79F2FFAD700D00A0E172477
:100A4800176E000E1820186E17C040F018C041F03D
:100A58002CC042F00BEC10F05EEF05F006BE40EF44
:100A680005F0E80E055C030E0658D8B03EEF05F019
:100A780040EF05F05EEF05F0010E1724176E000E2B
:100A88001820186E17C040F018C041F02CC042F072
:100A98000BEC10F0020E00019F6F860E9E6F990EF0
:100AA800E82EFED79E2FFCD79F2FFAD7000E066E92
:100AB800000E056E81B663EF05F065EF05F087EF70
:100AC80005F080BA6AEF05F06CEF05F087EF05F0E6
:100AD800000E186E000E176E17C040F018C041F0D7
:100AE8002CC042F00BEC10F087EF05F01A0E000155
:100AF8009E6FF80EE82EFED79E2FFCD700F00A0E48
:100B08000526000E062281B68CEF05F08EEF05F063
:100B18009EEF05F006BE9AEF05F0E80E055C030EA1
:100B28000658D8A09AEF05F09CEF05F07AEF05F08B
:100B3800A4EF05F0A4EF05F0000E066E000E056E9A
:100B480080BAA9EF05F0ABEF05F05FEF06F017509C
:100B58001810D8B4B2EF05F0B4EF05F05FEF06F067
:100B680080BAB9EF05F0BBEF05F063EF06F004BEFD
:100B7800C7EF05F0E80E035C030E0458D8A0C7EFD2
:100B880005F0C9EF05F0F1EF05F0185009E10A0E7C
:100B9800175CD8A0D2EF05F0D4EF05F0F1EF05F01F
:100BA800060E00019F6F130E9E6FAD0EE82EFED746
:100BB8009E2FFCD79F2FFAD700D0F60E1724176E5A
:100BC800FF0E1820186E17C040F018C041F02CC056
:100BD80042F00BEC10F01DEF06F004BEFFEF05F03D
:100BE800E80E035C030E0458D8B0FDEF05F0FFEFE4
:100BF80005F01DEF06F0FF0E1724176EFF0E1820E4
:100C0800186E17C040F018C041F02CC042F00BEC31
:100C180010F0020E00019F6F860E9E6F990EE82E4F
:100C2800FED79E2FFCD79F2FFAD7000E046E000E1A
:100C3800036E80BA22EF06F024EF06F046EF06F0C6
:100C480081B629EF06F02BEF06F046EF06F0000E0E
:100C5800186E000E176E17C040F018C041F02CC077
:100C680042F00BEC10F046EF06F01A0E00019E6FF2
:100C7800F80EE82EFED79E2FFCD700F00A0E0326AA
:100C8800000E042280BA4BEF06F04DEF06F05DEF40
:100C980006F004BE59EF06F0E80E035C030E045894
:100CA800D8A059EF06F05BEF06F039EF06F063EFD6
:100CB80006F063EF06F0000E046E000E036E17C018
:100CC80013F018C014F017C040F018C041F02CC041
:100CD80042F00BEC10F007040810D8A476EF06F0E9
:100CE80078EF06F088EF06F0010E2D6E1E0E526E9C
:100CF800000E536E000E546E000E556ED3EC08F0C5
:100D0800000E2F6E000E2D6E3104D8A48EEF06F063
:100D180090EF06F0B7EF08F08DEF08F0F10E8219AA
:100D2800D8A499EF06F09BEF06F0B7EF06F02D5028
:100D3800D8A4A1EF06F0A3EF06F0B7EF06F0000E77
:100D48002F6E010E2D6E13C017F014C018F01E0E72
:100D5800526E000E536E000E546E000E556EE4EC8B
:100D68000AF015EF07F0F20E8219D8A4BEEF06F0CC
:100D7800C0EF06F015EF07F02D50D8A4C6EF06F027
:100D8800C8EF06F015EF07F0000E2F6E010E2D6E5E
:100D980013C017F014C018F017C040F018C041F085
:100DA8002CC042F00BEC10F01E0E526E000E536E6B
:100DB800000E546E000E556ED3EC08F02F50D8A4D8
:100DC800E8EF06F0EAEF06F015EF07F0A50E0001D0
:100DD800606F440E616FF90E626F3D0E636F5A0EBD
:100DE800646FF29E000E126E000E116E125009E131
:100DF800050E115CD8A003EF07F005EF07F007EF29
:100E080007F014EF07F0600E1124D96E000E1220BF
:100E1800DA6EDF5004EC13F0114A122AFAEF06F0EA
:100E2800F28E05EC12F022EC12F0000E2F6E000E7E
:100E38002D6EAFEF08F02D50D8A425EF07F027EF5F
:100E480007F0AFEF08F0010E2D6E82C029F053EFC6
:100E580007F0000E1A6E000E196E300E296E78EF2C
:100E680007F0030E1A6EE80E196E78EF07F0070EFA
:100E78001A6ED00E196E78EF07F00B0E1A6EB80EB8
:100E8800196E78EF07F00F0E1A6EA00E196E78EF34
:100E980007F0130E1A6E880E196E78EF07F02950B6
:100EA8009E6F9F6B9F51000AD8B45DEF07F02DEF3E
:100EB80007F09E51300AD8B42DEF07F0010AD8B4D4
:100EC80035EF07F0030AD8B43BEF07F0010AD8B4AE
:100ED80041EF07F0070AD8B447EF07F0010AD8B482
:100EE8004DEF07F02DEF07F0F29E600E466E000EF4
:100EF800476E000E486E000E496E29C04AF04B6AD4
:100F08007FEC11F0F28E05EC12F01BEF07F02D507C
:100F1800D8A491EF07F093EF07F0AFEF08F08251F4
:100F2800D8A499EF07F09BEF07F009EF08F0010E3E
:100F38002D6EF29E600E466E000E476E000E486ED5
:100F4800000E496E1EEC11F04650296E400E466E9A
:100F5800000E476E000E486E000E496E1EEC11F032
:100F68004650286E300E466E000E476E000E486ED4
:100F7800000E496E1EEC11F046C01FF047C020F06D
:100F8800500E466E000E476E000E486E000E496EFB
:100F98001EEC11F04650276EF28E510E0001606F64
:100FA80029C061F01FC062F028C063F027C064F058
:100FB800020E00019F6F040E9E6FBA0EE82EFED738
:100FC8009E2FFCD79F2FFAD700F0F29E000E126ECC
:100FD800000E116E125009E1050E115CD8A0F7EF52
:100FE80007F0F9EF07F0FBEF07F008EF08F0600EE5
:100FF8001124D96E000E1220DA6EDF5004EC13F0C3
:10100800114A122AEEEF07F0F28E22EC12F01BEFD3
:1010180007F02D50D8A413EF08F015EF08F06DEF86
:1010280008F0010E2D6E82C028F03BEF08F0030E89
:10103800576EE80E566E5CEF08F0070E576ED00E2E
:10104800566E820E286E5CEF08F00B0E576EB80EC7
:10105800566E5CEF08F00F0E576EA00E566E5CEFE2
:1010680008F0130E576E880E566E5CEF08F0285085
:101078009E6F9F6B9F51000AD8B445EF08F021EF8F
:1010880008F09E51810AD8B41BEF08F0030AD8B4BF
:1010980021EF08F0010AD8B429EF08F0070AD8B4FC
:1010A8002FEF08F0010AD8B435EF08F021EF08F067
:1010B800F29E400E466E000E476E000E486E000E01
:1010C800496E28C04AF04B6A7FEC11F0F28E000E90
:1010D8002D6E2D50D8A473EF08F075EF08F0AFEF20
:1010E80008F0010E2D6E82C027F027C01DF01E6A81
:1010F800F29E500E466E000E476E000E486E000EB1
:10110800496E27C04AF04B6A7FEC11F0F28E1BEF54
:1011180007F0000181519E6F9F6B9F51000AD8B460
:1011280098EF08F0AFEF08F09E51230AD8B41FEFEC
:1011380007F0670AD8B492EF06F0150AD8B48BEF17
:1011480007F0340AD8B40DEF08F0030AD8B46DEFED
:1011580008F0AFEF08F0000E316E000E306E000E92
:101168002A6E90EF04F0000E2A6E90EF04F02A50D9
:1011780000019E6F9F6B9F51000AD8B4C6EF08F01C
:1011880090EF04F09E51000AD8B4A3EF04F0020ACD
:10119800D8B488EF06F090EF04F081EF01F02C044A
:1011A800D8A4D9EF08F0DBEF08F0F0EF08F08B8255
:1011B80056C038F057C039F08CEC12F08B92040E00
:1011C8004A6E0C0E496E340EE82EFED7492EFCD717
:1011D8004A2EFAD7F3EF08F08B92E3EF08F08984F0
:1011E80017501810D8A4FBEF08F0FDEF08F003EF34
:1011F80009F0000E166E010E156E8DEF0AF0000E46
:10120800166E000E156E8DEF0AF0040052EC11F008
:10121800E6EC11F019C038F01AC039F08CEC12F075
:1012280037EC13F0040E4A6E8E0E496E120EE82E3D
:10123800FED7492EFCD74A2EFAD700D01E0E526E82
:10124800000E536E000E546E000E556EDBEC12F05D
:1012580038C00FF039C010F05250531054105510C8
:10126800D8A439EF09F03BEF09F040EF09F0310E4F
:1012780077EC0EF03CEC13F00F501010D8A447EFA9
:1012880009F049EF09F02AEF09F04E0E496EEB0E0E
:10129800E82EFED7492EFCD700F01E0E526E000E27
:1012A800536E000E546E000E556EDBEC12F038C013
:1012B8000FF039C010F05250531054105510D8A4E4
:1012C80068EF09F06AEF09F06FEF09F0320E77EC7A
:1012D8000EF03CEC13F00F041010D8A476EF09F0D0
:1012E80078EF09F059EF09F01E0E526E000E536E9A
:1012F800000E546E000E556E1DC038F01EC039F039
:101308008CEC12F03CEC13F017501810D8B48FEF97
:1013180009F091EF09F09DEF09F015041610D8B403
:1013280098EF09F09AEF09F09DEF09F01706D8A099
:10133800180617C040F018C041F02CC042F00BEC62
:1013480010F02C04D8A4ABEF09F0ADEF09F0D4EFFE
:1013580009F017501810D8A4B4EF09F0B6EF09F047
:10136800BFEF09F015041610D8A4BDEF09F0BFEFC0
:1013780009F0D4EF09F08B8256C038F057C039F025
:101388008CEC12F08B92040E4A6E0C0E496E340EE1
:10139800E82EFED7492EFCD74A2EFAD714EF0AF0CA
:1013A8002C50D8A4DAEF09F0DCEF09F014EF0AF0BA
:1013B80017501810D8A4E3EF09F0E5EF09F0EEEFA5
:1013C80009F015041610D8A4ECEF09F0EEEF09F0B7
:1013D80014EF0AF08B9217501810D8A4F6EF09F002
:1013E800F8EF09F001EF0AF015041610D8A4FFEF82
:1013F80009F001EF0AF009EF0AF056C038F057C0BB
:1014080039F08CEC12F014EF0AF0060E4A6E130E47
:10141800496EAE0EE82EFED7492EFCD74A2EFAD7D3
:101428002F04D8A41AEF0AF01CEF0AF049EF0AF0CB
:101438009FEF0AF0000E166E020E156E17C040F0F0
:1014480018C041F02C50D8B42CEF0AF02FEF0AF056
:10145800010E30EF0AF0000E426E0BEC10F0820E17
:10146800496EDE0EE82EFED7492EFCD717C040F095
:1014780018C041F02CC042F00BEC10F0820E496EFF
:10148800DE0EE82EFED7492EFCD707500810D8A448
:1014980050EF0AF052EF0AF064EF0AF01504161044
:1014A800D8B459EF0AF05BEF0AF01EEF0AF01550B6
:1014B8001610D8B462EF0AF064EF0AF01EEF0AF0D3
:1014C80017C040F018C041F02CC042F00BEC10F0EF
:1014D80007500810D8A473EF0AF075EF0AF086EFEA
:1014E8000AF017501810D8B47CEF0AF07EEF0AF013
:1014F80086EF0AF017C013F018C014F0000E186E2B
:10150800000E176E820E496EDE0EE82EFED7492EAB
:10151800FCD717501810D8A494EF0AF096EF0AF0E9
:1015280009EF09F015041610D8B49DEF0AF09FEFE3
:101538000AF009EF09F0899417501810D8B4A7EFEA
:101548000AF0A9EF0AF0B1EF0AF02F04D8A4AFEF20
:101558000AF0B1EF0AF0D5EF0AF015501610D8A42A
:10156800B8EF0AF0BAEF0AF0D5EF0AF02C04D8A4C5
:10157800C0EF0AF0C2EF0AF0D5EF0AF08B8256C02E
:1015880038F057C039F08CEC12F08B92040E4A6E8A
:101598000C0E496E340EE82EFED7492EFCD74A2E83
:1015A800FAD7000E166E000E156E000E186E000E9D
:1015B800176E000E086E000E076E000E2A6E1200DF
:1015C800000E106E000E0F6E410E03EC0DF02C0491
:1015D800D8A4F1EF0AF0F3EF0AF008EF0BF08B82D2
:1015E80056C038F057C039F08CEC12F08B92040ECC
:1015F800426E0C0E416E340EE82EFED7412EFCD7FB
:10160800422EFAD70BEF0BF08B92FBEF0AF089848E
:10161800BBEF0BF0040052EC11F0E6EC11F019C02E
:1016280038F01AC039F08CEC12F037EC13F0040ED5
:10163800426E8E0E416E120EE82EFED7412EFCD75A
:10164800422EFAD700D01E0E526E000E536E000EB8
:10165800546E000E556EDBEC12F038C00FF039C036
:1016680010F05250531054105510D8A43EEF0BF000
:1016780040EF0BF045EF0BF0310E77EC0EF03CEC41
:1016880013F00F501010D8A44CEF0BF04EEF0BF0E6
:101698002FEF0BF04E0E416EEB0EE82EFED7412ECB
:1016A800FCD700F01E0E526E000E536E000E546EE4
:1016B800000E556EDBEC12F038C00FF039C010F098
:1016C8005250531054105510D8A46DEF0BF06FEF13
:1016D8000BF074EF0BF0320E77EC0EF03CEC13F0DD
:1016E8000F041010D8A47BEF0BF07DEF0BF05EEF2A
:1016F8000BF01E0E526E000E536E000E546E000E4E
:10170800556E1DC038F01EC039F08CEC12F03CEC60
:1017180013F02C04D8A493EF0BF095EF0BF0AAEF7D
:101728000BF08B8256C038F057C039F08CEC12F0B1
:101738008B92040E426E0C0E416E340EE82EFED7CC
:10174800412EFCD7422EFAD7B1EF0BF08B9256C040
:1017580038F057C039F08CEC12F02F04D8A4B7EF4A
:101768000BF0B9EF0BF0BBEF0BF0C3EF0BF02F5002
:10177800D8B4C1EF0BF0C3EF0BF00EEF0BF0899468
:1017880017501810D8B4CBEF0BF0CDEF0BF0D5EF06
:101798000BF02F04D8A4D3EF0BF0D5EF0BF0F0EF3C
:1017A8000BF02C04D8A4DBEF0BF0DDEF0BF0F0EF1F
:1017B8000BF08B8256C038F057C039F08CEC12F021
:1017C8008B92040E426E0C0E416E340EE82EFED73C
:1017D800412EFCD7422EFAD7000E186E000E176E57
:1017E800020E2A6E1200000E416E3FBE00EF0CF092
:1017F800FEEF0BF00AEF0CF03F1E3E1E3D1E3C6C48
:10180800000E3D223E223F22010E416E3BBE11EFEB
:101818000CF00FEF0CF01BEF0CF03B1E3A1E391EBC
:10182800386C000E39223A223B22010E411A000E72
:10183800426E000E436E000E446E000E456E3C5024
:101848003D103E103F10D8B42CEF0CF02EEF0CF0EA
:1018580064EF0CF0010E406E38EF0CF0D8903C3677
:101868003D363E363F36402A3FAE3DEF0CF03FEF67
:101878000CF032EF0CF0D8904236433644364536F9
:101888003C50385C3D5039583E503A583F503B58D0
:10189800D8A051EF0CF053EF0CF05CEF0CF03C507B
:1018A800385E3D50395A3E503A5A3F503B5A428072
:1018B800D8903F323E323D323C32402E3FEF0CF062
:1018C8004150D8B46AEF0CF06CEF0CF074EF0CF0E8
:1018D800451E441E431E426C000E432244224522EC
:1018E80042C038F043C039F044C03AF045C03BF03C
:1018F8001200898437EC13F0040E426E8E0E416E8E
:10190800120EE82EFED7412EFCD7422EFAD700D071
:101918001E0E526E000E536E000E546E000E556E63
:10192800DBEC12F038C00FF039C010F052505310F1
:1019380054105510D8A4A3EF0CF0A5EF0CF0AAEFA3
:101948000CF0310E77EC0EF03CEC13F00F50101049
:10195800D8A4B1EF0CF0B3EF0CF094EF0CF04E0EEE
:10196800416EEB0EE82EFED7412EFCD700F01E0E7E
:10197800526E000E536E000E546E000E556EDBEC68
:1019880012F038C00FF039C010F0525053105410F4
:101998005510D8A4D2EF0CF0D4EF0CF0D9EF0CF01E
:1019A800320E77EC0EF03CEC13F00F041010D8A4B4
:1019B800E0EF0CF0E2EF0CF0C3EF0CF01E0E526EED
:1019C800000E536E000E546E000E556E1DC038F09A
:1019D8001EC039F08CEC12F03CEC13F0060E426E8F
:1019E800130E416EAE0EE82EFED7412EFCD7422EC6
:1019F800FAD7000E106E000E0F6E89941200406E1A
:101A08008B98000EA5EC10F08B888B98000EA5EC37
:101A180010F04FEF0DF0790EA5EC10F03F0EA5EC8D
:101A280010F07CEF0DF03F0EA5EC10F0730EA5EC56
:101A380010F07CEF0DF0390EA5EC10F0770EA5EC48
:101A480010F07CEF0DF0000EA5EC10F0000EA5ECE8
:101A580010F07CEF0DF0000EA5EC10F03F0EA5EC99
:101A680010F07CEF0DF0790EA5EC10F0060EA5EC49
:101A780010F07CEF0DF0770EA5EC10F03E0EA5EC03
:101A880010F07CEF0DF0000EA5EC10F03E0EA5EC6A
:101A980010F07CEF0DF040503E6E3F6A3F50000A58
:101AA800D8B459EF0DF07CEF0DF03E50410AD8B490
:101AB8003FEF0DF0020AD8B41FEF0DF0060AD8B4B4
:101AC8000FEF0DF0020AD8B42FEF0DF0080AD8B4C2
:101AD80017EF0DF01C0AD8B437EF0DF0050AD8B48B
:101AE80047EF0DF00E0AD8B427EF0DF07CEF0DF09C
:101AF8008B888B980D0EA5EC10F08B881200DDEF0B
:101B08000DF0000E9D6F070E9C6FF29E700E466ED4
:101B1800000E476E000E486E000E496E000E4B6EAA
:101B2800010E4A6E7FEC11F0F28EFCEF0DF0000E04
:101B38009D6F0A0E9C6FF29E700E466E000E476EE9
:101B4800000E486E000E496E000E4B6E020E4A6E75
:101B58007FEC11F0F28EFCEF0DF0000E9D6F140E6D
:101B68009C6FF29E700E466E000E476E000E486E19
:101B7800000E496E000E4B6E030E4A6E7FEC11F09C
:101B8800F28EFCEF0DF0000E9D6F000E9C6FF29E22
:101B9800700E466E000E476E000E486E000E496EBF
:101BA800000E4B6E000E4A6E7FEC11F0F28EFCEFC9
:101BB8000DF04CC09AF04DC09BF000019B51000AFB
:101BC800D8B4E9EF0DF0FCEF0DF09A51000AD8B443
:101BD80085EF0DF0010AD8B49BEF0DF0030AD8B4D5
:101BE800B1EF0DF0010AD8B4C7EF0DF0FCEF0DF01E
:101BF8009CC04CF09DC04DF012008B98000EA5ECD7
:101C080010F08B888B98000EA5EC10F04004D8A437
:101C180010EF0EF012EF0EF023EF0EF03E043F101F
:101C2800D8A419EF0EF01BEF0EF023EF0EF03E0EC6
:101C3800A5EC10F0860EA5EC10F070EF0EF0400445
:101C4800D8A429EF0EF02BEF0EF03DEF0EF0020EA8
:101C58003E183F10D8A433EF0EF035EF0EF03DEFED
:101C68000EF03E0EA5EC10F0DB0EA5EC10F070EFB8
:101C78000EF04004D8A443EF0EF045EF0EF057EFF6
:101C88000EF0030E3E183F10D8A44DEF0EF04FEFA4
:101C98000EF057EF0EF03E0EA5EC10F0CF0EA5ECAF
:101CA80010F070EF0EF04050D8A45DEF0EF05FEF2B
:101CB8000EF070EF0EF03E503F10D8A466EF0EF015
:101CC80068EF0EF070EF0EF03E0EA5EC10F0BF0EB0
:101CD800A5EC10F070EF0EF08B888B980D0EA5EC2C
:101CE80010F08B881200406E8B98000EA5EC10F057
:101CF8008B888B98000EA5EC10F0BBEF0EF0790ED8
:101D0800A5EC10F0770EA5EC10F0E4EF0EF0790ECC
:101D1800A5EC10F03F0EA5EC10F0E4EF0EF0790EF4
:101D2800A5EC10F0060EA5EC10F0E4EF0EF0790E1D
:101D3800A5EC10F05B0EA5EC10F0E4EF0EF0000E31
:101D4800A5EC10F03F0EA5EC10F0E4EF0EF0790EC4
:101D5800A5EC10F0060EA5EC10F0E4EF0EF0770EEF
:101D6800A5EC10F03E0EA5EC10F0E4EF0EF040509C
:101D78003E6E3F6A3F50000AD8B4C5EF0EF0E4EF5C
:101D88000EF03E50300AD8B48BEF0EF0010AD8B4EA
:101D980093EF0EF0030AD8B49BEF0EF0730AD8B491
:101DA800B3EF0EF0040AD8B483EF0EF0020AD8B4E9
:101DB800A3EF0EF0140AD8B4ABEF0EF0E4EF0EF078
:101DC8008B888B980D0EA5EC10F08B88120019EFFC
:101DD8000FF03F0E3C6E4FEF0FF0060E3C6E4FEFCC
:101DE8000FF05B0E3C6E4FEF0FF04F0E3C6E4FEF57
:101DF8000FF0660E3C6E4FEF0FF06D0E3C6E4FEF1E
:101E08000FF07D0E3C6E4FEF0FF0070E3C6E4FEF5C
:101E18000FF07F0E3C6E4FEF0FF06F0E3C6E4FEFE2
:101E28000FF0000E3C6E4FEF0FF038C03AF039C09B
:101E38003BF03B50000AD8B424EF0FF015EF0FF039
:101E48003A50000AD8B4EDEF0EF0010AD8B4F1EF19
:101E58000EF0030AD8B4F5EF0EF0010AD8B4F9EF82
:101E68000EF0070AD8B4FDEF0EF0010AD8B401EF5E
:101E78000FF0030AD8B405EF0FF0010AD8B409EF40
:101E88000FF00F0AD8B40DEF0FF0010AD8B411EF14
:101E98000FF015EF0FF03C501200000E3D6E3BBEE8
:101EA8005AEF0FF058EF0FF060EF0FF03A6C3B1E4F
:101EB800D8B03B2A010E3D6E39BE67EF0FF065EFD3
:101EC8000FF06DEF0FF0386C391ED8B0392A010EBB
:101ED8003D1A000E3F6E000E3E6E3A503B10D8B4CD
:101EE80078EF0FF07AEF0FF0A2EF0FF0010E3C6ED3
:101EF80082EF0FF0D8903A363B363C2A3BAE87EF5C
:101F08000FF089EF0FF07EEF0FF0D8903E363F3696
:101F18003A50385C3B503958D8A095EF0FF097EFFE
:101F28000FF09CEF0FF03A50385E3B50395A3E8024
:101F3800D8903B323A323C2E89EF0FF03D50D8B45E
:101F4800A8EF0FF0AAEF0FF0AEEF0FF03E6C3F1EB8
:101F5800D8B03F2A3EC038F03FC039F01200000E1A
:101F68003D6E39BEBCEF0FF0BAEF0FF0C2EF0FF0C5
:101F7800386C391ED8B0392A010E3D6E3BBEC9EF08
:101F88000FF0C7EF0FF0CDEF0FF03A6C3B1ED8B053
:101F98003B2A3A503B10D8B4D4EF0FF0D6EF0FF0ED
:101FA800FAEF0FF0010E3C6EDEEF0FF0D8903A36E4
:101FB8003B363C2A3BAEE3EF0FF0E5EF0FF0DAEFEC
:101FC8000FF03A50385C3B503958D8A0EEEF0FF07C
:101FD800F0EF0FF0F4EF0FF03A50385E3B50395AFB
:101FE800D8903B323A323C2EE5EF0FF03D50D8B452
:101FF80000EF10F002EF10F006EF10F0386C391E09
:10200800D8B0392A38C038F039C039F0120040C089
:1020180038F041C039F0000E3B6E0A0E3A6EB3EC50
:102028000FF038C043F039C044F040C038F041C028
:1020380039F0000E3B6E0A0E3A6E51EC0FF038C0C4
:1020480045F039C046F08B98000EA5EC10F08B884F
:102058008B98000EA5EC10F045C038F046C039F05A
:10206800EBEC0EF0486E43C038F044C039F0EBECAE
:102078000EF0476E4250D8B444EF10F046EF10F01F
:1020880052EF10F04228D8A44CEF10F04EEF10F0A9
:1020980051EF10F0488E52EF10F0478E4850A5ECE3
:1020A80010F04750A5EC10F08B888B980D0EA5EC1E
:1020B80010F08B881200406E8B888B98300EA5EC40
:1020C80010F08B888B98300EA5EC10F040C03EF0D5
:1020D8003E3A0F0E3E16050E3F6ED8903E363F2E06
:1020E80071EF10F03E500509A5EC10F08B888B9825
:1020F800110EA5EC10F08B888B98110EA5EC10F042
:102108004050A5EC10F04050A5EC10F04050A5EC64
:1021180010F08B888B98180EA5EC10F08B888B9894
:10212800180EA5EC10F04050A5EC10F04050A5ECAE
:1021380010F04050A5EC10F04050A5EC10F08B8842
:1021480012003A6E000E3C6E8B963CC038F0010EC1
:10215800396E382AB2EF10F0D8903936382EB0EFF1
:1021680010F039503A143B6E3B50D8B4BEEF10F023
:10217800C0EF10F0C3EF10F08B8AC4EF10F08B9A09
:10218800000E3D6E3D2A040E3D64CDEF10F0CFEFFA
:1021980010F0C6EF10F08B86000E3D6E3D2A040E3F
:1021A8003D64D9EF10F0DBEF10F0D2EF10F03C2ACD
:1021B800070E3C64E2EF10F0E4EF10F0A8EF10F027
:1021C8001200FB0E926E9368840E946EC00E956E8C
:1021D800000E966E000E976E050E986EC29EC29CFB
:1021E800C290C18EC19CC19AC188C196C184C19256
:1021F800C190C088C190C182C184C186C188C18E86
:10220800C098F28E030ED312700ED312000EC46E55
:10221800000EC36EC294C296C298C29AC18CC28084
:10222800C282C2B21AEF11F01CEF11F015EF11F0D3
:10223800C19C120049EC13F0000E396EA00E1AEC86
:1022480013F046C038F047C039F048C03AF049C0EA
:102258003BF0000E3C6E010E3D6E000E3E6E000E11
:102268003F6EF7EC0BF038502BEC13F046502BEC8C
:1022780013F041EC13F0010E396EA00E1AEC13F0B6
:10228800000E3FEC12F039C04AF03AC04BF045EC72
:1022980013F04AC046F04BC047F01200A50E0001EB
:1022A800606F450E616F000E626F450E636F5A0EC8
:1022B800646FF29E000E3B6E000E3A6E600E3A247A
:1022C800D96E000E3B20DA6EDF5004EC13F03A4A68
:1022D8003B2A3BBE79EF11F03B5009E1050E3A5C11
:1022E800D8A079EF11F07BEF11F062EF11F0F28EC8
:1022F80022EC12F0120049EC13F0000E396EA00E19
:102308001AEC13F046C038F047C039F048C03AF02C
:1023180049C03BF0000E3C6E010E3D6E000E3E6E55
:10232800000E3F6EF7EC0BF038502BEC13F04650D4
:102338002BEC13F04A502BEC13F045EC13F0120081
:10234800620EF66E260EF76E000EF86E00EE4EF078
:1023580010EE0BF00900F5CFEEFFE550E150FAE181
:1023680000EE60F03A0EEE6AE806FDE100EE01F0DC
:10237800310EEE6AE806FDE159905992000EF86EAA
:10238800000183EF01F00B500C10D8A4CEEF11F030
:10239800D0EF11F0D4EF11F0000E2C6ED6EF11F043
:1023A800010E2C6EF29E100E466E000E476E000E49
:1023B800486E000E496E2CC04AF04B6A7FEC11F053
:1023C800F28E1200C294C296C298C29AC280000EBF
:1023D800396E050E386E8CEC12F0C282C2B2F7EF7D
:1023E80011F0F9EF11F0F2EF11F0C350C4CF3BF048
:1023F8003C6A3BC03CF03B6A3B100D6E3C500E6E95
:102408001200000E396E000E386E800E3824D96E18
:10241800000E3920DA6E000EDF6E384A392A39BECE
:102428001FEF12F0395009E1100E385CD8A01FEFE9
:1024380012F021EF12F009EF12F01200000E396EBF
:10244800000E386E600E3824D96E000E3920DA6E10
:10245800000EDF6E384A392A39BE3CEF12F0395087
:1024680009E1100E385CD8A03CEF12F03EEF12F0F4
:1024780026EF12F012003B6EB5EC12F06B86B5EC4D
:1024880012F06FCF3CF0B5EC12F03B50D8B44FEFE0
:1024980012F051EF12F054EF12F06B9A55EF12F060
:1024A8006B8A6B883CC039F03A6A1200670E0D5C83
:1024B800030E0E58D8B063EF12F065EF12F068EF14
:1024C80012F08C8274EF12F0C00E0D5C030E0E58E1
:1024D800D8A071EF12F073EF12F074EF12F08C9233
:1024E800120038C03AF0030E3A163A3ABB503A187E
:1024F800CF0B3A18BB6E38C03AF039C03BF0D890D1
:102508003B323A32D8903B323A323A50BC6E1200E3
:1025180098EF12F0030E3A6E980EE82EFED73A2E78
:10252800FCD73806D8A0390638503910D8A49FEF00
:1025380012F0A1EF12F08EEF12F01200949C948E1C
:10254800AD98AD9CAD8AAC9CAC88AD9EAC86AC8E8B
:102558007E96AD849D8A9D98190EB06E000E7F6E92
:1025680012006BCF38F01F0E3816D8A4BEEF12F049
:10257800C0EF12F0B5EF12F06DB4C5EF12F0C7EF6F
:1025880012F0B5EF12F01200ACA2CDEF12F0CFEFBF
:1025980012F0D7EF12F0AC98AFCF32F0AFCF32F0E5
:1025A800AC88D9EF12F0AFCF32F03250120080A2CF
:1025B800E0EF12F0E2EF12F0E8EF12F0000E396EE1
:1025C800000E386EECEF12F0000E396E010E386E08
:1025D8001200310ECD6E9E0ECF6E570ECE6E9E90AF
:1025E8009D809F80000E256E1200958A958C280E7E
:1025F8006C6E000E6B6E270E6E6EC00E6D6E120046
:10260800386E38C0AEFFADA20CEF13F00EEF13F02A
:1026180007EF13F01200326E32C0AEFFADA217EF13
:1026280013F019EF13F012EF13F012003A6E3AC0DC
:102638003BF039503B26B5EC12F03BC06FFF12005F
:10264800C70E776E7996798C000E766E1200396E09
:10265800B5EC12F039C06FFF1200140000001E0024
:052668000000D0073F57
:10266E008F868F884DEC13F0120051EC13F08F868D
:10267E008F881200B5EC12F06B821200B5EC12F0DE
:10268E006B841200B5EC12F06B801200080E736EA4
:0C269E0076841200000E736E7694120019
:067FF800AEF703FBF8F1F7
:00000001FF
