:0400000045EF02F0D6
:100008005782D9CF35F0DACF36F09EAA0EEF00F03E
:1000180010EF00F0DDEF00F048EC24F0386EA50E8C
:100028003818D8A41AEF00F01CEF00F03EEF00F0EB
:100038003050D8B422EF00F024EF00F02CEF00F09D
:100048002D04D8A42AEF00F02CEF00F03EEF00F0CA
:10005800010E2F6E000E266E000E256E700E2524E2
:10006800D96E000E2620DA6E38C0DFFF254A262A10
:10007800A5EF01F02F04D8A444EF00F046EF00F0FC
:10008800A5EF01F0700E2524D96E000E2620DA6E39
:1000980038C0DFFF265007E1050E255CD8B057EFC2
:1000A80000F059EF00F0D9EF00F05A0E3818D8A434
:1000B80060EF00F062EF00F03AEF00F000017151DC
:1000C8007225376E37507319D8A46DEF00F06FEFB3
:1000D80000F0AEEF00F02D50D8B475EF00F077EFD8
:1000E80000F080EF00F0F50E7219D8A47EEF00F052
:1000F80080EF00F096EF00F0000E396E700E392494
:10010800D96EDA6A000EDA22DF5093EC24F0392A2D
:10011800040E396492EF00F094EF00F082EF00F0E3
:10012800A4EF00F0000E396E160E93EC24F0392A75
:10013800040E3964A2EF00F0A4EF00F098EF00F08D
:10014800010E306E000E266E000E256E020E2B6E0E
:10015800C2EF00F0000E306E000E266E000E256E07
:10016800000E396E150E93EC24F0392A040E39640A
:10017800C0EF00F0C2EF00F0B6EF00F0F50E00019E
:100188007219D8A4CAEF00F0CCEF00F03AEF00F0F3
:10019800020E2B18D8A4D3EF00F0D5EF00F03AEFF9
:1001A80000F0010E2E6E3AEF00F0000E2F6E3AEFBF
:1001B80000F0A4AAE2EF00F0E4EF00F09BEF01F0FA
:1001C8009EEC24F0386EA50E3818D8A4EEEF00F097
:1001D800F0EF00F002EF01F03050D8B4F6EF00F085
:1001E800F8EF00F02CEF00F02D04D8A4FEEF00F09B
:1001F80000EF01F002EF01F02CEF00F02F04D8A47B
:1002080008EF01F00AEF01F0A5EF01F0700E2524C8
:10021800D96E000E2620DA6E38C0DFFF265007E1BF
:10022800050E255CD8B01BEF01F01DEF01F0D9EFEA
:1002380000F05A0E3818D8A424EF01F026EF01F088
:100248003AEF00F0000171517225376E375073197B
:10025800D8A431EF01F033EF01F072EF01F02D5027
:10026800D8B439EF01F03BEF01F044EF01F0F50E9F
:100278007219D8A442EF01F044EF01F05AEF01F0EF
:10028800000E396E700E3924D96EDA6A000EDA2241
:10029800DF5088EC24F0392A040E396456EF01F057
:1002A80058EF01F046EF01F068EF01F0000E396EEB
:1002B800160E88EC24F0392A040E396466EF01F032
:1002C80068EF01F05CEF01F0010E306E000E266E53
:1002D800000E256E030E2B6E86EF01F0000E306EB9
:1002E800000E266E000E256E000E396E150E88EC77
:1002F80024F0392A040E396484EF01F086EF01F006
:100308007AEF01F0F50E00017219D8A48EEF01F012
:1003180090EF01F03AEF00F0030E2B18D8A497EFF6
:1003280001F099EF01F03AEF00F0D5EF00F0ACA240
:10033800A0EF01F0A2EF01F0A5EF01F0AC92AC98AC
:10034800AC882704D8A4ABEF01F0ADEF01F0F4EFCF
:1003580001F051BEBAEF01F0515050104F1008E1B2
:100368004E04D8A0BAEF01F0BCEF01F0C6EF01F0DF
:10037800FF0E4E26FF0E4F22FF0E5022FF0E512277
:10038800CEEF01F0000E4E6E000E4F6E000E506E56
:10039800000E516E0001AEBFDCEF01F0AE51AD11A1
:1003A800AC1108E1AB05D8A0DCEF01F0DEEF01F0FD
:1003B800E8EF01F0FF0EAB27FF0EAC23FF0EAD23D5
:1003C800FF0EAE23F2EF01F0140EAB6F000EAC6F10
:1003D800000EAD6F000EAE6FBBEC23F0000E276E63
:1003E8009EA0F9EF01F0FBEF01F002EF02F09E0E84
:1003F800CF6E570ECE6E9E90010E276EF0A207EFBD
:1004080002F009EF02F03FEF02F0060E346E130E11
:10041800336EAE0EE82EFED7332EFCD7342EFAD725
:1004280011501210D8A41BEF02F01DEF02F02AEFB2
:1004380002F081A822EF02F024EF02F02AEF02F086
:10044800000E126E010E116E3EEF02F01104121032
:10045800D8A431EF02F033EF02F03EEF02F081A8AA
:1004680038EF02F03AEF02F03EEF02F0000E126EA3
:10047800000E116EF09236C0DAFF35C0D9FF5792E0
:0604880011009EEF22F0BE
:10100000004572726F723A20496E76616C69642095
:1010100055415254206E756D6265722E0A005365FB
:101020006E7420726573706F6E736520285541521F
:101030005431293A200052656365697665642064FD
:10104000617461202855415254003078253032585F
:0B105000000D0A002C200025640000A9
:10105C00F29E31EC22F0770EABEC21F0B3EC24F0E5
:10106C0067EC24F0F8EC22F05BEC24F0F28ED398D1
:10107C00D39AD39CD390D39294949388CA96CA98BB
:10108C00CA9ACA9CFC0ECA16040ECB6ECF0EBB16A7
:10109C00BB50F00B0C09BB6E000EBC6ECA848B925D
:1010AC0089941E0E4E6E000E4F6E000E506E000E8A
:1010BC00516ED08E9F8AA58AC0908C808C82000E37
:1010CC00436E250E426EFF0E446E57EC21F0060E59
:1010DC000001AA6F130EA96FAD0EE82EFED7A92F33
:1010EC00FCD7AA2FFAD700D042EC23F0F29E100EB8
:1010FC00486E000E496E000E4A6E000E4B6E6AEC86
:10110C0022F048C023F049C024F0F28E23C02CF00A
:10111C00010E2C6494EF08F096EF08F0A7EF08F09E
:10112C00010E2C6EF29E100E486E000E496E000ED3
:10113C004A6E000E4B6E2CC04CF04D6A1DEC23F029
:10114C00F28E000E206E010E1F6E1FC042F020C0EA
:10115C0043F02CC044F057EC21F0000E1C6E010E35
:10116C001B6EF29E200E486E000E496E000E4A6EEB
:10117C00000E4B6E6AEC22F048C023F049C024F0FC
:10118C00F28E23500001976F986B985109E1310E44
:10119C00975DD8A0D4EF08F0D6EF08F0E1EF08F097
:1011AC00985109E13B0E975DD8A0DFEF08F0E1EF15
:1011BC0008F0F5EF08F0000E986F310E976FF29E65
:1011CC00200E486E000E496E000E4A6E000E4B6EDD
:1011DC0097C04CF098C04DF01DEC23F0F28EF29EAF
:1011EC00600E486E000E496E000E4A6E000E4B6E7D
:1011FC006AEC22F048C023F049C024F0F28E23C0E0
:10120C002AF02F0E2A640DEF09F00FEF09F017EFFB
:10121C0009F0350E2A6415EF09F017EF09F055EFB8
:10122C0009F0300E2A6E000E0001966F000E956FBD
:10123C00F29E600E486E000E496E000E4A6E000E55
:10124C004B6E2AC04CF04D6A1DEC23F0F28E7BEFF6
:10125C0009F0000E966F000E956F300E2A6E7BEF24
:10126C0009F0030E966FE80E956F7BEF09F0070EF1
:10127C00966FD00E956F7BEF09F00B0E966FB80E34
:10128C00956F7BEF09F00F0E966FA00E956F7BEFAD
:10129C0009F0130E966F880E956F7BEF09F02A50AC
:1012AC000001A96FAA6BAA51000AD8B460EF09F02B
:1012BC002FEF09F0A951300AD8B42FEF09F0010A29
:1012CC00D8B437EF09F0030AD8B43DEF09F0010A9E
:1012DC00D8B443EF09F0070AD8B449EF09F0010A72
:1012EC00D8B44FEF09F02FEF09F0F29E500E486E74
:1012FC00000E496E000E4A6E000E4B6E6AEC22F028
:10130C0048C023F049C024F0F28E23C028F0960E7A
:10131C00286493EF09F095EF09F0ACEF09F0000E9B
:10132C00286EF29E500E486E000E496E000E4A6EEC
:10133C00000E4B6E28C04CF04D6A1DEC23F0F28E63
:10134C00000E226E000E216EAFEF09F028C021F0C6
:10135C00226AF29E400E486E000E496E000E4A6ED6
:10136C00000E4B6E6AEC22F048C023F049C024F00A
:10137C00F28E23C029F0810E2918D8B4C8EF09F0D9
:10138C00CAEF09F043EF0AF0820E2918D8B4D1EF56
:10139C0009F0D3EF09F043EF0AF0830E2918D8B403
:1013AC00DAEF09F0DCEF09F043EF0AF0840E2918AC
:1013BC00D8B4E3EF09F0E5EF09F043EF0AF0850E3E
:1013CC002918D8B4ECEF09F0EEEF09F043EF0AF06E
:1013DC00860E2918D8B4F5EF09F0F7EF09F043EFB2
:1013EC000AF0870E2918D8B4FEEF09F000EF0AF0C6
:1013FC0043EF0AF0070E556ED00E546E820E296E16
:10140C00F29E400E486E000E496E000E4A6E000EA3
:10141C004B6E29C04CF04D6A1DEC23F0F28E6DEF33
:10142C000AF0030E556EE80E546E6DEF0AF0070EBF
:10143C00556ED00E546E820E296E6DEF0AF00B0EA7
:10144C00556EB80E546E6DEF0AF00F0E556EA00E61
:10145C00546E6DEF0AF0130E556E880E546E6DEFD0
:10146C000AF0030E556E200E546E6DEF0AF0050E49
:10147C00556EDC0E546E6DEF0AF029500001A96F09
:10148C00AA6BAA51000AD8B44EEF0AF01DEF0AF06D
:10149C00A951810AD8B417EF0AF0030AD8B41DEF8A
:1014AC000AF0010AD8B425EF0AF0070AD8B42BEFDA
:1014BC000AF0010AD8B431EF0AF0030AD8B437EFB6
:1014CC000AF0010AD8B43DEF0AF01DEF0AF03F0E06
:1014DC00566EF29E300E486E000E496E000E4A6E2D
:1014EC00000E4B6E6AEC22F048C023F049C024F089
:1014FC00F28E23C056F05650D8B487EF0AF089EF1D
:10150C000AF0ACEF0AF03F0E5618D8B490EF0AF080
:10151C0092EF0AF0ACEF0AF07F0E5618D8B499EFA0
:10152C000AF09BEF0AF0ACEF0AF03F0E566EF29EFB
:10153C00300E486E000E496E000E4A6E000E4B6E59
:10154C0056C04CF04D6A1DEC23F0F28E1E0E4E6E02
:10155C00000E4F6E000E506E000E516E60EC1EF0C1
:10156C008C92F29E700E486E000E496E000E4A6E02
:10157C00000E4B6E6AEC22F048C023F049C024F0F8
:10158C00F28E2350136E146A13501410D8B4D1EF8A
:10159C000AF0D3EF0AF02EEF0BF013041410D8B4AA
:1015AC00DAEF0AF0DCEF0AF02EEF0BF0020E131854
:1015BC001410D8B4E4EF0AF0E6EF0AF02EEF0BF0BB
:1015CC00030E13181410D8B4EEEF0AF0F0EF0AF073
:1015DC002EEF0BF0040E13181410D8B4F8EF0AF019
:1015EC00FAEF0AF02EEF0BF0000E146E000E136ED5
:1015FC00F29E700E486E000E496E000E4A6E000E82
:10160C004B6E13C04CF014C04DF01DEC23F0F28E59
:10161C0051EF0BF0000EA06F000E9F6F51EF0BF00F
:10162C00000EA06F070E9F6F51EF0BF0000EA06F16
:10163C00090E9F6F51EF0BF0000EA06F0C0E9F6FF9
:10164C0051EF0BF0000EA06F140E9F6F51EF0BF0CB
:10165C0013C0A9F014C0AAF00001AA51000AD8B412
:10166C003AEF0BF010EF0BF0A951000AD8B410EFC1
:10167C000BF0010AD8B416EF0BF0030AD8B41CEF28
:10168C000BF0010AD8B422EF0BF0070AD8B428EFFC
:10169C000BF010EF0BF0F29E800E486E000E496EB0
:1016AC00000E4A6E000E4B6E6AEC22F048C023F01E
:1016BC0049C024F0F28E2350526E536A250E5218F4
:1016CC005310D8B46CEF0BF06EEF0BF082EF0BF005
:1016DC00000E536E250E526EF29E800E486E000E5A
:1016EC00496E000E4A6E000E4B6E52C04CF053C049
:1016FC004DF01DEC23F0F28EF29E900E486E000E13
:10170C00496E000E4A6E000E4B6E6AEC22F048C019
:10171C0023F049C024F0F28E2350156E166A15047E
:10172C001610D8B49CEF0BF09EEF0BF0BBEF0BF048
:10173C0015501610D8B4A5EF0BF0A7EF0BF0BBEFBC
:10174C000BF0000E166E010E156EF29E900E486E8A
:10175C00000E496E000E4A6E000E4B6E15C04CF01A
:10176C0016C04DF01DEC23F0F28E9FC03AF0A0C0D5
:10177C003BF0F2EC23F004001E0E4E6E000E4F6E8A
:10178C00000E506E000E516E42EC23F067EF19F014
:10179C001BC01FF01CC020F081B8D7EF0BF0D9EFA5
:1017AC000BF078EF0CF013C040F014C041F02CC0DB
:1017BC0042F04AEC1DF0000188BFEEEF0BF0E80E92
:1017CC00875D030E8859D8A0EEEF0BF0F0EF0BF00D
:1017DC0021EF0CF013C0A3F014C0A4F0B2EC1CF079
:1017EC00A3C09FF0A4C0A0F0700E486E000E496E0E
:1017FC00000E4A6E000E4B6E6AEC22F048C013F0DD
:10180C0049C014F062EC23F013C040F014C041F056
:10181C002CC042F04AEC1DF0060E0001AA6F130E0C
:10182C00A96FAD0EE82EFED7A92FFCD7AA2FFAD799
:10183C0000D060EF0CF088BF2FEF0CF0E80E875D46
:10184C00030E8859D8B02DEF0CF02FEF0CF060EF91
:10185C000CF013C040F014C041F02CC042F04AEC24
:10186C001DF0020E0001AA6F860EA96F990EE82ECC
:10187C00FED7A92FFCD7AA2FFAD7000E0001886F2C
:10188C00000E876F60EF0CF013C040F014C041F0F5
:10189C002CC042F04AEC1DF01A0E0001A96FF80E94
:1018AC00E82EFED7A92FFCD700F00A0E00018727DF
:1018BC00000E8823000188BF6DEF0CF0E80E875DE9
:1018CC00030E8859D8A06DEF0CF06FEF0CF04AEFB7
:1018DC000CF081A874EF0CF076EF0CF0D9EF0BF054
:1018EC007CEF0CF0000E886F000E876F81B681EFD5
:1018FC000CF083EF0CF03BEF0DF0630E1F18201073
:10190C00D8B48BEF0CF08DEF0CF03BEF0DF081B6F3
:10191C0092EF0CF094EF0CF03FEF0DF08CBFA0EFBA
:10192C000CF0E80E8B5D030E8C59D8A0A0EF0CF0D8
:10193C00A2EF0CF0CAEF0CF0205007E15A0E1F5C1E
:10194C00D8B0ABEF0CF0ADEF0CF0CAEF0CF00A0E08
:10195C001F241F6E000E2020206E1FC042F020C0DE
:10196C0043F02CC044F057EC21F00B0E0001AA6F91
:10197C00260EA96F5D0EE82EFED7A92FFCD7AA2F35
:10198C00FAD700D0F7EF0CF08CBFD8EF0CF0E80EC4
:10199C008B5D030E8C59D8B0D6EF0CF0D8EF0CF051
:1019AC00F7EF0CF0010E1F241F6E000E2020206E8E
:1019BC001FC042F020C043F02CC044F057EC21F083
:1019CC00020E0001AA6F860EA96F990EE82EFED7A3
:1019DC00A92FFCD7AA2FFAD7000E00018C6F000E8E
:1019EC008B6F81B6FCEF0CF0FEEF0CF021EF0DF0DD
:1019FC0080BA03EF0DF005EF0DF021EF0DF0000EA6
:101A0C00206E000E1F6E1FC042F020C043F02CC091
:101A1C0044F057EC21F021EF0DF01A0E0001A96FE4
:101A2C00F80EE82EFED7A92FFCD700F00A0E000105
:101A3C008B27000E8C2381B626EF0DF028EF0DF0CE
:101A4C0039EF0DF000018CBF35EF0DF0E80E8B5D1A
:101A5C00030E8C59D8A035EF0DF037EF0DF013EFC6
:101A6C000DF03FEF0DF03FEF0DF0000E8C6F000E00
:101A7C008B6F80BA44EF0DF046EF0DF0FEEF0DF0DA
:101A8C001F502010D8B44DEF0DF04FEF0DF0FEEFBE
:101A9C000DF080BA54EF0DF056EF0DF003EF0EF091
:101AAC0000018ABF63EF0DF0E80E895D030E8A59C1
:101ABC00D8A063EF0DF065EF0DF08DEF0DF0205019
:101ACC0009E10A0E1F5CD8A06EEF0DF070EF0DF05F
:101ADC008DEF0DF0F60E1F241F6EFF0E2020206ED2
:101AEC001FC042F020C043F02CC044F057EC21F052
:101AFC000B0E0001AA6F260EA96F5D0EE82EFED705
:101B0C00A92FFCD7AA2FFAD700D0BAEF0DF08ABFB5
:101B1C009BEF0DF0E80E895D030E8A59D8B099EF52
:101B2C000DF09BEF0DF0BAEF0DF0FF0E1F241F6EA2
:101B3C00FF0E2020206E1FC042F020C043F02CC0AE
:101B4C0044F057EC21F0020E0001AA6F860EA96F2B
:101B5C00990EE82EFED7A92FFCD7AA2FFAD7000E84
:101B6C0000018A6F000E896F80BABFEF0DF0C1EFD4
:101B7C000DF0E4EF0DF081B6C6EF0DF0C8EF0DF0EF
:101B8C00E4EF0DF0000E206E000E1F6E1FC042F031
:101B9C0020C043F02CC044F057EC21F0E4EF0DF0E2
:101BAC001A0E0001A96FF80EE82EFED7A92FFCD74C
:101BBC0000F00A0E00018927000E8A2380BAE9EF93
:101BCC000DF0EBEF0DF0FCEF0DF000018ABFF8EF1C
:101BDC000DF0E80E895D030E8A59D8A0F8EF0DF0D0
:101BEC00FAEF0DF0D6EF0DF003EF0EF003EF0EF061
:101BFC00000E00018A6F000E896F1FC01BF020C001
:101C0C001CF01FC042F020C043F02CC044F057EC35
:101C1C0021F011041210D8A416EF0EF018EF0EF0EC
:101C2C0028EF0EF0010E2D6E1E0E4E6E000E4F6E36
:101C3C00000E506E000E516E83EC19F0000E2E6EDD
:101C4C00000E2D6E3004D8A42EEF0EF030EF0EF0F7
:101C5C0064EF14F026EF14F0F10E7219D8A439EFDA
:101C6C000EF03BEF0EF057EF0EF02D50D8A441EFD5
:101C7C000EF043EF0EF057EF0EF0000E2E6E010E2D
:101C8C002D6E1BC01FF01CC020F01E0E4E6E000EE1
:101C9C004F6E000E506E000E516E93EC1BF0CCEF9D
:101CAC000FF0F20E7219D8A45EEF0EF060EF0EF08A
:101CBC00B7EF0FF02D50D8A466EF0EF068EF0EF0D2
:101CCC00B7EF0FF0000E126E010E116E010E2D6E9D
:101CDC0073C01FF0206A1FC042F020C043F02CC01C
:101CEC0044F057EC21F01E0E4E6E000E4F6E000E9F
:101CFC00506E000E516E2C04D8A487EF0EF089EFB5
:101D0C000EF0A0EF0EF08B8254C03AF055C03BF0B1
:101D1C0009EC24F08B92040E0001AA6F0C0EA96F33
:101D2C00330EE82EFED7A92FFCD7AA2FFAD700D056
:101D3C00A3EF0EF08B9291EF0EF08984C0EC24F09F
:101D4C00020E0001AA6F860EA96F990EE82EFED71F
:101D5C00A92FFCD7AA2FFAD71E0E4E6E000E4F6E6F
:101D6C00000E506E000E516ECFEC22F03AC017F000
:101D7C003BC018F04E504F1050105110D8A4C9EF62
:101D8C000EF0CBEF0EF0F8EF0EF0C5EC24F0A50E34
:101D9C00016EE10E026E000E036E02500324046EFF
:101DAC005A0E056EF29E000E1A6E000E196E1A5027
:101DBC0009E1050E195CD8A0E6EF0EF0E8EF0EF085
:101DCC00EAEF0EF0F7EF0EF0010E1924D96E000EAB
:101DDC001A20DA6EDF507DEC24F0194A1A2ADDEF56
:101DEC000EF0F28E17501810D8A4FFEF0EF001EF82
:101DFC000FF0BAEF0EF04E0E0001A96FEB0EE82EAD
:101E0C00FED7A92FFCD71E0E4E6E000E4F6E000E85
:101E1C00506E000E516ECFEC22F03AC017F03BC062
:101E2C0018F04E504F1050105110D8A420EF0FF056
:101E3C0022EF0FF04FEF0FF0C5EC24F0A50E016E62
:101E4C00E20E026E000E036E02500324046E5A0E54
:101E5C00056EF29E000E1A6E000E196E1A5009E1F4
:101E6C00050E195CD8A03DEF0FF03FEF0FF041EFDE
:101E7C000FF04EEF0FF0010E1924D96E000E1A2040
:101E8C00DA6EDF507DEC24F0194A1A2A34EF0FF089
:101E9C00F28E17041810D8A456EF0FF058EF0FF06D
:101EAC0011EF0FF01E0E4E6E000E4F6E000E506EA8
:101EBC00000E516E21C03AF022C03BF009EC24F028
:101ECC00C5EC24F02C04D8A46EEF0FF070EF0FF0DB
:101EDC0087EF0FF08B8254C03AF055C03BF009EC01
:101EEC0024F08B92040E0001AA6F0C0EA96F330E16
:101EFC00E82EFED7A92FFCD7AA2FFAD700D08AEF4D
:101F0C000FF08B9278EF0FF0A50E016EF90E026EAA
:101F1C00000E036E02500324046E5A0E056EF29EE0
:101F2C00000E1A6E000E196E1A5009E1050E195C9E
:101F3C00D8A0A3EF0FF0A5EF0FF0A7EF0FF0B4EFC1
:101F4C000FF0010E1924D96E000E1A20DA6EDF5034
:101F5C007DEC24F0194A1A2A9AEF0FF0F28ECCEF8E
:101F6C000FF0F50E7219D8A4BEEF0FF0C0EF0FF002
:101F7C00CCEF0FF02D50D8A4C6EF0FF0C8EF0FF038
:101F8C00CCEF0FF0000E126E000E116E81EC23F0F0
:101F9C009EEC23F0000E2E6E000E2D6E5CEF14F0F6
:101FAC007251D8B4DCEF0FF0DEEF0FF039EF11F017
:101FBC002D50D8A4E4EF0FF0E6EF0FF039EF11F04D
:101FCC00000E126E010E116E010E2D6E72C01FF0FE
:101FDC00206A1FC042F020C043F02CC044F057ECE4
:101FEC0021F01FC01BF020C01CF01E0E4E6E000E08
:101FFC004F6E000E506E000E516E2C04D8A409EFDB
:10200C0010F00BEF10F022EF10F08B8254C03AF06E
:10201C0055C03BF009EC24F08B92040E0001AA6F22
:10202C000C0EA96F330EE82EFED7A92FFCD7AA2FC2
:10203C00FAD700D025EF10F08B9213EF10F08984B3
:10204C00C0EC24F0020E0001AA6F860EA96F990E47
:10205C00E82EFED7A92FFCD7AA2FFAD71E0E4E6E4C
:10206C00000E4F6E000E506E000E516ECFEC22F033
:10207C003AC017F03BC018F04E504F105010511092
:10208C00D8A44BEF10F04DEF10F07AEF10F0C5EC38
:10209C0024F0A50E016EE10E026E000E036E0250CE
:1020AC000324046E5A0E056EF29E000E1A6E000E7C
:1020BC00196E1A5009E1050E195CD8A068EF10F0E2
:1020CC006AEF10F06CEF10F079EF10F0010E19249C
:1020DC00D96E000E1A20DA6EDF507DEC24F0194A0E
:1020EC001A2A5FEF10F0F28E17501810D8A481EF57
:1020FC0010F083EF10F03CEF10F04E0E0001A96FC2
:10210C00EB0EE82EFED7A92FFCD71E0E4E6E000E3E
:10211C004F6E000E506E000E516ECFEC22F03AC096
:10212C0017F03BC018F04E504F1050105110D8A45F
:10213C00A2EF10F0A4EF10F0D1EF10F0C5EC24F0EA
:10214C00A50E016EE20E026E000E036E0250032409
:10215C00046E5A0E056EF29E000E1A6E000E196E6B
:10216C001A5009E1050E195CD8A0BFEF10F0C1EFB1
:10217C0010F0C3EF10F0D0EF10F0010E1924D96E4F
:10218C00000E1A20DA6EDF507DEC24F0194A1A2A60
:10219C00B6EF10F0F28E17041810D8A4D8EF10F088
:1021AC00DAEF10F093EF10F01E0E4E6E000E4F6E25
:1021BC00000E506E000E516E21C03AF022C03BF062
:1021CC0009EC24F0C5EC24F02C04D8A4F0EF10F0AA
:1021DC00F2EF10F009EF11F08B8254C03AF055C0B9
:1021EC003BF009EC24F08B92040E0001AA6F0C0E4C
:1021FC00A96F330EE82EFED7A92FFCD7AA2FFAD73A
:10220C0000D00CEF11F08B92FAEF10F0A50E016ECE
:10221C00F90E026E000E036E02500324046E5A0E69
:10222C00056EF29E000E1A6E000E196E1A5009E120
:10223C00050E195CD8A025EF11F027EF11F029EF4E
:10224C0011F036EF11F0010E1924D96E000E1A2080
:10225C00DA6EDF507DEC24F0194A1A2A1CEF11F0CB
:10226C00F28E4EEF11F0F50E7219D8A440EF11F06A
:10227C0042EF11F04EEF11F02D50D8A448EF11F0B1
:10228C004AEF11F04EEF11F0000E126E000E116EAF
:10229C0081EC23F09EEC23F0000E126E000E116EFA
:1022AC00000E2E6E000E2D6E5CEF14F02D50D8A487
:1022BC0062EF11F064EF11F05CEF14F0010E2D6E73
:1022CC0072C02AF090EF11F0000E966F000E956F11
:1022DC00300E2A6EB5EF11F0030E966FE80E956F67
:1022EC00B5EF11F0070E966FD00E956FB5EF11F09C
:1022FC000B0E966FB80E956FB5EF11F00F0E966F23
:10230C00A00E956FB5EF11F0130E966F880E956FAA
:10231C00B5EF11F02A50A96FAA6BAA51000AD8B4D4
:10232C009AEF11F06AEF11F0A951300AD8B46AEFA4
:10233C0011F0010AD8B472EF11F0030AD8B478EF97
:10234C0011F0010AD8B47EEF11F0070AD8B484EF6B
:10235C0011F0010AD8B48AEF11F06AEF11F0F29E75
:10236C00600E486E000E496E000E4A6E000E4B6EEB
:10237C002AC04CF04D6A1DEC23F0F28E81EC23F058
:10238C00000E2D6E5CEF14F02D50D8A4D0EF11F090
:10239C00D2EF11F05CEF14F07251D8A4D8EF11F019
:1023AC00DAEF11F037EF12F0010E2D6E600E486E61
:1023BC00000E496E000E4A6E000E4B6E6AEC22F057
:1023CC0048502A6E400E486E000E496E000E4A6E42
:1023DC00000E4B6E6AEC22F04850296E700E486E5F
:1023EC00000E496E000E4A6E000E4B6E6AEC22F027
:1023FC0048C013F049C014F0A50E016E2AC002F0BB
:10240C0013C003F029C004F05A0E056E020E000131
:10241C00AA6F040EA96FBA0EE82EFED7A92FFCD70F
:10242C00AA2FFAD700F0000E1A6E000E196E1A5071
:10243C0009E1050E195CD8A026EF12F028EF12F076
:10244C002AEF12F037EF12F0010E1924D96E000E9C
:10245C001A20DA6EDF507DEC24F0194A1A2A1DEF8F
:10246C0012F09EEC23F0C6EF11F02D50D8A441EFE2
:10247C0012F043EF12F05CEF14F07251D8A449EF54
:10248C0012F04BEF12F037EF12F0010E2D6E900E92
:10249C00486E000E496E000E4A6E000E4B6E6AECD2
:1024AC0022F048C015F049C016F0800E486E000EA0
:1024BC00496E000E4A6E000E4B6E6AEC22F048C05C
:1024CC0052F049C053F01BC01FF01CC020F0A50EE9
:1024DC00016E15C002F052C003F01FC004F05A0E7A
:1024EC00056E020E0001AA6F040EA96FBA0EE82E3B
:1024FC00FED7A92FFCD7AA2FFAD700F0000E1A6E20
:10250C00000E196E1A5009E1050E195CD8A091EF56
:10251C0012F093EF12F095EF12F037EF12F0010E6C
:10252C001924D96E000E1A20DA6EDF507DEC24F0DF
:10253C00194A1A2A88EF12F02D50D8A4A8EF12F0DD
:10254C00AAEF12F002EF13F0010E2D6E72C029F0FB
:10255C00D0EF12F0030E556EE80E546EF1EF12F040
:10256C00070E556ED00E546E820E296EF1EF12F0DE
:10257C000B0E556EB80E546EF1EF12F00F0E556E29
:10258C00A00E546EF1EF12F0130E556E880E546EB1
:10259C00F1EF12F02950A96FAA6BAA51000AD8B416
:1025AC00DAEF12F0B6EF12F0A951810AD8B4B0EFFD
:1025BC0012F0030AD8B4B6EF12F0010AD8B4BEEF89
:1025CC0012F0070AD8B4C4EF12F0010AD8B4CAEF5B
:1025DC0012F0B6EF12F0F29E400E486E000E496EED
:1025EC00000E4A6E000E4B6E29C04CF04D6A1DEC6D
:1025FC0023F0F28E000E2D6E2D50D8A408EF13F0A0
:10260C000AEF13F05CEF14F0010E2D6E72C028F07F
:10261C0028C021F0226AF29E500E486E000E496EC0
:10262C00000E4A6E000E4B6E28C04CF04D6A1DEC2D
:10263C0023F0F28EC6EF11F02D50D8A428EF13F032
:10264C002AEF13F05CEF14F0010E2D6E710E72195F
:10265C00D8A433EF13F035EF13F041EF13F0000E65
:10266C00A46F040EA36FB2EC1CF0A3C09FF0A4C027
:10267C00A0F095EF13F0720E7219D8A448EF13F076
:10268C004AEF13F056EF13F0000EA46F000EA36F79
:10269C00B2EC1CF0A3C09FF0A4C0A0F095EF13F017
:1026AC00730E7219D8A45DEF13F05FEF13F06BEF9C
:1026BC0013F0000EA46F010EA36FB2EC1CF0A3C0BC
:1026CC009FF0A4C0A0F095EF13F0740E7219D8A46B
:1026DC0072EF13F074EF13F080EF13F0000EA46F91
:1026EC00020EA36FB2EC1CF0A3C09FF0A4C0A0F02C
:1026FC0095EF13F0750E7219D8A487EF13F089EFCC
:10270C0013F095EF13F0000EA46F030EA36FB2EC51
:10271C001CF0A3C09FF0A4C0A0F095EF13F0700EB6
:10272C00486E000E496E000E4A6E000E4B6E6AEC3F
:10273C0022F048C013F049C014F062EC23F013C02F
:10274C0040F014C041F02CC042F04AEC1DF0040ED5
:10275C000001AA6F0C0EA96F330EE82EFED7A92F1D
:10276C00FCD7AA2FFAD700D0C6EF11F02D50D8A461
:10277C00C2EF13F0C4EF13F05CEF14F0010E2D6EEA
:10278C00650E7219D8A4CDEF13F0CFEF13F0D5EF7F
:10279C0013F0000E206E310E1F6EE7EF13F0660E75
:1027AC007219D8A4DCEF13F0DEEF13F0E4EF13F0A2
:1027BC00000E206E5A0E1F6EE7EF13F072C01FF062
:1027CC00206A1FC01BF020C01CF01FC042F020C0AC
:1027DC0043F02CC044F057EC21F0C6EF11F02D5013
:1027EC00D8A4FBEF13F0FDEF13F05CEF14F0010E27
:1027FC002D6E72C015F0166A15501610D8B409EF6C
:10280C0014F00BEF14F015EF14F015041610D8B4E7
:10281C0012EF14F014EF14F015EF14F0F29E900E6A
:10282C00486E000E496E000E4A6E000E4B6E15C0BF
:10283C004CF016C04DF01DEC23F0F28EC6EF11F0EB
:10284C0000017151A96FAA6BAA51000AD8B431EFDB
:10285C0014F05CEF14F0A951230AD8B45CEF11F01A
:10286C00670AD8B432EF0EF0020AD8B4D6EF0FF0E4
:10287C00170AD8B4CAEF11F0030AD8B43BEF12F020
:10288C00060AD8B422EF13F0010AD8B4F5EF13F00E
:10289C00300AD8B4A2EF12F0030AD8B402EF13F046
:1028AC00120AD8B4BCEF13F05CEF14F0000E306ECB
:1028BC00000E2F6E000E2B6E66EF14F0000E2B6EBA
:1028CC003004D8A46CEF14F06EEF14F063EF19F031
:1028DC0025EF19F0F10E7219D8A477EF14F079EFF7
:1028EC0014F095EF14F02D50D8A47FEF14F081EF75
:1028FC0014F095EF14F0000E2E6E010E2D6E1BC011
:10290C001FF01CC020F01E0E4E6E000E4F6E000EFF
:10291C00506E000E516E93EC1BF0CDEF14F0F20ED6
:10292C007219D8A49CEF14F09EEF14F0B8EF14F0C9
:10293C002D50D8A4A4EF14F0A6EF14F0B8EF14F0B7
:10294C00000E126E010E116E010E2D6E1E0E4E6ECD
:10295C00000E4F6E000E506E000E516E83EC19F08F
:10296C00CDEF14F0F50E7219D8A4BFEF14F0C1EF2F
:10297C0014F0CDEF14F02D50D8A4C7EF14F0C9EF1C
:10298C0014F0CDEF14F0000E126E000E116E81ECEF
:10299C0023F09EEC23F0000E2E6E000E2D6E5BEFDE
:1029AC0019F07251D8B4DDEF14F0DFEF14F036EFFC
:1029BC0016F02D50D8A4E5EF14F0E7EF14F036EF35
:1029CC0016F0000E126E010E116E010E2D6E72C0FD
:1029DC001FF0206A1FC042F020C043F02CC044F00E
:1029EC0057EC21F01E0E4E6E000E4F6E000E506E08
:1029FC00000E516E2C04D8A406EF15F008EF15F05C
:102A0C001FEF15F08B8254C03AF055C03BF009EC27
:102A1C0024F08B92040E0001AA6F0C0EA96F330EDA
:102A2C00E82EFED7A92FFCD7AA2FFAD700D022EF79
:102A3C0015F08B9210EF15F08984C0EC24F0020E87
:102A4C000001AA6F860EA96F990EE82EFED7A92F4A
:102A5C00FCD7AA2FFAD71E0E4E6E000E4F6E000E2C
:102A6C00506E000E516ECFEC22F03AC017F03BC006
:102A7C0018F04E504F1050105110D8A448EF15F0CC
:102A8C004AEF15F077EF15F0C5EC24F0A50E016EAA
:102A9C00E10E026E000E036E02500324046E5A0EF9
:102AAC00056EF29E000E1A6E000E196E1A5009E198
:102ABC00050E195CD8A065EF15F067EF15F069EFFE
:102ACC0015F076EF15F0010E1924D96E000E1A20B0
:102ADC00DA6EDF5072EC24F0194A1A2A5CEF15F00A
:102AEC00F28E17501810D8A47EEF15F080EF15F069
:102AFC0039EF15F04E0E0001A96FEB0EE82EFED744
:102B0C00A92FFCD71E0E4E6E000E4F6E000E506E8F
:102B1C00000E516ECFEC22F03AC017F03BC018F00B
:102B2C004E504F1050105110D8A49FEF15F0A1EF3C
:102B3C0015F0CEEF15F0C5EC24F0A50E016EE20EEB
:102B4C00026E000E036E02500324046E5A0E056EC4
:102B5C00F29E000E1A6E000E196E1A5009E1050E47
:102B6C00195CD8A0BCEF15F0BEEF15F0C0EF15F056
:102B7C00CDEF15F0010E1924D96E000E1A20DA6E65
:102B8C00DF5072EC24F0194A1A2AB3EF15F0F28ECA
:102B9C0017041810D8A4D5EF15F0D7EF15F090EF57
:102BAC0015F01E0E4E6E000E4F6E000E506E000E87
:102BBC00516E21C03AF022C03BF009EC24F0C5EC78
:102BCC0024F02C04D8A4EDEF15F0EFEF15F006EF80
:102BDC0016F08B8254C03AF055C03BF009EC24F04F
:102BEC008B92040E0001AA6F0C0EA96F330EE82E07
:102BFC00FED7A92FFCD7AA2FFAD700D009EF16F0D1
:102C0C008B92F7EF15F0A50E016EF90E026E000E09
:102C1C00036E02500324046E5A0E056EF29E000ED3
:102C2C001A6E000E196E1A5009E1050E195CD8A027
:102C3C0022EF16F024EF16F026EF16F033EF16F015
:102C4C00010E1924D96E000E1A20DA6EDF5072ECC8
:102C5C0024F0194A1A2A19EF16F0F28E4BEF16F0DF
:102C6C00F50E7219D8A43DEF16F03FEF16F04BEFAE
:102C7C0016F02D50D8A445EF16F047EF16F04BEF99
:102C8C0016F0000E126E000E116E81EC23F09EEC0D
:102C9C0023F0000E126E000E116E000E2E6E000E42
:102CAC002D6E5BEF19F02D50D8A45FEF16F061EF8D
:102CBC0016F05BEF19F0010E2D6E72C02AF08DEF3D
:102CCC0016F0000E966F000E956F300E2A6EB2EF56
:102CDC0016F0030E966FE80E956FB2EF16F0070E16
:102CEC00966FD00E956FB2EF16F00B0E966FB80E66
:102CFC00956FB2EF16F00F0E966FA00E956FB2EFA8
:102D0C0016F0130E966F880E956FB2EF16F02A50D0
:102D1C00A96FAA6BAA51000AD8B497EF16F067EF07
:102D2C0016F0A951300AD8B467EF16F0010AD8B4DE
:102D3C006FEF16F0030AD8B475EF16F0010AD8B489
:102D4C007BEF16F0070AD8B481EF16F0010AD8B45D
:102D5C0087EF16F067EF16F0F29E600E486E000ECD
:102D6C00496E000E4A6E000E4B6E2AC04CF04D6A36
:102D7C001DEC23F0F28E81EC23F0000E2D6E5BEF38
:102D8C0019F02D50D8A4CDEF16F0CFEF16F05BEF65
:102D9C0019F07251D8A4D5EF16F0D7EF16F034EF26
:102DAC0017F0010E2D6E600E486E000E496E000E6F
:102DBC004A6E000E4B6E6AEC22F048502A6E400EA2
:102DCC00486E000E496E000E4A6E000E4B6E6AEC99
:102DDC0022F04850296E700E486E000E496E000E9F
:102DEC004A6E000E4B6E6AEC22F048C013F049C0DC
:102DFC0014F0A50E016E2AC002F013C003F029C016
:102E0C0004F05A0E056E020E0001AA6F040EA96F93
:102E1C00BA0EE82EFED7A92FFCD7AA2FFAD700F0AE
:102E2C00000E1A6E000E196E1A5009E1050E195C8F
:102E3C00D8A023EF17F025EF17F027EF17F034EF9A
:102E4C0017F0010E1924D96E000E1A20DA6EDF501D
:102E5C0072EC24F0194A1A2A1AEF17F09EEC23F0A0
:102E6C00C3EF16F02D50D8A43EEF17F040EF17F03B
:102E7C005BEF19F07251D8A446EF17F048EF17F03A
:102E8C0034EF17F0010E2D6E900E486E000E496E49
:102E9C00000E4A6E000E4B6E6AEC22F048C015F024
:102EAC0049C016F0800E486E000E496E000E4A6E38
:102EBC00000E4B6E6AEC22F048C052F049C053F041
:102ECC001BC01FF01CC020F0A50E016E15C002F037
:102EDC0052C003F01FC004F05A0E056E020E000122
:102EEC00AA6F040EA96FBA0EE82EFED7A92FFCD735
:102EFC00AA2FFAD700F0000E1A6E000E196E1A5097
:102F0C0009E1050E195CD8A08EEF17F090EF17F0C1
:102F1C0092EF17F034EF17F0010E1924D96E000E52
:102F2C001A20DA6EDF5072EC24F0194A1A2A85EF57
:102F3C0017F02D50D8A4A5EF17F0A7EF17F0FFEF5F
:102F4C0017F0010E2D6E72C029F0CDEF17F0030EA5
:102F5C00556EE80E546EEEEF17F0070E556ED00E50
:102F6C00546E820E296EEEEF17F00B0E556EB80EE6
:102F7C00546EEEEF17F00F0E556EA00E546EEEEF72
:102F8C0017F0130E556E880E546EEEEF17F0295095
:102F9C00A96FAA6BAA51000AD8B4D7EF17F0B3EFF8
:102FAC0017F0A951810AD8B4ADEF17F0030AD8B4C1
:102FBC00B3EF17F0010AD8B4BBEF17F0070AD8B477
:102FCC00C1EF17F0010AD8B4C7EF17F0B3EF17F041
:102FDC00F29E400E486E000E496E000E4A6E000EB8
:102FEC004B6E29C04CF04D6A1DEC23F0F28E000E96
:102FFC002D6E2D50D8A405EF18F007EF18F05BEFED
:10300C0019F0010E2D6E72C028F028C021F0226A32
:10301C00F29E500E486E000E496E000E4A6E000E67
:10302C004B6E28C04CF04D6A1DEC23F0F28EC3EFB2
:10303C0016F02D50D8A425EF18F027EF18F05BEF01
:10304C0019F0010E2D6E710E7219D8A430EF18F014
:10305C0032EF18F03EEF18F0000EA46F040EA36FC1
:10306C00B2EC1CF0A3C09FF0A4C0A0F092EF18F03B
:10307C00720E7219D8A445EF18F047EF18F053EF01
:10308C0018F0000EA46F000EA36FB2EC1CF0A3C0DE
:10309C009FF0A4C0A0F092EF18F0730E7219D8A490
:1030AC005AEF18F05CEF18F068EF18F0000EA46FF0
:1030BC00010EA36FB2EC1CF0A3C09FF0A4C0A0F053
:1030CC0092EF18F0740E7219D8A46FEF18F071EF1C
:1030DC0018F07DEF18F0000EA46F020EA36FB2EC87
:1030EC001CF0A3C09FF0A4C0A0F092EF18F0750ED6
:1030FC007219D8A484EF18F086EF18F092EF18F03C
:10310C00000EA46F030EA36FB2EC1CF0A3C09FF0D3
:10311C00A4C0A0F092EF18F0700E486E000E496E2D
:10312C00000E4A6E000E4B6E6AEC22F048C013F093
:10313C0049C014F062EC23F013C040F014C041F00D
:10314C002CC042F04AEC1DF0040E0001AA6F0C0ECC
:10315C00A96F330EE82EFED7A92FFCD7AA2FFAD7CA
:10316C0000D0C3EF16F02D50D8A4BFEF18F0C1EF6C
:10317C0018F05BEF19F0010E2D6E650E7219D8A4C4
:10318C00CAEF18F0CCEF18F0D2EF18F0000E206E4A
:10319C00310E1F6EE4EF18F0660E7219D8A4D9EF39
:1031AC0018F0DBEF18F0E1EF18F0000E206E5A0E5D
:1031BC001F6EE4EF18F072C01FF0206A1FC01BF0E6
:1031CC0020C01CF01FC042F020C043F02CC044F0C3
:1031DC0057EC21F0C3EF16F02D50D8A4F8EF18F0EF
:1031EC00FAEF18F05BEF19F0010E2D6E72C015F0AE
:1031FC00166A15501610D8B406EF19F008EF19F02E
:10320C0013EF19F015041610D8B40FEF19F011EFD5
:10321C0019F013EF19F0C3EF16F0F29E900E486EF2
:10322C00000E496E000E4A6E000E4B6E15C04CF02F
:10323C0016C04DF01DEC23F0F28EC3EF16F000011A
:10324C007151A96FAA6BAA51000AD8B430EF19F0CA
:10325C005BEF19F0A951230AD8B459EF16F0670A9D
:10326C00D8B470EF14F0020AD8B4D7EF14F0170AE0
:10327C00D8B4C7EF16F0030AD8B438EF17F0060A23
:10328C00D8B41FEF18F0010AD8B4F2EF18F0300AD6
:10329C00D8B49FEF17F0030AD8B4FFEF17F0120A57
:1032AC00D8B4B9EF18F05BEF19F0000E306E000EC9
:1032BC002F6E000E2B6EBBEF0BF0000E2B6EBBEFC8
:1032CC000BF02B500001A96FAA6BAA51000AD8B4BD
:1032DC0072EF19F0BBEF0BF0A951000AD8B4CEEF86
:1032EC000BF0020AD8B428EF0EF0010AD8B466EF3E
:1032FC0014F0BBEF0BF045EF02F02C04D8A489EFCF
:10330C0019F08BEF19F0A0EF19F08B8254C03AF042
:10331C0055C03BF01FEC24F08B92040E4C6E0C0E3F
:10332C004B6E340EE82EFED74B2EFCD74C2EFAD714
:10333C00A3EF19F08B9293EF19F089841F50201092
:10334C00D8A4ABEF19F0ADEF19F0B3EF19F0000EF4
:10335C001E6E010E1D6E3CEF1BF0000E1E6E000E5D
:10336C001D6E3CEF1BF00400A2EC20F042EC23F0AD
:10337C0095C03AF096C03BF01FEC24F0C0EC24F062
:10338C00020E4C6E6C0E4B6EA00EE82EFED74B2E22
:10339C00FCD74C2EFAD71E0E4E6E000E4F6E000E42
:1033AC00506E000E516ECFEC22F03AC017F03BC0BD
:1033BC0018F04E504F1050105110D8A4E8EF19F0DF
:1033CC00EAEF19F0EFEF19F0310E66EC1FF0C5ECD7
:1033DC0024F017501810D8A4F6EF19F0F8EF19F0E4
:1033EC00D9EF19F04E0E4B6EEB0EE82EFED74B2E8E
:1033FC00FCD700F01E0E4E6E000E4F6E000E506E7F
:10340C00000E516ECFEC22F03AC017F03BC018F012
:10341C004E504F1050105110D8A417EF1AF019EF4E
:10342C001AF01EEF1AF0320E66EC1FF0C5EC24F009
:10343C0017041810D8A425EF1AF027EF1AF008EF8C
:10344C001AF01E0E4E6E000E4F6E000E506E000ED9
:10345C00516E21C03AF022C03BF01FEC24F0C5ECB9
:10346C0024F01F502010D8B43EEF1AF040EF1AF0A1
:10347C004CEF1AF01D041E10D8B447EF1AF049EFA8
:10348C001AF04CEF1AF01F06D8A020061FC042F00D
:10349C0020C043F02CC044F057EC21F02C04D8A4ED
:1034AC005AEF1AF05CEF1AF083EF1AF01F5020104D
:1034BC00D8A463EF1AF065EF1AF06EEF1AF01D0442
:1034CC001E10D8A46CEF1AF06EEF1AF083EF1AF0FE
:1034DC008B8254C03AF055C03BF01FEC24F08B9219
:1034EC00040E4C6E0C0E4B6E340EE82EFED74B2E8B
:1034FC00FCD74C2EFAD7C3EF1AF02C50D8A489EF76
:10350C001AF08BEF1AF0C3EF1AF01F502010D8A44A
:10351C0092EF1AF094EF1AF09DEF1AF01D041E10A2
:10352C00D8A49BEF1AF09DEF1AF0C3EF1AF08B9210
:10353C001F502010D8A4A5EF1AF0A7EF1AF0B0EF87
:10354C001AF01D041E10D8A4AEEF1AF0B0EF1AF04A
:10355C00B8EF1AF054C03AF055C03BF01FEC24F011
:10356C00C3EF1AF0060E4C6E130E4B6EAE0EE82E19
:10357C00FED74B2EFCD74C2EFAD72E04D8A4C9EF6D
:10358C001AF0CBEF1AF0F8EF1AF04EEF1BF0000E1A
:10359C001E6E020E1D6E1FC042F020C043F02C5058
:1035AC00D8B4DBEF1AF0DEEF1AF0010EDFEF1AF0F1
:1035BC00000E446E57EC21F0820E4B6EDE0EE82EA0
:1035CC00FED74B2EFCD71FC042F020C043F02CC0BE
:1035DC0044F057EC21F0820E4B6EDE0EE82EFED737
:1035EC004B2EFCD711501210D8A4FFEF1AF001EF9C
:1035FC001BF013EF1BF01D041E10D8B408EF1BF0CA
:10360C000AEF1BF0CDEF1AF01D501E10D8B411EFBD
:10361C001BF013EF1BF0CDEF1AF01FC042F020C0CF
:10362C0043F02CC044F057EC21F011501210D8A4E8
:10363C0022EF1BF024EF1BF035EF1BF01F50201076
:10364C00D8B42BEF1BF02DEF1BF035EF1BF01FC088
:10365C001BF020C01CF0000E206E000E1F6E820EA0
:10366C004B6EDE0EE82EFED74B2EFCD71F502010D3
:10367C00D8A443EF1BF045EF1BF0B9EF19F01D0474
:10368C001E10D8B44CEF1BF04EEF1BF0B9EF19F035
:10369C0089941F502010D8B456EF1BF058EF1BF034
:1036AC0060EF1BF02E04D8A45EEF1BF060EF1BF054
:1036BC0084EF1BF01D501E10D8A467EF1BF069EFB0
:1036CC001BF084EF1BF02C04D8A46FEF1BF071EFF0
:1036DC001BF084EF1BF08B8254C03AF055C03BF0CA
:1036EC001FEC24F08B92040E4C6E0C0E4B6E340EB1
:1036FC00E82EFED74B2EFCD74C2EFAD7000E1E6EA2
:10370C00000E1D6E000E206E000E1F6E000E126E4F
:10371C00000E116E000E2B6E1200000E186E000EB5
:10372C00176E410EE6EC1EF02C04D8A4A0EF1BF093
:10373C00A2EF1BF0B7EF1BF08B8254C03AF055C0D0
:10374C003BF01FEC24F08B92040E446E0C0E436E77
:10375C00340EE82EFED7432EFCD7442EFAD7BAEF00
:10376C001BF08B92AAEF1BF0898469EF1CF004000C
:10377C00A2EC20F042EC23F095C03AF096C03BF05E
:10378C001FEC24F0C0EC24F0020E446E6C0E436E61
:10379C00A00EE82EFED7432EFCD7442EFAD71E0ED1
:1037AC004E6E000E4F6E000E506E000E516ECFEC32
:1037BC0022F03AC017F03BC018F04E504F1050108A
:1037CC005110D8A4ECEF1BF0EEEF1BF0F3EF1BF055
:1037DC00310E66EC1FF0C5EC24F017501810D8A46D
:1037EC00FAEF1BF0FCEF1BF0DDEF1BF04E0E436EFF
:1037FC00EB0EE82EFED7432EFCD700F01E0E4E6EBD
:10380C00000E4F6E000E506E000E516ECFEC22F07B
:10381C003AC017F03BC018F04E504F1050105110DA
:10382C00D8A41BEF1CF01DEF1CF022EF1CF0320E85
:10383C0066EC1FF0C5EC24F017041810D8A429EF7F
:10384C001CF02BEF1CF00CEF1CF01E0E4E6E000E3D
:10385C004F6E000E506E000E516E21C03AF022C019
:10386C003BF01FEC24F0C5EC24F02C04D8A441EF61
:10387C001CF043EF1CF058EF1CF08B8254C03AF054
:10388C0055C03BF01FEC24F08B92040E446E0C0ED2
:10389C00436E340EE82EFED7432EFCD7442EFAD7B7
:1038AC005FEF1CF08B9254C03AF055C03BF01FEC0C
:1038BC0024F02E04D8A465EF1CF067EF1CF069EF20
:1038CC001CF071EF1CF02E50D8B46FEF1CF071EFA0
:1038DC001CF0BDEF1BF089941F502010D8B479EF69
:1038EC001CF07BEF1CF083EF1CF02E04D8A481EFAE
:1038FC001CF083EF1CF09EEF1CF02C04D8A489EF75
:10390C001CF08BEF1CF09EEF1CF08B8254C03AF035
:10391C0055C03BF01FEC24F08B92040E446E0C0E41
:10392C00436E340EE82EFED7432EFCD7442EFAD726
:10393C00000E206E000E1F6E020E2B18D8A4A9EFDD
:10394C001CF0ABEF1CF0AFEF1CF0020E2B6EB1EFC6
:10395C001CF0030E2B6E120022EF1DF0000EA86F50
:10396C00070EA76FF29E700E486E000E496E000E89
:10397C004A6E000E4B6E000E4D6E010E4C6E1DEC21
:10398C0023F0F28E45EF1DF0000EA86F090EA76F05
:10399C00F29E700E486E000E496E000E4A6E000EBE
:1039AC004B6E000E4D6E020E4C6E1DEC23F0F28E23
:1039BC0045EF1DF0000EA86F0C0EA76FF29E700E57
:1039CC00486E000E496E000E4A6E000E4B6E000ED5
:1039DC004D6E030E4C6E1DEC23F0F28E45EF1DF078
:1039EC00000EA86F140EA76FF29E700E486E000E9C
:1039FC00496E000E4A6E000E4B6E000E4D6E040E9C
:103A0C004C6E1DEC23F0F28E45EF1DF0000EA86FEE
:103A1C00000EA76FF29E700E486E000E496E000EDF
:103A2C004A6E000E4B6E000E4D6E000E4C6E1DEC71
:103A3C0023F0F28E45EF1DF0A3C0A5F0A4C0A6F0B4
:103A4C000001A651000AD8B42EEF1DF045EF1DF071
:103A5C00A551000AD8B4B4EF1CF0010AD8B4CAEFCF
:103A6C001CF0030AD8B4E0EF1CF0010AD8B4F6EF4E
:103A7C001CF0070AD8B40CEF1DF045EF1DF0A7C0E1
:103A8C00A3F0A8C0A4F012008B98000EF1EC21F06A
:103A9C008B888B98000EF1EC21F04204D8A459EFDE
:103AAC001DF05BEF1DF06CEF1DF040044110D8A42D
:103ABC0062EF1DF064EF1DF06CEF1DF03E0EF1ECAB
:103ACC0021F0860EF1EC21F0D3EF1DF04204D8A4C6
:103ADC0072EF1DF074EF1DF086EF1DF0020E401812
:103AEC004110D8A47CEF1DF07EEF1DF086EF1DF089
:103AFC003E0EF1EC21F0DB0EF1EC21F0D3EF1DF0DA
:103B0C004204D8A48CEF1DF08EEF1DF0A0EF1DF039
:103B1C00030E40184110D8A496EF1DF098EF1DF03D
:103B2C00A0EF1DF03E0EF1EC21F0CF0EF1EC21F0E8
:103B3C00D3EF1DF04204D8A4A6EF1DF0A8EF1DF0A2
:103B4C00BAEF1DF0040E40184110D8A4B0EF1DF0D0
:103B5C00B2EF1DF0BAEF1DF03E0EF1EC21F0E60EC7
:103B6C00F1EC21F0D3EF1DF04250D8A4C0EF1DF0C2
:103B7C00C2EF1DF0D3EF1DF040504110D8A4C9EF97
:103B8C001DF0CBEF1DF0D3EF1DF03E0EF1EC21F04C
:103B9C00BF0EF1EC21F0D3EF1DF08B888B980D0E3E
:103BAC00F1EC21F08B881200000E436E41BEE3EF66
:103BBC001DF0E1EF1DF0EDEF1DF0411E401E3F1E0C
:103BCC003E6C000E3F2240224122010E436E3DBE50
:103BDC00F4EF1DF0F2EF1DF0FEEF1DF03D1E3C1E4C
:103BEC003B1E3A6C000E3B223C223D22010E431A36
:103BFC00000E446E000E456E000E466E000E476EB3
:103C0C003E503F1040104110D8B40FEF1EF011EF92
:103C1C001EF047EF1EF0010E426E1BEF1EF0D89007
:103C2C003E363F3640364136422A41AE20EF1EF03A
:103C3C0022EF1EF015EF1EF0D8904436453646366E
:103C4C0047363E503A5C3F503B5840503C584150F0
:103C5C003D58D8A034EF1EF036EF1EF03FEF1EF0AB
:103C6C003E503A5E3F503B5A40503C5A41503D5AB0
:103C7C004480D890413240323F323E32422E22EFC5
:103C8C001EF04350D8B44DEF1EF04FEF1EF057EF1F
:103C9C001EF0471E461E451E446C000E4522462251
:103CAC00472244C03AF045C03BF046C03CF047C008
:103CBC003DF012008984C0EC24F0040E446E8E0E8C
:103CCC00436E120EE82EFED7432EFCD7442EFAD7A5
:103CDC0000D01E0E4E6E000E4F6E000E506E000E7B
:103CEC00516ECFEC22F03AC017F03BC018F04E509A
:103CFC004F1050105110D8A486EF1EF088EF1EF014
:103D0C008DEF1EF0310E66EC1FF0C5EC24F0175051
:103D1C001810D8A494EF1EF096EF1EF077EF1EF05B
:103D2C004E0E436EEB0EE82EFED7432EFCD700F062
:103D3C001E0E4E6E000E4F6E000E506E000E516E2B
:103D4C00CFEC22F03AC017F03BC018F04E504F1099
:103D5C0050105110D8A4B5EF1EF0B7EF1EF0BCEF09
:103D6C001EF0320E66EC1FF0C5EC24F01704181090
:103D7C00D8A4C3EF1EF0C5EF1EF0A6EF1EF01E0E6A
:103D8C004E6E000E4F6E000E506E000E516E21C026
:103D9C003AF022C03BF01FEC24F0C5EC24F0060EE8
:103DAC00446E130E436EAE0EE82EFED7432EFCD798
:103DBC00442EFAD7000E186E000E176E899412005E
:103DCC00426E8B98000EF1EC21F08B888B98000ED4
:103DDC00F1EC21F032EF1FF0790EF1EC21F03F0EF7
:103DEC00F1EC21F05FEF1FF03F0EF1EC21F0730EC0
:103DFC00F1EC21F05FEF1FF0390EF1EC21F0770EB2
:103E0C00F1EC21F05FEF1FF0000EF1EC21F0000E51
:103E1C00F1EC21F05FEF1FF0000EF1EC21F03F0E02
:103E2C00F1EC21F05FEF1FF0790EF1EC21F0060EB2
:103E3C00F1EC21F05FEF1FF0770EF1EC21F03E0E6C
:103E4C00F1EC21F05FEF1FF0000EF1EC21F03E0ED3
:103E5C00F1EC21F05FEF1FF04250406E416A41508F
:103E6C00000AD8B43CEF1FF05FEF1FF04050410A3E
:103E7C00D8B422EF1FF0020AD8B402EF1FF0060AE2
:103E8C00D8B4F2EF1EF0020AD8B412EF1FF0080AF1
:103E9C00D8B4FAEF1EF01C0AD8B41AEF1FF0050ABA
:103EAC00D8B42AEF1FF00E0AD8B40AEF1FF05FEF58
:103EBC001FF08B888B980D0EF1EC21F08B88120083
:103ECC00426E8B98000EF1EC21F08B888B98000ED3
:103EDC00F1EC21F0AAEF1FF0790EF1EC21F0770E46
:103EEC00F1EC21F0D3EF1FF0790EF1EC21F03F0E45
:103EFC00F1EC21F0D3EF1FF0790EF1EC21F0060E6E
:103F0C00F1EC21F0D3EF1FF0790EF1EC21F05B0E08
:103F1C00F1EC21F0D3EF1FF0000EF1EC21F03F0E8D
:103F2C00F1EC21F0D3EF1FF0790EF1EC21F0060E3D
:103F3C00F1EC21F0D3EF1FF0770EF1EC21F03E0EF7
:103F4C00F1EC21F0D3EF1FF04250406E416A41502A
:103F5C00000AD8B4B4EF1FF0D3EF1FF04050300A72
:103F6C00D8B47AEF1FF0010AD8B482EF1FF0030A1D
:103F7C00D8B48AEF1FF0730AD8B4A2EF1FF0040A6A
:103F8C00D8B472EF1FF0020AD8B492EF1FF0140AE3
:103F9C00D8B49AEF1FF0D3EF1FF08B888B980D0ECF
:103FAC00F1EC21F08B88120008EF20F03F0E3E6EF2
:103FBC003EEF20F0060E3E6E3EEF20F05B0E3E6EA6
:103FCC003EEF20F04F0E3E6E3EEF20F0660E3E6E42
:103FDC003EEF20F06D0E3E6E3EEF20F07D0E3E6EFD
:103FEC003EEF20F0070E3E6E3EEF20F07F0E3E6E51
:103FFC003EEF20F06F0E3E6E3EEF20F0000E3E6E58
:10400C003EEF20F03AC03CF03BC03DF03D50000A82
:10401C00D8B413EF20F004EF20F03C50000AD8B4D1
:10402C00DCEF1FF0010AD8B4E0EF1FF0030AD8B49C
:10403C00E4EF1FF0010AD8B4E8EF1FF0070AD8B478
:10404C00ECEF1FF0010AD8B4F0EF1FF0030AD8B45C
:10405C00F4EF1FF0010AD8B4F8EF1FF00F0AD8B430
:10406C00FCEF1FF0010AD8B400EF20F004EF20F0B1
:10407C003E501200000E3F6E3DBE49EF20F047EF60
:10408C0020F04FEF20F03C6C3D1ED8B03D2A010EC5
:10409C003F6E3BBE56EF20F054EF20F05CEF20F06B
:1040AC003A6C3B1ED8B03B2A010E3F1A000E416EF3
:1040BC00000E406E3C503D10D8B467EF20F069EF15
:1040CC0020F091EF20F0010E3E6E71EF20F0D890B1
:1040DC003C363D363E2A3DAE76EF20F078EF20F0B0
:1040EC006DEF20F0D890403641363C503A5C3D5054
:1040FC003B58D8A084EF20F086EF20F08BEF20F017
:10410C003C503A5E3D503B5A4080D8903D323C3258
:10411C003E2E78EF20F03F50D8B497EF20F099EF77
:10412C0020F09DEF20F0406C411ED8B0412A40C0D9
:10413C003AF041C03BF01200A50E016E450E026E26
:10414C00000E036E450E046E5A0E056EF29E020EA4
:10415C002B18D8A4B4EF20F0B6EF20F0D5EF20F058
:10416C00000E3D6E000E3C6E010E3C24D96E000E0E
:10417C003D20DA6EDF507DEC24F03C4A3D2A3DBEFA
:10418C00D1EF20F03D5009E1050E3C5CD8A0D1EFF9
:10419C0020F0D3EF20F0BAEF20F0FBEF20F0030E6D
:1041AC002B18D8A4DCEF20F0DEEF20F0FBEF20F092
:1041BC00000E3D6E000E3C6E010E3C24D96E000EBE
:1041CC003D20DA6EDF5072EC24F03C4A3D2A3DBEB5
:1041DC00F9EF20F03D5009E1050E3C5CD8A0F9EF59
:1041EC0020F0FBEF20F0E2EF20F0F28E9EEC23F0BB
:1041FC001200000E3F6E3BBE08EF21F006EF21F0DF
:10420C000EEF21F03A6C3B1ED8B03B2A010E3F6EEC
:10421C003DBE15EF21F013EF21F019EF21F03C6CAE
:10422C003D1ED8B03D2A3C503D10D8B420EF21F0B3
:10423C0022EF21F046EF21F0010E3E6E2AEF21F025
:10424C00D8903C363D363E2A3DAE2FEF21F031EF73
:10425C0021F026EF21F03C503A5C3D503B58D8A061
:10426C003AEF21F03CEF21F040EF21F03C503A5E68
:10427C003D503B5AD8903D323C323E2E31EF21F02E
:10428C003F50D8B44CEF21F04EEF21F052EF21F01B
:10429C003A6C3B1ED8B03B2A3AC03AF03BC03BF0DC
:1042AC00120042C03AF043C03BF0000E3D6E0A0EC5
:1042BC003C6EFFEC20F03AC045F03BC046F042C0EB
:1042CC003AF043C03BF0000E3D6E0A0E3C6E40ECE3
:1042DC0020F03AC047F03BC048F08B98000EF1EC50
:1042EC0021F08B888B98000EF1EC21F047C03AF04E
:1042FC0048C03BF0DAEC1FF04A6E45C03AF046C0BD
:10430C003BF0DAEC1FF0496E4450D8B490EF21F03A
:10431C0092EF21F09EEF21F04428D8A498EF21F0E1
:10432C009AEF21F09DEF21F04A8E9EEF21F0498EFD
:10433C004A50F1EC21F04950F1EC21F08B888B982C
:10434C000D0EF1EC21F08B881200426E8B888B984D
:10435C00300EF1EC21F08B888B98300EF1EC21F0C3
:10436C0042C040F0403A0F0E4016050E416ED890F8
:10437C004036412EBDEF21F040500509F1EC21F003
:10438C008B888B98110EF1EC21F08B888B98110E89
:10439C00F1EC21F04250F1EC21F04250F1EC21F023
:1043AC004250F1EC21F08B888B98180EF1EC21F037
:1043BC008B888B98180EF1EC21F04250F1EC21F027
:1043CC004250F1EC21F04250F1EC21F04250F1EC72
:1043DC0021F08B8812003C6E000E3E6E8B963EC018
:1043EC003AF0010E3B6E3A2AFEEF21F0D8903B36A4
:1043FC003A2EFCEF21F03B503C143D6E3D50D8B4AE
:10440C000AEF22F00CEF22F00FEF22F08B8A10EF64
:10441C0022F08B9A000E3F6E3F2A040E3F6419EF78
:10442C0022F01BEF22F012EF22F08B86000E3F6E73
:10443C003F2A040E3F6425EF22F027EF22F01EEFF7
:10444C0022F03E2A070E3E642EEF22F030EF22F0CF
:10445C00F4EF21F01200FB0E926E9368840E946EB2
:10446C00C00E956E000E966E000E976E050E986E31
:10447C00C29EC29CC290C18EC19CC19AC188C19679
:10448C00C184C192C190C088C190C182C184C186CF
:10449C00C188C18EC098F28E030ED312700ED31247
:1044AC00000EC46E000EC36EC294C296C298C29A1D
:1044BC00C18CC280C282C2B266EF22F068EF22F0D9
:1044CC0061EF22F0C19C1200D7EC24F0000E3B6E81
:1044DC00A00EA9EC24F048C03AF049C03BF04AC009
:1044EC003CF04BC03DF0000E3E6E010E3F6E000ED8
:1044FC00406E000E416EDAEC1DF03A50BAEC24F02E
:10450C004850BAEC24F0CFEC24F0010E3B6EA00E18
:10451C00A9EC24F0000ED7EC23F03BC04CF03CC0CF
:10452C004DF0D3EC24F04CC048F04DC049F01200D3
:10453C00C60EF66E490EF76E000EF86E00EEABF07E
:10454C0010EE04F00900F5CFEEFFE550E150FAE172
:10455C00940EF66E490EF76E000EF86E00EE4EF0ED
:10456C0010EE09F00900F5CFEEFFE550E150FAE14D
:10457C0000EE60F0430EEE6AE806FDE100EE01F09D
:10458C00310EEE6AE806FDE15790579200012EEFCE
:10459C0008F080A2D4EF22F0D6EF22F0F3EF22F055
:1045AC0015501610D8A4DDEF22F0DFEF22F0EDEF5E
:1045BC0022F00D0E3C6EFC0EE82EFED73C2EFCD7E6
:1045CC0080A2EBEF22F0EDEF22F0F7EF22F0000EDD
:1045DC003B6E000E3A6EF7EF22F0000E3B6E010EB2
:1045EC003A6E1200949C948E98929884AD98AD9CDF
:1045FC00AD8AA898A89CA88AAC9CAC889C9C9C88EA
:10460C00AD9EAC86AC8EA89E9C869C8E7E96AD8410
:10461C007C96A8849D8A9D98A38AA398190EB06E47
:10462C00000E7F6E190EAB6E000E7D6E1200D7EC75
:10463C0024F0000E3B6EA00EA9EC24F048C03AF01A
:10464C0049C03BF04AC03CF04BC03DF0000E3E6E02
:10465C00010E3F6E000E406E000E416EDAEC1DF046
:10466C003A50BAEC24F04850BAEC24F04C50BAEC66
:10467C0024F0D3EC24F01200C294C296C298C29AD1
:10468C00C280000E3B6E050E3A6E1FEC24F0C28207
:10469C00C2B253EF23F055EF23F04EEF23F0C3508B
:1046AC00C4CF3DF03E6A3DC03EF03D6A3D10000176
:1046BC00936F3E50946F120013501410D8A469EFEE
:1046CC0023F06BEF23F06FEF23F0000E2C6E71EFE5
:1046DC0023F0010E2C6EF29E100E486E000E496EE9
:1046EC00000E4A6E000E4B6E2CC04CF04D6A1DEC49
:1046FC0023F0F28E1200000E3B6E000E3A6E700E1E
:10470C003A24D96E000E3B20DA6E000EDF6E3A4A68
:10471C003B2A3BBE9BEF23F03B5009E1100E3A5C69
:10472C00D8A09BEF23F09DEF23F085EF23F0120030
:10473C00000E3B6E000E3A6E010E3A24D96E000E3E
:10474C003B20DA6E000EDF6E3A4A3B2A3BBEB8EFD6
:10475C0023F03B5009E1100E3A5CD8A0B8EF23F0DF
:10476C00BAEF23F0A2EF23F01200670E0001935D65
:10477C00030E9459D8B0C5EF23F0C7EF23F0CAEF5E
:10478C0023F08C82D6EF23F0C00E935D030E945968
:10479C00D8A0D3EF23F0D5EF23F0D6EF23F08C92F3
:1047AC0012003D6E35EC24F06B8635EC24F06FCFA7
:1047BC003EF035EC24F03D50D8B4E7EF23F0E9EFB0
:1047CC0023F0ECEF23F06B9AEDEF23F06B8A6B8800
:1047DC003EC03BF03C6A12003AC03CF0030E3C1663
:1047EC003C3ABB503C18CF0B3C18BB6E3AC03CF06B
:1047FC003BC03DF0D8903D323C32D8903D323C32FB
:10480C003C50BC6E120015EF24F0030E3C6E980E5B
:10481C00E82EFED73C2EFCD73A06D8A03B063A50E1
:10482C003B10D8A41CEF24F01EEF24F00BEF24F067
:10483C0012002BEF24F0030E3C6E980EE82EFED7E0
:10484C003C2EFCD73A06D8A03B063A503B10D8A4D5
:10485C0032EF24F034EF24F021EF24F012006BCF70
:10486C003AF01F0E3A16D8A43EEF24F040EF24F095
:10487C0035EF24F06DB445EF24F047EF24F035EF1D
:10488C0024F01200ACA24DEF24F04FEF24F057EFC0
:10489C0024F0AC98AFCF32F0AFCF32F0AC8859EFF8
:1048AC0024F0AFCF32F032501200310ECD6E9E0E8E
:1048BC00CF6E570ECE6E9E909D809F80000E276E01
:1048CC001200958A958C280E6C6E000E6B6E270E5E
:1048DC006E6EC00E6D6E12003A6E3AC0A9FFA8A2A1
:1048EC007AEF24F07CEF24F075EF24F012003A6E8E
:1048FC003AC0AEFFADA285EF24F087EF24F080EF35
:10490C0024F01200326E32C0A9FFA8A290EF24F05E
:10491C0092EF24F08BEF24F01200326E32C0AEFF17
:10492C00ADA29BEF24F09DEF24F096EF24F0120043
:10493C00A4AAA3EF24F0A5EF24F09EEF24F0AACFB5
:10494C0032F0325012003C6E3CC03DF03B503D26E4
:10495C0035EC24F03DC06FFF1200C70E776E7996D0
:10496C00798C000E766E12003B6E35EC24F03BC059
:10497C006FFF12008F868F88DBEC24F01200DFECC7
:10498C0024F08F868F8812001E0000002500D007AF
:01499C003FDB
:10499E0035EC24F06B82120035EC24F06B8412009F
:1049AE0035EC24F06B801200080E736E76841200C4
:0C49BE00000E736E7694120014000000CE
:067FF800AEF703FBF8F1F7
:00000001FF
