:040000004FEF01F0CD
:100008005182D9CF2BF0DACF2CF09EAA0EEF00F058
:1000180010EF00F0E3EF00F054EC0FF02E6EA50E99
:100028002E18D8A41AEF00F01CEF00F03EEF00F0F5
:100038002950D8B422EF00F024EF00F02CEF00F0A4
:100048002504D8A42AEF00F02CEF00F03EEF00F0D2
:10005800010E286E000E1C6E000E1B6E800E1B24F7
:10006800D96E000E1C20DA6E2EC0DFFF1B4A1C2A38
:10007800EDEF00F02804D8A444EF00F046EF00F0BC
:10008800EDEF00F0800E1B24D96E000E1C20DA6EF6
:100098002EC0DFFF1C5007E1050E1B5CD8B057EFE0
:1000A80000F059EF00F0DFEF00F05A0E2E18D8A438
:1000B80060EF00F062EF00F03AEF00F000018151CC
:1000C80082252D6E2D508319D8A46DEF00F06FEFA7
:1000D80000F0B2EF00F02550D8B475EF00F077EFDC
:1000E80000F080EF00F0F50E8219D8A47EEF00F042
:1000F80080EF00F098EF00F0F29E000E2F6E800E59
:100108002F24D96EDA6A000EDA22DF509BEC0FF04A
:100118002F2A040E2F6493EF00F095EF00F083EF81
:1001280000F0F28EA8EF00F0F29E000E2F6E160E71
:100138009BEC0FF02F2A040E2F64A5EF00F0A7EF19
:1001480000F09BEF00F0F28E010E296E000E1C6E7F
:10015800000E1B6E020E226EC8EF00F0000E296E14
:10016800000E1C6E000E1B6EF29E000E2F6E150EFA
:100178009BEC0FF02F2A040E2F64C5EF00F0C7EF99
:1001880000F0BBEF00F0F28EF50E00018219D8A442
:10019800D0EF00F0D2EF00F03AEF00F0020E221894
:1001A800D8A4D9EF00F0DBEF00F03AEF00F0010E31
:1001B800276E3AEF00F0000E286E3AEF00F0ACA27E
:1001C800E8EF00F0EAEF00F0EDEF00F0AC92AC9849
:1001D800AC881D04D8A4F3EF00F0F5EF00F03BEF76
:1001E80001F04DBE02EF01F04D504C104B1008E1EC
:1001F8004A04D8A002EF01F004EF01F00EEF01F07D
:10020800FF0E4A26FF0E4B22FF0E4C22FF0E4D22F8
:1002180016EF01F0000E4A6E000E4B6E000E4C6E8B
:10022800000E4D6E49BE23EF01F0495048104710AB
:1002380008E14604D8A023EF01F025EF01F02FEFE5
:1002480001F0FF0E4626FF0E4722FF0E4822FF0E42
:10025800492239EF01F0140E466E000E476E000E6B
:10026800486E000E496EFDEC0EF0000E1D6E9EA04D
:1002780040EF01F042EF01F049EF01F09E0ECF6E22
:10028800570ECE6E9E90010E1D6E2CC0DAFF2BC04D
:10029800D9FF5192110048EF0EF0F29E62EC0DF07A
:1002A800770EDCEC0CF0B0EC0FF085EC0FF02EECD8
:1002B8000FF079EC0FF08B9289941E0E4A6E000EA7
:1002C8004B6E000E4C6E000E4D6ED08E9F8AF28ED5
:1002D800F28EC0908C808C82000E396E230E386EA0
:1002E800FF0E3A6E88EC0CF0060E456E130E446E47
:1002F800AE0EE82EFED7442EFCD7452EFAD76BEC6F
:100308000EF0F29E100E3E6E000E3F6E000E406E16
:10031800000E416E9BEC0DF03EC015F03FC016F08C
:10032800F28E15C024F0010E24649DEF01F09FEFBA
:1003380001F0B0EF01F0010E246EF29E100E3E6E39
:10034800000E3F6E000E406E000E416E24C042F05B
:10035800436A23EC0EF0F28E000E0C6E010E0B6E4B
:100368000BC038F00CC039F024C03AF088EC0CF01F
:10037800000E086E010E076EF29E200E3E6E000EF5
:100388003F6E000E406E000E416E9BEC0DF03EC0BD
:1003980015F03FC016F0F28E15500F6E106A10500F
:1003A80009E1310E0F5CD8A0DCEF01F0DEEF01F0BF
:1003B800E9EF01F0105009E13B0E0F5CD8A0E7EF20
:1003C80001F0E9EF01F0FDEF01F0000E106E310EC3
:1003D8000F6EF29E200E3E6E000E3F6E000E406EB7
:1003E800000E416E0FC042F010C043F023EC0EF037
:1003F800F28EF29E600E3E6E000E3F6E000E406E54
:10040800000E416E9BEC0DF03EC015F03FC016F09B
:10041800F28E15C021F02F0E216415EF02F017EFB0
:1004280002F01FEF02F0350E21641DEF02F01FEFFE
:1004380002F05CEF02F0300E216E000E0E6E000E20
:100448000D6EF29E600E3E6E000E3F6E000E406E08
:10045800000E416E21C042F0436A23EC0EF0F28E8A
:1004680081EF02F0000E0E6E000E0D6E300E216E42
:1004780081EF02F0030E0E6EE80E0D6E81EF02F0B2
:10048800070E0E6ED00E0D6E81EF02F00B0E0E6E83
:10049800B80E0D6E81EF02F00F0E0E6EA00E0D6EEF
:1004A80081EF02F0130E0E6E880E0D6E81EF02F0D2
:1004B8002150446E456A4550000AD8B466EF02F0F0
:1004C80036EF02F04450300AD8B436EF02F0010A91
:1004D800D8B43EEF02F0030AD8B444EF02F0010AA0
:1004E800D8B44AEF02F0070AD8B450EF02F0010A74
:1004F800D8B456EF02F036EF02F0F29E500E3E6E80
:10050800000E3F6E000E406E000E416E9BEC0DF02B
:100518003EC015F03FC016F0F28E15C01FF0960EC3
:100528001F6499EF02F09BEF02F0B2EF02F0000EA9
:100538001F6EF29E500E3E6E000E3F6E000E406E15
:10054800000E416E1FC042F0436A23EC0EF0F28E9B
:10055800000E126E000E116EB5EF02F01FC011F002
:10056800126AF29E400E3E6E000E3F6E000E406E06
:10057800000E416E9BEC0DF03EC015F03FC016F02A
:10058800F28E15C020F0810E2018D8B4CEEF02F0FC
:10059800D0EF02F02BEF03F0820E2018D8B4D7EF7B
:1005A80002F0D9EF02F02BEF03F0830E2018D8B435
:1005B800E0EF02F0E2EF02F02BEF03F0840E2018D8
:1005C800D8B4E9EF02F0EBEF02F02BEF03F0850E61
:1005D8002018D8B4F2EF02F0F4EF02F02BEF03F09A
:1005E800070E4F6ED00E4E6E820E206EF29E400E9B
:1005F8003E6E000E3F6E000E406E000E416E20C033
:1006080042F0436A23EC0EF0F28E4CEF03F0030E37
:100618004F6EE80E4E6E4CEF03F0070E4F6ED00E85
:100628004E6E820E206E4CEF03F00B0E4F6EB80E1E
:100638004E6E4CEF03F00F0E4F6EA00E4E6E4CEF49
:1006480003F0130E4F6E880E4E6E4CEF03F02050E1
:10065800446E456A4550000AD8B435EF03F011EFEF
:1006680003F04450810AD8B40BEF03F0030AD8B45E
:1006780011EF03F0010AD8B419EF03F0070AD8B450
:100688001FEF03F0010AD8B425EF03F011EF03F0D0
:100698001E0E4A6E000E4B6E000E4C6E000E4D6E16
:1006A800EEEC09F08C9204001E0E4A6E000E4B6EA2
:1006B800000E4C6E000E4D6E6BEC0EF05CEF06F00B
:1006C80007C00BF008C00CF081B86DEF03F06FEFB6
:1006D80003F08EEF03F081B474EF03F076EF03F0CC
:1006E80078EF03F08AEC0EF02450FCEC0DF0020ECB
:1006F800456E040E446EBA0EE82EFED7442EFCD783
:10070800452EFAD700D081A88CEF03F08EEF03F0C6
:100718006FEF03F081B693EF03F095EF03F0ACEFC2
:1007280003F0630E0B180C10D8B49DEF03F09FEF85
:1007380003F0ACEF03F0010E0B240B6E000E0C203F
:100748000C6E81A6AAEF03F0ACEF03F0A5EF03F05F
:1007580080BAB1EF03F0B3EF03F0C9EF03F00B5029
:100768000C10D8B4BAEF03F0BCEF03F0C9EF03F0F4
:10077800FF0E0B240B6EFF0E0C200C6E80AAC7EF29
:1007880003F0C9EF03F0C2EF03F080B8CEEF03F037
:10079800D0EF03F0E8EF03F00C5007E15A0E0B5CC2
:1007A800D8B0D9EF03F0DBEF03F0E8EF03F00A0E5F
:1007B8000B240B6E000E0C200C6E80A8E6EF03F0E5
:1007C800E8EF03F0E1EF03F080B6EDEF03F0EFEFB1
:1007D80003F007EF04F00C5009E10A0E0B5CD8A0F7
:1007E800F8EF03F0FAEF03F007EF04F0F60E0B242E
:1007F8000B6EFF0E0C200C6E80A605EF04F007EFC1
:1008080004F000EF04F00BC007F00CC008F00BC0B8
:1008180038F00CC039F024C03AF088EC0CF081B400
:1008280018EF04F01AEF04F02AEF04F0010E256E19
:100838001E0E4A6E000E4B6E000E4C6E000E4D6E74
:1008480073EC06F0000E276E000E256E2904D8A45E
:1008580030EF04F032EF04F058EF06F02EEF06F018
:10086800F10E8219D8A43BEF04F03DEF04F059EFE4
:1008780004F02550D8A443EF04F045EF04F059EFF5
:1008880004F0000E276E010E256E07C00BF008C09D
:100898000CF01E0E4A6E000E4B6E000E4C6E000ED3
:1008A8004D6E55EC08F0B7EF04F0F20E8219D8A49B
:1008B80060EF04F062EF04F0B7EF04F02550D8A41D
:1008C80068EF04F06AEF04F0B7EF04F0000E276E4B
:1008D800010E256E07C00BF008C00CF00BC038F0F5
:1008E8000CC039F024C03AF088EC0CF01E0E4A6EA9
:1008F800000E4B6E000E4C6E000E4D6E73EC06F043
:100908002750D8A48AEF04F08CEF04F0B7EF04F076
:10091800A50E0001606F440E616FF90E626F3D0E07
:10092800636F5A0E646FF29E000E066E000E056E1F
:10093800065009E1050E055CD8A0A5EF04F0A7EF65
:1009480004F0A9EF04F0B6EF04F0600E0524D96EA8
:10095800000E0620DA6EDF5090EC0FF0054A062AEA
:100968009CEF04F0F28EA8EC0EF0C5EC0EF0000E31
:10097800276E000E256E50EF06F02550D8A4C7EF5D
:1009880004F0C9EF04F050EF06F0010E256E82C0A6
:1009980021F0F5EF04F0000E0E6E000E0D6E300E15
:1009A800216E1AEF05F0030E0E6EE80E0D6E1AEFAB
:1009B80005F0070E0E6ED00E0D6E1AEF05F00B0E39
:1009C8000E6EB80E0D6E1AEF05F00F0E0E6EA00E1D
:1009D8000D6E1AEF05F0130E0E6E880E0D6E1AEFDF
:1009E80005F02150446E456A4550000AD8B4FFEF1F
:1009F80004F0CFEF04F04450300AD8B4CFEF04F03D
:100A0800010AD8B4D7EF04F0030AD8B4DDEF04F034
:100A1800010AD8B4E3EF04F0070AD8B4E9EF04F008
:100A2800010AD8B4EFEF04F0CFEF04F0F29E600EA5
:100A38003E6E000E3F6E000E406E000E416E21C0ED
:100A480042F0436A23EC0EF0F28EA8EC0EF0BDEFF4
:100A580004F02550D8A433EF05F035EF05F050EF3A
:100A680006F08251D8A43BEF05F03DEF05F0AAEF60
:100A780005F0010E256EF29E600E3E6E000E3F6E72
:100A8800000E406E000E416E9BEC0DF03E50216E44
:100A9800400E3E6E000E3F6E000E406E000E416E20
:100AA8009BEC0DF03E50206E300E3E6E000E3F6EF9
:100AB800000E406E000E416E9BEC0DF03EC013F030
:100AC8003FC014F0500E3E6E000E3F6E000E406E9A
:100AD800000E416E9BEC0DF03E501F6EF28E510ED3
:100AE8000001606F21C061F013C062F020C063F0A4
:100AF8001FC064F0020E456E040E446EBA0EE82E56
:100B0800FED7442EFCD7452EFAD700D0F29E000E11
:100B1800066E000E056E065009E1050E055CD8A0AC
:100B280098EF05F09AEF05F09CEF05F0A9EF05F0B6
:100B3800600E0524D96E000E0620DA6EDF5090ECA8
:100B48000FF0054A062A8FEF05F0F28EC5EC0EF07D
:100B5800BDEF04F02550D8A4B4EF05F0B6EF05F0CA
:100B68000EEF06F0010E256E82C020F0DCEF05F0D6
:100B7800030E4F6EE80E4E6EFDEF05F0070E4F6E3A
:100B8800D00E4E6E820E206EFDEF05F00B0E4F6EEE
:100B9800B80E4E6EFDEF05F00F0E4F6EA00E4E6EA6
:100BA800FDEF05F0130E4F6E880E4E6EFDEF05F04B
:100BB8002050446E456A4550000AD8B4E6EF05F067
:100BC800C2EF05F04450810AD8B4BCEF05F0030A1F
:100BD800D8B4C2EF05F0010AD8B4CAEF05F0070A85
:100BE800D8B4D0EF05F0010AD8B4D6EF05F0C2EFBB
:100BF80005F0F29E400E3E6E000E3F6E000E406EF7
:100C0800000E416E20C042F0436A23EC0EF0F28ED3
:100C1800000E256E2550D8A414EF06F016EF06F046
:100C280050EF06F0010E256E82C01FF01FC011F0B4
:100C3800126AF29E500E3E6E000E3F6E000E406E1F
:100C4800000E416E1FC042F0436A23EC0EF0F28E94
:100C5800BDEF04F000018151446E456A4550000A19
:100C6800D8B439EF06F050EF06F04450230AD8B450
:100C7800C1EF04F0670AD8B434EF04F0150AD8B409
:100C88002DEF05F0340AD8B4AEEF05F0030AD8B456
:100C98000EEF06F050EF06F0000E296E000E286EDB
:100CA800000E226E57EF03F0000E226E57EF03F08E
:100CB8002250446E456A4550000AD8B466EF06F0E3
:100CC80057EF03F04450000AD8B464EF03F0020A67
:100CD800D8B42AEF04F057EF03F04FEF01F02404E3
:100CE800D8A479EF06F07BEF06F090EF06F08B8240
:100CF8004EC030F04FC031F018EC0FF08B92040E5C
:100D0800426E0C0E416E340EE82EFED7412EFCD7F3
:100D1800422EFAD793EF06F08B9283EF06F0898480
:100D28000B500C10D8A49BEF06F09DEF06F002EFD5
:100D380008F0000E0A6E010E096E02EF08F00400BA
:100D4800CFEC0DF06BEC0EF00DC030F00EC031F0B2
:100D580018EC0FF0C3EC0FF0040E426E8E0E416ECD
:100D6800120EE82EFED7412EFCD7422EFAD700D01D
:100D78001E0E4A6E000E4B6E000E4C6E000E4D6E2F
:100D880067EC0FF030C003F031C004F04A504B104C
:100D98004C104D10D8A4D3EF06F0D5EF06F0DAEFDB
:100DA80006F0310EF4EC0AF0C8EC0FF00350041012
:100DB800D8A4E1EF06F0E3EF06F0C4EF06F04E0E1C
:100DC800416EEB0EE82EFED7412EFCD700F01E0E2A
:100DD8004A6E000E4B6E000E4C6E000E4D6E67ECA8
:100DE8000FF030C003F031C004F04A504B104C10E3
:100DF8004D10D8A402EF07F004EF07F009EF07F051
:100E0800320EF4EC0AF0C8EC0FF003040410D8A476
:100E180010EF07F012EF07F0F3EF06F01E0E4A6E20
:100E2800000E4B6E000E4C6E000E4D6E11C030F071
:100E380012C031F018EC0FF0C8EC0FF00B500C108A
:100E4800D8B429EF07F02BEF07F037EF07F00904C4
:100E58000A10D8B432EF07F034EF07F037EF07F095
:100E68000B06D8A00C060BC038F00CC039F024C013
:100E78003AF088EC0CF02404D8A445EF07F047EFCB
:100E880007F06EEF07F00B500C10D8A44EEF07F0E8
:100E980050EF07F059EF07F009040A10D8A457EFEC
:100EA80007F059EF07F06EEF07F08B824EC030F075
:100EB8004FC031F018EC0FF08B92040E426E0C0EFE
:100EC800416E340EE82EFED7412EFCD7422EFAD7BB
:100ED800AEEF07F02450D8A474EF07F076EF07F0D0
:100EE800AEEF07F00B500C10D8A47DEF07F07FEFA2
:100EF80007F088EF07F009040A10D8A486EF07F076
:100F080088EF07F0AEEF07F08B920B500C10D8A4C7
:100F180090EF07F092EF07F09BEF07F009040A1033
:100F2800D8A499EF07F09BEF07F0A3EF07F04EC0A6
:100F380030F04FC031F018EC0FF0AEEF07F0060EAE
:100F4800426E130E416EAE0EE82EFED7412EFCD730
:100F5800422EFAD72704D8A4B4EF07F0B6EF07F06B
:100F6800E3EF07F014EF08F0000E0A6E020E096EA8
:100F78000BC038F00CC039F02450D8B4C6EF07F0D5
:100F8800C9EF07F0010ECAEF07F0000E3A6E88ECC1
:100F98000CF0820E416EDE0EE82EFED7412EFCD7F5
:100FA8000BC038F00CC039F024C03AF088EC0CF0D3
:100FB800820E416EDE0EE82EFED7412EFCD781B49C
:100FC800E8EF07F0EAEF07F0F3EF07F00B500C102B
:100FD800D8B4F1EF07F0F3EF07F0B8EF07F00BC064
:100FE80038F00CC039F024C03AF088EC0CF0820ECE
:100FF800416EDE0EE82EFED7412EFCD70B500C10AA
:10100800D8A409EF08F00BEF08F0A3EF06F00904E5
:101018000A10D8B412EF08F014EF08F0A3EF06F0A6
:1010280089940B500C10D8B41CEF08F01EEF08F090
:1010380026EF08F02704D8A424EF08F026EF08F0DC
:101048004AEF08F009500A10D8A42DEF08F02FEF46
:1010580008F04AEF08F02404D8A435EF08F037EF79
:1010680008F04AEF08F08B824EC030F04FC031F0E4
:1010780018EC0FF08B92040E426E0C0E416E340E7B
:10108800E82EFED7412EFCD7422EFAD7000E0A6E64
:10109800000E096E000E0C6E000E0B6E000E226E16
:1010A8001200000E046E000E036E410E74EC0AF07E
:1010B8002404D8A462EF08F064EF08F079EF08F090
:1010C8008B824EC030F04FC031F018EC0FF08B928D
:1010D800040E3A6E0C0E396E340EE82EFED7392EF9
:1010E800FCD73A2EFAD77CEF08F08B926CEF08F019
:1010F80089842CEF09F00400CFEC0DF06BEC0EF0B6
:101108000DC030F00EC031F018EC0FF0C3EC0FF04A
:10111800040E3A6E8E0E396E120EE82EFED7392E58
:10112800FCD73A2EFAD700D01E0E4A6E000E4B6E30
:10113800000E4C6E000E4D6E67EC0FF030C003F0E1
:1011480031C004F04A504B104C104D10D8A4AFEFEA
:1011580008F0B1EF08F0B6EF08F0310EF4EC0AF041
:10116800C8EC0FF003500410D8A4BDEF08F0BFEF8F
:1011780008F0A0EF08F04E0E396EEB0EE82EFED701
:10118800392EFCD700F01E0E4A6E000E4B6E000E74
:101198004C6E000E4D6E67EC0FF030C003F031C09E
:1011A80004F04A504B104C104D10D8A4DEEF08F054
:1011B800E0EF08F0E5EF08F0320EF4EC0AF0C8ECC6
:1011C8000FF003040410D8A4ECEF08F0EEEF08F0D9
:1011D800CFEF08F01E0E4A6E000E4B6E000E4C6EDE
:1011E800000E4D6E11C030F012C031F018EC0FF047
:1011F800C8EC0FF02404D8A404EF09F006EF09F0B6
:101208001BEF09F08B824EC030F04FC031F018EC64
:101218000FF08B92040E3A6E0C0E396E340EE82ED7
:10122800FED7392EFCD73A2EFAD722EF09F08B9247
:101238004EC030F04FC031F018EC0FF02704D8A49E
:1012480028EF09F02AEF09F02CEF09F034EF09F044
:101258002750D8B432EF09F034EF09F07FEF08F0E7
:1012680089940B500C10D8B43CEF09F03EEF09F00C
:1012780046EF09F02704D8A444EF09F046EF09F037
:1012880061EF09F02404D8A44CEF09F04EEF09F0FF
:1012980061EF09F08B824EC030F04FC031F018EC8E
:1012A8000FF08B92040E3A6E0C0E396E340EE82E47
:1012B800FED7392EFCD73A2EFAD7000E0C6E000E48
:1012C8000B6E020E226E1200000E396E37BE71EFE1
:1012D80009F06FEF09F07BEF09F0371E361E351E57
:1012E800346C000E352236223722010E396E33BE99
:1012F80082EF09F080EF09F08CEF09F0331E321EFF
:10130800311E306C000E312232223322010E391A7E
:10131800000E3A6E000E3B6E000E3C6E000E3D6EE7
:101328003450351036103710D8B49DEF09F09FEFC0
:1013380009F0D5EF09F0010E386EA9EF09F0D89041
:101348003436353636363736382A37AEAEEF09F00A
:10135800B0EF09F0A3EF09F0D8903A363B363C36A7
:101368003D363450305C355031583650325837504D
:101378003358D8A0C2EF09F0C4EF09F0CDEF09F057
:101388003450305E3550315A3650325A3750335A0D
:101398003A80D8903732363235323432382EB0EF80
:1013A80009F03950D8B4DBEF09F0DDEF09F0E5EFCB
:1013B80009F03D1E3C1E3B1E3A6C000E3B223C22AF
:1013C8003D223AC030F03BC031F03CC032F03DC065
:1013D80033F012008984C3EC0FF0040E3A6E8E0EBF
:1013E800396E120EE82EFED7392EFCD73A2EFAD7D0
:1013F80000D01E0E4A6E000E4B6E000E4C6E000E94
:101408004D6E67EC0FF030C003F031C004F04A5065
:101418004B104C104D10D8A414EF0AF016EF0AF038
:101428001BEF0AF0310EF4EC0AF0C8EC0FF0035091
:101438000410D8A422EF0AF024EF0AF005EF0AF00E
:101448004E0E396EEB0EE82EFED7392EFCD700F083
:101458001E0E4A6E000E4B6E000E4C6E000E4D6E48
:1014680067EC0FF030C003F031C004F04A504B1065
:101478004C104D10D8A443EF0AF045EF0AF04AEF9C
:101488000AF0320EF4EC0AF0C8EC0FF00304041072
:10149800D8A451EF0AF053EF0AF034EF0AF01E0E09
:1014A8004A6E000E4B6E000E4C6E000E4D6E11C053
:1014B80030F012C031F018EC0FF0C8EC0FF0060E47
:1014C8003A6E130E396EAE0EE82EFED7392EFCD7C3
:1014D8003A2EFAD7000E046E000E036E899412009D
:1014E800386E8B98000E22EC0DF08B888B98000ECE
:1014F80022EC0DF0C0EF0AF0790E22EC0DF03F0E51
:1015080022EC0DF0EDEF0AF03F0E22EC0DF0730E19
:1015180022EC0DF0EDEF0AF0390E22EC0DF0770E0B
:1015280022EC0DF0EDEF0AF0000E22EC0DF0000EAB
:1015380022EC0DF0EDEF0AF0000E22EC0DF03F0E5C
:1015480022EC0DF0EDEF0AF0790E22EC0DF0060E0C
:1015580022EC0DF0EDEF0AF0770E22EC0DF03E0EC6
:1015680022EC0DF0EDEF0AF0000E22EC0DF03E0E2D
:1015780022EC0DF0EDEF0AF03850366E376A37502E
:10158800000AD8B4CAEF0AF0EDEF0AF03650410A63
:10159800D8B4B0EF0AF0020AD8B490EF0AF0060AFD
:1015A800D8B480EF0AF0020AD8B4A0EF0AF0080A0B
:1015B800D8B488EF0AF01C0AD8B4A8EF0AF0050AD4
:1015C800D8B4B8EF0AF00E0AD8B498EF0AF0EDEFE5
:1015D8000AF08B888B980D0E22EC0DF08B88120088
:1015E800386E8B98000E22EC0DF08B888B98000ECD
:1015F80022EC0DF038EF0BF0790E22EC0DF0770E9F
:1016080022EC0DF061EF0BF0790E22EC0DF03F0E9D
:1016180022EC0DF061EF0BF0790E22EC0DF0060EC6
:1016280022EC0DF061EF0BF0790E22EC0DF05B0E61
:1016380022EC0DF061EF0BF0000E22EC0DF03F0EE6
:1016480022EC0DF061EF0BF0790E22EC0DF0060E96
:1016580022EC0DF061EF0BF0770E22EC0DF03E0E50
:1016680022EC0DF061EF0BF03850366E376A3750C8
:10167800000AD8B442EF0BF061EF0BF03650300A95
:10168800D8B408EF0BF0010AD8B410EF0BF0030A36
:10169800D8B418EF0BF0730AD8B430EF0BF0040A83
:1016A800D8B400EF0BF0020AD8B420EF0BF0140AFC
:1016B800D8B428EF0BF061EF0BF08B888B980D0EE8
:1016C80022EC0DF08B88120096EF0BF03F0E346E73
:1016D800CCEF0BF0060E346ECCEF0BF05B0E346ED5
:1016E800CCEF0BF04F0E346ECCEF0BF0660E346E71
:1016F800CCEF0BF06D0E346ECCEF0BF07D0E346E2C
:10170800CCEF0BF0070E346ECCEF0BF07F0E346E7F
:10171800CCEF0BF06F0E346ECCEF0BF0000E346E86
:10172800CCEF0BF030C032F031C033F03350000A48
:10173800D8B4A1EF0BF092EF0BF03250000AD8B4F6
:101748006AEF0BF0010AD8B46EEF0BF0030AD8B4B5
:1017580072EF0BF0010AD8B476EF0BF0070AD8B491
:101768007AEF0BF0010AD8B47EEF0BF0030AD8B475
:1017780082EF0BF0010AD8B486EF0BF00F0AD8B449
:101788008AEF0BF0010AD8B48EEF0BF092EF0BF052
:1017980034501200000E356E33BED7EF0BF0D5EF84
:1017A8000BF0DDEF0BF0326C331ED8B0332A010E8C
:1017B800356E31BEE4EF0BF0E2EF0BF0EAEF0BF021
:1017C800306C311ED8B0312A010E351A000E376E32
:1017D800000E366E32503310D8B4F5EF0BF0F7EF39
:1017E8000BF01FEF0CF0010E346EFFEF0BF0D890EA
:1017F80032363336342A33AE04EF0CF006EF0CF0F1
:10180800FBEF0BF0D890363637363250305C335019
:101818003158D8A012EF0CF014EF0CF019EF0CF0BF
:101828003250305E3350315A3680D89033323232AB
:10183800342E06EF0CF03550D8B425EF0CF027EF16
:101848000CF02BEF0CF0366C371ED8B0372A36C0A8
:1018580030F037C031F01200000E356E31BE39EF6E
:101868000CF037EF0CF03FEF0CF0306C311ED8B0B5
:10187800312A010E356E33BE46EF0CF044EF0CF002
:101888004AEF0CF0326C331ED8B0332A3250331082
:10189800D8B451EF0CF053EF0CF077EF0CF0010EC9
:1018A800346E5BEF0CF0D89032363336342A33AED0
:1018B80060EF0CF062EF0CF057EF0CF03250305C38
:1018C80033503158D8A06BEF0CF06DEF0CF071EF7E
:1018D8000CF03250305E3350315AD89033323232B5
:1018E800342E62EF0CF03550D8B47DEF0CF07FEF5A
:1018F8000CF083EF0CF0306C311ED8B0312A30C0B8
:1019080030F031C031F0120038C030F039C031F059
:10191800000E336E0A0E326E30EC0CF030C03BF025
:1019280031C03CF038C030F039C031F0000E336EB1
:101938000A0E326ECEEC0BF030C03DF031C03EF0F6
:101948008B98000E22EC0DF08B888B98000E22EC01
:101958000DF03DC030F03EC031F068EC0BF0406E49
:101968003BC030F03CC031F068EC0BF03F6E3A50B1
:10197800D8B4C1EF0CF0C3EF0CF0CFEF0CF03A285D
:10198800D8A4C9EF0CF0CBEF0CF0CEEF0CF0408EE2
:10199800CFEF0CF03F8E405022EC0DF03F5022EC80
:1019A8000DF08B888B980D0E22EC0DF08B881200B1
:1019B800386E8B888B98300E22EC0DF08B888B98C4
:1019C800300E22EC0DF038C036F0363A0F0E3616CF
:1019D800050E376ED8903636372EEEEF0CF03650AF
:1019E800050922EC0DF08B888B98110E22EC0DF076
:1019F8008B888B98110E22EC0DF0385022EC0DF0EC
:101A0800385022EC0DF0385022EC0DF08B888B9872
:101A1800180E22EC0DF08B888B98180E22EC0DF026
:101A2800385022EC0DF0385022EC0DF0385022ECF2
:101A38000DF0385022EC0DF08B881200326E000E3B
:101A4800346E8B9634C030F0010E316E302A2FEF91
:101A58000DF0D8903136302E2DEF0DF03150321474
:101A6800336E3350D8B43BEF0DF03DEF0DF040EF3F
:101A78000DF08B8A41EF0DF08B9A000E356E352AEA
:101A8800040E35644AEF0DF04CEF0DF043EF0DF006
:101A98008B86000E356E352A040E356456EF0DF030
:101AA80058EF0DF04FEF0DF0342A070E34645FEF56
:101AB8000DF061EF0DF025EF0DF01200FB0E926EA8
:101AC8009368840E946EC00E956E000E966E000E8E
:101AD800976E050E986EC29EC29CC290C18EC19C24
:101AE800C19AC188C196C184C192C190C088C19071
:101AF800C182C184C186C188C18EC098F28E030E8E
:101B0800D312700ED312000EC46E000EC36EC294B0
:101B1800C296C298C29AC18CC280C282C2B297EFE2
:101B28000DF099EF0DF092EF0DF0C19C1200D5EC7D
:101B38000FF0000E316EA00EA6EC0FF03EC030F094
:101B48003FC031F040C032F041C033F0000E346E77
:101B5800010E356E000E366E000E376E68EC09F019
:101B68003050B7EC0FF03E50B7EC0FF0CDEC0FF063
:101B7800010E316EA00EA6EC0FF0000EE2EC0EF096
:101B880031C042F032C043F0D1EC0FF042C03EF019
:101B980043C03FF01200A50E0001606F450E616F53
:101BA800000E626F450E636F5A0E646FF29E000E50
:101BB800336E000E326E600E3224D96E000E332062
:101BC800DA6EDF5090EC0FF0324A332A33BEF6EF6C
:101BD8000DF0335009E1050E325CD8A0F6EF0DF098
:101BE800F8EF0DF0DFEF0DF0F28EC5EC0EF01200FD
:101BF800366E8B98000E22EC0DF08B888B98000EB9
:101C080022EC0DF03604D8A40CEF0EF00EEF0EF017
:101C180016EF0EF0000E22EC0DF0BE0E22EC0DF0C9
:101C28001CEF0EF0000E22EC0DF03E0E22EC0DF033
:101C38008B888B980D0E22EC0DF08B881200D5EC5A
:101C48000FF0000E316EA00EA6EC0FF03EC030F083
:101C58003FC031F040C032F041C033F0000E346E66
:101C6800010E356E000E366E000E376E68EC09F008
:101C78003050B7EC0FF03E50B7EC0FF04250B7ECD5
:101C88000FF0D1EC0FF012007A0EF66E1F0EF76E01
:101C9800000EF86E00EE46F010EE0BF00900F5CFDE
:101CA800EEFFE550E150FAE100EE60F0300EEE6A2A
:101CB800E806FDE100EE01F0290EEE6AE806FDE116
:101CC80051905192000EF86E000151EF01F0C2944C
:101CD800C296C298C29AC280000E316E050E306E4E
:101CE80018EC0FF0C282C2B27CEF0EF07EEF0EF05D
:101CF80077EF0EF0C350C4CF33F0346A33C034F0FA
:101D0800336A3310016E3450026E12002450D8B476
:101D180090EF0EF092EF0EF096EF0EF0000E246E9C
:101D280098EF0EF0010E246EF29E100E3E6E000E1D
:101D38003F6E000E406E000E416E24C042F0436AB2
:101D480023EC0EF0F28E1200000E316E000E306E93
:101D5800800E3024D96E000E3120DA6E000EDF6E50
:101D6800304A312A31BEC2EF0EF0315009E1100E6F
:101D7800305CD8A0C2EF0EF0C4EF0EF0ACEF0EF05E
:101D88001200000E316E000E306E600E3024D96ED7
:101D9800000E3120DA6E000EDF6E304A312A31BE75
:101DA800DFEF0EF0315009E1100E305CD8A0DFEF04
:101DB8000EF0E1EF0EF0C9EF0EF01200336E41ECB9
:101DC8000FF06B8641EC0FF06FCF34F041EC0FF061
:101DD8003350D8B4F2EF0EF0F4EF0EF0F7EF0EF048
:101DE8006B9AF8EF0EF06B8A6B8834C031F0326A68
:101DF8001200670E015C030E0258D8B006EF0FF010
:101E080008EF0FF00BEF0FF08C8217EF0FF0C00EFA
:101E1800015C030E0258D8A014EF0FF016EF0FF074
:101E280017EF0FF08C92120024EF0FF0030E326EB2
:101E3800980EE82EFED7322EFCD73006D8A03106F1
:101E480030503110D8A42BEF0FF02DEF0FF01AEF10
:101E58000FF01200949C948EAD98AD9CAD8AAC9C0A
:101E6800AC88AD9EAC86AC8E7E96AD849D8A9D98DE
:101E7800190EB06E000E7F6E12006BCF30F01F0E81
:101E88003016D8A44AEF0FF04CEF0FF041EF0FF0E7
:101E98006DB451EF0FF053EF0FF041EF0FF0120058
:101EA800ACA259EF0FF05BEF0FF063EF0FF0AC98B7
:101EB800AFCF2AF0AFCF2AF0AC8865EF0FF0AFCFE5
:101EC8002AF02A50120080A26CEF0FF06EEF0FF08C
:101ED80074EF0FF0000E316E000E306E78EF0FF0D9
:101EE800000E316E010E306E1200310ECD6E9E0E58
:101EF800CF6E570ECE6E9E909D809F80000E1D6EF9
:101F08001200958A958C280E6C6E000E6B6E270E4B
:101F18006E6EC00E6D6E1200306E30C0AEFFADA298
:101F280098EF0FF09AEF0FF093EF0FF012002A6E70
:101F38002AC0AEFFADA2A3EF0FF0A5EF0FF09EEF02
:101F48000FF01200326E32C033F03150332641ECBC
:101F58000FF033C06FFF1200C70E776E7996798C39
:101F6800000E766E1200316E41EC0FF031C06FFF3B
:0D1F78001200140000001E000000D0073F02
:101F86008F868F88D9EC0FF01200DDEC0FF08F866C
:101F96008F88120041EC0FF06B82120041EC0FF0BB
:101FA6006B84120041EC0FF06B801200080E736E0A
:0C1FB60076841200000E736E7694120008
:067FF800AEF703FBF8F1F7
:00000001FF
