:020000040000FA
:040000004DEF01F0CF
:100008005982D9CF39F0DACF3AF09EAA0EEF00F034
:1000180010EF00F0E1EF00F0ADEC0FF03C6EA50E34
:100028003C18D8A41AEF00F01CEF00F03EEF00F0E7
:100038003750D8B422EF00F024EF00F02CEF00F096
:100048003304D8A42AEF00F02CEF00F03EEF00F0C4
:10005800010E366E000E2A6E000E296E010E29243E
:10006800D96E000E2A20DA6E3CC0DFFF294A2A2A00
:10007800EBEF00F03604D8A444EF00F046EF00F0B0
:10008800EBEF00F0010E2924D96E000E2A20DA6E5B
:100098003CC0DFFF2A5007E1050E295CD8B057EFB6
:1000A80000F059EF00F0DDEF00F05A0E3C18D8A42C
:1000B80060EF00F062EF00F03AEF00F00250032426
:1000C8003B6E3B500418D8A46CEF00F06EEF00F0C4
:1000D800B1EF00F03350D8B474EF00F076EF00F0D1
:1000E8007FEF00F0F50E0318D8A47DEF00F07FEF46
:1000F80000F097EF00F0F29E000E3D6E010E3D24D9
:10010800D96EDA6A000EDA22DF50F4EC0FF03D2ADD
:10011800040E3D6492EF00F094EF00F082EF00F0DF
:10012800F28EA7EF00F0F29E000E3D6E160EF4EC74
:100138000FF03D2A040E3D64A4EF00F0A6EF00F096
:100148009AEF00F0F28E010E376E000E2A6E000E46
:10015800296E020E306EC7EF00F0000E376E000EEB
:100168002A6E000E296EF29E000E3D6E150EF4ECFE
:100178000FF03D2A040E3D64C4EF00F0C6EF00F016
:10018800BAEF00F0F28EF50E0318D8A4CEEF00F007
:10019800D0EF00F03AEF00F0020E3018D8A4D7EFF5
:1001A80000F0D9EF00F03AEF00F0010E356E3AEFAB
:1001B80000F0000E366E3AEF00F0ACA2E6EF00F069
:1001C800E8EF00F0EBEF00F0AC92AC98AC882B04B1
:1001D800D8A4F1EF00F0F3EF00F039EF01F055BECD
:1001E80000EF01F055505410531008E15204D8A004
:1001F80000EF01F002EF01F00CEF01F0FF0E5226C4
:10020800FF0E5322FF0E5422FF0E552214EF01F069
:10021800000E526E000E536E000E546E000E556E98
:1002280051BE21EF01F0515050104F1008E14E041B
:10023800D8A021EF01F023EF01F02DEF01F0FF0E20
:100248004E26FF0E4F22FF0E5022FF0E512237EF8F
:1002580001F0140E4E6E000E4F6E000E506E000E22
:10026800516E56EC0FF0000E2B6E9EA03EEF01F083
:1002780040EF01F047EF01F09E0ECF6E570ECE6EA5
:100288009E90010E2B6E3AC0DAFF39C0D9FF599201
:100298001100A0EF0EF0F29EB7EC0DF0770E31ECE6
:1002A8000DF009EC10F0DEEC0FF087EC0FF0D2EC5B
:1002B8000FF08B9289941E0E526E000E536E000E34
:1002C800546E000E556ED08E9F8AF28EF28EC090BC
:1002D8008C808C82000E476E210E466EFF0E486E93
:1002E800DAEC0CF0060E0001876F130E866FAD0E68
:1002F800E82EFED7862FFCD7872FFAD700D0E2EC5E
:100308000EF0F29E100E0001806F000E816F000E3D
:10031800826F000E836FF0EC0DF080C023F081C077
:1003280024F0F28E23C032F0010E32649EEF01F009
:10033800A0EF01F0B2EF01F0010E326EF29E100E46
:100348000001806F000E816F000E826F000E836FB8
:1003580032C084F0856B79EC0EF0F28E000E1A6EC6
:10036800010E196E19C046F01AC047F032C048F0A5
:10037800DAEC0CF0000E186E010E176EF29E200ECD
:100388000001806F000E816F000E826F000E836F78
:10039800F0EC0DF080C023F081C024F0F28E2350E1
:1003A8001D6E1E6A1E5009E1310E1D5CD8A0DFEFDC
:1003B80001F0E1EF01F0ECEF01F01E5009E13B0E16
:1003C8001D5CD8A0EAEF01F0ECEF01F001EF02F0BC
:1003D800000E1E6E310E1D6EF29E200E0001806F03
:1003E800000E816F000E826F000E836F1DC084F0B7
:1003F8001EC085F079EC0EF0F28EF29E600E0001C0
:10040800806F000E816F000E826F000E836FF0EC1C
:100418000DF080C023F081C024F0F28E23C02FF0AD
:100428002F0E2F641AEF02F01CEF02F024EF02F0F7
:10043800350E2F6422EF02F024EF02F062EF02F093
:10044800300E2F6E000E1C6E000E1B6EF29E600E9C
:100458000001806F000E816F000E826F000E836FA7
:100468002FC084F0856B79EC0EF0F28E88EF02F0E5
:10047800000E1C6E000E1B6E300E2F6E88EF02F001
:10048800030E1C6EE80E1B6E88EF02F0070E1C6E42
:10049800D00E1B6E88EF02F00B0E1C6EB80E1B6E92
:1004A80088EF02F00F0E1C6EA00E1B6E88EF02F094
:1004B800130E1C6E880E1B6E88EF02F02F50000181
:1004C800866F876B8751000AD8B46DEF02F03CEF56
:1004D80002F08651300AD8B43CEF02F0010AD8B4D1
:1004E80044EF02F0030AD8B44AEF02F0010AD8B484
:1004F80050EF02F0070AD8B456EF02F0010AD8B458
:100508005CEF02F03CEF02F0F29E500E0001806FAB
:10051800000E816F000E826F000E836FF0EC0DF0FD
:1005280080C023F081C024F0F28E23C02DF0960EF7
:100538002D64A1EF02F0A3EF02F0BBEF02F0000E72
:100548002D6EF29E500E0001806F000E816F000E1E
:10055800826F000E836F2DC084F0856B79EC0EF0EE
:10056800F28E000E206E000E1F6EBEEF02F02DC040
:100578001FF0206AF29E400E0001806F000E816F0E
:10058800000E826F000E836FF0EC0DF080C023F038
:1005980081C024F0F28E23C02EF0810E2E18D8B41C
:1005A800D8EF02F0DAEF02F036EF03F0820E2E18E1
:1005B800D8B4E1EF02F0E3EF02F036EF03F0830E78
:1005C8002E18D8B4EAEF02F0ECEF02F036EF03F0A1
:1005D800840E2E18D8B4F3EF02F0F5EF02F036EFE0
:1005E80003F0850E2E18D8B4FCEF02F0FEEF02F0EF
:1005F80036EF03F0070E576ED00E566E820E2E6E33
:10060800F29E400E0001806F000E816F000E826F17
:10061800000E836F2EC084F0856B79EC0EF0F28E9D
:1006280058EF03F0030E576EE80E566E58EF03F0BE
:10063800070E576ED00E566E820E2E6E58EF03F0D0
:100648000B0E576EB80E566E58EF03F00F0E576E1E
:10065800A00E566E58EF03F0130E576E880E566EA6
:1006680058EF03F02E500001866F876B8751000A00
:10067800D8B441EF03F01CEF03F08651810AD8B4D7
:1006880016EF03F0030AD8B41CEF03F0010AD8B43C
:1006980024EF03F0070AD8B42AEF03F0010AD8B40C
:1006A80030EF03F01CEF03F03F0E586EF29E300E51
:1006B8000001806F000E816F000E826F000E836F45
:1006C800F0EC0DF080C023F081C024F0F28E23C03E
:1006D80058F05850D8B473EF03F075EF03F099EF62
:1006E80003F03F0E5818D8B47CEF03F07EEF03F008
:1006F80099EF03F07F0E5818D8B485EF03F087EF11
:1007080003F099EF03F03F0E586EF29E300E000191
:10071800806F000E816F000E826F000E836F58C0CD
:1007280084F0856B79EC0EF0F28E1E0E526E000E80
:10073800536E000E546E000E556E40EC0AF08C920B
:1007480004001E0E526E000E536E000E546E000E04
:10075800556EE2EC0EF0F7EF06F017C019F018C06E
:100768001AF081B8BAEF03F0BCEF03F0DCEF03F046
:1007780081B4C1EF03F0C3EF03F0C5EF03F0C3EC9E
:100788000EF0325052EC0EF0020E0001876F040E8C
:10079800866FBA0EE82EFED7862FFCD7872FFAD79A
:1007A80000F081A8DAEF03F0DCEF03F0BCEF03F010
:1007B80081B6E1EF03F0E3EF03F0FAEF03F0630E25
:1007C80019181A10D8B4EBEF03F0EDEF03F0FAEFB5
:1007D80003F0010E1924196E000E1A201A6E81A654
:1007E800F8EF03F0FAEF03F0F3EF03F080BAFFEF4E
:1007F80003F001EF04F017EF04F019501A10D8B401
:1008080008EF04F00AEF04F017EF04F0FF0E1924C4
:10081800196EFF0E1A201A6E80AA15EF04F017EF52
:1008280004F010EF04F080B81CEF04F01EEF04F0A1
:1008380036EF04F01A5007E15A0E195CD8B027EFCA
:1008480004F029EF04F036EF04F00A0E1924196EAB
:10085800000E1A201A6E80A834EF04F036EF04F068
:100868002FEF04F080B63BEF04F03DEF04F055EFB6
:1008780004F01A5009E10A0E195CD8A046EF04F0FA
:1008880048EF04F055EF04F0F60E1924196EFF0E28
:100898001A201A6E80A653EF04F055EF04F04EEFBD
:1008A80004F019C017F01AC018F019C046F01AC0A1
:1008B80047F032C048F0DAEC0CF081B466EF04F08F
:1008C80068EF04F078EF04F0010E336E1E0E526EDE
:1008D800000E536E000E546E000E556E0FEC07F0AE
:1008E800000E356E000E336E3704D8A47EEF04F088
:1008F80080EF04F0F3EF06F0C5EF06F0F10E0318F1
:10090800D8A489EF04F08BEF04F0A7EF04F033507C
:10091800D8A491EF04F093EF04F0A7EF04F0000ED1
:10092800356E010E336E17C019F018C01AF01E0E7E
:10093800526E000E536E000E546E000E556EA7ECEC
:1009480008F005EF05F0F20E0318D8A4AEEF04F096
:10095800B0EF04F005EF05F03350D8A4B6EF04F07B
:10096800B8EF04F005EF05F0000E356E010E336E9A
:1009780017C019F018C01AF019C046F01AC047F08D
:1009880032C048F0DAEC0CF01E0E526E000E536EB8
:10099800000E546E000E556E0FEC07F03550D8A4BB
:1009A800D8EF04F0DAEF04F005EF05F0A50E00012A
:1009B800606F440E616FF90E626F3D0E636F5A0EE1
:1009C800646FF29E000E166E000E156E165009E149
:1009D800050E155CD8A0F3EF04F0F5EF04F0F7EF7F
:1009E80004F004EF05F0600E1524D96E000E1620F1
:1009F800DA6EDF50E9EC0FF0154A162AEAEF04F038
:100A0800F28E01EC0FF01EEC0FF0000E356E000EAA
:100A1800336EEBEF06F03350D8A415EF05F017EF5F
:100A280005F0EBEF06F0010E336E03C02FF043EF35
:100A380005F0000E1C6E000E1B6E300E2F6E68EF58
:100A480005F0030E1C6EE80E1B6E68EF05F0070E2E
:100A58001C6ED00E1B6E68EF05F00B0E1C6EB80EE8
:100A68001B6E68EF05F00F0E1C6EA00E1B6E68EF74
:100A780005F0130E1C6E880E1B6E68EF05F02F50E4
:100A8800866F876B8751000AD8B44DEF05F01DEFCC
:100A980005F08651300AD8B41DEF05F0010AD8B424
:100AA80025EF05F0030AD8B42BEF05F0010AD8B4F6
:100AB80031EF05F0070AD8B437EF05F0010AD8B4CA
:100AC8003DEF05F01DEF05F0F29E600E806F000E01
:100AD800816F000E826F000E836F2FC084F0856BCC
:100AE80079EC0EF0F28E01EC0FF00BEF05F03350BD
:100AF800D8A481EF05F083EF05F0EBEF06F0035083
:100B0800D8A489EF05F08BEF05F0FCEF05F0010E96
:100B1800336EF29E600E806F000E816F000E826F42
:100B2800000E836FF0EC0DF0000180512F6E400E27
:100B3800806F000E816F000E826F000E836FF0ECE5
:100B48000DF0000180512E6E300E806F000E816F07
:100B5800000E826F000E836FF0EC0DF080C021F064
:100B680081C022F0500E0001806F000E816F000ED0
:100B7800826F000E836FF0EC0DF0000180512D6E36
:100B8800F28E510E606F2FC061F021C062F02EC04E
:100B980063F02DC064F0020E0001876F040E866FAB
:100BA800BA0EE82EFED7862FFCD7872FFAD700F08B
:100BB800F29E000E166E000E156E165009E1050E17
:100BC800155CD8A0EAEF05F0ECEF05F0EEEF05F0C4
:100BD800FBEF05F0600E1524D96E000E1620DA6EB4
:100BE800DF50E9EC0FF0154A162AE1EF05F0F28E16
:100BF8001EEC0FF00BEF05F03350D8A406EF06F00B
:100C080008EF06F0EBEF06F0010E336E03C02CF090
:100C18001AEF06F0000E586E33EF06F03F0E586ECE
:100C280033EF06F07F0E586E33EF06F02C50866FC8
:100C3800876B8751000AD8B424EF06F012EF06F04C
:100C48008651000AD8B40EEF06F03F0AD8B412EF66
:100C580006F0400AD8B416EF06F012EF06F0F29E3E
:100C6800300E806F000E816F000E826F000E836F52
:100C780058C084F0856B79EC0EF0F28E0BEF05F01E
:100C88003350D8A44AEF06F04CEF06F0A4EF06F074
:100C9800010E336E03C02EF072EF06F0030E576E8E
:100CA800E80E566E93EF06F0070E576ED00E566E8E
:100CB800820E2E6E93EF06F00B0E576EB80E566E20
:100CC80093EF06F00F0E576EA00E566E93EF06F0D8
:100CD800130E576E880E566E93EF06F02E50866FE1
:100CE800876B8751000AD8B47CEF06F058EF06F0FE
:100CF8008651810AD8B452EF06F0030AD8B458EFE7
:100D080006F0010AD8B460EF06F0070AD8B466EF17
:100D180006F0010AD8B46CEF06F058EF06F0F29E20
:100D2800400E806F000E816F000E826F000E836F81
:100D38002EC084F0856B79EC0EF0F28E000E336EC7
:100D48003350D8A4AAEF06F0ACEF06F0EBEF06F0AC
:100D5800010E336E03C02DF02DC01FF0206AF29EE5
:100D6800500E0001806F000E816F000E826F000E22
:100D7800836F2DC084F0856B79EC0EF0F28E0BEF4B
:100D880005F002500001866F876B8751000AD8B4BE
:100D9800D0EF06F0EBEF06F08651230AD8B40FEF38
:100DA80005F0670AD8B482EF04F0150AD8B47BEFCF
:100DB80005F0350AD8B400EF06F0010AD8B444EFBC
:100DC80006F0030AD8B4A4EF06F0EBEF06F0000E25
:100DD800376E000E366E000E306EA4EF03F0000E74
:100DE800306EA4EF03F030500001866F876B875197
:100DF800000AD8B402EF07F0A4EF03F08651000A06
:100E0800D8B4B1EF03F0020AD8B478EF04F0A4EF35
:100E180003F04DEF01F096EF08F03204D8A417EF75
:100E280007F019EF07F037EF07F019501A10D8B488
:100E380020EF07F022EF07F037EF07F08B8256C05C
:100E48003EF057C03FF071EC0FF08B92040E4A6EE3
:100E58000C0E496E340EE82EFED7492EFCD74A2ECA
:100E6800FAD765EF07F03250D8A43DEF07F03FEF0F
:100E780007F065EF07F019501A10D8B446EF07F0DD
:100E880048EF07F065EF07F08B9219501A10D8B4A5
:100E980050EF07F052EF07F05AEF07F056C03EF058
:100EA80057C03FF071EC0FF065EF07F0060E4A6E81
:100EB800130E496EAE0EE82EFED7492EFCD74A2EE9
:100EC800FAD78984040025EC0EF0E2EC0EF01BC082
:100ED8003EF01CC03FF071EC0FF022EC10F0040E55
:100EE8004A6E8E0E496E120EE82EFED7492EFCD79A
:100EF8004A2EFAD700D01E0E526E000E536E000E08
:100F0800546E000E556EC0EC0FF03EC013F03FC09B
:100F180014F05250531054105510D8A496EF07F0FF
:100F280098EF07F09DEF07F0310E46EC0BF027EC39
:100F380010F013501410D8A4A4EF07F0A6EF07F090
:100F480087EF07F04E0E496EEB0EE82EFED7492EBE
:100F5800FCD700F01E0E526E000E536E000E546E3B
:100F6800000E556EC0EC0FF03EC013F03FC014F0F9
:100F78005250531054105510D8A4C5EF07F0C7EFBE
:100F880007F0CCEF07F0320E46EC0BF027EC10F030
:100F980013041410D8A4D3EF07F0D5EF07F0B6EF79
:100FA80007F01E0E526E000E536E000E546E000EA9
:100FB800556E1FC03EF020C03FF071EC0FF027ECDB
:100FC80010F03204D8A4EBEF07F0EDEF07F00BEFC9
:100FD80008F019501A10D8B4F4EF07F0F6EF07F03C
:100FE8000BEF08F08B8256C03EF057C03FF071EC13
:100FF8000FF08B92040E4A6E0C0E496E340EE82EDA
:10100800FED7492EFCD74A2EFAD739EF08F03250CE
:10101800D8A411EF08F013EF08F039EF08F01950D1
:101028001A10D8B41AEF08F01CEF08F039EF08F0DE
:101038008B9219501A10D8B424EF08F026EF08F054
:101048002EEF08F056C03EF057C03FF071EC0FF09D
:1010580039EF08F0060E4A6E130E496EAE0EE82EF2
:10106800FED7492EFCD74A2EFAD71906D8A01A0659
:1010780019C046F01AC047F032C048F0DAEC0CF05C
:10108800CB0E4A6EEC0E496E840EE82EFED7492E22
:10109800FCD74A2EFAD700D0CB0E4A6EEC0E496E1A
:1010A800840EE82EFED7492EFCD74A2EFAD700D058
:1010B800CB0E4A6EEC0E496E840EE82EFED7492EF2
:1010C800FCD74A2EFAD700D0CB0E4A6EEC0E496EEA
:1010D800840EE82EFED7492EFCD74A2EFAD700D028
:1010E800CB0E4A6EEC0E496E840EE82EFED7492EC2
:1010F800FCD74A2EFAD700D0CB0E4A6EEC0E496EBA
:10110800840EE82EFED7492EFCD74A2EFAD700D0F7
:101118003504D8A492EF08F094EF08F096EF08F0A1
:101128009FEF08F019501A10D8A49DEF08F09FEF10
:1011380008F011EF07F08994000E1A6E000E196E70
:10114800000E306E1200000E146E000E136E410E6B
:10115800C6EC0AF03204D8A4B4EF08F0B6EF08F0F1
:10116800CBEF08F08B8256C03EF057C03FF071ECD1
:101178000FF08B92040E486E0C0E476E340EE82E5C
:10118800FED7472EFCD7482EFAD7CEEF08F08B9221
:10119800BEEF08F089847EEF09F0040025EC0EF01C
:1011A800E2EC0EF01BC03EF01CC03FF071EC0FF0FB
:1011B80022EC10F0040E486E8E0E476E120EE82ECA
:1011C800FED7472EFCD7482EFAD700D01E0E526EF7
:1011D800000E536E000E546E000E556EC0EC0FF0EC
:1011E8003EC013F03FC014F0525053105410551025
:1011F800D8A401EF09F003EF09F008EF09F0310E68
:1012080046EC0BF027EC10F013501410D8A40FEF95
:1012180009F011EF09F0F2EF08F04E0E476EEB0EF1
:10122800E82EFED7472EFCD700F01E0E526E000E99
:10123800536E000E546E000E556EC0EC0FF03EC09B
:1012480013F03FC014F05250531054105510D8A446
:1012580030EF09F032EF09F037EF09F0320E46ECC3
:101268000BF027EC10F013041410D8A43EEF09F08B
:1012780040EF09F021EF09F01E0E526E000E536E7A
:10128800000E546E000E556E1FC03EF020C03FF099
:1012980071EC0FF027EC10F03204D8A456EF09F0E7
:1012A80058EF09F06DEF09F08B8256C03EF057C039
:1012B8003FF071EC0FF08B92040E486E0C0E476EE7
:1012C800340EE82EFED7472EFCD7482EFAD774EFF7
:1012D80009F08B9256C03EF057C03FF071EC0FF00A
:1012E8003504D8A47AEF09F07CEF09F07EEF09F015
:1012F80086EF09F03550D8B484EF09F086EF09F08D
:10130800D1EF08F0899419501A10D8B48EEF09F06B
:1013180090EF09F098EF09F03504D8A496EF09F09A
:1013280098EF09F0B3EF09F03204D8A49EEF09F062
:10133800A0EF09F0B3EF09F08B8256C03EF057C01A
:101348003FF071EC0FF08B92040E486E0C0E476E56
:10135800340EE82EFED7472EFCD7482EFAD7000EBB
:101368001A6E000E196E020E306E1200000E476ED5
:1013780045BEC3EF09F0C1EF09F0CDEF09F0451EF6
:10138800441E431E426C000E432244224522010E95
:10139800476E41BED4EF09F0D2EF09F0DEEF09F055
:1013A800411E401E3F1E3E6C000E3F22402241223D
:1013B800010E471A000E486E000E496E000E4A6E66
:1013C800000E4B6E4250431044104510D8B4EFEF56
:1013D80009F0F1EF09F027EF0AF0010E466EFBEF76
:1013E80009F0D8904236433644364536462A45AE4B
:1013F80000EF0AF002EF0AF0F5EF09F0D89048364E
:1014080049364A364B3642503E5C43503F5844506A
:10141800405845504158D8A014EF0AF016EF0AF08A
:101428001FEF0AF042503E5E43503F5A4450405A24
:101438004550415A4880D89045324432433242326E
:10144800462E02EF0AF04750D8B42DEF0AF02FEFDE
:101458000AF037EF0AF04B1E4A1E491E486C000E70
:1014680049224A224B2248C03EF049C03FF04AC0B8
:1014780040F04BC041F01200898422EC10F0040EB9
:10148800486E8E0E476E120EE82EFED7472EFCD7FA
:10149800482EFAD700D01E0E526E000E536E000E64
:1014A800546E000E556EC0EC0FF03EC013F03FC0F6
:1014B80014F05250531054105510D8A466EF0AF087
:1014C80068EF0AF06DEF0AF0310E46EC0BF027ECEE
:1014D80010F013501410D8A474EF0AF076EF0AF045
:1014E80057EF0AF04E0E476EEB0EE82EFED7472E4A
:1014F800FCD700F01E0E526E000E536E000E546E96
:10150800000E556EC0EC0FF03EC013F03FC014F053
:101518005250531054105510D8A495EF0AF097EF75
:101528000AF09CEF0AF0320E46EC0BF027EC10F0B4
:1015380013041410D8A4A3EF0AF0A5EF0AF086EF5D
:101548000AF01E0E526E000E536E000E546E000E00
:10155800556E1FC03EF020C03FF071EC0FF027EC35
:1015680010F0060E486E130E476EAE0EE82EFED72C
:10157800472EFCD7482EFAD7000E146E000E136EB5
:1015880089941200466E8B98000E77EC0DF08B88CC
:101598008B98000E77EC0DF012EF0BF0790E77ECCC
:1015A8000DF03F0E77EC0DF03FEF0BF03F0E77ECB0
:1015B8000DF0730E77EC0DF03FEF0BF0390E77EC72
:1015C8000DF0770E77EC0DF03FEF0BF0000E77EC97
:1015D8000DF0000E77EC0DF03FEF0BF0000E77ECFE
:1015E8000DF03F0E77EC0DF03FEF0BF0790E77EC36
:1015F8000DF0060E77EC0DF03FEF0BF0770E77EC61
:101608000DF03E0E77EC0DF03FEF0BF0000E77EC8F
:101618000DF03E0E77EC0DF03FEF0BF04650446EA8
:10162800456A4550000AD8B41CEF0BF03FEF0BF0A9
:101638004450410AD8B402EF0BF0020AD8B4E2EFE2
:101648000AF0060AD8B4D2EF0AF0020AD8B4F2EFC8
:101658000AF0080AD8B4DAEF0AF01C0AD8B4FAEF8C
:101668000AF0050AD8B40AEF0BF00E0AD8B4EAEF6C
:101678000AF03FEF0BF08B888B980D0E77EC0DF08E
:101688008B881200466E8B98000E77EC0DF08B88D5
:101698008B98000E77EC0DF08AEF0BF0790E77EC53
:1016A8000DF0770E77EC0DF0B3EF0BF0790E77ECC9
:1016B8000DF03F0E77EC0DF0B3EF0BF0790E77ECF1
:1016C8000DF0060E77EC0DF0B3EF0BF0790E77EC1A
:1016D8000DF05B0E77EC0DF0B3EF0BF0000E77EC2E
:1016E8000DF03F0E77EC0DF0B3EF0BF0790E77ECC1
:1016F8000DF0060E77EC0DF0B3EF0BF0770E77ECEC
:101708000DF03E0E77EC0DF0B3EF0BF04650446E43
:10171800456A4550000AD8B494EF0BF0B3EF0BF0CC
:101728004450300AD8B45AEF0BF0010AD8B462EF2B
:101738000BF0030AD8B46AEF0BF0730AD8B482EF3F
:101748000BF0040AD8B452EF0BF0020AD8B472EFC7
:101758000BF0140AD8B47AEF0BF0B3EF0BF08B88C8
:101768008B980D0E77EC0DF08B881200E8EF0BF0DC
:101778003F0E426E1EEF0CF0060E426E1EEF0CF08E
:101788005B0E426E1EEF0CF04F0E426E1EEF0CF019
:10179800660E426E1EEF0CF06D0E426E1EEF0CF0E0
:1017A8007D0E426E1EEF0CF0070E426E1EEF0CF01F
:1017B8007F0E426E1EEF0CF06F0E426E1EEF0CF0A5
:1017C800000E426E1EEF0CF03EC040F03FC041F0EC
:1017D8004150000AD8B4F3EF0BF0E4EF0BF040509F
:1017E800000AD8B4BCEF0BF0010AD8B4C0EF0BF074
:1017F800030AD8B4C4EF0BF0010AD8B4C8EF0BF051
:10180800070AD8B4CCEF0BF0010AD8B4D0EF0BF02C
:10181800030AD8B4D4EF0BF0010AD8B4D8EF0BF010
:101828000F0AD8B4DCEF0BF0010AD8B4E0EF0BF0E4
:10183800E4EF0BF042501200000E436E41BE29EF58
:101848000CF027EF0CF02FEF0CF0406C411ED8B0D5
:10185800412A010E436E3FBE36EF0CF034EF0CF018
:101868003CEF0CF03E6C3F1ED8B03F2A010E431AE5
:10187800000E456E000E446E40504110D8B447EF3C
:101888000CF049EF0CF071EF0CF0010E426E51EFC5
:101898000CF0D89040364136422A41AE56EF0CF053
:1018A80058EF0CF04DEF0CF0D890443645364050C8
:1018B8003E5C41503F58D8A064EF0CF066EF0CF046
:1018C8006BEF0CF040503E5E41503F5A4480D89038
:1018D80041324032422E58EF0CF04350D8B477EFE3
:1018E8000CF079EF0CF07DEF0CF0446C451ED8B08D
:1018F800452A44C03EF045C03FF01200000E436E3A
:101908003FBE8BEF0CF089EF0CF091EF0CF03E6CC2
:101918003F1ED8B03F2A010E436E41BE98EF0CF02F
:1019280096EF0CF09CEF0CF0406C411ED8B0412AA9
:1019380040504110D8B4A3EF0CF0A5EF0CF0C9EF5C
:101948000CF0010E426EADEF0CF0D89040364136E7
:10195800422A41AEB2EF0CF0B4EF0CF0A9EF0CF054
:1019680040503E5C41503F58D8A0BDEF0CF0BFEF4F
:101978000CF0C3EF0CF040503E5E41503F5AD890F7
:1019880041324032422EB4EF0CF04350D8B4CFEF7E
:101998000CF0D1EF0CF0D5EF0CF03E6C3F1ED8B038
:1019A8003F2A3EC03EF03FC03FF0120046C03EF026
:1019B80047C03FF0000E416E0A0E406E82EC0CF0FC
:1019C8003EC080F03FC081F046C03EF047C03FF0C7
:1019D800000E416E0A0E406E20EC0CF03EC082F004
:1019E8003FC083F08B98000E77EC0DF08B888B98B6
:1019F800000E77EC0DF082C03EF083C03FF0BAECE9
:101A08000BF00001856F80C03EF081C03FF0BAEC5A
:101A18000BF00001846F4850D8B415EF0DF017EFA4
:101A28000DF023EF0DF04828D8A41DEF0DF01FEF9F
:101A38000DF022EF0DF0858F23EF0DF0848F855187
:101A480077EC0DF00001845177EC0DF08B888B98C2
:101A58000D0E77EC0DF08B881200466E8B888B98F4
:101A6800300E77EC0DF08B888B98300E77EC0DF0FC
:101A780046C044F0443A0F0E4416050E456ED89001
:101A88004436452E43EF0DF04450050977EC0DF030
:101A98008B888B98110E77EC0DF08B888B98110E34
:101AA80077EC0DF0465077EC0DF0465077EC0DF0E2
:101AB800465077EC0DF08B888B98180E77EC0DF06C
:101AC8008B888B98180E77EC0DF0465077EC0DF05C
:101AD800465077EC0DF0465077EC0DF0465077EC19
:101AE8000DF08B881200406E000E426E8B9642C03D
:101AF8003EF0010E3F6E3E2A84EF0DF0D8903F363F
:101B08003E2E82EF0DF03F504014416E4150D8B444
:101B180090EF0DF092EF0DF095EF0DF08B8A96EFA8
:101B28000DF08B9A000E436E432A040E43649FEF18
:101B38000DF0A1EF0DF098EF0DF08B86000E436EBF
:101B4800432A040E4364ABEF0DF0ADEF0DF0A4EFA4
:101B58000DF0422A070E4264B4EF0DF0B6EF0DF017
:101B68007AEF0DF01200FB0E926E9368840E946E5D
:101B7800C00E956E000E966E000E976E050E986E4E
:101B8800C29EC29CC290C18EC19CC19AC188C19696
:101B9800C184C192C190C088C190C182C184C186EC
:101BA800C188C18EC098F28E030ED312700ED31264
:101BB800000EC46E000EC36EC294C296C298C29A3A
:101BC800C18CC280C282C2B2ECEF0DF0EEEF0DF014
:101BD800E7EF0DF0C19C120034EC10F0000E3F6EE0
:101BE800A00EFFEC0FF080C03EF081C03FF082C035
:101BF80040F083C041F0000E426E010E436E000EAD
:101C0800446E000E456EBAEC09F03E5010EC10F030
:101C18000001805110EC10F02CEC10F0010E3F6E1A
:101C2800A00EFFEC0FF0000E3BEC0FF03FC04CF0A5
:101C380040C04DF030EC10F04CC080F04DC081F049
:101C48001200A50E0001606F450E616F000E626FF5
:101C5800450E636F5A0E646FF29E000E416E000EC1
:101C6800406E600E4024D96E000E4120DA6EDF50BF
:101C7800E9EC0FF0404A412A41BE4CEF0EF04150CA
:101C880009E1050E405CD8A04CEF0EF04EEF0EF0C7
:101C980035EF0EF0F28E1EEC0FF01200446E8B98AA
:101CA800000E77EC0DF08B888B98000E77EC0DF01A
:101CB8004404D8A462EF0EF064EF0EF06CEF0EF05F
:101CC800000E77EC0DF0BE0E77EC0DF072EF0EF013
:101CD800000E77EC0DF03E0E77EC0DF08B888B98AC
:101CE8000D0E77EC0DF08B88120034EC10F0000E1E
:101CF8003F6EA00EFFEC0FF080C03EF081C03FF0B9
:101D080082C040F083C041F0000E426E010E436E67
:101D1800000E446E000E456EBAEC09F03E5010EC11
:101D280010F00001805110EC10F00001845110EC0B
:101D380010F030EC10F01200380EF66E200EF76E30
:101D4800000EF86E00EE4EF010EE0BF00900F5CF25
:101D5800EEFFE550E150FAE100EE60F0200EEE6A89
:101D6800E806FDE100EE01F0370EEE6AE806FDE157
:101D780059905992000EF86E00014FEF01F0325061
:101D8800D8B4C9EF0EF0CBEF0EF0CFEF0EF0000E87
:101D9800326ED1EF0EF0010E326EF29E100E00017F
:101DA800806F000E816F000E826F000E836F32C04D
:101DB80084F0856B79EC0EF0F28E1200C294C29614
:101DC800C298C29AC280000E3F6E050E3E6E71EC3C
:101DD8000FF0C282C2B2F3EF0EF0F5EF0EF0EEEFA5
:101DE8000EF0C350C4CF41F0426A41C042F0416A8C
:101DF8004110116E4250126E1200000E3F6E000E1E
:101E08003E6E010E3E24D96E000E3F20DA6E000EA3
:101E1800DF6E3E4A3F2A3FBE1BEF0FF03F5009E1FD
:101E2800100E3E5CD8A01BEF0FF01DEF0FF005EF72
:101E38000FF01200000E3F6E000E3E6E600E3E2444
:101E4800D96E000E3F20DA6E000EDF6E3E4A3F2A42
:101E58003FBE38EF0FF03F5009E1100E3E5CD8A0AE
:101E680038EF0FF03AEF0FF022EF0FF01200416E4B
:101E78009AEC0FF06B869AEC0FF06FCF42F09AEC69
:101E88000FF04150D8B44BEF0FF04DEF0FF050EF7B
:101E98000FF06B9A51EF0FF06B8A6B8842C03FF0DE
:101EA800406A1200670E115C030E1258D8B05FEF3B
:101EB8000FF061EF0FF064EF0FF08C8270EF0FF00E
:101EC800C00E115C030E1258D8A06DEF0FF06FEF23
:101ED8000FF070EF0FF08C9212007DEF0FF0030EF1
:101EE800406E980EE82EFED7402EFCD73E06D8A0AE
:101EF8003F063E503F10D8A484EF0FF086EF0FF056
:101F080073EF0FF01200949C948EAD98AD9CAD8A3F
:101F1800AC9CAC88AD9EAC86AC8E7E96AD849D8A1A
:101F28009D98190EB06E000E7F6E12006BCF3EF0BA
:101F38001F0E3E16D8A4A3EF0FF0A5EF0FF09AEFEF
:101F48000FF06DB4AAEF0FF0ACEF0FF09AEF0FF0AF
:101F58001200ACA2B2EF0FF0B4EF0FF0BCEF0FF02D
:101F6800AC98AFCF38F0AFCF38F0AC88BEEF0FF0F9
:101F7800AFCF38F03850120080A2C5EF0FF0C7EF8E
:101F88000FF0CDEF0FF0000E3F6E000E3E6ED1EF5A
:101F98000FF0000E3F6E010E3E6E1200310ECD6E38
:101FA8009E0ECF6E570ECE6E9E909D809F80000E27
:101FB8002B6E1200958A958C280E6C6E000E6B6E37
:101FC800270E6E6EC00E6D6E12003E6E3EC0AEFFE6
:101FD800ADA2F1EF0FF0F3EF0FF0ECEF0FF01200FE
:101FE800386E38C0AEFFADA2FCEF0FF0FEEF0FF079
:101FF800F7EF0FF01200406E40C041F03F5041260D
:102008009AEC0FF041C06FFF1200C70E776E7996F9
:10201800798C000E766E12003F6E9AEC0FF03FC07E
:102028006FFF12000C0E736E58C074FF7684120096
:0B203800140000001E000000D0073F55
:102044008F868F8816EC10F0120038EC10F08F8613
:102054008F8812009AEC0FF06B8212009AEC0FF04A
:102064006B8412009AEC0FF06B801200000E736EFA
:04207400769412004C
:067FF800AEF703FBF8F1F7
:00000001FF
