:04000000E5EF01F037
:100008005F82E9CFA8F0EACFA9F0E1CFAAF0E2CF6A
:10001800ABF0D9CFACF0DACFADF0F3CFAEF0F4CF90
:10002800AFF0F6CFB0F0F7CFB1F0F8CFB2F0F5CF30
:10003800B3F09EAA22EF00F024EF00F001EF01F0E8
:10004800B2EC2DF00001B56FA50EB519D8A42FEFAD
:1000580000F031EF00F056EF00F001015951D8B42B
:1000680038EF00F03AEF00F042EF00F05705D8A45F
:1000780040EF00F042EF00F056EF00F0010E0001F3
:10008800D46F000ECF6F000ECE6F200ECE25D96E26
:10009800010ECF21DA6EB5C0DFFF0001CE4BCF2BAA
:1000A8002BEF01F00001D405D8A45DEF00F05FEF5D
:1000B80000F02BEF01F0200ECE25D96E010ECF21D6
:1000C800DA6EB5C0DFFFCF5107E1050ECE5DD8B0BF
:1000D80070EF00F072EF00F0FDEF00F05A0EB51966
:1000E800D8A479EF00F07BEF00F051EF00F00101A8
:1000F800215122250001B46FB45101012319D8A45C
:1001080088EF00F08AEF00F0D0EF00F05751D8B434
:1001180090EF00F092EF00F09BEF00F0F50E22193F
:10012800D8A499EF00F09BEF00F0B3EF00F0000EB9
:100138000001B66F200EB625D96EDA6A010EDA22F2
:10014800DF500EEC2EF00001B62B040EB665AFEFB3
:1001580000F0B1EF00F09EEF00F0C3EF00F0000EEA
:100168000001B66F160E0EEC2EF00001B62B040E31
:10017800B665C1EF00F0C3EF00F0B6EF00F0010E76
:100188000101596F000E0001CF6F000ECE6F020EF5
:100198000101556FE6EF00F0000E596F000E0001E7
:1001A800CF6F000ECE6F000EB66F150E0EEC2EF050
:1001B8000001B62B040EB665E4EF00F0E6EF00F0A0
:1001C800D9EF00F0F50E01012219D8A4EEEF00F0E6
:1001D800F0EF00F051EF00F0020E5519D8A4F7EF38
:1001E80000F0F9EF00F051EF00F0010E586F51EFF9
:1001F80000F0000ED46F51EF00F0A4AA06EF01F052
:1002080008EF01F021EF01F0000E0101556F4AC11E
:100218008BF04BC18CF076C18DF077C18EF078C130
:100228008FF079C190F07CC191F07DC192F056C1F8
:1002380093F084EC17F02BEF01F0ACA226EF01F05D
:1002480028EF01F02BEF01F0AC92AC98AC880001DC
:10025800D105D8A432EF01F034EF01F07DEF01F0C1
:10026800010179BF42EF01F079517811771108E166
:100278007605D8A042EF01F044EF01F04EEF01F00F
:10028800FF0E7627FF0E7723FF0E7823FF0E7923C4
:1002980056EF01F0000E766F000E776F000E786F44
:1002A800000E796F0001F9BF64EF01F0F951F81100
:1002B800F71108E1F605D8A064EF01F066EF01F048
:1002C80070EF01F0FF0EF627FF0EF723FF0EF8235D
:1002D800FF0EF9237AEF01F0140EF66F000EF76F98
:1002E800000EF86F000EF96FB2EC2CF0000E000152
:1002F800D16F9EA082EF01F084EF01F08BEF01F047
:100308009E0ECF6E570ECE6E9E90010ED16FF0A24C
:1003180090EF01F092EF01F0CBEF01F0060E000133
:10032800A76F130EA66FAD0EE82EFED7A62FFCD72B
:10033800A72FFAD700D0010136513711D8A4A7EF5B
:1003480001F0A9EF01F0B6EF01F081A8AEEF01F0DE
:10035800B0EF01F0B6EF01F0000E376F010E366F07
:10036800CAEF01F036053711D8A4BDEF01F0BFEF91
:1003780001F0CAEF01F081A8C4EF01F0C6EF01F067
:10038800CAEF01F0000E376F000E366FF092B3C05F
:10039800F5FFB2C0F8FFB1C0F7FFB0C0F6FFAFC0BD
:1003A800F4FFAEC0F3FFADC0DAFFACC0D9FFABC0FD
:1003B800E2FFAAC0E1FFA9C0EAFFA8C0E9FF5F9277
:0603C8001100DEEF29F038
:10100000004572726F723A20496E76616C69642095
:1010100055415254206E756D6265722E0A005365FB
:101020006E7420726573706F6E736520285541521F
:101030005431293A200052656365697665642064FD
:10104000617461202855415254003078253032585F
:0B105000000D0A002C200025640000A9
:10105C00F29E38EC29F0770E6DEC28F023EC2EF094
:10106C0003EC2EF00AEC2BF0C5EC2DF0F28ED3989D
:10107C00D39AD39CD390D39294949388CA96CA98BB
:10108C00CA9ACA9CFC0ECA16040ECB6ECF0EBB16A7
:10109C00BB50F00B0C09BB6E000EBC6ECA848B925D
:1010AC0089941E0E0101766F000E776F000E786F1B
:1010BC00000E796FD08E9F8AA58AC0908C808C820E
:1010CC00000E636F250E626FFF0E646F64EC27F0E9
:1010DC00060E0101756F130E746FAD0EE82EFED760
:1010EC00742FFCD7752FFAD700D0BCEC2BF0F29EE6
:1010FC00100E0101686F000E696F000E6A6F000E12
:10110C006B6FFFEC28F068C14CF169C14DF1F28EA8
:10111C004CC156F1010E0101566597EF08F099EF9D
:10112C0008F0AAEF08F0010E566FF29E100E686FD1
:10113C00000E696F000E6A6F000E6B6F56C16CF17A
:10114C006D6B3DEC2AF0F28E000E0101456F010E25
:10115C00446F44C162F145C163F156C164F164EC62
:10116C0027F0000E0101416F010E406FF29E200E20
:10117C00686F000E696F000E6A6F000E6B6FFFECEC
:10118C0028F068C14CF169C14DF1F28E01014C514E
:10119C00486F496B495109E1310E485DD8A0D9EF30
:1011AC0008F0DBEF08F0E6EF08F0495109E13B0EDF
:1011BC00485DD8A0E4EF08F0E6EF08F0FAEF08F08D
:1011CC00000E496F310E486FF29E200E686F000EB4
:1011DC00696F000E6A6F000E6B6F48C16CF149C1EC
:1011EC006DF13DEC2AF0F28EF29E600E0101686FFB
:1011FC00000E696F000E6A6F000E6B6FFFEC28F02B
:10120C0068C14CF169C14DF1F28E4CC154F12F0EF5
:10121C000101546514EF09F016EF09F01EEF09F007
:10122C00350E54651CEF09F01EEF09F05BEF09F069
:10123C00300E546F000E476F000E466FF29E600E1C
:10124C00686F000E696F000E6A6F000E6B6F54C1F1
:10125C006CF16D6B3DEC2AF0F28E80EF09F0030E11
:10126C00476FE80E466F80EF09F0070E476FD00E00
:10127C00466F80EF09F00B0E476FB80E466F80EF8C
:10128C0009F00F0E476FA00E466F80EF09F0130E9A
:10129C00476F880E466F80EF09F0000E476F000E07
:1012AC00466F300E546F80EF09F05451746F756BAC
:1012BC007551000AD8B465EF09F053EF09F0745179
:1012CC00300AD8B453EF09F0010AD8B435EF09F05D
:1012DC00030AD8B43BEF09F0010AD8B441EF09F086
:1012EC00070AD8B447EF09F0010AD8B44DEF09F05A
:1012FC0053EF09F0F29E500E0101686F000E696FFA
:10130C00000E6A6F000E6B6FFFEC28F068C14CF199
:10131C0069C14DF1F28E4CC152F1960E010152652C
:10132C009AEF09F09CEF09F0B4EF09F0000E526F40
:10133C00F29E500E686F000E696F000E6A6F000E01
:10134C006B6F52C16CF16D6B3DEC2AF0F28E000E9E
:10135C0001014B6F000E4A6FB7EF09F052C14AF111
:10136C004B6BF29E400E686F000E696F000E6A6F39
:10137C00000E6B6FFFEC28F068C14CF169C14DF1A8
:10138C00F28E4CC153F1810E01015319D8B4D1EF37
:10139C0009F0D3EF09F04CEF0AF0820E5319D8B4D0
:1013AC00DAEF09F0DCEF09F04CEF0AF0830E531979
:1013BC00D8B4E3EF09F0E5EF09F04CEF0AF0840E36
:1013CC005319D8B4ECEF09F0EEEF09F04CEF0AF03A
:1013DC00850E5319D8B4F5EF09F0F7EF09F04CEF7F
:1013EC000AF0860E5319D8B4FEEF09F000EF0AF09C
:1013FC004CEF0AF0870E5319D8B407EF0AF009EF37
:10140C000AF04CEF0AF0070E7D6FD00E7C6F820E47
:10141C00536FF29E400E686F000E696F000E6A6F7C
:10142C00000E6B6F53C16CF16D6B3DEC2AF0F28EBC
:10143C0075EF0AF0030E7D6FE80E7C6F75EF0AF006
:10144C000B0E7D6FB80E7C6F75EF0AF00F0E7D6F73
:10145C00A00E7C6F75EF0AF0130E7D6F880E7C6FFB
:10146C0075EF0AF0030E7D6F200E7C6F75EF0AF09E
:10147C00050E7D6FDC0E7C6F75EF0AF0070E7D6F2D
:10148C00D00E7C6F820E536F75EF0AF05351746F50
:10149C00756B7551000AD8B456EF0AF044EF0AF098
:1014AC007451810AD8B420EF0AF0030AD8B444EF7F
:1014BC000AF0010AD8B426EF0AF0070AD8B42CEFC8
:1014CC000AF0010AD8B432EF0AF0030AD8B438EFA4
:1014DC000AF0010AD8B43EEF0AF044EF0AF03F0ECE
:1014EC0001017E6FF29E300E686F000E696F000E68
:1014FC006A6F000E6B6FFFEC28F068C14CF169C18C
:10150C004DF1F28E4CC17EF101017E51D8B491EFB8
:10151C000AF093EF0AF0B6EF0AF03F0E7E19D8B43A
:10152C009AEF0AF09CEF0AF0B6EF0AF07F0E7E19E4
:10153C00D8B4A3EF0AF0A5EF0AF0B6EF0AF03F0E0D
:10154C007E6FF29E300E686F000E696F000E6A6F30
:10155C00000E6B6F7EC16CF16D6B3DEC2AF0F28E60
:10156C001E0E0101766F000E776F000E786F000E65
:10157C00796FB1EC22F08C92F29E700E0101686FC3
:10158C00000E696F000E6A6F000E6B6FFFEC28F097
:10159C0068C14CF169C14DF1F28E01014C514E6F95
:1015AC004F6B4E514F11D8B4DEEF0AF0E0EF0AF05A
:1015BC003BEF0BF04E054F11D8B4E7EF0AF0E9EF13
:1015CC000AF03BEF0BF0020E4E194F11D8B4F1EFAD
:1015DC000AF0F3EF0AF03BEF0BF0030E4E194F112C
:1015EC00D8B4FBEF0AF0FDEF0AF03BEF0BF0040E62
:1015FC004E194F11D8B405EF0BF007EF0BF03BEF82
:10160C000BF0000E4F6F000E4E6FF29E700E686F57
:10161C00000E696F000E6A6F000E6B6F4EC16CF19D
:10162C004FC16DF13DEC2AF0F28E5DEF0BF0000E28
:10163C00516F000E506F5DEF0BF0000E516F070EE7
:10164C00506F5DEF0BF0000E516F090E506F5DEF98
:10165C000BF0000E516F0C0E506F5DEF0BF0000E87
:10166C00516F140E506F5DEF0BF04EC174F14FC102
:10167C0075F17551000AD8B446EF0BF01DEF0BF065
:10168C007451000AD8B41DEF0BF0010AD8B423EF43
:10169C000BF0030AD8B429EF0BF0010AD8B42FEFE2
:1016AC000BF0070AD8B435EF0BF01DEF0BF0F29EE0
:1016BC00800E0101686F000E696F000E6A6F000EDC
:1016CC006B6FFFEC28F068C14CF169C14DF1F28EE3
:1016DC0001014C517A6F7B6B250E7A197B11D8B4B2
:1016EC007AEF0BF07CEF0BF090EF0BF0000E7B6FB2
:1016FC00250E7A6FF29E800E686F000E696F000ED9
:10170C006A6F000E6B6F7AC16CF17BC16DF13DECB1
:10171C002AF0F28EF29E900E0101686F000E696F36
:10172C00000E6A6F000E6B6FFFEC28F068C14CF175
:10173C0069C14DF1F28E01014C51386F396B38058E
:10174C003911D8B4ACEF0BF0AEEF0BF0CBEF0BF0D4
:10175C0038513911D8B4B5EF0BF0B7EF0BF0CBEF24
:10176C000BF0000E396F010E386FF29E900E686F01
:10177C00000E696F000E6A6F000E6B6F38C16CF152
:10178C0039C16DF13DEC2AF0F28E50C15AF151C1C4
:10179C005BF11DEC2DF004001E0E0101766F000EA6
:1017AC00776F000E786F000E796FBCEC2BF03DEF6D
:1017BC0015F040C144F141C145F181B8E8EF0BF09F
:1017CC00EAEF0BF08AEF0CF04EC160F14FC161F102
:1017DC0056C162F120EC22F0010131BFFFEF0BF09A
:1017EC00E80E305D030E3159D8A0FFEF0BF001EF7E
:1017FC000CF033EF0CF04EC16EF14FC16FF1F1EC08
:10180C0020F06EC150F16FC151F1700E0101686F83
:10181C00000E696F000E6A6F000E6B6FFFEC28F004
:10182C0068C14EF169C14FF1DDEC2BF04EC160F196
:10183C004FC161F156C162F120EC22F0060E01019C
:10184C00756F130E746FAD0EE82EFED7742FFCD788
:10185C00752FFAD700D072EF0CF031BF41EF0CF0BE
:10186C00E80E305D030E3159D8B03FEF0CF041EF6C
:10187C000CF072EF0CF04EC160F14FC161F156C12A
:10188C0062F120EC22F0020E0101756F860E746F6E
:10189C00990EE82EFED7742FFCD7752FFAD7000EB1
:1018AC000101316F000E306F72EF0CF04EC160F120
:1018BC004FC161F156C162F120EC22F01A0E010108
:1018CC00746FF80EE82EFED7742FFCD700F00A0EBA
:1018DC0001013027000E3123010131BF7FEF0CF0E5
:1018EC00E80E305D030E3159D8A07FEF0CF081EF7C
:1018FC000CF05CEF0CF081A886EF0CF088EF0CF08C
:10190C00EAEF0BF08EEF0CF0000E316F000E306F23
:10191C0081B693EF0CF095EF0CF04EEF0DF0630EDB
:10192C0044194511D8B49DEF0CF09FEF0CF04EEF1D
:10193C000DF081B6A4EF0CF0A6EF0CF052EF0DF009
:10194C0035BFB2EF0CF0E80E345D030E3559D8A05C
:10195C00B2EF0CF0B4EF0CF0DCEF0CF0455107E1FA
:10196C005A0E445DD8B0BDEF0CF0BFEF0CF0DCEFBD
:10197C000CF00A0E4425446F000E4521456F44C1FE
:10198C0062F145C163F156C164F164EC27F00B0EB2
:10199C000101756F260E746F5D0EE82EFED7742F45
:1019AC00FCD7752FFAD700D009EF0DF035BFEAEF51
:1019BC000CF0E80E345D030E3559D8B0E8EF0CF09E
:1019CC00EAEF0CF009EF0DF0010E4425446F000E08
:1019DC004521456F44C162F145C163F156C164F1C3
:1019EC0064EC27F0020E0101756F860E746F990E70
:1019FC00E82EFED7742FFCD7752FFAD7000E0101F5
:101A0C00356F000E346F81B60EEF0DF010EF0DF048
:101A1C0034EF0DF080BA15EF0DF017EF0DF034EF39
:101A2C000DF0000E0101456F000E446F44C162F1D0
:101A3C0045C163F156C164F164EC27F034EF0DF04D
:101A4C001A0E0101746FF80EE82EFED7742FFCD716
:101A5C0000F00A0E01013427000E352381B639EF50
:101A6C000DF03BEF0DF04CEF0DF0010135BF48EFE1
:101A7C000DF0E80E345D030E3559D8A048EF0DF08B
:101A8C004AEF0DF026EF0DF052EF0DF052EF0DF086
:101A9C00000E356F000E346F80BA57EF0DF059EF12
:101AAC000DF012EF0EF0010144514511D8B461EF65
:101ABC000DF063EF0DF012EF0EF080BA68EF0DF041
:101ACC006AEF0DF017EF0EF033BF76EF0DF0E80E66
:101ADC00325D030E3359D8A076EF0DF078EF0DF090
:101AEC00A0EF0DF0455109E10A0E445DD8A081EF3D
:101AFC000DF083EF0DF0A0EF0DF0F60E4425446FC2
:101B0C00FF0E4521456F44C162F145C163F156C1D9
:101B1C0064F164EC27F00B0E0101756F260E746FE7
:101B2C005D0EE82EFED7742FFCD7752FFAD700D098
:101B3C00CDEF0DF033BFAEEF0DF0E80E325D030EBE
:101B4C003359D8B0ACEF0DF0AEEF0DF0CDEF0DF08A
:101B5C00FF0E4425446FFF0E4521456F44C162F1D1
:101B6C0045C163F156C164F164EC27F0020E01012A
:101B7C00756F860E746F990EE82EFED7742FFCD7F6
:101B8C00752FFAD7000E0101336F000E326F80BA39
:101B9C00D2EF0DF0D4EF0DF0F8EF0DF081B6D9EFD8
:101BAC000DF0DBEF0DF0F8EF0DF0000E0101456FBD
:101BBC00000E446F44C162F145C163F156C164F13A
:101BCC0064EC27F0F8EF0DF01A0E0101746FF80EAB
:101BDC00E82EFED7742FFCD700F00A0E0101322735
:101BEC00000E332380BAFDEF0DF0FFEF0DF010EF78
:101BFC000EF0010133BF0CEF0EF0E80E325D030E58
:101C0C003359D8A00CEF0EF00EEF0EF0EAEF0DF0FA
:101C1C0017EF0EF017EF0EF0000E0101336F000EF0
:101C2C00326F44C140F145C141F144C162F145C13B
:101C3C0063F156C164F164EC27F0010136053711EC
:101C4C00D8A42BEF0EF02DEF0EF03EEF0EF0010EA0
:101C5C00576F1E0E766F000E776F000E786F000EAA
:101C6C00796F55EC15F0000E0101586F000E576F8F
:101C7C005905D8A444EF0EF046EF0EF039EF15F0ED
:101C8C00FAEF14F0F10E2219D8A44FEF0EF051EF29
:101C9C000EF06DEF0EF05751D8A457EF0EF059EF30
:101CAC000EF06DEF0EF0000E586F010E576F40C125
:101CBC0044F141C145F11E0E766F000E776F000E98
:101CCC00786F000E796FB7EC1CF0E6EF0FF0F20EA8
:101CDC002219D8A474EF0EF076EF0EF0D1EF0FF0BE
:101CEC005751D8A47CEF0EF07EEF0EF0D1EF0FF031
:101CFC00000E376F010E366F010E576F23C144F182
:101D0C00456B44C162F145C163F156C164F164ECA9
:101D1C0027F01E0E0101766F000E776F000E786FA4
:101D2C00000E796F5605D8A49EEF0EF0A0EF0EF0C2
:101D3C00B7EF0EF08B827CC15AF17DC15BF1E9ECFF
:101D4C002CF08B92040E0101756F0C0E746F330E18
:101D5C00E82EFED7742FFCD7752FFAD700D0BAEF28
:101D6C000EF08B92A8EF0EF0898437EC2EF0020E59
:101D7C000101756F860E746F990EE82EFED7742FC5
:101D8C00FCD7752FFAD71E0E0101766F000E776FF8
:101D9C00000E786F000E796F0FEC2AF05AC13CF1EF
:101DAC005BC13DF101017651771178117911D8A4FD
:101DBC00E2EF0EF0E4EF0EF011EF0FF03CEC2EF032
:101DCC00A50E0101006FE10E016F000E026F0151B3
:101DDC000225036F5A0E046F000E3F6F000E3E6F0C
:101DEC003F5109E1050E3E5DD8A0FFEF0EF001EF6B
:101DFC000FF003EF0FF011EF0FF0000E3E25D96E30
:101E0C00010E3F21DA6EDF50F7EC2DF001013E4B55
:101E1C003F2BF6EF0EF03C513D11D8A418EF0FF00C
:101E2C001AEF0FF0D2EF0EF04E0E0101746FEB0EA5
:101E3C00E82EFED7742FFCD71E0E0101766F000E14
:101E4C00776F000E786F000E796F0FEC2AF05AC185
:101E5C003CF15BC13DF1010176517711781179119B
:101E6C00D8A43BEF0FF03DEF0FF06AEF0FF03CEC16
:101E7C002EF0A50E0101006FE20E016F000E026F35
:101E8C0001510225036F5A0E046F000E3F6F000EB6
:101E9C003E6F3F5109E1050E3E5DD8A058EF0FF0A3
:101EAC005AEF0FF05CEF0FF06AEF0FF0000E3E25CB
:101EBC00D96E010E3F21DA6EDF50F7EC2DF00101E7
:101ECC003E4B3F2B4FEF0FF03C053D11D8A471EF6B
:101EDC000FF073EF0FF02BEF0FF01E0E766F000E5E
:101EEC00776F000E786F000E796F4AC15AF14BC1B3
:101EFC005BF1E9EC2CF03CEC2EF001015605D8A47A
:101F0C008AEF0FF08CEF0FF0A3EF0FF08B827CC1F8
:101F1C005AF17DC15BF1E9EC2CF08B92040E0101BE
:101F2C00756F0C0E746F330EE82EFED7742FFCD722
:101F3C00752FFAD700D0A6EF0FF08B9294EF0FF01D
:101F4C00A50E0101006FF90E016F000E026F015119
:101F5C000225036F5A0E046F000E3F6F000E3E6F8A
:101F6C003F5109E1050E3E5DD8A0BFEF0FF0C1EF68
:101F7C000FF0C3EF0FF0E6EF0FF0000E3E25D96E19
:101F8C00010E3F21DA6EDF50F7EC2DF001013E4BD4
:101F9C003F2BB6EF0FF0F50E2219D8A4D8EF0FF0A7
:101FAC00DAEF0FF0E6EF0FF05751D8A4E0EF0FF097
:101FBC00E2EF0FF0E6EF0FF0000E376F000E366F0A
:101FCC003DEC2CF05BEC2CF0000E0101586F000E78
:101FDC00576F2FEF15F02251D8B4F7EF0FF0F9EF40
:101FEC000FF008EF12F05751D8A4FFEF0FF001EFEC
:101FFC0010F008EF12F0000E376F010E366F010E65
:10200C00576F22C144F1456B44C162F145C163F184
:10201C0056C164F164EC27F044C140F145C141F173
:10202C001E0E0101766F000E776F000E786F000E9A
:10203C00796F400E686F000E696F000E6A6F000EAC
:10204C006B6FFFEC28F001016851536F4EEF10F0ED
:10205C00030E7D6FE80E7C6F6FEF10F00B0E7D6F33
:10206C00B80E7C6F6FEF10F00F0E7D6FA00E7C6FB3
:10207C006FEF10F0130E7D6F880E7C6F6FEF10F00A
:10208C00070E7D6FD00E7C6F820E536F6FEF10F0CA
:10209C005351746F756B7551000AD8B458EF10F02A
:1020AC0046EF10F07451810AD8B42EEF10F0030AE9
:1020BC00D8B446EF10F0010AD8B434EF10F0070A88
:1020CC00D8B43AEF10F0010AD8B440EF10F046EF54
:1020DC0010F0600E686F000E696F000E6A6F000ED4
:1020EC006B6FFFEC28F001016851546FA4EF10F0F6
:1020FC00030E476FE80E466FC9EF10F0070E476FDF
:10210C00D00E466FC9EF10F00B0E476FB80E466F2E
:10211C00C9EF10F00F0E476FA00E466FC9EF10F00D
:10212C00130E476F880E466FC9EF10F0000E476F05
:10213C00000E466F300E546FC9EF10F05451746F8F
:10214C00756B7551000AD8B4AEEF10F09CEF10F01F
:10215C007451300AD8B49CEF10F0010AD8B47EEF59
:10216C0010F0030AD8B484EF10F0010AD8B48AEF47
:10217C0010F0070AD8B490EF10F0010AD8B496EF1B
:10218C0010F09CEF10F05605D8A4CFEF10F0D1EF63
:10219C0010F0E8EF10F08B827CC15AF17DC15BF13D
:1021AC00E9EC2CF08B92040E0101756F0C0E746F20
:1021BC00330EE82EFED7742FFCD7752FFAD700D02C
:1021CC00EBEF10F08B92D9EF10F0898446C15AF1E5
:1021DC0047C15BF1E9EC2CF037EC2EF0020E01015B
:1021EC00756F860E746F990EE82EFED7742FFCD780
:1021FC00752FFAD71E0E0101766F000E776F000E49
:10220C00786F000E796F0FEC2AF05AC13CF15BC16C
:10221C003DF101017651771178117911D8A419EF9C
:10222C0011F01BEF11F048EF11F03CEC2EF0A50E65
:10223C000101006FE10E016F000E026F01510225CA
:10224C00036F5A0E046F000E3F6F000E3E6F3F512E
:10225C0009E1050E3E5DD8A036EF11F038EF11F014
:10226C003AEF11F048EF11F0000E3E25D96E010E39
:10227C003F21DA6EDF50F7EC2DF001013E4B3F2B86
:10228C002DEF11F03C513D11D8A44FEF11F051EF4F
:10229C0011F009EF11F04E0E0101746FEB0EE82EE8
:1022AC00FED7742FFCD71E0E0101766F000E776FD0
:1022BC00000E786F000E796F0FEC2AF05AC13CF1CA
:1022CC005BC13DF101017651771178117911D8A4D8
:1022DC0072EF11F074EF11F0A1EF11F03CEC2EF055
:1022EC00A50E0101006FE20E016F000E026F01518D
:1022FC000225036F5A0E046F000E3F6F000E3E6FE7
:10230C003F5109E1050E3E5DD8A08FEF11F091EF22
:10231C0011F093EF11F0A1EF11F0000E3E25D96EE4
:10232C00010E3F21DA6EDF50F7EC2DF001013E4B30
:10233C003F2B86EF11F03C053D11D8A4A8EF11F00E
:10234C00AAEF11F062EF11F01E0E766F000E776F90
:10235C00000E786F000E796F4AC15AF14BC15BF1D8
:10236C00E9EC2CF03CEC2EF001015605D8A4C1EFA1
:10237C0011F0C3EF11F0DAEF11F08B827CC15AF13E
:10238C007DC15BF1E9EC2CF08B92040E0101756FB1
:10239C000C0E746F330EE82EFED7742FFCD7752FEE
:1023AC00FAD700D0DDEF11F08B92CBEF11F0A50E28
:1023BC000101006FF90E016F000E026F0151022531
:1023CC00036F5A0E046F000E3F6F000E3E6F3F51AD
:1023DC0009E1050E3E5DD8A0F6EF11F0F8EF11F013
:1023EC00FAEF11F01DEF12F0000E3E25D96E010E22
:1023FC003F21DA6EDF50F7EC2DF001013E4B3F2B05
:10240C00EDEF11F0F50E2219D8A40FEF12F011EF29
:10241C0012F01DEF12F05751D8A417EF12F019EF6C
:10242C0012F01DEF12F0000E376F000E366F3DEC00
:10243C002CF05BEC2CF0000E0101376F000E366FA8
:10244C00000E586F000E576F2FEF15F05751D8A490
:10245C0032EF12F034EF12F02FEF15F0010E576F30
:10246C0022C154F160EF12F0030E476FE80E466F75
:10247C0085EF12F0070E476FD00E466F85EF12F006
:10248C000B0E476FB80E466F85EF12F00F0E476FAD
:10249C00A00E466F85EF12F0130E476F880E466F35
:1024AC0085EF12F0000E476F000E466F300E546F22
:1024BC0085EF12F05451746F756B7551000AD8B4D6
:1024CC006AEF12F058EF12F07451300AD8B458EF8A
:1024DC0012F0010AD8B43AEF12F0030AD8B440EF64
:1024EC0012F0010AD8B446EF12F0070AD8B44CEF38
:1024FC0012F0010AD8B452EF12F058EF12F0600E3D
:10250C00686F000E696F000E6A6F000E6B6F54C11E
:10251C006CF16D6B3DEC2AF03DEC2CF0000E0101E2
:10252C00576F2FEF15F05751D8A49FEF12F0A1EF72
:10253C0012F02FEF15F02251D8A4A7EF12F0A9EF4B
:10254C0012F00BEF13F0010E576F600E686F000E58
:10255C00696F000E6A6F000E6B6FFFEC28F00101C3
:10256C006851546F400E686F000E696F000E6A6FF1
:10257C00000E6B6FFFEC28F001016851536F700E69
:10258C00686F000E696F000E6A6F000E6B6FFFECC8
:10259C0028F068C14EF169C14FF1A50E0101006F21
:1025AC0054C101F14EC102F153C103F15A0E046F33
:1025BC00020E0101756F040E746FBA0EE82EFED771
:1025CC00742FFCD7752FFAD700F0000E01013F6F66
:1025DC00000E3E6F3F5109E1050E3E5DD8A0F9EFAC
:1025EC0012F0FBEF12F0FDEF12F00BEF13F0000EF8
:1025FC003E25D96E010E3F21DA6EDF50F7EC2DF03F
:10260C0001013E4B3F2BF0EF12F05BEC2CF094EF02
:10261C0012F05751D8A415EF13F017EF13F02FEF5A
:10262C0015F02251D8A41DEF13F01FEF13F00BEF90
:10263C0013F0010E576F900E686F000E696F000E4D
:10264C006A6F000E6B6FFFEC28F068C138F169C13E
:10265C0039F1800E0101686F000E696F000E6A6F10
:10266C00000E6B6FFFEC28F068C17AF169C17BF149
:10267C0040C144F141C145F1A50E0101006F38C1C3
:10268C0001F17AC102F144C103F15A0E046F020E3A
:10269C000101756F040E746FBA0EE82EFED7742FFD
:1026AC00FCD7752FFAD700F0000E01013F6F000E1A
:1026BC003E6F3F5109E1050E3E5DD8A068EF13F067
:1026CC006AEF13F06CEF13F00BEF13F0000E3E25D6
:1026DC00D96E010E3F21DA6EDF50F7EC2DF00101BF
:1026EC003E4B3F2B5FEF13F05751D8A480EF13F004
:1026FC0082EF13F0D9EF13F0010E576F22C153F193
:10270C00A8EF13F0030E7D6FE80E7C6FC9EF13F08A
:10271C000B0E7D6FB80E7C6FC9EF13F00F0E7D6F33
:10272C00A00E7C6FC9EF13F0130E7D6F880E7C6FBB
:10273C00C9EF13F0070E7D6FD00E7C6F820E536FB6
:10274C00C9EF13F05351746F756B7551000AD8B4FF
:10275C00B2EF13F0A0EF13F07451810AD8B488EFE4
:10276C0013F0030AD8B4A0EF13F0010AD8B48EEF1B
:10277C0013F0070AD8B494EF13F0010AD8B49AEF07
:10278C0013F0A0EF13F0400E686F000E696F000E8F
:10279C006A6F000E6B6F53C16CF16D6B3DEC2AF0E0
:1027AC00000E0101576F5751D8A4DFEF13F0E1EF82
:1027BC0013F02FEF15F0010E576F22C152F152C1D9
:1027CC004AF14B6B500E686F000E696F000E6A6F0A
:1027DC00000E6B6F52C16CF16D6B3DEC2AF094EFF7
:1027EC0012F05751D8A4FDEF13F0FFEF13F02FEFB9
:1027FC0015F0010E576F710E2219D8A408EF14F0C2
:10280C000AEF14F016EF14F0000E6F6F040E6E6FDB
:10281C00F1EC20F06EC150F16FC151F16AEF14F080
:10282C00720E2219D8A41DEF14F01FEF14F02BEF29
:10283C0014F0000E6F6F000E6E6FF1EC20F06EC195
:10284C0050F16FC151F16AEF14F0730E2219D8A434
:10285C0032EF14F034EF14F040EF14F0000E6F6F01
:10286C00010E6E6FF1EC20F06EC150F16FC151F1A1
:10287C006AEF14F0740E2219D8A447EF14F049EF44
:10288C0014F055EF14F0000E6F6F020E6E6FF1EC3A
:10289C0020F06EC150F16FC151F16AEF14F0750E5A
:1028AC002219D8A45CEF14F05EEF14F06AEF14F068
:1028BC00000E6F6F030E6E6FF1EC20F06EC150F1D5
:1028CC006FC151F16AEF14F0700E0101686F000EC8
:1028DC00696F000E6A6F000E6B6FFFEC28F068C119
:1028EC004EF169C14FF1DDEC2BF04EC160F14FC1DF
:1028FC0061F156C162F120EC22F0040E0101756FFA
:10290C000C0E746F330EE82EFED7742FFCD7752F78
:10291C00FAD700D094EF12F05751D8A498EF14F0D6
:10292C009AEF14F02FEF15F0010E576F650E221968
:10293C00D8A4A3EF14F0A5EF14F0ABEF14F0000E35
:10294C00456F310E446FBDEF14F0660E2219D8A4FA
:10295C00B2EF14F0B4EF14F0BAEF14F0000E456FB0
:10296C005A0E446FBDEF14F022C144F1456B44C1C3
:10297C0040F145C141F144C162F145C163F156C119
:10298C0064F164EC27F094EF12F05751D8A4D1EF16
:10299C0014F0D3EF14F02FEF15F0010E576F22C186
:1029AC0038F1396B38513911D8B4DFEF14F0E1EF4D
:1029BC0014F094EF12F038053911D8B4E8EF14F094
:1029CC00EAEF14F094EF12F0900E686F000E696F3E
:1029DC00000E6A6F000E6B6F38C16CF139C16DF16E
:1029EC003DEC2AF094EF12F02151746F756B755118
:1029FC00000AD8B404EF15F02FEF15F07451230A28
:102A0C00D8B42CEF12F0670AD8B448EF0EF0020AD3
:102A1C00D8B4F1EF0FF0170AD8B499EF12F0030AFB
:102A2C00D8B40FEF13F0060AD8B4F7EF13F0010A7D
:102A3C00D8B4CBEF14F0300AD8B47AEF13F0030A01
:102A4C00D8B4D9EF13F0120AD8B492EF14F02FEFD8
:102A5C0015F0000E596F000E0001D46F000E01012D
:102A6C00556FCBEF0BF0000E556FCBEF0BF0010158
:102A7C005551746F756B7551000AD8B448EF15F049
:102A8C00CBEF0BF07451000AD8B4DFEF0BF0020A55
:102A9C00D8B43EEF0EF0CBEF0BF0E5EF01F00101F7
:102AAC005605D8A45CEF15F05EEF15F075EF15F038
:102ABC008B827CC15AF17DC15BF103EC2DF08B92C2
:102ACC00040E01016C6F0C0E6B6F330EE82EFED7EB
:102ADC006B2FFCD76C2FFAD700D078EF15F08B92B8
:102AEC0066EF15F08984010144514511D8A481EF9A
:102AFC0015F083EF15F089EF15F0000E436F010E02
:102B0C00426F29EF17F0000E436F000E426F29EF52
:102B1C0017F0040004EC27F0BCEC2BF046C15AF182
:102B2C0047C15BF103EC2DF037EC2EF0020E0101E6
:102B3C006C6F6C0E6B6F9F0EE82EFED76B2FFCD755
:102B4C006C2FFAD700D01E0E0101766F000E776F36
:102B5C00000E786F000E796F0FEC2AF05AC13CF121
:102B6C005BC13DF101017651771178117911D8A42F
:102B7C00C2EF15F0C4EF15F0C9EF15F0310E5FEC94
:102B8C0025F03CEC2EF001013C513D11D8A4D1EFC5
:102B9C0015F0D3EF15F0B2EF15F04E0E01016B6F7F
:102BAC00EB0EE82EFED76B2FFCD71E0E0101766FB5
:102BBC00000E776F000E786F000E796F0FEC2AF015
:102BCC005AC13CF15BC13DF101017651771178118D
:102BDC007911D8A4F4EF15F0F6EF15F0FBEF15F022
:102BEC00320E5FEC25F03CEC2EF001013C053D1162
:102BFC00D8A403EF16F005EF16F0E4EF15F01E0E57
:102C0C00766F000E776F000E786F000E796F4AC1E9
:102C1C005AF14BC15BF103EC2DF03CEC2EF00101B1
:102C2C0044514511D8B41DEF16F01FEF16F02BEFE1
:102C3C0016F042054311D8B426EF16F028EF16F023
:102C4C002BEF16F04407D8A0450744C162F145C1EB
:102C5C0063F156C164F164EC27F001015605D8A468
:102C6C003AEF16F03CEF16F065EF16F044514511B3
:102C7C00D8A443EF16F045EF16F04EEF16F04205D0
:102C8C004311D8A44CEF16F04EEF16F065EF16F08A
:102C9C008B827CC15AF17DC15BF103EC2DF08B92E0
:102CAC00040E01016C6F0C0E6B6F330EE82EFED709
:102CBC006B2FFCD76C2FFAD700D0A7EF16F056511C
:102CCC00D8A46BEF16F06DEF16F0A7EF16F0445189
:102CDC004511D8A474EF16F076EF16F07FEF16F0CE
:102CEC0042054311D8A47DEF16F07FEF16F0A7EF45
:102CFC0016F08B9244514511D8A487EF16F089EF4A
:102D0C0016F092EF16F042054311D8A490EF16F08E
:102D1C0092EF16F09AEF16F07CC15AF17DC15BF17F
:102D2C0003EC2DF0A7EF16F0060E01016C6F130EDD
:102D3C006B6FAD0EE82EFED76B2FFCD76C2FFAD72E
:102D4C0000D001015805D8A4AEEF16F0B0EF16F084
:102D5C00E1EF16F03CEF17F0000E436F020E426FDE
:102D6C0044C162F145C163F15651D8B4C0EF16F0BD
:102D7C00C3EF16F0010EC4EF16F0000E646F64EC96
:102D8C0027F0820E01016B6FDD0EE82EFED76B2F44
:102D9C00FCD700D044C162F145C163F156C164F166
:102DAC0064EC27F0820E01016B6FDD0EE82EFED76E
:102DBC006B2FFCD700D0010136513711D8A4E9EFA5
:102DCC0016F0EBEF16F0FDEF16F042054311D8B4F8
:102DDC00F2EF16F0F4EF16F0B2EF16F04251431189
:102DEC00D8B4FBEF16F0FDEF16F0B2EF16F044C1BD
:102DFC0062F145C163F156C164F164EC27F0010145
:102E0C0036513711D8A40DEF17F00FEF17F020EF54
:102E1C0017F044514511D8B416EF17F018EF17F00E
:102E2C0020EF17F044C140F145C141F1000E456F50
:102E3C00000E446F820E01016B6FDD0EE82EFED783
:102E4C006B2FFCD700D0010144514511D8A431EFB0
:102E5C0017F033EF17F08FEF15F042054311D8B48C
:102E6C003AEF17F03CEF17F08FEF15F089944451BF
:102E7C004511D8B444EF17F046EF17F04EEF17F0AA
:102E8C005805D8A44CEF17F04EEF17F074EF17F06D
:102E9C0042514311D8A455EF17F057EF17F074EFC8
:102EAC0017F05605D8A45DEF17F05FEF17F074EF2D
:102EBC0017F08B827CC15AF17DC15BF103EC2DF0D4
:102ECC008B92040E01016C6F0C0E6B6F330EE82E9F
:102EDC00FED76B2FFCD76C2FFAD700D0000E010158
:102EEC00436F000E426F000E456F000E446F000ED4
:102EFC00376F000E366F000E556F12008984020E6C
:102F0C00E2EC2AF00001966FA50E9619D8A491EF69
:102F1C0017F093EF17F085EF17F0000EA06F010E6E
:102F2C009F6F960E9F25D96E000EA021DA6E020EB1
:102F3C00E2EC2AF0DF6E00019F4BA02BA0BFB0EF9C
:102F4C0017F0A05109E1050E9F5DD8A0B0EF17F066
:102F5C00B2EF17F097EF17F097C09BF098C0A3F063
:102F6C009AC09CF0A50EA16F5A0EA26FA50E9619D1
:102F7C00D8A4C3EF17F0C5EF17F098EF19F05A0E5D
:102F8C009C19D8A4CCEF17F0CEEF17F098EF19F0EE
:102F9C007BEF19F0000EA56F600E816F000E826F33
:102FAC00600E836F5A0E846FA50E54EC2BF0D2EC8E
:102FBC002DF098EF19F09305D8A4E7EF17F0E9EF8F
:102FCC0017F000EF18F08B8291C001F092C002F064
:102FDC004CEC2DF08B92040E0001956F0C0E946F3F
:102FEC00330EE82EFED7942FFCD7952FFAD700D0AE
:102FFC0003EF18F08B92F1EF17F0898441EC2EF06F
:10300C00020E0001956F860E946F990EE82EFED776
:10301C00942FFCD7952FFAD71E0E00018D6F000E42
:10302C008E6F000E8F6F000E906F67EC2AF001C050
:10303C009DF002C09EF000018D518E118F119011E8
:10304C00D8A42BEF18F02DEF18F03BEF18F046EC4E
:10305C002EF0E10E0001816F000E826FE10E836F86
:10306C00A2C084F0A15154EC2BF000019D519E1193
:10307C00D8A443EF18F045EF18F01BEF18F04E0EE4
:10308C000001946FEB0EE82EFED7942FFCD71E0E8A
:10309C0000018D6F000E8E6F000E8F6F000E906F03
:1030AC0067EC2AF001C09DF002C09EF000018D512A
:1030BC008E118F119011D8A466EF18F068EF18F0EC
:1030CC0076EF18F046EC2EF0E20E0001816F000E48
:1030DC00826FE20E836FA2C084F0A15154EC2BF0EE
:1030EC0000019D059E11D8A47EEF18F080EF18F01A
:1030FC0056EF18F01E0E8D6F000E8E6F000E8F6F38
:10310C00000E906F8BC001F08CC002F04CEC2DF0D7
:10311C0046EC2EF000019305D8A497EF18F099EF28
:10312C0018F0B0EF18F08B8291C001F092C002F051
:10313C004CEC2DF08B92040E0001956F0C0E946FDD
:10314C00330EE82EFED7942FFCD7952FFAD700D04C
:10315C00B3EF18F08B92A1EF18F0F90E0001816F0C
:10316C00000E826FF90E836FA2C084F0A15154EC53
:10317C002BF098EF19F0710EA319D8A4C8EF18F022
:10318C00CAEF18F0D9EF18F0000E166E040E156E7B
:10319C0089EC21F015C050F116C051F1710E0001EF
:1031AC00A56F39EF19F0720EA319D8A4E0EF18F03F
:1031BC00E2EF18F0F1EF18F0000E166E000E156E1F
:1031CC0089EC21F015C050F116C051F1720E0001BE
:1031DC00A56F39EF19F0730EA319D8A4F8EF18F0F6
:1031EC00FAEF18F009EF19F0000E166E010E156EBD
:1031FC0089EC21F015C050F116C051F1730E00018D
:10320C00A56F39EF19F0740EA319D8A410EF19F0AB
:10321C0012EF19F021EF19F0000E166E020E156E5A
:10322C0089EC21F015C050F116C051F1740E00015B
:10323C00A56F39EF19F0750EA319D8A428EF19F062
:10324C002AEF19F039EF19F0000E166E030E156EF9
:10325C0089EC21F015C050F116C051F1750E00012A
:10326C00A56F39EF19F0A551540FA46F540E816F4F
:10327C00A5C082F0A4C083F05A0E846FA50E54EC46
:10328C002BF0700E0F6E000E106E000E116E000EF5
:10329C00126EAAEC29F00FC04EF110C04FF1FDECEC
:1032AC002BF050C101F051C102F035EC2DF0040EA1
:1032BC000001956F0C0E946F330EE82EFED7942FF1
:1032CC00FCD7952FFAD700D098EF19F0F10EA3196F
:1032DC00D8A473EF19F075EF19F098EF19F040C1FD
:1032EC0044F141C145F198EF19F09B51946F956BE6
:1032FC009551000AD8B485EF19F098EF19F0945154
:10330C00060AD8B4D0EF17F0420AD8B46CEF19F013
:10331C00020AD8B4E1EF17F0120AD8B4C1EF18F0D2
:10332C0098EF19F0120041C0D9FF42C0DAFFDECF8E
:10333C00F6FFDDCFF7FFF86A0800F550250AD8A490
:10334C00AAEF19F0ACEF19F046EF1BF041C0D9FF12
:10335C0042C0DAFFDE2A000EDD22000E0001BD6F36
:10336C00000EBC6FBCC0D0F0BE69BF69000E4A6EC7
:10337C00000E496EEEEF19F00001D08341C0D9FF69
:10338C0042C0DAFFDE2A000EDD22EEEF19F0000E4D
:10339C004A6E010E496EEEEF19F041C0D9FF42C0E2
:1033AC00DAFFDECFF6FFDDCFF7FFF86A0800F55045
:1033BC00456E466A4650000AD8B4E7EF19F0CDEFD7
:1033CC0019F04550300AD8B4C2EF19F0CDEF19F00E
:1033DC0049504A10D8B4F5EF19F0F7EF19F0D3EFC4
:1033EC0019F041C0D9FF42C0DAFFDECFF6FFDDCFC6
:1033FC00F7FFF86A0800F5502A0AD8A408EF1AF06B
:10340C000AEF1AF034EF1AF041C0D9FF42C0DAFFCC
:10341C00DE2A000EDD2243C0D9FF44C0DAFFDFCF25
:10342C0045F0020EDE26DFCF46F0000EDD2245C051
:10343C00D9FF46C0DAFFDECFBCF0DDCFBDF0000116
:10344C00BDBF2DEF1AF02BEF1AF068EF1AF0D081F8
:10345C00BC6DBD1FD8B0BD2B68EF1AF041C0D9FFB1
:10346C0042C0DAFFDECF07F0DDCF08F047EC20F0EA
:10347C0007C0BCF008C0BDF04BEF1AF041C0D9FF3B
:10348C0042C0DAFFDE2A000EDD2241C0D9FF42C065
:10349C00DAFFDECFF6FFDDCFF7FFF86A0800F5CFD5
:1034AC0045F0D00E4524466E476AFF0E4722475022
:1034BC0009E10A0E465CD8A066EF1AF068EF1AF024
:1034CC0044EF1AF041C0D9FF42C0DAFFDECF53F00F
:1034DC00DDCF54F053C0F6FF54C0F7FFF86A080074
:1034EC00F550640AD8B47DEF1AF07FEF1AF08EEF26
:1034FC001AF053C0F6FF54C0F7FFF86A0800F550F5
:10350C00690AD8A48CEF1AF08EEF1AF0D1EF1AF0EA
:10351C0043C0D9FF44C0DAFFDFCF45F0020EDE26F0
:10352C00DFCF46F0000EDD2245C0D9FF46C0DAFFE2
:10353C00DECF4BF0DDCF4CF0000E4CBEFF0E4D6ECF
:10354C004E6E4F6E506E516E526E010E5324456E80
:10355C00000E5420466E41C0D9FF42C0DAFF45C070
:10356C00DEFF46C0DDFF3FC01CF040C01DF04BC06D
:10357C001EF04CC01FF04DC020F04EC021F04FC0CB
:10358C0022F050C023F051C024F052C025F05CEC66
:10359C001BF05BEF1BF053C0F6FF54C0F7FFF86A4B
:1035AC000800F550580AD8A4DEEF1AF0E0EF1AF034
:1035BC003DEF1BF043C0D9FF44C0DAFFDFCF45F02D
:1035CC00020EDE26DFCF46F0000EDD2245C0D9FF0D
:1035DC0046C0DAFFDECF47F0DDCF48F047C04BF0F6
:1035EC0048C04CF04D6A4E6A4F6A506A516A526A32
:1035FC00010E5324456E000E5420466E41C0D9FF77
:10360C0042C0DAFF45C0DEFF46C0DDFF26EF1BF0EF
:10361C003FC01CF040C01DF04BC01EF04CC01FF052
:10362C004DC020F04EC021F04FC022F050C023F00E
:10363C0051C024F052C025F0EAEC1DF05BEF1BF0FA
:10364C0053C0F6FF54C0F7FFF86A0800F550456EFA
:10365C00466A4650000AD8B436EF1BF03DEF1BF01B
:10366C004550580AD8B40EEF1BF03DEF1BF041C08B
:10367C00D9FF42C0DAFFDE2A000EDD225BEF1BF021
:10368C0041C0D9FF42C0DAFFDECFF6FFDDCFF7FF36
:10369C00F86A0800F550016E026A3FC003F040C0A2
:1036AC0004F03CEC26F03DEF1BF012001EC034F091
:1036BC001FC035F020C036F021C037F022C038F0E2
:1036CC0023C039F024C03AF025C03BF03BBE71EF6B
:1036DC001BF074EF1BF0010E75EF1BF0000E3E6E2D
:1036EC003E50D8B47CEF1BF07EEF1BF08EEF1BF03E
:1036FC003B1E3A1E391E381E371E361E351E346CC4
:10370C00000E352236223722382239223A223B2229
:10371C000001BFBF94EF1BF096EF1BF097EF1BF06F
:10372C00D093BFBFA4EF1BF0BF5106E1BE05D8B0CC
:10373C00A2EF1BF0A4EF1BF0AAEF1BF0000E316EF2
:10374C00010E306EAEEF1BF0BEC030F0BFC031F0DA
:10375C00BCC032F0BDC033F03E50D8B4B8EF1BF053
:10376C00BAEF1BF0D1EF1BF03206D8A033063E5057
:10377C00D8A4C3EF1BF0C5EF1BF0CBEF1BF0000E72
:10378C002F6E2B0E2E6ECFEF1BF0000E2F6E2D0E0C
:10379C002E6E2EC03EF0000E3D6E1F0E3C6E000EC7
:1037AC00F56F55EF1CF03C06D8A03D06D60E3C2418
:1037BC00D96E000E3D20DA6E34C001F035C002F037
:1037CC0036C003F037C004F038C005F039C006F03D
:1037DC003AC007F03BC008F00A0E096E000E0A6EE4
:1037EC00000E0B6E000E0C6E000E0D6E000E0E6EAB
:1037FC00000E0F6E000E106E95EC1FF001C026F03F
:10380C0002C027F003C028F004C029F005C02AF03C
:10381C0006C02BF007C02CF008C02DF026C013F00A
:10382C0027C014F01DEC2CF01350300FDF6E300657
:10383C00D8A031063206D8A0330634C001F035C00A
:10384C0002F036C003F037C004F038C005F039C0C0
:10385C0006F03AC007F03BC008F00A0E096E000EE5
:10386C000A6E000E0B6E000E0C6E000E0D6E000E2E
:10387C000E6E000E0F6E000E106ED1EC1EF001C01D
:10388C0034F002C035F003C036F004C037F005C088
:10389C0038F006C039F007C03AF008C03BF03DBE26
:1038AC0060EF1CF03D5008E13C04D8A060EF1CF028
:1038BC0062EF1CF093EF1CF03450351036103710BB
:1038CC00381039103A103B10D8A46FEF1CF071EF80
:1038DC001CF0D9EF1BF031BE7EEF1CF0315006E12D
:1038EC003004D8B07CEF1CF07EEF1CF0D9EF1BF04D
:1038FC0033BE89EF1CF0335008E13204D8A089EFB5
:10390C001CF08BEF1CF093EF1CF00001D0B391EF87
:10391C001CF093EF1CF0D9EF1BF03E50D8B499EF8C
:10392C001CF09BEF1CF0A6EF1CF03C06D8A03D064B
:10393C00D60E3C24D96E000E3D20DA6E3EC0DFFF61
:10394C001CC011F01DC012F0D60E3C24136E000EDC
:10395C003D20146E32C015F033C016F016EC28F072
:10396C001200000E01013D6F000E3C6F410EDDECAC
:10397C0024F001015605D8A4C6EF1CF0C8EF1CF0CA
:10398C00DFEF1CF08B827CC15AF17DC15BF103EC43
:10399C002DF08B92040E0101646F0C0E636F330ECD
:1039AC00E82EFED7632FFCD7642FFAD700D0E2EFB6
:1039BC001CF08B92D0EF1CF089849DEF1DF004005D
:1039CC0004EC27F0BCEC2BF046C15AF147C15BF17B
:1039DC0003EC2DF037EC2EF0020E0101646F6C0E2F
:1039EC00636F9F0EE82EFED7632FFCD7642FFAD798
:1039FC0000D01E0E0101766F000E776F000E786FEF
:103A0C00000E796F0FEC2AF05AC13CF15BC13DF10D
:103A1C0001017651771178117911D8A418EF1DF0A6
:103A2C001AEF1DF01FEF1DF0310E5FEC25F03CEC92
:103A3C002EF001013C513D11D8A427EF1DF029EFC8
:103A4C001DF008EF1DF04E0E0101636FEB0EE82E1A
:103A5C00FED7632FFCD71E0E0101766F000E776F19
:103A6C00000E786F000E796F0FEC2AF05AC13CF102
:103A7C005BC13DF101017651771178117911D8A410
:103A8C004AEF1DF04CEF1DF051EF1DF0320E5FECC4
:103A9C0025F03CEC2EF001013C053D11D8A459EF6A
:103AAC001DF05BEF1DF03AEF1DF01E0E766F000E51
:103ABC00776F000E786F000E796F4AC15AF14BC1C7
:103ACC005BF103EC2DF03CEC2EF001015605D8A473
:103ADC0072EF1DF074EF1DF08BEF1DF08B827CC12B
:103AEC005AF17DC15BF103EC2DF08B92040E0101B8
:103AFC00646F0C0E636F330EE82EFED7632FFCD76A
:103B0C00642FFAD700D092EF1DF08B927CC15AF142
:103B1C007DC15BF103EC2DF001015805D8A499EFA0
:103B2C001DF09BEF1DF09DEF1DF0A6EF1DF00101A8
:103B3C005851D8B4A4EF1DF0A6EF1DF0E5EF1CF022
:103B4C00899444514511D8B4AEEF1DF0B0EF1DF07F
:103B5C00B8EF1DF05805D8A4B6EF1DF0B8EF1DF066
:103B6C00D5EF1DF05605D8A4BEEF1DF0C0EF1DF02B
:103B7C00D5EF1DF08B827CC15AF17DC15BF103EC5A
:103B8C002DF08B92040E0101646F0C0E636F330EDB
:103B9C00E82EFED7632FFCD7642FFAD700D0000E87
:103BAC000101456F000E446F020E5519D8A4E1EFC8
:103BBC001DF0E3EF1DF0E7EF1DF0020E556FE9EF7E
:103BCC001DF0030E556F12000001BFBFF0EF1DF08A
:103BDC00F2EF1DF0F3EF1DF0D093BFBF00EF1EF01E
:103BEC00BF5106E1BE05D8B0FEEF1DF000EF1EF090
:103BFC0006EF1EF0000E316E010E306E0AEF1EF055
:103C0C00BEC030F0BFC031F0BCC032F0BDC033F02C
:103C1C001EC034F01FC035F020C036F021C037F084
:103C2C0022C038F023C039F024C03AF025C03BF054
:103C3C00000E3D6E1F0E3C6E000EF56F81EF1EF0F8
:103C4C003C06D8A03D0634500F0B3E6E090E3E6468
:103C5C0032EF1EF034EF1EF03CEF1EF0370E3E2418
:103C6C002E6E2F6A000E2F2242EF1EF0300E3E24D5
:103C7C002E6E2F6A000E2F222EC03EF0D60E3C2444
:103C8C00D96E000E3D20DA6E3EC0DFFF3006D8A0A4
:103C9C0031063206D8A0330634C026F035C027F0E2
:103CAC0036C028F037C029F038C02AF039C02BF0C4
:103CBC003AC02CF03BC02DF0050E6EEF1EF0D890E4
:103CCC002D322C322B322A3229322832273226320C
:103CDC00E82E65EF1EF026C034F027C035F028C062
:103CEC0036F029C037F02AC038F02BC039F02CC080
:103CFC003AF02DC03BF03DBE8DEF1EF03D5009E17A
:103D0C00020E3C5CD8A08DEF1EF08FEF1EF0C0EFC2
:103D1C001EF03450351036103710381039103A1058
:103D2C003B10D8A49CEF1EF09EEF1EF026EF1EF069
:103D3C0031BEABEF1EF0315006E13004D8B0A9EF24
:103D4C001EF0ABEF1EF026EF1EF033BEB6EF1EF0EA
:103D5C00335008E13204D8A0B6EF1EF0B8EF1EF0D5
:103D6C00C0EF1EF00001D0B3BEEF1EF0C0EF1EF08E
:103D7C0026EF1EF01CC011F01DC012F0D60E3C2414
:103D8C00136E000E3D20146E32C015F033C016F0C9
:103D9C0016EC28F01200000E126E10BEDAEF1EF0B8
:103DAC00D8EF1EF0ECEF1EF0101E0F1E0E1E0D1E97
:103DBC000C1E0B1E0A1E096C000E0A220B220C2272
:103DCC000D220E220F221022010E126E08BEF3EFEE
:103DDC001EF0F1EF1EF005EF1FF0081E071E061E69
:103DEC00051E041E031E021E016C000E022203227D
:103DFC0004220522062207220822010E121A20EEA6
:103E0C0013F0070EDE6AE806FDE209500A100B10EB
:103E1C000C100D100E100F101010D8B418EF1FF05E
:103E2C001AEF1FF06CEF1FF0010E116E28EF1FF050
:103E3C00D89009360A360B360C360D360E360F3640
:103E4C001036112A10AE2DEF1FF02FEF1FF01EEFC2
:103E5C001FF0D8901336143615361636173618361A
:103E6C0019361A360950015C0A5002580B50035887
:103E7C000C5004580D5005580E5006580F5007584A
:103E8C0010500858D8A04DEF1FF04FEF1FF060EF07
:103E9C001FF00950015E0A50025A0B50035A0C5085
:103EAC00045A0D50055A0E50065A0F50075A10500E
:103EBC00085A1380D89010320F320E320D320C3259
:103ECC000B320A320932112E2FEF1FF01250D8B4D8
:103EDC0072EF1FF074EF1FF084EF1FF01A1E191E03
:103EEC00181E171E161E151E141E136C000E1422FF
:103EFC00152216221722182219221A2213C001F099
:103F0C0014C002F015C003F016C004F017C005F081
:103F1C0018C006F019C007F01AC008F01200000E05
:103F2C00126E08BE9EEF1FF09CEF1FF0B0EF1FF05B
:103F3C00081E071E061E051E041E031E021E016C13
:103F4C00000E022203220422052206220722082246
:103F5C00010E126E10BEB7EF1FF0B5EF1FF0C7EFDA
:103F6C001FF0101E0F1E0E1E0D1E0C1E0B1E0A1E09
:103F7C00096C000E0A220B220C220D220E220F229B
:103F8C00102209500A100B100C100D100E100F10EF
:103F9C001010D8B4D4EF1FF0D6EF1FF01EEF20F0A6
:103FAC00010E116EE4EF1FF0D89009360A360B366D
:103FBC000C360D360E360F361036112A10AEE9EFD0
:103FCC001FF0EBEF1FF0DAEF1FF00950015C0A5005
:103FDC0002580B5003580C5004580D5005580E50F5
:103FEC0006580F50075810500858D8A000EF20F072
:103FFC0002EF20F012EF20F00950015E0A50025A35
:10400C000B50035A0C50045A0D50055A0E50065AB8
:10401C000F50075A1050085AD89010320F320E32E7
:10402C000D320C320B320A320932112EEBEF1FF02B
:10403C001250D8B424EF20F026EF20F036EF20F009
:10404C00081E071E061E051E041E031E021E016C02
:10405C00000E022203220422052206220722082235
:10406C0001C001F002C002F003C003F004C004F070
:10407C0005C005F006C006F007C007F008C008F040
:10408C001200000E0F6E000E0E6E000E0D6E000E66
:10409C000C6E53EF20F0074A082A07C0F6FF08C041
:1040AC00F7FFF86A0800F550200AD8B460EF20F04A
:1040BC0062EF20F051EF20F007C0F6FF08C0F7FFC9
:1040CC00F86A0800F5CF09F0F70E09240A6E0B6A9E
:1040DC00FF0E0B220B5009E1050E0A5CD8A079EFFC
:1040EC0020F07BEF20F051EF20F085EF20F0000E58
:1040FC000D6E010E0C6E074A082ABCEF20F007C0AB
:10410C00F6FF08C0F7FFF86A0800F550096E0A6A56
:10411C000A50000AD8B495EF20F0BCEF20F00950FB
:10412C002B0AD8B481EF20F0060AD8B47DEF20F02A
:10413C00BCEF20F00EC001F00FC002F0000E046EB8
:10414C000A0E036E9FEC2DF007C0F6FF08C0F7FFB8
:10415C00F86A0800F550015E000E025A300E012478
:10416C000E6E000E02200F6E81EF20F007C0F6FFDE
:10417C0008C0F7FFF86A0800F5CF09F0D00E092443
:10418C000A6E0B6AFF0E0B220B5009E10A0E0A5C39
:10419C00D8A0D3EF20F0D5EF20F0A0EF20F00C50FA
:1041AC000D10D8A4DCEF20F0DEEF20F0ECEF20F0C7
:1041BC000EC009F00FC00AF0091E0A1E094A0A2A8D
:1041CC0009C007F00AC008F0F0EF20F00EC007F0AD
:1041DC000FC008F0120061EF21F0000E736F070E94
:1041EC00726FF29E700E686F000E696F000E6A6F30
:1041FC00000E6B6F000E6D6F010E6C6F3DEC2AF0B4
:10420C00F28E84EF21F0000E736F090E726FF29E26
:10421C00700E686F000E696F000E6A6F000E6B6F88
:10422C00000E6D6F020E6C6F3DEC2AF0F28E84EF77
:10423C0021F0000E736F0C0E726FF29E700E686F91
:10424C00000E696F000E6A6F000E6B6F000E6D6FC3
:10425C00030E6C6F3DEC2AF0F28E84EF21F0000E11
:10426C00736F140E726FF29E700E686F000E696F92
:10427C00000E6A6F000E6B6F000E6D6F040E6C6F8C
:10428C003DEC2AF0F28E84EF21F0000E736F000EDD
:10429C00726FF29E700E686F000E696F000E6A6F7F
:1042AC00000E6B6F000E6D6F000E6C6F3DEC2AF004
:1042BC00F28E84EF21F06EC170F16FC171F10101CA
:1042CC007151000AD8B46DEF21F084EF21F07051D8
:1042DC00000AD8B4F3EF20F0010AD8B409EF21F0AA
:1042EC00030AD8B41FEF21F0010AD8B435EF21F03E
:1042FC00070AD8B44BEF21F084EF21F072C16EF1B4
:10430C0073C16FF11200F9EF21F0000E1A6E070E57
:10431C00196EF29E700E0F6E000E106E000E116E66
:10432C00000E126E000E146E010E136E2FEC2BF09D
:10433C00F28E1BEF22F0000E1A6E090E196EF29E11
:10434C00700E0F6E000E106E000E116E000E126EBF
:10435C00000E146E020E136E2FEC2BF0F28E1BEF70
:10436C0022F0000E1A6E0C0E196EF29E700E0F6E6D
:10437C00000E106E000E116E000E126E000E146EFA
:10438C00030E136E2FEC2BF0F28E1BEF22F0000EAF
:10439C001A6E140E196EF29E700E0F6E000E106EC9
:1043AC00000E116E000E126E000E146E040E136EC3
:1043BC002FEC2BF0F28E1BEF22F0000E1A6E000E7B
:1043CC00196EF29E700E0F6E000E106E000E116EB6
:1043DC00000E126E000E146E000E136E2FEC2BF0EE
:1043EC00F28E1BEF22F015C017F016C018F0185003
:1043FC00000AD8B404EF22F01BEF22F01750000A89
:10440C00D8B48BEF21F0010AD8B4A1EF21F0030A44
:10441C00D8B4B7EF21F0010AD8B4CDEF21F0070AD8
:10442C00D8B4E3EF21F01BEF22F019C015F01AC03D
:10443C0016F012008B98000EBCEC28F08B888B9831
:10444C00000EBCEC28F001016205D8A430EF22F07C
:10445C0032EF22F043EF22F060056111D8A439EF5E
:10446C0022F03BEF22F043EF22F03E0EBCEC28F0A2
:10447C00860EBCEC28F0AAEF22F06205D8A449EF16
:10448C0022F04BEF22F05DEF22F0020E6019611169
:10449C00D8A453EF22F055EF22F05DEF22F03E0E40
:1044AC00BCEC28F0DB0EBCEC28F0AAEF22F0620585
:1044BC00D8A463EF22F065EF22F077EF22F0030E21
:1044CC0060196111D8A46DEF22F06FEF22F077EF35
:1044DC0022F03E0EBCEC28F0CF0EBCEC28F0AAEF7C
:1044EC0022F06205D8A47DEF22F07FEF22F091EF4D
:1044FC0022F0040E60196111D8A487EF22F089EF25
:10450C0022F091EF22F03E0EBCEC28F0E60EBCEC53
:10451C0028F0AAEF22F06251D8A497EF22F099EF7D
:10452C0022F0AAEF22F060516111D8A4A0EF22F082
:10453C00A2EF22F0AAEF22F03E0EBCEC28F0BF0E48
:10454C00BCEC28F0AAEF22F08B888B980D0EBCECFB
:10455C0028F08B881200898437EC2EF0040E0101B0
:10456C00646F8E0E636F120EE82EFED7632FFCD78E
:10457C00642FFAD700F01E0E0101766F000E776FD4
:10458C00000E786F000E796F0FEC2AF05AC13CF1D7
:10459C005BC13DF101017651771178117911D8A4E5
:1045AC00DAEF22F0DCEF22F0E1EF22F0310E5FECDB
:1045BC0025F03CEC2EF001013C513D11D8A4E9EF63
:1045CC0022F0EBEF22F0CAEF22F04E0E0101636FE6
:1045DC00EB0EE82EFED7632FFCD71E0E0101766F73
:1045EC00000E776F000E786F000E796F0FEC2AF0CB
:1045FC005AC13CF15BC13DF1010176517711781143
:10460C007911D8A40CEF23F00EEF23F013EF23F065
:10461C00320E5FEC25F03CEC2EF001013C053D1117
:10462C00D8A41BEF23F01DEF23F0FCEF22F01E0E9D
:10463C00766F000E776F000E786F000E796F4AC19F
:10464C005AF14BC15BF103EC2DF03CEC2EF0060E55
:10465C000101646F130E636FAD0EE82EFED7632F4E
:10466C00FCD7642FFAD700D0000E01013D6F000E6D
:10467C003C6F89941200000E5E6E000E5D6EBFEFF3
:10468C0023F07D05D8A44DEF23F04FEF23F0A4EFDA
:10469C0023F09EA854EF23F056EF23F04FEF23F0B6
:1046AC005D5000017925D96E5E507A21DA6EDF50AB
:1046BC00AE6E1E0E016E100E026E01500210D8A4CA
:1046CC00000E036E71EC29F05D5000017925D96E56
:1046DC005E507A21DA6EDF5096EC2CF0FF0E000162
:1046EC007B257E6FFF0E7C217F6F7E515D5C5E5063
:1046FC00800A806F7F51800A8059D8B088EF23F0F0
:10470C008AEF23F097EF23F0540E016E100E026E19
:10471C0001500210D8A4000E036E71EC29F0BDEF0D
:10472C0023F0510E016E100E026E01500210D8A42F
:10473C00000E036E71EC29F0BDEF23F0020E7D1913
:10474C00D8A4ABEF23F0ADEF23F0BDEF23F0A4A87A
:10475C00B2EF23F0B4EF23F0ADEF23F05D50000186
:10476C007925D96E5E507A21DA6EDF50A96E5D4ADA
:10477C005E2A00017B515D5C5E50800A7E6F7C512D
:10478C00800A7E59D8A0CDEF23F0CFEF23F047EF6E
:10479C0023F01200000E0101636F61BFDAEF23F00A
:1047AC00D8EF23F0E4EF23F0611F601F5F1F5E6DF5
:1047BC00000E5F2360236123010E636F5DBFEBEF7F
:1047CC0023F0E9EF23F0F5EF23F05D1F5C1F5B1F77
:1047DC005A6D000E5B235C235D23010E631B000EE0
:1047EC00646F000E656F000E666F000E676F5E5192
:1047FC005F1160116111D8B406EF24F008EF24F0BA
:10480C003EEF24F0010E626F12EF24F0D8905E3769
:10481C005F3760376137622B61AF17EF24F019EF08
:10482C0024F00CEF24F0D89064376537663767377F
:10483C005E515A5D5F515B5960515C5961515D59D4
:10484C00D8A02BEF24F02DEF24F036EF24F05E519E
:10485C005A5F5F515B5B60515C5B61515D5B648176
:10486C00D890613360335F335E33622F19EF24F0DD
:10487C006351D8B444EF24F046EF24F04EEF24F00B
:10488C00671F661F651F646D000E65236623672313
:10489C0064C15AF165C15BF166C15CF167C15DF140
:1048AC001200000E0A6E08BE60EF24F05EEF24F0DA
:1048BC006AEF24F0081E071E061E056C000E062269
:1048CC0007220822010E0A6E04BE71EF24F06FEF6E
:1048DC0024F07BEF24F0041E031E021E016C000E5C
:1048EC00022203220422010E0A1A000E0B6E000E85
:1048FC000C6E000E0D6E000E0E6E0550061007109D
:10490C000810D8B48CEF24F08EEF24F0C4EF24F010
:10491C00010E096E98EF24F0D8900536063607364E
:10492C000836092A08AE9DEF24F09FEF24F092EF91
:10493C0024F0D8900B360C360D360E360550015C33
:10494C00065002580750035808500458D8A0B1EF2D
:10495C0024F0B3EF24F0BCEF24F00550015E0650B8
:10496C00025A0750035A0850045A0B80D890083248
:10497C00073206320532092E9FEF24F00A50D8B4C4
:10498C00CAEF24F0CCEF24F0D4EF24F00E1E0D1E51
:10499C000C1E0B6C000E0C220D220E220BC001F013
:1049AC000CC002F00DC003F00EC004F012000101A7
:1049BC00626F8B98000EBCEC28F08B888B98000EE5
:1049CC00BCEC28F02AEF25F0790EBCEC28F03F0E59
:1049DC00BCEC28F058EF25F03F0EBCEC28F0730E21
:1049EC00BCEC28F058EF25F0390EBCEC28F0770E13
:1049FC00BCEC28F058EF25F0000EBCEC28F0000EB3
:104A0C00BCEC28F058EF25F0000EBCEC28F03F0E63
:104A1C00BCEC28F058EF25F0790EBCEC28F0060E13
:104A2C00BCEC28F058EF25F0770EBCEC28F03E0ECD
:104A3C00BCEC28F058EF25F0000EBCEC28F03E0E34
:104A4C00BCEC28F058EF25F001016251606F616BEE
:104A5C006151000AD8B435EF25F058EF25F06051BC
:104A6C00410AD8B41AEF25F0020AD8B4FAEF24F0B0
:104A7C00060AD8B4EAEF24F0020AD8B40AEF25F0FB
:104A8C00080AD8B4F2EF24F01C0AD8B412EF25F0BF
:104A9C00050AD8B422EF25F00E0AD8B402EF25F09F
:104AAC0058EF25F08B888B980D0EBCEC28F08B887A
:104ABC0012000101626F8B98000EBCEC28F08B8801
:104ACC008B98000EBCEC28F0A4EF25F0790EBCEC12
:104ADC0028F0770EBCEC28F0CEEF25F0790EBCEC6C
:104AEC0028F03F0EBCEC28F0CEEF25F0790EBCEC94
:104AFC0028F0060EBCEC28F0CEEF25F0790EBCECBD
:104B0C0028F05B0EBCEC28F0CEEF25F0000EBCECD0
:104B1C0028F03F0EBCEC28F0CEEF25F0790EBCEC63
:104B2C0028F0060EBCEC28F0CEEF25F0770EBCEC8E
:104B3C0028F03E0EBCEC28F0CEEF25F001016251BE
:104B4C00606F616B6151000AD8B4AFEF25F0CEEF06
:104B5C0025F06051300AD8B474EF25F0010AD8B4AE
:104B6C007CEF25F0030AD8B484EF25F0730AD8B48F
:104B7C009CEF25F0040AD8B46CEF25F0020AD8B4E7
:104B8C008CEF25F0140AD8B494EF25F0CEEF25F075
:104B9C008B888B980D0EBCEC28F08B88120003EFE1
:104BAC0026F03F0E5E6F3AEF26F0060E5E6F3AEF80
:104BBC0026F05B0E5E6F3AEF26F04F0E5E6F3AEF0B
:104BCC0026F0660E5E6F3AEF26F06D0E5E6F3AEFD2
:104BDC0026F07D0E5E6F3AEF26F0070E5E6F3AEF11
:104BEC0026F07F0E5E6F3AEF26F06F0E5E6F3AEF97
:104BFC0026F0000E5E6F3AEF26F05AC15CF15BC1F5
:104C0C005DF101015D51000AD8B40FEF26F0FFEF02
:104C1C0025F05C51000AD8B4D7EF25F0010AD8B4BE
:104C2C00DBEF25F0030AD8B4DFEF25F0010AD8B486
:104C3C00E3EF25F0070AD8B4E7EF25F0010AD8B462
:104C4C00EBEF25F0030AD8B4EFEF25F0010AD8B446
:104C5C00F3EF25F00F0AD8B4F7EF25F0010AD8B41A
:104C6C00FBEF25F0FFEF25F05E511200035004100E
:104C7C00D8B443EF26F045EF26F04EEF26F0035064
:104C8C000410D8A44CEF26F04EEF26F053EF26F08C
:104C9C0001507AEC2EF0A0EF26F020EE09F0035034
:104CAC00D9260450DA22DE50DE10D8B460EF26F09C
:104CBC0062EF26F07DEF26F020EE09F00350D926A6
:104CCC000450DA2210EE03F00350E1260450E222E5
:104CDC00DE50E65CE650800A096EDE50800A095808
:104CEC00D8B07BEF26F07DEF26F0A0EF26F020EE7B
:104CFC0003F00350D9260450DA22DECF05F0DDCFC5
:104D0C0006F003C0D9FF04C0DAFFDECF07F0DDCF19
:104D1C0008F005500724D96E06500820DA6E01C041
:104D2C00DFFF20EE03F00350D9260450DA22DE2AEE
:104D3C00000EDD221200000E01015F6F5DBFABEFB4
:104D4C0026F0A9EF26F0B1EF26F05C6D5D1FD8B010
:104D5C005D2B010E5F6F5BBFB8EF26F0B6EF26F050
:104D6C00BEEF26F05A6D5B1FD8B05B2B010E5F1B9C
:104D7C00000E616F000E606F5C515D11D8B4C9EF0D
:104D8C0026F0CBEF26F0F3EF26F0010E5E6FD3EF9B
:104D9C0026F0D8905C375D375E2B5DAFD8EF26F0F0
:104DAC00DAEF26F0CFEF26F0D890603761375C5100
:104DBC005A5D5D515B59D8A0E6EF26F0E8EF26F07E
:104DCC00EDEF26F05C515A5F5D515B5B6081D890D2
:104DDC005D335C335E2FDAEF26F05F51D8B4F9EF18
:104DEC0026F0FBEF26F0FFEF26F0606D611FD8B0C8
:104DFC00612B60C15AF161C15BF11200A50E01017A
:104E0C00006F450E016F000E026F450E036F5A0EB8
:104E1C00046FF29E020E5519D8A417EF27F019EF64
:104E2C0027F039EF27F0000E5D6F000E5C6F000E5F
:104E3C005C25D96E010E5D21DA6EDF50F7EC2DF09A
:104E4C0001015C4B5D2B5DBF35EF27F05D5109E136
:104E5C00050E5C5DD8A035EF27F037EF27F01DEF7E
:104E6C0027F060EF27F0030E5519D8A440EF27F078
:104E7C0042EF27F060EF27F0000E5D6F000E5C6FC5
:104E8C00000E5C25D96E010E5D21DA6EDF50EBEC65
:104E9C002DF001015C4B5D2B5DBF5EEF27F05D518A
:104EAC0009E1050E5C5DD8A05EEF27F060EF27F0FE
:104EBC0046EF27F0F28E5BEC2CF0120062C15AF137
:104ECC0063C15BF1000E01015D6F0A0E5C6FBDECFE
:104EDC0027F05AC165F15BC166F162C15AF163C139
:104EEC005BF1000E01015D6F0A0E5C6FA1EC26F008
:104EFC005AC167F15BC168F18B98000EBCEC28F0CD
:104F0C008B888B98000EBCEC28F067C15AF168C1F5
:104F1C005BF1D5EC25F001016A6F65C15AF166C1F0
:104F2C005BF1D5EC25F00101696F6451D8B4A1EFA8
:104F3C0027F0A3EF27F0AFEF27F06429D8A4A9EF4F
:104F4C0027F0ABEF27F0AEEF27F06A8FAFEF27F02B
:104F5C00698F6A51BCEC28F001016951BCEC28F056
:104F6C008B888B980D0EBCEC28F08B881200000EF1
:104F7C0001015F6F5BBFC7EF27F0C5EF27F0CDEFE7
:104F8C0027F05A6D5B1FD8B05B2B010E5F6F5DBFB6
:104F9C00D4EF27F0D2EF27F0D8EF27F05C6D5D1F30
:104FAC00D8B05D2B5C515D11D8B4DFEF27F0E1EF89
:104FBC0027F005EF28F0010E5E6FE9EF27F0D8908F
:104FCC005C375D375E2B5DAFEEEF27F0F0EF27F02F
:104FDC00E5EF27F05C515A5D5D515B59D8A0F9EFB4
:104FEC0027F0FBEF27F0FFEF27F05C515A5F5D5184
:104FFC005B5BD8905D335C335E2FF0EF27F05F5135
:10500C00D8B40BEF28F00DEF28F011EF28F05A6D03
:10501C005B1FD8B05B2B5AC15AF15BC15BF112001C
:10502C000001D0A11CEF28F01EEF28F028EF28F08B
:10503C0013C00AF014C00BF011C00CF012C00DF02C
:10504C009AEC2BF016BE2DEF28F02FEF28F035EF51
:10505C0028F015C01AF016C01BF039EF28F0000E1E
:10506C001B6E000E1A6E000E196E000E186E4BEFB2
:10507C0028F0000E026E200E016E11C003F012C05B
:10508C0004F03CEC26F0184A192A1A50185C1950F6
:10509C00800A176E1B50800A1758D8A058EF28F0BA
:1050AC005AEF28F03FEF28F00001D0B160EF28F064
:1050BC0062EF28F06CEF28F013C00AF014C00BF06C
:1050CC0011C00CF012C00DF09AEC2BF01200010183
:1050DC00626F8B888B98300EBCEC28F08B888B9889
:1050EC00300EBCEC28F062C160F10101603B0F0E88
:1050FC006017050E616FD8906037612F81EF28F033
:10510C0060510509BCEC28F08B888B98110EBCEC17
:10511C0028F08B888B98110EBCEC28F001016251A1
:10512C00BCEC28F001016251BCEC28F00101625189
:10513C00BCEC28F08B888B98180EBCEC28F08B8874
:10514C008B98180EBCEC28F001016251BCEC28F0D5
:10515C0001016251BCEC28F001016251BCEC28F059
:10516C0001016251BCEC28F08B88120001015C6FCC
:10517C00000E01015E6F8B965EC15AF1010E5B6FE2
:10518C005A2BCBEF28F0D8905B375A2FC9EF28F069
:10519C0001015B515C155D6F5D51D8B4D8EF28F0FF
:1051AC00DAEF28F0DDEF28F08B8ADEEF28F08B9A0F
:1051BC00000E5F6F5F2B040E5F65E7EF28F0E9EFE1
:1051CC0028F0E0EF28F08B86000E5F6F5F2B040E4B
:1051DC005F65F3EF28F0F5EF28F0ECEF28F05E2B8D
:1051EC00070E5E65FCEF28F0FEEF28F0C1EF28F00B
:1051FC00120058EC2EF0000E01015B6FA00EDFECDC
:10520C002DF068C15AF169C15BF16AC15CF16BC1E7
:10521C005DF1000E01015E6F010E5F6F000E606F9D
:10522C00000E616FD0EC23F001015A512AEC2EF0E4
:10523C00010168512AEC2EF050EC2EF0010E010108
:10524C005B6FA00EDFEC2DF0000E79EC2CF05BC147
:10525C006CF15CC16DF154EC2EF06CC168F16DC158
:10526C0069F11200FB0E926E9368840E946EC00E60
:10527C00956E000E966E000E976E050E986EC29E81
:10528C00C29CC290C18EC19CC19AC188C196C18476
:10529C00C192C190C088C190C182C184C186C188AD
:1052AC00C18EC098F28E030ED312700ED312000E64
:1052BC00C46E000EC36EC294C296C298C29AC18CC0
:1052CC00C280C282C2B26DEF29F06FEF29F068EF95
:1052DC0029F0C19C120091EF29F09EA878EF29F0DB
:1052EC007AEF29F073EF29F001C0F6FF02C0F7FF47
:1052FC0003C0F8FFF8BA03D00800F55005D0F6CF7C
:10530C00E9FFF7CFEAFFEF50AE6E010E0126000E5B
:10531C000222000E032201C0F6FF02C0F7FF03C0F9
:10532C00F8FFF8BA03D00800F55005D0F6CFE9FF26
:10533C00F7CFEAFFEF500009D8A4A7EF29F0A9EFA7
:10534C0029F073EF29F012006CEC2EF0000E026EB7
:10535C00A00E19EC2EF00FC001F010C002F011C01D
:10536C0003F012C004F0000E056E010E066E000E66
:10537C00076E000E086E57EC24F0015031EC2EF045
:10538C000F5031EC2EF064EC2EF0010E026EA00EDC
:10539C0019EC2EF0000ECEEC2CF002C013F003C072
:1053AC0014F068EC2EF013C00FF014C010F01200C3
:1053BC00960EF66E5C0EF76E000EF86E01EE76F041
:1053CC0010EE09F00900F5CFEEFFE550E150FAE1DF
:1053DC00F00EF66E5C0EF76E000EF86E00EEF6F048
:1053EC0010EE04F00900F5CFEEFFE550E150FAE1C4
:1053FC0001EE00F05A0EEE6AE806FDE100EEB7F0A1
:10540C003F0EEE6AE806FDE15F905F9200012EEF21
:10541C0008F080A214EF2AF016EF2AF037EF2AF0EA
:10542C00010138513911D8A41EEF2AF020EF2AF0CF
:10543C0030EF2AF00D0E01015C6FFB0EE82EFED74B
:10544C005C2FFCD700D080A22EEF2AF030EF2AF090
:10545C003CEF2AF0000E01015B6F000E5A6F3CEF1F
:10546C002AF0000E01015B6F010E5A6F120058EC0E
:10547C002EF0000E01015B6FA00EDFEC2DF068C169
:10548C005AF169C15BF16AC15CF16BC15DF1000E4F
:10549C0001015E6F010E5F6F000E606F000E616F99
:1054AC00D0EC23F001015A512AEC2EF00101685185
:1054BC002AEC2EF001016C512AEC2EF054EC2EF05B
:1054CC00120080A26CEF2AF06EEF2AF08CEF2AF01B
:1054DC00010138513911D8A476EF2AF078EF2AF06F
:1054EC0086EF2AF00D0E036EFC0EE82EFED7032E6F
:1054FC00FCD780A284EF2AF086EF2AF090EF2AF0F6
:10550C00000E026E000E016E90EF2AF0000E026E7D
:10551C00010E016E1200640E0001666F000E676FC3
:10552C0060C068F061C069F0000E6C6F000E6B6FAC
:10553C00000E726F000E716F680E556E000E566E77
:10554C0062C057F063C058F0660E596E000E5A6E6A
:10555C00BAEC2AF000016B516025D96E6C516121B7
:10556C00DA6E000EDF6E120057C05BF058C05CF0B4
:10557C00CEEF2AF055C03FF056C040F05B0E416EA6
:10558C00000E426E59C043F05AC044F099EC19F029
:10559C005BC0F6FF5CC0F7FFF86A0800F550000925
:1055AC00D8A4DBEF2AF0DDEF2AF0C0EF2AF0000ED2
:1055BC00566E000E556E1200026E0204D8A4E9EF6E
:1055CC002AF0EBEF2AF0F6EF2AF09EAAF0EF2AF081
:1055DC00F2EF2AF0EBEF2AF0AFCF01F008EF2BF04F
:1055EC00020E0218D8A4FDEF2AF0FFEF2AF008EF04
:1055FC002BF0A4AA04EF2BF006EF2BF0FFEF2AF010
:10560C00AACF01F001501200949C948E9892988429
:10561C00AD98AD9CAD8AA898A89CA88AAC9CAC8887
:10562C009C9C9C88AD9EAC86AC8EA89E9C869C8EC9
:10563C007E96AD847C96A8849D8A9D98A38AA39817
:10564C00190EB06E000E7F6E190EAB6E000E7D6ED5
:10565C0012006CEC2EF0000E026EA00E19EC2EF067
:10566C000FC001F010C002F011C003F012C004F022
:10567C00000E056E010E066E000E076E000E086E13
:10568C0057EC24F0015031EC2EF00F5031EC2EF091
:10569C00135031EC2EF068EC2EF012000001856FE7
:1056AC0020EEB7F010EE86F0040EDBCFE3FFE80639
:1056BC00FCE285C086F081C087F082C088F083C090
:1056CC0089F084C08AF0860E0001796F000E7A6F23
:1056DC00000E7C6F050E7B6F020E7D6F41EC23F08C
:1056EC001200010E056E200E01180210D8B481EFC5
:1056FC002BF083EF2BF096EF2BF0F70E0124036EBB
:10570C00FF0E0220046E045009E1050E035CD8A0C4
:10571C0092EF2BF094EF2BF096EF2BF0000E056E22
:10572C0005C001F0026A1200000E106E000E0F6E22
:10573C00ABEF2BF00EC001F0026A0CC003F00DC0F1
:10574C0004F03CEC26F00F4A102A0F500A24D96EB4
:10575C0010500B20DA6EDF500E6E0E50D8A4B9EF3D
:10576C002BF0BBEF2BF0A0EF2BF01200C294C296E3
:10577C00C298C29AC280000E01015B6F050E5A6F6F
:10578C0003EC2DF0C282C2B2CEEF2BF0D0EF2BF097
:10579C00C9EF2BF0C350C4CF5DF101015E6B5DC14D
:1057AC005EF15D6B5D113A6F5E513B6F1200010152
:1057BC004E514F11D8A4E5EF2BF0E7EF2BF0EBEFA8
:1057CC002BF0000E566FEDEF2BF0010E566FF29E84
:1057DC00100E686F000E696F000E6A6F000E6B6F13
:1057EC0056C16CF16D6B3DEC2AF0F28E120001018A
:1057FC004E514F11D8A405EF2CF007EF2CF00BEF06
:10580C002CF0000E566F0DEF2CF0010E566FF29E21
:10581C00100E0F6E000E106E000E116E000E126E3A
:10582C0056C113F0146A2FEC2BF0F28E120014BE3A
:10583C002AEF2CF0145006E11304D8B028EF2CF00A
:10584C002AEF2CF038EF2CF013C015F014C016F022
:10585C00151E161E154A162A15C013F016C014F084
:10586C003CEF2CF013C013F014C014F01200000E17
:10587C0001015B6F000E5A6F200E5A25D96E010E76
:10588C005B21DA6E000EDF6E5A4B5B2B5BBF58EF61
:10589C002CF05B5109E1100E5A5DD8A058EF2CF09A
:1058AC005AEF2CF042EF2CF01200000E01015B6F4E
:1058BC00000E5A6F000E5A25D96E010E5B21DA6E5E
:1058CC00000EDF6E5A4B5B2B5BBF76EF2CF05B51FF
:1058DC0009E1100E5A5DD8A076EF2CF078EF2CF081
:1058EC0060EF2CF0120001015D6F78EC2DF06B86EF
:1058FC0078EC2DF06FCF5EF178EC2DF001015D515D
:10590C00D8B48BEF2CF08DEF2CF090EF2CF06B9A31
:10591C0091EF2CF06B8A6B885EC15BF15C6B1200B3
:10592C000001786F730E0001606F000E616F4A0EFC
:10593C00626F100E636F78C064F0656B91EC2AF0A7
:10594C00730E016E000E026E01500210D8A4200ED0
:10595C00036E71EC29F01200670E01013A5D030E23
:10596C003B59D8B0BCEF2CF0BEEF2CF0C1EF2CF0B3
:10597C008C82CDEF2CF0C00E3A5D030E3B59D8A0B3
:10598C00CAEF2CF0CCEF2CF0CDEF2CF08C92120057
:10599C00046E8CEC2DF06B868CEC2DF06FCF05F03B
:1059AC008CEC2DF00450D8B4DEEF2CF0E0EF2CF0A2
:1059BC00E3EF2CF06B9AE4EF2CF06B8A6B8805C04C
:1059CC0002F0036A1200F8EF2CF0030E01015C6F79
:1059DC00970EE82EFED75C2FFCD700D001015A079A
:1059EC00D8A05B0701015A515B11D8A400EF2DF030
:1059FC0002EF2DF0EBEF2CF0120012EF2DF0030E56
:105A0C0001015C6F970EE82EFED75C2FFCD700D0FF
:105A1C0001015A07D8A05B0701015A515B11D8A4A8
:105A2C001AEF2DF01CEF2DF005EF2DF012005AC1DE
:105A3C005CF1030E01015C175C3BBB505C19CF0B96
:105A4C005C19BB6E5AC15CF15BC15DF1D8905D33E2
:105A5C005C33D8905D335C335C51BC6E120001C07A
:105A6C0003F0030E0316033ABB500318CF0B0318B5
:105A7C00BB6E01C003F002C004F0D89004320332B4
:105A8C00D890043203320350BC6E120058EF2DF044
:105A9C00030E036E980EE82EFED7032EFCD70106DC
:105AAC00D8A0020601500210D8A45FEF2DF061EFD0
:105ABC002DF04EEF2DF01200D00E0124036EFF0ED0
:105ACC000220046E04500AE10A0E035CD8A071EFA8
:105ADC002DF074EF2DF0010E75EF2DF0000E016E10
:105AEC00026A12006BCF5AF11F0E01015A17D8A48B
:105AFC0082EF2DF084EF2DF078EF2DF06DB489EF5F
:105B0C002DF08BEF2DF078EF2DF012006BCF01F014
:105B1C001F0E0116D8A495EF2DF097EF2DF08CEFFA
:105B2C002DF06DB49CEF2DF09EEF2DF08CEF2DF041
:105B3C00120001500302F3CF05F0F4CF06F0015030
:105B4C000402F350062602500302F350062605C049
:105B5C0001F006C002F01200ACA2B7EF2DF0B9EFC5
:105B6C002DF0C1EF2DF0AC98AFCF01F0AFCF01F01D
:105B7C00AC88C3EF2DF0AFCF01F001501200310E05
:105B8C00CD6E9E0ECF6E570ECE6E9E909D809F80DA
:105B9C00000E0001D16F1200D7EF2DF0020EE2ECD7
:105BAC002AF09EBADCEF2DF0DEEF2DF0D4EF2DF0C5
:105BBC00120001015C6F5CC15DF101015B515D275D
:105BCC0078EC2DF05DC16FFF120001015A6F5AC1C4
:105BDC00A9FFA8A2F4EF2DF0F6EF2DF0EFEF2DF0CA
:105BEC00120001015A6F5AC1AEFFADA200EF2EF0A8
:105BFC0002EF2EF0FBEF2DF01200958A958C280EFB
:105C0C006C6E000E6B6E270E6E6EC00E6D6E1200FB
:105C1C00016E01C0AEFFADA216EF2EF018EF2EF004
:105C2C0011EF2EF01200036E03C004F00250042694
:105C3C008CEC2DF004C06FFF1200C70E776E7996B6
:105C4C00798C000E766E120001015B6F78EC2DF0F2
:105C5C005BC16FFF1200026E8CEC2DF002C06FFF67
:105C6C0012008F868F885CEC2EF0120060EC2EF008
:105C7C008F868F8812008F868F8870EC2EF0120022
:105C8C0074EC2EF08F868F8812001E000000250009
:035C9C00D0073FEF
:105CA00078EC2DF06B82120078EC2DF06B841200F2
:105CB00078EC2DF06B801200080E736E7684120063
:105CC000000E736E769412008CEC2DF06B82120035
:105CD0008CEC2DF06B8412008CEC2DF06B8012009C
:105CE000080E736E76841200000E736E76941200A6
:065CF00014000000120088
:067FF800AEF703FBF8F1F7
:00000001FF
