:0400000087EF01F095
:100008005782D9CF37F0DACF38F09EAA0EEF00F03A
:1000180010EF00F0DDEF00F0D3EC13F03A6EA50E10
:100028003A18D8A41AEF00F01CEF00F03EEF00F0E9
:100038003350D8B422EF00F024EF00F02CEF00F09A
:100048002F04D8A42AEF00F02CEF00F03EEF00F0C8
:10005800010E326E000E266E000E256E800E2524CF
:10006800D96E000E2620DA6E3AC0DFFF254A262A0E
:10007800E7EF00F03204D8A444EF00F046EF00F0B8
:10008800E7EF00F0800E2524D96E000E2620DA6EE8
:100098003AC0DFFF265007E1050E255CD8B057EFC0
:1000A80000F059EF00F0D9EF00F05A0E3A18D8A432
:1000B80060EF00F062EF00F03AEF00F000018151CC
:1000C8008225396E39508319D8A46DEF00F06FEF8F
:1000D80000F0AEEF00F02F50D8B475EF00F077EFD6
:1000E80000F080EF00F0F50E8219D8A47EEF00F042
:1000F80080EF00F096EF00F0000E3B6E800E3B2480
:10010800D96EDA6A000EDA22DF501AEC14F03B2AB4
:10011800040E3B6492EF00F094EF00F082EF00F0E1
:10012800A4EF00F0000E3B6E160E1AEC14F03B2AFA
:10013800040E3B64A2EF00F0A4EF00F098EF00F08B
:10014800010E336E000E266E000E256E020E2C6E0A
:10015800C2EF00F0000E336E000E266E000E256E04
:10016800000E3B6E150E1AEC14F03B2A040E3B648D
:10017800C0EF00F0C2EF00F0B6EF00F0F50E00019E
:100188008219D8A4CAEF00F0CCEF00F03AEF00F0E3
:10019800020E2C18D8A4D3EF00F0D5EF00F03AEFF8
:1001A80000F0010E316E3AEF00F0000E326E3AEFB9
:1001B80000F0ACA2E2EF00F0E4EF00F0E7EF00F0AF
:1001C800AC92AC98AC882704D8A4EDEF00F0EFEF20
:1001D80000F036EF01F053BEFCEF00F05350521020
:1001E800511008E15004D8A0FCEF00F0FEEF00F039
:1001F80008EF01F0FF0E5026FF0E5122FF0E52228B
:10020800FF0E532210EF01F0000E506E000E516EDB
:10021800000E526E000E536E0001A5BF1EEF01F0D6
:10022800A551A411A31108E1A205D8A01EEF01F061
:1002380020EF01F02AEF01F0FF0EA227FF0EA32303
:10024800FF0EA423FF0EA52334EF01F0140EA26FB6
:10025800000EA36F000EA46F000EA56F65EC13F0DF
:10026800000E276E9EA03BEF01F03DEF01F044EF3A
:1002780001F09E0ECF6E570ECE6E9E90010E276E29
:10028800F0A249EF01F04BEF01F081EF01F0060E0B
:10029800366E130E356EAE0EE82EFED7352EFCD711
:1002A800362EFAD709500A10D8A45DEF01F05FEF97
:1002B80001F06CEF01F081A864EF01F066EF01F046
:1002C8006CEF01F0000E0A6E010E096E80EF01F06E
:1002D80009040A10D8A473EF01F075EF01F080EF5C
:1002E80001F081A87AEF01F07CEF01F080EF01F0D6
:1002F800000E0A6E000E096EF09238C0DAFF37C0A1
:10030800D9FF579211004DEF12F0F29EE0EC11F078
:10031800770E5AEC11F02FEC14F004EC14F0ADEC5D
:1003280013F0F8EC13F0D398D39AD39CD390D392CC
:1003380094949388CA96CA98CA9ACA9CFC0ECA16FC
:10034800040ECB6ECF0EBB16BB50F00B0C09BB6E68
:10035800000EBC6ECA848B9289941E0E506E000EDD
:10036800516E000E526E000E536ED08E9F8AF28E22
:10037800F28EC0908C808C82000E456E250E446EE5
:10038800FF0E466E06EC11F0060E0001A16F130E6B
:10039800A06FAD0EE82EFED7A02FFCD7A12FFAD75D
:1003A80000D0F1EC12F0F29E100E4A6E000E4B6E69
:1003B800000E4C6E000E4D6E19EC12F04AC023F080
:1003C8004BC024F0F28E23C02EF0010E2E64EFEF06
:1003D80001F0F1EF01F002EF02F0010E2E6EF29E35
:1003E800100E4A6E000E4B6E000E4C6E000E4D6ED7
:1003F8002EC04EF04F6AADEC12F0F28E000E1A6E5F
:10040800010E196E19C044F01AC045F02EC046F00E
:1004180006EC11F0000E166E010E156EF29E200EFF
:100428004A6E000E4B6E000E4C6E000E4D6E19ECAF
:1004380012F04AC023F04BC024F0F28E23501D6EF8
:100448001E6A1E5009E1310E1D5CD8A02EEF02F085
:1004580030EF02F03BEF02F01E5009E13B0E1D5C4D
:10046800D8A039EF02F03BEF02F04FEF02F0000E98
:100478001E6E310E1D6EF29E200E4A6E000E4B6EE1
:10048800000E4C6E000E4D6E1DC04EF01EC04FF09B
:10049800ADEC12F0F28EF29E600E4A6E000E4B6EBC
:1004A800000E4C6E000E4D6E19EC12F04AC023F08F
:1004B8004BC024F0F28E23C02BF02F0E2B6467EF75
:1004C80002F069EF02F071EF02F0350E2B646FEF66
:1004D80002F071EF02F0AEEF02F0300E2B6E000E5C
:1004E8001C6E000E1B6EF29E600E4A6E000E4B6E66
:1004F800000E4C6E000E4D6E2BC04EF04F6AADECE8
:1005080012F0F28ED4EF02F0000E1C6E000E1B6E7D
:10051800300E2B6ED4EF02F0030E1C6EE80E1B6E2D
:10052800D4EF02F0070E1C6ED00E1B6ED4EF02F053
:100538000B0E1C6EB80E1B6ED4EF02F00F0E1C6E65
:10054800A00E1B6ED4EF02F0130E1C6E880E1B6EED
:10055800D4EF02F02B500001A06FA16BA151000A4B
:10056800D8B4B9EF02F088EF02F0A051300AD8B43D
:1005780088EF02F0010AD8B490EF02F0030AD8B469
:1005880096EF02F0010AD8B49CEF02F0070AD8B43B
:10059800A2EF02F0010AD8B4A8EF02F088EF02F047
:1005A800F29E500E4A6E000E4B6E000E4C6E000E00
:1005B8004D6E19EC12F04AC023F04BC024F0F28EB5
:1005C80023C029F0960E2964ECEF02F0EEEF02F05A
:1005D80005EF03F0000E296EF29E500E4A6E000ED3
:1005E8004B6E000E4C6E000E4D6E29C04EF04F6AD9
:1005F800ADEC12F0F28E000E206E000E1F6E08EFAA
:1006080003F029C01FF0206AF29E400E4A6E000EC9
:100618004B6E000E4C6E000E4D6E19EC12F04AC077
:1006280023F04BC024F0F28E23C02AF0810E2A1842
:10063800D8B421EF03F023EF03F09CEF03F0820E10
:100648002A18D8B42AEF03F02CEF03F09CEF03F03C
:10065800830E2A18D8B433EF03F035EF03F09CEF7C
:1006680003F0840E2A18D8B43CEF03F03EEF03F0F1
:100678009CEF03F0850E2A18D8B445EF03F047EF36
:1006880003F09CEF03F0860E2A18D8B44EEF03F05F
:1006980050EF03F09CEF03F0870E2A18D8B457EFF9
:1006A80003F059EF03F09CEF03F0070E556ED00EE0
:1006B800546E820E2A6EF29E400E4A6E000E4B6EEB
:1006C800000E4C6E000E4D6E2AC04EF04F6AADEC17
:1006D80012F0F28EC6EF03F0030E556EE80E546E5C
:1006E800C6EF03F0070E556ED00E546E820E2A6EBA
:1006F800C6EF03F00B0E556EB80E546EC6EF03F03E
:100708000F0E556EA00E546EC6EF03F0130E556E05
:10071800880E546EC6EF03F0030E556E200E546E0D
:10072800C6EF03F0050E556EDC0E546EC6EF03F0EF
:100738002A500001A06FA16BA151000AD8B4A7EFFD
:1007480003F076EF03F0A051810AD8B470EF03F0FC
:10075800030AD8B476EF03F0010AD8B47EEF03F0A9
:10076800070AD8B484EF03F0010AD8B48AEF03F07B
:10077800030AD8B490EF03F0010AD8B496EF03F057
:1007880076EF03F03F0E566EF29E300E4A6E000E64
:100798004B6E000E4C6E000E4D6E19EC12F04AC0F6
:1007A80023F04BC024F0F28E23C056F05650D8B434
:1007B800E0EF03F0E2EF03F005EF04F03F0E561808
:1007C800D8B4E9EF03F0EBEF03F005EF04F07F0E88
:1007D8005618D8B4F2EF03F0F4EF03F005EF04F085
:1007E8003F0E566EF29E300E4A6E000E4B6E000E95
:1007F8004C6E000E4D6E56C04EF04F6AADEC12F0C6
:10080800F28E1E0E506E000E516E000E526E000ECD
:10081800536E6CEC0EF08C92F29E700E4A6E000EC7
:100828004B6E000E4C6E000E4D6E19EC12F04AC065
:1008380023F04BC024F0F28E23500D6E0E6A0D503B
:100848000E10D8B42AEF04F02CEF04F087EF04F070
:100858000D040E10D8B433EF04F035EF04F087EF31
:1008680004F0020E0D180E10D8B43DEF04F03FEF5F
:1008780004F087EF04F0030E0D180E10D8B447EFFC
:1008880004F049EF04F087EF04F0040E0D180E1081
:10089800D8B451EF04F053EF04F087EF04F0000EE2
:1008A8000E6E000E0D6EF29E700E4A6E000E4B6EAE
:1008B800000E4C6E000E4D6E0DC04EF00EC04FF087
:1008C800ADEC12F0F28EAAEF04F0000E0C6E000EE2
:1008D8000B6EAAEF04F0000E0C6E070E0B6EAAEF5B
:1008E80004F0000E0C6E090E0B6EAAEF04F0000E59
:1008F8000C6E0C0E0B6EAAEF04F0000E0C6E140EAC
:100908000B6EAAEF04F00DC0A0F00EC0A1F000011C
:10091800A151000AD8B493EF04F069EF04F0A05194
:10092800000AD8B469EF04F0010AD8B46FEF04F0F4
:10093800030AD8B475EF04F0010AD8B47BEF04F0C9
:10094800070AD8B481EF04F069EF04F00BC03CF05B
:100958000CC03DF080EC13F004001E0E506E000E2B
:10096800516E000E526E000E536EF1EC12F03AEF1B
:1009780009F015C019F016C01AF081B8C6EF04F0D6
:10098800C8EF04F063EF05F00DC042F00EC043F06D
:100998002EC044F056EC0DF004BEDCEF04F0D00E8F
:1009A800035C070E0458D8A0DCEF04F0DEEF04F077
:1009B8000FEF05F00DC09AF00EC09BF0BEEC0CF0E6
:1009C8009AC00BF09BC00CF0700E4A6E000E4B6E76
:1009D800000E4C6E000E4D6E19EC12F04AC00DF070
:1009E8004BC00EF0D2EC12F00DC042F00EC043F036
:1009F8002EC044F056EC0DF0060E0001A16F130E48
:100A0800A06FAD0EE82EFED7A02FFCD7A12FFAD7E6
:100A180000D04CEF05F004BE1DEF05F0D00E035CCE
:100A2800070E0458D8B01BEF05F01DEF05F04CEF8A
:100A380005F00DC042F00EC043F02EC044F056EC55
:100A48000DF0020E0001A16F860EA06F990EE82E20
:100A5800FED7A02FFCD7A12FFAD7000E046E000EE8
:100A6800036E4CEF05F00DC042F00EC043F02EC0EF
:100A780044F056EC0DF01A0E0001A06FF80EE82EA7
:100A8800FED7A02FFCD700F00A0E0326000E042282
:100A980004BE58EF05F0D00E035C070E0458D8A02A
:100AA80058EF05F05AEF05F037EF05F081A85FEF32
:100AB80005F061EF05F0C8EF04F067EF05F0000EF0
:100AC800046E000E036E81B66CEF05F06EEF05F054
:100AD80023EF06F0630E19181A10D8B476EF05F054
:100AE80078EF05F023EF06F081B67DEF05F07FEF94
:100AF80005F027EF06F008BE8BEF05F0E80E075C5F
:100B0800030E0858D8A08BEF05F08DEF05F0B5EF70
:100B180005F01A5007E15A0E195CD8B096EF05F0A7
:100B280098EF05F0B5EF05F0060E0001A16F130E62
:100B3800A06FAD0EE82EFED7A02FFCD7A12FFAD7B5
:100B480000D00A0E1924196E000E1A201A6E19C048
:100B580044F01AC045F02EC046F006EC11F0E1EF63
:100B680005F008BEC3EF05F0E80E075C030E085851
:100B7800D8B0C1EF05F0C3EF05F0E1EF05F0010EC5
:100B88001924196E000E1A201A6E19C044F01AC0E2
:100B980045F02EC046F006EC11F0020E0001A16FE0
:100BA800860EA06F990EE82EFED7A02FFCD7A12F96
:100BB800FAD7000E086E000E076E81B6E6EF05F054
:100BC800E8EF05F00AEF06F080BAEDEF05F0EFEF79
:100BD80005F00AEF06F0000E1A6E000E196E19C025
:100BE80044F01AC045F02EC046F006EC11F00AEFAA
:100BF80006F01A0E0001A06FF80EE82EFED7A02FFF
:100C0800FCD700F00A0E0726000E082281B60FEF67
:100C180006F011EF06F021EF06F008BE1DEF06F012
:100C2800E80E075C030E0858D8A01DEF06F01FEF6A
:100C380006F0FDEF05F027EF06F027EF06F0000EAF
:100C4800086E000E076E80BA2CEF06F02EEF06F045
:100C5800E2EF06F019501A10D8B435EF06F037EF66
:100C680006F0E2EF06F080BA3CEF06F03EEF06F041
:100C7800E6EF06F006BE4AEF06F0E80E055C030E46
:100C88000658D8A04AEF06F04CEF06F074EF06F0CD
:100C98001A5009E10A0E195CD8A055EF06F057EF73
:100CA80006F074EF06F0060E0001A16F130EA06F98
:100CB800AD0EE82EFED7A02FFCD7A12FFAD700D073
:100CC800F60E1924196EFF0E1A201A6E19C044F078
:100CD8001AC045F02EC046F006EC11F0A0EF06F061
:100CE80006BE82EF06F0E80E055C030E0658D8B083
:100CF80080EF06F082EF06F0A0EF06F0FF0E192451
:100D0800196EFF0E1A201A6E19C044F01AC045F069
:100D18002EC046F006EC11F0020E0001A16F860EFF
:100D2800A06F990EE82EFED7A02FFCD7A12FFAD7D7
:100D3800000E066E000E056E80BAA5EF06F0A7EF4E
:100D480006F0C9EF06F081B6ACEF06F0AEEF06F09C
:100D5800C9EF06F0000E1A6E000E196E19C044F0A5
:100D68001AC045F02EC046F006EC11F0C9EF06F0A7
:100D78001A0E0001A06FF80EE82EFED7A02FFCD7A0
:100D880000F00A0E0526000E062280BACEEF06F005
:100D9800D0EF06F0E0EF06F006BEDCEF06F0E80E56
:100DA800055C030E0658D8A0DCEF06F0DEEF06F06F
:100DB800BCEF06F0E6EF06F0E6EF06F0000E066E72
:100DC800000E056E19C015F01AC016F019C044F0CF
:100DD8001AC045F02EC046F006EC11F009040A10BE
:100DE800D8A4F9EF06F0FBEF06F00BEF07F0010EC1
:100DF8002F6E1E0E506E000E516E000E526E000EBB
:100E0800536E52EC09F0000E316E000E2F6E330453
:100E1800D8A411EF07F013EF07F036EF09F00CEF45
:100E280009F0F10E8219D8A41CEF07F01EEF07F0A5
:100E38003AEF07F02F50D8A424EF07F026EF07F079
:100E48003AEF07F0000E316E010E2F6E15C019F043
:100E580016C01AF01E0E506E000E516E000E526E25
:100E6800000E536EABEC0BF098EF07F0F20E821900
:100E7800D8A441EF07F043EF07F098EF07F02F50A1
:100E8800D8A449EF07F04BEF07F098EF07F0000EF2
:100E9800316E010E2F6E15C019F016C01AF019C068
:100EA80044F01AC045F02EC046F006EC11F01E0EB4
:100EB800506E000E516E000E526E000E536E52ECC4
:100EC80009F03150D8A46BEF07F06DEF07F098EFF9
:100ED80007F0A50E0001606F440E616FF90E626F96
:100EE8003D0E636F5A0E646FF29E000E146E000E74
:100EF800136E145009E1050E135CD8A086EF07F0B5
:100F080088EF07F08AEF07F097EF07F0600E1324D9
:100F1800D96E000E1420DA6EDF500FEC14F0134A6D
:100F2800142A7DEF07F0F28E10EC13F02DEC13F07D
:100F3800000E316E000E2F6E2EEF09F02F50D8A440
:100F4800A8EF07F0AAEF07F02EEF09F0010E2F6EB9
:100F580082C02BF0D6EF07F0000E1C6E000E1B6E41
:100F6800300E2B6EFBEF07F0030E1C6EE80E1B6EA7
:100F7800FBEF07F0070E1C6ED00E1B6EFBEF07F0A1
:100F88000B0E1C6EB80E1B6EFBEF07F00F0E1C6EDF
:100F9800A00E1B6EFBEF07F0130E1C6E880E1B6E67
:100FA800FBEF07F02B50A06FA16BA151000AD8B43A
:100FB800E0EF07F0B0EF07F0A051300AD8B4B0EF77
:100FC80007F0010AD8B4B8EF07F0030AD8B4BEEFA7
:100FD80007F0010AD8B4C4EF07F0070AD8B4CAEF7B
:100FE80007F0010AD8B4D0EF07F0B0EF07F0F29E8F
:100FF800600E4A6E000E4B6E000E4C6E000E4D6E6B
:101008002BC04EF04F6AADEC12F0F28E10EC13F0DC
:101018009EEF07F02F50D8A414EF08F016EF08F051
:101028002EEF09F08251D8A41CEF08F01EEF08F04B
:1010380088EF08F0010E2F6E600E4A6E000E4B6EA0
:10104800000E4C6E000E4D6E19EC12F04A502B6ECD
:10105800400E4A6E000E4B6E000E4C6E000E4D6E2A
:1010680019EC12F04A502A6E300E4A6E000E4B6E82
:10107800000E4C6E000E4D6E19EC12F04AC021F0B5
:101088004BC022F0500E4A6E000E4B6E000E4C6E96
:10109800000E4D6E19EC12F04A50296E510E0001E7
:1010A800606F2BC061F021C062F02AC063F029C0D4
:1010B80064F0020E0001A16F040EA06FBA0EE82EB4
:1010C800FED7A02FFCD7A12FFAD700F0000E146E80
:1010D800000E136E145009E1050E135CD8A077EFCB
:1010E80008F079EF08F07BEF08F088EF08F0600E61
:1010F8001324D96E000E1420DA6EDF500FEC14F0B2
:10110800134A142A6EEF08F02DEC13F09EEF07F047
:101118002F50D8A492EF08F094EF08F0ECEF08F005
:10112800010E2F6E82C02AF0BAEF08F0030E556E3A
:10113800E80E546EDBEF08F0070E556ED00E546EB5
:10114800820E2A6EDBEF08F00B0E556EB80E546E49
:10115800DBEF08F00F0E556EA00E546EDBEF08F0B3
:10116800130E556E880E546EDBEF08F02A50A06FF0
:10117800A16BA151000AD8B4C4EF08F0A0EF08F0A1
:10118800A051810AD8B49AEF08F0030AD8B4A0EFA6
:1011980008F0010AD8B4A8EF08F0070AD8B4AEEFEF
:1011A80008F0010AD8B4B4EF08F0A0EF08F0F29EF6
:1011B800400E4A6E000E4B6E000E4C6E000E4D6EC9
:1011C8002AC04EF04F6AADEC12F0F28E000E2F6E70
:1011D8002F50D8A4F2EF08F0F4EF08F02EEF09F042
:1011E800010E2F6E82C029F029C01FF0206AF29EDE
:1011F800500E4A6E000E4B6E000E4C6E000E4D6E79
:1012080029C04EF04F6AADEC12F0F28E9EEF07F057
:1012180000018151A06FA16BA151000AD8B417EF4A
:1012280009F02EEF09F0A051230AD8B4A2EF07F075
:10123800670AD8B415EF07F0150AD8B40EEF08F00E
:10124800340AD8B48CEF08F0030AD8B4ECEF08F0ED
:101258002EEF09F0000E336E000E326E000E2C6E6B
:10126800AAEF04F0000E2C6EAAEF04F02C50000137
:10127800A06FA16BA151000AD8B445EF09F0AAEFFD
:1012880004F0A051000AD8B4BDEF04F0020AD8B4A3
:101298000BEF07F0AAEF04F087EF01F02E04D8A4B3
:1012A80058EF09F05AEF09F06FEF09F08B8254C03C
:1012B8003CF055C03DF097EC13F08B92040E4E6E47
:1012C8000C0E4D6E340EE82EFED74D2EFCD74E2E4A
:1012D800FAD772EF09F08B9262EF09F089841950FE
:1012E8001A10D8A47AEF09F07CEF09F082EF09F020
:1012F800000E186E010E176E54EF0BF0000E186EEC
:10130800000E176E54EF0BF0040080EC12F0F1ECB5
:1013180012F01BC03CF01CC03DF097EC13F03CEC05
:1013280014F0020E4E6E860E4D6E990EE82EFED704
:101338004D2EFCD74E2EFAD700F01E0E506E000E22
:10134800516E000E526E000E536EE6EC13F03CC068
:1013580011F03DC012F05050511052105310D8A443
:10136800B8EF09F0BAEF09F0BFEF09F0310E72ECEF
:101378000FF041EC14F011501210D8A4C6EF09F088
:10138800C8EF09F0A9EF09F04E0E4D6EEB0EE82EEE
:10139800FED74D2EFCD700F01E0E506E000E516E7B
:1013A800000E526E000E536EE6EC13F03CC011F0C6
:1013B8003DC012F05050511052105310D8A4E7EF0E
:1013C80009F0E9EF09F0EEEF09F0320E72EC0FF0D8
:1013D80041EC14F011041210D8A4F5EF09F0F7EF5E
:1013E80009F0D8EF09F01E0E506E000E516E000E77
:1013F800526E000E536E1FC03CF020C03DF097ECBB
:1014080013F041EC14F019501A10D8B40EEF0AF08A
:1014180010EF0AF01CEF0AF017041810D8B417EFF1
:101428000AF019EF0AF01CEF0AF01906D8A01A06FC
:1014380019C044F01AC045F02EC046F006EC11F071
:101448002E04D8A42AEF0AF02CEF0AF053EF0AF082
:1014580019501A10D8A433EF0AF035EF0AF03EEF0E
:101468000AF017041810D8A43CEF0AF03EEF0AF06F
:1014780053EF0AF08B8254C03CF055C03DF097EC16
:1014880013F08B92040E4E6E0C0E4D6E340EE82E39
:10149800FED74D2EFCD74E2EFAD793EF0AF02E50DA
:1014A800D8A459EF0AF05BEF0AF093EF0AF019504D
:1014B8001A10D8A462EF0AF064EF0AF06DEF0AF090
:1014C80017041810D8A46BEF0AF06DEF0AF093EF29
:1014D8000AF08B9219501A10D8A475EF0AF077EF1A
:1014E8000AF080EF0AF017041810D8A47EEF0AF06B
:1014F80080EF0AF088EF0AF054C03CF055C03DF088
:1015080097EC13F093EF0AF0060E4E6E130E4D6E25
:10151800AE0EE82EFED74D2EFCD74E2EFAD7CB0EA8
:101528004E6EEC0E4D6E840EE82EFED74D2EFCD777
:101538004E2EFAD700D0CB0E4E6EEC0E4D6E840EAA
:10154800E82EFED74D2EFCD74E2EFAD700D0CB0E64
:101558004E6EEC0E4D6E840EE82EFED74D2EFCD747
:101568004E2EFAD700D0CB0E4E6EEC0E4D6E840E7A
:10157800E82EFED74D2EFCD74E2EFAD700D0CB0E34
:101588004E6EEC0E4D6E840EE82EFED74D2EFCD717
:101598004E2EFAD700D0CB0E4E6EEC0E4D6E840E4A
:1015A800E82EFED74D2EFCD74E2EFAD700D03104A8
:1015B800D8A4E1EF0AF0E3EF0AF010EF0BF066EFC2
:1015C8000BF0000E186E020E176E19C044F01AC008
:1015D80045F02E50D8B4F3EF0AF0F6EF0AF0010EFA
:1015E800F7EF0AF0000E466E06EC11F0820E4D6E13
:1015F800DE0EE82EFED74D2EFCD719C044F01AC0D7
:1016080045F02EC046F006EC11F0820E4D6EDE0E4F
:10161800E82EFED74D2EFCD709500A10D8A417EF94
:101628000BF019EF0BF02BEF0BF017041810D8B4D0
:1016380020EF0BF022EF0BF0E5EF0AF0175018102F
:10164800D8B429EF0BF02BEF0BF0E5EF0AF019C037
:1016580044F01AC045F02EC046F006EC11F00950CF
:101668000A10D8A43AEF0BF03CEF0BF04DEF0BF05B
:1016780019501A10D8B443EF0BF045EF0BF04DEFAB
:101688000BF019C015F01AC016F0000E1A6E000EF5
:10169800196E820E4D6EDE0EE82EFED74D2EFCD74B
:1016A80019501A10D8A45BEF0BF05DEF0BF088EF20
:1016B80009F017041810D8B464EF0BF066EF0BF0BC
:1016C80088EF09F0899419501A10D8B46EEF0BF00E
:1016D80070EF0BF078EF0BF03104D8A476EF0BF035
:1016E80078EF0BF09CEF0BF017501810D8A47FEF91
:1016F8000BF081EF0BF09CEF0BF02E04D8A487EFD2
:101708000BF089EF0BF09CEF0BF08B8254C03CF090
:1017180055C03DF097EC13F08B92040E4E6E0C0EF4
:101728004D6E340EE82EFED74D2EFCD74E2EFAD72E
:10173800000E186E000E176E000E1A6E000E196E4F
:10174800000E0A6E000E096E000E2C6E1200000EBE
:10175800126E000E116E410EF2EC0EF02E04D8A49B
:10176800B8EF0BF0BAEF0BF0CFEF0BF08B8254C051
:101778003CF055C03DF097EC13F08B92040E466E8A
:101788000C0E456E340EE82EFED7452EFCD7462E9D
:10179800FAD7D2EF0BF08B92C2EF0BF0898482EF6D
:1017A8000CF0040080EC12F0F1EC12F01BC03CF0DD
:1017B8001CC03DF097EC13F03CEC14F0020E466EA2
:1017C800860E456E990EE82EFED7452EFCD7462E7E
:1017D800FAD700F01E0E506E000E516E000E526EBB
:1017E800000E536EE6EC13F03CC011F03DC012F051
:1017F8005050511052105310D8A405EF0CF007EFB9
:101808000CF00CEF0CF0310E72EC0FF041EC14F010
:1018180011501210D8A413EF0CF015EF0CF0F6EFDE
:101828000BF04E0E456EEB0EE82EFED7452EFCD77C
:1018380000F01E0E506E000E516E000E526E000E1D
:10184800536EE6EC13F03CC011F03DC012F050505E
:10185800511052105310D8A434EF0CF036EF0CF09E
:101868003BEF0CF0320E72EC0FF041EC14F0110467
:101878001210D8A442EF0CF044EF0CF025EF0CF056
:101888001E0E506E000E516E000E526E000E536EFC
:101898001FC03CF020C03DF097EC13F041EC14F071
:1018A8002E04D8A45AEF0CF05CEF0CF071EF0CF09A
:1018B8008B8254C03CF055C03DF097EC13F08B92EE
:1018C800040E466E0C0E456E340EE82EFED7452EDD
:1018D800FCD7462EFAD778EF0CF08B9254C03CF028
:1018E80055C03DF097EC13F03104D8A47EEF0CF00E
:1018F80080EF0CF082EF0CF08AEF0CF03150D8B486
:1019080088EF0CF08AEF0CF0D5EF0BF089941950A2
:101918001A10D8B492EF0CF094EF0CF09CEF0CF086
:101928003104D8A49AEF0CF09CEF0CF0B7EF0CF050
:101938002E04D8A4A2EF0CF0A4EF0CF0B7EF0CF033
:101948008B8254C03CF055C03DF097EC13F08B925D
:10195800040E466E0C0E456E340EE82EFED7452E4C
:10196800FCD7462EFAD7000E1A6E000E196E020E1C
:101978002C6E12002EEF0DF0000E9F6F070E9E6F5B
:10198800F29E700E4A6E000E4B6E000E4C6E000EEC
:101998004D6E000E4F6E010E4E6EADEC12F0F28ED3
:1019A80051EF0DF0000E9F6F090E9E6FF29E700EA4
:1019B8004A6E000E4B6E000E4C6E000E4D6E000E01
:1019C8004F6E020E4E6EADEC12F0F28E51EF0DF02E
:1019D800000E9F6F0C0E9E6FF29E700E4A6E000EE8
:1019E8004B6E000E4C6E000E4D6E000E4F6E030EC9
:1019F8004E6EADEC12F0F28E51EF0DF0000E9F6FAF
:101A0800140E9E6FF29E700E4A6E000E4B6E000E04
:101A18004C6E000E4D6E000E4F6E040E4E6EADEC09
:101A280012F0F28E51EF0DF0000E9F6F000E9E6FB8
:101A3800F29E700E4A6E000E4B6E000E4C6E000E3B
:101A48004D6E000E4F6E000E4E6EADEC12F0F28E23
:101A580051EF0DF09AC09CF09BC09DF000019D5184
:101A6800000AD8B43AEF0DF051EF0DF09C51000A7E
:101A7800D8B4C0EF0CF0010AD8B4D6EF0CF0030AC2
:101A8800D8B4ECEF0CF0010AD8B402EF0DF0070A55
:101A9800D8B418EF0DF051EF0DF09EC09AF09FC02A
:101AA8009BF012008B98000EA0EC11F08B888B989D
:101AB800000EA0EC11F04404D8A465EF0DF067EF18
:101AC8000DF078EF0DF042044310D8A46EEF0DF03E
:101AD80070EF0DF078EF0DF03E0EA0EC11F0860ED1
:101AE800A0EC11F0DFEF0DF04404D8A47EEF0DF068
:101AF80080EF0DF092EF0DF0020E42184310D8A4BB
:101B080088EF0DF08AEF0DF092EF0DF03E0EA0EC8D
:101B180011F0DB0EA0EC11F0DFEF0DF04404D8A4B7
:101B280098EF0DF09AEF0DF0ACEF0DF0030E4218A0
:101B38004310D8A4A2EF0DF0A4EF0DF0ACEF0DF018
:101B48003E0EA0EC11F0CF0EA0EC11F0DFEF0DF07F
:101B58004404D8A4B2EF0DF0B4EF0DF0C6EF0DF0C9
:101B6800040E42184310D8A4BCEF0DF0BEEF0DF0E0
:101B7800C6EF0DF03E0EA0EC11F0E60EA0EC11F051
:101B8800DFEF0DF04450D8A4CCEF0DF0CEEF0DF000
:101B9800DFEF0DF042504310D8A4D5EF0DF0D7EF8A
:101BA8000DF0DFEF0DF03E0EA0EC11F0BF0EA0EC33
:101BB80011F0DFEF0DF08B888B980D0EA0EC11F073
:101BC8008B881200000E456E43BEEFEF0DF0EDEF6F
:101BD8000DF0F9EF0DF0431E421E411E406C000E41
:101BE800412242224322010E456E3FBE00EF0EF015
:101BF800FEEF0DF00AEF0EF03F1E3E1E3D1E3C6C40
:101C0800000E3D223E223F22010E451A000E466E6E
:101C1800000E476E000E486E000E496E405041108F
:101C280042104310D8B41BEF0EF01DEF0EF053EF27
:101C38000EF0010E446E27EF0EF0D8904036413674
:101C480042364336442A43AE2CEF0EF02EEF0EF008
:101C580021EF0EF0D8904636473648364936405080
:101C68003C5C41503D5842503E5843503F58D8A0E4
:101C780040EF0EF042EF0EF04BEF0EF040503C5E9E
:101C880041503D5A42503E5A43503F5A4680D890A0
:101C98004332423241324032442E2EEF0EF045504C
:101CA800D8B459EF0EF05BEF0EF063EF0EF0491E5B
:101CB800481E471E466C000E47224822492246C04D
:101CC8003CF047C03DF048C03EF049C03FF012002C
:101CD80089843CEC14F0040E466E8E0E456E120E8E
:101CE800E82EFED7452EFCD7462EFAD700D01E0E7A
:101CF800506E000E516E000E526E000E536EE6ECE2
:101D080013F03CC011F03DC012F050505110521069
:101D18005310D8A492EF0EF094EF0EF099EF0EF056
:101D2800310E72EC0FF041EC14F011501210D8A4DF
:101D3800A0EF0EF0A2EF0EF083EF0EF04E0E456E00
:101D4800EB0EE82EFED7452EFCD700F01E0E506E87
:101D5800000E516E000E526E000E536EE6EC13F03C
:101D68003CC011F03DC012F05050511052105310A9
:101D7800D8A4C1EF0EF0C3EF0EF0C8EF0EF0320E8C
:101D880072EC0FF041EC14F011041210D8A4CFEF4C
:101D98000EF0D1EF0EF0B2EF0EF01E0E506E000EE8
:101DA800516E000E526E000E536E1FC03CF020C0E4
:101DB8003DF097EC13F041EC14F0060E466E130E4E
:101DC800456EAE0EE82EFED7452EFCD7462EFAD726
:101DD800000E126E000E116E89941200446E8B98DC
:101DE800000EA0EC11F08B888B98000EA0EC11F07F
:101DF8003EEF0FF0790EA0EC11F03F0EA0EC11F0C1
:101E08006BEF0FF03F0EA0EC11F0730EA0EC11F089
:101E18006BEF0FF0390EA0EC11F0770EA0EC11F07B
:101E28006BEF0FF0000EA0EC11F0000EA0EC11F01B
:101E38006BEF0FF0000EA0EC11F03F0EA0EC11F0CC
:101E48006BEF0FF0790EA0EC11F0060EA0EC11F07C
:101E58006BEF0FF0770EA0EC11F03E0EA0EC11F036
:101E68006BEF0FF0000EA0EC11F03E0EA0EC11F09D
:101E78006BEF0FF04450426E436A4350000AD8B4E7
:101E880048EF0FF06BEF0FF04250410AD8B42EEF35
:101E98000FF0020AD8B40EEF0FF0060AD8B4FEEF1E
:101EA8000EF0020AD8B41EEF0FF0080AD8B406EFF5
:101EB8000FF01C0AD8B426EF0FF0050AD8B436EF95
:101EC8000FF00E0AD8B416EF0FF06BEF0FF08B88F7
:101ED8008B980D0EA0EC11F08B881200446E8B9835
:101EE800000EA0EC11F08B888B98000EA0EC11F07E
:101EF800B6EF0FF0790EA0EC11F0770EA0EC11F010
:101F0800DFEF0FF0790EA0EC11F03F0EA0EC11F00E
:101F1800DFEF0FF0790EA0EC11F0060EA0EC11F037
:101F2800DFEF0FF0790EA0EC11F05B0EA0EC11F0D2
:101F3800DFEF0FF0000EA0EC11F03F0EA0EC11F057
:101F4800DFEF0FF0790EA0EC11F0060EA0EC11F007
:101F5800DFEF0FF0770EA0EC11F03E0EA0EC11F0C1
:101F6800DFEF0FF04450426E436A4350000AD8B482
:101F7800C0EF0FF0DFEF0FF04250300AD8B486EF11
:101F88000FF0010AD8B48EEF0FF0030AD8B496EF19
:101F98000FF0730AD8B4AEEF0FF0040AD8B47EEF8E
:101FA8000FF0020AD8B49EEF0FF0140AD8B4A6EFC7
:101FB8000FF0DFEF0FF08B888B980D0EA0EC11F06F
:101FC8008B88120014EF10F03F0E406E4AEF10F0AD
:101FD800060E406E4AEF10F05B0E406E4AEF10F0AE
:101FE8004F0E406E4AEF10F0660E406E4AEF10F04A
:101FF8006D0E406E4AEF10F07D0E406E4AEF10F005
:10200800070E406E4AEF10F07F0E406E4AEF10F058
:102018006F0E406E4AEF10F0000E406E4AEF10F05F
:102028003CC03EF03DC03FF03F50000AD8B41FEF1F
:1020380010F010EF10F03E50000AD8B4E8EF0FF09F
:10204800010AD8B4ECEF0FF0030AD8B4F0EF0FF0A0
:10205800010AD8B4F4EF0FF0070AD8B4F8EF0FF07C
:10206800010AD8B4FCEF0FF0030AD8B400EF10F05F
:10207800010AD8B404EF10F00F0AD8B408EF10F032
:10208800010AD8B40CEF10F010EF10F04050120015
:10209800000E416E3FBE55EF10F053EF10F05BEFAE
:1020A80010F03E6C3F1ED8B03F2A010E416E3DBE77
:1020B80062EF10F060EF10F068EF10F03C6C3D1E1E
:1020C800D8B03D2A010E411A000E436E000E426E32
:1020D8003E503F10D8B473EF10F075EF10F09DEF3D
:1020E80010F0010E406E7DEF10F0D8903E363F366E
:1020F800402A3FAE82EF10F084EF10F079EF10F035
:10210800D890423643363E503C5C3F503D58D8A0AC
:1021180090EF10F092EF10F097EF10F03E503C5E09
:102128003F503D5A4280D8903F323E32402E84EF95
:1021380010F04150D8B4A3EF10F0A5EF10F0A9EFBC
:1021480010F0426C431ED8B0432A42C03CF043C052
:102158003DF01200000E416E3DBEB7EF10F0B5EF36
:1021680010F0BDEF10F03C6C3D1ED8B03D2A010EBA
:10217800416E3FBEC4EF10F0C2EF10F0C8EF10F090
:102188003E6C3F1ED8B03F2A3E503F10D8B4CFEF28
:1021980010F0D1EF10F0F5EF10F0010E406ED9EF0E
:1021A80010F0D8903E363F36402A3FAEDEEF10F0B2
:1021B800E0EF10F0D5EF10F03E503C5C3F503D583A
:1021C800D8A0E9EF10F0EBEF10F0EFEF10F03E5071
:1021D8003C5E3F503D5AD8903F323E32402EE0EFB1
:1021E80010F04150D8B4FBEF10F0FDEF10F001EF04
:1021F80011F03C6C3D1ED8B03D2A3CC03CF03DC0BF
:102208003DF0120044C03CF045C03DF0000E3F6E6A
:102218000A0E3E6EAEEC10F03CC047F03DC048F0F0
:1022280044C03CF045C03DF0000E3F6E0A0E3E6EC5
:102238004CEC10F03CC049F03DC04AF08B98000EC1
:10224800A0EC11F08B888B98000EA0EC11F049C01F
:102258003CF04AC03DF0E6EC0FF04C6E47C03CF055
:1022680048C03DF0E6EC0FF04B6E4650D8B43FEF57
:1022780011F041EF11F04DEF11F04628D8A447EFC7
:1022880011F049EF11F04CEF11F04C8E4DEF11F0B9
:102298004B8E4C50A0EC11F04B50A0EC11F08B88F9
:1022A8008B980D0EA0EC11F08B881200446E8B8871
:1022B8008B98300EA0EC11F08B888B98300EA0EC28
:1022C80011F044C042F0423A0F0E4216050E436E1A
:1022D800D8904236432E6CEF11F042500509A0EC1D
:1022E80011F08B888B98110EA0EC11F08B888B98CD
:1022F800110EA0EC11F04450A0EC11F04450A0ECE9
:1023080011F04450A0EC11F08B888B98180EA0ECBB
:1023180011F08B888B98180EA0EC11F04450A0ECAB
:1023280011F04450A0EC11F04450A0EC11F04450CE
:10233800A0EC11F08B8812003E6E000E406E8B965A
:1023480040C03CF0010E3D6E3C2AADEF11F0D89034
:102358003D363C2EABEF11F03D503E143F6E3F50E2
:10236800D8B4B9EF11F0BBEF11F0BEEF11F08B8AC2
:10237800BFEF11F08B9A000E416E412A040E4164A2
:10238800C8EF11F0CAEF11F0C1EF11F08B86000E03
:10239800416E412A040E4164D4EF11F0D6EF11F0DA
:1023A800CDEF11F0402A070E4064DDEF11F0DFEFAA
:1023B80011F0A3EF11F01200FB0E926E9368840ED9
:1023C800946EC00E956E000E966E000E976E050EFA
:1023D800986EC29EC29CC290C18EC19CC19AC1888F
:1023E800C196C184C192C190C088C190C182C18484
:1023F800C186C188C18EC098F28E030ED312700EAA
:10240800D312000EC46E000EC36EC294C296C29858
:10241800C29AC18CC280C282C2B215EF12F017EF05
:1024280012F010EF12F0C19C12004EEC14F0000EE6
:102438003D6EA00E25EC14F04AC03CF04BC03DF0B8
:102448004CC03EF04DC03FF0000E406E010E416E94
:10245800000E426E000E436EE6EC0DF03C5036EC7A
:1024680014F04A5036EC14F046EC14F0010E3D6EB0
:10247800A00E25EC14F0000E4AEC13F03DC04EF00F
:102488003EC04FF04AEC14F04EC04AF04FC04BF03B
:102498001200BB0EF66E280EF76E000EF86E00EEF8
:1024A800A2F010EE04F00900F5CFEEFFE550E15080
:1024B800FAE1B40EF66E280EF76E000EF86E00EE16
:1024C80050F010EE07F00900F5CFEEFFE550E150AF
:1024D800FAE100EE60F03A0EEE6AE806FDE100EE81
:1024E80001F0330EEE6AE806FDE157905792000EB0
:1024F800F86E000189EF01F0A50E0001606F450E2E
:10250800616F000E626F450E636F5A0E646FF29E24
:10251800000E3F6E000E3E6E600E3E24D96E000E19
:102528003F20DA6EDF500FEC14F03E4A3F2A3FBEE0
:10253800A7EF12F03F5009E1050E3E5CD8A0A7EFC7
:1025480012F0A9EF12F090EF12F0F28E2DEC13F0CA
:1025580012004EEC14F0000E3D6EA00E25EC14F0A7
:102568004AC03CF04BC03DF04CC03EF04DC03FF07F
:10257800000E406E010E416E000E426E000E436E5C
:10258800E6EC0DF03C5036EC14F04A5036EC14F002
:102598004E5036EC14F04AEC14F012000D500E10A8
:1025A800D8A4D9EF12F0DBEF12F0DFEF12F0000E33
:1025B8002E6EE1EF12F0010E2E6EF29E100E4A6E94
:1025C800000E4B6E000E4C6E000E4D6E2EC04EF07F
:1025D8004F6AADEC12F0F28E1200C294C296C29805
:1025E800C29AC280000E3D6E050E3C6E97EC13F049
:1025F800C282C2B202EF13F004EF13F0FDEF12F043
:10260800C350C4CF3FF0406A3FC040F03F6A3F101C
:102618000F6E4050106E1200000E3D6E000E3C6EA4
:10262800800E3C24D96E000E3D20DA6E000EDF6E5F
:102638003C4A3D2A3DBE2AEF13F03D5009E1100EF9
:102648003C5CD8A02AEF13F02CEF13F014EF13F032
:102658001200000E3D6E000E3C6E600E3C24D96EDA
:10266800000E3D20DA6E000EDF6E3C4A3D2A3DBE6C
:1026780047EF13F03D5009E1100E3C5CD8A047EF3E
:1026880013F049EF13F031EF13F012003F6EC0EC76
:1026980013F06B86C0EC13F06FCF40F0C0EC13F072
:1026A8003F50D8B45AEF13F05CEF13F05FEF13F01C
:1026B8006B9A60EF13F06B8A6B8840C03DF03E6AFE
:1026C8001200670E0F5C030E1058D8B06EEF13F0AF
:1026D80070EF13F073EF13F08C827FEF13F0C00EDE
:1026E8000F5C030E1058D8A07CEF13F07EEF13F0A8
:1026F8007FEF13F08C9212003CC03EF0030E3E16A2
:102708003E3ABB503E18CF0B3E18BB6E3CC03EF065
:102718003DC03FF0D8903F323E32D8903F323E32F3
:102728003E50BC6E1200A3EF13F0030E3E6E980EDF
:10273800E82EFED73E2EFCD73C06D8A03D063C50DE
:102748003D10D8A4AAEF13F0ACEF13F099EF13F0F3
:102758001200949C948EAD98AD9CAD8AAC9CAC88CC
:10276800AD9EAC86AC8E7E96AD849D8A9D98190EE2
:10277800B06E000E7F6E12006BCF3CF01F0E3C1641
:10278800D8A4C9EF13F0CBEF13F0C0EF13F06DB47A
:10279800D0EF13F0D2EF13F0C0EF13F01200ACA299
:1027A800D8EF13F0DAEF13F0E2EF13F0AC98AFCFF5
:1027B80034F0AFCF34F0AC88E4EF13F0AFCF34F09F
:1027C8003450120080A2EBEF13F0EDEF13F0F3EFAB
:1027D80013F0000E3D6E000E3C6EF7EF13F0000E86
:1027E8003D6E010E3C6E1200310ECD6E9E0ECF6E08
:1027F800570ECE6E9E909D809F80000E276E120011
:10280800958A958C280E6C6E000E6B6E270E6E6E78
:10281800C00E6D6E12003C6E3CC0AEFFADA217EF4D
:1028280014F019EF14F012EF14F01200346E34C0E3
:10283800AEFFADA222EF14F024EF14F01DEF14F058
:1028480012003E6E3EC03FF03D503F26C0EC13F0F4
:102858003FC06FFF1200C70E776E7996798C000E15
:10286800766E12003D6EC0EC13F03DC06FFF120093
:102878008F868F8852EC14F0120056EC14F08F8675
:102888008F881200C0EC13F06B821200C0EC13F0BA
:102898006B841200C0EC13F06B801200080E736E8C
:1028A80076841200000E736E769412001E000000EB
:0728B800D0073F14000000EF
:067FF800AEF703FBF8F1F7
:00000001FF
