:0400000087EF01F095
:100008005782D9CF37F0DACF38F09EAA0EEF00F03A
:1000180010EF00F0DDEF00F062EC13F03A6EA50E81
:100028003A18D8A41AEF00F01CEF00F03EEF00F0E9
:100038003350D8B422EF00F024EF00F02CEF00F09A
:100048002F04D8A42AEF00F02CEF00F03EEF00F0C8
:10005800010E326E000E266E000E256E800E2524CF
:10006800D96E000E2620DA6E3AC0DFFF254A262A0E
:10007800E7EF00F03204D8A444EF00F046EF00F0B8
:10008800E7EF00F0800E2524D96E000E2620DA6EE8
:100098003AC0DFFF265007E1050E255CD8B057EFC0
:1000A80000F059EF00F0D9EF00F05A0E3A18D8A432
:1000B80060EF00F062EF00F03AEF00F000018151CC
:1000C8008225396E39508319D8A46DEF00F06FEF8F
:1000D80000F0AEEF00F02F50D8B475EF00F077EFD6
:1000E80000F080EF00F0F50E8219D8A47EEF00F042
:1000F80080EF00F096EF00F0000E3B6E800E3B2480
:10010800D96EDA6A000EDA22DF50A9EC13F03B2A26
:10011800040E3B6492EF00F094EF00F082EF00F0E1
:10012800A4EF00F0000E3B6E160EA9EC13F03B2A6C
:10013800040E3B64A2EF00F0A4EF00F098EF00F08B
:10014800010E336E000E266E000E256E020E2C6E0A
:10015800C2EF00F0000E336E000E266E000E256E04
:10016800000E3B6E150EA9EC13F03B2A040E3B64FF
:10017800C0EF00F0C2EF00F0B6EF00F0F50E00019E
:100188008219D8A4CAEF00F0CCEF00F03AEF00F0E3
:10019800020E2C18D8A4D3EF00F0D5EF00F03AEFF8
:1001A80000F0010E316E3AEF00F0000E326E3AEFB9
:1001B80000F0ACA2E2EF00F0E4EF00F0E7EF00F0AF
:1001C800AC92AC98AC882704D8A4EDEF00F0EFEF20
:1001D80000F036EF01F053BEFCEF00F05350521020
:1001E800511008E15004D8A0FCEF00F0FEEF00F039
:1001F80008EF01F0FF0E5026FF0E5122FF0E52228B
:10020800FF0E532210EF01F0000E506E000E516EDB
:10021800000E526E000E536E0001A5BF1EEF01F0D6
:10022800A551A411A31108E1A205D8A01EEF01F061
:1002380020EF01F02AEF01F0FF0EA227FF0EA32303
:10024800FF0EA423FF0EA52334EF01F0140EA26FB6
:10025800000EA36F000EA46F000EA56FF4EC12F051
:10026800000E276E9EA03BEF01F03DEF01F044EF3A
:1002780001F09E0ECF6E570ECE6E9E90010E276E29
:10028800F0A249EF01F04BEF01F081EF01F0060E0B
:10029800366E130E356EAE0EE82EFED7352EFCD711
:1002A800362EFAD709500A10D8A45DEF01F05FEF97
:1002B80001F06CEF01F081A864EF01F066EF01F046
:1002C8006CEF01F0000E0A6E010E096E80EF01F06E
:1002D80009040A10D8A473EF01F075EF01F080EF5C
:1002E80001F081A87AEF01F07CEF01F080EF01F0D6
:1002F800000E0A6E000E096EF09238C0DAFF37C0A1
:10030800D9FF57921100DCEF11F0F29E6FEC11F05B
:10031800770EE9EC10F0BEEC13F093EC13F03CEC24
:1003280013F087EC13F0D398D39AD39CD390D3923D
:1003380094949388CA96CA98CA9ACA9CFC0ECA16FC
:10034800040ECB6ECF0EBB16BB50F00B0C09BB6E68
:10035800000EBC6ECA848B9289941E0E506E000EDD
:10036800516E000E526E000E536ED08E9F8AF28E22
:10037800F28EC0908C808C82000E456E250E446EE5
:10038800FF0E466E95EC10F0060E0001A16F130EDD
:10039800A06FAD0EE82EFED7A02FFCD7A12FFAD75D
:1003A80000D080EC12F0F29E100E4A6E000E4B6EDA
:1003B800000E4C6E000E4D6EA8EC11F04AC023F0F2
:1003C8004BC024F0F28E23C02EF0010E2E64EFEF06
:1003D80001F0F1EF01F002EF02F0010E2E6EF29E35
:1003E800100E4A6E000E4B6E000E4C6E000E4D6ED7
:1003F8002EC04EF04F6A3CEC12F0F28E000E1A6ED0
:10040800010E196E19C044F01AC045F02EC046F00E
:1004180095EC10F0000E166E010E156EF29E200E71
:100428004A6E000E4B6E000E4C6E000E4D6EA8EC20
:1004380011F04AC023F04BC024F0F28E23501D6EF9
:100448001E6A1E5009E1310E1D5CD8A02EEF02F085
:1004580030EF02F03BEF02F01E5009E13B0E1D5C4D
:10046800D8A039EF02F03BEF02F04FEF02F0000E98
:100478001E6E310E1D6EF29E200E4A6E000E4B6EE1
:10048800000E4C6E000E4D6E1DC04EF01EC04FF09B
:100498003CEC12F0F28EF29E600E4A6E000E4B6E2D
:1004A800000E4C6E000E4D6EA8EC11F04AC023F001
:1004B8004BC024F0F28E23C02BF02F0E2B6467EF75
:1004C80002F069EF02F071EF02F0350E2B646FEF66
:1004D80002F071EF02F0AEEF02F0300E2B6E000E5C
:1004E8001C6E000E1B6EF29E600E4A6E000E4B6E66
:1004F800000E4C6E000E4D6E2BC04EF04F6A3CEC59
:1005080012F0F28ED4EF02F0000E1C6E000E1B6E7D
:10051800300E2B6ED4EF02F0030E1C6EE80E1B6E2D
:10052800D4EF02F0070E1C6ED00E1B6ED4EF02F053
:100538000B0E1C6EB80E1B6ED4EF02F00F0E1C6E65
:10054800A00E1B6ED4EF02F0130E1C6E880E1B6EED
:10055800D4EF02F02B500001A06FA16BA151000A4B
:10056800D8B4B9EF02F088EF02F0A051300AD8B43D
:1005780088EF02F0010AD8B490EF02F0030AD8B469
:1005880096EF02F0010AD8B49CEF02F0070AD8B43B
:10059800A2EF02F0010AD8B4A8EF02F088EF02F047
:1005A800F29E500E4A6E000E4B6E000E4C6E000E00
:1005B8004D6EA8EC11F04AC023F04BC024F0F28E27
:1005C80023C029F0960E2964ECEF02F0EEEF02F05A
:1005D80005EF03F0000E296EF29E500E4A6E000ED3
:1005E8004B6E000E4C6E000E4D6E29C04EF04F6AD9
:1005F8003CEC12F0F28E000E206E000E1F6E08EF1B
:1006080003F029C01FF0206AF29E400E4A6E000EC9
:100618004B6E000E4C6E000E4D6EA8EC11F04AC0E9
:1006280023F04BC024F0F28E23C02AF0810E2A1842
:10063800D8B421EF03F023EF03F09CEF03F0820E10
:100648002A18D8B42AEF03F02CEF03F09CEF03F03C
:10065800830E2A18D8B433EF03F035EF03F09CEF7C
:1006680003F0840E2A18D8B43CEF03F03EEF03F0F1
:100678009CEF03F0850E2A18D8B445EF03F047EF36
:1006880003F09CEF03F0860E2A18D8B44EEF03F05F
:1006980050EF03F09CEF03F0870E2A18D8B457EFF9
:1006A80003F059EF03F09CEF03F0070E556ED00EE0
:1006B800546E820E2A6EF29E400E4A6E000E4B6EEB
:1006C800000E4C6E000E4D6E2AC04EF04F6A3CEC88
:1006D80012F0F28EC6EF03F0030E556EE80E546E5C
:1006E800C6EF03F0070E556ED00E546E820E2A6EBA
:1006F800C6EF03F00B0E556EB80E546EC6EF03F03E
:100708000F0E556EA00E546EC6EF03F0130E556E05
:10071800880E546EC6EF03F0030E556E200E546E0D
:10072800C6EF03F0050E556EDC0E546EC6EF03F0EF
:100738002A500001A06FA16BA151000AD8B4A7EFFD
:1007480003F076EF03F0A051810AD8B470EF03F0FC
:10075800030AD8B476EF03F0010AD8B47EEF03F0A9
:10076800070AD8B484EF03F0010AD8B48AEF03F07B
:10077800030AD8B490EF03F0010AD8B496EF03F057
:1007880076EF03F03F0E566EF29E300E4A6E000E64
:100798004B6E000E4C6E000E4D6EA8EC11F04AC068
:1007A80023F04BC024F0F28E23C056F05650D8B434
:1007B800E0EF03F0E2EF03F005EF04F03F0E561808
:1007C800D8B4E9EF03F0EBEF03F005EF04F07F0E88
:1007D8005618D8B4F2EF03F0F4EF03F005EF04F085
:1007E8003F0E566EF29E300E4A6E000E4B6E000E95
:1007F8004C6E000E4D6E56C04EF04F6A3CEC12F037
:10080800F28E1E0E506E000E516E000E526E000ECD
:10081800536EFBEC0DF08C92F29E700E4A6E000E39
:100828004B6E000E4C6E000E4D6EA8EC11F04AC0D7
:1008380023F04BC024F0F28E23500D6E0E6A0D503B
:100848000E10D8B42AEF04F02CEF04F087EF04F070
:100858000D040E10D8B433EF04F035EF04F087EF31
:1008680004F0020E0D180E10D8B43DEF04F03FEF5F
:1008780004F087EF04F0030E0D180E10D8B447EFFC
:1008880004F049EF04F087EF04F0040E0D180E1081
:10089800D8B451EF04F053EF04F087EF04F0000EE2
:1008A8000E6E000E0D6EF29E700E4A6E000E4B6EAE
:1008B800000E4C6E000E4D6E0DC04EF00EC04FF087
:1008C8003CEC12F0F28EAAEF04F0000E0C6E000E53
:1008D8000B6EAAEF04F0000E0C6E070E0B6EAAEF5B
:1008E80004F0000E0C6E090E0B6EAAEF04F0000E59
:1008F8000C6E0C0E0B6EAAEF04F0000E0C6E140EAC
:100908000B6EAAEF04F00DC0A0F00EC0A1F000011C
:10091800A151000AD8B493EF04F069EF04F0A05194
:10092800000AD8B469EF04F0010AD8B46FEF04F0F4
:10093800030AD8B475EF04F0010AD8B47BEF04F0C9
:10094800070AD8B481EF04F069EF04F00BC03CF05B
:100958000CC03DF00FEC13F004001E0E506E000E9C
:10096800516E000E526E000E536E80EC12F03AEF8C
:1009780009F015C019F016C01AF081B8C6EF04F0D6
:10098800C8EF04F063EF05F00DC042F00EC043F06D
:100998002EC044F0E5EC0CF004BEDCEF04F0D00E01
:1009A800035C070E0458D8A0DCEF04F0DEEF04F077
:1009B8000FEF05F00DC09AF00EC09BF04DEC0CF057
:1009C8009AC00BF09BC00CF0700E4A6E000E4B6E76
:1009D800000E4C6E000E4D6EA8EC11F04AC00DF0E2
:1009E8004BC00EF061EC12F00DC042F00EC043F0A7
:1009F8002EC044F0E5EC0CF0060E0001A16F130EBA
:100A0800A06FAD0EE82EFED7A02FFCD7A12FFAD7E6
:100A180000D04CEF05F004BE1DEF05F0D00E035CCE
:100A2800070E0458D8B01BEF05F01DEF05F04CEF8A
:100A380005F00DC042F00EC043F02EC044F0E5ECC6
:100A48000CF0020E0001A16F860EA06F990EE82E21
:100A5800FED7A02FFCD7A12FFAD7000E046E000EE8
:100A6800036E4CEF05F00DC042F00EC043F02EC0EF
:100A780044F0E5EC0CF01A0E0001A06FF80EE82E19
:100A8800FED7A02FFCD700F00A0E0326000E042282
:100A980004BE58EF05F0D00E035C070E0458D8A02A
:100AA80058EF05F05AEF05F037EF05F081A85FEF32
:100AB80005F061EF05F0C8EF04F067EF05F0000EF0
:100AC800046E000E036E81B66CEF05F06EEF05F054
:100AD80023EF06F0630E19181A10D8B476EF05F054
:100AE80078EF05F023EF06F081B67DEF05F07FEF94
:100AF80005F027EF06F008BE8BEF05F0E80E075C5F
:100B0800030E0858D8A08BEF05F08DEF05F0B5EF70
:100B180005F01A5007E15A0E195CD8B096EF05F0A7
:100B280098EF05F0B5EF05F0060E0001A16F130E62
:100B3800A06FAD0EE82EFED7A02FFCD7A12FFAD7B5
:100B480000D00A0E1924196E000E1A201A6E19C048
:100B580044F01AC045F02EC046F095EC10F0E1EFD5
:100B680005F008BEC3EF05F0E80E075C030E085851
:100B7800D8B0C1EF05F0C3EF05F0E1EF05F0010EC5
:100B88001924196E000E1A201A6E19C044F01AC0E2
:100B980045F02EC046F095EC10F0020E0001A16F52
:100BA800860EA06F990EE82EFED7A02FFCD7A12F96
:100BB800FAD7000E086E000E076E81B6E6EF05F054
:100BC800E8EF05F00AEF06F080BAEDEF05F0EFEF79
:100BD80005F00AEF06F0000E1A6E000E196E19C025
:100BE80044F01AC045F02EC046F095EC10F00AEF1C
:100BF80006F01A0E0001A06FF80EE82EFED7A02FFF
:100C0800FCD700F00A0E0726000E082281B60FEF67
:100C180006F011EF06F021EF06F008BE1DEF06F012
:100C2800E80E075C030E0858D8A01DEF06F01FEF6A
:100C380006F0FDEF05F027EF06F027EF06F0000EAF
:100C4800086E000E076E80BA2CEF06F02EEF06F045
:100C5800E2EF06F019501A10D8B435EF06F037EF66
:100C680006F0E2EF06F080BA3CEF06F03EEF06F041
:100C7800E6EF06F006BE4AEF06F0E80E055C030E46
:100C88000658D8A04AEF06F04CEF06F074EF06F0CD
:100C98001A5009E10A0E195CD8A055EF06F057EF73
:100CA80006F074EF06F0060E0001A16F130EA06F98
:100CB800AD0EE82EFED7A02FFCD7A12FFAD700D073
:100CC800F60E1924196EFF0E1A201A6E19C044F078
:100CD8001AC045F02EC046F095EC10F0A0EF06F0D3
:100CE80006BE82EF06F0E80E055C030E0658D8B083
:100CF80080EF06F082EF06F0A0EF06F0FF0E192451
:100D0800196EFF0E1A201A6E19C044F01AC045F069
:100D18002EC046F095EC10F0020E0001A16F860E71
:100D2800A06F990EE82EFED7A02FFCD7A12FFAD7D7
:100D3800000E066E000E056E80BAA5EF06F0A7EF4E
:100D480006F0C9EF06F081B6ACEF06F0AEEF06F09C
:100D5800C9EF06F0000E1A6E000E196E19C044F0A5
:100D68001AC045F02EC046F095EC10F0C9EF06F019
:100D78001A0E0001A06FF80EE82EFED7A02FFCD7A0
:100D880000F00A0E0526000E062280BACEEF06F005
:100D9800D0EF06F0E0EF06F006BEDCEF06F0E80E56
:100DA800055C030E0658D8A0DCEF06F0DEEF06F06F
:100DB800BCEF06F0E6EF06F0E6EF06F0000E066E72
:100DC800000E056E19C015F01AC016F019C044F0CF
:100DD8001AC045F02EC046F095EC10F009040A1030
:100DE800D8A4F9EF06F0FBEF06F00BEF07F0010EC1
:100DF8002F6E1E0E506E000E516E000E526E000EBB
:100E0800536E52EC09F0000E316E000E2F6E330453
:100E1800D8A411EF07F013EF07F036EF09F00CEF45
:100E280009F0F10E8219D8A41CEF07F01EEF07F0A5
:100E38003AEF07F02F50D8A424EF07F026EF07F079
:100E48003AEF07F0000E316E010E2F6E15C019F043
:100E580016C01AF01E0E506E000E516E000E526E25
:100E6800000E536E3AEC0BF098EF07F0F20E821971
:100E7800D8A441EF07F043EF07F098EF07F02F50A1
:100E8800D8A449EF07F04BEF07F098EF07F0000EF2
:100E9800316E010E2F6E15C019F016C01AF019C068
:100EA80044F01AC045F02EC046F095EC10F01E0E26
:100EB800506E000E516E000E526E000E536E52ECC4
:100EC80009F03150D8A46BEF07F06DEF07F098EFF9
:100ED80007F0A50E0001606F440E616FF90E626F96
:100EE8003D0E636F5A0E646FF29E000E146E000E74
:100EF800136E145009E1050E135CD8A086EF07F0B5
:100F080088EF07F08AEF07F097EF07F0600E1324D9
:100F1800D96E000E1420DA6EDF509EEC13F0134ADF
:100F2800142A7DEF07F0F28E9FEC12F0BCEC12F061
:100F3800000E316E000E2F6E2EEF09F02F50D8A440
:100F4800A8EF07F0AAEF07F02EEF09F0010E2F6EB9
:100F580082C02BF0D6EF07F0000E1C6E000E1B6E41
:100F6800300E2B6EFBEF07F0030E1C6EE80E1B6EA7
:100F7800FBEF07F0070E1C6ED00E1B6EFBEF07F0A1
:100F88000B0E1C6EB80E1B6EFBEF07F00F0E1C6EDF
:100F9800A00E1B6EFBEF07F0130E1C6E880E1B6E67
:100FA800FBEF07F02B50A06FA16BA151000AD8B43A
:100FB800E0EF07F0B0EF07F0A051300AD8B4B0EF77
:100FC80007F0010AD8B4B8EF07F0030AD8B4BEEFA7
:100FD80007F0010AD8B4C4EF07F0070AD8B4CAEF7B
:100FE80007F0010AD8B4D0EF07F0B0EF07F0F29E8F
:100FF800600E4A6E000E4B6E000E4C6E000E4D6E6B
:101008002BC04EF04F6A3CEC12F0F28E9FEC12F0BF
:101018009EEF07F02F50D8A414EF08F016EF08F051
:101028002EEF09F08251D8A41CEF08F01EEF08F04B
:1010380088EF08F0010E2F6E600E4A6E000E4B6EA0
:10104800000E4C6E000E4D6EA8EC11F04A502B6E3F
:10105800400E4A6E000E4B6E000E4C6E000E4D6E2A
:10106800A8EC11F04A502A6E300E4A6E000E4B6EF4
:10107800000E4C6E000E4D6EA8EC11F04AC021F027
:101088004BC022F0500E4A6E000E4B6E000E4C6E96
:10109800000E4D6EA8EC11F04A50296E510E000159
:1010A800606F2BC061F021C062F02AC063F029C0D4
:1010B80064F0020E0001A16F040EA06FBA0EE82EB4
:1010C800FED7A02FFCD7A12FFAD700F0000E146E80
:1010D800000E136E145009E1050E135CD8A077EFCB
:1010E80008F079EF08F07BEF08F088EF08F0600E61
:1010F8001324D96E000E1420DA6EDF509EEC13F024
:10110800134A142A6EEF08F0BCEC12F09EEF07F0B9
:101118002F50D8A492EF08F094EF08F0ECEF08F005
:10112800010E2F6E82C02AF0BAEF08F0030E556E3A
:10113800E80E546EDBEF08F0070E556ED00E546EB5
:10114800820E2A6EDBEF08F00B0E556EB80E546E49
:10115800DBEF08F00F0E556EA00E546EDBEF08F0B3
:10116800130E556E880E546EDBEF08F02A50A06FF0
:10117800A16BA151000AD8B4C4EF08F0A0EF08F0A1
:10118800A051810AD8B49AEF08F0030AD8B4A0EFA6
:1011980008F0010AD8B4A8EF08F0070AD8B4AEEFEF
:1011A80008F0010AD8B4B4EF08F0A0EF08F0F29EF6
:1011B800400E4A6E000E4B6E000E4C6E000E4D6EC9
:1011C8002AC04EF04F6A3CEC12F0F28E000E2F6EE1
:1011D8002F50D8A4F2EF08F0F4EF08F02EEF09F042
:1011E800010E2F6E82C029F029C01FF0206AF29EDE
:1011F800500E4A6E000E4B6E000E4C6E000E4D6E79
:1012080029C04EF04F6A3CEC12F0F28E9EEF07F0C8
:1012180000018151A06FA16BA151000AD8B417EF4A
:1012280009F02EEF09F0A051230AD8B4A2EF07F075
:10123800670AD8B415EF07F0150AD8B40EEF08F00E
:10124800340AD8B48CEF08F0030AD8B4ECEF08F0ED
:101258002EEF09F0000E336E000E326E000E2C6E6B
:10126800AAEF04F0000E2C6EAAEF04F02C50000137
:10127800A06FA16BA151000AD8B445EF09F0AAEFFD
:1012880004F0A051000AD8B4BDEF04F0020AD8B4A3
:101298000BEF07F0AAEF04F087EF01F018EF0BF05F
:1012A8002E04D8A45AEF09F05CEF09F071EF09F0A9
:1012B8008B8254C03CF055C03DF026EC13F08B9265
:1012C800040E4E6E0C0E4D6E340EE82EFED74D2ECB
:1012D800FCD74E2EFAD774EF09F08B9264EF09F021
:1012E800898419501A10D8A47CEF09F07EEF09F010
:1012F80084EF09F0000E186E010E176E88EF09F0E2
:10130800000E186E000E176E04000FEC12F080EC41
:1013180012F01BC03CF01CC03DF026EC13F0CBECE7
:1013280013F0020E4E6E860E4D6E990EE82EFED705
:101338004D2EFCD74E2EFAD700F01E0E506E000E22
:10134800516E000E526E000E536E75EC13F03CC0D9
:1013580011F03DC012F05050511052105310D8A443
:10136800B8EF09F0BAEF09F0BFEF09F0310E01EC60
:101378000FF0D0EC13F011501210D8A4C6EF09F0FA
:10138800C8EF09F0A9EF09F04E0E4D6EEB0EE82EEE
:10139800FED74D2EFCD700F01E0E506E000E516E7B
:1013A800000E526E000E536E75EC13F03CC011F037
:1013B8003DC012F05050511052105310D8A4E7EF0E
:1013C80009F0E9EF09F0EEEF09F0320E01EC0FF049
:1013D800D0EC13F011041210D8A4F5EF09F0F7EFD0
:1013E80009F0D8EF09F01E0E506E000E516E000E77
:1013F800526E000E536E1FC03CF020C03DF026EC2C
:1014080013F0D0EC13F02E04D8A40DEF0AF00FEF70
:101418000AF036EF0AF019501A10D8A416EF0AF09D
:1014280018EF0AF021EF0AF017041810D8A41FEFDC
:101438000AF021EF0AF036EF0AF08B8254C03CF034
:1014480055C03DF026EC13F08B92040E4E6E0C0E38
:101458004D6E340EE82EFED74D2EFCD74E2EFAD701
:1014680076EF0AF02E50D8A43CEF0AF03EEF0AF0CF
:1014780076EF0AF019501A10D8A445EF0AF047EF92
:101488000AF050EF0AF017041810D8A44EEF0AF02B
:1014980050EF0AF076EF0AF08B9219501A10D8A480
:1014A80058EF0AF05AEF0AF063EF0AF01704181021
:1014B800D8A461EF0AF063EF0AF06BEF0AF054C0AA
:1014C8003CF055C03DF026EC13F076EF0AF0060E1E
:1014D8004E6E130E4D6EAE0EE82EFED74D2EFCD777
:1014E8004E2EFAD719501A10D8B47DEF0AF07FEFB4
:1014F8000AF08BEF0AF017041810D8B486EF0AF038
:1015080088EF0AF08BEF0AF01906D8A01A0619C05E
:1015180044F01AC045F02EC046F095EC10F0150EB8
:101528004E6E4B0E4D6EBE0EE82EFED74D2EFCD7DE
:101538004E2EFAD700D03104D8A4A5EF0AF0A7EFB1
:101548000AF0D4EF0AF02AEF0BF0000E186E020E24
:10155800176E19C044F01AC045F02E50D8B4B7EF32
:101568000AF0BAEF0AF0010EBBEF0AF0000E466E61
:1015780095EC10F0820E4D6EDE0EE82EFED74D2E45
:10158800FCD719C044F01AC045F02EC046F095ECBF
:1015980010F0820E4D6EDE0EE82EFED74D2EFCD7D3
:1015A80009500A10D8A4DBEF0AF0DDEF0AF0EFEFDC
:1015B8000AF017041810D8B4E4EF0AF0E6EF0AF0BE
:1015C800A9EF0AF017501810D8B4EDEF0AF0EFEFB2
:1015D8000AF0A9EF0AF019C044F01AC045F02EC06D
:1015E80046F095EC10F009500A10D8A4FEEF0AF066
:1015F80000EF0BF011EF0BF019501A10D8B407EFE9
:101608000BF009EF0BF011EF0BF019C015F01AC031
:1016180016F0000E1A6E000E196E820E4D6EDE0E5A
:10162800E82EFED74D2EFCD719501A10D8A41FEF5C
:101638000BF021EF0BF054EF09F017041810D8B491
:1016480028EF0BF02AEF0BF054EF09F08994000E05
:10165800186E000E176E000E1A6E000E196E000E30
:101668000A6E000E096E000E2C6E1200000E126E2D
:10167800000E116E410E81EC0EF02E04D8A447EF37
:101688000BF049EF0BF05EEF0BF08B8254C03CF08F
:1016980055C03DF026EC13F08B92040E466E0C0EEE
:1016A800456E340EE82EFED7452EFCD7462EFAD7C7
:1016B80061EF0BF08B9251EF0BF0898411EF0CF076
:1016C80004000FEC12F080EC12F01BC03CF01CC0C0
:1016D8003DF026EC13F0CBEC13F0020E466E860EAE
:1016E800456E990EE82EFED7452EFCD7462EFAD722
:1016F80000F01E0E506E000E516E000E526E000E5F
:10170800536E75EC13F03CC011F03DC012F0505010
:10171800511052105310D8A494EF0BF096EF0BF021
:101728009BEF0BF0310E01EC0FF0D0EC13F01150E1
:101738001210D8A4A2EF0BF0A4EF0BF085EF0BF07A
:101748004E0E456EEB0EE82EFED7452EFCD700F068
:101758001E0E506E000E516E000E526E000E536E2D
:1017680075EC13F03CC011F03DC012F05050511010
:1017780052105310D8A4C3EF0BF0C5EF0BF0CAEF0B
:101788000BF0320E01EC0FF0D0EC13F01104121034
:10179800D8A4D1EF0BF0D3EF0BF0B4EF0BF01E0E83
:1017A800506E000E516E000E526E000E536E1FC02A
:1017B8003CF020C03DF026EC13F0D0EC13F02E04E2
:1017C800D8A4E9EF0BF0EBEF0BF000EF0CF08B82F5
:1017D80054C03CF055C03DF026EC13F08B92040E3B
:1017E800466E0C0E456E340EE82EFED7452EFCD7FD
:1017F800462EFAD707EF0CF08B9254C03CF055C038
:101808003DF026EC13F03104D8A40DEF0CF00FEFE7
:101818000CF011EF0CF019EF0CF03150D8B417EFB1
:101828000CF019EF0CF064EF0BF0899419501A10B2
:10183800D8B421EF0CF023EF0CF02BEF0CF03104AF
:10184800D8A429EF0CF02BEF0CF046EF0CF02E0487
:10185800D8A431EF0CF033EF0CF046EF0CF08B828C
:1018680054C03CF055C03DF026EC13F08B92040EAA
:10187800466E0C0E456E340EE82EFED7452EFCD76C
:10188800462EFAD7000E1A6E000E196E020E2C6E36
:101898001200BDEF0CF0000E9F6F070E9E6FF29EB8
:1018A800700E4A6E000E4B6E000E4C6E000E4D6EA2
:1018B800000E4F6E010E4E6E3CEC12F0F28EE0EF11
:1018C8000CF0000E9F6F090E9E6FF29E700E4A6E0E
:1018D800000E4B6E000E4C6E000E4D6E000E4F6EDD
:1018E800020E4E6E3CEC12F0F28EE0EF0CF0000EA1
:1018F8009F6F0C0E9E6FF29E700E4A6E000E4B6E1E
:10190800000E4C6E000E4D6E000E4F6E030E4E6EA6
:101918003CEC12F0F28EE0EF0CF0000E9F6F140E0C
:101928009E6FF29E700E4A6E000E4B6E000E4C6E4D
:10193800000E4D6E000E4F6E040E4E6E3CEC12F013
:10194800F28EE0EF0CF0000E9F6F000E9E6FF29E7D
:10195800700E4A6E000E4B6E000E4C6E000E4D6EF1
:10196800000E4F6E000E4E6E3CEC12F0F28EE0EF61
:101978000CF09AC09CF09BC09DF000019D51000A9C
:10198800D8B4C9EF0CF0E0EF0CF09C51000AD8B4C1
:101998004FEF0CF0010AD8B465EF0CF0030AD8B485
:1019A8007BEF0CF0010AD8B491EF0CF0070AD8B419
:1019B800A7EF0CF0E0EF0CF09EC09AF09FC09BF0F0
:1019C80012008B98000E2FEC11F08B888B98000E6C
:1019D8002FEC11F04404D8A4F4EF0CF0F6EF0CF05F
:1019E80007EF0DF042044310D8A4FDEF0CF0FFEF11
:1019F8000CF007EF0DF03E0E2FEC11F0860E2FECD9
:101A080011F06EEF0DF04404D8A40DEF0DF00FEFB8
:101A18000DF021EF0DF0020E42184310D8A417EF75
:101A28000DF019EF0DF021EF0DF03E0E2FEC11F037
:101A3800DB0E2FEC11F06EEF0DF04404D8A427EF65
:101A48000DF029EF0DF03BEF0DF0030E4218431097
:101A5800D8A431EF0DF033EF0DF03BEF0DF03E0E53
:101A68002FEC11F0CF0E2FEC11F06EEF0DF04404B7
:101A7800D8A441EF0DF043EF0DF055EF0DF0040E33
:101A880042184310D8A44BEF0DF04DEF0DF055EF71
:101A98000DF03E0E2FEC11F0E60E2FEC11F06EEF6C
:101AA8000DF04450D8A45BEF0DF05DEF0DF06EEF34
:101AB8000DF042504310D8A464EF0DF066EF0DF01E
:101AC8006EEF0DF03E0E2FEC11F0BF0E2FEC11F063
:101AD8006EEF0DF08B888B980D0E2FEC11F08B8824
:101AE8001200000E456E43BE7EEF0DF07CEF0DF048
:101AF80088EF0DF0431E421E411E406C000E41222D
:101B080042224322010E456E3FBE8FEF0DF08DEF4E
:101B18000DF099EF0DF03F1E3E1E3D1E3C6C000E71
:101B28003D223E223F22010E451A000E466E000E4F
:101B3800476E000E486E000E496E4050411042102C
:101B48004310D8B4AAEF0DF0ACEF0DF0E2EF0DF0B2
:101B5800010E446EB6EF0DF0D8904036413642364D
:101B68004336442A43AEBBEF0DF0BDEF0DF0B0EFA6
:101B78000DF0D890463647364836493640503C5CDA
:101B880041503D5842503E5843503F58D8A0CFEF9F
:101B98000DF0D1EF0DF0DAEF0DF040503C5E415002
:101BA8003D5A42503E5A43503F5A4680D89043329D
:101BB800423241324032442EBDEF0DF04550D8B488
:101BC800E8EF0DF0EAEF0DF0F2EF0DF0491E481EB8
:101BD800471E466C000E47224822492246C03CF068
:101BE80047C03DF048C03EF049C03FF0120089842C
:101BF800CBEC13F0040E466E8E0E456E120EE82ED8
:101C0800FED7452EFCD7462EFAD700D01E0E506EB2
:101C1800000E516E000E526E000E536E75EC13F0EE
:101C28003CC011F03DC012F05050511052105310EA
:101C3800D8A421EF0EF023EF0EF028EF0EF0310EAE
:101C480001EC0FF0D0EC13F011501210D8A42FEFC4
:101C58000EF031EF0EF012EF0EF04E0E456EEB0E59
:101C6800E82EFED7452EFCD700F01E0E506E000E53
:101C7800516E000E526E000E536E75EC13F03CC0A0
:101C880011F03DC012F05050511052105310D8A40A
:101C980050EF0EF052EF0EF057EF0EF0320E01EC4F
:101CA8000FF0D0EC13F011041210D8A45EEF0EF070
:101CB80060EF0EF041EF0EF01E0E506E000E516EEA
:101CC800000E526E000E536E1FC03CF020C03DF057
:101CD80026EC13F0D0EC13F0060E466E130E456E8C
:101CE800AE0EE82EFED7452EFCD7462EFAD7000EAC
:101CF800126E000E116E89941200446E8B98000EBD
:101D08002FEC11F08B888B98000E2FEC11F0CDEF93
:101D18000EF0790E2FEC11F03F0E2FEC11F0FAEFC8
:101D28000EF03F0E2FEC11F0730E2FEC11F0FAEFBE
:101D38000EF0390E2FEC11F0770E2FEC11F0FAEFB0
:101D48000EF0000E2FEC11F0000E2FEC11F0FAEF50
:101D58000EF0000E2FEC11F03F0E2FEC11F0FAEF01
:101D68000EF0790E2FEC11F0060E2FEC11F0FAEFB1
:101D78000EF0770E2FEC11F03E0E2FEC11F0FAEF6B
:101D88000EF0000E2FEC11F03E0E2FEC11F0FAEFD2
:101D98000EF04450426E436A4350000AD8B4D7EF5D
:101DA8000EF0FAEF0EF04250410AD8B4BDEF0EF033
:101DB800020AD8B49DEF0EF0060AD8B48DEF0EF0E3
:101DC800020AD8B4ADEF0EF0080AD8B495EF0EF0B9
:101DD8001C0AD8B4B5EF0EF0050AD8B4C5EF0EF05A
:101DE8000E0AD8B4A5EF0EF0FAEF0EF08B888B9898
:101DF8000D0E2FEC11F08B881200446E8B98000E9C
:101E08002FEC11F08B888B98000E2FEC11F045EF1A
:101E18000FF0790E2FEC11F0770E2FEC11F06EEF1A
:101E28000FF0790E2FEC11F03F0E2FEC11F06EEF42
:101E38000FF0790E2FEC11F0060E2FEC11F06EEF6B
:101E48000FF0790E2FEC11F05B0E2FEC11F06EEF06
:101E58000FF0000E2FEC11F03F0E2FEC11F06EEF8B
:101E68000FF0790E2FEC11F0060E2FEC11F06EEF3B
:101E78000FF0770E2FEC11F03E0E2FEC11F06EEFF5
:101E88000FF04450426E436A4350000AD8B44FEFF3
:101E98000FF06EEF0FF04250300AD8B415EF0FF084
:101EA800010AD8B41DEF0FF0030AD8B425EF0FF0DC
:101EB800730AD8B43DEF0FF0040AD8B40DEF0FF051
:101EC800020AD8B42DEF0FF0140AD8B435EF0FF08A
:101ED8006EEF0FF08B888B980D0E2FEC11F08B881E
:101EE8001200A3EF0FF03F0E406ED9EF0FF0060E71
:101EF800406ED9EF0FF05B0E406ED9EF0FF04F0E2A
:101F0800406ED9EF0FF0660E406ED9EF0FF06D0EF0
:101F1800406ED9EF0FF07D0E406ED9EF0FF0070E2F
:101F2800406ED9EF0FF07F0E406ED9EF0FF06F0EB5
:101F3800406ED9EF0FF0000E406ED9EF0FF03CC0A5
:101F48003EF03DC03FF03F50000AD8B4AEEF0FF06E
:101F58009FEF0FF03E50000AD8B477EF0FF0010A58
:101F6800D8B47BEF0FF0030AD8B47FEF0FF0010A63
:101F7800D8B483EF0FF0070AD8B487EF0FF0010A3F
:101F8800D8B48BEF0FF0030AD8B48FEF0FF0010A23
:101F9800D8B493EF0FF00F0AD8B497EF0FF0010AF7
:101FA800D8B49BEF0FF09FEF0FF040501200000ED7
:101FB800416E3FBEE4EF0FF0E2EF0FF0EAEF0FF0F3
:101FC8003E6C3F1ED8B03F2A010E416E3DBEF1EF78
:101FD8000FF0EFEF0FF0F7EF0FF03C6C3D1ED8B0AD
:101FE8003D2A010E411A000E436E000E426E3E500D
:101FF8003F10D8B402EF10F004EF10F02CEF10F0FF
:10200800010E406E0CEF10F0D8903E363F36402A55
:102018003FAE11EF10F013EF10F008EF10F0D8906A
:10202800423643363E503C5C3F503D58D8A01FEFE7
:1020380010F021EF10F026EF10F03E503C5E3F50BC
:102048003D5A4280D8903F323E32402E13EF10F076
:102058004150D8B432EF10F034EF10F038EF10F0F0
:10206800426C431ED8B0432A42C03CF043C03DF006
:102078001200000E416E3DBE46EF10F044EF10F026
:102088004CEF10F03C6C3D1ED8B03D2A010E416E5D
:102098003FBE53EF10F051EF10F057EF10F03E6CC9
:1020A8003F1ED8B03F2A3E503F10D8B45EEF10F024
:1020B80060EF10F084EF10F0010E406E68EF10F042
:1020C800D8903E363F36402A3FAE6DEF10F06FEFA6
:1020D80010F064EF10F03E503C5C3F503D58D8A0E3
:1020E80078EF10F07AEF10F07EEF10F03E503C5E83
:1020F8003F503D5AD8903F323E32402E6FEF10F09D
:102108004150D8B48AEF10F08CEF10F090EF10F037
:102118003C6C3D1ED8B03D2A3CC03CF03DC03DF073
:10212800120044C03CF045C03DF0000E3F6E0A0E60
:102138003E6E3DEC10F03CC047F03DC048F044C056
:102148003CF045C03DF0000E3F6E0A0E3E6EDBECE3
:102158000FF03CC049F03DC04AF08B98000E2FECC0
:1021680011F08B888B98000E2FEC11F049C03CF0D1
:102178004AC03DF075EC0FF04C6E47C03CF048C0CB
:102188003DF075EC0FF04B6E4650D8B4CEEF10F022
:10219800D0EF10F0DCEF10F04628D8A4D6EF10F0FE
:1021A800D8EF10F0DBEF10F04C8EDCEF10F04B8E18
:1021B8004C502FEC11F04B502FEC11F08B888B9872
:1021C8000D0E2FEC11F08B881200446E8B888B98C3
:1021D800300E2FEC11F08B888B98300E2FEC11F00D
:1021E80044C042F0423A0F0E4216050E436ED89094
:1021F8004236432EFBEF10F0425005092FEC11F048
:102208008B888B98110E2FEC11F08B888B98110E00
:102218002FEC11F044502FEC11F044502FEC11F03A
:1022280044502FEC11F08B888B98180E2FEC11F07E
:102238008B888B98180E2FEC11F044502FEC11F06E
:1022480044502FEC11F044502FEC11F044502FEC77
:1022580011F08B8812003E6E000E406E8B9640C0C7
:102268003CF0010E3D6E3C2A3CEF11F0D8903D3613
:102278003C2E3AEF11F03D503E143F6E3F50D8B41B
:1022880048EF11F04AEF11F04DEF11F08B8A4EEF45
:1022980011F08B9A000E416E412A040E416457EFEB
:1022A80011F059EF11F050EF11F08B86000E416ECE
:1022B800412A040E416463EF11F065EF11F05CEF01
:1022C80011F0402A070E40646CEF11F06EEF11F028
:1022D80032EF11F01200FB0E926E9368840E946E2A
:1022E800C00E956E000E966E000E976E050E986ED7
:1022F800C29EC29CC290C18EC19CC19AC188C1961F
:10230800C184C192C190C088C190C182C184C18674
:10231800C188C18EC098F28E030ED312700ED312EC
:10232800000EC46E000EC36EC294C296C298C29AC2
:10233800C18CC280C282C2B2A4EF11F0A6EF11F024
:102348009FEF11F0C19C1200DDEC13F0000E3D6E02
:10235800A00EB4EC13F04AC03CF04BC03DF04CC0AA
:102368003EF04DC03FF0000E406E010E416E000E73
:10237800426E000E436E75EC0DF03C50C5EC13F048
:102388004A50C5EC13F0D5EC13F0010E3D6EA00ECB
:10239800B4EC13F0000ED9EC12F03DC04EF03EC084
:1023A8004FF0D9EC13F04EC04AF04FC04BF012007A
:1023B800D90EF66E270EF76E000EF86E00EEA2F03C
:1023C80010EE04F00900F5CFEEFFE550E150FAE118
:1023D800D20EF66E270EF76E000EF86E00EE50F075
:1023E80010EE07F00900F5CFEEFFE550E150FAE1F5
:1023F80000EE60F03A0EEE6AE806FDE100EE01F04C
:10240800330EEE6AE806FDE157905792000EF86E1B
:10241800000189EF01F0A50E0001606F450E616FA4
:10242800000E626F450E636F5A0E646FF29E000EC7
:102438003F6E000E3E6E600E3E24D96E000E3F20A9
:10244800DA6EDF509EEC13F03E4A3F2A3FBE36EF6D
:1024580012F03F5009E1050E3E5CD8A036EF12F0AD
:1024680038EF12F01FEF12F0F28EBCEC12F01200EF
:10247800DDEC13F0000E3D6EA00EB4EC13F04AC074
:102488003CF04BC03DF04CC03EF04DC03FF0000E5C
:10249800406E010E416E000E426E000E436E75ECEA
:1024A8000DF03C50C5EC13F04A50C5EC13F04E50FB
:1024B800C5EC13F0D9EC13F012000D500E10D8A48F
:1024C80068EF12F06AEF12F06EEF12F0000E2E6E47
:1024D80070EF12F0010E2E6EF29E100E4A6E000E74
:1024E8004B6E000E4C6E000E4D6E2EC04EF04F6AB5
:1024F8003CEC12F0F28E1200C294C296C298C29AB4
:10250800C280000E3D6E050E3C6E26EC13F0C282B2
:10251800C2B291EF12F093EF12F08CEF12F0C350A9
:10252800C4CF3FF0406A3FC040F03F6A3F100F6E93
:102538004050106E1200000E3D6E000E3C6E800E74
:102548003C24D96E000E3D20DA6E000EDF6E3C4A48
:102558003D2A3DBEB9EF12F03D5009E1100E3C5C3A
:10256800D8A0B9EF12F0BBEF12F0A3EF12F01200EF
:10257800000E3D6E000E3C6E600E3C24D96E000EBF
:102588003D20DA6E000EDF6E3C4A3D2A3DBED6EF96
:1025980012F03D5009E1100E3C5CD8A0D6EF12F0C5
:1025A800D8EF12F0C0EF12F012003F6E4FEC13F0AC
:1025B8006B864FEC13F06FCF40F04FEC13F03F50A9
:1025C800D8B4E9EF12F0EBEF12F0EEEF12F06B9ADD
:1025D800EFEF12F06B8A6B8840C03DF03E6A120044
:1025E800670E0F5C030E1058D8B0FDEF12F0FFEF26
:1025F80012F002EF13F08C820EEF13F0C00E0F5C96
:10260800030E1058D8A00BEF13F00DEF13F00EEFD8
:1026180013F08C9212003CC03EF0030E3E163E3A78
:10262800BB503E18CF0B3E18BB6E3CC03EF03DC0C1
:102638003FF0D8903F323E32D8903F323E323E5043
:10264800BC6E120032EF13F0030E3E6E980EE82EA9
:10265800FED73E2EFCD73C06D8A03D063C503D1088
:10266800D8A439EF13F03BEF13F028EF13F0120062
:10267800949C948EAD98AD9CAD8AAC9CAC88AD9E74
:10268800AC86AC8E7E96AD849D8A9D98190EB06EF0
:10269800000E7F6E12006BCF3CF01F0E3C16D8A4C4
:1026A80058EF13F05AEF13F04FEF13F06DB45FEFDC
:1026B80013F061EF13F04FEF13F01200ACA267EFC5
:1026C80013F069EF13F071EF13F0AC98AFCF34F05B
:1026D800AFCF34F0AC8873EF13F0AFCF34F0345091
:1026E800120080A27AEF13F07CEF13F082EF13F060
:1026F800000E3D6E000E3C6E86EF13F0000E3D6E30
:10270800010E3C6E1200310ECD6E9E0ECF6E570E2E
:10271800CE6E9E909D809F80000E276E1200958A37
:10272800958C280E6C6E000E6B6E270E6E6EC00EAA
:102738006D6E12003C6E3CC0AEFFADA2A6EF13F06A
:10274800A8EF13F0A1EF13F01200346E34C0AEFFFF
:10275800ADA2B1EF13F0B3EF13F0ACEF13F012002A
:102768003E6E3EC03FF03D503F264FEC13F03FC059
:102778006FFF1200C70E776E7996798C000E766E11
:1027880012003D6E4FEC13F03DC06FFF12008F86B4
:102798008F88E1EC13F01200E5EC13F08F868F8838
:1027A80012004FEC13F06B8212004FEC13F06B84A5
:1027B80012004FEC13F06B801200080E736E7684D3
:1027C8001200000E736E769412001E000000D007EF
:0527D8003F14000000A9
:067FF800AEF703FBF8F1F7
:00000001FF
