:020000040000FA
:0400000096EF00F087
:100008005382D9CF34F0DACF35F09EAA80D081EC74
:1000180009F0376EA50E3718D8A417D03250D8B4C7
:1000280003D02E04D8A411D0010E316E000E266E16
:10003800000E256E010E2524D96E000E2620DA6EDC
:1000480037C0DFFF254A262A67D03104D8A464D0F8
:10005800010E2524D96E000E2620DA6E37C0DFFF88
:10006800265052E1050E255CD8B04ED05A0E3718EE
:10007800D8A4E8D702500324366E36500418D8A402
:1000880029D02E50D8B404D0F50E0318D8A410D017
:10009800000E386E010E3824D96EDA6A000EDA22A4
:1000A800DF50CDEC09F0382A040E3864F3D709D0B4
:1000B800000E386E160ECDEC09F0382A040E38649E
:1000C800F9D7010E326E000E266E000E256E040E54
:1000D800526E0FD0000E326E000E266E000E256E88
:1000E800000E386E150ECDEC09F0382A040E38646F
:1000F800F9D7F50E0318D8A4A5D7040E5218D8A41A
:10010800A1D7010E306E9ED7000E316E9BD7ACA2E0
:1001180003D0AC92AC98AC8835C0DAFF34C0D9FFB4
:1001280053921100E0EF08F070EC08F0770EE1EC64
:1001380006F0B4EC09F08EEC09F05EEC09F08B9255
:10014800D08E9F8AF28EF28EC0808C80000E426E16
:100158001F0E416EFF0E436E98EC06F0020E4E6EB7
:10016800040E4D6EBA0EE82EFED74D2EFCD74E2E3D
:10017800FAD700D0000E166E010E156E15C041F0AC
:1001880016C042F02DC043F098EC06F0000E146E35
:10019800010E136E010E2D6E2D50D8B402D08C8234
:1001A80001D08C92200E476E000E486E000E496EEC
:1001B800000E4A6EE2EC07F047C01FF048C020F07E
:1001C8001F50196E1A6A1A5004E1310E195CD8A032
:1001D80006D01A5004E13B0E195CD8A012D0000ECC
:1001E8001A6E310E196E200E476E000E486E000E04
:1001F800496E000E4A6E000E4C6E310E4B6E96EC38
:1002080008F0600E476E000E486E000E496E000E34
:100218004A6EE2EC07F047C01FF048C020F01FC04C
:100228002AF02F0E2A6403D0350E2A6413D0300E1C
:100238002A6E000E186E000E176E600E476E000EC6
:10024800486E000E496E000E4A6E2AC04BF04C6A8A
:1002580096EC08F0500E476E000E486E000E496E80
:10026800000E4A6EE2EC07F047C01FF048C020F0CD
:100278001FC028F0960E286414D0000E286E500E69
:10028800476E000E486E000E496E000E4A6E28C07A
:100298004BF04C6A96EC08F0000E1C6E000E1B6EBC
:1002A80003D028C01BF01C6A400E476E000E486E33
:1002B800000E496E000E4A6EE2EC07F047C01FF0D0
:1002C80048C020F01FC029F0810E2918D8B43CD0AE
:1002D800820E2918D8B438D0830E2918D8B434D04F
:1002E800840E2918D8B430D0850E2918D8B42CD04B
:1002F800070E506ED00E4F6E820E296E400E476E5E
:10030800000E486E000E496E000E4A6E29C04BF072
:100318004C6A96EC08F030D0030E506EE80E12D0FE
:10032800070E506ED00E4F6E820E296E25D00B0E22
:10033800506EB80E07D00F0E506EA00E03D0130EDD
:10034800506E880E4F6E18D029504D6E4E6A4E5022
:10035800000AD8A4E5D74D50810AD8B4DDD7030ADE
:10036800D8B4DED7010AD8B4E2D7070AD8B4E3D79D
:10037800010AD8B4E4D7D4D73F0E516E300E476E79
:10038800000E486E000E496E000E4A6EE2EC07F051
:1003980047C01FF048C020F01FC051F05150D8B4DA
:1003A80017D03F0E5118D8B413D07F0E5118D8B4B7
:1003B8000FD03F0E516E300E476E000E486E000E85
:1003C800496E000E4A6E51C04BF04C6A96EC08F02C
:1003D80016EC08F0040029D213C015F014C016F06A
:1003E80081B804D033EC09F081A8FED781B60DD0CE
:1003F800630E15181610D8B408D0010E1524156E02
:10040800000E1620166E81A6FED780BA0CD01550A5
:100418001610D8B408D0FF0E1524156EFF0E16203E
:10042800166E80AAFED780B80ED016500CE15A0E70
:10043800155CD8B008D00A0E1524156E000E1620CB
:10044800166E80A8FED780B60ED0165004E10A0EAC
:10045800155CD8A008D0F60E1524156EFF0E1620D0
:10046800166E80A6FED715C013F016C014F015C07E
:1004780041F016C042F02DC043F098EC06F081B46C
:100488000DD0010E2E6E28EC04F0000E306E000E1A
:100498002E6E450ED8EC05F081A4FBD73204D8B4F3
:1004A800A3D1C0D1F10E0318D8A40ED02E50D8A4D1
:1004B8000BD0000E306E010E2E6E13C015F014C056
:1004C80016F0DFEC04F03DD0F20E0318D8A439D0B2
:1004D8002E50D8A436D0000E306E010E2E6E13C0EA
:1004E80015F014C016F015C041F016C042F02DC02A
:1004F80043F098EC06F028EC04F03050D8A421D052
:10050800A50E0001606F440E616FF90E626F3D0E1B
:10051800636F5A0E646F000E126E000E116E125049
:1005280010E1050E115CD8B00CD0600E1124D96E04
:10053800000E1220DA6EDF50C1EC09F0114A122ABF
:10054800EED703EC09F01BEC09F0000E306E000E3C
:100558002E6E64D12E50D8A461D1010E2E6E2F0EAE
:1005680003643AD0360E036037D003C02AF019D09E
:10057800000E186E000E13D0030E186EE80E0FD082
:10058800070E186ED00E0BD00B0E186EB80E07D0D3
:100598000F0E186EA00E03D0130E186E880E176E6D
:1005A8001BD02A504D6E4E6A4E50000AD8A4E0D790
:1005B8004D50300AD8B4DCD7010AD8B4DDD7030AC5
:1005C800D8B4DED7010AD8B4DFD7070AD8B4E0D741
:1005D800010AD8B4E1D7CCD7600E476E000E486E3A
:1005E800000E496E000E4A6E2AC04BF04C6A96EC1B
:1005F80008F003EC09F0ABD72E50D8A40FD1035064
:10060800D8A461D0010E2E6E600E476E000E486EA3
:10061800000E496E000E4A6EE2EC07F047502A6E53
:10062800400E476E000E486E000E496E000E4A6E70
:10063800E2EC07F04750296E300E476E000E486E08
:10064800000E496E000E4A6EE2EC07F047C01DF03E
:1006580048C01EF0500E476E000E486E000E496EE0
:10066800000E4A6EE2EC07F04750286E510E00016A
:10067800606F2AC061F01DC062F029C063F028C015
:1006880064F0020E4E6E040E4D6EBA0EE82EFED7C2
:100698004D2EFCD74E2EFAD700D0000E126E000E4B
:1006A800116E125010E1050E115CD8B00CD0600E1E
:1006B8001124D96E000E1220DA6EDF50C1EC09F059
:1006C800114A122AEED71BEC09F041D72E50D8A4B4
:1006D800A5D0010E2E6E03C027F007D0000E03D060
:1006E8003F0E01D07F0E516E12D027504D6E4E6ACC
:1006F8004E50000AD8A4F4D74D50000AD8B4EED70B
:100708003F0AD8B4EDD7400AD8B4ECD7E9D7300EB1
:10071800476E000E486E000E496E000E4A6E51C0BC
:100728004BF04C6A96EC08F012D72E50D8A444D05F
:10073800010E2E6E03C029F018D0030E506EE80E7D
:1007480012D0070E506ED00E4F6E820E296E25D035
:100758000B0E506EB80E07D00F0E506EA00E03D0C1
:10076800130E506E880E4F6E18D029504D6E4E6A7B
:100778004E50000AD8A4E5D74D50810AD8B4DDD729
:10078800030AD8B4DED7010AD8B4E2D7070AD8B426
:10079800E3D7010AD8B4E4D7D4D7400E476E000E89
:1007A800486E000E496E000E4A6E29C04BF04C6A26
:1007B80096EC08F0000E2E6E2E50D8A42FD0010E05
:1007C8002E6E03C028F028C01BF01C6A500E476E1E
:1007D800000E486E000E496E000E4A6E28C04BF09F
:1007E8004C6A96EC08F0B3D602504D6E4E6A4E50E5
:1007F800000AD8A413D04D50230AD8B4ABD6670A40
:10080800D8B450D6150AD8B4F7D6350AD8B45ED7B6
:10081800010AD8B48AD7030AD8B4CED7000E326EEC
:10082800000E316E020E526ED5D552504D6E4E6A84
:100838004E50000AD8A4CED54D50020AD8B4CCD513
:10084800060AD8B42BD6C6D5000E2B6E2D04D8A414
:1008580007D08B824FC039F050C03AF071EC09F0E4
:100868008B92040E4B6E0C0E4A6E340EE82EFED799
:100878004A2EFCD74B2EFAD7898472D00400BBECE1
:1008880008F017C039F018C03AF071EC09F0D3EC51
:1008980009F0040E4B6E8E0E4A6E120EE82EFED72D
:1008A8004A2EFCD74B2EFAD700D0ACEC09F02B50CF
:1008B800D8A4FBD7ACEC09F02B04D8A4FBD7000EC6
:1008C8002B6E1BC039F01CC03AF071EC09F0D8EC63
:1008D80009F01506D8A0160615C041F016C042F05A
:1008E8002DC043F098EC06F02D04D8A418D015506C
:1008F8001610D8B414D08B824FC039F050C03AF0DB
:1009080071EC09F08B92040E4B6E0C0E4A6E340E8D
:10091800E82EFED74A2EFCD74B2EFAD71ED02D50E4
:10092800D8A41BD015501610D8B417D08B921550D8
:100938001610D8B407D04FC039F050C03AF071EC57
:1009480009F00BD0060E4B6E130E4A6EAE0EE82E53
:10095800FED74A2EFCD74B2EFAD73004D8B404D091
:1009680015501610D8A48AD7899415501610D8B4E3
:1009780003D03004D8A418D02D04D8A413D08B8267
:100988004FC039F050C03AF071EC09F08B92040E68
:100998004B6E0C0E4A6E340EE82EFED74A2EFCD74C
:1009A8004B2EFAD7000E2B6E000E166E000E156E2B
:1009B800020E526E1200000E2B6E410E38EC06F03D
:1009C8002D04D8A407D08B824FC039F050C03AF01C
:1009D80071EC09F08B92040E436E0C0E426E340ECD
:1009E800E82EFED7422EFCD7432EFAD789844CD066
:1009F8000400BBEC08F017C039F018C03AF071ECED
:100A080009F0D3EC09F0040E436E8E0E426E120EFE
:100A1800E82EFED7422EFCD7432EFAD700D0ACECF6
:100A280009F02B50D8A4FBD7ACEC09F02B04D8A4C0
:100A3800FBD7000E2B6E1BC039F01CC03AF071ECCE
:100A480009F0D8EC09F02D04D8A414D08B824FC03B
:100A580039F050C03AF071EC09F08B92040E436EF5
:100A68000C0E426E340EE82EFED7422EFCD7432ED3
:100A7800FAD707D08B924FC039F050C03AF071ECDA
:100A880009F03004D8B403D03050D8B4B1D7899421
:100A980015501610D8B403D03004D8A418D02D049B
:100AA800D8A413D08B824FC039F050C03AF071EC03
:100AB80009F08B92040E436E0C0E426E340EE82E33
:100AC800FED7422EFCD7432EFAD7000E2B6E000E0F
:100AD800166E000E156E040E526E1200000E426E57
:100AE80040AE0AD0401E3F1E3E1E3D6C000E3E2208
:100AF8003F224022010E426E3CAE0AD03C1E3B1EF5
:100B08003A1E396C000E3A223B223C22010E421A50
:100B1800000E436E000E446E000E456E000E466ECB
:100B28003D503E103F104010D8B42AD0010E416EFF
:100B380006D0D8903D363E363F364036412A40AE44
:100B4800F8D7D89043364436453646363D50395C5A
:100B58003E503A583F503B5840503C58D8A009D0D6
:100B68003D50395E3E503A5A3F503B5A40503C5AED
:100B78004380D89040323F323E323D32412EE1D759
:100B88004250D8B408D0461E451E441E436C000E81
:100B980044224522462243C039F044C03AF045C0B9
:100BA8003BF046C03CF01200416E8B98000E47ECBB
:100BB80008F08B888B98000E47EC08F031D0790E3E
:100BC80047EC08F03F0E47EC08F047D03F0E47ECE3
:100BD80008F0730E47EC08F040D0390E47EC08F0E7
:100BE800770E47EC08F039D0000E47EC08F0000EFD
:100BF80047EC08F032D0000E47EC08F03F0E47EC07
:100C080008F02BD0790E47EC08F0060E47EC08F0F8
:100C180024D0770E47EC08F03E0E47EC08F01DD0C4
:100C280041503F6E406A4050000AD8A416D03F5049
:100C3800410AD8B4EED7020AD8B4CFD7060AD8B436
:100C4800BED7020AD8B4D7D7080AD8B4BFD71C0A67
:100C5800D8B4D8D70B0AD8B4C7D78B888B980D0EC1
:100C680047EC08F08B881200416E8B98000E47EC19
:100C780008F08B888B98000E47EC08F031D0790E7D
:100C880047EC08F03F0E47EC08F047D03F0E47EC22
:100C980008F0730E47EC08F040D0390E47EC08F026
:100CA800770E47EC08F039D0000E47EC08F0000E3C
:100CB80047EC08F032D0000E47EC08F03F0E47EC46
:100CC80008F02BD0790E47EC08F0060E47EC08F038
:100CD80024D0770E47EC08F03E0E47EC08F01DD004
:100CE80041503F6E406A4050000AD8A416D03F5089
:100CF800410AD8B4EED7020AD8B4CFD7060AD8B476
:100D0800BED7020AD8B4D7D7080AD8B4BFD71C0AA6
:100D1800D8B4D8D70B0AD8B4C7D78B888B980D0E00
:100D280047EC08F08B88120041C039F042C03AF015
:100D3800000E3C6E0A0E3B6EAAEC07F039C044F078
:100D48003AC045F041C039F042C03AF0000E3C6E5E
:100D58000A0E3B6E26EC07F039C046F03AC047F061
:100D68008B98000E47EC08F08B888B98000E47ECA8
:100D780008F046C039F047C03AF068EC07F0496E11
:100D880044C039F045C03AF068EC07F0486E43506B
:100D9800D8B406D04328D8A402D0498E01D0488EB2
:100DA800495047EC08F0485047EC08F08B888B987E
:100DB8000D0E47EC08F08B881200416E8B888B98DB
:100DC800300E47EC08F08B888B98300E47EC08F013
:100DD80041C03FF03F3A0F0E3F16050E406ED890C7
:100DE8003F36402EFCD73F50050947EC08F08B886A
:100DF8008B98110E47EC08F08B888B98110E47ECF6
:100E080008F0415047EC08F0415047EC08F04150D9
:100E180047EC08F08B888B98180E47EC08F08B8805
:100E28008B98180E47EC08F0415047EC08F04150F9
:100E380047EC08F0415047EC08F0415047EC08F007
:100E48008B881200000E3E6E3CAE06D03B6C3C1EFA
:100E5800D8B03C2A010E3E6E3AAE06D0396C3A1E26
:100E6800D8B03A2A010E3E1A000E406E000E3F6EB0
:100E78003B503C10D8B41CD0010E3D6E04D0D89025
:100E88003B363C363D2A3CAEFAD7D8903F36403602
:100E98003B50395C3C503A58D8A005D03B50395E9D
:100EA8003C503A5A3F80D8903C323B323D2EEDD7E9
:100EB8003E50D8B404D03F6C401ED8B0402A3FC042
:100EC80039F040C03AF0120017D03F0E13D0060E8A
:100ED80011D05B0E0FD04F0E0DD0660E0BD06D0EDD
:100EE80009D07D0E07D0070E05D07F0E03D06F0EF8
:100EF80001D0000E3D6E28D039C03BF03AC03CF01E
:100F08003C50000AD8A4F5D73B50000AD8B4DDD726
:100F1800010AD8B4DCD7030AD8B4DBD7010AD8B49D
:100F2800DAD7070AD8B4D9D7010AD8B4D8D7030A68
:100F3800D8B4D7D7010AD8B4D6D70F0AD8B4D5D7DA
:100F4800010AD8B4D4D7D5D73D501200000E3E6E52
:100F58003AAE06D0396C3A1ED8B03A2A010E3E6E27
:100F68003CAE04D03B6C3C1ED8B03C2A3B503C10F5
:100F7800D8B418D0010E3D6E04D0D8903B363C361C
:100F88003D2A3CAEFAD73B50395C3C503A58D8A081
:100F980004D03B50395E3C503A5AD8903C323B32F0
:100FA8003D2EF1D73E50D8B404D0396C3A1ED8B093
:100FB8003A2A39C039F03AC03AF01200E1EC09F0A7
:100FC800000E3A6EA00E99EC09F047C039F048C0FF
:100FD8003AF049C03BF04AC03CF0000E3D6E010EAD
:100FE8003E6E000E3F6E000E406E72EC05F03950FA
:100FF800BBEC09F04750BBEC09F0E5EC09F0010E39
:101008003A6EA00E99EC09F0000E49EC09F03AC0CE
:101018004BF03BC04CF0DDEC09F04BC047F04CC046
:1010280048F012008984D3EC09F0040E3D6E8E0E50
:101038003C6E120EE82EFED73C2EFCD73D2EFAD77A
:1010480000D0ACEC09F02B50D8A4FBD7ACEC09F0DD
:101058002B04D8A4FBD71BC039F01CC03AF071ECA4
:1010680009F0D8EC09F0150E3D6E4B0E3C6EBE0E25
:10107800E82EFED73C2EFCD73D2EFAD700D0000E26
:101088002B6E899412003B6E000E3D6E8B963DC010
:1010980039F0010E3A6E392A02D0D8903A36392EF4
:1010A800FCD73A503B143C6E3C50D8B402D08B8AE3
:1010B80001D08B9A000E3E6E3E2A040E3E64FCD789
:1010C8008B86000E3E6E3E2A040E3E64FCD73D2AF7
:1010D800070E3D64DBD71200FB0E926E9368840EF8
:1010E800946EC00E956E000E966E000E976E050EED
:1010F800986EC29EC29CC290C18EC19CC19AC18882
:10110800C196C184C192C190C088C190C182C18476
:10111800C186C188C18EC098F28E030ED312700E9C
:10112800D3121200E1EC09F0000E3A6EA00E99EC11
:1011380009F047C039F048C03AF049C03BF04AC00E
:101148003CF0000E3D6E010E3E6E000E3F6E000E2E
:10115800406E72EC05F03950BBEC09F04750BBEC1F
:1011680009F04B50BBEC09F0DDEC09F01200A50EBC
:101178000001606F450E616F000E626F450E636F70
:101188005A0E646F000E3C6E000E3B6E600E3B24E0
:10119800D96E000E3C20DA6EDF50C1EC09F03B4AF4
:1011A8003C2A3CBEF3D73C5004E1050E3B5CD8A07A
:1011B800EDD71BEC09F01200DA0EF66E130EF76E7F
:1011C800000EF86E00EE4FF010EE04F00900F5CFB7
:1011D800EEFFE550E150FAE100EE60F0200EEE6A15
:1011E800E806FDE100EE01F0320EEE6AE806FDE1E8
:1011F80053905392000EF86E000198EF00F0000E25
:101208003A6E000E396E010E3924D96E000E3A205E
:10121800DA6E000EDF6E394A3A2A3ABEF4D73A50EF
:1012280005E1100E395CD8B01200EDD71200000E9F
:101238003A6E000E396E600E3924D96E000E3A20CF
:10124800DA6E000EDF6E394A3A2A3ABEF4D73A50BF
:1012580005E1100E395CD8B01200EDD712002D5000
:10126800D8B402D0000E01D0010E2D6E2D50D8B486
:1012780002D08C8201D08C9215C041F016C042F089
:101288002DC043F098EC06F012003C6EA3EC09F078
:101298006B86A3EC09F06FCF3DF0A3EC09F03C504E
:1012A800D8B402D06B9A01D06B8A6B883DC03AF0F3
:1012B8003B6A1200949C948EAD98AD9CAD8AAC9C10
:1012C800AC88AD9EAC86AC8E7E96AD849D8A9D988A
:1012D800190EB06E000E7F6E12000AD0030E3B6E20
:1012E800980EE82EFED73B2EFCD73906D8A03A0632
:1012F80039503A10D8B41200F1D7ACA207D0AC9844
:10130800AFCF33F0AFCF33F0AC8802D0AFCF33F0EC
:1013180033501200958A958C280E6C6E000E6B6EF9
:10132800270E6E6EC00E6D6E12003B6E3BC03CF019
:101338003A503C26A3EC09F03CC06FFF12006BCF7B
:1013480039F01F0E3916D8A4FAD76DA41200F7D7B2
:1013580080A203D0000E2B6E1200010E2B6E12001D
:10136800C70E776E7996798C000E766E12003A6EFB
:10137800A3EC09F03AC06FFF1200396E39C0AEFF16
:10138800ADB21200FDD70C0E736E51C074FF768497
:101398001200336E33C0AEFFADB21200FDD78F8698
:1013A8008F88C7EC09F01200E9EC09F08F868F8866
:1013B8001200A3EC09F06B841200A3EC09F06B8017
:1013C8001200A3EC09F06B821200000E736E769483
:0613D8001200D0073F02E5
:067FF800AEF703FBF8F1F7
:00000001FF
