:0400000081EF01F09B
:100008005982D9CF33F0DACF34F09EAA0EEF00F040
:1000180010EF00F0E3EF00F034EC11F0366EA50EAF
:100028003618D8A41AEF00F01CEF00F03EEF00F0ED
:100038003150D8B422EF00F024EF00F02CEF00F09C
:100048002D04D8A42AEF00F02CEF00F03EEF00F0CA
:10005800010E306E000E246E000E236E800E2324D7
:10006800D96E000E2420DA6E36C0DFFF234A242A18
:10007800EDEF00F03004D8A444EF00F046EF00F0B4
:10008800EDEF00F0800E2324D96E000E2420DA6EE6
:1000980036C0DFFF245007E1050E235CD8B057EFC8
:1000A80000F059EF00F0DFEF00F05A0E3618D8A430
:1000B80060EF00F062EF00F03AEF00F000018151CC
:1000C8008225356E35508319D8A46DEF00F06FEF97
:1000D80000F0B2EF00F02D50D8B475EF00F077EFD4
:1000E80000F080EF00F0F50E8219D8A47EEF00F042
:1000F80080EF00F098EF00F0F29E000E376E800E51
:100108003724D96EDA6A000EDA22DF507BEC11F060
:10011800372A040E376493EF00F095EF00F083EF71
:1001280000F0F28EA8EF00F0F29E000E376E160E69
:100138007BEC11F0372A040E3764A5EF00F0A7EF27
:1001480000F09BEF00F0F28E010E316E000E246E6F
:10015800000E236E020E2A6EC8EF00F0000E316EFC
:10016800000E246E000E236EF29E000E376E150EE2
:100178007BEC11F0372A040E3764C5EF00F0C7EFA7
:1001880000F0BBEF00F0F28EF50E00018219D8A442
:10019800D0EF00F0D2EF00F03AEF00F0020E2A188C
:1001A800D8A4D9EF00F0DBEF00F03AEF00F0010E31
:1001B8002F6E3AEF00F0000E306E3AEF00F0ACA26E
:1001C800E8EF00F0EAEF00F0EDEF00F0AC92AC9849
:1001D800AC882504D8A4F3EF00F0F5EF00F03BEF6E
:1001E80001F055BE02EF01F055505410531008E1CC
:1001F8005204D8A002EF01F004EF01F00EEF01F075
:10020800FF0E5226FF0E5322FF0E5422FF0E5522D8
:1002180016EF01F0000E526E000E536E000E546E73
:10022800000E556E51BE23EF01F0515050104F1083
:1002380008E14E04D8A023EF01F025EF01F02FEFDD
:1002480001F0FF0E4E26FF0E4F22FF0E5022FF0E2A
:10025800512239EF01F0140E4E6E000E4F6E000E53
:10026800506E000E516EDDEC10F0000E256E9EA053
:1002780040EF01F042EF01F049EF01F09E0ECF6E22
:10028800570ECE6E9E90010E256EF0A24EEF01F035
:1002980050EF01F07BEF01F007500810D8A457EF9A
:1002A80001F059EF01F066EF01F081A85EEF01F06F
:1002B80060EF01F066EF01F0000E086E010E076EA8
:1002C8007AEF01F007040810D8A46DEF01F06FEF82
:1002D80001F07AEF01F081A874EF01F076EF01F0F8
:1002E8007AEF01F0000E086E000E076EF09234C02F
:1002F800DAFF33C0D9FF5992110028EF10F0F29EAF
:1003080042EC0FF0770EBCEC0EF090EC11F065ECBF
:1003180011F00EEC11F059EC11F08B9289941E0E2D
:10032800526E000E536E000E546E000E556ED08E37
:100338009F8AF28EF28EC0908C808C82000E416E65
:10034800240E406EFF0E426E68EC0EF0060E4D6EE7
:10035800130E4C6EAE0EE82EFED74C2EFCD74D2E4B
:10036800FAD74BEC10F0F29E100E466E000E476E58
:10037800000E486E000E496E7BEC0FF046C01DF073
:1003880047C01EF0F28E1DC02CF0010E2C64CFEF7A
:1003980001F0D1EF01F0E2EF01F0010E2C6EF29EB8
:1003A800100E466E000E476E000E486E000E496E27
:1003B8002CC04AF04B6A03EC10F0F28E000E146E5B
:1003C800010E136E13C040F014C041F02CC042F06F
:1003D80068EC0EF0000E106E010E0F6EF29E200EED
:1003E800466E000E476E000E486E000E496E7BEC9E
:1003F8000FF046C01DF047C01EF0F28E1D50176E5C
:10040800186A185009E1310E175CD8A00EEF02F0F7
:1004180010EF02F01BEF02F0185009E13B0E175CD9
:10042800D8A019EF02F01BEF02F02FEF02F0000E38
:10043800186E310E176EF29E200E466E000E476E35
:10044800000E486E000E496E17C04AF018C04BF0F7
:1004580003EC10F0F28EF29E600E466E000E476EB0
:10046800000E486E000E496E7BEC0FF046C01DF082
:1004780047C01EF0F28E1DC029F02F0E296447EFE9
:1004880002F049EF02F051EF02F0350E29644FEF08
:1004980002F051EF02F08EEF02F0300E296E000EDE
:1004A800166E000E156EF29E600E466E000E476EBA
:1004B800000E486E000E496E29C04AF04B6A03ECE4
:1004C80010F0F28EB3EF02F0000E166E000E156EED
:1004D800300E296EB3EF02F0030E166EE80E156E9D
:1004E800B3EF02F0070E166ED00E156EB3EF02F0E2
:1004F8000B0E166EB80E156EB3EF02F00F0E166ED9
:10050800A00E156EB3EF02F0130E166E880E156E60
:10051800B3EF02F029504C6E4D6A4D50000AD8B422
:1005280098EF02F068EF02F04C50300AD8B468EF48
:1005380002F0010AD8B470EF02F0030AD8B476EFDB
:1005480002F0010AD8B47CEF02F0070AD8B482EFAF
:1005580002F0010AD8B488EF02F068EF02F0F29EC8
:10056800500E466E000E476E000E486E000E496E25
:100578007BEC0FF046C01DF047C01EF0F28E1DC088
:1005880027F0960E2764CBEF02F0CDEF02F0E4EFF0
:1005980002F0000E276EF29E500E466E000E476E59
:1005A800000E486E000E496E27C04AF04B6A03ECF5
:1005B80010F0F28E000E1A6E000E196EE7EF02F0C0
:1005C80027C019F01A6AF29E400E466E000E476E5A
:1005D800000E486E000E496E7BEC0FF046C01DF011
:1005E80047C01EF0F28E1DC028F0810E2818D8B41E
:1005F80000EF03F002EF03F05DEF03F0820E28181E
:10060800D8B409EF03F00BEF03F05DEF03F0830EAE
:100618002818D8B412EF03F014EF03F05DEF03F0DD
:10062800840E2818D8B41BEF03F01DEF03F05DEF1C
:1006380003F0850E2818D8B424EF03F026EF03F052
:100648005DEF03F0070E576ED00E566E820E286EC1
:10065800F29E400E466E000E476E000E486E000E6B
:10066800496E28C04AF04B6A03EC10F0F28E7EEF18
:1006780003F0030E576EE80E566E7EEF03F0070E7A
:10068800576ED00E566E820E286E7EEF03F00B0E5C
:10069800576EB80E566E7EEF03F00F0E576EA00E13
:1006A800566E7EEF03F0130E576E880E566E7EEF71
:1006B80003F028504C6E4D6A4D50000AD8B467EFCD
:1006C80003F043EF03F04C50810AD8B43DEF03F038
:1006D800030AD8B443EF03F0010AD8B44BEF03F090
:1006E800070AD8B451EF03F0010AD8B457EF03F062
:1006F80043EF03F03F0E586EF29E300E466E000E2A
:10070800476E000E486E000E496E7BEC0FF046C037
:100718001DF047C01EF0F28E1DC058F05850D8B4D6
:1007280098EF03F09AEF03F0BDEF03F03F0E58186F
:10073800D8B4A1EF03F0A3EF03F0BDEF03F07F0EF1
:100748005818D8B4AAEF03F0ACEF03F0BDEF03F0EC
:100758003F0E586EF29E300E466E000E476E000E2B
:10076800486E000E496E58C04AF04B6A03EC10F010
:10077800F28E1E0E526E000E536E000E546E000E58
:10078800556ECEEC0BF08C9204001E0E526E000ECD
:10079800536E000E546E000E556E4BEC10F00DEFBC
:1007A80008F00FC013F010C014F081B8DEEF03F0AA
:1007B800E0EF03F0FFEF03F081B4E5EF03F0E7EFBC
:1007C80003F0E9EF03F06AEC10F02C50DCEC0FF0CA
:1007D800020E4D6E040E4C6EBA0EE82EFED74C2E4D
:1007E800FCD74D2EFAD700D081A8FDEF03F0FFEF1C
:1007F80003F0E0EF03F081B604EF04F006EF04F035
:10080800B8EF04F0630E13181410D8B40EEF04F008
:1008180010EF04F0B8EF04F081B615EF04F017EF0D
:1008280004F0BCEF04F004BE23EF04F0E80E035C10
:10083800030E0458D8A023EF04F025EF04F04BEF83
:1008480004F0145007E15A0E135CD8B02EEF04F0F0
:1008580030EF04F04BEF04F0060E4D6E130E4C6EA5
:10086800AE0EE82EFED74C2EFCD74D2EFAD70A0E28
:100878001324136E000E1420146E13C040F014C01D
:1008880041F02CC042F068EC0EF077EF04F004BEA3
:1008980059EF04F0E80E035C030E0458D8B057EF84
:1008A80004F059EF04F077EF04F0010E1324136EEF
:1008B800000E1420146E13C040F014C041F02CC078
:1008C80042F068EC0EF0020E4D6E860E4C6E990EDC
:1008D800E82EFED74C2EFCD74D2EFAD700F0000E8E
:1008E800046E000E036E81B67CEF04F07EEF04F018
:1008F8009FEF04F080BA83EF04F085EF04F09FEFD8
:1009080004F0000E146E000E136E13C040F014C0F5
:1009180041F02CC042F068EC0EF09FEF04F01A0E84
:100928004C6EF80EE82EFED74C2EFCD700D00A0EDF
:100938000326000E042281B6A4EF04F0A6EF04F00B
:10094800B6EF04F004BEB2EF04F0E80E035C030E49
:100958000458D8A0B2EF04F0B4EF04F093EF04F019
:10096800BCEF04F0BCEF04F0000E046E000E036E42
:1009780080BAC1EF04F0C3EF04F074EF05F0135030
:100988001410D8B4CAEF04F0CCEF04F074EF05F0FB
:1009980080BAD1EF04F0D3EF04F078EF05F002BE8F
:1009A800DFEF04F0E80E015C030E0258D8A0DFEF79
:1009B80004F0E1EF04F007EF05F0145009E10A0E26
:1009C800135CD8A0EAEF04F0ECEF04F007EF05F0B1
:1009D800060E4D6E130E4C6EAE0EE82EFED74C2E44
:1009E800FCD74D2EFAD7F60E1324136EFF0E1420E3
:1009F800146E13C040F014C041F02CC042F068ECF3
:100A08000EF033EF05F002BE15EF05F0E80E015CBD
:100A1800030E0258D8B013EF05F015EF05F033EFC9
:100A280005F0FF0E1324136EFF0E1420146E13C06E
:100A380040F014C041F02CC042F068EC0EF0020EF9
:100A48004D6E860E4C6E990EE82EFED74C2EFCD7B6
:100A58004D2EFAD700F0000E026E000E016E80BA1D
:100A680038EF05F03AEF05F05BEF05F081B63FEFA0
:100A780005F041EF05F05BEF05F0000E146E000E77
:100A8800136E13C040F014C041F02CC042F068EC63
:100A98000EF05BEF05F01A0E4C6EF80EE82EFED73E
:100AA8004C2EFCD700D00A0E0126000E022280BA76
:100AB80060EF05F062EF05F072EF05F002BE6EEF31
:100AC80005F0E80E015C030E0258D8A06EEF05F0A1
:100AD80070EF05F04FEF05F078EF05F078EF05F0CF
:100AE800000E026E000E016E80B87DEF05F07FEFFC
:100AF80005F097EF05F0145007E15A0E135CD8B0D3
:100B080088EF05F08AEF05F097EF05F00A0E132439
:100B1800136E000E1420146E80A895EF05F097EF61
:100B280005F090EF05F080B69CEF05F09EEF05F01C
:100B3800B6EF05F0145009E10A0E135CD8A0A7EF30
:100B480005F0A9EF05F0B6EF05F0F60E1324136EC5
:100B5800FF0E1420146E80A6B4EF05F0B6EF05F072
:100B6800AFEF05F013C00FF014C010F013C040F041
:100B780014C041F02CC042F068EC0EF007040810D5
:100B8800D8A4C9EF05F0CBEF05F0DBEF05F0010EB7
:100B98002D6E1E0E526E000E536E000E546E000E19
:100BA800556E24EC08F0000E2F6E000E2D6E3104E9
:100BB800D8A4E1EF05F0E3EF05F009EF08F0DFEF67
:100BC80007F0F10E8219D8A4ECEF05F0EEEF05F06E
:100BD8000AEF06F02D50D8A4F4EF05F0F6EF05F073
:100BE8000AEF06F0000E2F6E010E2D6E0FC013F0E7
:100BF80010C014F01E0E526E000E536E000E546E8E
:100C0800000E556E35EC0AF068EF06F0F20E821908
:100C1800D8A411EF06F013EF06F068EF06F02D5098
:100C2800D8A419EF06F01BEF06F068EF06F0000EE7
:100C38002F6E010E2D6E0FC013F010C014F013C0EC
:100C480040F014C041F02CC042F068EC0EF01E0ECB
:100C5800526E000E536E000E546E000E556E24EC4C
:100C680008F02F50D8A43BEF06F03DEF06F068EFF0
:100C780006F0A50E0001606F440E616FF90E626FF9
:100C88003D0E636F5A0E646FF29E000E0E6E000EDC
:100C98000D6E0E5009E1050E0D5CD8A056EF06F05A
:100CA80058EF06F05AEF06F067EF06F0600E0D24D5
:100CB800D96E000E0E20DA6EDF5070EC11F00D4A7E
:100CC8000E2A4DEF06F0F28E88EC10F0A5EC10F02D
:100CD800000E2F6E000E2D6E01EF08F02D50D8A4D7
:100CE80078EF06F07AEF06F001EF08F0010E2D6EAE
:100CF80082C029F0A6EF06F0000E166E000E156EE3
:100D0800300E296ECBEF06F0030E166EE80E156E48
:100D1800CBEF06F0070E166ED00E156ECBEF06F071
:100D28000B0E166EB80E156ECBEF06F00F0E166E84
:100D3800A00E156ECBEF06F0130E166E880E156E0C
:100D4800CBEF06F029504C6E4D6A4D50000AD8B4CE
:100D5800B0EF06F080EF06F04C50300AD8B480EFC0
:100D680006F0010AD8B488EF06F0030AD8B48EEF6B
:100D780006F0010AD8B494EF06F0070AD8B49AEF3F
:100D880006F0010AD8B4A0EF06F080EF06F0F29E54
:100D9800600E466E000E476E000E486E000E496EDD
:100DA80029C04AF04B6A03EC10F0F28E88EC10F080
:100DB8006EEF06F02D50D8A4E4EF06F0E6EF06F04B
:100DC80001EF08F08251D8A4ECEF06F0EEEF06F040
:100DD8005BEF07F0010E2D6EF29E600E466E000E60
:100DE800476E000E486E000E496E7BEC0FF04650C1
:100DF800296E400E466E000E476E000E486E000EBD
:100E0800496E7BEC0FF04650286E300E466E000E91
:100E1800476E000E486E000E496E7BEC0FF046C020
:100E28001BF047C01CF0500E466E000E476E000EB9
:100E3800486E000E496E7BEC0FF04650276EF28E1E
:100E4800510E0001606F29C061F01BC062F028C01C
:100E580063F027C064F0020E4D6E040E4C6EBA0E9D
:100E6800E82EFED74C2EFCD74D2EFAD700D0F29E96
:100E7800000E0E6E000E0D6E0E5009E1050E0D5C93
:100E8800D8A049EF07F04BEF07F04DEF07F05AEF06
:100E980007F0600E0D24D96E000E0E20DA6EDF50BA
:100EA80070EC11F00D4A0E2A40EF07F0F28EA5EC17
:100EB80010F06EEF06F02D50D8A465EF07F067EF3D
:100EC80007F0BFEF07F0010E2D6E82C028F08DEFFE
:100ED80007F0030E576EE80E566EAEEF07F0070EDA
:100EE800576ED00E566E820E286EAEEF07F00B0EC0
:100EF800576EB80E566EAEEF07F00F0E576EA00E77
:100F0800566EAEEF07F0130E576E880E566EAEEFA4
:100F180007F028504C6E4D6A4D50000AD8B497EF30
:100F280007F073EF07F04C50810AD8B46DEF07F063
:100F3800030AD8B473EF07F0010AD8B47BEF07F0BF
:100F4800070AD8B481EF07F0010AD8B487EF07F091
:100F580073EF07F0F29E400E466E000E476E000ECD
:100F6800486E000E496E28C04AF04B6A03EC10F038
:100F7800F28E000E2D6E2D50D8A4C5EF07F0C7EFE6
:100F880007F001EF08F0010E2D6E82C027F027C090
:100F980019F01A6AF29E500E466E000E476E000E49
:100FA800486E000E496E27C04AF04B6A03EC10F0F9
:100FB800F28E6EEF06F0000181514C6E4D6A4D5075
:100FC800000AD8B4EAEF07F001EF08F04C50230A02
:100FD800D8B472EF06F0670AD8B4E5EF05F0150A41
:100FE800D8B4DEEF06F0340AD8B45FEF07F0030A8E
:100FF800D8B4BFEF07F001EF08F0000E316E000E15
:10100800306E000E2A6EC8EF03F0000E2A6EC8EF8D
:1010180003F02A504C6E4D6A4D50000AD8B417EFB1
:1010280008F0C8EF03F04C50000AD8B4D5EF03F02D
:10103800020AD8B4DBEF05F0C8EF03F081EF01F046
:101048002C04D8A42AEF08F02CEF08F041EF08F0A0
:101058008B8256C038F057C039F0F8EC10F08B92FC
:10106800040E4A6E0C0E496E340EE82EFED7492E39
:10107800FCD74A2EFAD744EF08F08B9234EF08F0E9
:10108800898413501410D8A44CEF08F04EEF08F0E0
:1010980054EF08F0000E126E010E116EDEEF09F02B
:1010A800000E126E000E116EDEEF09F00400AFECB8
:1010B8000FF04BEC10F015C038F016C039F0F8EC12
:1010C80010F0A3EC11F0040E4A6E8E0E496E120E4B
:1010D800E82EFED7492EFCD74A2EFAD700D01E0E8E
:1010E800526E000E536E000E546E000E556E47EC95
:1010F80011F038C00BF039C00CF052505310541096
:101108005510D8A48AEF08F08CEF08F091EF08F09A
:10111800310ED4EC0CF0A8EC11F00B500C10D8A444
:1011280098EF08F09AEF08F07BEF08F04E0E496E42
:10113800EB0EE82EFED7492EFCD700F01E0E526E9D
:10114800000E536E000E546E000E556E47EC11F0F3
:1011580038C00BF039C00CF05250531054105510D1
:10116800D8A4B9EF08F0BBEF08F0C0EF08F0320ED2
:10117800D4EC0CF0A8EC11F00B040C10D8A4C7EFB9
:1011880008F0C9EF08F0AAEF08F01E0E526E000E24
:10119800536E000E546E000E556E19C038F01AC00A
:1011A80039F0F8EC10F0A8EC11F013501410D8B482
:1011B800E0EF08F0E2EF08F0EEEF08F0110412108B
:1011C800D8B4E9EF08F0EBEF08F0EEEF08F01306FB
:1011D800D8A0140613C040F014C041F02CC042F04F
:1011E80068EC0EF02C04D8A4FCEF08F0FEEF08F031
:1011F80025EF09F013501410D8A405EF09F007EFF4
:1012080009F010EF09F011041210D8A40EEF09F03C
:1012180010EF09F025EF09F08B8256C038F057C05F
:1012280039F0F8EC10F08B92040E4A6E0C0E496EF1
:10123800340EE82EFED7492EFCD74A2EFAD765EF92
:1012480009F02C50D8A42BEF09F02DEF09F065EF29
:1012580009F013501410D8A434EF09F036EF09F050
:101268003FEF09F011041210D8A43DEF09F03FEF49
:1012780009F065EF09F08B9213501410D8A447EFCA
:1012880009F049EF09F052EF09F011041210D8A43F
:1012980050EF09F052EF09F05AEF09F056C038F054
:1012A80057C039F0F8EC10F065EF09F0060E4A6EF9
:1012B800130E496EAE0EE82EFED7492EFCD74A2EE5
:1012C800FAD72F04D8A46BEF09F06DEF09F09AEF65
:1012D80009F0F0EF09F0000E126E020E116E13C045
:1012E80040F014C041F02C50D8B47DEF09F080EFE5
:1012F80009F0010E81EF09F0000E426E68EC0EF065
:10130800820E496EDE0EE82EFED7492EFCD713C09A
:1013180040F014C041F02CC042F068EC0EF0820E90
:10132800496EDE0EE82EFED7492EFCD7075008106E
:10133800D8A4A1EF09F0A3EF09F0B5EF09F0110463
:101348001210D8B4AAEF09F0ACEF09F06FEF09F06A
:1013580011501210D8B4B3EF09F0B5EF09F06FEFE0
:1013680009F013C040F014C041F02CC042F068EC02
:101378000EF007500810D8A4C4EF09F0C6EF09F022
:10138800D7EF09F013501410D8B4CDEF09F0CFEF10
:1013980009F0D7EF09F013C00FF014C010F0000ED9
:1013A800146E000E136E820E496EDE0EE82EFED706
:1013B800492EFCD713501410D8A4E5EF09F0E7EF35
:1013C80009F05AEF08F011041210D8B4EEEF09F042
:1013D800F0EF09F05AEF08F0899413501410D8B4BC
:1013E800F8EF09F0FAEF09F002EF0AF02F04D8A499
:1013F80000EF0AF002EF0AF026EF0AF0115012107F
:10140800D8A409EF0AF00BEF0AF026EF0AF02C0433
:10141800D8A411EF0AF013EF0AF026EF0AF08B8236
:1014280056C038F057C039F0F8EC10F08B92040E23
:101438004A6E0C0E496E340EE82EFED7492EFCD7A4
:101448004A2EFAD7000E126E000E116E000E146EA0
:10145800000E136E000E086E000E076E000E2A6E48
:101468001200000E0C6E000E0B6E410E54EC0CF0C8
:101478002C04D8A442EF0AF044EF0AF059EF0AF01E
:101488008B8256C038F057C039F0F8EC10F08B92C8
:10149800040E426E0C0E416E340EE82EFED7412E1D
:1014A800FCD7422EFAD75CEF0AF08B924CEF0AF089
:1014B80089840CEF0BF00400AFEC0FF04BEC10F04C
:1014C80015C038F016C039F0F8EC10F0A3EC11F0A4
:1014D800040E426E8E0E416E120EE82EFED7412E7D
:1014E800FCD7422EFAD700D01E0E526E000E536E55
:1014F800000E546E000E556E47EC11F038C00BF01C
:1015080039C00CF05250531054105510D8A48FEF16
:101518000AF091EF0AF096EF0AF0310ED4EC0CF0D5
:10152800A8EC11F00B500C10D8A49DEF0AF09FEF17
:101538000AF080EF0AF04E0E416EEB0EE82EFED751
:10154800412EFCD700F01E0E526E000E536E000E98
:10155800546E000E556E47EC11F038C00BF039C0D0
:101568000CF05250531054105510D8A4BEEF0AF086
:10157800C0EF0AF0C5EF0AF0320ED4EC0CF0A8EC7C
:1015880011F00B040C10D8A4CCEF0AF0CEEF0AF03F
:10159800AFEF0AF01E0E526E000E536E000E546E20
:1015A800000E556E19C038F01AC039F0F8EC10F07A
:1015B800A8EC11F02C04D8A4E4EF0AF0E6EF0AF046
:1015C800FBEF0AF08B8256C038F057C039F0F8ECC0
:1015D80010F08B92040E426E0C0E416E340EE82E03
:1015E800FED7412EFCD7422EFAD702EF0BF08B9292
:1015F80056C038F057C039F0F8EC10F02F04D8A4D2
:1016080008EF0BF00AEF0BF00CEF0BF014EF0BF0F8
:101618002F50D8B412EF0BF014EF0BF05FEF0AF075
:10162800899413501410D8B41CEF0BF01EEF0BF074
:1016380026EF0BF02F04D8A424EF0BF026EF0BF0C5
:1016480041EF0BF02C04D8A42CEF0BF02EEF0BF08D
:1016580041EF0BF08B8256C038F057C039F0F8ECE8
:1016680010F08B92040E426E0C0E416E340EE82E72
:10167800FED7412EFCD7422EFAD7000E146E000E6C
:10168800136E020E2A6E1200000E416E3FBE51EF1D
:101698000BF04FEF0BF05BEF0BF03F1E3E1E3D1EB5
:1016A8003C6C000E3D223E223F22010E416E3BBEA5
:1016B80062EF0BF060EF0BF06CEF0BF03B1E3A1E85
:1016C800391E386C000E39223A223B22010E411A8B
:1016D800000E426E000E436E000E446E000E456E04
:1016E8003C503D103E103F10D8B47DEF0BF07FEF1B
:1016F8000BF0B5EF0BF0010E406E89EF0BF0D890B0
:101708003C363D363E363F36402A3FAE8EEF0BF034
:1017180090EF0BF083EF0BF0D89042364336443607
:1017280045363C50385C3D5039583E503A583F5049
:101738003B58D8A0A2EF0BF0A4EF0BF0ADEF0BF0E5
:101748003C50385E3D50395A3E503A5A3F503B5A09
:101758004280D8903F323E323D323C32402E90EFAC
:101768000BF04150D8B4BBEF0BF0BDEF0BF0C5EF59
:101778000BF0451E441E431E426C000E43224422B9
:10178800452242C038F043C039F044C03AF045C061
:101798003BF012008984A3EC11F0040E426E8E0E09
:1017A800416E120EE82EFED7412EFCD7422EFAD7F4
:1017B80000D01E0E526E000E536E000E546E000EB8
:1017C800556E47EC11F038C00BF039C00CF0525090
:1017D800531054105510D8A4F4EF0BF0F6EF0BF09B
:1017E800FBEF0BF0310ED4EC0CF0A8EC11F00B5021
:1017F8000C10D8A402EF0CF004EF0CF0E5EF0BF09E
:101808004E0E416EEB0EE82EFED7412EFCD700F0AF
:101818001E0E526E000E536E000E546E000E556E64
:1018280047EC11F038C00BF039C00CF0525053108F
:1018380054105510D8A423EF0CF025EF0CF02AEF24
:101848000CF0320ED4EC0CF0A8EC11F00B040C10D8
:10185800D8A431EF0CF033EF0CF014EF0CF01E0E9F
:10186800526E000E536E000E546E000E556E19C067
:1018780038F01AC039F0F8EC10F0A8EC11F0060EA8
:10188800426E130E416EAE0EE82EFED7412EFCD7E7
:10189800422EFAD7000E0C6E000E0B6E89941200C1
:1018A800406E8B98000E02EC0FF08B888B98000E20
:1018B80002EC0FF0A0EF0CF0790E02EC0FF03F0EE7
:1018C80002EC0FF0CDEF0CF03F0E02EC0FF0730EB0
:1018D80002EC0FF0CDEF0CF0390E02EC0FF0770EA2
:1018E80002EC0FF0CDEF0CF0000E02EC0FF0000E42
:1018F80002EC0FF0CDEF0CF0000E02EC0FF03F0EF3
:1019080002EC0FF0CDEF0CF0790E02EC0FF0060EA2
:1019180002EC0FF0CDEF0CF0770E02EC0FF03E0E5C
:1019280002EC0FF0CDEF0CF0000E02EC0FF03E0EC3
:1019380002EC0FF0CDEF0CF040503E6E3F6A3F5086
:10194800000AD8B4AAEF0CF0CDEF0CF03E50410AD3
:10195800D8B490EF0CF0020AD8B470EF0CF0060A75
:10196800D8B460EF0CF0020AD8B480EF0CF0080A83
:10197800D8B468EF0CF01C0AD8B488EF0CF0050A4C
:10198800D8B498EF0CF00E0AD8B478EF0CF0CDEF7D
:101998000CF08B888B980D0E02EC0FF08B881200E0
:1019A800406E8B98000E02EC0FF08B888B98000E1F
:1019B80002EC0FF018EF0DF0790E02EC0FF0770E35
:1019C80002EC0FF041EF0DF0790E02EC0FF03F0E34
:1019D80002EC0FF041EF0DF0790E02EC0FF0060E5D
:1019E80002EC0FF041EF0DF0790E02EC0FF05B0EF8
:1019F80002EC0FF041EF0DF0000E02EC0FF03F0E7D
:101A080002EC0FF041EF0DF0790E02EC0FF0060E2C
:101A180002EC0FF041EF0DF0770E02EC0FF03E0EE6
:101A280002EC0FF041EF0DF040503E6E3F6A3F5020
:101A3800000AD8B422EF0DF041EF0DF03E50300A05
:101A4800D8B4E8EF0CF0010AD8B4F0EF0CF0030AB0
:101A5800D8B4F8EF0CF0730AD8B410EF0DF0040AFC
:101A6800D8B4E0EF0CF0020AD8B400EF0DF0140A75
:101A7800D8B408EF0DF041EF0DF08B888B980D0E60
:101A880002EC0FF08B88120076EF0DF03F0E3C6EE3
:101A9800ACEF0DF0060E3C6EACEF0DF05B0E3C6E3D
:101AA800ACEF0DF04F0E3C6EACEF0DF0660E3C6ED9
:101AB800ACEF0DF06D0E3C6EACEF0DF07D0E3C6E94
:101AC800ACEF0DF0070E3C6EACEF0DF07F0E3C6EE8
:101AD800ACEF0DF06F0E3C6EACEF0DF0000E3C6EEF
:101AE800ACEF0DF038C03AF039C03BF03B50000A7B
:101AF800D8B481EF0DF072EF0DF03A50000AD8B467
:101B08004AEF0DF0010AD8B44EEF0DF0030AD8B42D
:101B180052EF0DF0010AD8B456EF0DF0070AD8B409
:101B28005AEF0DF0010AD8B45EEF0DF0030AD8B4ED
:101B380062EF0DF0010AD8B466EF0DF00F0AD8B4C1
:101B48006AEF0DF0010AD8B46EEF0DF072EF0DF0E8
:101B58003C501200000E3D6E3BBEB7EF0DF0B5EFE6
:101B68000DF0BDEF0DF03A6C3B1ED8B03B2A010ECC
:101B78003D6E39BEC4EF0DF0C2EF0DF0CAEF0DF0A7
:101B8800386C391ED8B0392A010E3D1A000E3F6E46
:101B9800000E3E6E3A503B10D8B4D5EF0DF0D7EF9B
:101BA8000DF0FFEF0DF0010E3C6EDFEF0DF0D89059
:101BB8003A363B363C2A3BAEE4EF0DF0E6EF0DF04B
:101BC800DBEF0DF0D8903E363F363A50385C3B504C
:101BD8003958D8A0F2EF0DF0F4EF0DF0F9EF0DF051
:101BE8003A50385E3B50395A3E80D8903B323A32B0
:101BF8003C2EE6EF0DF03D50D8B405EF0EF007EFA0
:101C08000EF00BEF0EF03E6C3F1ED8B03F2A3EC0E0
:101C180038F03FC039F01200000E3D6E39BE19EFA2
:101C28000EF017EF0EF01FEF0EF0386C391ED8B01B
:101C3800392A010E3D6E3BBE26EF0EF024EF0EF062
:101C48002AEF0EF03A6C3B1ED8B03B2A3A503B10B4
:101C5800D8B431EF0EF033EF0EF057EF0EF0010E5F
:101C68003C6E3BEF0EF0D8903A363B363C2A3BAE02
:101C780040EF0EF042EF0EF037EF0EF03A50385CBE
:101C88003B503958D8A04BEF0EF04DEF0EF051EF06
:101C98000EF03A50385E3B50395AD8903B323A32BF
:101CA8003C2E42EF0EF03D50D8B45DEF0EF05FEFE2
:101CB8000EF063EF0EF0386C391ED8B0392A38C0F0
:101CC80038F039C039F0120040C038F041C039F05E
:101CD800000E3B6E0A0E3A6E10EC0EF038C043F060
:101CE80039C044F040C038F041C039F0000E3B6EB6
:101CF8000A0E3A6EAEEC0DF038C045F039C046F029
:101D08008B98000E02EC0FF08B888B98000E02EC7B
:101D18000FF045C038F046C039F048EC0DF0486E79
:101D280043C038F044C039F048EC0DF0476E4250DB
:101D3800D8B4A1EF0EF0A3EF0EF0AFEF0EF04228EB
:101D4800D8A4A9EF0EF0ABEF0EF0AEEF0EF0488E70
:101D5800AFEF0EF0478E485002EC0FF0475002EC00
:101D68000FF08B888B980D0E02EC0FF08B88120009
:101D7800406E8B888B98300E02EC0FF08B888B9816
:101D8800300E02EC0FF040C03EF03E3A0F0E3E1609
:101D9800050E3F6ED8903E363F2ECEEF0EF03E50E9
:101DA800050902EC0FF08B888B98110E02EC0FF0EE
:101DB8008B888B98110E02EC0FF0405002EC0FF05C
:101DC800405002EC0FF0405002EC0FF08B888B98DB
:101DD800180E02EC0FF08B888B98180E02EC0FF09F
:101DE800405002EC0FF0405002EC0FF0405002EC73
:101DF8000FF0405002EC0FF08B8812003A6E000E84
:101E08003C6E8B963CC038F0010E396E382A0FEFC5
:101E18000FF0D8903936382E0DEF0FF039503A14AC
:101E28003B6E3B50D8B41BEF0FF01DEF0FF020EFC7
:101E38000FF08B8A21EF0FF08B9A000E3D6E3D2A32
:101E4800040E3D642AEF0FF02CEF0FF023EF0FF094
:101E58008B86000E3D6E3D2A040E3D6436EF0FF072
:101E680038EF0FF02FEF0FF03C2A070E3C643FEFDE
:101E78000FF041EF0FF005EF0FF01200FB0E926E1E
:101E88009368840E946EC00E956E000E966E000ECA
:101E9800976E050E986EC29EC29CC290C18EC19C60
:101EA800C19AC188C196C184C192C190C088C190AD
:101EB800C182C184C186C188C18EC098F28E030ECA
:101EC800D312700ED312000EC46E000EC36EC294ED
:101ED800C296C298C29AC18CC280C282C2B277EF3F
:101EE8000FF079EF0FF072EF0FF0C19C1200B5EC14
:101EF80011F0000E396EA00E86EC11F046C038F0D5
:101F080047C039F048C03AF049C03BF0000E3C6E7B
:101F1800010E3D6E000E3E6E000E3F6E48EC0BF05B
:101F2800385097EC11F0465097EC11F0ADEC11F0E9
:101F3800010E396EA00E86EC11F0000EC2EC10F006
:101F480039C04AF03AC04BF0B1EC11F04AC046F043
:101F58004BC047F01200A50E0001606F450E616F7F
:101F6800000E626F450E636F5A0E646FF29E000E8C
:101F78003B6E000E3A6E600E3A24D96E000E3B207E
:101F8800DA6EDF5070EC11F03A4A3B2A3BBED6EFCE
:101F98000FF03B5009E1050E3A5CD8A0D6EF0FF0E0
:101FA800D8EF0FF0BFEF0FF0F28EA5EC10F0120093
:101FB8003E6E8B98000E02EC0FF08B888B98000E0B
:101FC80002EC0FF03E04D8A4ECEF0FF0EEEF0FF0A8
:101FD800F6EF0FF0000E02EC0FF0BE0E02EC0FF061
:101FE800FCEF0FF0000E02EC0FF03E0E02EC0FF0CB
:101FF8008B888B980D0E02EC0FF08B881200B5ECD5
:1020080011F0000E396EA00E86EC11F046C038F0C3
:1020180047C039F048C03AF049C03BF0000E3C6E6A
:10202800010E3D6E000E3E6E000E3F6E48EC0BF04A
:10203800385097EC11F0465097EC11F04A5097EC55
:1020480011F0B1EC11F012003A0EF66E230EF76E95
:10205800000EF86E00EE4EF010EE0BF00900F5CF12
:10206800EEFFE550E150FAE100EE60F0300EEE6A66
:10207800E806FDE100EE01F0310EEE6AE806FDE14A
:1020880059905992000EF86E000183EF01F0C29446
:10209800C296C298C29AC280000E396E050E386E7A
:1020A800F8EC10F0C282C2B25CEF10F05EEF10F0F4
:1020B80057EF10F0C350C4CF3BF03C6A3BC03CF034
:1020C8003B6A3B10096E3C500A6E12002C50D8B483
:1020D80070EF10F072EF10F076EF10F0000E2C6E2B
:1020E80078EF10F0010E2C6EF29E100E466E000E68
:1020F800476E000E486E000E496E2CC04AF04B6ABF
:1021080003EC10F0F28E1200000E396E000E386EDD
:10211800800E3824D96E000E3920DA6E000EDF6E7C
:10212800384A392A39BEA2EF10F0395009E1100EA9
:10213800385CD8A0A2EF10F0A4EF10F08CEF10F0EC
:102148001200000E396E000E386E600E3824D96EFB
:10215800000E3920DA6E000EDF6E384A392A39BE91
:10216800BFEF10F0395009E1100E385CD8A0BFEF6E
:1021780010F0C1EF10F0A9EF10F012003B6E21EC47
:1021880011F06B8621EC11F06FCF3CF021EC11F0CF
:102198003B50D8B4D2EF10F0D4EF10F0D7EF10F0D6
:1021A8006B9AD8EF10F06B8A6B883CC039F03A6AAA
:1021B8001200670E095C030E0A58D8B0E6EF10F05B
:1021C800E8EF10F0EBEF10F08C82F7EF10F0C00E94
:1021D800095C030E0A58D8A0F4EF10F0F6EF10F0DF
:1021E800F7EF10F08C92120004EF11F0030E3A6E24
:1021F800980EE82EFED73A2EFCD73806D8A0390616
:1022080038503910D8A40BEF11F00DEF11F0FAEF98
:1022180010F01200949C948EAD98AD9CAD8AAC9C45
:10222800AC88AD9EAC86AC8E7E96AD849D8A9D981A
:10223800190EB06E000E7F6E12006BCF38F01F0EB5
:102248003816D8A42AEF11F02CEF11F021EF11F075
:102258006DB431EF11F033EF11F021EF11F01200EE
:10226800ACA239EF11F03BEF11F043EF11F0AC984D
:10227800AFCF32F0AFCF32F0AC8845EF11F0AFCF2F
:1022880032F03250120080A24CEF11F04EEF11F0F4
:1022980054EF11F0000E396E000E386E58EF11F041
:1022A800000E396E010E386E1200310ECD6E9E0E84
:1022B800CF6E570ECE6E9E909D809F80000E256E2D
:1022C8001200958A958C280E6C6E000E6B6E270E88
:1022D8006E6EC00E6D6E1200386E38C0AEFFADA2C5
:1022E80078EF11F07AEF11F073EF11F01200326EFF
:1022F80032C0AEFFADA283EF11F085EF11F07EEF93
:1023080011F012003A6E3AC03BF039503B2621ECEE
:1023180011F03BC06FFF1200C70E776E7996798C6B
:10232800000E766E1200396E21EC11F039C06FFF85
:0D2338001200140000001E000000D0073F3E
:102346008F868F88B9EC11F01200BDEC11F08F86E4
:102356008F88120021EC11F06B82120021EC11F033
:102366006B84120021EC11F06B801200080E736E64
:0C23760076841200000E736E7694120044
:067FF800AEF703FBF8F1F7
:00000001FF
