:020000040000FA
:040000004DEF01F0CF
:100008005982D9CF39F0DACF3AF09EAA0EEF00F034
:1000180010EF00F0E1EF00F0D4EC0EF03C6EA50E0E
:100028003C18D8A41AEF00F01CEF00F03EEF00F0E7
:100038003750D8B422EF00F024EF00F02CEF00F096
:100048003304D8A42AEF00F02CEF00F03EEF00F0C4
:10005800010E366E000E2A6E000E296E010E29243E
:10006800D96E000E2A20DA6E3CC0DFFF294A2A2A00
:10007800EBEF00F03604D8A444EF00F046EF00F0B0
:10008800EBEF00F0010E2924D96E000E2A20DA6E5B
:100098003CC0DFFF2A5007E1050E295CD8B057EFB6
:1000A80000F059EF00F0DDEF00F05A0E3C18D8A42C
:1000B80060EF00F062EF00F03AEF00F00250032426
:1000C8003B6E3B500418D8A46CEF00F06EEF00F0C4
:1000D800B1EF00F03350D8B474EF00F076EF00F0D1
:1000E8007FEF00F0F50E0318D8A47DEF00F07FEF46
:1000F80000F097EF00F0F29E000E3D6E010E3D24D9
:10010800D96EDA6A000EDA22DF501BEC0FF03D2AB6
:10011800040E3D6492EF00F094EF00F082EF00F0DF
:10012800F28EA7EF00F0F29E000E3D6E160E1BEC4D
:100138000FF03D2A040E3D64A4EF00F0A6EF00F096
:100148009AEF00F0F28E010E376E000E2A6E000E46
:10015800296E020E306EC7EF00F0000E376E000EEB
:100168002A6E000E296EF29E000E3D6E150E1BECD7
:100178000FF03D2A040E3D64C4EF00F0C6EF00F016
:10018800BAEF00F0F28EF50E0318D8A4CEEF00F007
:10019800D0EF00F03AEF00F0020E3018D8A4D7EFF5
:1001A80000F0D9EF00F03AEF00F0010E356E3AEFAB
:1001B80000F0000E366E3AEF00F0ACA2E6EF00F069
:1001C800E8EF00F0EBEF00F0AC92AC98AC882B04B1
:1001D800D8A4F1EF00F0F3EF00F039EF01F055BECD
:1001E80000EF01F055505410531008E15204D8A004
:1001F80000EF01F002EF01F00CEF01F0FF0E5226C4
:10020800FF0E5322FF0E5422FF0E552214EF01F069
:10021800000E526E000E536E000E546E000E556E98
:1002280051BE21EF01F0515050104F1008E14E041B
:10023800D8A021EF01F023EF01F02DEF01F0FF0E20
:100248004E26FF0E4F22FF0E5022FF0E512237EF8F
:1002580001F0140E4E6E000E4F6E000E506E000E22
:10026800516E7DEC0EF0000E2B6E9EA03EEF01F05D
:1002780040EF01F047EF01F09E0ECF6E570ECE6EA5
:100288009E90010E2B6E3AC0DAFF39C0D9FF599201
:100298001100C7EF0DF0F29EDEEC0CF0770E58EC73
:1002A8000CF030EC0FF005EC0FF0AEEC0EF0F9ECC2
:1002B8000EF08B9289941E0E526E000E536E000E35
:1002C800546E000E556ED08E9F8AF28EF28EC090BC
:1002D8008C808C82000E476E220E466EFF0E486E92
:1002E80001EC0CF0060E0001876F130E866FAD0E41
:1002F800E82EFED7862FFCD7872FFAD700D009EC37
:100308000EF0F29E100E0001806F000E816F000E3D
:10031800826F000E836F17EC0DF080C023F081C050
:1003280024F0F28E23C032F0010E32649EEF01F009
:10033800A0EF01F0B2EF01F0010E326EF29E100E46
:100348000001806F000E816F000E826F000E836FB8
:1003580032C084F0856BA0EC0DF0F28E000E1A6EA0
:10036800010E196E19C046F01AC047F032C048F0A5
:1003780001EC0CF0000E186E010E176EF29E200EA6
:100388000001806F000E816F000E826F000E836F78
:1003980017EC0DF080C023F081C024F0F28E2350BA
:1003A8001D6E1E6A1E5009E1310E1D5CD8A0DFEFDC
:1003B80001F0E1EF01F0ECEF01F01E5009E13B0E16
:1003C8001D5CD8A0EAEF01F0ECEF01F001EF02F0BC
:1003D800000E1E6E310E1D6EF29E200E0001806F03
:1003E800000E816F000E826F000E836F1DC084F0B7
:1003F8001EC085F0A0EC0DF0F28EF29E600E00019A
:10040800806F000E816F000E826F000E836F17ECF5
:100418000DF080C023F081C024F0F28E23C02FF0AD
:100428002F0E2F641AEF02F01CEF02F024EF02F0F7
:10043800350E2F6422EF02F024EF02F062EF02F093
:10044800300E2F6E000E1C6E000E1B6EF29E600E9C
:100458000001806F000E816F000E826F000E836FA7
:100468002FC084F0856BA0EC0DF0F28E88EF02F0BF
:10047800000E1C6E000E1B6E300E2F6E88EF02F001
:10048800030E1C6EE80E1B6E88EF02F0070E1C6E42
:10049800D00E1B6E88EF02F00B0E1C6EB80E1B6E92
:1004A80088EF02F00F0E1C6EA00E1B6E88EF02F094
:1004B800130E1C6E880E1B6E88EF02F02F50000181
:1004C800866F876B8751000AD8B46DEF02F03CEF56
:1004D80002F08651300AD8B43CEF02F0010AD8B4D1
:1004E80044EF02F0030AD8B44AEF02F0010AD8B484
:1004F80050EF02F0070AD8B456EF02F0010AD8B458
:100508005CEF02F03CEF02F0F29E500E0001806FAB
:10051800000E816F000E826F000E836F17EC0DF0D6
:1005280080C023F081C024F0F28E23C02DF0960EF7
:100538002D64A1EF02F0A3EF02F0BBEF02F0000E72
:100548002D6EF29E500E0001806F000E816F000E1E
:10055800826F000E836F2DC084F0856BA0EC0DF0C8
:10056800F28E000E206E000E1F6EBEEF02F02DC040
:100578001FF0206AF29E400E0001806F000E816F0E
:10058800000E826F000E836F17EC0DF080C023F011
:1005980081C024F0F28E23C02EF0810E2E18D8B41C
:1005A800D8EF02F0DAEF02F036EF03F0820E2E18E1
:1005B800D8B4E1EF02F0E3EF02F036EF03F0830E78
:1005C8002E18D8B4EAEF02F0ECEF02F036EF03F0A1
:1005D800840E2E18D8B4F3EF02F0F5EF02F036EFE0
:1005E80003F0850E2E18D8B4FCEF02F0FEEF02F0EF
:1005F80036EF03F0070E576ED00E566E820E2E6E33
:10060800F29E400E0001806F000E816F000E826F17
:10061800000E836F2EC084F0856BA0EC0DF0F28E77
:1006280058EF03F0030E576EE80E566E58EF03F0BE
:10063800070E576ED00E566E820E2E6E58EF03F0D0
:100648000B0E576EB80E566E58EF03F00F0E576E1E
:10065800A00E566E58EF03F0130E576E880E566EA6
:1006680058EF03F02E500001866F876B8751000A00
:10067800D8B441EF03F01CEF03F08651810AD8B4D7
:1006880016EF03F0030AD8B41CEF03F0010AD8B43C
:1006980024EF03F0070AD8B42AEF03F0010AD8B40C
:1006A80030EF03F01CEF03F01E0E526E000E536E77
:1006B800000E546E000E556E67EC09F08C92040023
:1006C8001E0E526E000E536E000E546E000E556EC6
:1006D80009EC0EF06EEF06F017C019F018C01AF00A
:1006E80081B879EF03F07BEF03F09BEF03F081B45F
:1006F80080EF03F082EF03F084EF03F0EAEC0DF0F3
:10070800325079EC0DF0020E0001876F040E866FEF
:10071800BA0EE82EFED7862FFCD7872FFAD700F01F
:1007280081A899EF03F09BEF03F07BEF03F081B60C
:10073800A0EF03F0A2EF03F0B9EF03F0630E19186E
:100748001A10D8B4AAEF03F0ACEF03F0B9EF03F036
:10075800010E1924196E000E1A201A6E81A6B7EF21
:1007680003F0B9EF03F0B2EF03F080BABEEF03F085
:10077800C0EF03F0D6EF03F019501A10D8B4C7EF42
:1007880003F0C9EF03F0D6EF03F0FF0E1924196E3A
:10079800FF0E1A201A6E80AAD4EF03F0D6EF03F0EA
:1007A800CFEF03F080B8DBEF03F0DDEF03F0F5EFF8
:1007B80003F01A5007E15A0E195CD8B0E6EF03F0BF
:1007C800E8EF03F0F5EF03F00A0E1924196E000E96
:1007D8001A201A6E80A8F3EF03F0F5EF03F0EEEF9E
:1007E80003F080B6FAEF03F0FCEF03F014EF04F027
:1007F8001A5009E10A0E195CD8A005EF04F007EFBA
:1008080004F014EF04F0F60E1924196EFF0E1A20E6
:100818001A6E80A612EF04F014EF04F00DEF04F046
:1008280019C017F01AC018F019C046F01AC047F0DE
:1008380032C048F001EC0CF081B425EF04F027EF4A
:1008480004F037EF04F0010E336E1E0E526E000EE8
:10085800536E000E546E000E556E86EC06F0000EB8
:10086800356E000E336E3704D8A43DEF04F03FEF29
:1008780004F06AEF06F040EF06F0F10E0318D8A472
:1008880048EF04F04AEF04F066EF04F03350D8A4C0
:1008980050EF04F052EF04F066EF04F0000E356EEE
:1008A800010E336E17C019F018C01AF01E0E526EE2
:1008B800000E536E000E546E000E556ECEEC07F00F
:1008C800C4EF04F0F20E0318D8A46DEF04F06FEF34
:1008D80004F0C4EF04F03350D8A475EF04F077EFB8
:1008E80004F0C4EF04F0000E356E010E336E17C02D
:1008F80019F018C01AF019C046F01AC047F032C0F3
:1009080048F001EC0CF01E0E526E000E536E000EF5
:10091800546E000E556E86EC06F03550D8A497EF4D
:1009280004F099EF04F0C4EF04F0A50E0001606F25
:10093800440E616FF90E626F3D0E636F5A0E646F5D
:10094800F29E000E166E000E156E165009E1050E89
:10095800155CD8A0B2EF04F0B4EF04F0B6EF04F0E1
:10096800C3EF04F0600E1524D96E000E1620DA6E5F
:10097800DF5010EC0FF0154A162AA9EF04F0F28E9A
:1009880028EC0EF045EC0EF0000E356E000E336EBE
:1009980062EF06F03350D8A4D4EF04F0D6EF04F099
:1009A80062EF06F0010E336E03C02FF002EF05F080
:1009B800000E1C6E000E1B6E300E2F6E27EF05F01A
:1009C800030E1C6EE80E1B6E27EF05F0070E1C6E5B
:1009D800D00E1B6E27EF05F00B0E1C6EB80E1B6EAB
:1009E80027EF05F00F0E1C6EA00E1B6E27EF05F00B
:1009F800130E1C6E880E1B6E27EF05F02F50866FA6
:100A0800876B8751000AD8B40CEF05F0DCEF04F0CF
:100A18008651300AD8B4DCEF04F0010AD8B4E4EF08
:100A280004F0030AD8B4EAEF04F0010AD8B4F0EFEE
:100A380004F0070AD8B4F6EF04F0010AD8B4FCEFC2
:100A480004F0DCEF04F0F29E600E806F000E816F00
:100A5800000E826F000E836F2FC084F0856BA0ECB0
:100A68000DF0F28E28EC0EF0CAEF04F03350D8A443
:100A780040EF05F042EF05F062EF06F00350D8A40E
:100A880048EF05F04AEF05F0BBEF05F0010E336EB5
:100A9800F29E600E806F000E816F000E826F000E56
:100AA800836F17EC0DF0000180512F6E400E806FA0
:100AB800000E816F000E826F000E836F17EC0DF031
:100AC800000180512E6E300E806F000E816F000E77
:100AD800826F000E836F17EC0DF080C021F081C08B
:100AE80022F0500E0001806F000E816F000E826FA1
:100AF800000E836F17EC0DF0000180512D6EF28E01
:100B0800510E606F2FC061F021C062F02EC063F0FB
:100B18002DC064F0020E0001876F040E866FBA0EB6
:100B2800E82EFED7862FFCD7872FFAD700F0F29E43
:100B3800000E166E000E156E165009E1050E155CB6
:100B4800D8A0A9EF05F0ABEF05F0ADEF05F0BAEFCF
:100B580005F0600E1524D96E000E1620DA6EDF50EF
:100B680010EC0FF0154A162AA0EF05F0F28E45ECAE
:100B78000EF0CAEF04F03350D8A4C5EF05F0C7EF64
:100B880005F01FEF06F0010E336E03C02EF0EDEFF7
:100B980005F0030E576EE80E566E0EEF06F0070EC0
:100BA800576ED00E566E820E2E6E0EEF06F00B0E9E
:100BB800576EB80E566E0EEF06F00F0E576EA00E5B
:100BC800566E0EEF06F0130E576E880E566E0EEF29
:100BD80006F02E50866F876B8751000AD8B4F7EF5E
:100BE80005F0D3EF05F08651810AD8B4CDEF05F0B2
:100BF800030AD8B4D3EF05F0010AD8B4DBEF05F047
:100C0800070AD8B4E1EF05F0010AD8B4E7EF05F018
:100C1800D3EF05F0F29E400E806F000E816F000E3C
:100C2800826F000E836F2EC084F0856BA0EC0DF0F0
:100C3800F28E000E336E3350D8A425EF06F027EF5E
:100C480006F062EF06F0010E336E03C02DF02DC0E2
:100C58001FF0206AF29E500E0001806F000E816F17
:100C6800000E826F000E836F2DC084F0856BA0ECA0
:100C78000DF0F28ECAEF04F002500001866F876B08
:100C88008751000AD8B44BEF06F062EF06F08651A0
:100C9800230AD8B4CEEF04F0670AD8B441EF04F0C1
:100CA800150AD8B43AEF05F0340AD8B4BFEF05F006
:100CB800030AD8B41FEF06F062EF06F0000E376E95
:100CC800000E366E000E306E63EF03F0000E306ECD
:100CD80063EF03F030500001866F876B8751000A7D
:100CE800D8B479EF06F063EF03F08651000AD8B460
:100CF80070EF03F0020AD8B437EF04F063EF03F0A3
:100D08004DEF01F03204D8A48CEF06F08EEF06F018
:100D1800A3EF06F08B8256C03EF057C03FF098EC28
:100D28000EF08B92040E4A6E0C0E496E340EE82EAD
:100D3800FED7492EFCD74A2EFAD7A6EF06F08B929B
:100D480096EF06F0898491EF07F004004CEC0DF063
:100D580009EC0EF01BC03EF01CC03FF098EC0EF002
:100D680043EC0FF0040E4A6E8E0E496E120EE82EFA
:100D7800FED7492EFCD74A2EFAD700D01E0E526E47
:100D8800000E536E000E546E000E556EE7EC0EF01A
:100D98003EC013F03FC014F0525053105410551079
:100DA800D8A4D9EF06F0DBEF06F0E0EF06F0310E3D
:100DB8006DEC0AF048EC0FF013501410D8A4E7EFCC
:100DC80006F0E9EF06F0CAEF06F04E0E496EEB0E9C
:100DD800E82EFED7492EFCD700F01E0E526E000EEC
:100DE800536E000E546E000E556EE7EC0EF03EC0CA
:100DF80013F03FC014F05250531054105510D8A49B
:100E080008EF07F00AEF07F00FEF07F0320E6DEC6E
:100E18000AF048EC0FF013041410D8A416EF07F0EA
:100E280018EF07F0F9EF06F01E0E526E000E536E23
:100E3800000E546E000E556E1FC03EF020C03FF0ED
:100E480098EC0EF048EC0FF01906D8A01A0619C055
:100E580046F01AC047F032C048F001EC0CF03204FA
:100E6800D8A439EF07F03BEF07F059EF07F0195016
:100E78001A10D8B442EF07F044EF07F059EF07F023
:100E88008B8256C03EF057C03FF098EC0EF08B9224
:100E9800040E4A6E0C0E496E340EE82EFED7492E0B
:100EA800FCD74A2EFAD787EF07F03250D8A45FEF65
:100EB80007F061EF07F087EF07F019501A10D8B460
:100EC80068EF07F06AEF07F087EF07F08B92195089
:100ED8001A10D8B472EF07F074EF07F07CEF07F040
:100EE80056C03EF057C03FF098EC0EF087EF07F081
:100EF800060E4A6E130E496EAE0EE82EFED7492E28
:100F0800FCD74A2EFAD73504D8A48DEF07F08FEF17
:100F180007F091EF07F09AEF07F019501A10D8A4CC
:100F280098EF07F09AEF07F0A9EF06F089941950A7
:100F38001A10D8B4A2EF07F0A4EF07F0ACEF07F04F
:100F48003504D8A4AAEF07F0ACEF07F0C7EF07F015
:100F58003204D8A4B2EF07F0B4EF07F0C7EF07F0F8
:100F68008B8256C03EF057C03FF098EC0EF08B9243
:100F7800040E4A6E0C0E496E340EE82EFED7492E2A
:100F8800FCD74A2EFAD7000E1A6E000E196E000E04
:100F9800306E1200000E146E000E136E410EEDEC52
:100FA80009F03204D8A4DBEF07F0DDEF07F0F2EF29
:100FB80007F08B8256C03EF057C03FF098EC0EF019
:100FC8008B92040E486E0C0E476E340EE82EFED738
:100FD800472EFCD7482EFAD7F5EF07F08B92E5EFAE
:100FE80007F08984A5EF08F004004CEC0DF009EC3B
:100FF8000EF01BC03EF01CC03FF098EC0EF043EC26
:101008000FF0040E486E8E0E476E120EE82EFED7B5
:10101800472EFCD7482EFAD700D01E0E526E000E6F
:10102800536E000E546E000E556EE7EC0EF03EC087
:1010380013F03FC014F05250531054105510D8A458
:1010480028EF08F02AEF08F02FEF08F0310E6DECCA
:101058000AF048EC0FF013501410D8A436EF08F03B
:1010680038EF08F019EF08F04E0E476EEB0EE82E39
:10107800FED7472EFCD700F01E0E526E000E536EA0
:10108800000E546E000E556EE7EC0EF03EC013F0E5
:101098003FC014F05250531054105510D8A457EFB5
:1010A80008F059EF08F05EEF08F0320E6DEC0AF028
:1010B80048EC0FF013041410D8A465EF08F067EF9C
:1010C80008F048EF08F01E0E526E000E536E000E28
:1010D800546E000E556E1FC03EF020C03FF098ECD5
:1010E8000EF048EC0FF03204D8A47DEF08F07FEF43
:1010F80008F094EF08F08B8256C03EF057C03FF0DE
:1011080098EC0EF08B92040E486E0C0E476E340E5F
:10111800E82EFED7472EFCD7482EFAD79BEF08F0CB
:101128008B9256C03EF057C03FF098EC0EF0350455
:10113800D8A4A1EF08F0A3EF08F0A5EF08F0ADEFF1
:1011480008F03550D8B4ABEF08F0ADEF08F0F8EF81
:1011580007F0899419501A10D8B4B5EF08F0B7EF12
:1011680008F0BFEF08F03504D8A4BDEF08F0BFEFD2
:1011780008F0DAEF08F03204D8A4C5EF08F0C7EF9A
:1011880008F0DAEF08F08B8256C03EF057C03FF007
:1011980098EC0EF08B92040E486E0C0E476E340ECF
:1011A800E82EFED7472EFCD7482EFAD7000E1A6E27
:1011B800000E196E020E306E1200000E476E45BE0C
:1011C800EAEF08F0E8EF08F0F4EF08F0451E441ED7
:1011D800431E426C000E432244224522010E476EF4
:1011E80041BEFBEF08F0F9EF08F005EF09F0411EEA
:1011F800401E3F1E3E6C000E3F2240224122010E3F
:10120800471A000E486E000E496E000E4A6E000E18
:101218004B6E4250431044104510D8B416EF09F0F5
:1012280018EF09F04EEF09F0010E466E22EF09F0B3
:10123800D8904236433644364536462A45AE27EFDF
:1012480009F029EF09F01CEF09F0D8904836493623
:101258004A364B3642503E5C43503F584450405803
:1012680045504158D8A03BEF09F03DEF09F046EF53
:1012780009F042503E5E43503F5A4450405A455050
:10128800415A4880D8904532443243324232462E41
:1012980029EF09F04750D8B454EF09F056EF09F098
:1012A8005EEF09F04B1E4A1E491E486C000E49228B
:1012B8004A224B2248C03EF049C03FF04AC040F0A5
:1012C8004BC041F01200898443EC0FF0040E486EC5
:1012D8008E0E476E120EE82EFED7472EFCD7482EEC
:1012E800FAD700D01E0E526E000E536E000E546ECA
:1012F800000E556EE7EC0EF03EC013F03FC014F040
:101308005250531054105510D8A48DEF09F08FEF98
:1013180009F094EF09F0310E6DEC0AF048EC0FF08B
:1013280013501410D8A49BEF09F09DEF09F07EEF3D
:1013380009F04E0E476EEB0EE82EFED7472EFCD76F
:1013480000F01E0E526E000E536E000E546E000E0C
:10135800556EE7EC0EF03EC013F03FC014F052504B
:10136800531054105510D8A4BCEF09F0BEEF09F083
:10137800C3EF09F0320E6DEC0AF048EC0FF01304DD
:101388001410D8A4CAEF09F0CCEF09F0ADEF09F0BA
:101398001E0E526E000E536E000E546E000E556EE9
:1013A8001FC03EF020C03FF098EC0EF048EC0FF064
:1013B800060E486E130E476EAE0EE82EFED7472E69
:1013C800FCD7482EFAD7000E146E000E136E8994BF
:1013D8001200466E8B98000E9EEC0CF08B888B9852
:1013E800000E9EEC0CF039EF0AF0790E9EEC0CF032
:1013F8003F0E9EEC0CF066EF0AF03F0E9EEC0CF0F0
:10140800730E9EEC0CF066EF0AF0390E9EEC0CF0B1
:10141800770E9EEC0CF066EF0AF0000E9EEC0CF0D6
:10142800000E9EEC0CF066EF0AF0000E9EEC0CF03D
:101438003F0E9EEC0CF066EF0AF0790E9EEC0CF075
:10144800060E9EEC0CF066EF0AF0770E9EEC0CF0A0
:101458003E0E9EEC0CF066EF0AF0000E9EEC0CF0CF
:101468003E0E9EEC0CF066EF0AF04650446E456A5C
:101478004550000AD8B443EF0AF066EF0AF044502A
:10148800410AD8B429EF0AF0020AD8B409EF0AF0E1
:10149800060AD8B4F9EF09F0020AD8B419EF0AF02D
:1014A800080AD8B401EF0AF01C0AD8B421EF0AF0F0
:1014B800050AD8B431EF0AF00E0AD8B411EF0AF0D1
:1014C80066EF0AF08B888B980D0E9EEC0CF08B88DB
:1014D8001200466E8B98000E9EEC0CF08B888B9851
:1014E800000E9EEC0CF0B1EF0AF0790E9EEC0CF0B9
:1014F800770E9EEC0CF0DAEF0AF0790E9EEC0CF009
:101508003F0E9EEC0CF0DAEF0AF0790E9EEC0CF030
:10151800060E9EEC0CF0DAEF0AF0790E9EEC0CF059
:101528005B0E9EEC0CF0DAEF0AF0000E9EEC0CF06D
:101538003F0E9EEC0CF0DAEF0AF0790E9EEC0CF000
:10154800060E9EEC0CF0DAEF0AF0770E9EEC0CF02B
:101558003E0E9EEC0CF0DAEF0AF04650446E456AF7
:101568004550000AD8B4BBEF0AF0DAEF0AF044504D
:10157800300AD8B481EF0AF0010AD8B489EF0AF02A
:10158800030AD8B491EF0AF0730AD8B4A9EF0AF0A5
:10159800040AD8B479EF0AF0020AD8B499EF0AF02D
:1015A800140AD8B4A1EF0AF0DAEF0AF08B888B9806
:1015B8000D0E9EEC0CF08B8812000FEF0BF03F0E17
:1015C800426E45EF0BF0060E426E45EF0BF05B0ED8
:1015D800426E45EF0BF04F0E426E45EF0BF0660E74
:1015E800426E45EF0BF06D0E426E45EF0BF07D0E2F
:1015F800426E45EF0BF0070E426E45EF0BF07F0E83
:10160800426E45EF0BF06F0E426E45EF0BF0000E89
:10161800426E45EF0BF03EC040F03FC041F04150F4
:10162800000AD8B41AEF0BF00BEF0BF04050000A89
:10163800D8B4E3EF0AF0010AD8B4E7EF0AF0030AD6
:10164800D8B4EBEF0AF0010AD8B4EFEF0AF0070AB2
:10165800D8B4F3EF0AF0010AD8B4F7EF0AF0030A96
:10166800D8B4FBEF0AF0010AD8B4FFEF0AF00F0A6A
:10167800D8B403EF0BF0010AD8B407EF0BF00BEF67
:101688000BF042501200000E436E41BE50EF0BF0BB
:101698004EEF0BF056EF0BF0406C411ED8B0412ACC
:1016A800010E436E3FBE5DEF0BF05BEF0BF063EF97
:1016B8000BF03E6C3F1ED8B03F2A010E431A000EB5
:1016C800456E000E446E40504110D8B46EEF0BF0DA
:1016D80070EF0BF098EF0BF0010E426E78EF0BF005
:1016E800D89040364136422A41AE7DEF0BF07FEF6D
:1016F8000BF074EF0BF0D8904436453640503E5C02
:1017080041503F58D8A08BEF0BF08DEF0BF092EFC4
:101718000BF040503E5E41503F5A4480D8904132D1
:101728004032422E7FEF0BF04350D8B49EEF0BF0BF
:10173800A0EF0BF0A4EF0BF0446C451ED8B0452A7F
:1017480044C03EF045C03FF01200000E436E3FBE5D
:10175800B2EF0BF0B0EF0BF0B8EF0BF03E6C3F1EA2
:10176800D8B03F2A010E436E41BEBFEF0BF0BDEF6C
:101778000BF0C3EF0BF0406C411ED8B0412A40502B
:101788004110D8B4CAEF0BF0CCEF0BF0F0EF0BF030
:10179800010E426ED4EF0BF0D89040364136422A03
:1017A80041AED9EF0BF0DBEF0BF0D0EF0BF0405070
:1017B8003E5C41503F58D8A0E4EF0BF0E6EF0BF049
:1017C800EAEF0BF040503E5E41503F5AD89041320C
:1017D8004032422EDBEF0BF04350D8B4F6EF0BF05B
:1017E800F8EF0BF0FCEF0BF03E6C3F1ED8B03F2A31
:1017F8003EC03EF03FC03FF0120046C03EF047C03A
:101808003FF0000E416E0A0E406EA9EC0BF03EC090
:1018180080F03FC081F046C03EF047C03FF0000E68
:10182800416E0A0E406E47EC0BF03EC082F03FC09E
:1018380083F08B98000E9EEC0CF08B888B98000E32
:101848009EEC0CF082C03EF083C03FF0E1EC0AF061
:101858000001856F80C03EF081C03FF0E1EC0AF0E6
:101868000001846F4850D8B43CEF0CF03EEF0CF008
:101878004AEF0CF04828D8A444EF0CF046EF0CF0DF
:1018880049EF0CF0858F4AEF0CF0848F85519EEC60
:101898000CF0000184519EEC0CF08B888B980D0E97
:1018A8009EEC0CF08B881200466E8B888B98300E5D
:1018B8009EEC0CF08B888B98300E9EEC0CF046C09A
:1018C80044F0443A0F0E4416050E456ED89044363F
:1018D800452E6AEF0CF0445005099EEC0CF08B88FD
:1018E8008B98110E9EEC0CF08B888B98110E9EEC49
:1018F8000CF046509EEC0CF046509EEC0CF0465016
:101908009EEC0CF08B888B98180E9EEC0CF08B8854
:101918008B98180E9EEC0CF046509EEC0CF046503E
:101928009EEC0CF046509EEC0CF046509EEC0CF0F1
:101938008B881200406E000E426E8B9642C03EF0BD
:10194800010E3F6E3E2AABEF0CF0D8903F363E2E8C
:10195800A9EF0CF03F504014416E4150D8B4B7EF96
:101968000CF0B9EF0CF0BCEF0CF08B8ABDEF0CF06B
:101978008B9A000E436E432A040E4364C6EF0CF0A4
:10198800C8EF0CF0BFEF0CF08B86000E436E432AB5
:10199800040E4364D2EF0CF0D4EF0CF0CBEF0CF054
:1019A800422A070E4264DBEF0CF0DDEF0CF0A1EFEA
:1019B8000CF01200FB0E926E9368840E946EC00EAB
:1019C800956E000E966E000E976E050E986EC29E6E
:1019D800C29CC290C18EC19CC19AC188C196C18463
:1019E800C192C190C088C190C182C184C186C1889A
:1019F800C18EC098F28E030ED312700ED312000E51
:101A0800C46E000EC36EC294C296C298C29AC18CAC
:101A1800C280C282C2B213EF0DF015EF0DF00EEFC7
:101A28000DF0C19C120055EC0FF0000E3F6EA00E99
:101A380026EC0FF080C03EF081C03FF082C040F03D
:101A480083C041F0000E426E010E436E000E446EDC
:101A5800000E456EE1EC08F03E5037EC0FF0000147
:101A6800805137EC0FF04DEC0FF0010E3F6EA00ED9
:101A780026EC0FF0000E62EC0EF03FC04CF040C0B8
:101A88004DF051EC0FF04CC080F04DC081F01200C9
:101A9800A50E0001606F450E616F000E626F450E66
:101AA800636F5A0E646FF29E000E416E000E406E18
:101AB800600E4024D96E000E4120DA6EDF5010EC23
:101AC8000FF0404A412A41BE73EF0DF0415009E141
:101AD800050E405CD8A073EF0DF075EF0DF05CEFCC
:101AE8000DF0F28E45EC0EF01200446E8B98000E4D
:101AF8009EEC0CF08B888B98000E9EEC0CF0440446
:101B0800D8A489EF0DF08BEF0DF093EF0DF0000ED8
:101B18009EEC0CF0BE0E9EEC0CF099EF0DF0000E52
:101B28009EEC0CF03E0E9EEC0CF08B888B980D0E04
:101B38009EEC0CF08B88120055EC0FF0000E3F6EF7
:101B4800A00E26EC0FF080C03EF081C03FF082C0AE
:101B580040F083C041F0000E426E010E436E000E4D
:101B6800446E000E456EE1EC08F03E5037EC0FF085
:101B78000001805137EC0FF00001845137EC0FF071
:101B880051EC0FF012007A0EF66E1E0EF76E000E74
:101B9800F86E00EE4EF010EE0BF00900F5CFEEFFF8
:101BA800E550E150FAE100EE60F0200EEE6AE8063A
:101BB800FDE100EE01F0370EEE6AE806FDE159900E
:101BC8005992000EF86E00014FEF01F03250D8B470
:101BD800F0EF0DF0F2EF0DF0F6EF0DF0000E326EB3
:101BE800F8EF0DF0010E326EF29E100E0001806FBC
:101BF800000E816F000E826F000E836F32C084F07A
:101C0800856BA0EC0DF0F28E1200C294C296C298B9
:101C1800C29AC280000E3F6E050E3E6E98EC0EF022
:101C2800C282C2B21AEF0EF01CEF0EF015EF0EF0E2
:101C3800C350C4CF41F0426A41C042F0416A4110EA
:101C4800116E4250126E1200000E3F6E000E3E6E74
:101C5800010E3E24D96E000E3F20DA6E000EDF6EB4
:101C68003E4A3F2A3FBE42EF0EF03F5009E1100EB8
:101C78003E5CD8A042EF0EF044EF0EF02CEF0EF0D1
:101C88001200000E3F6E000E3E6E600E3E24D96EAE
:101C9800000E3F20DA6E000EDF6E3E4A3F2A3FBE3E
:101CA8005FEF0EF03F5009E1100E3E5CD8A05FEFE9
:101CB8000EF061EF0EF049EF0EF01200416EC1EC2C
:101CC8000EF06B86C1EC0EF06FCF42F0C1EC0EF057
:101CD8004150D8B472EF0EF074EF0EF077EF0EF0BB
:101CE8006B9A78EF0EF06B8A6B8842C03FF0406ABF
:101CF8001200670E115C030E1258D8B086EF0EF072
:101D080088EF0EF08BEF0EF08C8297EF0EF0C00E7E
:101D1800115C030E1258D8A094EF0EF096EF0EF057
:101D280097EF0EF08C921200A4EF0EF0030E406EA7
:101D3800980EE82EFED7402EFCD73E06D8A03F06C8
:101D48003E503F10D8A4ABEF0EF0ADEF0EF09AEF77
:101D58000EF01200949C948EAD98AD9CAD8AAC9C0C
:101D6800AC88AD9EAC86AC8E7E96AD849D8A9D98DF
:101D7800190EB06E000E7F6E12006BCF3EF01F0E74
:101D88003E16D8A4CAEF0EF0CCEF0EF0C1EF0EF05D
:101D98006DB4D1EF0EF0D3EF0EF0C1EF0EF01200DC
:101DA800ACA2D9EF0EF0DBEF0EF0E3EF0EF0AC983B
:101DB800AFCF38F0AFCF38F0AC88E5EF0EF0AFCF4B
:101DC80038F03850120080A2ECEF0EF0EEEF0EF073
:101DD800F4EF0EF0000E3F6E000E3E6EF8EF0EF0C0
:101DE800000E3F6E010E3E6E1200310ECD6E9E0E3D
:101DF800CF6E570ECE6E9E909D809F80000E2B6EEC
:101E08001200958A958C280E6C6E000E6B6E270E4C
:101E18006E6EC00E6D6E12003E6E3EC0AEFFADA27D
:101E280018EF0FF01AEF0FF013EF0FF01200386EE3
:101E380038C0AEFFADA223EF0FF025EF0FF01EEF75
:101E48000FF01200406E40C041F03F504126C1ECF7
:101E58000EF041C06FFF1200C70E776E7996798C2D
:101E6800000E766E12003F6EC1EC0EF03FC06FFFA1
:0D1E78001200140000001E000000D0073F03
:101E86008F868F8859EC0FF012005DEC0FF08F866D
:101E96008F881200C1EC0EF06B821200C1EC0EF0BE
:101EA6006B841200C1EC0EF06B801200080E736E8C
:0C1EB60076841200000E736E7694120009
:067FF800AEF703FBF8F1F7
:00000001FF
