:0400000057EF00F0C6
:100008005F8200019705D8A40CEF00F00EEF00F016
:1000180055EF00F0ECBF1BEF00F0EC51EB11EA11CB
:1000280008E1E905D8A01BEF00F01DEF00F027EF6D
:1000380000F0FF0EE927FF0EEA23FF0EEB23FF0E69
:10004800EC232FEF00F0000EE96F000EEA6F000EB0
:10005800EB6F000EEC6FE8BF3CEF00F0E851E711E2
:10006800E61108E1E505D8A03CEF00F03EEF00F00E
:1000780048EF00F0FF0EE527FF0EE623FF0EE7230B
:10008800FF0EE82352EF00F0140EE56F000EE66F46
:10009800000EE76F000EE86F21EC23F0000E000160
:0A00A800976F5F92110064EF22F0E1
:10100000004572726F723A20496E76616C69642095
:1010100055415254206E756D6265722E0A005365FB
:101020006E7420726573706F6E736520285541521F
:101030005431293A200052656365697665642064FD
:10104000617461202855415254003078253032585F
:0B105000000D0A002C200025640000A9
:10105C00F29E84EC20F0770EFEEC1FF01FEC24F0D7
:10106C000AEC24F0D5EC21F0FDEC23F0880E0F6E89
:10107C00130E106E000E116E000E126E2AEC21F083
:10108C00000E026E000E016E58EC23F0000E0001F3
:10109C00A76F010EA66FB5EC1FF0000E0001A76F35
:1010AC00020EA66FB5EC1FF0F28E87C0CFF088C091
:1010BC00D0F0E9C0D1F0EAC0D2F0EBC0D3F0ECC074
:1010CC00D4F000EC13F0D398D39AD39CD390D39252
:1010DC0094949388CA96CA98CA9ACA9CFC0ECA164B
:1010EC00040ECB6ECF0EBB16BB50F00B0C09BB6EB7
:1010FC00000EBC6ECA848B9289941E0E0001E96F9F
:10110C00000EEA6F000EEB6F000EEC6FD08E9F8A14
:10111C00F28EF28EC0908C808C82000E0A6E250EA0
:10112C00096EFF0E0B6E61EC1FF0060E0001E46FF2
:10113C00130EE36FAD0EE82EFED7E32FFCD7E42F92
:10114C00FAD700D0E5EC22F0F29EF28E8BC09DF027
:10115C00010E00019D65B5EF08F0B7EF08F0BBEF8D
:10116C0008F0010E9D6FF29EF28E000E826F010E42
:10117C00816F81C009F082C00AF09DC00BF061EC58
:10118C001FF0000E00017E6F010E7D6FF29E200E8F
:10119C000F6E000E106E000E116E000E126EF6EC3D
:1011AC0020F00FC08BF010C08CF0F28E00018B5130
:1011BC00856F866B865109E1310E855DD8A0E9EF0C
:1011CC0008F0EBEF08F0F6EF08F0865109E13B0E62
:1011DC00855DD8A0F4EF08F0F6EF08F0FCEF08F00E
:1011EC00000E866F310E856FF29EF28EF29E600EAF
:1011FC000F6E000E106E000E116E000E126EF6ECDD
:10120C0020F00FC08BF010C08CF0F28E8BC09AF0D7
:10121C002F0E00019A6515EF09F017EF09F01FEF7B
:10122C0009F0350E9A651DEF09F01FEF09F04FEF2D
:10123C0009F0300E9A6F000E846F000E836FF29ED1
:10124C00F28E74EF09F0000E846F000E836F300E77
:10125C009A6F74EF09F0030E846FE80E836F74EFCE
:10126C0009F0070E846FD00E836F74EF09F00B0E2C
:10127C00846FB80E836F74EF09F00F0E846FA00E9D
:10128C00836F74EF09F0130E846F880E836F74EF05
:10129C0009F09A51E36FE46BE451000AD8B459EFAA
:1012AC0009F029EF09F0E351300AD8B429EF09F01D
:1012BC00010AD8B431EF09F0030AD8B437EF09F0BA
:1012CC00010AD8B43DEF09F0070AD8B443EF09F08E
:1012DC00010AD8B449EF09F029EF09F0F29E500E3B
:1012EC000F6E000E106E000E116E000E126EF6ECEC
:1012FC0020F00FC08BF010C08CF0F28E8BC098F0E9
:10130C00960E000198658DEF09F08FEF09F0A7EFAD
:10131C0009F0000E986FF29E500E0F6E000E106EBC
:10132C00000E116E000E126E98C013F0146AFAECD7
:10133C0021F0F28E000E0001886F000E876FAAEF6D
:10134C0009F098C087F0886BF29E400E0F6E000E6D
:10135C00106E000E116E000E126EF6EC20F00FC027
:10136C008BF010C08CF0F28E8BC099F0810E0001C6
:10137C009919D8B4C4EF09F0C6EF09F014EF0AF0CC
:10138C00820E9919D8B4CDEF09F0CFEF09F014EF14
:10139C000AF0830E9919D8B4D6EF09F0D8EF09F0FA
:1013AC0014EF0AF0840E9919D8B4DFEF09F0E1EFCD
:1013BC0009F014EF0AF0850E9919D8B4E8EF09F08A
:1013CC00EAEF09F014EF0AF0070EF06FD00EEF6F92
:1013DC00820E996FF29EF28E35EF0AF0030EF06FCB
:1013EC00E80EEF6F35EF0AF0070EF06FD00EEF6FCF
:1013FC00820E996F35EF0AF00B0EF06FB80EEF6F8F
:10140C0035EF0AF00F0EF06FA00EEF6F35EF0AF00C
:10141C00130EF06F880EEF6F35EF0AF09951E36FF2
:10142C00E46BE451000AD8B41EEF0AF0FAEF09F0AD
:10143C00E351810AD8B4F4EF09F0030AD8B4FAEFF7
:10144C0009F0010AD8B402EF0AF0070AD8B408EF81
:10145C000AF0010AD8B40EEF0AF0FAEF09F03F0EC9
:10146C00F16FF29E300E0F6E000E106E000E116EAC
:10147C00000E126EF6EC20F00FC08BF010C08CF04A
:10148C00F28E8BC0F1F00001F151D8B450EF0AF09C
:10149C0052EF0AF068EF0AF03F0EF119D8B459EF89
:1014AC000AF05BEF0AF068EF0AF07F0EF119D8B47E
:1014BC0062EF0AF064EF0AF068EF0AF03F0EF16F8A
:1014CC00F29EF28E1E0EE96F000EEA6F000EEB6FAD
:1014DC00000EEC6F0EEC1BF08C92F29E700E0F6EE9
:1014EC00000E106E000E116E000E126EF6EC20F057
:1014FC000FC08BF010C08CF0F28E00018B51756F09
:10150C00766B75517611D8B48EEF0AF090EF0AF025
:10151C00D7EF0AF075057611D8B497EF0AF099EF6A
:10152C000AF0D7EF0AF0020E75197611D8B4A1EFB4
:10153C000AF0A3EF0AF0D7EF0AF0030E7519761133
:10154C00D8B4ABEF0AF0ADEF0AF0D7EF0AF0040E07
:10155C0075197611D8B4B5EF0AF0B7EF0AF0D7EFDA
:10156C000AF0000E766F000E756FF29E700E0F6E05
:10157C00000E106E000E116E000E126E75C013F080
:10158C0076C014F0FAEC21F0F28EF9EF0AF0F9EFD4
:10159C000AF0F9EF0AF0F9EF0AF0F9EF0AF0F9EFB7
:1015AC000AF075C0E3F076C0E4F0E451000AD8B458
:1015BC00E2EF0AF0CDEF0AF0E351000AD8B4CDEF18
:1015CC000AF0010AD8B4CFEF0AF0030AD8B4D1EF6D
:1015DC000AF0010AD8B4D3EF0AF0070AD8B4D5EF51
:1015EC000AF0CDEF0AF057EF00F04450800B4D6E2F
:1015FC00445044244F6E43AE06EF0BF008EF0BF053
:10160C0009EF0BF04F804F50D8B40FEF0BF011EFE8
:10161C000BF026EF0BF04F28D8A417EF0BF019EFB7
:10162C000BF021EF0BF0000E416E000E426E000E1F
:10163C00436E000E446E438E000E446E2EEF0BF084
:10164C00000E416E000E426E000E436E000E446E94
:10165C004850800B4E6E4D504E18D8B438EF0BF0EE
:10166C003AEF0BF03BEF0BF04D8C485048244E6E8C
:10167C0047AE43EF0BF045EF0BF046EF0BF04E800F
:10168C004E50D8B44CEF0BF04EEF0BF063EF0BF069
:10169C004E28D8A454EF0BF056EF0BF05EEF0BF086
:1016AC00000E456E000E466E000E476E000E486E24
:1016BC00478E000E486E6BEF0BF0000E456E000E61
:1016CC00466E000E476E000E486E4F504E5CD8B002
:1016DC0072EF0BF074EF0BF09BEF0BF04DAC79EF5E
:1016EC000BF07BEF0BF07DEF0BF0800E4D1A4FC023
:1016FC0050F04EC04FF050C04EF041C050F045C0BD
:10170C0041F050C045F042C050F046C042F050C0CD
:10171C0046F043C050F047C043F050C047F044C0BF
:10172C0050F048C044F050C048F0000E506E4F507E
:10173C004EC049F04A6A495E000E4A5A4ABEB0EFA2
:10174C000BF04A5009E11A0E495CD8A0B0EF0BF02F
:10175C00B2EF0BF0E9EF0BF0415042104310441084
:10176C00D8A4BBEF0BF0BEEF0BF0010EBFEF0BF0EC
:10177C00000E506E000E416E000E426E000E436E57
:10178C00000E446E4EC04FF0F2EF0BF050A0D1EFB4
:10179C000BF0D3EF0BF0D9EF0BF0D89050300109D0
:1017AC00506EDBEF0BF0D890503241A0E0EF0BF015
:1017BC00E2EF0BF0E3EF0BF0508E44344432433243
:1017CC00423241324F2A4E504F5CD8A0F0EF0BF012
:1017DC00F2EF0BF0CCEF0BF04DBCF7EF0BF0F9EF99
:1017EC000BF039EF0CF04F50D8A4FFEF0BF001EFDA
:1017FC000CF00BEF0CF0000E416E000E426E000E62
:10180C00436E000E446E5AEF0DF045504126465083
:10181C004222475043224850442244A018EF0CF077
:10182C001AEF0CF0C6EF0CF050A01FEF0CF021EFEC
:10183C000CF027EF0CF0D89050300109506E29EFC6
:10184C000CF0D890503241A02EEF0CF030EF0CF091
:10185C0031EF0CF0508E4434443243324232413238
:10186C004F2AC6EF0CF04550415C46504258475049
:10187C0043584450800A496E4850800A4958D8B0A1
:10188C004AEF0CF04CEF0CF077EF0CF04150455C4C
:10189C00496E425046584A6E435047584B6E44501E
:1018AC0048584C6EFF0E4924416EFF0E4A20426E82
:1018BC00FF0E4B20436EFF0E4C20446E800E4D1AD3
:1018CC00506C5050D8A46DEF0CF06FEF0CF07FEF14
:1018DC000CF0010E4126000E4222432244227FEFDF
:1018EC000CF04550415E4650425A4750435A4850BE
:1018FC00445A4150421043104410D8A488EF0CF0C5
:10190C008AEF0CF0BFEF0CF05050D8A490EF0CF015
:10191C0092EF0CF0BFEF0CF0000E416E000E426E19
:10192C00000E436E000E446E5AEF0DF0D890413607
:10193C0042364336443650AEA6EF0CF0A8EF0CF00E
:10194C00A9EF0CF0418050A0AEEF0CF0B0EF0CF012
:10195C00B4EF0CF0D8805036B6EF0CF0D89050366F
:10196C004F50D8B4BCEF0CF0BEEF0CF0BFEF0CF046
:10197C004F0643AEC4EF0CF0C6EF0CF09CEF0CF02E
:10198C00000E4E6E50AECDEF0CF0CFEF0CF0E7EF3B
:10199C000CF050C049F07F0E4916D8B4D8EF0CF0BB
:1019AC00DAEF0CF0DEEF0CF0010E4E6EE7EF0CF000
:1019BC0041A0E3EF0CF0E5EF0CF0E7EF0CF0DAEF01
:1019CC000CF04E50D8B4EDEF0CF0EFEF0CF01AEF2A
:1019DC000DF0010E4126000E42224322442244A067
:1019EC00FAEF0CF0FCEF0CF01AEF0DF041C049F0DF
:1019FC0042C04AF043C04BF044C04CF04C344C3223
:101A0C004B324A32493249C041F04AC042F04BC0D5
:101A1C0043F04CC044F04F28D8B417EF0DF019EF39
:101A2C000DF01AEF0DF04F2A4F28D8B420EF0DF01F
:101A3C0022EF0DF02AEF0DF04F50D8A428EF0DF047
:101A4C002AEF0DF03CEF0DF0000E416E000E426ED1
:101A5C00000E436E000E446E4F50D8A438EF0DF0BC
:101A6C003AEF0DF03CEF0DF0000E4D6E4FA041EF34
:101A7C000DF043EF0DF046EF0DF0438E47EF0DF0F8
:101A8C00439ED8904F30446E4DAE4FEF0DF051EF5A
:101A9C000DF052EF0DF0448E41C041F042C042F0C7
:101AAC0043C043F044C044F012002B50800B346E02
:101ABC002B502B243A6E2AAE66EF0DF068EF0DF02A
:101ACC0069EF0DF03A803A50D8B46FEF0DF071EF2A
:101ADC000DF084EF0DF03A28D8A477EF0DF079EFE4
:101AEC000DF081EF0DF0000E286E000E296E000E29
:101AFC002A6E000E2B6E2A8E8CEF0DF0000E286EC7
:101B0C00000E296E000E2A6E000E2B6E2F50800BCD
:101B1C00341A2F502F24396E2EAE97EF0DF099EF0B
:101B2C000DF09AEF0DF039803950D8B4A0EF0DF0CC
:101B3C00A2EF0DF0B5EF0DF03928D8A4A8EF0DF0F9
:101B4C00AAEF0DF0B2EF0DF0000E2C6E000E2D6E04
:101B5C00000E2E6E000E2F6E2E8EBDEF0DF0000EB1
:101B6C002C6E000E2D6E000E2E6E000E2F6E395048
:101B7C00D8B4C3EF0DF0C5EF0DF0CDEF0DF03A502A
:101B8C00D8A4CBEF0DF0CDEF0DF0D7EF0DF0000E8C
:101B9C00286E000E296E000E2A6E000E2B6E6FEF53
:101BAC000FF02E502802F3CF3FF0F4CF40F03F500F
:101BBC00356E366A376A386A40503B6E3C6A3D6A0D
:101BCC003E6A2D502902F3CF3FF0F4CF40F03F5046
:101BDC003526000E36223722382240503B26000E86
:101BEC003C223D223E222C502A02F3CF3FF0F4CF70
:101BFC0040F03F503526000E362237223822405016
:101C0C003B26000E3C223D223E2237C038F036C027
:101C1C0037F035C036F0356A2C502902F3CF3FF03F
:101C2C00F4CF40F03F50352640503622000E37227C
:101C3C00000E38222D502802F3CF3FF0F4CF40F0A5
:101C4C003F50352640503622000E3722000E3822E7
:101C5C0037C038F036C037F035C036F0356A2C5006
:101C6C002802F3CF3FF0F4CF40F03F5035264050E0
:101C7C003622000E3722000E38222E502902F3CFC6
:101C8C003FF0F4CF40F03F503B2640503C22000E3A
:101C9C003D22000E3E222D502A02F3CF3FF0F4CF0E
:101CAC0040F03F503B2640503C22000E3D22000E9F
:101CBC003E222E502A02F3CF3FF0F4CF40F03F509B
:101CCC00306E4050316E326A336A32C033F031C0FC
:101CDC0032F030C031F0306A30503B2631503C226B
:101CEC0032503D2233503E2235C030F036C031F0F8
:101CFC0037C032F038C033F0190E8AEF0EF0D8909E
:101D0C003332323231323032E82E85EF0EF0305031
:101D1C003B2631503C2232503D2233503E2237C0BC
:101D2C0038F036C037F035C036F0356A39503AC025
:101D3C0030F0316A3026000E3122820E30243F6E94
:101D4C00FF0E3120406EC0EF0EF0D8903B363C3683
:101D5C003D363E3638AEB5EF0EF0B7EF0EF0B8EFBD
:101D6C000EF03B80D89035363636373638363F064F
:101D7C00D8A040063DAEC5EF0EF0C7EF0EF0ABEFAE
:101D8C000EF0000E396E38AECEEF0EF0D0EF0EF036
:101D9C00F4EF0EF0FF0E3514306EFF0E3614316E6C
:101DAC00FF0E3714326E7F0E3814336E30503110F4
:101DBC0032103310D8B4E5EF0EF0E7EF0EF0EBEF86
:101DCC000EF0010E396EF4EF0EF03BA0F0EF0EF0BA
:101DDC00F2EF0EF0F4EF0EF0E7EF0EF03950D8B44E
:101DEC00FAEF0EF0FCEF0EF020EF0FF0010E3B2699
:101DFC00000E3C223D223E223EA007EF0FF009EFE1
:101E0C000FF020EF0FF03BC030F03CC031F03DC084
:101E1C0032F03EC033F0333433323232313230327E
:101E2C0030C03BF031C03CF032C03DF033C03EF02E
:101E3C003F4A402A40BE2BEF0FF0405008E13F28AC
:101E4C00D8A02BEF0FF02DEF0FF037EF0FF0000EA7
:101E5C003B6E000E3C6E800E3D6E7F0E3E6E65EF4F
:101E6C000FF040BE44EF0FF0405006E13F04D8B0F5
:101E7C0042EF0FF044EF0FF050EF0FF0000E3B6EFF
:101E8C00000E3C6E000E3D6E000E3E6E000E346E6B
:101E9C0065EF0FF03FC03AF0FF0E3B16FF0E3C16FD
:101EAC007F0E3D16000E3E163AA05FEF0FF061EF6D
:101EBC000FF062EF0FF03D8ED8903A303E6E3450FA
:101ECC003E123BC028F03CC029F03DC02AF03EC079
:101EDC002BF012001250800B1F6E12501224266E23
:101EEC0011AE7BEF0FF07DEF0FF07EEF0FF0268041
:101EFC002650D8B484EF0FF086EF0FF09BEF0FF065
:101F0C002628D8A48CEF0FF08EEF0FF096EF0FF081
:101F1C00000E0F6E000E106E000E116E000E126E83
:101F2C00118E000E126EA3EF0FF0000E0F6E000E4E
:101F3C00106E000E116E000E126E1650800B1F1AD2
:101F4C0016501624276E15AEAEEF0FF0B0EF0FF053
:101F5C00B1EF0FF027802750D8B4B7EF0FF0B9EFDF
:101F6C000FF0CEEF0FF02728D8A4BFEF0FF0C1EF82
:101F7C000FF0C9EF0FF0000E136E000E146E000E72
:101F8C00156E000E166E158E000E166ED6EF0FF037
:101F9C00000E136E000E146E000E156E000E166EF3
:101FAC001350141015101610D8A4DFEF0FF0E1EF3A
:101FBC000FF0F9EF0FF0000E0F6E000E106E000E0A
:101FCC00116E000E126E800E11127F0E12121F5027
:101FDC0012120FC00FF010C010F011C011F012C08F
:101FEC0012F03CEF11F02650D8A4FFEF0FF001EFE8
:101FFC0010F00BEF10F0000E0F6E000E106E000EB6
:10200C00116E000E126E3CEF11F0275026C017F027
:10201C00186A175E000E185A7F0E1724206E000ED9
:10202C001820216E0FC01BF010C01CF011C01DF049
:10203C0012C01EF0000E0F6E000E106E000E116E10
:10204C00000E126E000E226E000E236E000E246E19
:10205C00000E256E000E276E6CEF10F02750D8B4D2
:10206C003AEF10F03CEF10F053EF10F0D8901B3615
:10207C001C361D361E36D8900F36103611361236D9
:10208C0025AE4BEF10F04DEF10F04EEF10F00F802F
:10209C00D890223623362436253613501B5C145028
:1020AC001C5815501D5816501E58D8A060EF10F033
:1020BC0062EF10F06BEF10F0258C13501B5E145078
:1020CC001C5A15501D5A16501E5A272A190E2764D1
:1020DC0072EF10F074EF10F034EF10F01B501C1076
:1020EC001D101E10D8B47DEF10F07FEF10F097EF9D
:1020FC0010F0228097EF10F0D8900F361036113672
:10210C00123625AE8CEF10F08EEF10F08FEF10F032
:10211C000F80D89022362336243625362006D8A0B8
:10212C00210611AE9CEF10F09EEF10F082EF10F034
:10213C00000E276E25AEA5EF10F0A7EF10F0CBEF39
:10214C0010F0FF0E2214176EFF0E2314186EFF0EE4
:10215C002414196E7F0E25141A6E175018101910AE
:10216C001A10D8B4BCEF10F0BEEF10F0C2EF10F0A4
:10217C00010E276ECBEF10F00FA0C7EF10F0C9EFD8
:10218C0010F0CBEF10F0BEEF10F02750D8B4D1EF19
:10219C0010F0D3EF10F0F7EF10F0010E0F26000E39
:1021AC0010221122122212A0DEEF10F0E0EF10F03C
:1021BC00F7EF10F00FC017F010C018F011C019F0A5
:1021CC0012C01AF01A341A3219321832173217C0D8
:1021DC000FF018C010F019C011F01AC012F0204AFC
:1021EC00212A21BE02EF11F0215008E12028D8A0AD
:1021FC0002EF11F004EF11F00FEF11F0000E216E51
:10220C002068000E0F6E000E106E000E116E000E88
:10221C00126E21BE1CEF11F0215006E12004D8B043
:10222C001AEF11F01CEF11F02AEF11F0000E216ED5
:10223C00000E206E000E0F6E000E106E000E116E52
:10224C00000E126E000E1F6E20C026F026A031EF7D
:10225C0011F033EF11F036EF11F0118E37EF11F062
:10226C00119ED8902630126EEDEF0FF0120041C087
:10227C00D9FF42C0DAFFDECFF6FFDDCFF7FFF86AF9
:10228C000800F550250AD8A44EEF11F050EF11F0CC
:10229C00EAEF12F041C0D9FF42C0DAFFDE2A000E8D
:1022AC00DD22000E0001666F000E656F65C095F0B3
:1022BC0067696869000E4A6E000E496E92EF11F064
:1022CC000001958341C0D9FF42C0DAFFDE2A000E1F
:1022DC00DD2292EF11F0000E4A6E010E496E92EF64
:1022EC0011F041C0D9FF42C0DAFFDECFF6FFDDCFDF
:1022FC00F7FFF86A0800F550456E466A4650000A2A
:10230C00D8B48BEF11F071EF11F04550300AD8B4FE
:10231C0066EF11F071EF11F049504A10D8B499EFF3
:10232C0011F09BEF11F077EF11F041C0D9FF42C0D3
:10233C00DAFFDECFF6FFDDCFF7FFF86A0800F550C5
:10234C002A0AD8A4ACEF11F0AEEF11F0D8EF11F0CF
:10235C0041C0D9FF42C0DAFFDE2A000EDD2243C0A5
:10236C00D9FF44C0DAFFDFCF45F0020EDE26DFCF07
:10237C0046F0000EDD2245C0D9FF46C0DAFFDECFA5
:10238C0065F0DDCF66F0000166BFD1EF11F0CFEF45
:10239C0011F00CEF12F09581656D661FD8B0662BAD
:1023AC000CEF12F041C0D9FF42C0DAFFDECF07F0CC
:1023BC00DDCF08F03EEC19F007C065F008C066F000
:1023CC00EFEF11F041C0D9FF42C0DAFFDE2A000E58
:1023DC00DD2241C0D9FF42C0DAFFDECFF6FFDDCFF0
:1023EC00F7FFF86A0800F5CF45F0D00E4524466E8D
:1023FC00476AFF0E4722475009E10A0E465CD8A0F7
:10240C000AEF12F00CEF12F0E8EF11F041C0D9FF17
:10241C0042C0DAFFDECF53F0DDCF54F053C0F6FFED
:10242C0054C0F7FFF86A0800F550640AD8B421EFDD
:10243C0012F023EF12F032EF12F053C0F6FF54C03B
:10244C00F7FFF86A0800F550690AD8A430EF12F0CB
:10245C0032EF12F075EF12F043C0D9FF44C0DAFF2F
:10246C00DFCF45F0020EDE26DFCF46F0000EDD2278
:10247C0045C0D9FF46C0DAFFDECF4BF0DDCF4CF0C4
:10248C00000E4CBEFF0E4D6E4E6E4F6E506E516E6A
:10249C00526E010E5324456E000E5420466E41C000
:1024AC00D9FF42C0DAFF45C0DEFF46C0DDFF3FC0AA
:1024BC001CF040C01DF04BC01EF04CC01FF04DC0B6
:1024CC0020F04EC021F04FC022F050C023F051C07C
:1024DC0024F052C025F0AAEC14F0FFEF12F053C018
:1024EC00F6FF54C0F7FFF86A0800F550580AD8A454
:1024FC0082EF12F084EF12F0E1EF12F043C0D9FF3B
:10250C0044C0DAFFDFCF45F0020EDE26DFCF46F007
:10251C00000EDD2245C0D9FF46C0DAFFDECF47F002
:10252C00DDCF48F047C04BF048C04CF04D6A4E6AC6
:10253C004F6A506A516A526A010E5324456E000E5E
:10254C005420466E41C0D9FF42C0DAFF45C0DEFFC1
:10255C0046C0DDFFCAEF12F03FC01CF040C01DF0BA
:10256C004BC01EF04CC01FF04DC020F04EC021F0EF
:10257C004FC022F050C023F051C024F052C025F0BF
:10258C0006EC16F0FFEF12F053C0F6FF54C0F7FF45
:10259C00F86A0800F550456E466A4650000AD8B4F1
:1025AC00DAEF12F0E1EF12F04550580AD8B4B2EF5E
:1025BC0012F0E1EF12F041C0D9FF42C0DAFFDE2A7F
:1025CC00000EDD22FFEF12F041C0D9FF42C0DAFF4E
:1025DC00DECFF6FFDDCFF7FFF86A0800F550016E8D
:1025EC00026A3FC003F040C004F0EBEC1DF0E1EFD9
:1025FC0012F01200898403EF13F0020EADEC21F0FF
:10260C000001D86FA50ED819D8A40FEF13F011EF55
:10261C0013F003EF13F0000EE06F010EDF6FD80E16
:10262C00DF25D96E000EE021DA6E020EADEC21F042
:10263C00DF6E0001DF4BE02BE0BF2EEF13F0E0511B
:10264C0009E1050EDF5DD8A02EEF13F030EF13F08B
:10265C0015EF13F0D9C0DDF0DBC0D7F0DCC0DEF035
:10266C00A50ED819D8A43DEF13F03FEF13F003EFEC
:10267C0013F05A0EDE19D8A446EF13F048EF13F0FE
:10268C0003EF13F07CEF14F0600EC56F000EC66FF5
:10269C00000EC76F5A0EC86FA50EA5EC22F003EF03
:1026AC0013F08B82000EA56F030EA46F010E85EC48
:1026BC0022F0600E0001C56F1C0EC66F000EC76FB6
:1026CC005A0EC86FA50EA5EC22F003EF13F08B92F7
:1026DC00000EA56F000EA46F000E85EC22F0600EAC
:1026EC000001C56F2C0EC66F000EC76F5A0EC86F57
:1026FC00A50EA5EC22F003EF13F0898433EC24F043
:10270C00020E0001D66F860ED56F990EE82EFED7FD
:10271C00D52FFCD7D62FFAD71E0E0001D16F000E85
:10272C00D26F000ED36F000ED46FEBEC23F001C010
:10273C00E1F002C0E2F00001D151D211D311D41159
:10274C00D8A4ABEF13F0ADEF13F0AFEF13F038EC00
:10275C0024F00001E151E211D8A4B7EF13F0B9EF66
:10276C0013F09BEF13F04E0E0001D56FEB0EE82E1D
:10277C00FED7D52FFCD71E0E0001D16F000ED26FE5
:10278C00000ED36F000ED46FEBEC23F001C0E1F020
:10279C0002C0E2F00001D151D211D311D411D8A44E
:1027AC00DAEF13F0DCEF13F0DEEF13F038EC24F07B
:1027BC000001E105E211D8A4E6EF13F0E8EF13F005
:1027CC00CAEF13F01E0ED16F000ED26F000ED36F36
:1027DC00000ED46FCFC001F0D0C002F085EC23F016
:1027EC0038EC24F0600E0001C56F3C0EC66F000E75
:1027FC00C76F5A0EC86FA50EA5EC22F003EF13F0AD
:10280C0038EC24F0600E0001C56F3C0EC66F000E54
:10281C00C76F5A0EC86FA50EA5EC22F003EF13F08C
:10282C0038EC24F0600E0001C56F3C0EC66F000E34
:10283C00C76F5A0EC86FA50EA5EC22F003EF13F06C
:10284C00EBEC23F001C0E1F002C0E2F00001D15149
:10285C00D211D311D411D8A436EF14F038EF14F0F0
:10286C0045EF14F0600EC56FE10EC66F000EC76F1A
:10287C005A0EC86FA50EA5EC22F038EC24F000011E
:10288C00E151E211D8A44DEF14F04FEF14F026EF04
:10289C0014F003EF13F0EBEC23F001C0E1F002C0F5
:1028AC00E2F00001D151D211D311D411D8A461EFAF
:1028BC0014F063EF14F070EF14F0600EC56FE20EBD
:1028CC00C66F000EC76F5A0EC86FA50EA5EC22F08E
:1028DC0038EC24F00001E105E211D8A478EF14F0F3
:1028EC007AEF14F051EF14F003EF13F0DD51D56FC4
:1028FC00D66BD651000AD8B486EF14F003EF13F060
:10290C00D551060AD8B44AEF13F0C70AD8B457EF1A
:10291C0013F0030AD8B46DEF13F0010AD8B483EFA7
:10292C0013F0070AD8B406EF14F0010AD8B416EF66
:10293C0014F0240AD8B426EF14F0030AD8B451EFDB
:10294C0014F003EF13F012001EC034F01FC035F06A
:10295C0020C036F021C037F022C038F023C039F047
:10296C0024C03AF025C03BF03BBEBFEF14F0C2EFE1
:10297C0014F0010EC3EF14F0000E3E6E3E50D8B4AE
:10298C00CAEF14F0CCEF14F0DCEF14F03B1E3A1E3F
:10299C00391E381E371E361E351E346C000E35227D
:1029AC0036223722382239223A223B22000168BFD4
:1029BC00E2EF14F0E4EF14F0E5EF14F0959368BF38
:1029CC00F2EF14F0685106E16705D8B0F0EF14F09F
:1029DC00F2EF14F0F8EF14F0000E316E010E306EC1
:1029EC00FCEF14F067C030F068C031F065C032F015
:1029FC0066C033F03E50D8B406EF15F008EF15F072
:102A0C001FEF15F03206D8A033063E50D8A411EFB4
:102A1C0015F013EF15F019EF15F0000E2F6E2B0EAD
:102A2C002E6E1DEF15F0000E2F6E2D0E2E6E2EC07D
:102A3C003EF0000E3D6E1F0E3C6E000E01014F6FFE
:102A4C00A4EF15F03C06D8A03D06300E3C24D96E00
:102A5C00010E3D20DA6E34C001F035C002F036C0F4
:102A6C0003F037C004F038C005F039C006F03AC0A6
:102A7C0007F03BC008F00A0E096E000E0A6E000E3D
:102A8C000B6E000E0C6E000E0D6E000E0E6E000E18
:102A9C000F6E000E106E8CEC18F001C026F002C008
:102AAC0027F003C028F004C029F005C02AF006C0A6
:102ABC002BF007C02CF008C02DF026C013F027C057
:102ACC0014F0C5EC22F01350300FDF6E3006D8A096
:102ADC0031063206D8A0330634C001F035C002F0FE
:102AEC0036C003F037C004F038C005F039C006F02A
:102AFC003AC007F03BC008F00A0E096E000E0A6ED1
:102B0C00000E0B6E000E0C6E000E0D6E000E0E6E97
:102B1C00000E0F6E000E106EC8EC17F001C034F0F2
:102B2C0002C035F003C036F004C037F005C038F0F1
:102B3C0006C039F007C03AF008C03BF03DBEAFEF1D
:102B4C0015F03D5008E13C04D8A0AFEF15F0B1EF03
:102B5C0015F0E2EF15F034503510361037103810F0
:102B6C0039103A103B10D8A4BEEF15F0C0EF15F099
:102B7C0028EF15F031BECDEF15F0315006E13004E1
:102B8C00D8B0CBEF15F0CDEF15F028EF15F033BE24
:102B9C00D8EF15F0335008E13204D8A0D8EF15F077
:102BAC00DAEF15F0E2EF15F0000195B3E0EF15F058
:102BBC00E2EF15F028EF15F03E50D8B4E8EF15F021
:102BCC00EAEF15F0F5EF15F03C06D8A03D06300EF7
:102BDC003C24D96E010E3D20DA6E3EC0DFFF1CC0D6
:102BEC0011F01DC012F0300E3C24136E010E3D206E
:102BFC00146E32C015F033C016F00AEC1FF0120040
:102C0C00000168BF0CEF16F00EEF16F00FEF16F088
:102C1C00959368BF1CEF16F0685106E16705D8B0B4
:102C2C001AEF16F01CEF16F022EF16F0000E316EB4
:102C3C00010E306E26EF16F067C030F068C031F030
:102C4C0065C032F066C033F01EC034F01FC035F0E2
:102C5C0020C036F021C037F022C038F023C039F044
:102C6C0024C03AF025C03BF0000E3D6E1F0E3C6EAA
:102C7C00000E01014F6F9EEF16F03C06D8A03D06EA
:102C8C0034500F0B3E6E090E3E644FEF16F051EFB1
:102C9C0016F059EF16F0370E3E242E6E2F6A000EEA
:102CAC002F225FEF16F0300E3E242E6E2F6A000E90
:102CBC002F222EC03EF0300E3C24D96E010E3D204A
:102CCC00DA6E3EC0DFFF3006D8A031063206D8A03F
:102CDC00330634C026F035C027F036C028F037C094
:102CEC0029F038C02AF039C02BF03AC02CF03BC088
:102CFC002DF0050E8BEF16F0D8902D322C322B3296
:102D0C002A322932283227322632E82E82EF16F068
:102D1C0026C034F027C035F028C036F029C037F073
:102D2C002AC038F02BC039F02CC03AF02DC03BF043
:102D3C003DBEAAEF16F03D5009E1020E3C5CD8A056
:102D4C00AAEF16F0ACEF16F0DDEF16F0345035109C
:102D5C0036103710381039103A103B10D8A4B9EF90
:102D6C0016F0BBEF16F043EF16F031BEC8EF16F0BD
:102D7C00315006E13004D8B0C6EF16F0C8EF16F0AB
:102D8C0043EF16F033BED3EF16F0335008E13204A4
:102D9C00D8A0D3EF16F0D5EF16F0DDEF16F000014A
:102DAC0095B3DBEF16F0DDEF16F043EF16F01CC019
:102DBC0011F01DC012F0300E3C24136E010E3D209C
:102DCC00146E32C015F033C016F00AEC1FF012006E
:102DDC00096E0950D8B4F5EF16F0F7EF16F019EFAD
:102DEC0017F004BEFEEF16F0FCEF16F019EF17F01B
:102DFC0001C005F002C006F003C007F004C008F0E3
:102E0C00051E061E071E081E052A000E0622072296
:102E1C00082205C00BF006C00CF007C00DF008C06E
:102E2C000EF021EF17F001C00BF002C00CF003C044
:102E3C000DF004C00EF00150021003100410D8A4C1
:102E4C002AEF17F02CEF17F036EF17F0000E016E8B
:102E5C00000E026E000E036E000E046EC7EF17F02C
:102E6C00960E0A6E40EF17F00A2AD8900E320D32E9
:102E7C000C320B32000E0B14056E000E0C14066E89
:102E8C00000E0D14076EFE0E0E14086E0550061083
:102E9C0007100810D8A455EF17F057EF17F03AEFBA
:102EAC0017F065EF17F00A2A010E0B26000E0C2204
:102EBC000D220E22D8900E320D320C320B32000E37
:102ECC000B14056E000E0C14066E000E0D14076E1E
:102EDC00FF0E0E14086E0550061007100810D8A42B
:102EEC007AEF17F07CEF17F059EF17F084EF17F02B
:102EFC000A06D8900B360C360D360E360DBE89EF01
:102F0C0017F08BEF17F093EF17F0020E0A6091EFAA
:102F1C0017F093EF17F07EEF17F00AB098EF17F059
:102F2C009AEF17F09BEF17F00D9ED8900A320AC05B
:102F3C0005F0066A076A086A05C008F0076A066A9F
:102F4C00056A05500B1206500C1207500D12085052
:102F5C000E120950D8B4B5EF17F0B7EF17F0BFEF5A
:102F6C0017F004BEBEEF17F0BCEF17F0BFEF17F071
:102F7C000E8E0BC001F00CC002F00DC003F00EC0A1
:102F8C0004F01200000E126E10BED1EF17F0CFEF4E
:102F9C0017F0E3EF17F0101E0F1E0E1E0D1E0C1E69
:102FAC000B1E0A1E096C000E0A220B220C220D228B
:102FBC000E220F221022010E126E08BEEAEF17F03D
:102FCC00E8EF17F0FCEF17F0081E071E061E051E93
:102FDC00041E031E021E016C000E02220322042298
:102FEC000522062207220822010E121A20EE13F0E7
:102FFC00070EDE6AE806FDE209500A100B100C10F1
:10300C000D100E100F101010D8B40FEF18F011EFA8
:10301C0018F063EF18F0010E116E1FEF18F0D89036
:10302C0009360A360B360C360D360E360F36103680
:10303C00112A10AE24EF18F026EF18F015EF18F047
:10304C00D8901336143615361636173618361936F8
:10305C001A360950015C0A5002580B5003580C5098
:10306C0004580D5005580E5006580F500758105064
:10307C000858D8A044EF18F046EF18F057EF18F0A6
:10308C000950015E0A50025A0B50035A0C50045A54
:10309C000D50055A0E50065A0F50075A1050085A28
:1030AC001380D89010320F320E320D320C320B329C
:1030BC000A320932112E26EF18F01250D8B469EFEB
:1030CC0018F06BEF18F07BEF18F01A1E191E181E73
:1030DC00171E161E151E141E136C000E142215221C
:1030EC0016221722182219221A2213C001F014C01A
:1030FC0002F015C003F016C004F017C005F018C09C
:10310C0006F019C007F01AC008F01200000E126E7B
:10311C0008BE95EF18F093EF18F0A7EF18F0081E03
:10312C00071E061E051E041E031E021E016C000E49
:10313C000222032204220522062207220822010E63
:10314C00126E10BEAEEF18F0ACEF18F0BEEF18F028
:10315C00101E0F1E0E1E0D1E0C1E0B1E0A1E096CC1
:10316C00000E0A220B220C220D220E220F221022FC
:10317C0009500A100B100C100D100E100F1010101F
:10318C00D8B4CBEF18F0CDEF18F015EF19F0010E05
:10319C00116EDBEF18F0D89009360A360B360C3668
:1031AC000D360E360F361036112A10AEE0EF18F031
:1031BC00E2EF18F0D1EF18F00950015C0A500258F8
:1031CC000B5003580C5004580D5005580E5006580F
:1031DC000F50075810500858D8A0F7EF18F0F9EF17
:1031EC0018F009EF19F00950015E0A50025A0B5001
:1031FC00035A0C50045A0D50055A0E50065A0F50D3
:10320C00075A1050085AD89010320F320E320D3225
:10321C000C320B320A320932112EE2EF18F0125036
:10322C00D8B41BEF19F01DEF19F02DEF19F0081E93
:10323C00071E061E051E041E031E021E016C000E38
:10324C00022203220422052206220722082201C0A0
:10325C0001F002C002F003C003F004C004F005C08A
:10326C0005F006C006F007C007F008C008F0120011
:10327C00000E0F6E000E0E6E000E0D6E000E0C6E1C
:10328C004AEF19F0074A082A07C0F6FF08C0F7FFF3
:10329C00F86A0800F550200AD8B457EF19F059EF26
:1032AC0019F048EF19F007C0F6FF08C0F7FFF86AED
:1032BC000800F5CF09F0F70E09240A6E0B6AFF0E11
:1032CC000B220B5009E1050E0A5CD8A070EF19F027
:1032DC0072EF19F048EF19F07CEF19F0000E0D6E3B
:1032EC00010E0C6E074A082AB3EF19F007C0F6FF5F
:1032FC0008C0F7FFF86A0800F550096E0A6A0A5010
:10330C00000AD8B48CEF19F0B3EF19F009502B0A5E
:10331C00D8B478EF19F0060AD8B474EF19F0B3EFFB
:10332C0019F00EC001F00FC002F0000E046E0A0E70
:10333C00036ED8EC23F007C0F6FF08C0F7FFF86A5D
:10334C000800F550015E000E025A300E01240E6E7C
:10335C00000E02200F6E78EF19F007C0F6FF08C0C0
:10336C00F7FFF86A0800F5CF09F0D00E09240A6EB1
:10337C000B6AFF0E0B220B5009E10A0E0A5CD8A057
:10338C00CAEF19F0CCEF19F097EF19F00C500D10A3
:10339C00D8A4D3EF19F0D5EF19F0E3EF19F00EC064
:1033AC0009F00FC00AF0091E0A1E094A0A2A09C0B0
:1033BC0007F00AC008F0E7EF19F00EC007F00FC0D5
:1033CC0008F0120058EF1AF0000E1A6E070E196E64
:1033DC00F29E700E0F6E000E106E000E116E000E2F
:1033EC00126E000E146E010E136EFAEC21F0F28EBA
:1033FC007AEF1AF0000E1A6E090E196EF29E700E0C
:10340C000F6E000E106E000E116E000E126E000E7E
:10341C00146E020E136EFAEC21F0F28E7AEF1AF0A3
:10342C00000E1A6E0C0E196EF29E700E0F6E000EC0
:10343C00106E000E116E000E126E000E146E030E46
:10344C00136EFAEC21F0F28E7AEF1AF0000E1A6E6F
:10345C00140E196EF29E700E0F6E000E106E000E92
:10346C00116E000E126E000E146E040E136EFAEC3A
:10347C0021F0F28E7AEF1AF0000E1A6E000E196E11
:10348C00F29E700E0F6E000E106E000E116E000E7E
:10349C00126E000E146E000E136EFAEC21F0F28E0A
:1034AC007AEF1AF015C017F016C018F01850000A71
:1034BC00D8B463EF1AF07AEF1AF01750000AD8B4A8
:1034CC00EAEF19F0010AD8B400EF1AF0030AD8B4E5
:1034DC0016EF1AF0010AD8B42CEF1AF0070AD8B478
:1034EC0042EF1AF07AEF1AF019C015F01AC016F064
:1034FC001200000E5E6E000E5D6EFDEF1AF0C1053F
:10350C00D8A48BEF1AF08DEF1AF0E2EF1AF09EA808
:10351C0092EF1AF094EF1AF08DEF1AF05D50000153
:10352C00BD25D96E5E50BE21DA6EDF50AE6E1E0E1A
:10353C00016E100E026E01500210D8A4000E036E24
:10354C00BDEC20F05D500001BD25D96E5E50BE2152
:10355C00DA6EDF5005EC23F0FF0E0001BF25C26FC1
:10356C00FF0EC021C36FC2515D5C5E50800AC46FF8
:10357C00C351800AC459D8B0C6EF1AF0C8EF1AF07C
:10358C00D5EF1AF0540E016E100E026E015002109F
:10359C00D8A4000E036EBDEC20F0FBEF1AF0510E18
:1035AC00016E100E026E01500210D8A4000E036EB4
:1035BC00BDEC20F0FBEF1AF0020EC119D8A4E9EF14
:1035CC001AF0EBEF1AF0FBEF1AF0A4A8F0EF1AF0D8
:1035DC00F2EF1AF0EBEF1AF05D500001BD25D96E39
:1035EC005E50BE21DA6EDF50A96E5D4A5E2A000184
:1035FC00BF515D5C5E50800AC26FC051800AC259D7
:10360C00D8A00BEF1BF00DEF1BF085EF1AF012009A
:10361C00898433EC24F0040E0B6E8E0E0A6E120E9F
:10362C00E82EFED70A2EFCD70B2EFAD700D01E0E92
:10363C000001E96F000EEA6F000EEB6F000EEC6FED
:10364C00EBEC23F001C079F002C07AF00001E951F3
:10365C00EA11EB11EC11D8A436EF1BF038EF1BF08C
:10366C003DEF1BF0310EA4EC1CF038EC24F0000103
:10367C0079517A11D8A445EF1BF047EF1BF026EFD8
:10368C001BF04E0E0A6EEB0EE82EFED70A2EFCD760
:10369C0000F01E0E0001E96F000EEA6F000EEB6FDA
:1036AC00000EEC6FEBEC23F001C079F002C07AF065
:1036BC000001E951EA11EB11EC11D8A468EF1BF0F1
:1036CC006AEF1BF06FEF1BF0320EA4EC1CF038EC21
:1036DC0024F0000179057A11D8A477EF1BF079EF6B
:1036EC001BF058EF1BF01E0EE96F000EEA6F000E78
:1036FC00EB6F000EEC6F87C001F088C002F09BEC02
:10370C0023F038EC24F0060E0B6E130E0A6EAE0E80
:10371C00E82EFED70A2EFCD70B2EFAD7000E00018E
:10372C007A6F000E796F89941200000E0A6E08BE33
:10373C00A4EF1BF0A2EF1BF0AEEF1BF0081E071E50
:10374C00061E056C000E062207220822010E0A6EC8
:10375C0004BEB5EF1BF0B3EF1BF0BFEF1BF0041E64
:10376C00031E021E016C000E022203220422010E13
:10377C000A1A000E0B6E000E0C6E000E0D6E000E73
:10378C000E6E0550061007100810D8B4D0EF1BF0C1
:10379C00D2EF1BF008EF1CF0010E096EDCEF1BF0F2
:1037AC00D8900536063607360836092A08AEE1EFFA
:1037BC001BF0E3EF1BF0D6EF1BF0D8900B360C365A
:1037CC000D360E360550015C065002580750035852
:1037DC0008500458D8A0F5EF1BF0F7EF1BF000EFE2
:1037EC001CF00550015E0650025A0750035A08504F
:1037FC00045A0B80D8900832073206320532092E53
:10380C00E3EF1BF00A50D8B40EEF1CF010EF1CF0D5
:10381C0018EF1CF00E1E0D1E0C1E0B6C000E0C2255
:10382C000D220E220BC001F00CC002F00DC003F0F3
:10383C000EC004F01200533454345A6E5A50D8A4AB
:10384C002AEF1CF02CEF1CF036EF1CF0000E516E22
:10385C00000E526E000E536E000E546EA3EF1CF051
:10386C0051C055F052C056F053C057F054C058F0E8
:10387C00200E46EF1CF0D890583257325632553243
:10388C00E82E41EF1CF05550596E538EFF0E511619
:10389C00FF0E5216FF0E5316000E5416960E5A5E5D
:1038AC005ABE5DEF1CF05BEF1CF073EF1CF05A502E
:1038BC00800A970FD8B065EF1CF067EF1CF069EF2A
:1038CC001CF02CEF1CF0D89054325332523251323F
:1038DC005A3E69EF1CF08BEF1CF01F0E5A6479EF07
:1038EC001CF07BEF1CF083EF1CF02CEF1CF0D8903D
:1038FC0051365236533654365A065A50D8A489EF9C
:10390C001CF08BEF1CF07DEF1CF05950D8B491EFEC
:10391C001CF093EF1CF09BEF1CF0541E531E521E18
:10392C00516C000E52225322542251C051F052C0FD
:10393C0052F053C053F054C054F01200096E8B98DF
:10394C00000E44EC20F08B888B98000E44EC20F099
:10395C00E8EF1CF0790E44EC20F0770E44EC20F0EC
:10396C0011EF1DF0790E44EC20F03F0E44EC20F0EA
:10397C0011EF1DF0790E44EC20F0060E44EC20F013
:10398C0011EF1DF0790E44EC20F05B0E44EC20F0AE
:10399C0011EF1DF0000E44EC20F03F0E44EC20F033
:1039AC0011EF1DF0790E44EC20F0060E44EC20F0E3
:1039BC0011EF1DF0770E44EC20F03E0E44EC20F09D
:1039CC0011EF1DF00950076E086A0850000AD8B4B0
:1039DC00F2EF1CF011EF1DF00750300AD8B4B8EF1D
:1039EC001CF0010AD8B4C0EF1CF0030AD8B4C8EF1D
:1039FC001CF0730AD8B4E0EF1CF0040AD8B4B0EF92
:103A0C001CF0020AD8B4D0EF1CF0140AD8B4D8EFCA
:103A1C001CF011EF1DF08B888B980D0E44EC20F0F0
:103A2C008B881200040E5C5CD8B01FEF1DF021EFE8
:103A3C001DF084EF1DF0000E456E000E466E800EDC
:103A4C00476EBF0E486E000E2C6E400E2D6E0A0E89
:103A5C002E6E440E2F6E000E136EC00E146E7F0E63
:103A6C00156E440E166E5BC001F05CC002F0036A6A
:103A7C00046A000EEEEC16F001C00FF002C010F05C
:103A8C0003C011F004C012F070EC0FF00FC028F05E
:103A9C0010C029F011C02AF012C02BF05BEC0DF015
:103AAC0028C041F029C042F02AC043F02BC044F09A
:103ABC00FBEC0AF041C051F042C052F043C053F04D
:103ACC0044C054F021EC1CF051C05BF052C05CF0CF
:103ADC005BC05DF0030E5D165D3ABB505D18CF0BFD
:103AEC005D18BB6E5BC05DF05CC05EF0D8905E3262
:103AFC005D32D8905E325D325D50BC6E1200B3EF19
:103B0C001DF03F0E056EE9EF1DF0060E056EE9EF98
:103B1C001DF05B0E056EE9EF1DF04F0E056EE9EF23
:103B2C001DF0660E056EE9EF1DF06D0E056EE9EFEA
:103B3C001DF07D0E056EE9EF1DF0070E056EE9EF29
:103B4C001DF07F0E056EE9EF1DF06F0E056EE9EFAF
:103B5C001DF0000E056EE9EF1DF001C003F002C070
:103B6C0004F00450000AD8B4BEEF1DF0AFEF1DF006
:103B7C000350000AD8B487EF1DF0010AD8B48BEFBC
:103B8C001DF0030AD8B48FEF1DF0010AD8B493EFDF
:103B9C001DF0070AD8B497EF1DF0010AD8B49BEFBB
:103BAC001DF0030AD8B49FEF1DF0010AD8B4A3EF9F
:103BBC001DF00F0AD8B4A7EF1DF0010AD8B4ABEF73
:103BCC001DF0AFEF1DF00550120003500410D8B4D7
:103BDC00F2EF1DF0F4EF1DF0FDEF1DF0035004109B
:103BEC00D8A4FBEF1DF0FDEF1DF002EF1EF001500D
:103BFC0051EC24F04FEF1EF020EE09F00350D926C3
:103C0C000450DA22DE50DE10D8B40FEF1EF011EFA4
:103C1C001EF02CEF1EF020EE09F00350D9260450B4
:103C2C00DA2210EE03F00350E1260450E222DE50BB
:103C3C00E65CE650800A096EDE50800A0958D8B05E
:103C4C002AEF1EF02CEF1EF04FEF1EF020EE03F0CB
:103C5C000350D9260450DA22DECF05F0DDCF06F072
:103C6C0003C0D9FF04C0DAFFDECF07F0DDCF08F0C8
:103C7C0005500724D96E06500820DA6E01C0DFFF0C
:103C8C0020EE03F00350D9260450DA22DE2A000E6F
:103C9C00DD221200000E066E04BE59EF1EF057EF27
:103CAC001EF05FEF1EF0036C041ED8B0042A010E48
:103CBC00066E02BE66EF1EF064EF1EF06CEF1EF097
:103CCC00016C021ED8B0022A010E061A000E086EF4
:103CDC00000E076E03500410D8B477EF1EF079EF86
:103CEC001EF0A1EF1EF0010E056E81EF1EF0D890B4
:103CFC0003360436052A04AE86EF1EF088EF1EF05C
:103D0C007DEF1EF0D890073608360350015C045046
:103D1C000258D8A094EF1EF096EF1EF09BEF1EF009
:103D2C000350015E0450025A0780D89004320332CB
:103D3C00052E88EF1EF00650D8B4A7EF1EF0A9EFA1
:103D4C001EF0ADEF1EF0076C081ED8B0082A07C095
:103D5C0001F008C002F01200000E066E02BEBBEFAE
:103D6C001EF0B9EF1EF0C1EF1EF0016C021ED8B0B0
:103D7C00022A010E066E04BEC8EF1EF0C6EF1EF03E
:103D8C00CCEF1EF0036C041ED8B0042A03500410B0
:103D9C00D8B4D3EF1EF0D5EF1EF0F9EF1EF0010EE4
:103DAC00056EDDEF1EF0D89003360436052A04AEFE
:103DBC00E2EF1EF0E4EF1EF0D9EF1EF00350015CB1
:103DCC0004500258D8A0EDEF1EF0EFEF1EF0F3EF09
:103DDC001EF00350015E0450025AD8900432033294
:103DEC00052EE4EF1EF00650D8B4FFEF1EF001EFE5
:103DFC001FF005EF1FF0016C021ED8B0022A01C0A3
:103E0C0001F002C002F01200000195A110EF1FF0AA
:103E1C0012EF1FF01CEF1FF013C00AF014C00BF0D0
:103E2C0011C00CF012C00DF042EC22F016BE21EFC6
:103E3C001FF023EF1FF029EF1FF015C01AF016C06A
:103E4C001BF02DEF1FF0000E1B6E000E1A6E000EF5
:103E5C00196E000E186E3FEF1FF0000E026E200E52
:103E6C00016E11C003F012C004F0EBEC1DF0184A07
:103E7C00192A1A50185C1950800A176E1B50800AA8
:103E8C001758D8A04CEF1FF04EEF1FF033EF1FF078
:103E9C00000195B154EF1FF056EF1FF060EF1FF0CB
:103EAC0013C00AF014C00BF011C00CF012C00DF0CE
:103EBC0042EC22F0120009C001F00AC002F0000E20
:103ECC00046E0A0E036EB2EC1EF001C00CF002C0C0
:103EDC000DF009C001F00AC002F0000E046E0A0ECB
:103EEC00036E50EC1EF001C00EF002C00FF08B9868
:103EFC00000E44EC20F08B888B98000E44EC20F0E4
:103F0C000EC001F00FC002F085EC1DF0116E0CC05C
:103F1C0001F00DC002F085EC1DF0106E0B50D8B402
:103F2C009AEF1FF09CEF1FF0A8EF1FF00B28D8A4FE
:103F3C00A2EF1FF0A4EF1FF0A7EF1FF0118EA8EF58
:103F4C001FF0108E115044EC20F0105044EC20F077
:103F5C008B888B980D0E44EC20F08B88120000019E
:103F6C00A605A711D8A4BDEF1FF0BFEF1FF0D6EF29
:103F7C001FF09D8A9D88948E949C190EB06EAD9CFA
:103F8C00AD8AAD98AD96AD84AD92AD90AC8EAC9C37
:103F9C00AC9AAC88AC96AC94AC94AC90FDEF1FF0A2
:103FAC00020EA619A711D8A4DEEF1FF0E0EF1FF048
:103FBC00F7EF1FF0A38AA38898849892190EAB6E22
:103FCC00A89CA88AA898A896A884A892A8909C8E29
:103FDC009C9C9C9A9C889C969C949C949C90FDEF99
:103FEC001FF0010E5D6E100E5E6EB1EC23F0120030
:103FFC00096E8B888B98300E44EC20F08B888B9854
:10400C00300E44EC20F009C007F0073A0F0E0716EB
:10401C00050E086ED8900736082E10EF20F00750CA
:10402C00050944EC20F08B888B98110E44EC20F0A1
:10403C008B888B98110E44EC20F0095044EC20F046
:10404C00095044EC20F0095044EC20F08B888B98FC
:10405C00180E44EC20F08B888B98180E44EC20F052
:10406C00095044EC20F0095044EC20F0095044EC89
:10407C0020F0095044EC20F08B881200036E000EE7
:10408C00056E8B9605C001F0010E026E012A51EFF0
:10409C0020F0D8900236012E4FEF20F0025003147E
:1040AC00046E0450D8B45DEF20F05FEF20F062EFA7
:1040BC0020F08B8A63EF20F08B9A000E066E062A96
:1040CC00040E06646CEF20F06EEF20F065EF20F02C
:1040DC008B86000E066E062A040E066478EF20F01E
:1040EC007AEF20F071EF20F0052A070E056481EFBE
:1040FC0020F083EF20F047EF20F01200FB0E926EC1
:10410C009368840E946EC00E956E000E966E000E23
:10411C00976E050E986EC29EC29CC290C18EC19CB9
:10412C00C19AC188C196C184C192C190C088C19006
:10413C00C182C184C186C188C18EC098F28E030E23
:10414C00D312700ED312000EC46E000EC36EC29446
:10415C00C296C298C29AC18CC280C282C2B2B9EF56
:10416C0020F0BBEF20F0B4EF20F0C19C1200DDEF8B
:10417C0020F09EA8C4EF20F0C6EF20F0BFEF20F097
:10418C0001C0F6FF02C0F7FF03C0F8FFF8BA03D076
:10419C000800F55005D0F6CFE9FFF7CFEAFFEF5056
:1041AC00AE6E010E0126000E0222000E032201C08B
:1041BC00F6FF02C0F7FF03C0F8FFF8BA03D00800FF
:1041CC00F55005D0F6CFE9FFF7CFEAFFEF50000925
:1041DC00D8A4F3EF20F0F5EF20F0BFEF20F01200A1
:1041EC0045EC24F0000E026EA00E15EC24F00FC06E
:1041FC0001F010C002F011C003F012C004F0000E68
:10420C00056E010E066E000E076E000E086E9BEC1E
:10421C001BF001502DEC24F00F502DEC24F03DEC54
:10422C0024F0010E026EA00E15EC24F0000E3DECF5
:10423C0023F002C013F003C014F041EC24F013C0BF
:10424C000FF014C010F01200000E016E120E026E70
:10425C007A0E036E000E046E0FC013F010C014F033
:10426C0011C015F012C016F0020ED8901336143689
:10427C0015361636E82E3BEF21F0020ED890133689
:10428C00143615361636E82E44EF21F013C005F01F
:10429C0014C006F015C007F016C008F09BEC1BF01C
:1042AC000104CB6E000EBC6E94941200A80E00019B
:1042BC00AA6F000EAB6FA4C0ACF0A5C0ADF0000EA1
:1042CC00B06F000EAF6F000EB66F000EB56FAC0E78
:1042DC00556E000E566EA6C057F0A7C058F0AA0E29
:1042EC00596E000E5A6E85EC21F00001AF51A425D9
:1042FC00D96EB051A521DA6E000EDF6E120057C0D8
:10430C005BF058C05CF099EF21F055C03FF056C0FF
:10431C0040F05B0E416E000E426E59C043F05AC025
:10432C0044F03DEC11F05BC0F6FF5CC0F7FFF86A9F
:10433C000800F5500009D8A4A6EF21F0A8EF21F051
:10434C008BEF21F0000E566E000E556E1200026EB1
:10435C000204D8A4B4EF21F0B6EF21F0C1EF21F0A4
:10436C009EAABBEF21F0BDEF21F0B6EF21F0AFCF4D
:10437C0001F0D3EF21F0020E0218D8A4C8EF21F0FF
:10438C00CAEF21F0D3EF21F0A4AACFEF21F0D1EFA7
:10439C0021F0CAEF21F0AACF01F001501200949C39
:1043AC00948EAD98AD9CAD8AAC9CAC88AD9EAC8621
:1043BC00AC8E98929884A898A89CA88A9C9C9C885F
:1043CC00A89E9C869C8E7E96AD849D8A9D987C969C
:1043DC00A884A38AA398190EB06E000E7F6E190ED6
:1043EC00AB6E000E7D6E120045EC24F0000E026EDA
:1043FC00A00E15EC24F00FC001F010C002F011C09B
:10440C0003F012C004F0000E056E010E066E000ED5
:10441C00076E000E086E9BEC1BF001502DEC24F087
:10442C000F502DEC24F013502DEC24F041EC24F023
:10443C001200010E056E200E01180210D8B429EFDF
:10444C0022F02BEF22F03EEF22F0F70E0124036E48
:10445C00FF0E0220046E045009E1050E035CD8A087
:10446C003AEF22F03CEF22F03EEF22F0000E056E08
:10447C0005C001F0026A1200000E106E000E0F6EE5
:10448C0053EF22F00EC001F0026A0CC003F00DC015
:10449C0004F0EBEC1DF00F4A102A0F500A24D96ED1
:1044AC0010500B20DA6EDF500E6E0E50D8A461EF58
:1044BC0022F063EF22F048EF22F012004C0EF66E61
:1044CC00480EF76E000EF86E00EEE5F010EE0DF0F3
:1044DC000900F5CFEEFFE550E150FAE101EE00F0F6
:1044EC00500EEE6AE806FDE100EE60F0440EEE6A56
:1044FC00E806FDE15F905F9200012EEF08F00001ED
:10450C00A86F0001A851D8B48EEF22F090EF22F0E2
:10451C00A3EF22F08B82A4C015F0A5C016F0E8EC36
:10452C0019F015C0A6F016C0A7F0A6C05BF0A7C086
:10453C005CF018EC1DF0A4EF22F08B92120000013D
:10454C00C96F20EECAF0040EDE6AE806FDE2C9C0AF
:10455C00CAF0C5C0CBF0C6C0CCF0C7C0CDF0C8C047
:10456C00CEF0CA0E0001BD6F000EBE6F000EC06F04
:10457C00050EBF6F020EC16F7FEC1AF0120014BE55
:10458C00D2EF22F0145006E11304D8B0D0EF22F091
:10459C00D2EF22F0E0EF22F013C015F014C016F0A9
:1045AC00151E161E154A162A15C013F016C014F047
:1045BC00E4EF22F013C013F014C014F01200C294F4
:1045CC00C296C298C29AC280000E026E050E016E8F
:1045DC009BEC23F0C282C2B2F6EF22F0F8EF22F08D
:1045EC00F1EF22F0C350C4CF04F0056A04C005F00B
:1045FC00046A04100001776F0550786F12000001F7
:10460C00BC6FB70E0001A46F000EA56F4A0EA66F0B
:10461C00100EA76FBCC0A8F0A96B5CEC21F0B70E14
:10462C00016E000E026E01500210D8A4200E036E13
:10463C00BDEC20F01200670E0001775D030E785977
:10464C00D8B02BEF23F02DEF23F030EF23F08C823A
:10465C003CEF23F0C00E775D030E7859D8A039EFEC
:10466C0023F03BEF23F03CEF23F08C921200046E0E
:10467C00C5EC23F06B86C5EC23F06FCF05F0C5ECD1
:10468C0023F00450D8B44DEF23F04FEF23F052EF4A
:10469C0023F06B9A53EF23F06B8A6B8805C002F002
:1046AC00036A120001C003F0030E0316033ABB5059
:1046BC000318CF0B0318BB6E01C003F002C004F04B
:1046CC00D89004320332D890043203320350BC6EBB
:1046DC001200D00E0124036EFF0E0220046E045053
:1046EC000AE10A0E035CD8A07EEF23F081EF23F0E1
:1046FC00010E82EF23F0000E016E026A120091EFA0
:10470C0023F0030E036E980EE82EFED7032EFCD773
:10471C000106D8A0020601500210D8A498EF23F08D
:10472C009AEF23F087EF23F01200A7EF23F0030E8C
:10473C00036E980EE82EFED7032EFCD70106D8A0E8
:10474C00020601500210D8A4AEEF23F0B0EF23F014
:10475C009DEF23F012005F0E0001A46F000EA56FF9
:10476C00000E556E000E566E5DC057F05EC058F0D0
:10477C00A40E596E000E5A6E85EC21F012006BCF10
:10478C0001F01F0E0116D8A4CEEF23F0D0EF23F0CA
:10479C00C5EF23F06DB4D5EF23F0D7EF23F0C5EFC1
:1047AC0023F0120001500302F3CF05F0F4CF06F012
:1047BC0001500402F350062602500302F350062661
:1047CC0005C001F006C002F0120080A2F0EF23F049
:1047DC00F2EF23F0F8EF23F0000E026E000E016EE4
:1047EC00FCEF23F0000E026E010E016E1200310E72
:1047FC00CD6E9E0ECF6E570ECE6E9E909D809F807E
:10480C00000E0001976F1200958A958C280E6C6E25
:10481C00000E6B6E270E6E6EC00E6D6E1200036E68
:10482C0003C004F002500426C5EC23F004C06FFF53
:10483C001200C70E776E7996798C000E766E120088
:0D484C00140000001E0000000100D0073F16
:10485A00026EC5EC23F002C06FFF12008F868F88AC
:10486A0049EC24F012004DEC24F08F868F88120058
:10487A00C5EC23F06B821200C5EC23F06B841200A6
:10488A00C5EC23F06B801200080E736E768412005A
:0A489A00000E736E769412001200F7
:067FF800AEF703FBF8F1F7
:00000001FF
