:0400000081EF01F09B
:100008005982D9CF33F0DACF34F09EAA0EEF00F040
:1000180010EF00F0E3EF00F0A9EC10F0366EA50E3B
:100028003618D8A41AEF00F01CEF00F03EEF00F0ED
:100038003150D8B422EF00F024EF00F02CEF00F09C
:100048002D04D8A42AEF00F02CEF00F03EEF00F0CA
:10005800010E306E000E246E000E236E800E2324D7
:10006800D96E000E2420DA6E36C0DFFF234A242A18
:10007800EDEF00F03004D8A444EF00F046EF00F0B4
:10008800EDEF00F0800E2324D96E000E2420DA6EE6
:1000980036C0DFFF245007E1050E235CD8B057EFC8
:1000A80000F059EF00F0DFEF00F05A0E3618D8A430
:1000B80060EF00F062EF00F03AEF00F000018151CC
:1000C8008225356E35508319D8A46DEF00F06FEF97
:1000D80000F0B2EF00F02D50D8B475EF00F077EFD4
:1000E80000F080EF00F0F50E8219D8A47EEF00F042
:1000F80080EF00F098EF00F0F29E000E376E800E51
:100108003724D96EDA6A000EDA22DF50F0EC10F0EC
:10011800372A040E376493EF00F095EF00F083EF71
:1001280000F0F28EA8EF00F0F29E000E376E160E69
:10013800F0EC10F0372A040E3764A5EF00F0A7EFB3
:1001480000F09BEF00F0F28E010E316E000E246E6F
:10015800000E236E020E2A6EC8EF00F0000E316EFC
:10016800000E246E000E236EF29E000E376E150EE2
:10017800F0EC10F0372A040E3764C5EF00F0C7EF33
:1001880000F0BBEF00F0F28EF50E00018219D8A442
:10019800D0EF00F0D2EF00F03AEF00F0020E2A188C
:1001A800D8A4D9EF00F0DBEF00F03AEF00F0010E31
:1001B8002F6E3AEF00F0000E306E3AEF00F0ACA26E
:1001C800E8EF00F0EAEF00F0EDEF00F0AC92AC9849
:1001D800AC882504D8A4F3EF00F0F5EF00F03BEF6E
:1001E80001F055BE02EF01F055505410531008E1CC
:1001F8005204D8A002EF01F004EF01F00EEF01F075
:10020800FF0E5226FF0E5322FF0E5422FF0E5522D8
:1002180016EF01F0000E526E000E536E000E546E73
:10022800000E556E51BE23EF01F0515050104F1083
:1002380008E14E04D8A023EF01F025EF01F02FEFDD
:1002480001F0FF0E4E26FF0E4F22FF0E5022FF0E2A
:10025800512239EF01F0140E4E6E000E4F6E000E53
:10026800506E000E516E52EC10F0000E256E9EA0DE
:1002780040EF01F042EF01F049EF01F09E0ECF6E22
:10028800570ECE6E9E90010E256EF0A24EEF01F035
:1002980050EF01F07BEF01F003500410D8A457EFA2
:1002A80001F059EF01F066EF01F081A85EEF01F06F
:1002B80060EF01F066EF01F0000E046E010E036EB0
:1002C8007AEF01F003040410D8A46DEF01F06FEF8A
:1002D80001F07AEF01F081A874EF01F076EF01F0F8
:1002E8007AEF01F0000E046E000E036EF09234C037
:1002F800DAFF33C0D9FF599211009DEF0FF0F29E3B
:10030800B7EC0EF0770E31EC0EF005EC11F0DAECEC
:1003180010F083EC10F0CEEC10F08B9289941E0E46
:10032800526E000E536E000E546E000E556ED08E37
:100338009F8AF28EF28E8C808C82000E416E240E83
:10034800406EFF0E426EDDEC0DF0060E4D6E130E84
:100358004C6EAE0EE82EFED74C2EFCD74D2EFAD79B
:10036800C0EC0FF0F29E100E466E000E476E000EA7
:10037800486E000E496EF0EC0EF046C01DF047C006
:100388001EF0F28E1DC02CF0010E2C64CEEF01F091
:10039800D0EF01F0E1EF01F0010E2C6EF29E100E8D
:1003A800466E000E476E000E486E000E496E2CC059
:1003B8004AF04B6A78EC0FF0F28E000E146E010EC4
:1003C800136E13C040F014C041F02CC042F0DDECB5
:1003D8000DF0000E106E010E0F6EF29E200E466E8E
:1003E800000E476E000E486E000E496EF0EC0EF0DF
:1003F80046C01DF047C01EF0F28E1D50176E186AD9
:10040800185009E1310E175CD8A00DEF02F00FEF7C
:1004180002F01AEF02F0185009E13B0E175CD8A061
:1004280018EF02F01AEF02F02EEF02F0000E186E2D
:10043800310E176EF29E200E466E000E476E000EAD
:10044800486E000E496E17C04AF018C04BF078ECA1
:100458000FF0F28EF29E600E466E000E476E000E92
:10046800486E000E496EF0EC0EF046C01DF047C015
:100478001EF0F28E1DC029F02F0E296446EF02F0FF
:1004880048EF02F050EF02F0350E29644EEF02F00B
:1004980050EF02F08DEF02F0300E296E000E166E4E
:1004A800000E156EF29E600E466E000E476E000E30
:1004B800486E000E496E29C04AF04B6A78EC0FF07E
:1004C800F28EB2EF02F0000E166E000E156E300EB0
:1004D800296EB2EF02F0030E166EE80E156EB2EF3B
:1004E80002F0070E166ED00E156EB2EF02F00B0E6C
:1004F800166EB80E156EB2EF02F00F0E166EA00E45
:10050800156EB2EF02F0130E166E880E156EB2EF6E
:1005180002F029504C6E4D6A4D50000AD8B497EF3E
:1005280002F067EF02F04C50300AD8B467EF02F0DF
:10053800010AD8B46FEF02F0030AD8B475EF02F0DD
:10054800010AD8B47BEF02F0070AD8B481EF02F0B1
:10055800010AD8B487EF02F067EF02F0F29E500E5E
:10056800466E000E476E000E486E000E496EF0ECA7
:100578000EF046C01DF047C01EF0F28E1DC027F0D9
:10058800960E2764CAEF02F0CCEF02F0E3EF02F018
:10059800000E276EF29E500E466E000E476E000E3D
:1005A800486E000E496E27C04AF04B6A78EC0FF08F
:1005B800F28E000E1A6E000E196EE6EF02F027C0DA
:1005C80019F01A6AF29E400E466E000E476E000E33
:1005D800486E000E496EF0EC0EF046C01DF047C0A4
:1005E8001EF0F28E1DC028F0810E2818D8B4FFEF37
:1005F80002F001EF03F05CEF03F0820E2818D8B484
:1006080008EF03F00AEF03F05CEF03F0830E2818FD
:10061800D8B411EF03F013EF03F05CEF03F0840E8E
:100628002818D8B41AEF03F01CEF03F05CEF03F0BE
:10063800850E2818D8B423EF03F025EF03F05CEFFC
:1006480003F0070E576ED00E566E820E286EF29E7D
:10065800400E466E000E476E000E486E000E496E44
:1006680028C04AF04B6A78EC0FF0F28E7DEF03F069
:10067800030E576EE80E566E7DEF03F0070E576EA9
:10068800D00E566E820E286E7DEF03F00B0E576E5D
:10069800B80E566E7DEF03F00F0E576EA00E566E15
:1006A8007DEF03F0130E576E880E566E7DEF03F044
:1006B80028504C6E4D6A4D50000AD8B466EF03F0CE
:1006C80042EF03F04C50810AD8B43CEF03F0030A20
:1006D800D8B442EF03F0010AD8B44AEF03F0070A8E
:1006E800D8B450EF03F0010AD8B456EF03F042EF44
:1006F80003F03F0E586EF29E300E466E000E476EA7
:10070800000E486E000E496EF0EC0EF046C01DF06B
:1007180047C01EF0F28E1DC058F05850D8B497EF5D
:1007280003F099EF03F0BCEF03F03F0E5818D8B46C
:10073800A0EF03F0A2EF03F0BCEF03F07F0E581810
:10074800D8B4A9EF03F0ABEF03F0BCEF03F03F0E12
:10075800586EF29E300E466E000E476E000E486EC2
:10076800000E496E58C04AF04B6A78EC0FF0F28ED2
:100778001E0E526E000E536E000E546E000E556E15
:1007880043EC0BF08C9204001E0E526E000E536E5A
:10079800000E546E000E556EC0EC0FF082EF07F09D
:1007A8000FC013F010C014F081B8DDEF03F0DFEFD5
:1007B80003F0FEEF03F081B4E4EF03F0E6EF03F09B
:1007C800E8EF03F0DFEC0FF02C5051EC0FF0020EC5
:1007D8004D6E040E4C6EBA0EE82EFED74C2EFCD78A
:1007E8004D2EFAD700D081A8FCEF03F0FEEF03F0FE
:1007F800DFEF03F081B603EF04F005EF04F076EFC6
:1008080004F0630E13181410D8B40DEF04F00FEFB2
:1008180004F076EF04F0010E1324136E000E14207A
:10082800146E13C040F014C041F02CC042F0DDEC4F
:100838000DF0030E4D6E8A0E4C6E560EE82EFED746
:100848004C2EFCD74D2EFAD76FEF04F00B0E4D6EE1
:10085800260E4C6E5E0EE82EFED74C2EFCD74D2E83
:10086800FAD781B63AEF04F03CEF04F055EF04F004
:10087800145007E15A0E135CD8B045EF04F047EF67
:1008880004F055EF04F00A0E1324136E000E142022
:10089800146E13C040F014C041F02CC042F0DDECDF
:1008A8000DF081B65AEF04F05CEF04F06FEF04F03E
:1008B80080BA61EF04F063EF04F06FEF04F0000E0C
:1008C800146E000E136E13C040F014C041F02CC01B
:1008D80042F0DDEC0DF081A674EF04F076EF04F041
:1008E8002AEF04F080BA7BEF04F07DEF04F0EDEF1F
:1008F80004F013501410D8B484EF04F086EF04F019
:10090800EDEF04F0FF0E1324136EFF0E1420146E87
:1009180013C040F014C041F02CC042F0DDEC0DF0E3
:10092800030E4D6E8A0E4C6E560EE82EFED74C2ED8
:10093800FCD74D2EFAD7E6EF04F00B0E4D6E260EBF
:100948004C6E5E0EE82EFED74C2EFCD74D2EFAD7F5
:1009580080BAB1EF04F0B3EF04F0CCEF04F0145018
:1009680009E10A0E135CD8A0BCEF04F0BEEF04F056
:10097800CCEF04F0F60E1324136EFF0E1420146E41
:1009880013C040F014C041F02CC042F0DDEC0DF073
:1009980080BAD1EF04F0D3EF04F0E6EF04F081B6AB
:1009A800D8EF04F0DAEF04F0E6EF04F0000E146E6E
:1009B800000E136E13C040F014C041F02CC042F07A
:1009C800DDEC0DF080AAEBEF04F0EDEF04F0A1EF01
:1009D80004F080B8F2EF04F0F4EF04F00CEF05F047
:1009E800145007E15A0E135CD8B0FDEF04F0FFEF86
:1009F80004F00CEF05F00A0E1324136E000E1420F9
:100A0800146E80A80AEF05F00CEF05F005EF05F06D
:100A180080B611EF05F013EF05F02BEF05F0145039
:100A280009E10A0E135CD8A01CEF05F01EEF05F0D3
:100A38002BEF05F0F60E1324136EFF0E1420146E20
:100A480080A629EF05F02BEF05F024EF05F013C081
:100A58000FF014C010F013C040F014C041F02CC0C7
:100A680042F0DDEC0DF003040410D8A43EEF05F0CD
:100A780040EF05F050EF05F0010E2D6E1E0E526E80
:100A8800000E536E000E546E000E556E99EC07F072
:100A9800000E2F6E000E2D6E3104D8A456EF05F00F
:100AA80058EF05F07EEF07F054EF07F0F10E8219CA
:100AB800D8A461EF05F063EF05F07FEF05F02D5046
:100AC800D8A469EF05F06BEF05F07FEF05F0000E95
:100AD8002F6E010E2D6E0FC013F010C014F01E0EF5
:100AE800526E000E536E000E546E000E556EAAEC38
:100AF80009F0DDEF05F0F20E8219D8A486EF05F0B3
:100B080088EF05F0DDEF05F02D50D8A48EEF05F045
:100B180090EF05F0DDEF05F0000E2F6E010E2D6E43
:100B28000FC013F010C014F013C040F014C041F00F
:100B38002CC042F0DDEC0DF01E0E526E000E536E0E
:100B4800000E546E000E556E99EC07F02F50D8A485
:100B5800B0EF05F0B2EF05F0DDEF05F0A50E0001EE
:100B6800606F440E616FF90E626F3D0E636F5A0E2F
:100B7800646FF29E000E0E6E000E0D6E0E5009E1AF
:100B8800050E0D5CD8A0CBEF05F0CDEF05F0CFEF4B
:100B980005F0DCEF05F0600E0D24D96E000E0E2076
:100BA800DA6EDF50E5EC10F00D4A0E2AC2EF05F0C0
:100BB800F28EFDEC0FF01AEC10F0000E2F6E000E06
:100BC8002D6E76EF07F02D50D8A4EDEF05F0EFEF7E
:100BD80005F076EF07F0010E2D6E82C029F01BEFAD
:100BE80006F0000E166E000E156E300E296E40EFE0
:100BF80006F0030E166EE80E156E40EF06F0070EAF
:100C0800166ED00E156E40EF06F00B0E166EB80E6F
:100C1800156E40EF06F00F0E166EA00E156E40EF23
:100C280006F0130E166E880E156E40EF06F029506A
:100C38004C6E4D6A4D50000AD8B425EF06F0F5EF1A
:100C480005F04C50300AD8B4F5EF05F0010AD8B4D5
:100C5800FDEF05F0030AD8B403EF06F0010AD8B493
:100C680009EF06F0070AD8B40FEF06F0010AD8B466
:100C780015EF06F0F5EF05F0F29E600E466E000ED9
:100C8800476E000E486E000E496E29C04AF04B6A46
:100C980078EC0FF0F28EFDEC0FF0E3EF05F02D503D
:100CA800D8A459EF06F05BEF06F076EF07F0825113
:100CB800D8A461EF06F063EF06F0D0EF06F0010E5E
:100CC8002D6EF29E600E466E000E476E000E486E48
:100CD800000E496EF0EC0EF04650296E400E466E3E
:100CE800000E476E000E486E000E496EF0EC0EF0D6
:100CF8004650286E300E466E000E476E000E486E47
:100D0800000E496EF0EC0EF046C01BF047C01CF018
:100D1800500E466E000E476E000E486E000E496E6D
:100D2800F0EC0EF04650276EF28E510E0001606F07
:100D380029C061F01BC062F028C063F027C064F0CE
:100D4800020E4D6E040E4C6EBA0EE82EFED74C2ED7
:100D5800FCD74D2EFAD700D0F29E000E0E6E000E74
:100D68000D6E0E5009E1050E0D5CD8A0BEEF06F021
:100D7800C0EF06F0C2EF06F0CFEF06F0600E0D24CC
:100D8800D96E000E0E20DA6EDF50E5EC10F00D4A39
:100D98000E2AB5EF06F0F28E1AEC10F0E3EF05F02C
:100DA8002D50D8A4DAEF06F0DCEF06F034EF07F0A8
:100DB800010E2D6E82C028F002EF07F0030E576E69
:100DC800E80E566E23EF07F0070E576ED00E566EDC
:100DD800820E286E23EF07F00B0E576EB80E566E74
:100DE80023EF07F00F0E576EA00E566E23EF07F095
:100DF800130E576E880E566E23EF07F028504C6E70
:100E08004D6A4D50000AD8B40CEF07F0E8EF06F031
:100E18004C50810AD8B4E2EF06F0030AD8B4E8EFE0
:100E280006F0010AD8B4F0EF06F0070AD8B4F6EFD6
:100E380006F0010AD8B4FCEF06F0E8EF06F0F29EDF
:100E4800400E466E000E476E000E486E000E496E4C
:100E580028C04AF04B6A78EC0FF0F28E000E2D6E27
:100E68002D50D8A43AEF07F03CEF07F076EF07F0E3
:100E7800010E2D6E82C027F027C019F01A6AF29E63
:100E8800500E466E000E476E000E486E000E496EFC
:100E980027C04AF04B6A78EC0FF0F28EE3EF05F0CA
:100EA800000181514C6E4D6A4D50000AD8B45FEF75
:100EB80007F076EF07F04C50230AD8B4E7EF05F0B7
:100EC800670AD8B45AEF05F0150AD8B453EF06F0FC
:100ED800340AD8B4D4EF06F0030AD8B434EF07F0D4
:100EE80076EF07F0000E316E000E306E000E2A6E9F
:100EF800C7EF03F0000E2A6EC7EF03F02A504C6EBE
:100F08004D6A4D50000AD8B48CEF07F0C7EF03F0D4
:100F18004C50000AD8B4D4EF03F0020AD8B450EF0A
:100F280005F0C7EF03F081EF01F02C04D8A49FEF80
:100F380007F0A1EF07F0B6EF07F08B8256C038F044
:100F480057C039F06DEC10F08B92040E4A6E0C0EFF
:100F5800496E340EE82EFED7492EFCD74A2EFAD712
:100F6800B9EF07F08B92A9EF07F08984135014109A
:100F7800D8A4C1EF07F0C3EF07F0C9EF07F0000EE0
:100F8800126E010E116E53EF09F0000E126E000E74
:100F9800116E53EF09F0040024EC0FF0C0EC0FF0D1
:100FA80015C038F016C039F06DEC10F018EC11F0DF
:100FB800040E4A6E8E0E496E120EE82EFED7492E8A
:100FC800FCD74A2EFAD700D01E0E526E000E536E72
:100FD800000E546E000E556EBCEC10F038C00BF0CD
:100FE80039C00CF05250531054105510D8A4FFEFCC
:100FF80007F001EF08F006EF08F0310E49EC0CF0AD
:101008001DEC11F00B500C10D8A40DEF08F00FEFE9
:1010180008F0F0EF07F04E0E496EEB0EE82EFED703
:10102800492EFCD700F01E0E526E000E536E000EB5
:10103800546E000E556EBCEC10F038C00BF039C081
:101048000CF05250531054105510D8A42EEF08F03D
:1010580030EF08F035EF08F0320E49EC0CF01DECDB
:1010680011F00B040C10D8A43CEF08F03EEF08F088
:101078001FEF08F01E0E526E000E536E000E546ED7
:10108800000E556E19C038F01AC039F06DEC10F02A
:101098001DEC11F013501410D8B455EF08F057EFA9
:1010A80008F063EF08F011041210D8B45EEF08F0EE
:1010B80060EF08F063EF08F01306D8A0140613C019
:1010C80040F014C041F02CC042F0DDEC0DF02C04CF
:1010D800D8A471EF08F073EF08F09AEF08F01350F6
:1010E8001410D8A47AEF08F07CEF08F085EF08F028
:1010F80011041210D8A483EF08F085EF08F09AEFD6
:1011080008F08B8256C038F057C039F06DEC10F0FB
:101118008B92040E4A6E0C0E496E340EE82EFED7E2
:10112800492EFCD74A2EFAD7DAEF08F02C50D8A46B
:10113800A0EF08F0A2EF08F0DAEF08F0135014104F
:10114800D8A4A9EF08F0ABEF08F0B4EF08F0110449
:101158001210D8A4B2EF08F0B4EF08F0DAEF08F0F4
:101168008B9213501410D8A4BCEF08F0BEEF08F00F
:10117800C7EF08F011041210D8A4C5EF08F0C7EFA4
:1011880008F0CFEF08F056C038F057C039F06DECD2
:1011980010F0DAEF08F0060E4A6E130E496EAE0E26
:1011A800E82EFED7492EFCD74A2EFAD72F04D8A40A
:1011B800E0EF08F0E2EF08F00FEF09F065EF09F053
:1011C800000E126E020E116E13C040F014C041F0F2
:1011D8002C50D8B4F2EF08F0F5EF08F0010EF6EF56
:1011E80008F0000E426EDDEC0DF0820E496EDE0E48
:1011F800E82EFED7492EFCD713C040F014C041F0AA
:101208002CC042F0DDEC0DF0820E496EDE0EE82EA9
:10121800FED7492EFCD703500410D8A416EF09F0C6
:1012280018EF09F02AEF09F011041210D8B41FEFD3
:1012380009F021EF09F0E4EF08F011501210D8B4CA
:1012480028EF09F02AEF09F0E4EF08F013C040F0A6
:1012580014C041F02CC042F0DDEC0DF00350041036
:10126800D8A439EF09F03BEF09F04CEF09F013501F
:101278001410D8B442EF09F044EF09F04CEF09F02C
:1012880013C00FF014C010F0000E146E000E136E91
:10129800820E496EDE0EE82EFED7492EFCD713507B
:1012A8001410D8A45AEF09F05CEF09F0CFEF07F05B
:1012B80011041210D8B463EF09F065EF09F0CFEF0D
:1012C80007F0899413501410D8B46DEF09F06FEF3C
:1012D80009F077EF09F02F04D8A475EF09F077EF3C
:1012E80009F09BEF09F011501210D8A47EEF09F015
:1012F80080EF09F09BEF09F02C04D8A486EF09F0E1
:1013080088EF09F09BEF09F08B8256C038F057C080
:1013180039F06DEC10F08B92040E4A6E0C0E496E8B
:10132800340EE82EFED7492EFCD74A2EFAD7000EE7
:10133800126E000E116E000E146E000E136E000E6B
:10134800046E000E036E000E2A6E1200000E0C6E64
:10135800000E0B6E410EC9EC0BF02C04D8A4B7EFAD
:1013680009F0B9EF09F0CEEF09F08B8256C038F0DA
:1013780057C039F06DEC10F08B92040E426E0C0ED3
:10138800416E340EE82EFED7412EFCD7422EFAD7F6
:10139800D1EF09F08B92C1EF09F0898481EF0AF04F
:1013A800040024EC0FF0C0EC0FF015C038F016C0A4
:1013B80039F06DEC10F018EC11F0040E426E8E0E40
:1013C800416E120EE82EFED7412EFCD7422EFAD7D8
:1013D80000D01E0E526E000E536E000E546E000E9C
:1013E800556EBCEC10F038C00BF039C00CF0525000
:1013F800531054105510D8A404EF0AF006EF0AF061
:101408000BEF0AF0310E49EC0CF01DEC11F00B500B
:101418000C10D8A412EF0AF014EF0AF0F5EF09F057
:101428004E0E416EEB0EE82EFED7412EFCD700F093
:101438001E0E526E000E536E000E546E000E556E48
:10144800BCEC10F038C00BF039C00CF052505310FF
:1014580054105510D8A433EF0AF035EF0AF03AEFDC
:101468000AF0320E49EC0CF01DEC11F00B040C10D4
:10147800D8A441EF0AF043EF0AF024EF0AF01E0E59
:10148800526E000E536E000E546E000E556E19C04B
:1014980038F01AC039F06DEC10F01DEC11F02C0486
:1014A800D8A459EF0AF05BEF0AF070EF0AF08B82CC
:1014B80056C038F057C039F06DEC10F08B92040E1E
:1014C800426E0C0E416E340EE82EFED7412EFCD72C
:1014D800422EFAD777EF0AF08B9256C038F057C0F1
:1014E80039F06DEC10F02F04D8A47DEF0AF07FEFEF
:1014F8000AF081EF0AF089EF0AF02F50D8B487EF8D
:101508000AF089EF0AF0D4EF09F089941350141007
:10151800D8B491EF0AF093EF0AF09BEF0AF02F048A
:10152800D8A499EF0AF09BEF0AF0B6EF0AF02C0462
:10153800D8A4A1EF0AF0A3EF0AF0B6EF0AF08B8265
:1015480056C038F057C039F06DEC10F08B92040E8D
:10155800426E0C0E416E340EE82EFED7412EFCD79B
:10156800422EFAD7000E146E000E136E020E2A6E6B
:101578001200000E416E3FBEC6EF0AF0C4EF0AF03B
:10158800D0EF0AF03F1E3E1E3D1E3C6C000E3D2271
:101598003E223F22010E416E3BBED7EF0AF0D5EF47
:1015A8000AF0E1EF0AF03B1E3A1E391E386C000EB5
:1015B80039223A223B22010E411A000E426E000ED9
:1015C800436E000E446E000E456E3C503D103E10BA
:1015D8003F10D8B4F2EF0AF0F4EF0AF02AEF0BF05C
:1015E800010E406EFEEF0AF0D8903C363D363E368E
:1015F8003F36402A3FAE03EF0BF005EF0BF0F8EF54
:101608000AF0D89042364336443645363C50385C6A
:101618003D5039583E503A583F503B58D8A017EFE4
:101628000BF019EF0BF022EF0BF03C50385E3D50F9
:10163800395A3E503A5A3F503B5A4280D8903F322E
:101648003E323D323C32402E05EF0BF04150D8B4CB
:1016580030EF0BF032EF0BF03AEF0BF0451E441E63
:10166800431E426C000E43224422452242C038F0F9
:1016780043C039F044C03AF045C03BF012008984B9
:1016880018EC11F0040E426E8E0E416E120EE82E0A
:10169800FED7412EFCD7422EFAD700D01E0E526E2E
:1016A800000E536E000E546E000E556EBCEC10F01A
:1016B80038C00BF039C00CF052505310541055106C
:1016C800D8A469EF0BF06BEF0BF070EF0BF0310E55
:1016D80049EC0CF01DEC11F00B500C10D8A477EF6E
:1016E8000BF079EF0BF05AEF0BF04E0E416EEB0E4C
:1016F800E82EFED7412EFCD700F01E0E526E000ECB
:10170800536E000E546E000E556EBCEC10F038C0CF
:101718000BF039C00CF05250531054105510D8A487
:1017280098EF0BF09AEF0BF09FEF0BF0320E49ECAD
:101738000CF01DEC11F00B040C10D8A4A6EF0BF064
:10174800A8EF0BF089EF0BF01E0E526E000E536ED1
:10175800000E546E000E556E19C038F01AC039F0DC
:101768006DEC10F01DEC11F0060E426E130E416E7A
:10177800AE0EE82EFED7412EFCD7422EFAD7000E29
:101788000C6E000E0B6E89941200406E8B98000E42
:1017980077EC0EF08B888B98000E77EC0EF015EF37
:1017A8000CF0790E77EC0EF03F0E77EC0EF042EF6E
:1017B8000CF03F0E77EC0EF0730E77EC0EF042EF64
:1017C8000CF0390E77EC0EF0770E77EC0EF042EF56
:1017D8000CF0000E77EC0EF0000E77EC0EF042EFF6
:1017E8000CF0000E77EC0EF03F0E77EC0EF042EFA7
:1017F8000CF0790E77EC0EF0060E77EC0EF042EF57
:101808000CF0770E77EC0EF03E0E77EC0EF042EF10
:101818000CF0000E77EC0EF03E0E77EC0EF042EF77
:101828000CF040503E6E3F6A3F50000AD8B41FEF9C
:101838000CF042EF0CF03E50410AD8B405EF0CF022
:10184800020AD8B4E5EF0BF0060AD8B4D5EF0BF0CE
:10185800020AD8B4F5EF0BF0080AD8B4DDEF0BF0A4
:101868001C0AD8B4FDEF0BF0050AD8B40DEF0CF044
:101878000E0AD8B4EDEF0BF042EF0CF08B888B9882
:101888000D0E77EC0EF08B881200406E8B98000ED0
:1018980077EC0EF08B888B98000E77EC0EF08DEFBE
:1018A8000CF0790E77EC0EF0770E77EC0EF0B6EFC1
:1018B8000CF0790E77EC0EF03F0E77EC0EF0B6EFE9
:1018C8000CF0790E77EC0EF0060E77EC0EF0B6EF12
:1018D8000CF0790E77EC0EF05B0E77EC0EF0B6EFAD
:1018E8000CF0000E77EC0EF03F0E77EC0EF0B6EF32
:1018F8000CF0790E77EC0EF0060E77EC0EF0B6EFE2
:101908000CF0770E77EC0EF03E0E77EC0EF0B6EF9B
:101918000CF040503E6E3F6A3F50000AD8B497EF33
:101928000CF0B6EF0CF03E50300AD8B45DEF0CF076
:10193800010AD8B465EF0CF0030AD8B46DEF0CF0C7
:10194800730AD8B485EF0CF0040AD8B455EF0CF03C
:10195800020AD8B475EF0CF0140AD8B47DEF0CF075
:10196800B6EF0CF08B888B980D0E77EC0EF08B8809
:101978001200EBEF0CF03F0E3C6E21EF0DF0060E5F
:101988003C6E21EF0DF05B0E3C6E21EF0DF04F0E1B
:101998003C6E21EF0DF0660E3C6E21EF0DF06D0EE2
:1019A8003C6E21EF0DF07D0E3C6E21EF0DF0070E21
:1019B8003C6E21EF0DF07F0E3C6E21EF0DF06F0EA7
:1019C8003C6E21EF0DF0000E3C6E21EF0DF038C09B
:1019D8003AF039C03BF03B50000AD8B4F6EF0CF0AF
:1019E800E7EF0CF03A50000AD8B4BFEF0CF0010A48
:1019F800D8B4C3EF0CF0030AD8B4C7EF0CF0010A4F
:101A0800D8B4CBEF0CF0070AD8B4CFEF0CF0010A2A
:101A1800D8B4D3EF0CF0030AD8B4D7EF0CF0010A0E
:101A2800D8B4DBEF0CF00F0AD8B4DFEF0CF0010AE2
:101A3800D8B4E3EF0CF0E7EF0CF03C501200000EC6
:101A48003D6E3BBE2CEF0DF02AEF0DF032EF0DF09E
:101A58003A6C3B1ED8B03B2A010E3D6E39BE39EFB9
:101A68000DF037EF0DF03FEF0DF0386C391ED8B0A0
:101A7800392A010E3D1A000E3F6E000E3E6E3A5096
:101A88003B10D8B44AEF0DF04CEF0DF074EF0DF0A9
:101A9800010E3C6E54EF0DF0D8903A363B363C2A96
:101AA8003BAE59EF0DF05BEF0DF050EF0DF0D89015
:101AB8003E363F363A50385C3B503958D8A067EF2D
:101AC8000DF069EF0DF06EEF0DF03A50385E3B50B7
:101AD800395A3E80D8903B323A323C2E5BEF0DF0BB
:101AE8003D50D8B47AEF0DF07CEF0DF080EF0DF09B
:101AF8003E6C3F1ED8B03F2A3EC038F03FC039F098
:101B08001200000E3D6E39BE8EEF0DF08CEF0DF019
:101B180094EF0DF0386C391ED8B0392A010E3D6E9D
:101B28003BBE9BEF0DF099EF0DF09FEF0DF03A6C77
:101B38003B1ED8B03B2A3A503B10D8B4A6EF0DF064
:101B4800A8EF0DF0CCEF0DF0010E3C6EB0EF0DF0EC
:101B5800D8903A363B363C2A3BAEB5EF0DF0B7EF9E
:101B68000DF0ACEF0DF03A50385C3B503958D8A026
:101B7800C0EF0DF0C2EF0DF0C6EF0DF03A50385E31
:101B88003B50395AD8903B323A323C2EB7EF0DF0E1
:101B98003D50D8B4D2EF0DF0D4EF0DF0D8EF0DF0E2
:101BA800386C391ED8B0392A38C038F039C039F005
:101BB800120040C038F041C039F0000E3B6E0A0EEA
:101BC8003A6E85EC0DF038C043F039C044F040C09F
:101BD80038F041C039F0000E3B6E0A0E3A6E23EC25
:101BE8000DF038C045F039C046F08B98000E77EC00
:101BF8000EF08B888B98000E77EC0EF045C038F00D
:101C080046C039F0BDEC0CF0486E43C038F044C013
:101C180039F0BDEC0CF0476E4250D8B416EF0EF018
:101C280018EF0EF024EF0EF04228D8A41EEF0EF0A5
:101C380020EF0EF023EF0EF0488E24EF0EF0478EC3
:101C4800485077EC0EF0475077EC0EF08B888B9865
:101C58000D0E77EC0EF08B881200406E8B888B98F7
:101C6800300E77EC0EF08B888B98300E77EC0EF0F8
:101C780040C03EF03E3A0F0E3E16050E3F6ED8901D
:101C88003E363F2E43EF0EF03E50050977EC0EF03E
:101C98008B888B98110E77EC0EF08B888B98110E31
:101CA80077EC0EF0405077EC0EF0405077EC0EF0E9
:101CB800405077EC0EF08B888B98180E77EC0EF06E
:101CC8008B888B98180E77EC0EF0405077EC0EF05E
:101CD800405077EC0EF0405077EC0EF0405077EC27
:101CE8000EF08B8812003A6E000E3C6E8B963CC04C
:101CF80038F0010E396E382A84EF0EF0D890393654
:101D0800382E82EF0EF039503A143B6E3B50D8B45F
:101D180090EF0EF092EF0EF095EF0EF08B8A96EFA3
:101D28000EF08B9A000E3D6E3D2A040E3D649FEF27
:101D38000EF0A1EF0EF098EF0EF08B86000E3D6EC0
:101D48003D2A040E3D64ABEF0EF0ADEF0EF0A4EFAC
:101D58000EF03C2A070E3C64B4EF0EF0B6EF0EF01E
:101D68007AEF0EF01200FB0E926E9368840E946E5A
:101D7800C00E956E000E966E000E976E050E986E4C
:101D8800C29EC29CC290C18EC19CC19AC188C19694
:101D9800C184C192C190C088C190C182C184C186EA
:101DA800C188C18EC098F28E030ED312700ED31262
:101DB800000EC46E000EC36EC294C296C298C29A38
:101DC800C18CC280C282C2B2ECEF0EF0EEEF0EF010
:101DD800E7EF0EF0C19C12002AEC11F0000E396EEC
:101DE800A00EFBEC10F046C038F047C039F048C0F0
:101DF8003AF049C03BF0000E3C6E010E3D6E000EFD
:101E08003E6E000E3F6EBDEC0AF038500CEC11F03F
:101E180046500CEC11F022EC11F0010E396EA00EB8
:101E2800FBEC10F0000E37EC10F039C04AF03AC065
:101E38004BF026EC11F04AC046F04BC047F01200B8
:101E4800A50E0001606F450E616F000E626F450EB2
:101E5800636F5A0E646FF29E000E3B6E000E3A6E70
:101E6800600E3A24D96E000E3B20DA6EDF50E5ECA6
:101E780010F03A4A3B2A3BBE4BEF0FF03B5009E1CA
:101E8800050E3A5CD8A04BEF0FF04DEF0FF034EF92
:101E98000FF0F28E1AEC10F012003E6E8B98000EC6
:101EA80077EC0EF08B888B98000E77EC0EF03E04E2
:101EB800D8A461EF0FF063EF0FF06BEF0FF0000E97
:101EC80077EC0EF0BE0E77EC0EF071EF0FF0000E0F
:101ED80077EC0EF03E0E77EC0EF08B888B980D0E9B
:101EE80077EC0EF08B8812002AEC11F0000E396E98
:101EF800A00EFBEC10F046C038F047C039F048C0DF
:101F08003AF049C03BF0000E3C6E010E3D6E000EEB
:101F18003E6E000E3F6EBDEC0AF038500CEC11F02E
:101F280046500CEC11F04A500CEC11F026EC11F074
:101F38001200240EF66E220EF76E000EF86E00EEFA
:101F48004EF010EE0BF00900F5CFEEFFE550E15032
:101F5800FAE100EE60F0300EEE6AE806FDE100EE10
:101F680001F0310EEE6AE806FDE159905992000E33
:101F7800F86E000183EF01F0C294C296C298C29A2B
:101F8800C280000E396E050E386E6DEC10F0C282FC
:101F9800C2B2D1EF0FF0D3EF0FF0CCEF0FF0C35078
:101FA800C4CF3BF03C6A3BC03CF03B6A3B10096E37
:101FB8003C500A6E12002C50D8B4E5EF0FF0E7EF52
:101FC8000FF0EBEF0FF0000E2C6EEDEF0FF0010E9F
:101FD8002C6EF29E100E466E000E476E000E486E76
:101FE800000E496E2CC04AF04B6A78EC0FF0F28E66
:101FF8001200000E396E000E386E800E3824D96E2D
:10200800000E3920DA6E000EDF6E384A392A39BEE2
:1020180017EF10F0395009E1100E385CD8A017EF0F
:1020280010F019EF10F001EF10F01200000E396EE9
:10203800000E386E600E3824D96E000E3920DA6E24
:10204800000EDF6E384A392A39BE34EF10F03950A5
:1020580009E1100E385CD8A034EF10F036EF10F01C
:102068001EEF10F012003B6E96EC10F06B8696ECAB
:1020780010F06FCF3CF096EC10F03B50D8B447EF1F
:1020880010F049EF10F04CEF10F06B9A4DEF10F094
:102098006B8A6B883CC039F03A6A1200670E095C9B
:1020A800030E0A58D8B05BEF10F05DEF10F060EF48
:1020B80010F08C826CEF10F0C00E095C030E0A5809
:1020C800D8A069EF10F06BEF10F06CEF10F08C9265
:1020D800120079EF10F0030E3A6E980EE82EFED734
:1020E8003A2EFCD73806D8A0390638503910D8A46B
:1020F80080EF10F082EF10F06FEF10F01200949C58
:10210800948EAD98AD9CAD8AAC9CAC88AD9EAC86E7
:10211800AC8E7E96AD849D8A9D98190EB06E000E89
:102128007F6E12006BCF38F01F0E3816D8A49FEFC1
:1021380010F0A1EF10F096EF10F06DB4A6EF10F0CC
:10214800A8EF10F096EF10F01200ACA2AEEF10F06E
:10215800B0EF10F0B8EF10F0AC98AFCF32F0AFCFCF
:1021680032F0AC88BAEF10F0AFCF32F03250120034
:1021780080A2C1EF10F0C3EF10F0C9EF10F0000E0D
:10218800396E000E386ECDEF10F0000E396E010E6C
:10219800386E1200310ECD6E9E0ECF6E570ECE6E7B
:1021A8009E909D809F80000E256E1200958A958CCA
:1021B800280E6C6E000E6B6E270E6E6EC00E6D6E66
:1021C8001200386E38C0AEFFADA2EDEF10F0EFEFA1
:1021D80010F0E8EF10F01200326E32C0AEFFADA280
:1021E800F8EF10F0FAEF10F0F3EF10F012003A6E7B
:1021F8003AC03BF039503B2696EC10F03BC06FFFDD
:102208001200C70E776E7996798C000E766E1200E2
:10221800396E96EC10F039C06FFF12001400000000
:072228001E000000D0073F7B
:102230008F868F882EEC11F0120032EC11F08F8611
:102240008F88120096EC10F06B82120096EC10F062
:102250006B84120096EC10F06B801200080E736E07
:0C22600076841200000E736E769412005B
:067FF800AEF703FBF8F1F7
:00000001FF
