:0400000081EF01F09B
:100008005982D9CF33F0DACF34F09EAA0EEF00F040
:1000180010EF00F0E3EF00F003EC12F0366EA50EDF
:100028003618D8A41AEF00F01CEF00F03EEF00F0ED
:100038003150D8B422EF00F024EF00F02CEF00F09C
:100048002D04D8A42AEF00F02CEF00F03EEF00F0CA
:10005800010E306E000E246E000E236E800E2324D7
:10006800D96E000E2420DA6E36C0DFFF234A242A18
:10007800EDEF00F03004D8A444EF00F046EF00F0B4
:10008800EDEF00F0800E2324D96E000E2420DA6EE6
:1000980036C0DFFF245007E1050E235CD8B057EFC8
:1000A80000F059EF00F0DFEF00F05A0E3618D8A430
:1000B80060EF00F062EF00F03AEF00F000018151CC
:1000C8008225356E35508319D8A46DEF00F06FEF97
:1000D80000F0B2EF00F02D50D8B475EF00F077EFD4
:1000E80000F080EF00F0F50E8219D8A47EEF00F042
:1000F80080EF00F098EF00F0F29E000E376E800E51
:100108003724D96EDA6A000EDA22DF504AEC12F090
:10011800372A040E376493EF00F095EF00F083EF71
:1001280000F0F28EA8EF00F0F29E000E376E160E69
:100138004AEC12F0372A040E3764A5EF00F0A7EF57
:1001480000F09BEF00F0F28E010E316E000E246E6F
:10015800000E236E020E2A6EC8EF00F0000E316EFC
:10016800000E246E000E236EF29E000E376E150EE2
:100178004AEC12F0372A040E3764C5EF00F0C7EFD7
:1001880000F0BBEF00F0F28EF50E00018219D8A442
:10019800D0EF00F0D2EF00F03AEF00F0020E2A188C
:1001A800D8A4D9EF00F0DBEF00F03AEF00F0010E31
:1001B8002F6E3AEF00F0000E306E3AEF00F0ACA26E
:1001C800E8EF00F0EAEF00F0EDEF00F0AC92AC9849
:1001D800AC882504D8A4F3EF00F0F5EF00F03BEF6E
:1001E80001F055BE02EF01F055505410531008E1CC
:1001F8005204D8A002EF01F004EF01F00EEF01F075
:10020800FF0E5226FF0E5322FF0E5422FF0E5522D8
:1002180016EF01F0000E526E000E536E000E546E73
:10022800000E556E51BE23EF01F0515050104F1083
:1002380008E14E04D8A023EF01F025EF01F02FEFDD
:1002480001F0FF0E4E26FF0E4F22FF0E5022FF0E2A
:10025800512239EF01F0140E4E6E000E4F6E000E53
:10026800506E000E516E95EC11F0000E256E9EA09A
:1002780040EF01F042EF01F049EF01F09E0ECF6E22
:10028800570ECE6E9E90010E256EF0A24EEF01F035
:1002980050EF01F07BEF01F001500210D8A457EFA6
:1002A80001F059EF01F066EF01F081A85EEF01F06F
:1002B80060EF01F066EF01F0000E026E010E016EB4
:1002C8007AEF01F001040210D8A46DEF01F06FEF8E
:1002D80001F07AEF01F081A874EF01F076EF01F0F8
:1002E8007AEF01F0000E026E000E016EF09234C03B
:1002F800DAFF33C0D9FF59921100DFEF10F0F29EF8
:10030800F9EC0FF0770E73EC0FF05FEC12F034ECB1
:1003180012F0DDEC11F028EC12F0D398D39AD39CAC
:10032800D390D39294949388CA96CA98CA9ACA9C2E
:10033800FC0ECA16040ECB6ECF0EBB16BB50F00BCC
:100348000C09BB6E000EBC6ECA848B9289941E0E7B
:10035800526E000E536E000E546E000E556ED08E07
:100368009F8AF28EF28E8C808C82000E416E250E52
:10037800406EFF0E426E1FEC0FF0060E0001976FE5
:10038800130E966FAD0EE82EFED7962FFCD7972F3B
:10039800FAD700D021EC11F0F29E100E466E000E36
:1003A800476E000E486E000E496E32EC10F046C0E3
:1003B8001DF047C01EF0F28E1DC02CF0010E2C64FB
:1003C800E8EF01F0EAEF01F0FBEF01F0010E2C6E0F
:1003D800F29E100E466E000E476E000E486E000E1E
:1003E800496E2CC04AF04B6ABAEC10F0F28E000E3F
:1003F800146E010E136E13C040F014C041F02CC0EF
:1004080042F01FEC0FF0000E106E010E0F6EF29E00
:10041800200E466E000E476E000E486E000E496EA6
:1004280032EC10F046C01DF047C01EF0F28E1D5091
:10043800176E186A185009E1310E175CD8A027EF1B
:1004480002F029EF02F034EF02F0185009E13B0EF8
:10045800175CD8A032EF02F034EF02F048EF02F058
:10046800000E186E310E176EF29E200E466E000EAC
:10047800476E000E486E000E496E17C04AF018C04D
:100488004BF0BAEC10F0F28EF29E600E466E000E43
:10049800476E000E486E000E496E32EC10F046C0F2
:1004A8001DF047C01EF0F28E1DC029F02F0E2964E2
:1004B80060EF02F062EF02F06AEF02F0350E296495
:1004C80068EF02F06AEF02F0A7EF02F0300E296E33
:1004D800000E166E000E156EF29E600E466E000E31
:1004E800476E000E486E000E496E29C04AF04B6AEE
:1004F800BAEC10F0F28ECDEF02F0000E166E000E80
:10050800156E300E296ECDEF02F0030E166EE80E52
:10051800156ECDEF02F0070E166ED00E156ECDEFEC
:1005280002F00B0E166EB80E156ECDEF02F00F0E20
:10053800166EA00E156ECDEF02F0130E166E880E15
:10054800156ECDEF02F029500001966F976B975109
:10055800000AD8B4B2EF02F081EF02F09651300AE7
:10056800D8B481EF02F0010AD8B489EF02F0030A87
:10057800D8B48FEF02F0010AD8B495EF02F0070A59
:10058800D8B49BEF02F0010AD8B4A1EF02F081EFD2
:1005980002F0F29E500E466E000E476E000E486E38
:1005A800000E496E32EC10F046C01DF047C01EF038
:1005B800F28E1DC027F0960E2764E5EF02F0E7EFF4
:1005C80002F0FEEF02F0000E276EF29E500E466E0D
:1005D800000E476E000E486E000E496E27C04AF0A6
:1005E8004B6ABAEC10F0F28E000E1A6E000E196EFD
:1005F80001EF03F027C019F01A6AF29E400E466E0A
:10060800000E476E000E486E000E496E32EC10F078
:1006180046C01DF047C01EF0F28E1DC028F0810EA6
:100628002818D8B41AEF03F01CEF03F077EF03F0A3
:10063800820E2818D8B423EF03F025EF03F077EFE4
:1006480003F0830E2818D8B42CEF03F02EEF03F034
:1006580077EF03F0840E2818D8B435EF03F037EF9E
:1006680003F077EF03F0850E2818D8B43EEF03F0B7
:1006780040EF03F077EF03F0070E576ED00E566E7B
:10068800820E286EF29E400E466E000E476E000ED9
:10069800486E000E496E28C04AF04B6ABAEC10F05A
:1006A800F28E99EF03F0030E576EE80E566E99EF2F
:1006B80003F0070E576ED00E566E820E286E99EF15
:1006C80003F00B0E576EB80E566E99EF03F00F0E2F
:1006D800576EA00E566E99EF03F0130E576E880EE4
:1006E800566E99EF03F028500001966F976B97515B
:1006F800000AD8B482EF03F05DEF03F09651810A47
:10070800D8B457EF03F0030AD8B45DEF03F0010A39
:10071800D8B465EF03F0070AD8B46BEF03F0010A09
:10072800D8B471EF03F05DEF03F03F0E586EF29E00
:10073800300E466E000E476E000E486E000E496E73
:1007480032EC10F046C01DF047C01EF0F28E1DC0FE
:1007580058F05850D8B4B3EF03F0B5EF03F0D8EF22
:1007680003F03F0E5818D8B4BCEF03F0BEEF03F007
:10077800D8EF03F07F0E5818D8B4C5EF03F0C7EFD1
:1007880003F0D8EF03F03F0E586EF29E300E466E1F
:10079800000E476E000E486E000E496E58C04AF0B3
:1007A8004B6ABAEC10F0F28E1E0E526E000E536EAB
:1007B800000E546E000E556E07EC0CF08C92F29EF3
:1007C800700E466E000E476E000E486E000E496EA3
:1007D80032EC10F046C01DF047C01EF0F28E1D50DE
:1007E800076E086A07500810D8B4FDEF03F0FFEF52
:1007F80003F04AEF04F007040810D8B406EF04F039
:1008080008EF04F04AEF04F0020E07180810D8B4F5
:1008180010EF04F012EF04F04AEF04F0030E07188B
:100828000810D8B41AEF04F01CEF04F04AEF04F0F3
:10083800000E086E000E076EF29E700E466E000ED9
:10084800476E000E486E000E496E07C04AF008C099
:100858004BF0BAEC10F0F28E69EF04F0000E066E61
:10086800000E056E69EF04F0000E066E090E056EA7
:1008780069EF04F0000E066E0E0E056E69EF04F0C7
:10088800000E066E140E056E69EF04F007C096F0B0
:1008980008C097F000019751000AD8B456EF04F049
:1008A80032EF04F09651000AD8B432EF04F0010A8E
:1008B800D8B438EF04F0030AD8B43EEF04F0010AC4
:1008C800D8B444EF04F032EF04F005C038F006C0A5
:1008D80039F0B0EC11F004001E0E526E000E536E8B
:1008E800000E546E000E556E21EC11F045EF08F025
:1008F8000FC013F010C014F081B885EF04F087EF33
:1009080004F0B8EF04F007C04CF008C04DF00DEC4F
:100918000DF04CC005F04DC006F0700E466E000E8E
:10092800476E000E486E000E496E32EC10F046C05D
:1009380007F047C008F002EC11F02C5093EC10F0CF
:10094800020E0001976F040E966FBA0EE82EFED7BE
:10095800962FFCD7972FFAD700F081A8B6EF04F0AE
:10096800B8EF04F0B1EF04F081B6BDEF04F0BFEFCB
:1009780004F034EF05F0630E13181410D8B4C7EF61
:1009880004F0C9EF04F034EF05F0010E1324136EE0
:10099800000E1420146E13C040F014C041F02CC097
:1009A80042F01FEC0FF0030E0001976F8A0E966F4E
:1009B800550EE82EFED7962FFCD7972FFAD700D0E2
:1009C8002DEF05F00B0E0001976F260E966F5D0E4A
:1009D800E82EFED7962FFCD7972FFAD700D081B6EE
:1009E800F8EF04F0FAEF04F013EF05F0145007E104
:1009F8005A0E135CD8B003EF05F005EF05F013EFBE
:100A080005F00A0E1324136E000E1420146E13C082
:100A180040F014C041F02CC042F01FEC0FF081B63A
:100A280018EF05F01AEF05F02DEF05F080BA1FEF6B
:100A380005F021EF05F02DEF05F0000E146E000E05
:100A4800136E13C040F014C041F02CC042F01FECEC
:100A58000FF081A632EF05F034EF05F0E6EF04F071
:100A680080BA39EF05F03BEF05F0AFEF05F0135012
:100A78001410D8B442EF05F044EF05F0AFEF05F0DD
:100A8800FF0E1324136EFF0E1420146E13C040F0D3
:100A980014C041F02CC042F01FEC0FF0030E00010F
:100AA800976F8A0E966F550EE82EFED7962FFCD7B5
:100AB800972FFAD700D0A8EF05F00B0E0001976F1B
:100AC800260E966F5D0EE82EFED7962FFCD7972F31
:100AD800FAD700D080BA73EF05F075EF05F08EEF06
:100AE80005F0145009E10A0E135CD8A07EEF05F05A
:100AF80080EF05F08EEF05F0F60E1324136EFF0E4F
:100B08001420146E13C040F014C041F02CC042F001
:100B18001FEC0FF080BA93EF05F095EF05F0A8EF02
:100B280005F081B69AEF05F09CEF05F0A8EF05F007
:100B3800000E146E000E136E13C040F014C041F086
:100B48002CC042F01FEC0FF080AAADEF05F0AFEF1C
:100B580005F061EF05F080B8B4EF05F0B6EF05F0E9
:100B6800CEEF05F0145007E15A0E135CD8B0BFEF72
:100B780005F0C1EF05F0CEEF05F00A0E1324136E51
:100B8800000E1420146E80A8CCEF05F0CEEF05F00F
:100B9800C7EF05F080B6D3EF05F0D5EF05F0EDEF20
:100BA80005F0145009E10A0E135CD8A0DEEF05F039
:100BB800E0EF05F0EDEF05F0F60E1324136EFF0ECF
:100BC8001420146E80A6EBEF05F0EDEF05F0E6EFCC
:100BD80005F013C00FF014C010F013C040F014C09B
:100BE80041F02CC042F01FEC0FF001040210D8A411
:100BF80000EF06F002EF06F012EF06F0010E2D6E80
:100C08001E0E526E000E536E000E546E000E556E80
:100C18005DEC08F0000E2F6E000E2D6E3104D8A486
:100C280018EF06F01AEF06F041EF08F017EF08F09A
:100C3800F10E8219D8A423EF06F025EF06F041EF54
:100C480006F02D50D8A42BEF06F02DEF06F041EF5B
:100C580006F0000E2F6E010E2D6E0FC013F010C09F
:100C680014F01E0E526E000E536E000E546E000EDF
:100C7800556E6EEC0AF09FEF06F0F20E8219D8A4BA
:100C880048EF06F04AEF06F09FEF06F02D50D8A483
:100C980050EF06F052EF06F09FEF06F0000E2F6EB1
:100CA800010E2D6E0FC013F010C014F013C040F0E9
:100CB80014C041F02CC042F01FEC0FF01E0E526E13
:100CC800000E536E000E546E000E556E5DEC08F06B
:100CD8002F50D8A472EF06F074EF06F09FEF06F0DD
:100CE800A50E0001606F440E616FF90E626F3D0E34
:100CF800636F5A0E646FF29E000E0E6E000E0D6E3C
:100D08000E5009E1050E0D5CD8A08DEF06F08FEFAF
:100D180006F091EF06F09EEF06F0600E0D24D96EF6
:100D2800000E0E20DA6EDF503FEC12F00D4A0E2A4C
:100D380084EF06F0F28E40EC11F05DEC11F0000E3D
:100D48002F6E000E2D6E39EF08F02D50D8A4AFEF9E
:100D580006F0B1EF06F039EF08F0010E2D6E82C0F3
:100D680029F0DDEF06F0000E166E000E156E300E3F
:100D7800296E02EF07F0030E166EE80E156E02EFED
:100D880007F0070E166ED00E156E02EF07F00B0E69
:100D9800166EB80E156E02EF07F00F0E166EA00E47
:100DA800156E02EF07F0130E166E880E156E02EF21
:100DB80007F02950966F976B9751000AD8B4E7EF60
:100DC80006F0B7EF06F09651300AD8B4B7EF06F040
:100DD800010AD8B4BFEF06F0030AD8B4C5EF06F08D
:100DE800010AD8B4CBEF06F0070AD8B4D1EF06F061
:100DF800010AD8B4D7EF06F0B7EF06F0F29E600EFE
:100E0800466E000E476E000E486E000E496E29C0F1
:100E18004AF04B6ABAEC10F0F28E40EC11F0A5EFF4
:100E280006F02D50D8A41BEF07F01DEF07F039EF9F
:100E380008F08251D8A423EF07F025EF07F093EFCD
:100E480007F0010E2D6EF29E600E466E000E476E84
:100E5800000E486E000E496E32EC10F04650296EB6
:100E6800400E466E000E476E000E486E000E496E2C
:100E780032EC10F04650286E300E466E000E476E6B
:100E8800000E486E000E496E32EC10F046C01BF0A2
:100E980047C01CF0500E466E000E476E000E486E9E
:100EA800000E496E32EC10F04650276EF28E510E4D
:100EB8000001606F29C061F01BC062F028C063F0B8
:100EC80027C064F0020E0001976F040E966FBA0EE9
:100ED800E82EFED7962FFCD7972FFAD700F0F29E70
:100EE800000E0E6E000E0D6E0E5009E1050E0D5C23
:100EF800D8A081EF07F083EF07F085EF07F092EFB6
:100F080007F0600E0D24D96E000E0E20DA6EDF5049
:100F18003FEC12F00D4A0E2A78EF07F0F28E5DECE6
:100F280011F0A5EF06F02D50D8A49DEF07F09FEF24
:100F380007F0F7EF07F0010E2D6E82C028F0C5EF1D
:100F480007F0030E576EE80E566EE6EF07F0070E31
:100F5800576ED00E566E820E286EE6EF07F00B0E17
:100F6800576EB80E566EE6EF07F00F0E576EA00ECE
:100F7800566EE6EF07F0130E576E880E566EE6EFC4
:100F880007F02850966F976B9751000AD8B4CFEFA7
:100F980007F0ABEF07F09651810AD8B4A5EF07F038
:100FA800030AD8B4ABEF07F0010AD8B4B3EF07F0DF
:100FB800070AD8B4B9EF07F0010AD8B4BFEF07F0B1
:100FC800ABEF07F0F29E400E466E000E476E000E25
:100FD800486E000E496E28C04AF04B6ABAEC10F011
:100FE800F28E000E2D6E2D50D8A4FDEF07F0FFEF06
:100FF80007F039EF08F0010E2D6E82C027F027C0E8
:1010080019F01A6AF29E500E466E000E476E000ED8
:10101800486E000E496E27C04AF04B6ABAEC10F0D1
:10102800F28EA5EF06F000018151966F976B9751EC
:10103800000AD8B422EF08F039EF08F09651230AD5
:10104800D8B4A9EF06F0670AD8B41CEF06F0150A61
:10105800D8B415EF07F0340AD8B497EF07F0030AAD
:10106800D8B4F7EF07F039EF08F0000E316E000E34
:10107800306E000E2A6E69EF04F0000E2A6E69EFDA
:1010880004F02A500001966F976B9751000AD8B464
:1010980050EF08F069EF04F09651000AD8B47CEFDD
:1010A80004F0020AD8B412EF06F069EF04F081EFF9
:1010B80001F02C04D8A463EF08F065EF08F07AEF8C
:1010C80008F08B8256C038F057C039F0C7EC11F0E1
:1010D8008B92040E4A6E0C0E496E340EE82EFED723
:1010E800492EFCD74A2EFAD77DEF08F08B926DEF88
:1010F80008F0898413501410D8A485EF08F087EFFE
:1011080008F08DEF08F0000E126E010E116E17EF49
:101118000AF0000E126E000E116E17EF0AF00400AE
:1011280066EC10F021EC11F015C038F016C039F05B
:10113800C7EC11F072EC12F0040E4A6E8E0E496E76
:10114800120EE82EFED7492EFCD74A2EFAD700D029
:101158001E0E526E000E536E000E546E000E556E2B
:1011680016EC12F038C00BF039C00CF05250531086
:1011780054105510D8A4C3EF08F0C5EF08F0CAEF13
:1011880008F0310E8BEC0DF077EC12F00B500C10D0
:10119800D8A4D1EF08F0D3EF08F0B4EF08F04E0E62
:1011A800496EEB0EE82EFED7492EFCD700F01E0E36
:1011B800526E000E536E000E546E000E556E16ECF5
:1011C80012F038C00BF039C00CF0525053105410C4
:1011D8005510D8A4F2EF08F0F4EF08F0F9EF08F092
:1011E800320E8BEC0DF077EC12F00B040C10D8A437
:1011F80000EF09F002EF09F0E3EF08F01E0E526E5F
:10120800000E536E000E546E000E556E19C038F065
:101218001AC039F0C7EC11F077EC12F01350141023
:10122800D8B419EF09F01BEF09F027EF09F0110402
:101238001210D8B422EF09F024EF09F027EF09F0D3
:101248001306D8A0140613C040F014C041F02CC0F7
:1012580042F01FEC0FF02C04D8A435EF09F037EF5B
:1012680009F05EEF09F013501410D8A43EEF09F00E
:1012780040EF09F049EF09F011041210D8A447EF24
:1012880009F049EF09F05EEF09F08B8256C038F09B
:1012980057C039F0C7EC11F08B92040E4A6E0C0E51
:1012A800496E340EE82EFED7492EFCD74A2EFAD7BF
:1012B8009EEF09F02C50D8A464EF09F066EF09F00E
:1012C8009EEF09F013501410D8A46DEF09F06FEFDA
:1012D80009F078EF09F011041210D8A476EF09F09C
:1012E80078EF09F09EEF09F08B9213501410D8A4F0
:1012F80080EF09F082EF09F08BEF09F0110412106A
:10130800D8A489EF09F08BEF09F093EF09F056C0E4
:1013180038F057C039F0C7EC11F09EEF09F0060E0F
:101328004A6E130E496EAE0EE82EFED7492EFCD734
:101338004A2EFAD72F04D8A4A4EF09F0A6EF09F093
:10134800D3EF09F029EF0AF0000E126E020E116EAB
:1013580013C040F014C041F02C50D8B4B6EF09F0D7
:10136800B9EF09F0010EBAEF09F0000E426E1FEC5A
:101378000FF0820E496EDE0EE82EFED7492EFCD7FE
:1013880013C040F014C041F02CC042F01FEC0FF025
:10139800820E496EDE0EE82EFED7492EFCD701508C
:1013A8000210D8A4DAEF09F0DCEF09F0EEEF09F04B
:1013B80011041210D8B4E3EF09F0E5EF09F0A8EF33
:1013C80009F011501210D8B4ECEF09F0EEEF09F063
:1013D800A8EF09F013C040F014C041F02CC042F04F
:1013E8001FEC0FF001500210D8A4FDEF09F0FFEF39
:1013F80009F010EF0AF013501410D8B406EF0AF0F1
:1014080008EF0AF010EF0AF013C00FF014C010F044
:10141800000E146E000E136E820E496EDE0EE82E5C
:10142800FED7492EFCD713501410D8A41EEF0AF08B
:1014380020EF0AF093EF08F011041210D8B427EF48
:101448000AF029EF0AF093EF08F08994135014106A
:10145800D8B431EF0AF033EF0AF03BEF0AF02F046B
:10146800D8A439EF0AF03BEF0AF05FEF0AF0115009
:101478001210D8A442EF0AF044EF0AF05FEF0AF026
:101488002C04D8A44AEF0AF04CEF0AF05FEF0AF0F8
:101498008B8256C038F057C039F0C7EC11F08B92E8
:1014A800040E4A6E0C0E496E340EE82EFED7492EF5
:1014B800FCD74A2EFAD7000E126E000E116E000EDF
:1014C800146E000E136E000E026E000E016E000EFA
:1014D8002A6E1200000E0C6E000E0B6E410E8DEC83
:1014E8000CF02C04D8A47BEF0AF07DEF0AF092EF01
:1014F8000AF08B8256C038F057C039F0C7EC11F0AB
:101508008B92040E426E0C0E416E340EE82EFED7FE
:10151800412EFCD7422EFAD795EF0AF08B9285EF31
:101528000AF0898445EF0BF0040066EC10F021EC1A
:1015380011F015C038F016C039F0C7EC11F072EC94
:1015480012F0040E426E8E0E416E120EE82EFED779
:10155800412EFCD7422EFAD700D01E0E526E000E36
:10156800536E000E546E000E556E16EC12F038C015
:101578000BF039C00CF05250531054105510D8A429
:10158800C8EF0AF0CAEF0AF0CFEF0AF0310E8BEC81
:101598000DF077EC12F00B500C10D8A4D6EF0AF02F
:1015A800D8EF0AF0B9EF0AF04E0E416EEB0EE82EB6
:1015B800FED7412EFCD700F01E0E526E000E536E61
:1015C800000E546E000E556E16EC12F038C00BF07B
:1015D80039C00CF05250531054105510D8A4F7EFDE
:1015E8000AF0F9EF0AF0FEEF0AF0320E8BEC0DF07C
:1015F80077EC12F00B040C10D8A405EF0BF007EFF2
:101608000BF0E8EF0AF01E0E526E000E536E000E3D
:10161800546E000E556E19C038F01AC039F0C7EC78
:1016280011F077EC12F02C04D8A41DEF0BF01FEF8B
:101638000BF034EF0BF08B8256C038F057C039F0FE
:10164800C7EC11F08B92040E426E0C0E416E340EF4
:10165800E82EFED7412EFCD7422EFAD73BEF0BF0EF
:101668008B9256C038F057C039F0C7EC11F02F04F0
:10167800D8A441EF0BF043EF0BF045EF0BF04DEF23
:101688000BF02F50D8B44BEF0BF04DEF0BF098EF59
:101698000AF0899413501410D8B455EF0BF057EF93
:1016A8000BF05FEF0BF02F04D8A45DEF0BF05FEFAA
:1016B8000BF07AEF0BF02C04D8A465EF0BF067EF72
:1016C8000BF07AEF0BF08B8256C038F057C039F028
:1016D800C7EC11F08B92040E426E0C0E416E340E64
:1016E800E82EFED7412EFCD7422EFAD7000E146EF4
:1016F800000E136E020E2A6E1200000E416E3FBEDF
:101708008AEF0BF088EF0BF094EF0BF03F1E3E1EB4
:101718003D1E3C6C000E3D223E223F22010E416ED2
:101728003BBE9BEF0BF099EF0BF0A5EF0BF03B1EC8
:101738003A1E391E386C000E39223A223B22010E1D
:10174800411A000E426E000E436E000E446E000EEB
:10175800456E3C503D103E103F10D8B4B6EF0BF02C
:10176800B8EF0BF0EEEF0BF0010E406EC2EF0BF08E
:10177800D8903C363D363E363F36402A3FAEC7EF1E
:101788000BF0C9EF0BF0BCEF0BF0D89042364336A4
:10179800443645363C50385C3D5039583E503A58EE
:1017A8003F503B58D8A0DBEF0BF0DDEF0BF0E6EF36
:1017B8000BF03C50385E3D50395A3E503A5A3F5033
:1017C8003B5A4280D8903F323E323D323C32402E26
:1017D800C9EF0BF04150D8B4F4EF0BF0F6EF0BF073
:1017E800FEEF0BF0451E441E431E426C000E4322C2
:1017F8004422452242C038F043C039F044C03AF090
:1018080045C03BF01200898472EC12F0040E426E5F
:101818008E0E416E120EE82EFED7412EFCD7422EB8
:10182800FAD700D01E0E526E000E536E000E546E84
:10183800000E556E16EC12F038C00BF039C00CF0E3
:101848005250531054105510D8A42DEF0CF02FEF10
:101858000CF034EF0CF0310E8BEC0DF077EC12F04D
:101868000B500C10D8A43BEF0CF03DEF0CF01EEF22
:101878000CF04E0E416EEB0EE82EFED7412EFCD733
:1018880000F01E0E526E000E536E000E546E000EC7
:10189800556E16EC12F038C00BF039C00CF05250EF
:1018A800531054105510D8A45CEF0CF05EEF0CF0F8
:1018B80063EF0CF0320E8BEC0DF077EC12F00B04AA
:1018C8000C10D8A46AEF0CF06CEF0CF04DEF0CF094
:1018D8001E0E526E000E536E000E546E000E556EA4
:1018E80019C038F01AC039F0C7EC11F077EC12F0D3
:1018F800060E426E130E416EAE0EE82EFED7412E36
:10190800FCD7422EFAD7000E0C6E000E0B6E89948F
:101918001200406E8B98000EB9EC0FF08B888B98F4
:10192800000EB9EC0FF0D9EF0CF0790EB9EC0FF00E
:101938003F0EB9EC0FF006EF0DF03F0EB9EC0FF0CB
:10194800730EB9EC0FF006EF0DF0390EB9EC0FF08D
:10195800770EB9EC0FF006EF0DF0000EB9EC0FF0B2
:10196800000EB9EC0FF006EF0DF0000EB9EC0FF019
:101978003F0EB9EC0FF006EF0DF0790EB9EC0FF051
:10198800060EB9EC0FF006EF0DF0770EB9EC0FF07C
:101998003E0EB9EC0FF006EF0DF0000EB9EC0FF0AB
:1019A8003E0EB9EC0FF006EF0DF040503E6E3F6A68
:1019B8003F50000AD8B4E3EF0CF006EF0DF03E50AC
:1019C800410AD8B4C9EF0CF0020AD8B4A9EF0CF058
:1019D800060AD8B499EF0CF0020AD8B4B9EF0CF0A3
:1019E800080AD8B4A1EF0CF01C0AD8B4C1EF0CF067
:1019F800050AD8B4D1EF0CF00E0AD8B4B1EF0CF048
:101A080006EF0DF08B888B980D0EB9EC0FF08B88D4
:101A1800120067EF0DF0000E956F090E946FF29E9D
:101A2800700E466E000E476E000E486E000E496E30
:101A3800000E4B6E010E4A6EBAEC10F0F28E86EF75
:101A48000DF0000E956F0E0E946FF29E700E466E9E
:101A5800000E476E000E486E000E496E000E4B6E6B
:101A6800020E4A6EBAEC10F0F28E86EF0DF0000E00
:101A7800956F140E946FF29E700E466E000E476EB0
:101A8800000E486E000E496E000E4B6E030E4A6E35
:101A9800BAEC10F0F28E86EF0DF0000E956F000E86
:101AA800946FF29E700E466E000E476E000E486EE2
:101AB800000E496E000E4B6E000E4A6EBAEC10F026
:101AC800F28E86EF0DF04CC092F04DC093F00001FD
:101AD8009351000AD8B473EF0DF086EF0DF09251D0
:101AE800000AD8B40FEF0DF0010AD8B425EF0DF0B5
:101AF800030AD8B43BEF0DF0010AD8B451EF0DF04A
:101B080086EF0DF094C04CF095C04DF01200406E79
:101B18008B98000EB9EC0FF08B888B98000EB9ECFF
:101B28000FF0CFEF0DF0790EB9EC0FF0770EB9EC9E
:101B38000FF0F8EF0DF0790EB9EC0FF03F0EB9EC9D
:101B48000FF0F8EF0DF0790EB9EC0FF0060EB9ECC6
:101B58000FF0F8EF0DF0790EB9EC0FF05B0EB9EC61
:101B68000FF0F8EF0DF0000EB9EC0FF03F0EB9ECE6
:101B78000FF0F8EF0DF0790EB9EC0FF0060EB9EC96
:101B88000FF0F8EF0DF0770EB9EC0FF03E0EB9EC50
:101B98000FF0F8EF0DF040503E6E3F6A3F50000ADC
:101BA800D8B4D9EF0DF0F8EF0DF03E50300AD8B4A4
:101BB8009FEF0DF0010AD8B4A7EF0DF0030AD8B4CF
:101BC800AFEF0DF0730AD8B4C7EF0DF0040AD8B41C
:101BD80097EF0DF0020AD8B4B7EF0DF0140AD8B495
:101BE800BFEF0DF0F8EF0DF08B888B980D0EB9EC68
:101BF8000FF08B8812002DEF0EF03F0E3C6E63EF56
:101C08000EF0060E3C6E63EF0EF05B0E3C6E63EF5B
:101C18000EF04F0E3C6E63EF0EF0660E3C6E63EFF7
:101C28000EF06D0E3C6E63EF0EF07D0E3C6E63EFB2
:101C38000EF0070E3C6E63EF0EF07F0E3C6E63EF06
:101C48000EF06F0E3C6E63EF0EF0000E3C6E63EF0D
:101C58000EF038C03AF039C03BF03B50000AD8B417
:101C680038EF0EF029EF0EF03A50000AD8B401EF21
:101C78000EF0010AD8B405EF0EF0030AD8B409EF44
:101C88000EF0010AD8B40DEF0EF0070AD8B411EF20
:101C98000EF0010AD8B415EF0EF0030AD8B419EF04
:101CA8000EF0010AD8B41DEF0EF00F0AD8B421EFD8
:101CB8000EF0010AD8B425EF0EF029EF0EF03C50D3
:101CC8001200000E3D6E3BBE6EEF0EF06CEF0EF094
:101CD80074EF0EF03A6C3B1ED8B03B2A010E3D6EF5
:101CE80039BE7BEF0EF079EF0EF081EF0EF0386C15
:101CF800391ED8B0392A010E3D1A000E3F6E000E6B
:101D08003E6E3A503B10D8B48CEF0EF08EEF0EF0CA
:101D1800B6EF0EF0010E3C6E96EF0EF0D8903A3604
:101D28003B363C2A3BAE9BEF0EF09DEF0EF092EF58
:101D38000EF0D8903E363F363A50385C3B50395812
:101D4800D8A0A9EF0EF0ABEF0EF0B0EF0EF03A50BE
:101D5800385E3B50395A3E80D8903B323A323C2E5E
:101D68009DEF0EF03D50D8B4BCEF0EF0BEEF0EF074
:101D7800C2EF0EF03E6C3F1ED8B03F2A3EC038F08E
:101D88003FC039F01200000E3D6E39BED0EF0EF0A4
:101D9800CEEF0EF0D6EF0EF0386C391ED8B0392AD7
:101DA800010E3D6E3BBEDDEF0EF0DBEF0EF0E1EF16
:101DB8000EF03A6C3B1ED8B03B2A3A503B10D8B4D0
:101DC800E8EF0EF0EAEF0EF00EEF0FF0010E3C6EAA
:101DD800F2EF0EF0D8903A363B363C2A3BAEF7EF9E
:101DE8000EF0F9EF0EF0EEEF0EF03A50385C3B5083
:101DF8003958D8A002EF0FF004EF0FF008EF0FF0FA
:101E08003A50385E3B50395AD8903B323A323C2EE1
:101E1800F9EF0EF03D50D8B414EF0FF016EF0FF0B5
:101E28001AEF0FF0386C391ED8B0392A38C038F09C
:101E380039C039F0120040C038F041C039F0000E06
:101E48003B6E0A0E3A6EC7EC0EF038C043F039C04C
:101E580044F040C038F041C039F0000E3B6E0A0E25
:101E68003A6E65EC0EF038C045F039C046F08B98F4
:101E7800000EB9EC0FF08B888B98000EB9EC0FF0C0
:101E880045C038F046C039F0FFEC0DF0486E43C04D
:101E980038F044C039F0FFEC0DF0476E4250D8B42A
:101EA80058EF0FF05AEF0FF066EF0FF04228D8A462
:101EB80060EF0FF062EF0FF065EF0FF0488E66EFFE
:101EC8000FF0478E4850B9EC0FF04750B9EC0FF0BF
:101ED8008B888B980D0EB9EC0FF08B881200406E32
:101EE8008B888B98300EB9EC0FF08B888B98300E5E
:101EF800B9EC0FF040C03EF03E3A0F0E3E16050E0C
:101F08003F6ED8903E363F2E85EF0FF03E500509C4
:101F1800B9EC0FF08B888B98110EB9EC0FF08B8809
:101F28008B98110EB9EC0FF04050B9EC0FF04050FF
:101F3800B9EC0FF04050B9EC0FF08B888B98180E65
:101F4800B9EC0FF08B888B98180EB9EC0FF0405055
:101F5800B9EC0FF04050B9EC0FF04050B9EC0FF06D
:101F68004050B9EC0FF08B8812003A6E000E3C6EB0
:101F78008B963CC038F0010E396E382AC6EF0FF048
:101F8800D8903936382EC4EF0FF039503A143B6EDA
:101F98003B50D8B4D2EF0FF0D4EF0FF0D7EF0FF0DB
:101FA8008B8AD8EF0FF08B9A000E3D6E3D2A040EF7
:101FB8003D64E1EF0FF0E3EF0FF0DAEF0FF08B86FF
:101FC800000E3D6E3D2A040E3D64EDEF0FF0EFEF7D
:101FD8000FF0E6EF0FF03C2A070E3C64F6EF0FF027
:101FE800F8EF0FF0BCEF0FF01200FB0E926E936843
:101FF800840E946EC00E956E000E966E000E976E4F
:10200800050E986EC29EC29CC290C18EC19CC19A98
:10201800C188C196C184C192C190C088C190C18253
:10202800C184C186C188C18EC098F28E030ED312B6
:10203800700ED312000EC46E000EC36EC294C29608
:10204800C298C29AC18CC280C282C2B22EEF10F06E
:1020580030EF10F029EF10F0C19C120084EC12F060
:10206800000E396EA00E55EC12F046C038F047C08D
:1020780039F048C03AF049C03BF0000E3C6E010E02
:102088003D6E000E3E6E000E3F6E81EC0BF0385038
:1020980066EC12F0465066EC12F07CEC12F0010E81
:1020A800396EA00E55EC12F0000E7AEC11F039C022
:1020B8004AF03AC04BF080EC12F04AC046F04BC0F0
:1020C80047F01200A50E0001606F450E616F000E0B
:1020D800626F450E636F5A0E646FF29E000E3B6E80
:1020E800000E3A6E600E3A24D96E000E3B20DA6E6E
:1020F800DF503FEC12F03A4A3B2A3BBE8DEF10F01E
:102108003B5009E1050E3A5CD8A08DEF10F08FEF37
:1021180010F076EF10F0F28E5DEC11F012003E6ECA
:102128008B98000EB9EC0FF08B888B98000EB9ECE9
:102138000FF03E04D8A4A3EF10F0A5EF10F0ADEF18
:1021480010F0000EB9EC0FF0BE0EB9EC0FF0B3EFC3
:1021580010F0000EB9EC0FF03E0EB9EC0FF08B88C2
:102168008B980D0EB9EC0FF08B88120084EC12F0EE
:10217800000E396EA00E55EC12F046C038F047C07C
:1021880039F048C03AF049C03BF0000E3C6E010EF1
:102198003D6E000E3E6E000E3F6E81EC0BF0385027
:1021A80066EC12F0465066EC12F04A5066EC12F0FB
:1021B80080EC12F01200D80EF66E240EF76E000EA8
:1021C800F86E00EE4EF010EE0BF00900F5CFEEFFC2
:1021D800E550E150FAE100EE60F0320EEE6AE806F2
:1021E800FDE100EE01F0310EEE6AE806FDE15990DE
:1021F8005992000EF86E000183EF01F007500810A5
:10220800D8A409EF11F00BEF11F00FEF11F0000E49
:102218002C6E11EF11F0010E2C6EF29E100E466E10
:10222800000E476E000E486E000E496E2CC04AF034
:102238004B6ABAEC10F0F28E1200C294C296C298A1
:10224800C29AC280000E396E050E386EC7EC11F0C6
:10225800C282C2B232EF11F034EF11F02DEF11F05B
:10226800C350C4CF3BF03C6A3BC03CF03B6A3B10D8
:10227800096E3C500A6E1200000E396E000E386E60
:10228800800E3824D96E000E3920DA6E000EDF6E0B
:10229800384A392A39BE5AEF11F0395009E1100E7F
:1022A800385CD8A05AEF11F05CEF11F044EF11F050
:1022B8001200000E396E000E386E600E3824D96E8A
:1022C800000E3920DA6E000EDF6E384A392A39BE20
:1022D80077EF11F0395009E1100E385CD8A077EF8C
:1022E80011F079EF11F061EF11F012003B6EF0EC94
:1022F80011F06B86F0EC11F06FCF3CF0F0EC11F0C0
:102308003B50D8B48AEF11F08CEF11F08FEF11F039
:102318006B9A90EF11F06B8A6B883CC039F03A6A7F
:102328001200670E095C030E0A58D8B09EEF11F030
:10233800A0EF11F0A3EF11F08C82AFEF11F0C00EF7
:10234800095C030E0A58D8A0ACEF11F0AEEF11F0FB
:10235800AFEF11F08C92120038C03AF0030E3A1623
:102368003A3ABB503A18CF0B3A18BB6E38C03AF01D
:1023780039C03BF0D8903B323A32D8903B323A32AF
:102388003A50BC6E1200D3EF11F0030E3A6E980E5D
:10239800E82EFED73A2EFCD73806D8A03906385092
:1023A8003910D8A4DAEF11F0DCEF11F0C9EF11F011
:1023B8001200949C948EAD98AD9CAD8AAC9CAC8870
:1023C800AD9EAC86AC8E7E96AD849D8A9D98190E86
:1023D800B06E000E7F6E12006BCF38F01F0E3816ED
:1023E800D8A4F9EF11F0FBEF11F0F0EF11F06DB494
:1023F80000EF12F002EF12F0F0EF11F01200ACA2B1
:1024080008EF12F00AEF12F012EF12F0AC98AFCF0B
:1024180032F0AFCF32F0AC8814EF12F0AFCF32F019
:102428003250120080A21BEF12F01DEF12F023EFC2
:1024380012F0000E396E000E386E27EF12F0000E03
:10244800396E010E386E1200310ECD6E9E0ECF6EB3
:10245800570ECE6E9E909D809F80000E256E1200B6
:10246800958A958C280E6C6E000E6B6E270E6E6E1C
:10247800C00E6D6E1200386E38C0AEFFADA247EFC9
:1024880012F049EF12F042EF12F01200326E32C031
:10249800AEFFADA252EF12F054EF12F04DEF12F072
:1024A80012003A6E3AC03BF039503B26F0EC11F07E
:1024B8003BC06FFF1200C70E776E7996798C000EBD
:1024C800766E1200396EF0EC11F039C06FFF120011
:0B24D800140000001E000000D0073FB1
:1024E4008F868F8888EC12F012008CEC12F08F86A5
:1024F4008F881200F0EC11F06B821200F0EC11F0F6
:102504006B841200F0EC11F06B801200080E736EF5
:0C25140076841200000E736E76941200A4
:067FF800AEF703FBF8F1F7
:00000001FF
