:020000040000FA
:04000000C3EF00F05A
:100008005982D9CF37F0DACF38F09EAA85D05AEC8A
:100018000BF03A6EA50E3A18D8A417D03550D8B4BC
:1000280003D03104D8A411D0010E346E000E286E0E
:10003800000E276E010E2724D96E000E2820DA6ED6
:100048003AC0DFFF274A282A6CD03404D8A469D0E4
:10005800010E2724D96E000E2820DA6E3AC0DFFF81
:10006800285057E1050E275CD8B053D05A0E3A18DD
:10007800D8A4E8D702500324396E39500418D8A4FC
:100088002CD03150D8B404D0F50E0318D8A411D010
:10009800F29E000E3B6E010E3B24D96EDA6A000E0A
:1000A800DA22DF50B6EC0BF03B2A040E3B64F3D7A0
:1000B8000AD0F29E000E3B6E160EB6EC0BF03B2AF1
:1000C800040E3B64F9D7F28E010E356E000E286ED1
:1000D800000E276E020E2E6E11D0000E356E000E29
:1000E800286E000E276EF29E000E3B6E150EB6ECC3
:1000F8000BF03B2A040E3B64F9D7F28EF50E031879
:10010800D8A4A0D7020E2E18D8A49CD7010E336EFF
:1001180099D7000E346E96D7ACA203D0AC92AC98A7
:10012800AC882904D8A41CD055BE10D05550541002
:10013800531003E15204D8A009D0FF0E5226FF0E37
:100148005322FF0E5422FF0E552208D0000E526E85
:10015800000E536E000E546E000E556E000E296E82
:100168009EA007D09E0ECF6E570ECE6E9E90010EAB
:10017800296E38C0DAFF37C0D9FF5992110097EFBE
:100188000AF0F29E4CEC0AF0770EC7EC08F09DECF2
:100198000BF07FEC0BF037EC0BF067EC0BF08B926D
:1001A80089941E0E526E000E536E000E546E000E91
:1001B800556ED08E9F8AF28EF28EC0908C808C9273
:1001C800000E456E200E446EFF0E466E7EEC08F063
:1001D800020E516E040E506EBA0EE82EFED7502E47
:1001E800FCD7512EFAD700D0F29E100E4A6E000EA0
:1001F8004B6E000E4C6E000E4D6EC8EC09F04AC0F6
:1002080021F04BC022F0F28E21C030F0010E306494
:1002180011D0010E306EF29E100E4A6E000E4B6E1B
:10022800000E4C6E000E4D6E30C04EF04F6A72ECF0
:100238000AF0F28E000E186E010E176E17C044F009
:1002480018C045F030C046F07EEC08F0000E166E7F
:10025800010E156EF29E200E4A6E000E4B6E000EB9
:100268004C6E000E4D6EC8EC09F04AC021F04BC030
:1002780022F0F28E21501B6E1C6A1C5004E1310ED4
:100288001B5CD8A006D01C5004E13B0E1B5CD8A018
:1002980014D0000E1C6E310E1B6EF29E200E4A6E9C
:1002A800000E4B6E000E4C6E000E4D6E1BC04EF0D5
:1002B8001CC04FF072EC0AF0F28EF29E600E4A6E8D
:1002C800000E4B6E000E4C6E000E4D6EC8EC09F021
:1002D8004AC021F04BC022F0F28E21C02DF02F0E23
:1002E8002D6403D0350E2D6432D0300E2D6E000EE5
:1002F8001A6E000E196EF29E600E4A6E000E4B6E5C
:10030800000E4C6E000E4D6E2DC04EF04F6A72EC12
:100318000AF0F28E37D0000E1A6E000E196E300EEB
:100328002D6E30D0030E1A6EE80E0FD0070E1A6E1F
:10033800D00E0BD00B0E1A6EB80E07D00F0E1A6E19
:10034800A00E03D0130E1A6E880E196E1BD02D50F6
:10035800506E516A5150000AD8A4DDD75050300A67
:10036800D8B4D9D7010AD8B4DDD7030AD8B4DED7B0
:10037800010AD8B4DFD7070AD8B4E0D7010AD8B43D
:10038800E1D7C9D7F29E500E4A6E000E4B6E000E92
:100398004C6E000E4D6EC8EC09F04AC021F04BC0FF
:1003A80022F0F28E21C02BF0960E2B6416D0000E90
:1003B8002B6EF29E500E4A6E000E4B6E000E4C6E67
:1003C800000E4D6E2BC04EF04F6A72EC0AF0F28EA2
:1003D800000E1E6E000E1D6E03D02BC01DF01E6A8F
:1003E800F29E400E4A6E000E4B6E000E4C6E000ED2
:1003F8004D6EC8EC09F04AC021F04BC022F0F28ED5
:1004080021C02CF0810E2C18D8B43ED0820E2C18A6
:10041800D8B43AD0830E2C18D8B436D0840E2C1801
:10042800D8B432D0850E2C18D8B42ED0070E576EFB
:10043800D00E566E820E2C6EF29E400E4A6E000E44
:100448004B6E000E4C6E000E4D6E2CC04EF04F6A77
:1004580072EC0AF0F28E30D0030E576EE80E12D00E
:10046800070E576ED00E566E820E2C6E25D00B0ED0
:10047800576EB80E07D00F0E576EA00E03D0130E8E
:10048800576E880E566E18D02C50506E516A5150C7
:10049800000AD8A4E5D75050810AD8B4DDD7030A9A
:1004A800D8B4DED7010AD8B4E2D7070AD8B4E3D75C
:1004B800010AD8B4E4D7D4D73F0E586EF29E300E56
:1004C8004A6E000E4B6E000E4C6E000E4D6EC8EC60
:1004D80009F04AC021F04BC022F0F28E21C058F03A
:1004E8005850D8B419D03F0E5818D8B415D07F0E2C
:1004F8005818D8B411D03F0E586EF29E300E4A6E7E
:10050800000E4B6E000E4C6E000E4D6E58C04EF035
:100518004F6A72EC0AF0F28E1E0E526E000E536E87
:10052800000E546E000E556ED8EC06F004001E0E38
:10053800526E000E536E000E546E000E556E5BD256
:1005480015C017F016C018F081B814D081A40BECB0
:100558000BF03050BAEC0AF0020E516E040E506ED9
:10056800BA0EE82EFED7502EFCD7512EFAD700D05F
:1005780081A8ECD781B60DD0630E17181810D8B41F
:1005880008D0010E1724176E000E1820186E81A6C9
:10059800FED780BA0CD017501810D8B408D0FF0E68
:1005A8001724176EFF0E1820186E80AAFED780B881
:1005B8000ED018500CE15A0E175CD8B008D00A0EAD
:1005C8001724176E000E1820186E80A8FED780B664
:1005D8000ED0185004E10A0E175CD8A008D0F60E09
:1005E8001724176EFF0E1820186E80A6FED717C0A6
:1005F80015F018C016F017C044F018C045F030C008
:1006080046F07EEC08F081B415D0010E316E1E0E56
:10061800526E000E536E000E546E000E556E0EECA8
:1006280005F0000E336E000E316E450E1EEC08F01C
:1006380081A4FBD73504D8B4BDD1DAD1F10E0318A3
:10064800D8A416D03150D8A413D0000E336E010EA2
:10065800316E15C017F016C018F01E0E526E000E3F
:10066800536E000E546E000E556E03EC06F047D024
:10067800F20E0318D8A443D03150D8A440D0000EAD
:10068800336E010E316E15C017F016C018F017C082
:1006980044F018C045F030C046F07EEC08F01E0E5D
:1006A800526E000E536E000E546E000E556E0EEC18
:1006B80005F03350D8A423D0A50E0001606F440E76
:1006C800616FF90E626F3D0E636F5A0E646FF29E92
:1006D800000E146E000E136E145010E1050E135C1C
:1006E800D8B00CD0600E1324D96E000E1420DA6E28
:1006F800DF50AAEC0BF0134A142AEED7F28EDBEC8B
:100708000AF0F3EC0AF0000E336E000E316E6CD175
:100718003150D8A469D1010E316E03C02DF01CD020
:10072800000E1A6E000E196E300E2D6E30D0030EAC
:100738001A6EE80E0FD0070E1A6ED00E0BD00B0EE5
:100748001A6EB80E07D00F0E1A6EA00E03D0130E35
:100758001A6E880E196E1BD02D50506E516A51506A
:10076800000AD8A4DDD75050300AD8B4D9D7010A26
:10077800D8B4DDD7030AD8B4DED7010AD8B4DFD796
:10078800070AD8B4E0D7010AD8B4E1D7C9D7F29E8E
:10079800600E4A6E000E4B6E000E4C6E000E4D6ED3
:1007A8002DC04EF04F6A72EC0AF0F28EDBEC0AF0C4
:1007B800ACD73150D8A418D10350D8A465D0010EB5
:1007C800316EF29E600E4A6E000E4B6E000E4C6E3D
:1007D800000E4D6EC8EC09F04A502D6E400E4A6E60
:1007E800000E4B6E000E4C6E000E4D6EC8EC09F0FC
:1007F8004A502C6E300E4A6E000E4B6E000E4C6E38
:10080800000E4D6EC8EC09F04AC01FF04BC020F036
:10081800500E4A6E000E4B6E000E4C6E000E4D6E62
:10082800C8EC09F04A502B6EF28E510E0001606F31
:100838002DC061F01FC062F02CC063F02BC064F0C3
:10084800020E516E040E506EBA0EE82EFED7502ED0
:10085800FCD7512EFAD700D0F29E000E146E000E6F
:10086800136E145010E1050E135CD8B00CD0600E56
:100878001324D96E000E1420DA6EDF50AAEC0BF0A8
:10088800134A142AEED7F28EF3EC0AF03ED7315011
:10089800D8A4AAD0010E316E03C02AF007D0000EEA
:1008A80003D03F0E01D07F0E586E12D02A50506EE2
:1008B800516A5150000AD8A4F4D75050000AD8B44D
:1008C800EED73F0AD8B4EDD7400AD8B4ECD7E9D769
:1008D800F29E300E4A6E000E4B6E000E4C6E000EED
:1008E8004D6E58C04EF04F6A72EC0AF061D031502C
:1008F800D8A446D0010E316E03C02CF018D0030ED8
:10090800576EE80E12D0070E576ED00E566E820E36
:100918002C6E25D00B0E576EB80E07D00F0E576EE3
:10092800A00E03D0130E576E880E566E18D02C509A
:10093800506E516A5150000AD8A4E5D75050810A28
:10094800D8B4DDD7030AD8B4DED7010AD8B4E2D7C1
:10095800070AD8B4E3D7010AD8B4E4D7D4D7F29EAB
:10096800400E4A6E000E4B6E000E4C6E000E4D6E21
:100978002CC04EF04F6A72EC0AF0F28E000E316E07
:100988003150D8A431D0010E316E03C02BF02BC0EA
:100998001DF01E6AF29E500E4A6E000E4B6E000E3F
:1009A8004C6E000E4D6E2BC04EF04F6A72EC0AF082
:1009B800F28EABD60250506E516A5150000AD8A43C
:1009C80013D05050230AD8B4A3D6670AD8B436D661
:1009D800150AD8B4EED6350AD8B459D7010AD8B40E
:1009E80086D7030AD8B4CCD7000E356E000E346E05
:1009F800000E2E6E9BD52E50506E516A5150000A33
:100A0800D8A494D55050000AD8B49AD5020AD8B4BC
:100A180011D68CD53004D8A407D08B8256C03CF0B0
:100A280057C03DF04AEC0BF08B92040E4E6E0C0E44
:100A38004D6E340EE82EFED74D2EFCD74E2EFAD72B
:100A48008984B4D0040025EC0AF019C03CF01AC01F
:100A58003DF04AEC0BF0BCEC0BF0040E4E6E8E0E23
:100A68004D6E120EE82EFED74D2EFCD74E2EFAD71D
:100A780000D01E0E526E000E536E000E546E000E05
:100A8800556E73EC0BF03CC011F03DC012F05250A3
:100A9800531054105510D8A405D0310E1EEC08F090
:100AA800C1EC0BF011501210D8A4EBD7020E4E6E09
:100AB800040E4D6EBA0EE82EFED74D2EFCD74E2EE4
:100AC800FAD700D01E0E526E000E536E000E546EF2
:100AD800000E556E73EC0BF03CC011F03DC012F0E7
:100AE8005250531054105510D8A405D0320E1EEC95
:100AF80008F0C1EC0BF011041210D8A4EBD71E0EAD
:100B0800526E000E536E000E546E000E556E1DC0D0
:100B18003CF01EC03DF04AEC0BF0C1EC0BF01706A0
:100B2800D8A0180617C044F018C045F030C046F0E9
:100B38007EEC08F03004D8A418D017501810D8B498
:100B480014D08B8256C03CF057C03DF04AEC0BF0F5
:100B58008B92040E4E6E0C0E4D6E340EE82EFED7A0
:100B68004D2EFCD74E2EFAD71ED03050D8A41BD00D
:100B780017501810D8B417D08B9217501810D8B433
:100B880007D056C03CF057C03DF04AEC0BF00BD0F4
:100B9800060E4E6E130E4D6EAE0EE82EFED74D2E7F
:100BA800FCD74E2EFAD73304D8B404D017501810F7
:100BB800D8A448D7899417501810D8B403D0330450
:100BC800D8A416D03004D8A413D08B8256C03CF0D9
:100BD80057C03DF04AEC0BF08B92040E4E6E0C0E93
:100BE8004D6E340EE82EFED74D2EFCD74E2EFAD77A
:100BF800000E186E000E176E000E2E6E1200000EFC
:100C0800126E000E116E410E4EEC07F03004D8A49F
:100C180007D08B8256C03CF057C03DF04AEC0BF031
:100C28008B92040E466E0C0E456E340EE82EFED7DF
:100C3800452EFCD7462EFAD789848ED0040025ECA1
:100C48000AF019C03CF01AC03DF04AEC0BF0BCECBD
:100C58000BF0040E466E8E0E456E120EE82EFED771
:100C6800452EFCD7462EFAD700D01E0E526E000E27
:100C7800536E000E546E000E556E73EC0BF03CC0B4
:100C880011F03DC012F05250531054105510D8A412
:100C980005D0310E1EEC08F0C1EC0BF0115012100B
:100CA800D8A4EBD7020E466E040E456EBA0EE82E97
:100CB800FED7452EFCD7462EFAD700D01E0E526E10
:100CC800000E536E000E546E000E556E73EC0BF052
:100CD8003CC011F03DC012F0525053105410551042
:100CE800D8A405D0320E1EEC08F0C1EC0BF01104AC
:100CF8001210D8A4EBD71E0E526E000E536E000EC3
:100D0800546E000E556E1DC03CF01EC03DF04AECFE
:100D18000BF0C1EC0BF03004D8A414D08B8256C071
:100D28003CF057C03DF04AEC0BF08B92040E466E37
:100D38000C0E456E340EE82EFED7452EFCD7462EF7
:100D4800FAD707D08B9256C03CF057C03DF04AEC1A
:100D58000BF03304D8B403D03350D8B46FD7899488
:100D680017501810D8B403D03304D8A416D03004C0
:100D7800D8A413D08B8256C03CF057C03DF04AEC43
:100D88000BF08B92040E466E0C0E456E340EE82E58
:100D9800FED7452EFCD7462EFAD7000E186E000E49
:100DA800176E020E2E6E12008984BCEC0BF0040E36
:100DB800466E8E0E456E120EE82EFED7452EFCD7D7
:100DC800462EFAD700D01E0E526E000E536E000E3D
:100DD800546E000E556E73EC0BF03CC011F03DC024
:100DE80012F05250531054105510D8A405D0310E9B
:100DF8001EEC08F0C1EC0BF011501210D8A4EBD780
:100E0800020E466E040E456EBA0EE82EFED7452E2B
:100E1800FCD7462EFAD700D01E0E526E000E536E27
:100E2800000E546E000E556E73EC0BF03CC011F0C2
:100E38003DC012F05250531054105510D8A405D08C
:100E4800320E1EEC08F0C1EC0BF011041210D8A4FD
:100E5800EBD71E0E526E000E536E000E546E000E2F
:100E6800556E1DC03CF01EC03DF04AEC0BF0C1ECC5
:100E78000BF0060E466E130E456EAE0EE82EFED72C
:100E8800452EFCD7462EFAD7000E126E000E116EB4
:100E980089941200446E8B98000EFCEC09F08B8844
:100EA8008B98000EFCEC09F038D0790EFCEC09F0B8
:100EB8003F0EFCEC09F051D03F0EFCEC09F0730E2C
:100EC800FCEC09F04AD0390EFCEC09F0770EFCEC8A
:100ED80009F043D0000EFCEC09F0000EFCEC09F020
:100EE8003CD0000EFCEC09F03F0EFCEC09F035D0CC
:100EF800790EFCEC09F0060EFCEC09F02ED0770E0A
:100F0800FCEC09F03E0EFCEC09F027D0000EFCECDE
:100F180009F03E0EFCEC09F020D04450426E436AC2
:100F28004350000AD8A419D04250410AD8B4E7D790
:100F3800020AD8B4C8D7060AD8B4B7D7020AD8B4B0
:100F4800D0D7080AD8B4B8D71C0AD8B4D1D7050A5C
:100F5800D8B4DCD70E0AD8B4BDD78B888B980D0EC1
:100F6800FCEC09F08B881200000E456E43AE0AD0E7
:100F7800431E421E411E406C000E41224222432263
:100F8800010E456E3FAE0AD03F1E3E1E3D1E3C6C14
:100F9800000E3D223E223F22010E451A000E466EEB
:100FA800000E476E000E486E000E496E405041100C
:100FB80042104310D8B42AD0010E446E06D0D890FF
:100FC8004036413642364336442A43AEF8D7D890A5
:100FD800463647364836493640503C5C41503D58C5
:100FE80042503E5843503F58D8A009D040503C5E2C
:100FF80041503D5A42503E5A43503F5A4680D8903D
:101008004332423241324032442EE1D74550D8B4BF
:1010180008D0491E481E471E466C000E472248222B
:10102800492246C03CF047C03DF048C03EF049C0A8
:101038003FF01200446E8B98000EFCEC09F08B8890
:101048008B98000EFCEC09F031D0790EFCEC09F01D
:10105800770EFCEC09F047D0790EFCEC09F03F0E56
:10106800FCEC09F040D0790EFCEC09F0060EFCEC23
:1010780009F039D0790EFCEC09F05B0EFCEC09F0B4
:1010880032D0000EFCEC09F03F0EFCEC09F02BD03E
:10109800790EFCEC09F0060EFCEC09F024D0770E72
:1010A800FCEC09F03E0EFCEC09F01DD04450426EF9
:1010B800436A4350000AD8A416D04250300AD8B424
:1010C800CBD7010AD8B4CFD7030AD8B4D3D7730A79
:1010D800D8B4E5D7040AD8B4B8D7020AD8B4D1D757
:1010E800140AD8B4D5D78B888B980D0EFCEC09F070
:1010F8008B88120044C03CF045C03DF0000E3F6EA6
:101108000A0E3E6E90EC09F03CC047F03DC048F036
:1011180044C03CF045C03DF0000E3F6E0A0E3E6EE6
:101128000CEC09F03CC049F03DC04AF08B98000E29
:10113800FCEC09F08B888B98000EFCEC09F049C098
:101148003CF04AC03DF04EEC09F04C6E47C03CF014
:1011580048C03DF04EEC09F04B6E4650D8B406D06E
:101168004628D8A402D04C8E01D04B8E4C50FCECB3
:1011780009F04B50FCEC09F08B888B980D0EFCECB9
:1011880009F08B881200446E8B888B98300EFCEC2B
:1011980009F08B888B98300EFCEC09F044C042F0C3
:1011A800423A0F0E4216050E436ED8904236432E31
:1011B800FCD742500509FCEC09F08B888B98110E7E
:1011C800FCEC09F08B888B98110EFCEC09F044506C
:1011D800FCEC09F04450FCEC09F04450FCEC09F03C
:1011E8008B888B98180EFCEC09F08B888B98180E5E
:1011F800FCEC09F04450FCEC09F04450FCEC09F01C
:101208004450FCEC09F04450FCEC09F08B881200C7
:10121800000E416E3FAE06D03E6C3F1ED8B03F2A4E
:10122800010E416E3DAE06D03C6C3D1ED8B03D2A45
:10123800010E411A000E436E000E426E3E503F10E2
:10124800D8B41CD0010E406E04D0D8903E363F363C
:10125800402A3FAEFAD7D890423643363E503C5CDF
:101268003F503D58D8A005D03E503C5E3F503D5AB7
:101278004280D8903F323E32402EEDD74150D8B40C
:1012880004D0426C431ED8B0432A42C03CF043C04D
:101298003DF0120017D03F0E13D0060E11D05B0E92
:1012A8000FD04F0E0DD0660E0BD06D0E09D07D0EEF
:1012B80007D0070E05D07F0E03D06F0E01D0000EA9
:1012C800406E28D03CC03EF03DC03FF03F50000A81
:1012D800D8A4F5D73E50000AD8B4DDD7010AD8B44F
:1012E800DCD7030AD8B4DBD7010AD8B4DAD7070A9F
:1012F800D8B4D9D7010AD8B4D8D7030AD8B4D7D71D
:10130800010AD8B4D6D70F0AD8B4D5D7010AD8B4A9
:10131800D4D7D5D740501200000E416E3DAE06D04E
:101328003C6C3D1ED8B03D2A010E416E3FAE04D044
:101338003E6C3F1ED8B03F2A3E503F10D8B418D05C
:10134800010E406E04D0D8903E363F36402A3FAE5C
:10135800FAD73E503C5C3F503D58D8A004D03E5090
:101368003C5E3F503D5AD8903F323E32402EF1D736
:101378004150D8B404D03C6C3D1ED8B03D2A3CC086
:101388003CF03DC03DF01200CEEC0BF0000E3D6E7F
:10139800A00E8AEC0BF04AC03CF04BC03DF04CC0AC
:1013A8003EF04DC03FF0000E406E010E416E000E43
:1013B800426E000E436EB8EC07F03C50A4EC0BF004
:1013C8004A50A4EC0BF0C6EC0BF0010E3D6EA00EDB
:1013D8008AEC0BF0000E22EC0BF03DC04EF03EC044
:1013E8004FF0CAEC0BF04EC04AF04FC04BF0120061
:1013F8003E6E000E406E8B9640C03CF0010E3D6E76
:101408003C2A02D0D8903D363C2EFCD73D503E14A5
:101418003F6E3F50D8B402D08B8A01D08B9A000E11
:10142800416E412A040E4164FCD78B86000E416E42
:10143800412A040E4164FCD7402A070E4064DBD7DA
:101448001200A50E0001606F450E616F000E626FFD
:10145800450E636F5A0E646FF29E000E3F6E000ECB
:101468003E6E600E3E24D96E000E3F20DA6EDF50CD
:10147800AAEC0BF03E4A3F2A3FBEF3D73F5004E1A7
:10148800050E3E5CD8A0EDD7F28EF3EC0AF0120000
:10149800FB0E926E9368840E946EC00E956E000ECD
:1014A800966E000E976E050E986EC29EC29CC290F4
:1014B800C18EC19CC19AC188C196C184C192C19094
:1014C800C088C190C182C184C186C188C18EC098BC
:1014D800F28E030ED312700ED3121200CEEC0BF064
:1014E800000E3D6EA00E8AEC0BF04AC03CF04BC0DB
:1014F8003DF04CC03EF04DC03FF0000E406E010E76
:10150800416E000E426E000E436EB8EC07F03C5080
:10151800A4EC0BF04A50A4EC0BF04E50A4EC0BF0EA
:10152800CAEC0BF01200AC0EF66E170EF76E000E3A
:10153800F86E00EE52F010EE07F00900F5CFEEFF5E
:10154800E550E150FAE100EE60F0200EEE6AE806A0
:10155800FDE100EE01F0350EEE6AE806FDE1599076
:101568005992000EF86E0001C5EF00F0426E8B989C
:10157800000EFCEC09F08B888B98000EFCEC09F04F
:101588004204D8A407D0000EFCEC09F0BE0EFCEC17
:1015980009F006D0000EFCEC09F03E0EFCEC09F058
:1015A8008B888B980D0EFCEC09F08B881200000ECE
:1015B8003D6E000E3C6E010E3C24D96E000E3D209F
:1015C800DA6E000EDF6E3C4A3D2A3DBEF4D73D5030
:1015D80005E1100E3C5CD8B01200EDD71200000EE9
:1015E8003D6E000E3C6E600E3C24D96E000E3D2010
:1015F800DA6E000EDF6E3C4A3D2A3DBEF4D73D5000
:1016080005E1100E3C5CD8B01200EDD71200305046
:10161800D8B402D0000E01D0010E306EF29E100E2A
:101628004A6E000E4B6E000E4C6E000E4D6E30C0B2
:101638004EF04F6A72EC0AF0F28E12003F6E94EC94
:101648000BF06B8694EC0BF06FCF40F094EC0BF042
:101658003F50D8B402D06B9A01D06B8A6B8840C0D7
:101668003DF03E6A1200949C948EAD98AD9CAD8A74
:10167800AC9CAC88AD9EAC86AC8E7E96AD849D8AC3
:101688009D98190EB06E000E7F6E12000AD0030EE0
:101698003E6E980EE82EFED73E2EFCD73C06D8A00C
:1016A8003D063C503D10D8B41200F1D7ACA207D08B
:1016B800AC98AFCF36F0AFCF36F0AC8802D0AFCF12
:1016C80036F036501200310ECD6E9E0ECF6E570E8C
:1016D800CE6E9E909D809F80000E296E120080A283
:1016E80005D0000E3D6E000E3C6E1200000E3D6EE1
:1016F800010E3C6E1200958A958C280E6C6E000EB9
:101708006B6E270E6E6EC00E6D6E12003E6E3EC082
:101718003FF03D503F2694EC0BF03FC06FFF1200A6
:101728006BCF3CF01F0E3C16D8A4FAD76DA412005C
:10173800F7D7C70E776E7996798C000E766E120001
:101748003D6E94EC0BF03DC06FFF12003C6E3CC048
:10175800AEFFADB21200FDD70C0E736E58C074FF09
:1017680076841200366E36C0AEFFADB21200FDD7D9
:101778008F868F88B0EC0BF01200D2EC0BF08F86BE
:101788008F88120094EC0BF06B82120094EC0BF033
:101798006B84120094EC0BF06B801200000E736ED9
:0B17A800769412001E000000D0073FE6
:067FF800AEF703FBF8F1F7
:00000001FF
