:04000000E6EF01F036
:100008005F82E9CF9CF0EACF9DF0E1CF9EF0E2CF8E
:100018009FF0D9CFA0F0DACFA1F0F3CFA2F0F4CFC0
:10002800A3F0F6CFA4F0F7CFA5F0F8CFA6F0F5CF60
:10003800A7F09EAA22EF00F024EF00F002EF01F0F3
:10004800B4EC3EF00001A96FEF0EA919D8A42FEF68
:1000580000F031EF00F056EF00F001014451D8B440
:1000680038EF00F03AEF00F042EF00F04305D8A473
:1000780040EF00F042EF00F056EF00F0010E0001F3
:10008800E26F000EDC6F000EDB6F100EDB25D96E01
:10009800010EDC21DA6EA9C0DFFF0001DB4BDC2B8F
:1000A8002CEF01F00001E205D8A45DEF00F05FEF4E
:1000B80000F02CEF01F0100EDB25D96E010EDC21CB
:1000C800DA6EA9C0DFFFDC5107E1050EDB5DD8B0B1
:1000D80070EF00F072EF00F0FEEF00F0FE0EA919CD
:1000E800D8A479EF00F07BEF00F051EF00F00101A8
:1000F800115112250001A86FA85101011319D8A4A4
:1001080088EF00F08AEF00F0D0EF00F04351D8B448
:1001180090EF00F092EF00F09BEF00F0F50E12194F
:10012800D8A499EF00F09BEF00F0B3EF00F0000EB9
:100138000001AA6F100EAA25D96EDA6A010EDA221A
:10014800DF501BEC3FF00001AA2B040EAA65AFEFAD
:1001580000F0B1EF00F09EEF00F0C3EF00F0000EEA
:100168000001AA6F160E1BEC3FF00001AA2B040E2B
:10017800AA65C1EF00F0C3EF00F0B6EF00F0010E82
:100188000101446F000E0001DC6F000EDB6F020EF0
:100198000101416FE6EF00F0000E446F000E000110
:1001A800DC6F000EDB6F000EAA6F150E1BEC3FF024
:1001B8000001AA2B040EAA65E4EF00F0E6EF00F0B8
:1001C800D9EF00F0F50E01011219D8A4EEEF00F0F6
:1001D800F0EF00F051EF00F0020E4119D8A4F7EF4C
:1001E80000F0F9EF00F051EF00F0010E0001E16FAF
:1001F80051EF00F0000EE26F51EF00F0A4AA07EFF4
:1002080001F009EF01F022EF01F036C18BF037C1A0
:100218008CF081C18DF082C18EF083C18FF084C1D2
:1002280090F087C191F088C192F042C193F06BECD5
:100238001BF0000E0101416F2CEF01F0ACA227EF7B
:1002480001F029EF01F02CEF01F0AC92AC98AC88EA
:100258000001DE05D8A433EF01F035EF01F07EEFA1
:1002680001F0010184BF43EF01F084518311821131
:1002780008E18105D8A043EF01F045EF01F04FEF09
:1002880001F0FF0E8127FF0E8223FF0E8323FF0E4E
:10029800842357EF01F0000E816F000E826F000E6D
:1002A800836F000E846F0001EEBF65EF01F0EE5121
:1002B800ED11EC1108E1EB05D8A065EF01F067EF4F
:1002C80001F071EF01F0FF0EEB27FF0EEC23FF0E9C
:1002D800ED23FF0EEE237BEF01F0140EEB6F000E03
:1002E800EC6F000EED6F000EEE6F9EEC3DF0000E11
:1002F8000001DE6F9EA083EF01F085EF01F08CEF27
:1003080001F09E0ECF6E570ECE6E9E90010EDE6FE0
:10031800F0A291EF01F093EF01F0CCEF01F0060E9F
:1003280000019B6F130E9A6FAD0EE82EFED79A2F21
:10033800FCD79B2FFAD700D0010126512711D8A44A
:10034800A8EF01F0AAEF01F0B7EF01F081A8AFEF35
:1003580001F0B1EF01F0B7EF01F0000E276F010EC9
:10036800266FCBEF01F026052711D8A4BEEF01F0C8
:10037800C0EF01F0CBEF01F081A8C5EF01F0C7EFA6
:1003880001F0CBEF01F0000E276F000E266FF09200
:10039800A7C0F5FFA6C0F8FFA5C0F7FFA4C0F6FFE9
:1003A800A3C0F4FFA2C0F3FFA1C0DAFFA0C0D9FF29
:1003B8009FC0E2FF9EC0E1FF9DC0EAFF9CC0E9FF2D
:0803C8005F9211006DEF3AF0A5
:10100000004572726F723A20496E76616C69642095
:1010100055415254206E756D6265722E0A005365FB
:101020006E7420726573706F6E736520285541521F
:101030005431293A200052656365697665642064FD
:10104000617461202855415254003078253032585F
:0B105000000D0A002C200025640000A9
:10105C00F29EC7EC39F0770EBCEC38F038EC3FF070
:10106C0005EC3FF099EC3BF0C7EC3EF0F28ED398D8
:10107C00D39AD39CD390D39294949388CA96CA98BB
:10108C00CA9ACA9CFC0ECA16040ECB6ECF0EBB16A7
:10109C00BB50F00B0C09BB6E000EBC6ECA848B925D
:1010AC0089941E0E0101816F000E826F000E836FFA
:1010BC00000E846FD08E9F8AA58AC0908C808C8203
:1010CC00000E6E6F280E6D6FFF0E6F6F07EC37F012
:1010DC00060E0101806F130E7F6FAD0EE82EFED74A
:1010EC007F2FFCD7802FFAD700D0E3EC3BF0F29E99
:1010FC00100E0101736F000E746F000E756F000EF1
:10110C00766F8EEC39F073C138F174C139F1F28E0F
:10111C0038C142F1010E0101426597EF08F099EFD9
:10112C0008F0AAEF08F0010E426FF29E100E736FDA
:10113C00000E746F000E756F000E766F42C177F162
:10114C00786BCCEC3AF0F28E000E0101316F010E8F
:10115C00306F30C16DF131C16EF142C16FF107ECEE
:10116C0037F0000E01012F6F010E2E6FF29E200E34
:10117C00736F000E746F000E756F000E766F8EEC31
:10118C0039F073C138F174C139F1F28E0101385163
:10119C00346F356B355109E1310E345DD8A0D9EF80
:1011AC0008F0DBEF08F0E6EF08F0355109E13B0EF3
:1011BC00345DD8A0E4EF08F0E6EF08F0FAEF08F0A1
:1011CC00000E356F310E346FF29E200E736F000ED1
:1011DC00746F000E756F000E766F34C177F135C1E8
:1011EC0078F1CCEC3AF0F28EF29E600E0101736F46
:1011FC00000E746F000E756F000E766F8EEC39F06A
:10120C0073C138F174C139F1F28E38C140F12F0E2F
:10121C000101406514EF09F016EF09F01EEF09F01B
:10122C00350E40651CEF09F01EEF09F05BEF09F07D
:10123C00300E406F000E336F000E326FF29E600E58
:10124C00736F000E746F000E756F000E766F40C1D9
:10125C0077F1786BCCEC3AF0F28E80EF09F0030E5C
:10126C00336FE80E326F80EF09F0070E336FD00E3C
:10127C00326F80EF09F00B0E336FB80E326F80EFC8
:10128C0009F00F0E336FA00E326F80EF09F0130EC2
:10129C00336F880E326F80EF09F0000E336F000E43
:1012AC00326F300E406F80EF09F040517F6F806BD2
:1012BC008051000AD8B465EF09F053EF09F07F5163
:1012CC00300AD8B453EF09F0010AD8B435EF09F05D
:1012DC00030AD8B43BEF09F0010AD8B441EF09F086
:1012EC00070AD8B447EF09F0010AD8B44DEF09F05A
:1012FC0053EF09F0F29E500E0101736F000E746FE4
:10130C00000E756F000E766F8EEC39F073C138F1EC
:10131C0074C139F1F28E38C13EF1960E01013E6571
:10132C009AEF09F09CEF09F0B4EF09F0000E3E6F54
:10133C00F29E500E736F000E746F000E756F000EE0
:10134C00766F3EC177F1786BCCEC3AF0F28E000EF2
:10135C000101376F000E366FB7EF09F03EC136F161
:10136C00376BF29E400E736F000E746F000E756F2C
:10137C00000E766F8EEC39F073C138F174C139F10F
:10138C00F28E38C13FF1810E01013F19D8B4D1EF73
:10139C0009F0D3EF09F04CEF0AF0820E3F19D8B4E4
:1013AC00DAEF09F0DCEF09F04CEF0AF0830E3F198D
:1013BC00D8B4E3EF09F0E5EF09F04CEF0AF0840E36
:1013CC003F19D8B4ECEF09F0EEEF09F04CEF0AF04E
:1013DC00850E3F19D8B4F5EF09F0F7EF09F04CEF93
:1013EC000AF0860E3F19D8B4FEEF09F000EF0AF0B0
:1013FC004CEF0AF0870E3F19D8B407EF0AF009EF4B
:10140C000AF04CEF0AF0070E886FD00E876F820E31
:10141C003F6FF29E400E736F000E746F000E756F6F
:10142C00000E766F3FC177F1786BCCEC3AF0F28E10
:10143C0075EF0AF0030E886FE80E876F75EF0AF0F0
:10144C000B0E886FB80E876F75EF0AF00F0E886F52
:10145C00A00E876F75EF0AF0130E886F880E876FDA
:10146C0075EF0AF0030E886F200E876F75EF0AF088
:10147C00050E886FDC0E876F75EF0AF0070E886F0C
:10148C00D00E876F820E3F6F75EF0AF03F517F6F62
:10149C00806B8051000AD8B456EF0AF044EF0AF082
:1014AC007F51810AD8B420EF0AF0030AD8B444EF74
:1014BC000AF0010AD8B426EF0AF0070AD8B42CEFC8
:1014CC000AF0010AD8B432EF0AF0030AD8B438EFA4
:1014DC000AF0010AD8B43EEF0AF044EF0AF03F0ECE
:1014EC000101896FF29E300E736F000E746F000E47
:1014FC00756F000E766F8EEC39F073C138F174C1D4
:10150C0039F1F28E38C189F101018951D8B491EFCA
:10151C000AF093EF0AF0B6EF0AF03F0E8919D8B42F
:10152C009AEF0AF09CEF0AF0B6EF0AF07F0E8919D9
:10153C00D8B4A3EF0AF0A5EF0AF0B6EF0AF03F0E0D
:10154C00896FF29E300E736F000E746F000E756F04
:10155C00000E766F89C177F1786BCCEC3AF0F28E95
:10156C001E0E0101816F000E826F000E836F000E44
:10157C00846F3AEC30F08C92F29E700E0101736F16
:10158C00000E746F000E756F000E766F8EEC39F0D6
:10159C0073C138F174C139F1F28E010138513A6FCF
:1015AC003B6B3A513B11D8B4DEEF0AF0E0EF0AF096
:1015BC003BEF0BF03A053B11D8B4E7EF0AF0E9EF3B
:1015CC000AF03BEF0BF0020E3A193B11D8B4F1EFD5
:1015DC000AF0F3EF0AF03BEF0BF0030E3A193B1154
:1015EC00D8B4FBEF0AF0FDEF0AF03BEF0BF0040E62
:1015FC003A193B11D8B405EF0BF007EF0BF03BEFAA
:10160C000BF0000E3B6F000E3A6FF29E700E736F74
:10161C00000E746F000E756F000E766F3AC177F185
:10162C003BC178F1CCEC3AF0F28E5DEF0BF0000E92
:10163C003D6F000E3C6F5DEF0BF0000E3D6F070E23
:10164C003C6F5DEF0BF0000E3D6F090E3C6F5DEFD4
:10165C000BF0000E3D6F0C0E3C6F5DEF0BF0000EAF
:10166C003D6F140E3C6F5DEF0BF03AC17FF13BC147
:10167C0080F18051000AD8B446EF0BF01DEF0BF04F
:10168C007F51000AD8B41DEF0BF0010AD8B423EF38
:10169C000BF0030AD8B429EF0BF0010AD8B42FEFE2
:1016AC000BF0070AD8B435EF0BF01DEF0BF0F29EE0
:1016BC00800E0101736F000E746F000E756F000EBB
:1016CC00766F8EEC39F073C138F174C139F1F28E4A
:1016DC0001013851856F866B280E85198611D8B497
:1016EC007AEF0BF07CEF0BF090EF0BF0000E866FA7
:1016FC00280E856FF29E800E736F000E746F000EB5
:10170C00756F000E766F85C177F186C178F1CCECE0
:10171C003AF0F28EF29E900E0101736F000E746F10
:10172C00000E756F000E766F8EEC39F073C138F1C8
:10173C0074C139F1F28E01013851286F296B2805DB
:10174C002911D8B4ACEF0BF0AEEF0BF0CBEF0BF0E4
:10175C0028512911D8B4B5EF0BF0B7EF0BF0CBEF44
:10176C000BF0000E296F010E286FF29E900E736F16
:10177C00000E746F000E756F000E766F28C177F136
:10178C0029C178F1CCEC3AF0F28E3CC165F13DC147
:10179C0066F109EC3EF004001E0E0101816F000E93
:1017AC00826F000E836F000E846FE3EC3BF04FEF03
:1017BC001BF02EC130F12FC131F181B8E8EF0BF0E5
:1017CC00EAEF0BF08AEF0CF03AC16BF13BC16CF114
:1017DC0042C16DF1A9EC2FF0010121BFFFEF0BF01D
:1017EC00E80E205D030E2159D8A0FFEF0BF001EF9E
:1017FC000CF033EF0CF03AC179F13BC17AF17AEC91
:10180C002EF079C13CF17AC13DF1700E0101736F7C
:10181C00000E746F000E756F000E766F8EEC39F043
:10182C0073C13AF174C13BF16FEC3CF03AC16BF10E
:10183C003BC16CF142C16DF1A9EC2FF0060E010118
:10184C00806F130E7F6FAD0EE82EFED77F2FFCD767
:10185C00802FFAD700D072EF0CF021BF41EF0CF0C3
:10186C00E80E205D030E2159D8B03FEF0CF041EF8C
:10187C000CF072EF0CF03AC16BF13BC16CF142C150
:10188C006DF1A9EC2FF0020E0101806F860E7F6FB7
:10189C00990EE82EFED77F2FFCD7802FFAD7000E9B
:1018AC000101216F000E206F72EF0CF03AC16BF149
:1018BC003BC16CF142C16DF1A9EC2FF01A0E010184
:1018CC007F6FF80EE82EFED77F2FFCD700F00A0EA4
:1018DC0001012027000E2123010121BF7FEF0CF015
:1018EC00E80E205D030E2159D8A07FEF0CF081EF9C
:1018FC000CF05CEF0CF081A886EF0CF088EF0CF08C
:10190C00EAEF0BF08EEF0CF0000E216F000E206F43
:10191C0081B693EF0CF095EF0CF04EEF0DF0630EDB
:10192C0030193111D8B49DEF0CF09FEF0CF04EEF45
:10193C000DF081B6A4EF0CF0A6EF0CF052EF0DF009
:10194C0025BFB2EF0CF0E80E245D030E2559D8A08C
:10195C00B2EF0CF0B4EF0CF0DCEF0CF0315107E10E
:10196C005A0E305DD8B0BDEF0CF0BFEF0CF0DCEFD1
:10197C000CF00A0E3025306F000E3121316F30C162
:10198C006DF131C16EF142C16FF107EC37F00B0E06
:10199C000101806F260E7F6F5D0EE82EFED77F2F24
:1019AC00FCD7802FFAD700D009EF0DF025BFEAEF56
:1019BC000CF0E80E245D030E2559D8B0E8EF0CF0BE
:1019CC00EAEF0CF009EF0DF0010E3025306F000E30
:1019DC003121316F30C16DF131C16EF142C16FF106
:1019EC0007EC37F0020E0101806F860E7F6F990EA7
:1019FC00E82EFED77F2FFCD7802FFAD7000E0101DF
:101A0C00256F000E246F81B60EEF0DF010EF0DF068
:101A1C0034EF0DF080BA15EF0DF017EF0DF034EF39
:101A2C000DF0000E0101316F000E306F30C16DF101
:101A3C0031C16EF142C16FF107EC37F034EF0DF0AC
:101A4C001A0E01017F6FF80EE82EFED77F2FFCD700
:101A5C0000F00A0E01012427000E252381B639EF70
:101A6C000DF03BEF0DF04CEF0DF0010125BF48EFF1
:101A7C000DF0E80E245D030E2559D8A048EF0DF0AB
:101A8C004AEF0DF026EF0DF052EF0DF052EF0DF086
:101A9C00000E256F000E246F80BA57EF0DF059EF32
:101AAC000DF012EF0EF0010130513111D8B461EF8D
:101ABC000DF063EF0DF012EF0EF080BA68EF0DF041
:101ACC006AEF0DF017EF0EF023BF76EF0DF0E80E76
:101ADC00225D030E2359D8A076EF0DF078EF0DF0B0
:101AEC00A0EF0DF0315109E10A0E305DD8A081EF65
:101AFC000DF083EF0DF0A0EF0DF0F60E3025306FEA
:101B0C00FF0E3121316F30C16DF131C16EF142C127
:101B1C006FF107EC37F00B0E0101806F260E7F6F13
:101B2C005D0EE82EFED77F2FFCD7802FFAD700D082
:101B3C00CDEF0DF023BFAEEF0DF0E80E225D030EDE
:101B4C002359D8B0ACEF0DF0AEEF0DF0CDEF0DF09A
:101B5C00FF0E3025306FFF0E3121316F30C16DF12A
:101B6C0031C16EF142C16FF107EC37F0020E010189
:101B7C00806F860E7F6F990EE82EFED77F2FFCD7D5
:101B8C00802FFAD7000E0101236F000E226F80BA4E
:101B9C00D2EF0DF0D4EF0DF0F8EF0DF081B6D9EFD8
:101BAC000DF0DBEF0DF0F8EF0DF0000E0101316FD1
:101BBC00000E306F30C16DF131C16EF142C16FF169
:101BCC0007EC37F0F8EF0DF01A0E01017F6FF80EED
:101BDC00E82EFED77F2FFCD700F00A0E010122273A
:101BEC00000E232380BAFDEF0DF0FFEF0DF010EF88
:101BFC000EF0010123BF0CEF0EF0E80E225D030E78
:101C0C002359D8A00CEF0EF00EEF0EF0EAEF0DF00A
:101C1C0017EF0EF017EF0EF0000E0101236F000E00
:101C2C00226F30C12EF131C12FF130C16DF131C1B4
:101C3C006EF142C16FF107EC37F001012605271157
:101C4C00D8A42BEF0EF02DEF0EF03FEF0EF0010E9F
:101C5C00436F1E0E816F000E826F000E836F000E9D
:101C6C00846F7FEC21F0000E0001E16F000E01018A
:101C7C00436F4405D8A445EF0EF047EF0EF03FEF4D
:101C8C0015F000EF15F0F10E1219D8A450EF0EF06C
:101C9C0052EF0EF070EF0EF04351D8A458EF0EF047
:101CAC005AEF0EF070EF0EF0000E0001E16F010E16
:101CBC000101436F2EC130F12FC131F11E0E816F26
:101CCC00000E826F000E836F000E846F0EEC29F0F5
:101CDC00E9EF0FF0F20E1219D8A477EF0EF079EFAE
:101CEC000EF0D4EF0FF04351D8A47FEF0EF081EF3C
:101CFC000EF0D4EF0FF0000E276F010E266F010EC1
:101D0C00436F13C130F1316B30C16DF131C16EF1E4
:101D1C0042C16FF107EC37F01E0E0101816F000E0E
:101D2C00826F000E836F000E846F4205D8A4A1EF62
:101D3C000EF0A3EF0EF0BAEF0EF08B8287C165F1B7
:101D4C0088C166F1D5EC3DF08B92040E0101806FD9
:101D5C000C0E7F6F330EE82EFED77F2FFCD7802F13
:101D6C00FAD700D0BDEF0EF08B92ABEF0EF089845A
:101D7C004CEC3FF0020E0101806F860E7F6F990EC6
:101D8C00E82EFED77F2FFCD7802FFAD71E0E01012D
:101D9C00816F000E826F000E836F000E846F9EECBD
:101DAC003AF065C12AF166C12BF101018151821112
:101DBC0083118411D8A4E5EF0EF0E7EF0EF014EFC9
:101DCC000FF051EC3FF0EF0E0101006FE10E016FCF
:101DDC00000E026F01510225036FFE0E046F000E00
:101DEC002D6F000E2C6F2D5109E1050E2C5DD8A026
:101DFC0002EF0FF004EF0FF006EF0FF014EF0FF0FF
:101E0C00000E2C25D96E010E2D21DA6EDF50F9EC67
:101E1C003EF001012C4B2D2BF9EF0EF02A512B111A
:101E2C00D8A41BEF0FF01DEF0FF0D5EF0EF04E0EF8
:101E3C0001017F6FEB0EE82EFED77F2FFCD71E0E15
:101E4C000101816F000E826F000E836F000E846F94
:101E5C009EEC3AF065C12AF166C12BF1010181516A
:101E6C00821183118411D8A43EEF0FF040EF0FF0D4
:101E7C006DEF0FF051EC3FF0EF0E0101006FE20E31
:101E8C00016F000E026F01510225036FFE0E046FED
:101E9C00000E2D6F000E2C6F2D5109E1050E2C5DDF
:101EAC00D8A05BEF0FF05DEF0FF05FEF0FF06DEF71
:101EBC000FF0000E2C25D96E010E2D21DA6EDF509D
:101ECC00F9EC3EF001012C4B2D2B52EF0FF02A05B3
:101EDC002B11D8A474EF0FF076EF0FF02EEF0FF05C
:101EEC001E0E816F000E826F000E836F000E846FCA
:101EFC0036C165F137C166F1D5EC3DF051EC3FF0E0
:101F0C0001014205D8A48DEF0FF08FEF0FF0A6EF73
:101F1C000FF08B8287C165F188C166F1D5EC3DF07D
:101F2C008B92040E0101806F0C0E7F6F330EE82E26
:101F3C00FED77F2FFCD7802FFAD700D0A9EF0FF058
:101F4C008B9297EF0FF0EF0E0101006FF90E016FFE
:101F5C00000E026F01510225036FFE0E046F000E7E
:101F6C002D6F000E2C6F2D5109E1050E2C5DD8A0A4
:101F7C00C2EF0FF0C4EF0FF0C6EF0FF0E9EF0FF068
:101F8C00000E2C25D96E010E2D21DA6EDF50F9ECE6
:101F9C003EF001012C4B2D2BB9EF0FF0F50E121961
:101FAC00D8A4DBEF0FF0DDEF0FF0E9EF0FF04351AA
:101FBC00D8A4E3EF0FF0E5EF0FF0E9EF0FF0000E10
:101FCC00276F000E266FEFEC3CF00DEC3DF0000E91
:101FDC000001E16F000E0101436F35EF15F0125156
:101FEC00D8B4FBEF0FF0FDEF0FF00CEF12F04351F4
:101FFC00D8A403EF10F005EF10F00CEF12F0000E68
:10200C00276F010E266F010E436F12C130F1316B39
:10201C0030C16DF131C16EF142C16FF107EC37F097
:10202C0030C12EF131C12FF11E0E0101816F000E56
:10203C00826F000E836F000E846F400E736F000E64
:10204C00746F000E756F000E766F8EEC39F0010117
:10205C0073513F6F52EF10F0030E886FE80E876FCD
:10206C0073EF10F00B0E886FB80E876F73EF10F0D4
:10207C000F0E886FA00E876F73EF10F0130E886F22
:10208C00880E876F73EF10F0070E886FD00E876F76
:10209C00820E3F6F73EF10F03F517F6F806B80515A
:1020AC00000AD8B45CEF10F04AEF10F07F51810AAF
:1020BC00D8B432EF10F0030AD8B44AEF10F0010A8A
:1020CC00D8B438EF10F0070AD8B43EEF10F0010A7C
:1020DC00D8B444EF10F04AEF10F0600E736F000E9E
:1020EC00746F000E756F000E766F8EEC39F0010177
:1020FC007351406FA8EF10F0030E336FE80E326F80
:10210C00CDEF10F0070E336FD00E326FCDEF10F015
:10211C000B0E336FB80E326FCDEF10F00F0E336F16
:10212C00A00E326FCDEF10F0130E336F880E326F9E
:10213C00CDEF10F0000E336F000E326F300E406F8B
:10214C00CDEF10F040517F6F806B8051000AD8B4F6
:10215C00B2EF10F0A0EF10F07F51300AD8B4A0EF1E
:10216C0010F0010AD8B482EF10F0030AD8B488EF4B
:10217C0010F0010AD8B48EEF10F0070AD8B494EF1F
:10218C0010F0010AD8B49AEF10F0A0EF10F042054D
:10219C00D8A4D3EF10F0D5EF10F0ECEF10F08B8249
:1021AC0087C165F188C166F1D5EC3DF08B92040EC8
:1021BC000101806F0C0E7F6F330EE82EFED77F2F40
:1021CC00FCD7802FFAD700D0EFEF10F08B92DDEF19
:1021DC0010F0898432C165F133C166F1D5EC3DF064
:1021EC004CEC3FF0020E0101806F860E7F6F990E52
:1021FC00E82EFED77F2FFCD7802FFAD71E0E0101B9
:10220C00816F000E826F000E836F000E846F9EEC48
:10221C003AF065C12AF166C12BF10101815182119D
:10222C0083118411D8A41DEF11F01FEF11F04CEFA6
:10223C0011F051EC3FF0EF0E0101006FE10E016F58
:10224C00000E026F01510225036FFE0E046F000E8B
:10225C002D6F000E2C6F2D5109E1050E2C5DD8A0B1
:10226C003AEF11F03CEF11F03EEF11F04CEF11F0A2
:10227C00000E2C25D96E010E2D21DA6EDF50F9ECF3
:10228C003EF001012C4B2D2B31EF11F02A512B116B
:10229C00D8A453EF11F055EF11F00DEF11F04E0ED5
:1022AC0001017F6FEB0EE82EFED77F2FFCD71E0EA1
:1022BC000101816F000E826F000E836F000E846F20
:1022CC009EEC3AF065C12AF166C12BF101018151F6
:1022DC00821183118411D8A476EF11F078EF11F0EC
:1022EC00A5EF11F051EC3FF0EF0E0101006FE20E83
:1022FC00016F000E026F01510225036FFE0E046F79
:10230C00000E2D6F000E2C6F2D5109E1050E2C5D6A
:10231C00D8A093EF11F095EF11F097EF11F0A5EF16
:10232C0011F0000E2C25D96E010E2D21DA6EDF5026
:10233C00F9EC3EF001012C4B2D2B8AEF11F02A0504
:10234C002B11D8A4ACEF11F0AEEF11F066EF11F039
:10235C001E0E816F000E826F000E836F000E846F55
:10236C0036C165F137C166F1D5EC3DF051EC3FF06B
:10237C0001014205D8A4C5EF11F0C7EF11F0DEEF53
:10238C0011F08B8287C165F188C166F1D5EC3DF007
:10239C008B92040E0101806F0C0E7F6F330EE82EB2
:1023AC00FED77F2FFCD7802FFAD700D0E1EF11F0AA
:1023BC008B92CFEF11F0EF0E0101006FF90E016F50
:1023CC00000E026F01510225036FFE0E046F000E0A
:1023DC002D6F000E2C6F2D5109E1050E2C5DD8A030
:1023EC00FAEF11F0FCEF11F0FEEF11F021EF12F00B
:1023FC00000E2C25D96E010E2D21DA6EDF50F9EC72
:10240C003EF001012C4B2D2BF1EF11F0F50E1219B2
:10241C00D8A413EF12F015EF12F021EF12F0435184
:10242C00D8A41BEF12F01DEF12F021EF12F0000EEA
:10243C00276F000E266FEFEC3CF00DEC3DF0000E1C
:10244C000101276F000E266F000E0001E16F000ED8
:10245C000101436F35EF15F04351D8A438EF12F05A
:10246C003AEF12F035EF15F0010E436F12C140F147
:10247C0066EF12F0030E336FE80E326F8BEF12F033
:10248C00070E336FD00E326F8BEF12F00B0E336FD3
:10249C00B80E326F8BEF12F00F0E336FA00E326F3F
:1024AC008BEF12F0130E336F880E326F8BEF12F02E
:1024BC00000E336F000E326F300E406F8BEF12F048
:1024CC0040517F6F806B8051000AD8B470EF12F0CE
:1024DC005EEF12F07F51300AD8B45EEF12F0010AB1
:1024EC00D8B440EF12F0030AD8B446EF12F0010A48
:1024FC00D8B44CEF12F0070AD8B452EF12F0010A1C
:10250C00D8B458EF12F05EEF12F0600E736F000E3D
:10251C00746F000E756F000E766F40C177F1786B9B
:10252C00CCEC3AF0EFEC3CF0000E0101436F35EFD0
:10253C0015F04351D8A4A5EF12F0A7EF12F035EF28
:10254C0015F01251D8A4ADEF12F0AFEF12F011EF5D
:10255C0013F0010E436F600E736F000E746F000E5C
:10256C00756F000E766F8EEC39F001017351406F70
:10257C00400E736F000E746F000E756F000E766F49
:10258C008EEC39F0010173513F6F700E736F000EBA
:10259C00746F000E756F000E766F8EEC39F073C190
:1025AC003AF174C13BF1EF0E0101006F40C101F132
:1025BC003AC102F13FC103F1FE0E046F020E01019C
:1025CC00806F040E7F6FBA0EE82EFED77F2FFCD7DC
:1025DC00802FFAD700F0000E01012D6F000E2C6F2A
:1025EC002D5109E1050E2C5DD8A0FFEF12F001EF83
:1025FC0013F003EF13F011EF13F0000E2C25D96E2E
:10260C00010E2D21DA6EDF50F9EC3EF001012C4B5E
:10261C002D2BF6EF12F00DEC3DF09AEF12F043512A
:10262C00D8A41BEF13F01DEF13F035EF15F012517A
:10263C00D8A423EF13F025EF13F011EF13F0010ED4
:10264C00436F900E736F000E746F000E756F000E5B
:10265C00766F8EEC39F073C128F174C129F1800EBC
:10266C000101736F000E746F000E756F000E766FA4
:10267C008EEC39F073C185F174C186F12EC130F145
:10268C002FC131F1EF0E0101006F28C101F185C19D
:10269C0002F130C103F1FE0E046F020E0101806FD6
:1026AC00040E7F6FBA0EE82EFED77F2FFCD7802F3B
:1026BC00FAD700F0000E01012D6F000E2C6F2D517A
:1026CC0009E1050E2C5DD8A06EEF13F070EF13F03E
:1026DC0072EF13F011EF13F0000E2C25D96E010ED2
:1026EC002D21DA6EDF50F9EC3EF001012C4B2D2B35
:1026FC0065EF13F04351D8A486EF13F088EF13F075
:10270C00DFEF13F0010E436F12C13FF1AEEF13F088
:10271C00030E886FE80E876FCFEF13F00B0E886FE8
:10272C00B80E876FCFEF13F00F0E886FA00E876F68
:10273C00CFEF13F0130E886F880E876FCFEF13F067
:10274C00070E886FD00E876F820E3F6FCFEF13F09E
:10275C003F517F6F806B8051000AD8B4B8EF13F0F3
:10276C00A6EF13F07F51810AD8B48EEF13F0030A51
:10277C00D8B4A6EF13F0010AD8B494EF13F0070AFB
:10278C00D8B49AEF13F0010AD8B4A0EF13F0A6EF67
:10279C0013F0400E736F000E746F000E756F000E09
:1027AC00766F3FC177F1786BCCEC3AF0000E0101FB
:1027BC00436F4351D8A4E5EF13F0E7EF13F035EF77
:1027CC0015F0010E436F12C13EF13EC136F1376B6D
:1027DC00500E736F000E746F000E756F000E766FD7
:1027EC003EC177F1786BCCEC3AF09AEF12F0435192
:1027FC00D8A403EF14F005EF14F035EF15F0010E2B
:10280C00436F710E1219D8A40EEF14F010EF14F0E0
:10281C001CEF14F0000E7A6F040E796F7AEC2EF028
:10282C0079C13CF17AC13DF170EF14F0720E1219BE
:10283C00D8A423EF14F025EF14F031EF14F0000EB0
:10284C007A6F000E796F7AEC2EF079C13CF17AC177
:10285C003DF170EF14F0730E1219D8A438EF14F088
:10286C003AEF14F046EF14F0000E7A6F010E796F08
:10287C007AEC2EF079C13CF17AC13DF170EF14F095
:10288C00740E1219D8A44DEF14F04FEF14F05BEF47
:10289C0014F0000E7A6F020E796F7AEC2EF079C17B
:1028AC003CF17AC13DF170EF14F0750E1219D8A4F9
:1028BC0062EF14F064EF14F070EF14F0000E7A6F06
:1028CC00030E796F7AEC2EF079C13CF17AC13DF1AF
:1028DC0070EF14F0700E0101736F000E746F000E28
:1028EC00756F000E766F8EEC39F073C13AF174C1CE
:1028FC003BF16FEC3CF03AC16BF13BC16CF142C166
:10290C006DF1A9EC2FF0040E0101806F0C0E7F6F9E
:10291C00330EE82EFED77F2FFCD7802FFAD700D0AE
:10292C009AEF12F04351D8A49EEF14F0A0EF14F0DC
:10293C0035EF15F0010E436F650E1219D8A4A9EFEF
:10294C0014F0ABEF14F0B1EF14F0000E316F310E48
:10295C00306FC3EF14F0660E1219D8A4B8EF14F050
:10296C00BAEF14F0C0EF14F0000E316F5A0E306F46
:10297C00C3EF14F012C130F1316B30C12EF131C103
:10298C002FF130C16DF131C16EF142C16FF107EC25
:10299C0037F09AEF12F04351D8A4D7EF14F0D9EFD7
:1029AC0014F035EF15F0010E436F12C128F1296BAD
:1029BC0028512911D8B4E5EF14F0E7EF14F09AEF91
:1029CC0012F028052911D8B4EEEF14F0F0EF14F042
:1029DC009AEF12F0900E736F000E746F000E756FFD
:1029EC00000E766F28C177F129C178F1CCEC3AF062
:1029FC009AEF12F011517F6F806B8051000AD8B49E
:102A0C000AEF15F035EF15F07F51230AD8B432EFE9
:102A1C0012F0670AD8B449EF0EF0020AD8B4F5EFF9
:102A2C000FF0170AD8B49FEF12F0030AD8B415EFC1
:102A3C0013F0060AD8B4FDEF13F0010AD8B4D1EFA5
:102A4C0014F0300AD8B480EF13F0030AD8B4DFEFD7
:102A5C0013F0120AD8B498EF14F035EF15F0000EFD
:102A6C00446F000E0001E26F000E0101416F41EF57
:102A7C0015F0000E416F4405D8A447EF15F049EF4F
:102A8C0015F04BEF1BF008EF1BF04351D8A451EF9E
:102A9C0015F053EF15F041EF1BF01251D8A459EF7C
:102AAC0015F05BEF15F06CEF15F0000E0001E16F07
:102ABC00010E0101436FEF0E006F600E016F000EEF
:102ACC00026F01510225036FFE0E046F000E2D6F75
:102ADC00000E2C6F2D5109E1050E2C5DD8A079EF5D
:102AEC0015F07BEF15F07DEF15F08BEF15F0000E68
:102AFC002C25D96E010E2D21DA6EDF50EDEC3EF057
:102B0C0001012C4B2D2B70EF15F0EFEC3CF00DEC84
:102B1C003DF0000E0001E16F000E0101436F41EF2B
:102B2C001BF0F10E1219D8A49EEF15F0A0EF15F0C2
:102B3C00BEEF15F04351D8A4A6EF15F0A8EF15F091
:102B4C00BEEF15F0000E0001E16F010E0101436FA5
:102B5C002EC130F12FC131F11E0E816F000E826F2C
:102B6C00000E836F000E846F0EEC29F0F6EF15F05B
:102B7C00F20E1219D8A4C5EF15F0C7EF15F0E1EF5E
:102B8C0015F04351D8A4CDEF15F0CFEF15F0E1EFD0
:102B9C0015F0000E276F010E266F010E436F1E0EEF
:102BAC00816F000E826F000E836F000E846F7FECBE
:102BBC0021F0F6EF15F0F50E1219D8A4E8EF15F088
:102BCC00EAEF15F0F6EF15F04351D8A4F0EF15F03D
:102BDC00F2EF15F0F6EF15F0000E276F000E266FD2
:102BEC00EFEC3CF00DEC3DF0000E0001E16F000E3F
:102BFC000101436F41EF1BF01251D8B408EF16F0EE
:102C0C000AEF16F015EF18F04351D8A410EF16F098
:102C1C0012EF16F015EF18F0000E276F010E266F4D
:102C2C00010E436F12C130F1316B30C16DF131C106
:102C3C006EF142C16FF107EC37F01E0E0101816F8E
:102C4C00000E826F000E836F000E846F400E736F48
:102C5C00000E746F000E756F000E766F8EEC39F0EF
:102C6C00010173513F6F5BEF16F0030E886FE80E96
:102C7C00876F7CEF16F00B0E886FB80E876F7CEFAA
:102C8C0016F00F0E886FA00E876F7CEF16F0130EE8
:102C9C00886F880E876F7CEF16F0070E886FD00E4A
:102CAC00876F820E3F6F7CEF16F03F517F6F806B0A
:102CBC008051000AD8B465EF16F053EF16F07F512F
:102CCC00810AD8B43BEF16F0030AD8B453EF16F0D0
:102CDC00010AD8B441EF16F0070AD8B447EF16F042
:102CEC00010AD8B44DEF16F053EF16F0600E736F67
:102CFC00000E746F000E756F000E766F8EEC39F04F
:102D0C0001017351406FB1EF16F0030E336FE80EF3
:102D1C00326FD6EF16F0070E336FD00E326FD6EF40
:102D2C0016F00B0E336FB80E326FD6EF16F00F0E87
:102D3C00336FA00E326FD6EF16F0130E336F880E72
:102D4C00326FD6EF16F0000E336F000E326F300E6E
:102D5C00406FD6EF16F040517F6F806B8051000AA8
:102D6C00D8B4BBEF16F0A9EF16F07F51300AD8B4E7
:102D7C00A9EF16F0010AD8B48BEF16F0030AD8B4F9
:102D8C0091EF16F0010AD8B497EF16F0070AD8B4F1
:102D9C009DEF16F0010AD8B4A3EF16F0A9EF16F0C8
:102DAC004205D8A4DCEF16F0DEEF16F0F5EF16F0C6
:102DBC008B8287C165F188C166F1D5EC3DF08B92B1
:102DCC00040E0101806F0C0E7F6F330EE82EFED7C0
:102DDC007F2FFCD7802FFAD700D0F8EF16F08B920C
:102DEC00E6EF16F0898432C165F133C166F1D5EC9A
:102DFC003DF04CEC3FF0020E0101806F860E7F6FB0
:102E0C00990EE82EFED77F2FFCD7802FFAD71E0EF7
:102E1C000101816F000E826F000E836F000E846FB4
:102E2C009EEC3AF065C12AF166C12BF1010181518A
:102E3C00821183118411D8A426EF17F028EF17F014
:102E4C0055EF17F051EC3FF0EF0E0101006FE10E62
:102E5C00016F000E026F01510225036FFE0E046F0D
:102E6C00000E2D6F000E2C6F2D5109E1050E2C5DFF
:102E7C00D8A043EF17F045EF17F047EF17F055EFD9
:102E8C0017F0000E2C25D96E010E2D21DA6EDF50B5
:102E9C00EDEC3EF001012C4B2D2B3AEF17F02A51A3
:102EAC002B11D8A45CEF17F05EEF17F016EF17F0AC
:102EBC004E0E01017F6FEB0EE82EFED77F2FFCD755
:102ECC001E0E0101816F000E826F000E836F000ECB
:102EDC00846F9EEC3AF065C12AF166C12BF10101B9
:102EEC008151821183118411D8A47FEF17F081EFE7
:102EFC0017F0AEEF17F051EC3FF0EF0E0101006F41
:102F0C00E20E016F000E026F01510225036FFE0EDF
:102F1C00046F000E2D6F000E2C6F2D5109E1050E64
:102F2C002C5DD8A09CEF17F09EEF17F0A0EF17F0D8
:102F3C00AEEF17F0000E2C25D96E010E2D21DA6E96
:102F4C00DF50EDEC3EF001012C4B2D2B93EF17F0E5
:102F5C002A052B11D8A4B5EF17F0B7EF17F06FEFC8
:102F6C0017F01E0E816F000E826F000E836F000E25
:102F7C00846F36C165F137C166F1D5EC3DF051EC8B
:102F8C003FF001014205D8A4CEEF17F0D0EF17F0B7
:102F9C00E7EF17F08B8287C165F188C166F1D5EC3C
:102FAC003DF08B92040E0101806F0C0E7F6F330E7F
:102FBC00E82EFED77F2FFCD7802FFAD700D0EAEF70
:102FCC0017F08B92D8EF17F0EF0E0101006FF90E8E
:102FDC00016F000E026F01510225036FFE0E046F8C
:102FEC00000E2D6F000E2C6F2D5109E1050E2C5D7E
:102FFC00D8A003EF18F005EF18F007EF18F02AEF40
:10300C0018F0000E2C25D96E010E2D21DA6EDF5032
:10301C00EDEC3EF001012C4B2D2BFAEF17F0F50ED9
:10302C001219D8A41CEF18F01EEF18F02AEF18F0A4
:10303C004351D8A424EF18F026EF18F02AEF18F01B
:10304C00000E276F000E266FEFEC3CF00DEC3DF000
:10305C00000E0101276F000E266F000E0001E16FBC
:10306C00000E0101436F41EF1BF04351D8A441EF17
:10307C0018F043EF18F041EF1BF0010E436F12C133
:10308C0040F16FEF18F0030E336FE80E326F94EFD0
:10309C0018F0070E336FD00E326F94EF18F00B0E42
:1030AC00336FB80E326F94EF18F00F0E336FA00E13
:1030BC00326F94EF18F0130E336F880E326F94EF5B
:1030CC0018F0000E336F000E326F300E406F94EF1D
:1030DC0018F040517F6F806B8051000AD8B479EFA3
:1030EC0018F067EF18F07F51300AD8B467EF18F07A
:1030FC00010AD8B449EF18F0030AD8B44FEF18F00E
:10310C00010AD8B455EF18F0070AD8B45BEF18F0E1
:10311C00010AD8B461EF18F067EF18F0600E736F06
:10312C00000E746F000E756F000E766F40C177F154
:10313C00786BCCEC3AF0EFEC3CF092EF15F043519D
:10314C00D8A4ABEF18F0ADEF18F041EF1BF0125113
:10315C00D8A4B3EF18F0B5EF18F017EF19F0010E73
:10316C00436F600E736F000E746F000E756F000E60
:10317C00766F8EEC39F001017351406F400E736F16
:10318C00000E746F000E756F000E766F8EEC39F0BA
:10319C00010173513F6F700E736F000E746F000E50
:1031AC00756F000E766F8EEC39F073C13AF174C105
:1031BC003BF1EF0E0101006F40C101F13AC102F188
:1031CC003FC103F1FE0E046F020E0101806F040E6D
:1031DC007F6FBA0EE82EFED77F2FFCD7802FFAD741
:1031EC0000F0000E01012D6F000E2C6F2D5109E126
:1031FC00050E2C5DD8A005EF19F007EF19F009EFBB
:10320C0019F017EF19F0000E2C25D96E010E2D2197
:10321C00DA6EDF50EDEC3EF001012C4B2D2BFCEF68
:10322C0018F00DEC3DF092EF15F04351D8A421EFBE
:10323C0019F023EF19F041EF1BF01251D8A429EF2C
:10324C0019F02BEF19F017EF19F0010E436F900ED8
:10325C00736F000E746F000E756F000E766F8EEC30
:10326C0039F073C128F174C129F1800E0101736F1B
:10327C00000E746F000E756F000E766F8EEC39F0C9
:10328C0073C185F174C186F12EC130F12FC131F1BA
:10329C00EF0E0101006F28C101F185C102F130C1AF
:1032AC0003F1FE0E046F020E0101806F040E7F6F9E
:1032BC00BA0EE82EFED77F2FFCD7802FFAD700F05E
:1032CC00000E01012D6F000E2C6F2D5109E1050E22
:1032DC002C5DD8A074EF19F076EF19F078EF19F097
:1032EC0017EF19F0000E2C25D96E010E2D21DA6E78
:1032FC00DF50EDEC3EF001012C4B2D2B6BEF19F058
:10330C004351D8A48CEF19F08EEF19F0E5EF19F0BA
:10331C00010E436F12C13FF1B4EF19F0030E886F29
:10332C00E80E876FD5EF19F00B0E886FB80E876F0C
:10333C00D5EF19F00F0E886FA00E876FD5EF19F02F
:10334C00130E886F880E876FD5EF19F0070E886FF4
:10335C00D00E876F820E3F6FD5EF19F03F517F6F04
:10336C00806B8051000AD8B4BEEF19F0ACEF19F0A5
:10337C007F51810AD8B494EF19F0030AD8B4ACEF9A
:10338C0019F0010AD8B49AEF19F0070AD8B4A0EFD3
:10339C0019F0010AD8B4A6EF19F0ACEF19F0400EF1
:1033AC00736F000E746F000E756F000E766F3FC159
:1033BC0077F1786BCCEC3AF0000E0101436F43517E
:1033CC00D8A4EBEF19F0EDEF19F041EF1BF0010E63
:1033DC00436F12C13EF13EC136F1376B500E736F25
:1033EC00000E746F000E756F000E766F3EC177F194
:1033FC00786BCCEC3AF092EF15F04351D8A409EF6E
:10340C001AF00BEF1AF041EF1BF0010E436F710E27
:10341C001219D8A414EF1AF016EF1AF022EF1AF0C2
:10342C00000E7A6F040E796F7AEC2EF079C13CF1B4
:10343C007AC13DF176EF1AF0720E1219D8A429EF69
:10344C001AF02BEF1AF037EF1AF0000E7A6F000E0D
:10345C00796F7AEC2EF079C13CF17AC13DF176EFBF
:10346C001AF0730E1219D8A43EEF1AF040EF1AF0AE
:10347C004CEF1AF0000E7A6F010E796F7AEC2EF089
:10348C0079C13CF17AC13DF176EF1AF0740E121944
:10349C00D8A453EF1AF055EF1AF061EF1AF0000EA2
:1034AC007A6F020E796F7AEC2EF079C13CF17AC109
:1034BC003DF176EF1AF0750E1219D8A468EF1AF0D8
:1034CC006AEF1AF076EF1AF0000E7A6F030E796F2E
:1034DC007AEC2EF079C13CF17AC13DF176EF1AF01D
:1034EC00700E0101736F000E746F000E756F000E7D
:1034FC00766F8EEC39F073C13AF174C13BF16FEC1D
:10350C003CF03AC16BF13BC16CF142C16DF1A9ECDD
:10351C002FF0040E0101806F0C0E7F6F330EE82E1E
:10352C00FED77F2FFCD7802FFAD700D092EF15F063
:10353C004351D8A4A4EF1AF0A6EF1AF041EF1BF0F8
:10354C00010E436F650E1219D8A4AFEF1AF0B1EF4C
:10355C001AF0B7EF1AF0000E316F310E306FC9EF61
:10356C001AF0660E1219D8A4BEEF1AF0C0EF1AF0BA
:10357C00C6EF1AF0000E316F5A0E306FC9EF1AF009
:10358C0012C130F1316B30C12EF131C12FF130C18C
:10359C006DF131C16EF142C16FF107EC37F092EF72
:1035AC0015F04351D8A4DDEF1AF0DFEF1AF041EF1C
:1035BC001BF0010E436F12C128F1296B2851291100
:1035CC00D8B4EBEF1AF0EDEF1AF0F8EF1AF028057B
:1035DC002911D8B4F4EF1AF0F6EF1AF0F8EF1AF04C
:1035EC0092EF15F0900E736F000E746F000E756FE6
:1035FC00000E766F28C177F129C178F1CCEC3AF046
:10360C0092EF15F011517F6F806B8051000AD8B486
:10361C0012EF1BF041EF1BF07F51060AD8B44BEFB1
:10362C0015F0250AD8B43BEF18F0670AD8B497EF19
:10363C0015F0020AD8B402EF16F0170AD8B4A5EFA9
:10364C0018F0030AD8B41BEF19F0060AD8B403EF2C
:10365C001AF0010AD8B4D7EF1AF0300AD8B486EFB2
:10366C0019F0030AD8B4E5EF19F0120AD8B49EEF9A
:10367C001AF041EF1BF0000E446F000E0001E26FD8
:10368C00000E0101416FCBEF0BF0000E416FCBEF41
:10369C000BF0010141517F6F806B8051000AD8B44F
:1036AC005AEF1BF0CBEF0BF07F51000AD8B4DFEFD1
:1036BC000BF0020AD8B43FEF0EF0010AD8B441EF78
:1036CC0015F0CBEF0BF0E6EF01F08984020E71ECF4
:1036DC003BF00001C06FEF0EC019D8A478EF1BF0BF
:1036EC007AEF1BF07EEF21F0000E996F010E986FB0
:1036FC00C00E9825D96E000E9921DA6E020E71EC6F
:10370C003BF0DF6E0001984B992B99BF97EF1BF0A4
:10371C00995109E1050E985DD8A097EF1BF099EF30
:10372C001BF07EEF1BF0C1C0E9F0C2C0E8F0C3C0D3
:10373C00E7F0C4C0E6F0EF0EC019D8A4A8EF1BF058
:10374C00AAEF1BF06EEF21F0FE0EE619D8A4B1EF34
:10375C001BF0B3EF1BF06EEF21F0E9C081F0E8C075
:10376C0082F0E7C083F0E6C084F0C05107EC3CF077
:10377C002BEF21F0600EE56F000EE46FE551E425B0
:10378C00E36FE5C081F0E4C082F0E3C083F0EFC0EA
:10379C0084F0F05107EC3CF0D4EC3EF069EF21F0F2
:1037AC00F10EE819D8A4DDEF1BF0DFEF1BF0FFEFF3
:1037BC001BF001014351D8A4E6EF1BF0E8EF1BF01E
:1037CC00FFEF1BF0000E0001E16F010E0101436FD2
:1037DC002EC130F12FC131F11E0E00018D6F000E84
:1037EC008E6F000E8F6F000E906F44EC2AF03CEF42
:1037FC001CF0F20E0001E819D8A407EF1CF009EF39
:10380C001CF025EF1CF001014351D8A410EF1CF063
:10381C0012EF1CF025EF1CF0000E276F010E266F27
:10382C00010E436F1E0E00018D6F000E8E6F000E89
:10383C008F6F000E906FBFEC23F03CEF1CF0F50E79
:10384C000001E819D8A42DEF1CF02FEF1CF03CEF71
:10385C001CF001014351D8A436EF1CF038EF1CF0DA
:10386C003CEF1CF0000E276F000E266F65EC3DF050
:10387C0030EC3FF0000E0001E16F000E0101436FD0
:10388C0069EF21F0E851D8B44EEF1CF050EF1CF06A
:10389C003CEF1EF001014351D8A457EF1CF059EF37
:1038AC001CF03CEF1EF0000E276F010E266F010E70
:1038BC00436FE8C030F1316B30C109F031C10AF00F
:1038CC0093C00BF068EC38F030C12EF131C12FF100
:1038DC001E0E00018D6F000E8E6F000E8F6F000E8E
:1038EC00906F880EE819D8A47EEF1CF080EF1CF0C6
:1038FC0084EF1CF0010E936F8FEF1CF0770EE8191C
:10390C00D8A48BEF1CF08DEF1CF08FEF1CF0000E89
:10391C00936F8FEC3CF0400E0F6E000E106E000E8D
:10392C00116E000E126E39EC3AF00F5001013F6F20
:10393C00C1EF1CF0030E926FE80E916FE3EF1CF0D9
:10394C000B0E926FB80E916FE3EF1CF00F0E926F8F
:10395C00A00E916FE3EF1CF0130E926F880E916F17
:10396C00E3EF1CF0070E926FD00E916F820E0101E7
:10397C003F6FE3EF1CF03F510001946F956B955135
:10398C00000AD8B4CCEF1CF0B8EF1CF09451810AAB
:10399C00D8B4A0EF1CF0030AD8B4B8EF1CF0010A9D
:1039AC00D8B4A6EF1CF0070AD8B4ACEF1CF0010A8F
:1039BC00D8B4B2EF1CF0B8EF1CF0600E0F6E000E16
:1039CC00106E000E116E000E126E39EC3AF00F50A4
:1039DC000101406F1EEF1DF0030E0101336FE80E65
:1039EC00326F44EF1DF0070E0101336FD00E326FB2
:1039FC0044EF1DF00B0E0101336FB80E326F44EF24
:103A0C001DF00F0E0101336FA00E326F44EF1DF04D
:103A1C00130E0101336F880E326F44EF1DF0000E50
:103A2C000101336F000E326F300E406F44EF1DF00A
:103A3C0040510001946F956B9551000AD8B429EF51
:103A4C001DF015EF1DF09451300AD8B415EF1DF090
:103A5C00010AD8B4F2EF1CF0030AD8B4F9EF1CF049
:103A6C00010AD8B400EF1DF0070AD8B407EF1DF017
:103A7C00010AD8B40EEF1DF015EF1DF000019351A3
:103A8C00D8B44BEF1DF04DEF1DF064EF1DF08B82A1
:103A9C0091C001F092C002F038EC3EF08B92040E13
:103AAC000001956F0C0E946F330EE82EFED7942FF9
:103ABC00FCD7952FFAD700D065EF1DF08B92898437
:103ACC0032C101F033C102F038EC3EF056EC3FF05D
:103ADC00020E0001956F860E946F990EE82EFED79C
:103AEC00942FFCD7952FFAD71E0E00018D6F000E68
:103AFC008E6F000E8F6F000E906FF6EC3AF001C0D7
:103B0C0096F002C097F000018D518E118F1190111B
:103B1C00D8A493EF1DF095EF1DF0AAEF1DF05BEC10
:103B2C003FF0E10E0001E56F110EE46FE551E42565
:103B3C00E36FE5C081F0E4C082F0E3C083F0EFC036
:103B4C0084F0F05107EC3CF0000196519711D8A489
:103B5C00B2EF1DF0B4EF1DF083EF1DF04E0E00011F
:103B6C00946FEB0EE82EFED7942FFCD71E0E00019F
:103B7C008D6F000E8E6F000E8F6F000E906FF6EC37
:103B8C003AF001C096F002C097F000018D518E11F1
:103B9C008F119011D8A4D5EF1DF0D7EF1DF0ECEFDD
:103BAC001DF05BEC3FF0E20E0001E56F110EE46FCF
:103BBC00E551E425E36FE5C081F0E4C082F0E3C099
:103BCC0083F0EFC084F0F05107EC3CF00001960557
:103BDC009711D8A4F4EF1DF0F6EF1DF0C5EF1DF012
:103BEC001E0E8D6F000E8E6F000E8F6F000E906F7D
:103BFC008BC001F08CC002F038EC3EF05BEC3FF077
:103C0C0000019351D8B40DEF1EF00FEF1EF026EF0C
:103C1C001EF08B8291C001F092C002F038EC3EF0A5
:103C2C008B92040E0001956F0C0E946F330EE82EE0
:103C3C00FED7942FFCD7952FFAD700D027EF1EF084
:103C4C008B92F90E0001E56FE8C0E4F0E551E42534
:103C5C00E36FE5C081F0E4C082F0E3C083F0EFC015
:103C6C0084F0F05107EC3CF053EF1EF0F50E000120
:103C7C00E819D8A444EF1EF046EF1EF053EF1EF0E7
:103C8C0001014351D8A44DEF1EF04FEF1EF053EF3E
:103C9C001EF0000E276F000E266F65EC3DF030EC29
:103CAC003FF0000E0101276F000E266F40EF1CF055
:103CBC005BEC3FF0310E0001816F000E826F310E14
:103CCC00836FFE0E846FEF0E07EC3CF069EF21F072
:103CDC005BEC3FF0320E0001816F000E826F310EF3
:103CEC00836FFE0E846FEF0E07EC3CF069EF21F052
:103CFC0001014351D8A485EF1EF087EF1EF069EF48
:103D0C0021F0010E436FE8C040F1B9EF1EF0030E35
:103D1C000101336FE80E326FDFEF1EF0070E010169
:103D2C00336FD00E326FDFEF1EF00B0E0101336FCD
:103D3C00B80E326FDFEF1EF00F0E0101336FA00EC5
:103D4C00326FDFEF1EF0130E0101336F880E326FEE
:103D5C00DFEF1EF0000E0101336F000E326F300EDC
:103D6C00406FDFEF1EF040510001946F956B955141
:103D7C00000AD8B4C4EF1EF0B0EF1EF09451300A14
:103D8C00D8B4B0EF1EF0010AD8B48DEF1EF0030AC0
:103D9C00D8B494EF1EF0010AD8B49BEF1EF0070ABA
:103DAC00D8B4A2EF1EF0010AD8B4A9EF1EF0B0EF00
:103DBC001EF0600E0F6E000E106E000E116E000ED7
:103DCC00126E40C113F0146ABEEC3BF065EC3DF092
:103DDC0043EF1CF001014351D8A4F7EF1EF0F9EFAB
:103DEC001EF069EF21F0010E436FE8C03FF120EFA8
:103DFC001FF0030E926FE80E916F42EF1FF00B0E47
:103E0C00926FB80E916F42EF1FF00F0E926FA00ED3
:103E1C00916F42EF1FF0130E926F880E916F42EF6D
:103E2C001FF0070E926FD00E916F820E01013F6F43
:103E3C0042EF1FF03F510001946F956B9551000AB2
:103E4C00D8B42BEF1FF017EF1FF09451810AD8B4A0
:103E5C00FFEF1EF0030AD8B417EF1FF0010AD8B415
:103E6C0005EF1FF0070AD8B40BEF1FF0010AD8B406
:103E7C0011EF1FF017EF1FF0400E0F6E000E106EBB
:103E8C00000E116E000E126E3FC113F0146ABEECE0
:103E9C003BF043EF1CF001014351D8A458EF1FF045
:103EAC005AEF1FF069EF21F00001E851D8A461EF3F
:103EBC001FF063EF1FF0ADEF1FF0010E0101436F18
:103ECC00600E0F6E000E106E000E116E000E126E54
:103EDC0039EC3AF00F500101406F400E0F6E000E9E
:103EEC00106E000E116E000E126E39EC3AF00F507F
:103EFC0001013F6F700E0F6E000E106E000E116EF2
:103F0C00000E126E39EC3AF00FC03AF110C03BF1D2
:103F1C0040C1E5F03AC1E4F03FC1E3F0020E00010C
:103F2C00956F040E946FBA0EE82EFED7942FFCD723
:103F3C00952FFAD700F0E5C081F0E4C082F0E3C021
:103F4C0083F0EFC084F00001F05107EC3CF030EC52
:103F5C003FF043EF1CF001014351D8A4B8EF1FF020
:103F6C00BAEF1FF069EF21F00001E851D8A4C1EFBE
:103F7C001FF0C3EF1FF0ADEF1FF0010E0101436FF7
:103F8C00900E0F6E000E106E000E116E000E126E63
:103F9C0039EC3AF00FC028F110C029F1800E0F6EE9
:103FAC00000E106E000E116E000E126E39EC3AF00F
:103FBC000FC085F110C086F12EC130F12FC131F147
:103FCC0028C1E5F085C1E4F030C1E3F0020E000138
:103FDC00956F040E946FBA0EE82EFED7942FFCD773
:103FEC00952FFAD700F0E5C081F0E4C082F0E3C071
:103FFC0083F0EFC084F00001F05107EC3CF0ADEF22
:10400C001FF0710EE819D8A40EEF20F010EF20F07D
:10401C0021EF20F0000E166E040E156E12EC2FF030
:10402C0015C03CF116C03DF1000E0001936F710EEE
:10403C00E46F81EF20F0720EE819D8A428EF20F07D
:10404C002AEF20F039EF20F0000E166E000E156EE0
:10405C0012EC2FF015C03CF116C03DF1720E0001B0
:10406C00E46F81EF20F0730EE819D8A440EF20F034
:10407C0042EF20F051EF20F0000E166E010E156E7F
:10408C0012EC2FF015C03CF116C03DF1730E00017F
:10409C00E46F81EF20F0740EE819D8A458EF20F0EB
:1040AC005AEF20F069EF20F0000E166E020E156E1E
:1040BC0012EC2FF015C03CF116C03DF1740E00014E
:1040CC00E46F81EF20F0750EE819D8A470EF20F0A2
:1040DC0072EF20F081EF20F0000E166E030E156EBD
:1040EC0012EC2FF015C03CF116C03DF1750E00011D
:1040FC00E46F81EF20F0700E0F6E000E106E000E4C
:10410C00116E000E126E39EC3AF00FC03AF110C07D
:10411C003BF18FEC3CF0540E0001E56FE551E425CA
:10412C00E36FE5C081F0E4C082F0E3C083F0EFC040
:10413C0084F0F05107EC3CF03CC101F03DC102F0C1
:10414C0021EC3EF0040E0001956F0C0E946F330EB3
:10415C00E82EFED7942FFCD7952FFAD700D065EC1C
:10416C003DF030EC3FF069EF21F001014351D8A450
:10417C00C2EF20F0C4EF20F069EF21F0010E436F85
:10418C00650E0001E819D8A4CEEF20F0D0EF20F096
:10419C00D7EF20F0000E0101316F310E306FEBEFD5
:1041AC0020F0660EE819D8A4DEEF20F0E0EF20F046
:1041BC00E7EF20F0000E0101316F5A0E306FEBEF7C
:1041CC0020F0E8C030F10101316B30C12EF131C16A
:1041DC002FF130C109F031C10AF093C00BF068EC3B
:1041EC0038F043EF1CF001014351D8A400EF21F04B
:1041FC0002EF21F069EF21F0010E436FE8C028F1C6
:10420C00296B28512911D8B40EEF21F010EF21F0B1
:10421C001BEF21F028052911D8B417EF21F019EF65
:10422C0021F01BEF21F043EF1CF0900E0F6E000EEF
:10423C00106E000E116E000E126E28C113F029C103
:10424C0014F0BEEC3BF043EF1CF00001E951946F0D
:10425C00956B9551000AD8B436EF21F069EF21F037
:10426C009451060AD8B4C0EF1BF0250AD8B47EEFDF
:10427C001EF0120AD8B45EEF1EF0030AD8B46EEF2B
:10428C001EF0760AD8B4D6EF1BF0020AD8B448EF69
:10429C001CF0170AD8B451EF1FF0030AD8B4B1EFD1
:1042AC001FF0060AD8B407EF20F0010AD8B4F9EFD2
:1042BC0020F0300AD8B4F0EF1EF0110AD8B4BBEFDE
:1042CC0020F069EF21F0000E0101416F7EEF21F02B
:1042DC00E969E869E769E9C081F0E8C082F0E7C004
:1042EC0083F0EFC084F0F05107EC3CF069EF21F063
:1042FC00120001014205D8A486EF21F088EF21F0CD
:10430C009FEF21F08B8287C165F188C166F1EFECDC
:10431C003DF08B92040E0101776F0C0E766F330E0D
:10432C00E82EFED7762FFCD7772FFAD700D0A2EF46
:10433C0021F08B9290EF21F08984010130513111E1
:10434C00D8A4ABEF21F0ADEF21F0B4EF21F0000ECB
:10435C000001D46F010ED36F5EEF23F0000E00014D
:10436C00D46F000ED36F5EEF23F0040049EC36F0EF
:10437C00E3EC3BF032C165F133C166F1EFEC3DF09B
:10438C004CEC3FF0020E0101776F6C0E766F9F0EB6
:10439C00E82EFED7762FFCD7772FFAD700D01E0E3B
:1043AC000101816F000E826F000E836F000E846F0F
:1043BC009EEC3AF065C12AF166C12BF101018151E5
:1043CC00821183118411D8A4EEEF21F0F0EF21F0CB
:1043DC00F5EF21F0310E68EC33F051EC3FF00101B8
:1043EC002A512B11D8A4FDEF21F0FFEF21F0DEEFC5
:1043FC0021F04E0E0101766FEB0EE82EFED7762FD4
:10440C00FCD71E0E0101816F000E826F000E836FB0
:10441C00000E846F9EEC3AF065C12AF166C12BF157
:10442C0001018151821183118411D8A420EF22F053
:10443C0022EF22F027EF22F0320E68EC33F051EC31
:10444C003FF001012A052B11D8A42FEF22F031EFF8
:10445C0022F010EF22F01E0E816F000E826F000E04
:10446C00836F000E846F36C165F137C166F1EFECD6
:10447C003DF051EC3FF0010130513111D8B449EF0E
:10448C0022F04BEF22F059EF22F00001D305D411AA
:10449C00D8B453EF22F055EF22F059EF22F001017E
:1044AC003007D8A0310730C16DF131C16EF142C176
:1044BC006FF107EC37F001014205D8A468EF22F048
:1044CC006AEF22F094EF22F030513111D8A471EF41
:1044DC0022F073EF22F07DEF22F00001D305D4110E
:1044EC00D8A47BEF22F07DEF22F094EF22F08B82A8
:1044FC0087C165F188C166F1EFEC3DF08B92040E3B
:10450C000101776F0C0E766F330EE82EFED7762FE7
:10451C00FCD7772FFAD700D0DAEF22F00101425105
:10452C00D8A49BEF22F09DEF22F0DAEF22F030516D
:10453C003111D8A4A4EF22F0A6EF22F0B0EF22F0B4
:10454C000001D305D411D8A4AEEF22F0B0EF22F0C5
:10455C00DAEF22F08B92010130513111D8A4B9EF6E
:10456C0022F0BBEF22F0C5EF22F00001D305D411ED
:10457C00D8A4C3EF22F0C5EF22F0CDEF22F087C113
:10458C0065F188C166F1EFEC3DF0DAEF22F0060E32
:10459C000101776F130E766FAD0EE82EFED7762FD6
:1045AC00FCD7772FFAD700D00001E105D8A4E1EFB2
:1045BC0022F0E3EF22F015EF23F072EF23F0000E60
:1045CC00D46F020ED36F30C16DF131C16EF10101A8
:1045DC004251D8B4F4EF22F0F7EF22F0010EF8EFCD
:1045EC0022F0000E6F6F07EC37F0820E0101766F30
:1045FC00DD0EE82EFED7762FFCD700D030C16DF142
:10460C0031C16EF142C16FF107EC37F0820E01013E
:10461C00766FDD0EE82EFED7762FFCD700D0010189
:10462C0026512711D8A41DEF23F01FEF23F032EFF2
:10463C0023F00001D305D411D8B427EF23F029EFD0
:10464C0023F0E5EF22F0D351D411D8B430EF23F09E
:10465C0032EF23F0E5EF22F030C16DF131C16EF194
:10466C0042C16FF107EC37F0010126512711D8A494
:10467C0042EF23F044EF23F055EF23F0305131118A
:10468C00D8B44BEF23F04DEF23F055EF23F030C1AE
:10469C002EF131C12FF1000E316F000E306F820EF2
:1046AC000101766FDD0EE82EFED7762FFCD700D0F9
:1046BC00010130513111D8A466EF23F068EF23F0DB
:1046CC00BBEF21F00001D305D411D8B470EF23F067
:1046DC0072EF23F0BBEF21F08994010130513111BD
:1046EC00D8B47BEF23F07DEF23F086EF23F00001AD
:1046FC00E105D8A484EF23F086EF23F0AEEF23F08E
:10470C000001D351D411D8A48EEF23F090EF23F0F5
:10471C00AEEF23F001014205D8A497EF23F099EFF7
:10472C0023F0AEEF23F08B8287C165F188C166F16F
:10473C00EFEC3DF08B92040E0101776F0C0E766F4F
:10474C00330EE82EFED7762FFCD7772FFAD700D072
:10475C00000E0001D46F000ED36F000E0101316FFB
:10476C00000E306F000E276F000E266F000E416F8B
:10477C00120001014205D8A4C6EF23F0C8EF23F0C4
:10478C00DDEF23F08B8287C101F088C102F04EEC83
:10479C003EF08B92040E136E0C0E126E340EE82E3D
:1047AC00FED7122EFCD7132EFAD7E0EF23F08B9204
:1047BC00D0EF23F08984010130513111D8A4E9EFF5
:1047CC0023F0EBEF23F0F2EF23F0000E0001D46F97
:1047DC00010ED36F90EF25F0000E0001D46F000E88
:1047EC00D36F90EF25F00400A9EC36F0AFEC3CF061
:1047FC0032C101F033C102F04EEC3EF056EC3FF00A
:10480C00020E136E6C0E126EA00EE82EFED7122E38
:10481C00FCD7132EFAD71E0E0101816F000E826F8A
:10482C00000E836F000E846FF6EC3AF001C02AF193
:10483C0002C02BF101018151821183118411D8A482
:10484C002AEF24F02CEF24F031EF24F0310EDEECC3
:10485C0033F05BEC3FF001012A512B11D8A439EF56
:10486C0024F03BEF24F01AEF24F04E0E126EEB0EF8
:10487C00E82EFED7122EFCD700F01E0E0101816F20
:10488C00000E826F000E836F000E846FF6EC3AF010
:10489C0001C02AF102C02BF1010181518211831157
:1048AC008411D8A45CEF24F05EEF24F063EF24F0C5
:1048BC00320EDEEC33F05BEC3FF001012A052B11DC
:1048CC00D8A46BEF24F06DEF24F04CEF24F01E0E07
:1048DC00816F000E826F000E836F000E846F36C1E5
:1048EC0001F037C102F04EEC3EF05BEC3FF0010101
:1048FC0030513111D8B485EF24F087EF24F095EFC7
:10490C0024F00001D305D411D8B48FEF24F091EF2B
:10491C0024F095EF24F001013007D8A0310730C105
:10492C0009F031C10AF042C10BF068EC38F001011A
:10493C004205D8A4A4EF24F0A6EF24F0CEEF24F087
:10494C0030513111D8A4ADEF24F0AFEF24F0B9EF12
:10495C0024F00001D305D411D8A4B7EF24F0B9EF9B
:10496C0024F0CEEF24F08B8287C101F088C102F0D5
:10497C004EEC3EF08B92040E136E0C0E126E340E37
:10498C00E82EFED7122EFCD7132EFAD712EF25F0F5
:10499C0001014251D8A4D5EF24F0D7EF24F012EF47
:1049AC0025F030513111D8A4DEEF24F0E0EF24F0E3
:1049BC00EAEF24F00001D305D411D8A4E8EF24F0D9
:1049CC00EAEF24F012EF25F08B92010130513111F6
:1049DC00D8A4F3EF24F0F5EF24F0FFEF24F000015E
:1049EC00D305D411D8A4FDEF24F0FFEF24F007EF8A
:1049FC0025F087C101F088C102F04EEC3EF012EFB9
:104A0C0025F0060E136E130E126EAE0EE82EFED7A8
:104A1C00122EFCD7132EFAD70001E105D8A419EFFA
:104A2C0025F01BEF25F049EF25F0A4EF25F0000E43
:104A3C00D46F020ED36F30C109F031C10AF00101FD
:104A4C004251D8B42CEF25F02FEF25F0010E30EFAA
:104A5C0025F0000E0B6E68EC38F0820E126EDE0E36
:104A6C00E82EFED7122EFCD730C109F031C10AF066
:104A7C0042C10BF068EC38F0820E126EDE0EE82E9E
:104A8C00FED7122EFCD7010126512711D8A451EFC5
:104A9C0025F053EF25F066EF25F00001D305D41176
:104AAC00D8B45BEF25F05DEF25F01DEF25F0D35169
:104ABC00D411D8B464EF25F066EF25F01DEF25F086
:104ACC0030C109F031C10AF042C10BF068EC38F08A
:104ADC00010126512711D8A476EF25F078EF25F0A7
:104AEC0089EF25F030513111D8B47FEF25F081EFEB
:104AFC0025F089EF25F030C12EF131C12FF1000ED8
:104B0C00316F000E306F820E126EDE0EE82EFED765
:104B1C00122EFCD7010130513111D8A498EF25F099
:104B2C009AEF25F0F9EF23F00001D305D411D8B496
:104B3C00A2EF25F0A4EF25F0F9EF23F08994010101
:104B4C0030513111D8B4ADEF25F0AFEF25F0B8EFFF
:104B5C0025F00001E105D8A4B6EF25F0B8EF25F05B
:104B6C00DEEF25F00001D351D411D8A4C0EF25F00D
:104B7C00C2EF25F0DEEF25F001014205D8A4C9EF04
:104B8C0025F0CBEF25F0DEEF25F08B8287C101F00D
:104B9C0088C102F04EEC3EF08B92040E136E0C0E9C
:104BAC00126E340EE82EFED7122EFCD7132EFAD727
:104BBC00000E0001D46F000ED36F000E0101316F97
:104BCC00000E306F000E276F000E266F000E416F27
:104BDC00120041C0D9FF42C0DAFFDECFF6FFDDCFB5
:104BEC00F7FFF86A0800F550250AD8A400EF26F064
:104BFC0002EF26F09CEF27F041C0D9FF42C0DAFF4C
:104C0C00DE2A000EDD22000E0001C66F000EC56FFD
:104C1C00C5C0DDF0C769C869000E4A6E000E496E4A
:104C2C0044EF26F00001DD8341C0D9FF42C0DAFF1A
:104C3C00DE2A000EDD2244EF26F0000E4A6E010E35
:104C4C00496E44EF26F041C0D9FF42C0DAFFDECFF7
:104C5C00F6FFDDCFF7FFF86A0800F550456E466A9F
:104C6C004650000AD8B43DEF26F023EF26F045500D
:104C7C00300AD8B418EF26F023EF26F049504A102A
:104C8C00D8B44BEF26F04DEF26F029EF26F041C0BB
:104C9C00D9FF42C0DAFFDECFF6FFDDCFF7FFF86AAF
:104CAC000800F5502A0AD8A45EEF26F060EF26F033
:104CBC008AEF26F041C0D9FF42C0DAFFDE2A000E8F
:104CCC00DD2243C0D9FF44C0DAFFDFCF45F0020E2E
:104CDC00DE26DFCF46F0000EDD2245C0D9FF46C0F0
:104CEC00DAFFDECFC5F0DDCFC6F00001C6BF83EF23
:104CFC0026F081EF26F0BEEF26F0DD81C56DC61FD4
:104D0C00D8B0C62BBEEF26F041C0D9FF42C0DAFFA7
:104D1C00DECF07F0DDCF08F0D0EC2DF007C0C5F0EA
:104D2C0008C0C6F0A1EF26F041C0D9FF42C0DAFF9F
:104D3C00DE2A000EDD2241C0D9FF42C0DAFFDECFF1
:104D4C00F6FFDDCFF7FFF86A0800F5CF45F0D00E7F
:104D5C004524466E476AFF0E4722475009E10A0E6A
:104D6C00465CD8A0BCEF26F0BEEF26F09AEF26F0FA
:104D7C0041C0D9FF42C0DAFFDECF53F0DDCF54F093
:104D8C0053C0F6FF54C0F7FFF86A0800F550640AE8
:104D9C00D8B4D3EF26F0D5EF26F0E4EF26F053C0CD
:104DAC00F6FF54C0F7FFF86A0800F550690AD8A45A
:104DBC00E2EF26F0E4EF26F027EF27F043C0D9FF0F
:104DCC0044C0DAFFDFCF45F0020EDE26DFCF46F01F
:104DDC00000EDD2245C0D9FF46C0DAFFDECF4BF016
:104DEC00DDCF4CF0000E4CBEFF0E4D6E4E6E4F6E76
:104DFC00506E516E526E010E5324456E000E5420AF
:104E0C00466E41C0D9FF42C0DAFF45C0DEFF46C046
:104E1C00DDFF3FC01CF040C01DF04BC01EF04CC06D
:104E2C001FF04DC020F04EC021F04FC022F050C0FA
:104E3C0023F051C024F052C025F0B2EC27F0B1EFB2
:104E4C0027F053C0F6FF54C0F7FFF86A0800F5507E
:104E5C00580AD8A434EF27F036EF27F093EF27F059
:104E6C0043C0D9FF44C0DAFFDFCF45F0020EDE2687
:104E7C00DFCF46F0000EDD2245C0D9FF46C0DAFF79
:104E8C00DECF47F0DDCF48F047C04BF048C04CF0C8
:104E9C004D6A4E6A4F6A506A516A526A010E532427
:104EAC00456E000E5420466E41C0D9FF42C0DAFF59
:104EBC0045C0DEFF46C0DDFF7CEF27F03FC01CF095
:104ECC0040C01DF04BC01EF04CC01FF04DC020F078
:104EDC004EC021F04FC022F050C023F051C024F03E
:104EEC0052C025F072EC2BF0B1EF27F053C0F6FF57
:104EFC0054C0F7FFF86A0800F550456E466A4650F4
:104F0C00000AD8B48CEF27F093EF27F04550580ADD
:104F1C00D8B464EF27F093EF27F041C0D9FF42C01B
:104F2C00DAFFDE2A000EDD22B1EF27F041C0D9FFF7
:104F3C0042C0DAFFDECFF6FFDDCFF7FFF86A0800DC
:104F4C00F550016E026A3FC003F040C004F01FEC44
:104F5C0035F093EF27F012001EC034F01FC035F06F
:104F6C0020C036F021C037F022C038F023C039F011
:104F7C0024C03AF025C03BF03BBEC7EF27F0CAEF88
:104F8C0027F0010ECBEF27F0000E3E6E3E50D8B44A
:104F9C00D2EF27F0D4EF27F0E4EF27F03B1E3A1EB8
:104FAC00391E381E371E361E351E346C000E352247
:104FBC0036223722382239223A223B220001C8BF3E
:104FCC00EAEF27F0ECEF27F0EDEF27F0DD93C8BF09
:104FDC00FAEF27F0C85106E1C705D8B0F8EF27F073
:104FEC00FAEF27F000EF28F0000E316E010E306E54
:104FFC0004EF28F0C7C030F0C8C031F0C5C032F0A3
:10500C00C6C033F03E50D8B40EEF28F010EF28F0A5
:10501C0027EF28F03206D8A033063E50D8A419EF5B
:10502C0028F01BEF28F021EF28F0000E2F6E2B0E2E
:10503C002E6E25EF28F0000E2F6E2D0E2E6E2EC02C
:10504C003EF0000E3D6E1F0E3C6E000E0101646FB3
:10505C00ACEF28F03C06D8A03D06450E3C24D96E9A
:10506C00010E3D20DA6E34C001F035C002F036C0BE
:10507C0003F037C004F038C005F039C006F03AC070
:10508C0007F03BC008F00A0E096E000E0A6E000E07
:10509C000B6E000E0C6E000E0D6E000E0E6E000EE2
:1050AC000F6E000E106E1EEC2DF001C026F002C02B
:1050BC0027F003C028F004C029F005C02AF006C070
:1050CC002BF007C02CF008C02DF026C013F027C021
:1050DC0014F0CFEC3CF01350300FDF6E3006D8A03C
:1050EC0031063206D8A0330634C001F035C002F0C8
:1050FC0036C003F037C004F038C005F039C006F0F4
:10510C003AC007F03BC008F00A0E096E000E0A6E9A
:10511C00000E0B6E000E0C6E000E0D6E000E0E6E61
:10512C00000E0F6E000E106E5AEC2CF001C034F015
:10513C0002C035F003C036F004C037F005C038F0BB
:10514C0006C039F007C03AF008C03BF03DBEB7EFDF
:10515C0028F03D5008E13C04D8A0B7EF28F0B9EF97
:10516C0028F0EAEF28F0345035103610371038108C
:10517C0039103A103B10D8A4C6EF28F0C8EF28F02D
:10518C0030EF28F031BED5EF28F0315006E1300475
:10519C00D8B0D3EF28F0D5EF28F030EF28F033BE9D
:1051AC00E0EF28F0335008E13204D8A0E0EF28F00B
:1051BC00E2EF28F0EAEF28F00001DDB3E8EF28F089
:1051CC00EAEF28F030EF28F03E50D8B4F0EF28F09A
:1051DC00F2EF28F0FDEF28F03C06D8A03D06450E76
:1051EC003C24D96E010E3D20DA6E3EC0DFFF1CC0A0
:1051FC0011F01DC012F0450E3C24136E010E3D2023
:10520C00146E32C015F033C016F011EC38F01200E9
:10521C00000E01012B6F000E2A6F410E66EC32F06E
:10522C0001014205D8A41DEF29F01FEF29F036EF3C
:10523C0029F08B8287C165F188C166F1EFEC3DF0F6
:10524C008B92040E01016F6F0C0E6E6F330EE82EF5
:10525C00FED76E2FFCD76F2FFAD700D039EF29F07D
:10526C008B9227EF29F08984F4EF29F0040049ECA4
:10527C0036F0E3EC3BF032C165F133C166F1EFEC93
:10528C003DF04CEC3FF0020E01016F6F6C0E6E6F37
:10529C009F0EE82EFED76E2FFCD76F2FFAD700D0BB
:1052AC001E0E0101816F000E826F000E836F000EC7
:1052BC00846F9EEC3AF065C12AF166C12BF10101B5
:1052CC008151821183118411D8A46FEF29F071EFF1
:1052DC0029F076EF29F0310E68EC33F051EC3FF009
:1052EC0001012A512B11D8A47EEF29F080EF29F06F
:1052FC005FEF29F04E0E01016E6FEB0EE82EFED71C
:10530C006E2FFCD71E0E0101816F000E826F000EF6
:10531C00836F000E846F9EEC3AF065C12AF166C172
:10532C002BF101018151821183118411D8A4A1EFB9
:10533C0029F0A3EF29F0A8EF29F0320E68EC33F036
:10534C0051EC3FF001012A052B11D8A4B0EF29F044
:10535C00B2EF29F091EF29F01E0E816F000E826FD3
:10536C00000E836F000E846F36C165F137C166F194
:10537C00EFEC3DF051EC3FF001014205D8A4C9EF30
:10538C0029F0CBEF29F0E2EF29F08B8287C165F190
:10539C0088C166F1EFEC3DF08B92040E01016F6F4A
:1053AC000C0E6E6F330EE82EFED76E2FFCD76F2FC0
:1053BC00FAD700D0E9EF29F08B9287C165F188C14B
:1053CC0066F1EFEC3DF00001E105D8A4F0EF29F017
:1053DC00F2EF29F0F4EF29F0FDEF29F00001E15193
:1053EC00D8B4FBEF29F0FDEF29F03CEF29F08994BC
:1053FC00010130513111D8B406EF2AF008EF2AF030
:10540C0011EF2AF00001E105D8A40FEF2AF011EFFB
:10541C002AF02FEF2AF001014205D8A418EF2AF048
:10542C001AEF2AF02FEF2AF08B8287C165F188C121
:10543C0066F1EFEC3DF08B92040E01016F6F0C0ED8
:10544C006E6F330EE82EFED76E2FFCD76F2FFAD768
:10545C0000D0000E0101316F000E306F020E4119A9
:10546C00D8A43BEF2AF03DEF2AF041EF2AF0020ED0
:10547C00416F43EF2AF0030E416F1200000E010141
:10548C002B6F000E2A6F410EE8EC32F00101420541
:10549C00D8A453EF2AF055EF2AF06AEF2AF08B824A
:1054AC0087C101F088C102F04EEC3EF08B92040EE5
:1054BC000B6E0C0E0A6E340EE82EFED70A2EFCD79D
:1054CC000B2EFAD76DEF2AF08B925DEF2AF08984C0
:1054DC0024EF2BF00400A9EC36F0AFEC3CF032C119
:1054EC0001F033C102F04EEC3EF056EC3FF0020EF0
:1054FC000B6E6C0E0A6EA00EE82EFED70A2EFCD791
:10550C000B2EFAD71E0E0101816F000E826F000E5A
:10551C00836F000E846FF6EC3AF001C02AF102C0E2
:10552C002BF101018151821183118411D8A4A1EFB7
:10553C002AF0A3EF2AF0A8EF2AF0310EDEEC33F0BC
:10554C005BEC3FF001012A512B11D8A4B0EF2AF0EB
:10555C00B2EF2AF091EF2AF04E0E0A6EEB0EE82E07
:10556C00FED70A2EFCD700F01E0E0101816F000E33
:10557C00826F000E836F000E846FF6EC3AF001C060
:10558C002AF102C02BF10101815182118311841186
:10559C00D8A4D3EF2AF0D5EF2AF0DAEF2AF0320EA6
:1055AC00DEEC33F05BEC3FF001012A052B11D8A4A3
:1055BC00E2EF2AF0E4EF2AF0C3EF2AF01E0E816F1F
:1055CC00000E826F000E836F000E846F36C101F0E7
:1055DC0037C102F04EEC3EF05BEC3FF001014205AE
:1055EC00D8A4FBEF2AF0FDEF2AF012EF2BF08B8200
:1055FC0087C101F088C102F04EEC3EF08B92040E94
:10560C000B6E0C0E0A6E340EE82EFED70A2EFCD74B
:10561C000B2EFAD719EF2BF08B9287C101F088C1B2
:10562C0002F04EEC3EF00001E105D8A420EF2BF087
:10563C0022EF2BF024EF2BF02DEF2BF00001E1519A
:10564C00D8B42BEF2BF02DEF2BF070EF2AF08994C0
:10565C00010130513111D8B436EF2BF038EF2BF06B
:10566C0041EF2BF00001E105D8A43FEF2BF041EF07
:10567C002BF05DEF2BF001014205D8A448EF2BF085
:10568C004AEF2BF05DEF2BF08B8287C101F088C1C4
:10569C0002F04EEC3EF08B92040E0B6E0C0E0A6E6A
:1056AC00340EE82EFED70A2EFCD70B2EFAD7000E9E
:1056BC000101316F000E306F020E4119D8A469EF51
:1056CC002BF06BEF2BF06FEF2BF0020E416F71EFA5
:1056DC002BF0030E416F12000001C8BF78EF2BF0C6
:1056EC007AEF2BF07BEF2BF0DD93C8BF88EF2BF01C
:1056FC00C85106E1C705D8B086EF2BF088EF2BF028
:10570C008EEF2BF0000E316E010E306E92EF2BF0FF
:10571C00C7C030F0C8C031F0C5C032F0C6C033F0DD
:10572C001EC034F01FC035F020C036F021C037F059
:10573C0022C038F023C039F024C03AF025C03BF029
:10574C00000E3D6E1F0E3C6E000E0101646F0AEFE1
:10575C002CF03C06D8A03D0634500F0B3E6E090EC3
:10576C003E64BBEF2BF0BDEF2BF0C5EF2BF0370EEB
:10577C003E242E6E2F6A000E2F22CBEF2BF0300E14
:10578C003E242E6E2F6A000E2F222EC03EF0450EA8
:10579C003C24D96E010E3D20DA6E3EC0DFFF300690
:1057AC00D8A031063206D8A0330634C026F035C056
:1057BC0027F036C028F037C029F038C02AF039C09D
:1057CC002BF03AC02CF03BC02DF0050EF7EF2BF070
:1057DC00D8902D322C322B322A32293228322732D1
:1057EC002632E82EEEEF2BF026C034F027C035F031
:1057FC0028C036F029C037F02AC038F02BC039F059
:10580C002CC03AF02DC03BF03DBE16EF2CF03D50B5
:10581C0009E1020E3C5CD8A016EF2CF018EF2CF02E
:10582C0049EF2CF034503510361037103810391031
:10583C003A103B10D8A425EF2CF027EF2CF0AFEF4B
:10584C002BF031BE34EF2CF0315006E13004D8B0DF
:10585C0032EF2CF034EF2CF0AFEF2BF033BE3FEFE8
:10586C002CF0335008E13204D8A03FEF2CF041EF7C
:10587C002CF049EF2CF00001DDB347EF2CF049EF91
:10588C002CF0AFEF2BF01CC011F01DC012F0450E28
:10589C003C24136E010E3D20146E32C015F033C043
:1058AC0016F011EC38F01200000E126E10BE63EF01
:1058BC002CF061EF2CF075EF2CF0101E0F1E0E1E4D
:1058CC000D1E0C1E0B1E0A1E096C000E0A220B224A
:1058DC000C220D220E220F221022010E126E08BE77
:1058EC007CEF2CF07AEF2CF08EEF2CF0081E071EBC
:1058FC00061E051E041E031E021E016C000E022253
:10590C00032204220522062207220822010E121A63
:10591C0020EE13F0070EDE6AE806FDE209500A10CD
:10592C000B100C100D100E100F101010D8B4A1EF9E
:10593C002CF0A3EF2CF0F5EF2CF0010E116EB1EF63
:10594C002CF0D89009360A360B360C360D360E363E
:10595C000F361036112A10AEB6EF2CF0B8EF2CF033
:10596C00A7EF2CF0D890133614361536163617369A
:10597C00183619361A360950015C0A5002580B5069
:10598C0003580C5004580D5005580E5006580F5023
:10599C00075810500858D8A0D6EF2CF0D8EF2CF0A0
:1059AC00E9EF2CF00950015E0A50025A0B50035AD1
:1059BC000C50045A0D50055A0E50065A0F50075AE7
:1059CC001050085A1380D89010320F320E320D320C
:1059DC000C320B320A320932112EB8EF2CF0125065
:1059EC00D8B4FBEF2CF0FDEF2CF00DEF2DF01A1EC0
:1059FC00191E181E171E161E151E141E136C000ED3
:105A0C001422152216221722182219221A2213C028
:105A1C0001F014C002F015C003F016C004F017C05A
:105A2C0005F018C006F019C007F01AC008F01200F3
:105A3C00000E126E08BE27EF2DF025EF2DF039EF7A
:105A4C002DF0081E071E061E051E041E031E021E38
:105A5C00016C000E022203220422052206220722D8
:105A6C000822010E126E10BE40EF2DF03EEF2DF00D
:105A7C0050EF2DF0101E0F1E0E1E0D1E0C1E0B1EB9
:105A8C000A1E096C000E0A220B220C220D220E2279
:105A9C000F22102209500A100B100C100D100E10B2
:105AAC000F101010D8B45DEF2DF05FEF2DF0A7EFB5
:105ABC002DF0010E116E6DEF2DF0D89009360A36CF
:105ACC000B360C360D360E360F361036112A10AE3C
:105ADC0072EF2DF074EF2DF063EF2DF00950015C97
:105AEC000A5002580B5003580C5004580D500558CE
:105AFC000E5006580F50075810500858D8A089EF70
:105B0C002DF08BEF2DF09BEF2DF00950015E0A501C
:105B1C00025A0B50035A0C50045A0D50055A0E5091
:105B2C00065A0F50075A1050085AD89010320F329C
:105B3C000E320D320C320B320A320932112E74EF46
:105B4C002DF01250D8B4ADEF2DF0AFEF2DF0BFEF1C
:105B5C002DF0081E071E061E051E041E031E021E27
:105B6C00016C000E022203220422052206220722C7
:105B7C00082201C001F002C002F003C003F004C00F
:105B8C0004F005C005F006C006F007C007F008C019
:105B9C0008F01200000E0F6E000E0E6E000E0D6E51
:105BAC00000E0C6EDCEF2DF0074A082A07C0F6FF3A
:105BBC0008C0F7FFF86A0800F550200AD8B4E9EFDE
:105BCC002DF0EBEF2DF0DAEF2DF007C0F6FF08C04B
:105BDC00F7FFF86A0800F5CF09F0F70E09240A6EF2
:105BEC000B6AFF0E0B220B5009E1050E0A5CD8A0C4
:105BFC0002EF2EF004EF2EF0DAEF2DF00EEF2EF078
:105C0C00000E0D6E010E0C6E074A082A45EF2EF0A1
:105C1C0007C0F6FF08C0F7FFF86A0800F550096ED8
:105C2C000A6A0A50000AD8B41EEF2EF045EF2EF087
:105C3C0009502B0AD8B40AEF2EF0060AD8B406EF96
:105C4C002EF045EF2EF00EC001F00FC002F0000E4A
:105C5C00046E0A0E036EA1EC3EF007C0F6FF08C0FE
:105C6C00F7FFF86A0800F550015E000E025A300E7C
:105C7C0001240E6E000E02200F6E0AEF2EF007C0EC
:105C8C00F6FF08C0F7FFF86A0800F5CF09F0D00E50
:105C9C0009240A6E0B6AFF0E0B220B5009E10A0E47
:105CAC000A5CD8A05CEF2EF05EEF2EF029EF2EF000
:105CBC000C500D10D8A465EF2EF067EF2EF075EF99
:105CCC002EF00EC009F00FC00AF0091E0A1E094A78
:105CDC000A2A09C007F00AC008F079EF2EF00EC0AE
:105CEC0007F00FC008F01200EAEF2EF0000E7E6FE6
:105CFC00070E7D6FF29E700E736F000E746F000EA8
:105D0C00756F000E766F000E786F010E776FCCEC0E
:105D1C003AF0F28E0DEF2FF0000E7E6F090E7D6FB4
:105D2C00F29E700E736F000E746F000E756F000E86
:105D3C00766F000E786F020E776FCCEC3AF0F28E25
:105D4C000DEF2FF0000E7E6F0C0E7D6FF29E700E1D
:105D5C00736F000E746F000E756F000E766F000E71
:105D6C00786F030E776FCCEC3AF0F28E0DEF2FF0CC
:105D7C00000E7E6F140E7D6FF29E700E736F000E10
:105D8C00746F000E756F000E766F000E786F040E38
:105D9C00776FCCEC3AF0F28E0DEF2FF0000E7E6F99
:105DAC00000E7D6FF29E700E736F000E746F000EFE
:105DBC00756F000E766F000E786F000E776FCCEC5F
:105DCC003AF0F28E0DEF2FF079C17BF17AC17CF1B4
:105DDC0001017C51000AD8B4F6EF2EF00DEF2FF034
:105DEC007B51000AD8B47CEF2EF0010AD8B492EFA4
:105DFC002EF0030AD8B4A8EF2EF0010AD8B4BEEFE7
:105E0C002EF0070AD8B4D4EF2EF00DEF2FF07DC191
:105E1C0079F17EC17AF1120082EF2FF0000E1A6E2A
:105E2C00070E196EF29E700E0F6E000E106E000EA5
:105E3C00116E000E126E000E146E010E136EBEEC7F
:105E4C003BF0F28EA4EF2FF0000E1A6E090E196EB5
:105E5C00F29E700E0F6E000E106E000E116E000E84
:105E6C00126E000E146E020E136EBEEC3BF0F28E30
:105E7C00A4EF2FF0000E1A6E0C0E196EF29E700E1F
:105E8C000F6E000E106E000E116E000E126E000ED4
:105E9C00146E030E136EBEEC3BF0F28EA4EF2FF0DB
:105EAC00000E1A6E140E196EF29E700E0F6E000E0E
:105EBC00106E000E116E000E126E000E146E040E9B
:105ECC00136EBEEC3BF0F28EA4EF2FF0000E1A6EA8
:105EDC00000E196EF29E700E0F6E000E106E000EFC
:105EEC00116E000E126E000E146E000E136EBEECD0
:105EFC003BF0F28EA4EF2FF015C017F016C018F07F
:105F0C001850000AD8B48DEF2FF0A4EF2FF01750D3
:105F1C00000AD8B414EF2FF0010AD8B42AEF2FF0EE
:105F2C00030AD8B440EF2FF0010AD8B456EF2FF083
:105F3C00070AD8B46CEF2FF0A4EF2FF019C015F0AE
:105F4C001AC016F012008B98000E0BEC39F08B88EF
:105F5C008B98000E0BEC39F001016D05D8A4B9EF4C
:105F6C002FF0BBEF2FF0CCEF2FF06B056C11D8A4FA
:105F7C00C2EF2FF0C4EF2FF0CCEF2FF03E0E0BEC56
:105F8C0039F0860E0BEC39F033EF30F06D05D8A4F8
:105F9C00D2EF2FF0D4EF2FF0E6EF2FF0020E6B19AB
:105FAC006C11D8A4DCEF2FF0DEEF2FF0E6EF2FF022
:105FBC003E0E0BEC39F0DB0E0BEC39F033EF30F01E
:105FCC006D05D8A4ECEF2FF0EEEF2FF000EF30F0D2
:105FDC00030E6B196C11D8A4F6EF2FF0F8EF2FF01D
:105FEC0000EF30F03E0E0BEC39F0CF0E0BEC39F02D
:105FFC0033EF30F06D05D8A406EF30F008EF30F039
:10600C001AEF30F0040E6B196C11D8A410EF30F0AD
:10601C0012EF30F01AEF30F03E0E0BEC39F0E60ECA
:10602C000BEC39F033EF30F06D51D8A420EF30F099
:10603C0022EF30F033EF30F06B516C11D8A429EF14
:10604C0030F02BEF30F033EF30F03E0E0BEC39F03C
:10605C00BF0E0BEC39F033EF30F08B888B980D0EB4
:10606C000BEC39F08B88120089844CEC3FF0040E59
:10607C0001016F6F8E0E6E6F120EE82EFED76E2F13
:10608C00FCD76F2FFAD700F01E0E0101816F000EA6
:10609C00826F000E836F000E846F9EEC3AF065C128
:1060AC002AF166C12BF101018151821183118411F6
:1060BC00D8A463EF30F065EF30F06AEF30F0310EBA
:1060CC0068EC33F051EC3FF001012A512B11D8A4AC
:1060DC0072EF30F074EF30F053EF30F04E0E0101F0
:1060EC006E6FEB0EE82EFED76E2FFCD71E0E010145
:1060FC00816F000E826F000E836F000E846F9EEC1A
:10610C003AF065C12AF166C12BF10101815182116E
:10611C0083118411D8A495EF30F097EF30F09CEFF9
:10612C0030F0320E68EC33F051EC3FF001012A05EF
:10613C002B11D8A4A4EF30F0A6EF30F085EF30F09F
:10614C001E0E816F000E826F000E836F000E846F27
:10615C0036C165F137C166F1EFEC3DF051EC3FF023
:10616C00060E01016F6F130E6E6FAD0EE82EFED78B
:10617C006E2FFCD76F2FFAD700D0000E01012B6FBA
:10618C00000E2A6F89941200000E5E6E000E5D6E7A
:10619C0048EF31F07D05D8A4D6EF30F0D8EF30F0D1
:1061AC002DEF31F09EA8DDEF30F0DFEF30F0D8EFBF
:1061BC0030F05D5000017925D96E5E507A21DA6E8F
:1061CC00DF50AE6E1E0E016E100E026E01500210EC
:1061DC00D8A4000E036E00EC3AF05D500001792556
:1061EC00D96E5E507A21DA6EDF5082EC3DF0FF0EF4
:1061FC0000017B257E6FFF0E7C217F6F7E515D5CE5
:10620C005E50800A806F7F51800A8059D8B011EFA0
:10621C0031F013EF31F020EF31F0540E016E100E0F
:10622C00026E01500210D8A4000E036E00EC3AF07E
:10623C0046EF31F0510E016E100E026E015002103D
:10624C00D8A4000E036E00EC3AF046EF31F0020ECB
:10625C007D19D8A434EF31F036EF31F046EF31F040
:10626C00A4A83BEF31F03DEF31F036EF31F05D504B
:10627C0000017925D96E5E507A21DA6EDF50A96E55
:10628C005D4A5E2A00017B515D5C5E50800A7E6F28
:10629C007C51800A7E59D8A056EF31F058EF31F07E
:1062AC00D0EF30F01200000E01016E6F6CBF63EF87
:1062BC0031F061EF31F06DEF31F06C1F6B1F6A1F25
:1062CC00696D000E6A236B236C23010E6E6F68BF21
:1062DC0074EF31F072EF31F07EEF31F0681F671F11
:1062EC00661F656D000E662367236823010E6E1B07
:1062FC00000E6F6F000E706F000E716F000E726FDC
:10630C0069516A116B116C11D8B48FEF31F091EFA8
:10631C0031F0C7EF31F0010E6D6F9BEF31F0D8907B
:10632C0069376A376B376C376D2B6CAFA0EF31F078
:10633C00A2EF31F095EF31F0D8906F37703771379D
:10634C0072376951655D6A5166596B5167596C5169
:10635C006859D8A0B4EF31F0B6EF31F0BFEF31F09F
:10636C006951655F6A51665B6B51675B6C51685B29
:10637C006F81D8906C336B336A3369336D2FA2EF16
:10638C0031F06E51D8B4CDEF31F0CFEF31F0D7EF13
:10639C0031F0721F711F701F6F6D000E702371230F
:1063AC0072236FC165F170C166F171C167F172C181
:1063BC0068F11200000E0A6E08BEE9EF31F0E7EF4B
:1063CC0031F0F3EF31F0081E071E061E056C000EAF
:1063DC00062207220822010E0A6E04BEFAEF31F0E3
:1063EC00F8EF31F004EF32F0041E031E021E016CB4
:1063FC00000E022203220422010E0A1A000E0B6E5A
:10640C00000E0C6E000E0D6E000E0E6E055006107A
:10641C0007100810D8B415EF32F017EF32F04DEF2B
:10642C0032F0010E096E21EF32F0D89005360636A7
:10643C0007360836092A08AE26EF32F028EF32F07C
:10644C001BEF32F0D8900B360C360D360E3605504D
:10645C00015C065002580750035808500458D8A045
:10646C003AEF32F03CEF32F045EF32F00550015E7E
:10647C000650025A0750035A0850045A0B80D89001
:10648C000832073206320532092E28EF32F00A5054
:10649C00D8B453EF32F055EF32F05DEF32F00E1E00
:1064AC000D1E0C1E0B6C000E0C220D220E220BC0AE
:1064BC0001F00CC002F00DC003F00EC004F012008D
:1064CC0001016D6F8B98000E0BEC39F08B888B985B
:1064DC00000E0BEC39F0B3EF32F0790E0BEC39F017
:1064EC003F0E0BEC39F0E1EF32F03F0E0BEC39F0D4
:1064FC00730E0BEC39F0E1EF32F0390E0BEC39F096
:10650C00770E0BEC39F0E1EF32F0000E0BEC39F0BA
:10651C00000E0BEC39F0E1EF32F0000E0BEC39F021
:10652C003F0E0BEC39F0E1EF32F0790E0BEC39F059
:10653C00060E0BEC39F0E1EF32F0770E0BEC39F084
:10654C003E0E0BEC39F0E1EF32F0000E0BEC39F0B3
:10655C003E0E0BEC39F0E1EF32F001016D516B6F37
:10656C006C6B6C51000AD8B4BEEF32F0E1EF32F034
:10657C006B51410AD8B4A3EF32F0020AD8B483EFBE
:10658C0032F0060AD8B473EF32F0020AD8B493EFA3
:10659C0032F0080AD8B47BEF32F01C0AD8B49BEF67
:1065AC0032F0050AD8B4ABEF32F00E0AD8B48BEF48
:1065BC0032F0E1EF32F08B888B980D0E0BEC39F04A
:1065CC008B881200096E8B98000E4EEC39F08B887C
:1065DC008B98000E4EEC39F034EF33F0790E4EEC14
:1065EC0039F03F0E4EEC39F061EF33F03F0E4EECCC
:1065FC0039F0730E4EEC39F061EF33F0390E4EEC8E
:10660C0039F0770E4EEC39F061EF33F0000E4EECB2
:10661C0039F0000E4EEC39F061EF33F0000E4EEC19
:10662C0039F03F0E4EEC39F061EF33F0790E4EEC51
:10663C0039F0060E4EEC39F061EF33F0770E4EEC7C
:10664C0039F03E0E4EEC39F061EF33F0000E4EECAB
:10665C0039F03E0E4EEC39F061EF33F00950076E15
:10666C00086A0850000AD8B43EEF33F061EF33F0FB
:10667C000750410AD8B424EF33F0020AD8B404EF1F
:10668C0033F0060AD8B4F4EF32F0020AD8B414EF9F
:10669C0033F0080AD8B4FCEF32F01C0AD8B41CEF63
:1066AC0033F0050AD8B42CEF33F00E0AD8B40CEF43
:1066BC0033F061EF33F08B888B980D0E4EEC39F084
:1066CC008B88120001016D6F8B98000E0BEC39F06A
:1066DC008B888B98000E0BEC39F0ADEF33F0790E04
:1066EC000BEC39F0770E0BEC39F0D7EF33F0790E69
:1066FC000BEC39F03F0E0BEC39F0D7EF33F0790E91
