:020000040000FA
:040000004DEF01F0CF
:100008005982D9CF39F0DACF3AF09EAA0EEF00F034
:1000180010EF00F0E1EF00F013EC0FF03C6EA50ECE
:100028003C18D8A41AEF00F01CEF00F03EEF00F0E7
:100038003750D8B422EF00F024EF00F02CEF00F096
:100048003304D8A42AEF00F02CEF00F03EEF00F0C4
:10005800010E366E000E2A6E000E296E010E29243E
:10006800D96E000E2A20DA6E3CC0DFFF294A2A2A00
:10007800EBEF00F03604D8A444EF00F046EF00F0B0
:10008800EBEF00F0010E2924D96E000E2A20DA6E5B
:100098003CC0DFFF2A5007E1050E295CD8B057EFB6
:1000A80000F059EF00F0DDEF00F05A0E3C18D8A42C
:1000B80060EF00F062EF00F03AEF00F00250032426
:1000C8003B6E3B500418D8A46CEF00F06EEF00F0C4
:1000D800B1EF00F03350D8B474EF00F076EF00F0D1
:1000E8007FEF00F0F50E0318D8A47DEF00F07FEF46
:1000F80000F097EF00F0F29E000E3D6E010E3D24D9
:10010800D96EDA6A000EDA22DF505AEC0FF03D2A77
:10011800040E3D6492EF00F094EF00F082EF00F0DF
:10012800F28EA7EF00F0F29E000E3D6E160E5AEC0E
:100138000FF03D2A040E3D64A4EF00F0A6EF00F096
:100148009AEF00F0F28E010E376E000E2A6E000E46
:10015800296E020E306EC7EF00F0000E376E000EEB
:100168002A6E000E296EF29E000E3D6E150E5AEC98
:100178000FF03D2A040E3D64C4EF00F0C6EF00F016
:10018800BAEF00F0F28EF50E0318D8A4CEEF00F007
:10019800D0EF00F03AEF00F0020E3018D8A4D7EFF5
:1001A80000F0D9EF00F03AEF00F0010E356E3AEFAB
:1001B80000F0000E366E3AEF00F0ACA2E6EF00F069
:1001C800E8EF00F0EBEF00F0AC92AC98AC882B04B1
:1001D800D8A4F1EF00F0F3EF00F039EF01F055BECD
:1001E80000EF01F055505410531008E15204D8A004
:1001F80000EF01F002EF01F00CEF01F0FF0E5226C4
:10020800FF0E5322FF0E5422FF0E552214EF01F069
:10021800000E526E000E536E000E546E000E556E98
:1002280051BE21EF01F0515050104F1008E14E041B
:10023800D8A021EF01F023EF01F02DEF01F0FF0E20
:100248004E26FF0E4F22FF0E5022FF0E512237EF8F
:1002580001F0140E4E6E000E4F6E000E506E000E22
:10026800516EBCEC0EF0000E2B6E9EA03EEF01F01E
:1002780040EF01F047EF01F09E0ECF6E570ECE6EA5
:100288009E90010E2B6E3AC0DAFF39C0D9FF599201
:10029800110006EF0EF0F29E1DEC0DF0770E97ECB4
:1002A8000CF06FEC0FF044EC0FF0EDEC0EF038ECC6
:1002B8000FF08B9289941E0E526E000E536E000E34
:1002C800546E000E556ED08E9F8AF28EF28EC090BC
:1002D8008C808C82000E476E220E466EFF0E486E92
:1002E80040EC0CF0060E0001876F130E866FAD0E02
:1002F800E82EFED7862FFCD7872FFAD700D048ECF8
:100308000EF0F29E100E0001806F000E816F000E3D
:10031800826F000E836F56EC0DF080C023F081C011
:1003280024F0F28E23C032F0010E32649EEF01F009
:10033800A0EF01F0B2EF01F0010E326EF29E100E46
:100348000001806F000E816F000E826F000E836FB8
:1003580032C084F0856BDFEC0DF0F28E000E1A6E61
:10036800010E196E19C046F01AC047F032C048F0A5
:1003780040EC0CF0000E186E010E176EF29E200E67
:100388000001806F000E816F000E826F000E836F78
:1003980056EC0DF080C023F081C024F0F28E23507B
:1003A8001D6E1E6A1E5009E1310E1D5CD8A0DFEFDC
:1003B80001F0E1EF01F0ECEF01F01E5009E13B0E16
:1003C8001D5CD8A0EAEF01F0ECEF01F001EF02F0BC
:1003D800000E1E6E310E1D6EF29E200E0001806F03
:1003E800000E816F000E826F000E836F1DC084F0B7
:1003F8001EC085F0DFEC0DF0F28EF29E600E00015B
:10040800806F000E816F000E826F000E836F56ECB6
:100418000DF080C023F081C024F0F28E23C02FF0AD
:100428002F0E2F641AEF02F01CEF02F024EF02F0F7
:10043800350E2F6422EF02F024EF02F062EF02F093
:10044800300E2F6E000E1C6E000E1B6EF29E600E9C
:100458000001806F000E816F000E826F000E836FA7
:100468002FC084F0856BDFEC0DF0F28E88EF02F080
:10047800000E1C6E000E1B6E300E2F6E88EF02F001
:10048800030E1C6EE80E1B6E88EF02F0070E1C6E42
:10049800D00E1B6E88EF02F00B0E1C6EB80E1B6E92
:1004A80088EF02F00F0E1C6EA00E1B6E88EF02F094
:1004B800130E1C6E880E1B6E88EF02F02F50000181
:1004C800866F876B8751000AD8B46DEF02F03CEF56
:1004D80002F08651300AD8B43CEF02F0010AD8B4D1
:1004E80044EF02F0030AD8B44AEF02F0010AD8B484
:1004F80050EF02F0070AD8B456EF02F0010AD8B458
:100508005CEF02F03CEF02F0F29E500E0001806FAB
:10051800000E816F000E826F000E836F56EC0DF097
:1005280080C023F081C024F0F28E23C02DF0960EF7
:100538002D64A1EF02F0A3EF02F0BBEF02F0000E72
:100548002D6EF29E500E0001806F000E816F000E1E
:10055800826F000E836F2DC084F0856BDFEC0DF089
:10056800F28E000E206E000E1F6EBEEF02F02DC040
:100578001FF0206AF29E400E0001806F000E816F0E
:10058800000E826F000E836F56EC0DF080C023F0D2
:1005980081C024F0F28E23C02EF0810E2E18D8B41C
:1005A800D8EF02F0DAEF02F036EF03F0820E2E18E1
:1005B800D8B4E1EF02F0E3EF02F036EF03F0830E78
:1005C8002E18D8B4EAEF02F0ECEF02F036EF03F0A1
:1005D800840E2E18D8B4F3EF02F0F5EF02F036EFE0
:1005E80003F0850E2E18D8B4FCEF02F0FEEF02F0EF
:1005F80036EF03F0070E576ED00E566E820E2E6E33
:10060800F29E400E0001806F000E816F000E826F17
:10061800000E836F2EC084F0856BDFEC0DF0F28E38
:1006280058EF03F0030E576EE80E566E58EF03F0BE
:10063800070E576ED00E566E820E2E6E58EF03F0D0
:100648000B0E576EB80E566E58EF03F00F0E576E1E
:10065800A00E566E58EF03F0130E576E880E566EA6
:1006680058EF03F02E500001866F876B8751000A00
:10067800D8B441EF03F01CEF03F08651810AD8B4D7
:1006880016EF03F0030AD8B41CEF03F0010AD8B43C
:1006980024EF03F0070AD8B42AEF03F0010AD8B40C
:1006A80030EF03F01CEF03F01E0E526E000E536E77
:1006B800000E546E000E556EA6EC09F08C920400E4
:1006C8001E0E526E000E536E000E546E000E556EC6
:1006D80048EC0EF06EEF06F017C019F018C01AF0CB
:1006E80081B879EF03F07BEF03F09BEF03F081B45F
:1006F80080EF03F082EF03F084EF03F029EC0EF0B3
:100708003250B8EC0DF0020E0001876F040E866FB0
:10071800BA0EE82EFED7862FFCD7872FFAD700F01F
:1007280081A899EF03F09BEF03F07BEF03F081B60C
:10073800A0EF03F0A2EF03F0B9EF03F00B0E1918C6
:100748001A10D8B4AAEF03F0ACEF03F0B9EF03F036
:10075800010E1924196E000E1A201A6E81A6B7EF21
:1007680003F0B9EF03F0B2EF03F080BABEEF03F085
:10077800C0EF03F0D6EF03F019501A10D8B4C7EF42
:1007880003F0C9EF03F0D6EF03F0FF0E1924196E3A
:10079800FF0E1A201A6E80AAD4EF03F0D6EF03F0EA
:1007A800CFEF03F080B8DBEF03F0DDEF03F0F5EFF8
:1007B80003F01A5007E1020E195CD8B0E6EF03F017
:1007C800E8EF03F0F5EF03F00A0E1924196E000E96
:1007D8001A201A6E80A8F3EF03F0F5EF03F0EEEF9E
:1007E80003F080B6FAEF03F0FCEF03F014EF04F027
:1007F8001A5009E10A0E195CD8A005EF04F007EFBA
:1008080004F014EF04F0F60E1924196EFF0E1A20E6
:100818001A6E80A612EF04F014EF04F00DEF04F046
:1008280019C017F01AC018F019C046F01AC047F0DE
:1008380032C048F040EC0CF081B425EF04F027EF0B
:1008480004F037EF04F0010E336E1E0E526E000EE8
:10085800536E000E546E000E556E86EC06F0000EB8
:10086800356E000E336E3704D8A43DEF04F03FEF29
:1008780004F06AEF06F040EF06F0F10E0318D8A472
:1008880048EF04F04AEF04F066EF04F03350D8A4C0
:1008980050EF04F052EF04F066EF04F0000E356EEE
:1008A800010E336E17C019F018C01AF01E0E526EE2
:1008B800000E536E000E546E000E556E0DEC08F0CF
:1008C800C4EF04F0F20E0318D8A46DEF04F06FEF34
:1008D80004F0C4EF04F03350D8A475EF04F077EFB8
:1008E80004F0C4EF04F0000E356E010E336E17C02D
:1008F80019F018C01AF019C046F01AC047F032C0F3
:1009080048F040EC0CF01E0E526E000E536E000EB6
:10091800546E000E556E86EC06F03550D8A497EF4D
:1009280004F099EF04F0C4EF04F0A50E0001606F25
:10093800440E616FF90E626F3D0E636F5A0E646F5D
:10094800F29E000E166E000E156E165009E1050E89
:10095800155CD8A0B2EF04F0B4EF04F0B6EF04F0E1
:10096800C3EF04F0600E1524D96E000E1620DA6E5F
:10097800DF504FEC0FF0154A162AA9EF04F0F28E5B
:1009880067EC0EF084EC0EF0000E356E000E336E40
:1009980062EF06F03350D8A4D4EF04F0D6EF04F099
:1009A80062EF06F0010E336E03C02FF002EF05F080
:1009B800000E1C6E000E1B6E300E2F6E27EF05F01A
:1009C800030E1C6EE80E1B6E27EF05F0070E1C6E5B
:1009D800D00E1B6E27EF05F00B0E1C6EB80E1B6EAB
:1009E80027EF05F00F0E1C6EA00E1B6E27EF05F00B
:1009F800130E1C6E880E1B6E27EF05F02F50866FA6
:100A0800876B8751000AD8B40CEF05F0DCEF04F0CF
:100A18008651300AD8B4DCEF04F0010AD8B4E4EF08
:100A280004F0030AD8B4EAEF04F0010AD8B4F0EFEE
:100A380004F0070AD8B4F6EF04F0010AD8B4FCEFC2
:100A480004F0DCEF04F0F29E600E806F000E816F00
:100A5800000E826F000E836F2FC084F0856BDFEC71
:100A68000DF0F28E67EC0EF0CAEF04F03350D8A404
:100A780040EF05F042EF05F062EF06F00350D8A40E
:100A880048EF05F04AEF05F0BBEF05F0010E336EB5
:100A9800F29E600E806F000E816F000E826F000E56
:100AA800836F56EC0DF0000180512F6E400E806F61
:100AB800000E816F000E826F000E836F56EC0DF0F2
:100AC800000180512E6E300E806F000E816F000E77
:100AD800826F000E836F56EC0DF080C021F081C04C
:100AE80022F0500E0001806F000E816F000E826FA1
:100AF800000E836F56EC0DF0000180512D6EF28EC2
:100B0800510E606F2FC061F021C062F02EC063F0FB
:100B18002DC064F0020E0001876F040E866FBA0EB6
:100B2800E82EFED7862FFCD7872FFAD700F0F29E43
:100B3800000E166E000E156E165009E1050E155CB6
:100B4800D8A0A9EF05F0ABEF05F0ADEF05F0BAEFCF
:100B580005F0600E1524D96E000E1620DA6EDF50EF
:100B68004FEC0FF0154A162AA0EF05F0F28E84EC30
:100B78000EF0CAEF04F03350D8A4C5EF05F0C7EF64
:100B880005F01FEF06F0010E336E03C02EF0EDEFF7
:100B980005F0030E576EE80E566E0EEF06F0070EC0
:100BA800576ED00E566E820E2E6E0EEF06F00B0E9E
:100BB800576EB80E566E0EEF06F00F0E576EA00E5B
:100BC800566E0EEF06F0130E576E880E566E0EEF29
:100BD80006F02E50866F876B8751000AD8B4F7EF5E
:100BE80005F0D3EF05F08651810AD8B4CDEF05F0B2
:100BF800030AD8B4D3EF05F0010AD8B4DBEF05F047
:100C0800070AD8B4E1EF05F0010AD8B4E7EF05F018
:100C1800D3EF05F0F29E400E806F000E816F000E3C
:100C2800826F000E836F2EC084F0856BDFEC0DF0B1
:100C3800F28E000E336E3350D8A425EF06F027EF5E
:100C480006F062EF06F0010E336E03C02DF02DC0E2
:100C58001FF0206AF29E500E0001806F000E816F17
:100C6800000E826F000E836F2DC084F0856BDFEC61
:100C78000DF0F28ECAEF04F002500001866F876B08
:100C88008751000AD8B44BEF06F062EF06F08651A0
:100C9800230AD8B4CEEF04F0670AD8B441EF04F0C1
:100CA800150AD8B43AEF05F0340AD8B4BFEF05F006
:100CB800030AD8B41FEF06F062EF06F0000E376E95
:100CC800000E366E000E306E63EF03F0000E306ECD
:100CD80063EF03F030500001866F876B8751000A7D
:100CE800D8B479EF06F063EF03F08651000AD8B460
:100CF80070EF03F0020AD8B437EF04F063EF03F0A3
:100D08004DEF01F03204D8A48CEF06F08EEF06F018
:100D1800A3EF06F08B8256C03EF057C03FF0D7ECE9
:100D28000EF08B92040E4A6E0C0E496E340EE82EAD
:100D3800FED7492EFCD74A2EFAD7A6EF06F08B929B
:100D480096EF06F08984D0EF07F004008BEC0DF0E5
:100D580048EC0EF01BC03EF01CC03FF0D7EC0EF084
:100D680082EC0FF0040E4A6E8E0E496E120EE82EBB
:100D7800FED7492EFCD74A2EFAD700D01E0E526E47
:100D8800000E536E000E546E000E556E26EC0FF0DA
:100D98003EC013F03FC014F0525053105410551079
:100DA800D8A4D9EF06F0DBEF06F0E0EF06F0310E3D
:100DB800ACEC0AF087EC0FF013501410D8A4E7EF4E
:100DC80006F0E9EF06F0CAEF06F04E0E496EEB0E9C
:100DD800E82EFED7492EFCD700F01E0E526E000EEC
:100DE800536E000E546E000E556E26EC0FF03EC08A
:100DF80013F03FC014F05250531054105510D8A49B
:100E080008EF07F00AEF07F00FEF07F0320EACEC2F
:100E18000AF087EC0FF013041410D8A416EF07F0AB
:100E280018EF07F0F9EF06F01E0E526E000E536E23
:100E3800000E546E000E556E1FC03EF020C03FF0ED
:100E4800D7EC0EF087EC0FF055EF07F0000E166E9A
:100E5800000E156E165009E1030E155CD8A037EF89
:100E680007F039EF07F03BEF07F053EF07F00B0EF1
:100E78004A6E260E496E5E0EE82EFED7492EFCD726
:100E88004A2EFAD7154A162A165009E1030E155CA0
:100E9800D8A051EF07F053EF07F03BEF07F0010E32
:100EA800356E81A45AEF07F05CEF07F02AEF07F0E0
:100EB8001A5007E10B0E195CD8B065EF07F067EF21
:100EC80007F06AEF07F01906D8A01A0619C046F00D
:100ED8001AC047F032C048F040EC0CF03204D8A4F5
:100EE80078EF07F07AEF07F098EF07F019501A102B
:100EF800D8B481EF07F083EF07F098EF07F08B8203
:100F080056C03EF057C03FF0D7EC0EF08B92040E5F
:100F18004A6E0C0E496E340EE82EFED7492EFCD7C9
:100F28004A2EFAD7C6EF07F03250D8A49EEF07F042
:100F3800A0EF07F0C6EF07F019501A10D8B4A7EFC2
:100F480007F0A9EF07F0C6EF07F08B9219501A10B7
:100F5800D8B4B1EF07F0B3EF07F0BBEF07F056C016
:100F68003EF057C03FF0D7EC0EF0C6EF07F0060E84
:100F78004A6E130E496EAE0EE82EFED7492EFCD7E8
:100F88004A2EFAD73504D8A4CCEF07F0CEEF07F0F5
:100F9800D0EF07F0D9EF07F019501A10D8A4D7EFFF
:100FA80007F0D9EF07F0A9EF06F0899419501A1045
:100FB800D8B4E1EF07F0E3EF07F0EBEF07F0350403
:100FC800D8A4E9EF07F0EBEF07F006EF08F03204DA
:100FD800D8A4F1EF07F0F3EF07F006EF08F08B82E3
:100FE80056C03EF057C03FF0D7EC0EF08B92040E7F
:100FF8004A6E0C0E496E340EE82EFED7492EFCD7E9
:101008004A2EFAD7000E1A6E000E196E000E306EB8
:101018001200000E146E000E136E410E2CEC0AF036
:101028003204D8A41AEF08F01CEF08F031EF08F0EA
:101038008B8256C03EF057C03FF0D7EC0EF08B9233
:10104800040E486E0C0E476E340EE82EFED7472E5F
:10105800FCD7482EFAD734EF08F08B9224EF08F02B
:101068008984E4EF08F004008BEC0DF048EC0EF0F6
:101078001BC03EF01CC03FF0D7EC0EF082EC0FF026
:10108800040E486E8E0E476E120EE82EFED7472EBF
:10109800FCD7482EFAD700D01E0E526E000E536EA3
:1010A800000E546E000E556E26EC0FF03EC013F085
:1010B8003FC014F05250531054105510D8A467EF85
:1010C80008F069EF08F06EEF08F0310EACEC0AF0AA
:1010D80087EC0FF013501410D8A475EF08F077EFD1
:1010E80008F058EF08F04E0E476EEB0EE82EFED7CC
:1010F800472EFCD700F01E0E526E000E536E000EE7
:10110800546E000E556E26EC0FF03EC013F03FC033
:1011180014F05250531054105510D8A496EF08F0FC
:1011280098EF08F09DEF08F0320EACEC0AF087EC6F
:101138000FF013041410D8A4A4EF08F0A6EF08F0D9
:1011480087EF08F01E0E526E000E536E000E546E9E
:10115800000E556E1FC03EF020C03FF0D7EC0EF0D9
:1011680087EC0FF03204D8A4BCEF08F0BEEF08F00B
:10117800D3EF08F08B8256C03EF057C03FF0D7EC53
:101188000EF08B92040E486E0C0E476E340EE82E4D
:10119800FED7472EFCD7482EFAD7DAEF08F08B9205
:1011A80056C03EF057C03FF0D7EC0EF03504D8A437
:1011B800E0EF08F0E2EF08F0E4EF08F0ECEF08F0F9
:1011C8003550D8B4EAEF08F0ECEF08F037EF08F044
:1011D800899419501A10D8B4F4EF08F0F6EF08F013
:1011E800FEEF08F03504D8A4FCEF08F0FEEF08F095
:1011F80019EF09F03204D8A404EF09F006EF09F05A
:1012080019EF09F08B8256C03EF057C03FF0D7EC7B
:101218000EF08B92040E486E0C0E476E340EE82EBC
:10122800FED7472EFCD7482EFAD7000E1A6E000EAE
:10123800196E020E306E1200000E476E45BE29EF81
:1012480009F027EF09F033EF09F0451E441E431E4D
:10125800426C000E432244224522010E476E41BED5
:101268003AEF09F038EF09F044EF09F0411E401E4B
:101278003F1E3E6C000E3F2240224122010E471ABB
:10128800000E486E000E496E000E4A6E000E4B6E40
:101298004250431044104510D8B455EF09F057EFA9
:1012A80009F08DEF09F0010E466E61EF09F0D89054
:1012B8004236433644364536462A45AE66EF09F08F
:1012C80068EF09F05BEF09F0D890483649364A369E
:1012D8004B3642503E5C43503F584450405845506E
:1012E8004158D8A07AEF09F07CEF09F085EF09F0B2
:1012F80042503E5E43503F5A4450405A4550415A2E
:101308004880D8904532443243324232462E68EF04
:1013180009F04750D8B493EF09F095EF09F09DEF25
:1013280009F04B1E4A1E491E486C000E49224A22EB
:101338004B2248C03EF049C03FF04AC040F04BC085
:1013480041F01200898482EC0FF0040E486E8E0E74
:10135800476E120EE82EFED7472EFCD7482EFAD736
:1013680000D01E0E526E000E536E000E546E000E0C
:10137800556E26EC0FF03EC013F03FC014F05250EB
:10138800531054105510D8A4CCEF09F0CEEF09F043
:10139800D3EF09F0310EACEC0AF087EC0FF01350E4
:1013A8001410D8A4DAEF09F0DCEF09F0BDEF09F06A
:1013B8004E0E476EEB0EE82EFED7472EFCD700F0F8
:1013C8001E0E526E000E536E000E546E000E556EB9
:1013D80026EC0FF03EC013F03FC014F052505310EB
:1013E80054105510D8A4FBEF09F0FDEF09F002EFF7
:1013F8000AF0320EACEC0AF087EC0FF0130414106C
:10140800D8A409EF0AF00BEF0AF0ECEF09F01E0E72
:10141800526E000E536E000E546E000E556E1FC0B5
:101428003EF020C03FF0D7EC0EF087EC0FF0060E30
:10143800486E130E476EAE0EE82EFED7472EFCD729
:10144800482EFAD7000E146E000E136E89941200FF
:10145800466E8B98000EDDEC0CF08B888B98000E96
:10146800DDEC0CF078EF0AF0790EDDEC0CF03F0EB5
:10147800DDEC0CF0A5EF0AF03F0EDDEC0CF0730E7E
:10148800DDEC0CF0A5EF0AF0390EDDEC0CF0770E70
:10149800DDEC0CF0A5EF0AF0000EDDEC0CF0000E10
:1014A800DDEC0CF0A5EF0AF0000EDDEC0CF03F0EC1
:1014B800DDEC0CF0A5EF0AF0790EDDEC0CF0060E71
:1014C800DDEC0CF0A5EF0AF0770EDDEC0CF03E0E2B
:1014D800DDEC0CF0A5EF0AF0000EDDEC0CF03E0E92
:1014E800DDEC0CF0A5EF0AF04650446E456A455015
:1014F800000AD8B482EF0AF0A5EF0AF04450410A76
:10150800D8B468EF0AF0020AD8B448EF0AF0060A1D
:10151800D8B438EF0AF0020AD8B458EF0AF0080A2B
:10152800D8B440EF0AF01C0AD8B460EF0AF0050AF4
:10153800D8B470EF0AF00E0AD8B450EF0AF0A5EF4D
:101548000AF08B888B980D0EDDEC0CF08B8812005E
:10155800466E8B98000EDDEC0CF08B888B98000E95
:10156800DDEC0CF0F0EF0AF0790EDDEC0CF0770E04
:10157800DDEC0CF019EF0BF0790EDDEC0CF03F0E02
:10158800DDEC0CF019EF0BF0790EDDEC0CF0060E2B
:10159800DDEC0CF019EF0BF0790EDDEC0CF05B0EC6
:1015A800DDEC0CF019EF0BF0000EDDEC0CF03F0E4B
:1015B800DDEC0CF019EF0BF0790EDDEC0CF0060EFB
:1015C800DDEC0CF019EF0BF0770EDDEC0CF03E0EB5
:1015D800DDEC0CF019EF0BF04650446E456A4550AF
:1015E800000AD8B4FAEF0AF019EF0BF04450300AA9
:1015F800D8B4C0EF0AF0010AD8B4C8EF0AF0030A59
:10160800D8B4D0EF0AF0730AD8B4E8EF0AF0040AA5
:10161800D8B4B8EF0AF0020AD8B4D8EF0AF0140A1E
:10162800D8B4E0EF0AF019EF0BF08B888B980D0E09
:10163800DDEC0CF08B8812004EEF0BF03F0E426E83
:1016480084EF0BF0060E426E84EF0BF05B0E426ED9
:1016580084EF0BF04F0E426E84EF0BF0660E426E75
:1016680084EF0BF06D0E426E84EF0BF07D0E426E30
:1016780084EF0BF0070E426E84EF0BF07F0E426E84
:1016880084EF0BF06F0E426E84EF0BF0000E426E8B
:1016980084EF0BF03EC040F03FC041F04150000ADB
:1016A800D8B459EF0BF04AEF0BF04050000AD8B409
:1016B80022EF0BF0010AD8B426EF0BF0030AD8B4D6
:1016C8002AEF0BF0010AD8B42EEF0BF0070AD8B4B2
:1016D80032EF0BF0010AD8B436EF0BF0030AD8B496
:1016E8003AEF0BF0010AD8B43EEF0BF00F0AD8B46A
:1016F80042EF0BF0010AD8B446EF0BF04AEF0BF0BB
:1017080042501200000E436E41BE8FEF0BF08DEF7A
:101718000BF095EF0BF0406C411ED8B0412A010E3A
:10172800436E3FBE9CEF0BF09AEF0BF0A2EF0BF06D
:101738003E6C3F1ED8B03F2A010E431A000E456E7C
:10174800000E446E40504110D8B4ADEF0BF0AFEF2F
:101758000BF0D7EF0BF0010E426EB7EF0BF0D890FD
:1017680040364136422A41AEBCEF0BF0BEEF0BF0DB
:10177800B3EF0BF0D8904436453640503E5C4150AC
:101788003F58D8A0CAEF0BF0CCEF0BF0D1EF0BF01D
:1017980040503E5E41503F5A4480D89041324032DA
:1017A800422EBEEF0BF04350D8B4DDEF0BF0DFEF65
:1017B8000BF0E3EF0BF0446C451ED8B0452A44C04B
:1017C8003EF045C03FF01200000E436E3FBEF1EF01
:1017D8000BF0EFEF0BF0F7EF0BF03E6C3F1ED8B0BD
:1017E8003F2A010E436E41BEFEEF0BF0FCEF0BF0FB
:1017F80002EF0CF0406C411ED8B0412A4050411015
:10180800D8B409EF0CF00BEF0CF02FEF0CF0010E31
:10181800426E13EF0CF0D89040364136422A41AE62
:1018280018EF0CF01AEF0CF00FEF0CF040503E5C84
:1018380041503F58D8A023EF0CF025EF0CF029EFCA
:101848000CF040503E5E41503F5AD89041324032F1
:10185800422E1AEF0CF04350D8B435EF0CF037EFA6
:101868000CF03BEF0CF03E6C3F1ED8B03F2A3EC058
:101878003EF03FC03FF0120046C03EF047C03FF088
:10188800000E416E0A0E406EE8EC0BF03EC080F090
:101898003FC081F046C03EF047C03FF0000E416EA9
:1018A8000A0E406E86EC0BF03EC082F03FC083F01B
:1018B8008B98000EDDEC0CF08B888B98000EDDEC1D
:1018C8000CF082C03EF083C03FF020EC0BF000012A
:1018D800856F80C03EF081C03FF020EC0BF0000126
:1018E800846F4850D8B47BEF0CF07DEF0CF089EF93
:1018F8000CF04828D8A483EF0CF085EF0CF088EFA3
:101908000CF0858F89EF0CF0848F8551DDEC0CF09D
:1019180000018451DDEC0CF08B888B980D0EDDEC0A
:101928000CF08B881200466E8B888B98300EDDEC9D
:101938000CF08B888B98300EDDEC0CF046C044F030
:10194800443A0F0E4416050E456ED8904436452E7F
:10195800A9EF0CF044500509DDEC0CF08B888B984E
:10196800110EDDEC0CF08B888B98110EDDEC0CF071
:101978004650DDEC0CF04650DDEC0CF04650DDEC4A
:101988000CF08B888B98180EDDEC0CF08B888B98FC
:10199800180EDDEC0CF04650DDEC0CF04650DDEC9A
:1019A8000CF04650DDEC0CF04650DDEC0CF08B886A
:1019B8001200406E000E426E8B9642C03EF0010E41
:1019C8003F6E3E2AEAEF0CF0D8903F363E2EE8EF05
:1019D8000CF03F504014416E4150D8B4F6EF0CF073
:1019E800F8EF0CF0FBEF0CF08B8AFCEF0CF08B9A05
:1019F800000E436E432A040E436405EF0DF007EF13
:101A08000DF0FEEF0CF08B86000E436E432A040E99
:101A1800436411EF0DF013EF0DF00AEF0DF0422AB9
:101A2800070E42641AEF0DF01CEF0DF0E0EF0CF01A
:101A38001200FB0E926E9368840E946EC00E956E23
:101A4800000E966E000E976E050E986EC29EC29C92
:101A5800C290C18EC19CC19AC188C196C184C192ED
:101A6800C190C088C190C182C184C186C188C18E1D
:101A7800C098F28E030ED312700ED312000EC46EED
:101A8800000EC36EC294C296C298C29AC18CC2801C
:101A9800C282C2B252EF0DF054EF0DF04DEF0DF0CF
:101AA800C19C120094EC0FF0000E3F6EA00E65EC86
:101AB8000FF080C03EF081C03FF082C040F083C08C
:101AC80041F0000E426E010E436E000E446E000E91
:101AD800456E20EC09F03E5076EC0FF00001805185
:101AE80076EC0FF08CEC0FF0010E3F6EA00E65EC5B
:101AF8000FF0000EA1EC0EF03FC04CF040C04DF0CE
:101B080090EC0FF04CC080F04DC081F01200A50E93
:101B18000001606F450E616F000E626F450E636FC6
:101B28005A0E646FF29E000E416E000E406E600EFB
:101B38004024D96E000E4120DA6EDF504FEC0FF0D2
:101B4800404A412A41BEB2EF0DF0415009E1050E6D
:101B5800405CD8A0B2EF0DF0B4EF0DF09BEF0DF0A4
:101B6800F28E84EC0EF01200446E8B98000EDDECC1
:101B78000CF08B888B98000EDDEC0CF04404D8A494
:101B8800C8EF0DF0CAEF0DF0D2EF0DF0000EDDEC4E
:101B98000CF0BE0EDDEC0CF0D8EF0DF0000EDDEC15
:101BA8000CF03E0EDDEC0CF08B888B980D0EDDEC06
:101BB8000CF08B88120094EC0FF0000E3F6EA00E14
:101BC80065EC0FF080C03EF081C03FF082C040F06D
:101BD80083C041F0000E426E010E436E000E446E4B
:101BE800000E456E20EC09F03E5076EC0FF0000137
:101BF800805176EC0FF00001845176EC0FF090ECF8
:101C08000FF01200F80EF66E1E0EF76E000EF86E4C
:101C180000EE4EF010EE0BF00900F5CFEEFFE550A8
:101C2800E150FAE100EE60F0200EEE6AE806FDE110
:101C380000EE01F0370EEE6AE806FDE15990599280
:101C4800000EF86E00014FEF01F03250D8B42FEFBC
:101C58000EF031EF0EF035EF0EF0000E326E37EF6A
:101C68000EF0010E326EF29E100E0001806F000E13
:101C7800816F000E826F000E836F32C084F0856B17
:101C8800DFEC0DF0F28E1200C294C296C298C29A8E
:101C9800C280000E3F6E050E3E6ED7EC0EF0C2827B
:101CA800C2B259EF0EF05BEF0EF054EF0EF0C350D6
:101CB800C4CF41F0426A41C042F0416A4110116EFE
:101CC8004250126E1200000E3F6E000E3E6E010E64
:101CD8003E24D96E000E3F20DA6E000EDF6E3E4ABB
:101CE8003F2A3FBE81EF0EF03F5009E1100E3E5CE7
:101CF800D8A081EF0EF083EF0EF06BEF0EF012001C
:101D0800000E3F6E000E3E6E600E3E24D96E000E31
:101D18003F20DA6E000EDF6E3E4A3F2A3FBE9EEF3E
:101D28000EF03F5009E1100E3E5CD8A09EEF0EF079
:101D3800A0EF0EF088EF0EF01200416E00EC0FF0ED
:101D48006B8600EC0FF06FCF42F000EC0FF04150C3
:101D5800D8B4B1EF0EF0B3EF0EF0B6EF0EF06B9A09
:101D6800B7EF0EF06B8A6B8842C03FF0406A1200F2
:101D7800670E115C030E1258D8B0C5EF0EF0C7EF0E
:101D88000EF0CAEF0EF08C82D6EF0EF0C00E115C8A
:101D9800030E1258D8A0D3EF0EF0D5EF0EF0D6EF01
:101DA8000EF08C921200E3EF0EF0030E406E980EC8
:101DB800E82EFED7402EFCD73E06D8A03F063E5060
:101DC8003F10D8A4EAEF0EF0ECEF0EF0D9EF0EF0CA
:101DD8001200949C948EAD98AD9CAD8AAC9CAC8856
:101DE800AD9EAC86AC8E7E96AD849D8A9D98190E6C
:101DF800B06E000E7F6E12006BCF3EF01F0E3E16C7
:101E0800D8A409EF0FF00BEF0FF000EF0FF06DB44F
:101E180010EF0FF012EF0FF000EF0FF01200ACA26E
:101E280018EF0FF01AEF0FF022EF0FF0AC98AFCFCA
:101E380038F0AFCF38F0AC8824EF0FF0AFCF38F0E0
:101E48003850120080A22BEF0FF02DEF0FF033EF78
:101E58000FF0000E3F6E000E3E6E37EF0FF0000ED3
:101E68003F6E010E3E6E1200310ECD6E9E0ECF6E8D
:101E7800570ECE6E9E909D809F80000E2B6E120096
:101E8800958A958C280E6C6E000E6B6E270E6E6E02
:101E9800C00E6D6E12003E6E3EC0AEFFADA257EF93
:101EA8000FF059EF0FF052EF0FF01200386E38C0F4
:101EB800AEFFADA262EF0FF064EF0FF05DEF0FF031
:101EC8001200406E40C041F03F50412600EC0FF038
:101ED80041C06FFF1200C70E776E7996798C000E9D
:101EE800766E12003F6E00EC0FF03FC06FFF1200DD
:0B1EF800140000001E000000D0073F97
:101F04008F868F8898EC0FF012009CEC0FF08F8670
:101F14008F88120000EC0FF06B82120000EC0FF0BF
:101F24006B84120000EC0FF06B801200080E736ECD
:0C1F340076841200000E736E769412008A
:067FF800AEF703FBF8F1F7
:00000001FF
