:020000040000FA
:040000004DEF01F0CF
:100008005982D9CF39F0DACF3AF09EAA0EEF00F034
:1000180010EF00F0E1EF00F05DEC0FF03C6EA50E84
:100028003C18D8A41AEF00F01CEF00F03EEF00F0E7
:100038003750D8B422EF00F024EF00F02CEF00F096
:100048003304D8A42AEF00F02CEF00F03EEF00F0C4
:10005800010E366E000E2A6E000E296E010E29243E
:10006800D96E000E2A20DA6E3CC0DFFF294A2A2A00
:10007800EBEF00F03604D8A444EF00F046EF00F0B0
:10008800EBEF00F0010E2924D96E000E2A20DA6E5B
:100098003CC0DFFF2A5007E1050E295CD8B057EFB6
:1000A80000F059EF00F0DDEF00F05A0E3C18D8A42C
:1000B80060EF00F062EF00F03AEF00F00250032426
:1000C8003B6E3B500418D8A46CEF00F06EEF00F0C4
:1000D800B1EF00F03350D8B474EF00F076EF00F0D1
:1000E8007FEF00F0F50E0318D8A47DEF00F07FEF46
:1000F80000F097EF00F0F29E000E3D6E010E3D24D9
:10010800D96EDA6A000EDA22DF50A4EC0FF03D2A2D
:10011800040E3D6492EF00F094EF00F082EF00F0DF
:10012800F28EA7EF00F0F29E000E3D6E160EA4ECC4
:100138000FF03D2A040E3D64A4EF00F0A6EF00F096
:100148009AEF00F0F28E010E376E000E2A6E000E46
:10015800296E020E306EC7EF00F0000E376E000EEB
:100168002A6E000E296EF29E000E3D6E150EA4EC4E
:100178000FF03D2A040E3D64C4EF00F0C6EF00F016
:10018800BAEF00F0F28EF50E0318D8A4CEEF00F007
:10019800D0EF00F03AEF00F0020E3018D8A4D7EFF5
:1001A80000F0D9EF00F03AEF00F0010E356E3AEFAB
:1001B80000F0000E366E3AEF00F0ACA2E6EF00F069
:1001C800E8EF00F0EBEF00F0AC92AC98AC882B04B1
:1001D800D8A4F1EF00F0F3EF00F039EF01F055BECD
:1001E80000EF01F055505410531008E15204D8A004
:1001F80000EF01F002EF01F00CEF01F0FF0E5226C4
:10020800FF0E5322FF0E5422FF0E552214EF01F069
:10021800000E526E000E536E000E546E000E556E98
:1002280051BE21EF01F0515050104F1008E14E041B
:10023800D8A021EF01F023EF01F02DEF01F0FF0E20
:100248004E26FF0E4F22FF0E5022FF0E512237EF8F
:1002580001F0140E4E6E000E4F6E000E506E000E22
:10026800516E06EC0FF0000E2B6E9EA03EEF01F0D3
:1002780040EF01F047EF01F09E0ECF6E570ECE6EA5
:100288009E90010E2B6E3AC0DAFF39C0D9FF599201
:10029800110050EF0EF0F29E67EC0DF0770EE1ECD6
:1002A8000CF0B9EC0FF08EEC0FF037EC0FF082EC9D
:1002B8000FF08B9289941E0E526E000E536E000E34
:1002C800546E000E556ED08E9F8AF28EF28EC090BC
:1002D8008C808C82000E476E210E466EFF0E486E93
:1002E8008AEC0CF0060E0001876F130E866FAD0EB8
:1002F800E82EFED7862FFCD7872FFAD700D092ECAE
:100308000EF0F29E100E0001806F000E816F000E3D
:10031800826F000E836FA0EC0DF080C023F081C0C7
:1003280024F0F28E23C032F0010E32649EEF01F009
:10033800A0EF01F0B2EF01F0010E326EF29E100E46
:100348000001806F000E816F000E826F000E836FB8
:1003580032C084F0856B29EC0EF0F28E000E1A6E16
:10036800010E196E19C046F01AC047F032C048F0A5
:100378008AEC0CF0000E186E010E176EF29E200E1D
:100388000001806F000E816F000E826F000E836F78
:10039800A0EC0DF080C023F081C024F0F28E235031
:1003A8001D6E1E6A1E5009E1310E1D5CD8A0DFEFDC
:1003B80001F0E1EF01F0ECEF01F01E5009E13B0E16
:1003C8001D5CD8A0EAEF01F0ECEF01F001EF02F0BC
:1003D800000E1E6E310E1D6EF29E200E0001806F03
:1003E800000E816F000E826F000E836F1DC084F0B7
:1003F8001EC085F029EC0EF0F28EF29E600E000110
:10040800806F000E816F000E826F000E836FA0EC6C
:100418000DF080C023F081C024F0F28E23C02FF0AD
:100428002F0E2F641AEF02F01CEF02F024EF02F0F7
:10043800350E2F6422EF02F024EF02F062EF02F093
:10044800300E2F6E000E1C6E000E1B6EF29E600E9C
:100458000001806F000E816F000E826F000E836FA7
:100468002FC084F0856B29EC0EF0F28E88EF02F035
:10047800000E1C6E000E1B6E300E2F6E88EF02F001
:10048800030E1C6EE80E1B6E88EF02F0070E1C6E42
:10049800D00E1B6E88EF02F00B0E1C6EB80E1B6E92
:1004A80088EF02F00F0E1C6EA00E1B6E88EF02F094
:1004B800130E1C6E880E1B6E88EF02F02F50000181
:1004C800866F876B8751000AD8B46DEF02F03CEF56
:1004D80002F08651300AD8B43CEF02F0010AD8B4D1
:1004E80044EF02F0030AD8B44AEF02F0010AD8B484
:1004F80050EF02F0070AD8B456EF02F0010AD8B458
:100508005CEF02F03CEF02F0F29E500E0001806FAB
:10051800000E816F000E826F000E836FA0EC0DF04D
:1005280080C023F081C024F0F28E23C02DF0960EF7
:100538002D64A1EF02F0A3EF02F0BBEF02F0000E72
:100548002D6EF29E500E0001806F000E816F000E1E
:10055800826F000E836F2DC084F0856B29EC0EF03E
:10056800F28E000E206E000E1F6EBEEF02F02DC040
:100578001FF0206AF29E400E0001806F000E816F0E
:10058800000E826F000E836FA0EC0DF080C023F088
:1005980081C024F0F28E23C02EF0810E2E18D8B41C
:1005A800D8EF02F0DAEF02F036EF03F0820E2E18E1
:1005B800D8B4E1EF02F0E3EF02F036EF03F0830E78
:1005C8002E18D8B4EAEF02F0ECEF02F036EF03F0A1
:1005D800840E2E18D8B4F3EF02F0F5EF02F036EFE0
:1005E80003F0850E2E18D8B4FCEF02F0FEEF02F0EF
:1005F80036EF03F0070E576ED00E566E820E2E6E33
:10060800F29E400E0001806F000E816F000E826F17
:10061800000E836F2EC084F0856B29EC0EF0F28EED
:1006280058EF03F0030E576EE80E566E58EF03F0BE
:10063800070E576ED00E566E820E2E6E58EF03F0D0
:100648000B0E576EB80E566E58EF03F00F0E576E1E
:10065800A00E566E58EF03F0130E576E880E566EA6
:1006680058EF03F02E500001866F876B8751000A00
:10067800D8B441EF03F01CEF03F08651810AD8B4D7
:1006880016EF03F0030AD8B41CEF03F0010AD8B43C
:1006980024EF03F0070AD8B42AEF03F0010AD8B40C
:1006A80030EF03F01CEF03F03F0E586EF29E300E51
:1006B8000001806F000E816F000E826F000E836F45
:1006C800A0EC0DF080C023F081C024F0F28E23C08E
:1006D80058F05850D8B473EF03F075EF03F099EF62
:1006E80003F03F0E5818D8B47CEF03F07EEF03F008
:1006F80099EF03F07F0E5818D8B485EF03F087EF11
:1007080003F099EF03F03F0E586EF29E300E000191
:10071800806F000E816F000E826F000E836F58C0CD
:1007280084F0856B29EC0EF0F28E1E0E526E000ED0
:10073800536E000E546E000E556EF0EC09F08C925C
:1007480004001E0E526E000E536E000E546E000E04
:10075800556E92EC0EF0F7EF06F017C019F018C0BE
:100768001AF081B8BAEF03F0BCEF03F0DCEF03F046
:1007780081B4C1EF03F0C3EF03F0C5EF03F073ECEE
:100788000EF0325002EC0EF0020E0001876F040EDC
:10079800866FBA0EE82EFED7862FFCD7872FFAD79A
:1007A80000F081A8DAEF03F0DCEF03F0BCEF03F010
:1007B80081B6E1EF03F0E3EF03F0FAEF03F0630E25
:1007C80019181A10D8B4EBEF03F0EDEF03F0FAEFB5
:1007D80003F0010E1924196E000E1A201A6E81A654
:1007E800F8EF03F0FAEF03F0F3EF03F080BAFFEF4E
:1007F80003F001EF04F017EF04F019501A10D8B401
:1008080008EF04F00AEF04F017EF04F0FF0E1924C4
:10081800196EFF0E1A201A6E80AA15EF04F017EF52
:1008280004F010EF04F080B81CEF04F01EEF04F0A1
:1008380036EF04F01A5007E15A0E195CD8B027EFCA
:1008480004F029EF04F036EF04F00A0E1924196EAB
:10085800000E1A201A6E80A834EF04F036EF04F068
:100868002FEF04F080B63BEF04F03DEF04F055EFB6
:1008780004F01A5009E10A0E195CD8A046EF04F0FA
:1008880048EF04F055EF04F0F60E1924196EFF0E28
:100898001A201A6E80A653EF04F055EF04F04EEFBD
:1008A80004F019C017F01AC018F019C046F01AC0A1
:1008B80047F032C048F08AEC0CF081B466EF04F0DF
:1008C80068EF04F078EF04F0010E336E1E0E526EDE
:1008D800000E536E000E546E000E556E0FEC07F0AE
:1008E800000E356E000E336E3704D8A47EEF04F088
:1008F80080EF04F0F3EF06F0C5EF06F0F10E0318F1
:10090800D8A489EF04F08BEF04F0A7EF04F033507C
:10091800D8A491EF04F093EF04F0A7EF04F0000ED1
:10092800356E010E336E17C019F018C01AF01E0E7E
:10093800526E000E536E000E546E000E556E57EC3C
:1009480008F005EF05F0F20E0318D8A4AEEF04F096
:10095800B0EF04F005EF05F03350D8A4B6EF04F07B
:10096800B8EF04F005EF05F0000E356E010E336E9A
:1009780017C019F018C01AF019C046F01AC047F08D
:1009880032C048F08AEC0CF01E0E526E000E536E08
:10099800000E546E000E556E0FEC07F03550D8A4BB
:1009A800D8EF04F0DAEF04F005EF05F0A50E00012A
:1009B800606F440E616FF90E626F3D0E636F5A0EE1
:1009C800646FF29E000E166E000E156E165009E149
:1009D800050E155CD8A0F3EF04F0F5EF04F0F7EF7F
:1009E80004F004EF05F0600E1524D96E000E1620F1
:1009F800DA6EDF5099EC0FF0154A162AEAEF04F088
:100A0800F28EB1EC0EF0CEEC0EF0000E356E000E4C
:100A1800336EEBEF06F03350D8A415EF05F017EF5F
:100A280005F0EBEF06F0010E336E03C02FF043EF35
:100A380005F0000E1C6E000E1B6E300E2F6E68EF58
:100A480005F0030E1C6EE80E1B6E68EF05F0070E2E
:100A58001C6ED00E1B6E68EF05F00B0E1C6EB80EE8
:100A68001B6E68EF05F00F0E1C6EA00E1B6E68EF74
:100A780005F0130E1C6E880E1B6E68EF05F02F50E4
:100A8800866F876B8751000AD8B44DEF05F01DEFCC
:100A980005F08651300AD8B41DEF05F0010AD8B424
:100AA80025EF05F0030AD8B42BEF05F0010AD8B4F6
:100AB80031EF05F0070AD8B437EF05F0010AD8B4CA
:100AC8003DEF05F01DEF05F0F29E600E806F000E01
:100AD800816F000E826F000E836F2FC084F0856BCC
:100AE80029EC0EF0F28EB1EC0EF00BEF05F033505E
:100AF800D8A481EF05F083EF05F0EBEF06F0035083
:100B0800D8A489EF05F08BEF05F0FCEF05F0010E96
:100B1800336EF29E600E806F000E816F000E826F42
:100B2800000E836FA0EC0DF0000180512F6E400E77
:100B3800806F000E816F000E826F000E836FA0EC35
:100B48000DF0000180512E6E300E806F000E816F07
:100B5800000E826F000E836FA0EC0DF080C021F0B4
:100B680081C022F0500E0001806F000E816F000ED0
:100B7800826F000E836FA0EC0DF0000180512D6E86
:100B8800F28E510E606F2FC061F021C062F02EC04E
:100B980063F02DC064F0020E0001876F040E866FAB
:100BA800BA0EE82EFED7862FFCD7872FFAD700F08B
:100BB800F29E000E166E000E156E165009E1050E17
:100BC800155CD8A0EAEF05F0ECEF05F0EEEF05F0C4
:100BD800FBEF05F0600E1524D96E000E1620DA6EB4
:100BE800DF5099EC0FF0154A162AE1EF05F0F28E66
:100BF800CEEC0EF00BEF05F03350D8A406EF06F05C
:100C080008EF06F0EBEF06F0010E336E03C02CF090
:100C18001AEF06F0000E586E33EF06F03F0E586ECE
:100C280033EF06F07F0E586E33EF06F02C50866FC8
:100C3800876B8751000AD8B424EF06F012EF06F04C
:100C48008651000AD8B40EEF06F03F0AD8B412EF66
:100C580006F0400AD8B416EF06F012EF06F0F29E3E
:100C6800300E806F000E816F000E826F000E836F52
:100C780058C084F0856B29EC0EF0F28E0BEF05F06E
:100C88003350D8A44AEF06F04CEF06F0A4EF06F074
:100C9800010E336E03C02EF072EF06F0030E576E8E
:100CA800E80E566E93EF06F0070E576ED00E566E8E
:100CB800820E2E6E93EF06F00B0E576EB80E566E20
:100CC80093EF06F00F0E576EA00E566E93EF06F0D8
:100CD800130E576E880E566E93EF06F02E50866FE1
:100CE800876B8751000AD8B47CEF06F058EF06F0FE
:100CF8008651810AD8B452EF06F0030AD8B458EFE7
:100D080006F0010AD8B460EF06F0070AD8B466EF17
:100D180006F0010AD8B46CEF06F058EF06F0F29E20
:100D2800400E806F000E816F000E826F000E836F81
:100D38002EC084F0856B29EC0EF0F28E000E336E17
:100D48003350D8A4AAEF06F0ACEF06F0EBEF06F0AC
:100D5800010E336E03C02DF02DC01FF0206AF29EE5
:100D6800500E0001806F000E816F000E826F000E22
:100D7800836F2DC084F0856B29EC0EF0F28E0BEF9B
:100D880005F002500001866F876B8751000AD8B4BE
:100D9800D0EF06F0EBEF06F08651230AD8B40FEF38
:100DA80005F0670AD8B482EF04F0150AD8B47BEFCF
:100DB80005F0350AD8B400EF06F0010AD8B444EFBC
:100DC80006F0030AD8B4A4EF06F0EBEF06F0000E25
:100DD800376E000E366E000E306EA4EF03F0000E74
:100DE800306EA4EF03F030500001866F876B875197
:100DF800000AD8B402EF07F0A4EF03F08651000A06
:100E0800D8B4B1EF03F0020AD8B478EF04F0A4EF35
:100E180003F04DEF01F03204D8A415EF07F017EFF7
:100E280007F02CEF07F08B8256C03EF057C03FF01A
:100E380021EC0FF08B92040E4A6E0C0E496E340EA4
:100E4800E82EFED7492EFCD74A2EFAD72FEF07F007
:100E58008B921FEF07F089841AEF08F00400D5EC95
:100E68000DF092EC0EF01BC03EF01CC03FF021ECE0
:100E78000FF0D2EC0FF0040E4A6E8E0E496E120E71
:100E8800E82EFED7492EFCD74A2EFAD700D01E0EE0
:100E9800526E000E536E000E546E000E556E70ECBE
:100EA8000FF03EC013F03FC014F0525053105410CE
:100EB8005510D8A462EF07F064EF07F069EF07F068
:100EC800310EF6EC0AF0D7EC0FF013501410D8A43A
:100ED80070EF07F072EF07F053EF07F04E0E496E10
:100EE800EB0EE82EFED7492EFCD700F01E0E526EF0
:100EF800000E536E000E546E000E556E70EC0FF01F
:100F08003EC013F03FC014F0525053105410551007
:100F1800D8A491EF07F093EF07F098EF07F0320E9F
:100F2800F6EC0AF0D7EC0FF013041410D8A49FEFD6
:100F380007F0A1EF07F082EF07F01E0E526E000EC9
:100F4800536E000E546E000E556E1FC03EF020C04A
:100F58003FF021EC0FF0D7EC0FF01906D8A01A06D5
:100F680019C046F01AC047F032C048F08AEC0CF0BD
:100F78003204D8A4C2EF07F0C4EF07F0E2EF07F09D
:100F880019501A10D8B4CBEF07F0CDEF07F0E2EF05
:100F980007F08B8256C03EF057C03FF021EC0FF0AF
:100FA8008B92040E4A6E0C0E496E340EE82EFED754
:100FB800492EFCD74A2EFAD710EF08F03250D8A4A1
:100FC800E8EF07F0EAEF07F010EF08F019501A10F1
:100FD800D8B4F1EF07F0F3EF07F010EF08F08B92B9
:100FE80019501A10D8B4FBEF07F0FDEF07F005EF22
:100FF80008F056C03EF057C03FF021EC0FF010EF5C
:1010080008F0060E4A6E130E496EAE0EE82EFED795
:10101800492EFCD74A2EFAD73504D8A416EF08F083
:1010280018EF08F01AEF08F023EF08F019501A101B
:10103800D8A421EF08F023EF08F032EF07F08994E5
:1010480019501A10D8B42BEF08F02DEF08F035EF2F
:1010580008F03504D8A433EF08F035EF08F050EF66
:1010680008F03204D8A43BEF08F03DEF08F050EF49
:1010780008F08B8256C03EF057C03FF021EC0FF0CD
:101088008B92040E4A6E0C0E496E340EE82EFED773
:10109800492EFCD74A2EFAD7000E1A6E000E196E8A
:1010A800000E306E1200000E146E000E136E410E0C
:1010B80076EC0AF03204D8A464EF08F066EF08F082
:1010C8007BEF08F08B8256C03EF057C03FF021EC12
:1010D8000FF08B92040E486E0C0E476E340EE82EFD
:1010E800FED7472EFCD7482EFAD77EEF08F08B9212
:1010F8006EEF08F089842EEF09F00400D5EC0DF0AE
:1011080092EC0EF01BC03EF01CC03FF021EC0FF03B
:10111800D2EC0FF0040E486E8E0E476E120EE82EBB
:10112800FED7472EFCD7482EFAD700D01E0E526E97
:10113800000E536E000E546E000E556E70EC0FF0DC
:101148003EC013F03FC014F05250531054105510C5
:10115800D8A4B1EF08F0B3EF08F0B8EF08F0310EFB
:10116800F6EC0AF0D7EC0FF013501410D8A4BFEF28
:1011780008F0C1EF08F0A2EF08F04E0E476EEB0E34
:10118800E82EFED7472EFCD700F01E0E526E000E3A
:10119800536E000E546E000E556E70EC0FF03EC08C
:1011A80013F03FC014F05250531054105510D8A4E7
:1011B800E0EF08F0E2EF08F0E7EF08F0320EF6ECA7
:1011C8000AF0D7EC0FF013041410D8A4EEEF08F0CF
:1011D800F0EF08F0D1EF08F01E0E526E000E536EBD
:1011E800000E546E000E556E1FC03EF020C03FF03A
:1011F80021EC0FF0D7EC0FF03204D8A406EF09F079
:1012080008EF09F01DEF09F08B8256C03EF057C079
:101218003FF021EC0FF08B92040E486E0C0E476ED7
:10122800340EE82EFED7472EFCD7482EFAD724EFE7
:1012380009F08B9256C03EF057C03FF021EC0FF0FA
:101248003504D8A42AEF09F02CEF09F02EEF09F0A5
:1012580036EF09F03550D8B434EF09F036EF09F01D
:1012680081EF08F0899419501A10D8B43EEF09F0AC
:1012780040EF09F048EF09F03504D8A446EF09F02B
:1012880048EF09F063EF09F03204D8A44EEF09F0F3
:1012980050EF09F063EF09F08B8256C03EF057C05B
:1012A8003FF021EC0FF08B92040E486E0C0E476E47
:1012B800340EE82EFED7472EFCD7482EFAD7000E5C
:1012C8001A6E000E196E020E306E1200000E476E76
:1012D80045BE73EF09F071EF09F07DEF09F0451E87
:1012E800441E431E426C000E432244224522010E36
:1012F800476E41BE84EF09F082EF09F08EEF09F0E6
:10130800411E401E3F1E3E6C000E3F2240224122DD
:10131800010E471A000E486E000E496E000E4A6E06
:10132800000E4B6E4250431044104510D8B49FEF46
:1013380009F0A1EF09F0D7EF09F0010E466EABEF07
:1013480009F0D8904236433644364536462A45AEEB
:10135800B0EF09F0B2EF09F0A5EF09F0D8904836E0
:1013680049364A364B3642503E5C43503F5844500B
:10137800405845504158D8A0C4EF09F0C6EF09F0CD
:10138800CFEF09F042503E5E43503F5A4450405A16
:101398004550415A4880D89045324432433242320F
:1013A800462EB2EF09F04750D8B4DDEF09F0DFEF71
:1013B80009F0E7EF09F04B1E4A1E491E486C000E63
:1013C80049224A224B2248C03EF049C03FF04AC059
:1013D80040F04BC041F012008984D2EC0FF0040EAB
:1013E800486E8E0E476E120EE82EFED7472EFCD79B
:1013F800482EFAD700D01E0E526E000E536E000E05
:10140800546E000E556E70EC0FF03EC013F03FC0E6
:1014180014F05250531054105510D8A416EF0AF077
:1014280018EF0AF01DEF0AF0310EF6EC0AF0D7ECCF
:101438000FF013501410D8A424EF0AF026EF0AF086
:1014480007EF0AF04E0E476EEB0EE82EFED7472E3A
:10145800FCD700F01E0E526E000E536E000E546E36
:10146800000E556E70EC0FF03EC013F03FC014F044
:101478005250531054105510D8A445EF0AF047EFB6
:101488000AF04CEF0AF0320EF6EC0AF0D7EC0FF047
:1014980013041410D8A453EF0AF055EF0AF036EFEE
:1014A8000AF01E0E526E000E536E000E546E000EA1
:1014B800556E1FC03EF020C03FF021EC0FF0D7EC76
:1014C8000FF0060E486E130E476EAE0EE82EFED7CE
:1014D800472EFCD7482EFAD7000E146E000E136E56
:1014E80089941200466E8B98000E27EC0DF08B88BD
:1014F8008B98000E27EC0DF0C2EF0AF0790E27EC5E
:101508000DF03F0E27EC0DF0EFEF0AF03F0E27EC41
:101518000DF0730E27EC0DF0EFEF0AF0390E27EC03
:101528000DF0770E27EC0DF0EFEF0AF0000E27EC28
:101538000DF0000E27EC0DF0EFEF0AF0000E27EC8F
:101548000DF03F0E27EC0DF0EFEF0AF0790E27ECC7
:101558000DF0060E27EC0DF0EFEF0AF0770E27ECF2
:101568000DF03E0E27EC0DF0EFEF0AF0000E27EC21
:101578000DF03E0E27EC0DF0EFEF0AF04650446EEA
:10158800456A4550000AD8B4CCEF0AF0EFEF0AF0EC
:101598004450410AD8B4B2EF0AF0020AD8B492EF24
:1015A8000AF0060AD8B482EF0AF0020AD8B4A2EF09
:1015B8000AF0080AD8B48AEF0AF01C0AD8B4AAEFCD
:1015C8000AF0050AD8B4BAEF0AF00E0AD8B49AEFAE
:1015D8000AF0EFEF0AF08B888B980D0E27EC0DF0D0
:1015E8008B881200466E8B98000E27EC0DF08B88C6
:1015F8008B98000E27EC0DF03AEF0BF0790E27ECE4
:101608000DF0770E27EC0DF063EF0BF0790E27EC59
:101618000DF03F0E27EC0DF063EF0BF0790E27EC81
:101628000DF0060E27EC0DF063EF0BF0790E27ECAA
:101638000DF05B0E27EC0DF063EF0BF0000E27ECBE
:101648000DF03F0E27EC0DF063EF0BF0790E27EC51
:101658000DF0060E27EC0DF063EF0BF0770E27EC7C
:101668000DF03E0E27EC0DF063EF0BF04650446E84
:10167800456A4550000AD8B444EF0BF063EF0BF00D
:101688004450300AD8B40AEF0BF0010AD8B412EF6C
:101698000BF0030AD8B41AEF0BF0730AD8B432EF80
:1016A8000BF0040AD8B402EF0BF0020AD8B422EF08
:1016B8000BF0140AD8B42AEF0BF063EF0BF08B8809
:1016C8008B980D0E27EC0DF08B88120098EF0BF01D
:1016D8003F0E426ECEEF0BF0060E426ECEEF0BF0D1
:1016E8005B0E426ECEEF0BF04F0E426ECEEF0BF05C
:1016F800660E426ECEEF0BF06D0E426ECEEF0BF023
:101708007D0E426ECEEF0BF0070E426ECEEF0BF061
:101718007F0E426ECEEF0BF06F0E426ECEEF0BF0E7
:10172800000E426ECEEF0BF03EC040F03FC041F0DD
:101738004150000AD8B4A3EF0BF094EF0BF04050DF
:10174800000AD8B46CEF0BF0010AD8B470EF0BF0B4
:10175800030AD8B474EF0BF0010AD8B478EF0BF091
:10176800070AD8B47CEF0BF0010AD8B480EF0BF06D
:10177800030AD8B484EF0BF0010AD8B488EF0BF051
:101788000F0AD8B48CEF0BF0010AD8B490EF0BF025
:1017980094EF0BF042501200000E436E41BED9EF99
:1017A8000BF0D7EF0BF0DFEF0BF0406C411ED8B019
:1017B800412A010E436E3FBEE6EF0BF0E4EF0BF05B
:1017C800ECEF0BF03E6C3F1ED8B03F2A010E431AD7
:1017D800000E456E000E446E40504110D8B4F7EF2D
:1017E8000BF0F9EF0BF021EF0CF0010E426E01EF58
:1017F8000CF0D89040364136422A41AE06EF0CF044
:1018080008EF0CF0FDEF0BF0D89044364536405009
:101818003E5C41503F58D8A014EF0CF016EF0CF086
:101828001BEF0CF040503E5E41503F5A4480D89028
:1018380041324032422E08EF0CF04350D8B427EF23
:101848000CF029EF0CF02DEF0CF0446C451ED8B0CD
:10185800452A44C03EF045C03FF01200000E436EDA
:101868003FBE3BEF0CF039EF0CF041EF0CF03E6C53
:101878003F1ED8B03F2A010E436E41BE48EF0CF020
:1018880046EF0CF04CEF0CF0406C411ED8B0412AEA
:1018980040504110D8B453EF0CF055EF0CF079EFED
:1018A8000CF0010E426E5DEF0CF0D89040364136D8
:1018B800422A41AE62EF0CF064EF0CF059EF0CF0E5
:1018C80040503E5C41503F58D8A06DEF0CF06FEF90
:1018D8000CF073EF0CF040503E5E41503F5AD890E8
:1018E80041324032422E64EF0CF04350D8B47FEFBF
:1018F8000CF081EF0CF085EF0CF03E6C3F1ED8B079
:101908003F2A3EC03EF03FC03FF0120046C03EF0C6
:1019180047C03FF0000E416E0A0E406E32EC0CF0EC
:101928003EC080F03FC081F046C03EF047C03FF067
:10193800000E416E0A0E406ED0EC0BF03EC082F0F5
:101948003FC083F08B98000E27EC0DF08B888B98A6
:10195800000E27EC0DF082C03EF083C03FF06AEC29
:101968000BF00001856F80C03EF081C03FF06AEC4B
:101978000BF00001846F4850D8B4C5EF0CF0C7EFE6
:101988000CF0D3EF0CF04828D8A4CDEF0CF0CFEF33
:101998000CF0D2EF0CF0858FD3EF0CF0848F8551CB
:1019A80027EC0DF00001845127EC0DF08B888B9803
:1019B8000D0E27EC0DF08B881200466E8B888B98E5
:1019C800300E27EC0DF08B888B98300E27EC0DF03D
:1019D80046C044F0443A0F0E4416050E456ED890A2
:1019E8004436452EF3EF0CF04450050927EC0DF072
:1019F8008B888B98110E27EC0DF08B888B98110E25
:101A080027EC0DF0465027EC0DF0465027EC0DF072
:101A1800465027EC0DF08B888B98180E27EC0DF0AC
:101A28008B888B98180E27EC0DF0465027EC0DF09C
:101A3800465027EC0DF0465027EC0DF0465027ECA9
:101A48000DF08B881200406E000E426E8B9642C0DD
:101A58003EF0010E3F6E3E2A34EF0DF0D8903F362F
:101A68003E2E32EF0DF03F504014416E4150D8B435
:101A780040EF0DF042EF0DF045EF0DF08B8A46EF89
:101A88000DF08B9A000E436E432A040E43644FEF09
:101A98000DF051EF0DF048EF0DF08B86000E436E00
:101AA800432A040E43645BEF0DF05DEF0DF054EF35
:101AB8000DF0422A070E426464EF0DF066EF0DF058
:101AC8002AEF0DF01200FB0E926E9368840E946E4E
:101AD800C00E956E000E966E000E976E050E986EEF
:101AE800C29EC29CC290C18EC19CC19AC188C19637
:101AF800C184C192C190C088C190C182C184C1868D
:101B0800C188C18EC098F28E030ED312700ED31204
:101B1800000EC46E000EC36EC294C296C298C29ADA
:101B2800C18CC280C282C2B29CEF0DF09EEF0DF054
:101B380097EF0DF0C19C1200E4EC0FF0000E3F6E21
:101B4800A00EAFEC0FF080C03EF081C03FF082C025
:101B580040F083C041F0000E426E010E436E000E4D
:101B6800446E000E456E6AEC09F03E50C0EC0FF072
:101B780000018051C0EC0FF0DCEC0FF0010E3F6E5D
:101B8800A00EAFEC0FF0000EEBEC0EF03FC04CF0E7
:101B980040C04DF0E0EC0FF04CC080F04DC081F03B
:101BA8001200A50E0001606F450E616F000E626F96
:101BB800450E636F5A0E646FF29E000E416E000E62
:101BC800406E600E4024D96E000E4120DA6EDF5060
:101BD80099EC0FF0404A412A41BEFCEF0DF041500C
:101BE80009E1050E405CD8A0FCEF0DF0FEEF0DF00A
:101BF800E5EF0DF0F28ECEEC0EF01200446E8B98ED
:101C0800000E27EC0DF08B888B98000E27EC0DF05A
:101C18004404D8A412EF0EF014EF0EF01CEF0EF0EF
:101C2800000E27EC0DF0BE0E27EC0DF022EF0EF0A3
:101C3800000E27EC0DF03E0E27EC0DF08B888B98EC
:101C48000D0E27EC0DF08B881200E4EC0FF0000E5F
:101C58003F6EA00EAFEC0FF080C03EF081C03FF0A9
:101C680082C040F083C041F0000E426E010E436E08
:101C7800000E446E000E456E6AEC09F03E50C0EC52
:101C88000FF000018051C0EC0FF000018451C0EC4E
:101C98000FF0E0EC0FF01200980EF66E1F0EF76EC4
:101CA800000EF86E00EE4EF010EE0BF00900F5CFC6
:101CB800EEFFE550E150FAE100EE60F0200EEE6A2A
:101CC800E806FDE100EE01F0370EEE6AE806FDE1F8
:101CD80059905992000EF86E00014FEF01F0325002
:101CE800D8B479EF0EF07BEF0EF07FEF0EF0000E18
:101CF800326E81EF0EF0010E326EF29E100E000170
:101D0800806F000E816F000E826F000E836F32C0ED
:101D180084F0856B29EC0EF0F28E1200C294C29604
:101D2800C298C29AC280000E3F6E050E3E6E21EC2C
:101D38000FF0C282C2B2A3EF0EF0A5EF0EF09EEF35
:101D48000EF0C350C4CF41F0426A41C042F0416A2C
:101D58004110116E4250126E1200000E3F6E000EBE
:101D68003E6E010E3E24D96E000E3F20DA6E000E44
:101D7800DF6E3E4A3F2A3FBECBEF0EF03F5009E1EF
:101D8800100E3E5CD8A0CBEF0EF0CDEF0EF0B5EF05
:101D98000EF01200000E3F6E000E3E6E600E3E24E6
:101DA800D96E000E3F20DA6E000EDF6E3E4A3F2AE3
:101DB8003FBEE8EF0EF03F5009E1100E3E5CD8A0A0
:101DC800E8EF0EF0EAEF0EF0D2EF0EF01200416EDF
:101DD8004AEC0FF06B864AEC0FF06FCF42F04AECFA
:101DE8000FF04150D8B4FBEF0EF0FDEF0EF000EF0E
:101DF8000FF06B9A01EF0FF06B8A6B8842C03FF0CF
:101E0800406A1200670E115C030E1258D8B00FEF2B
:101E18000FF011EF0FF014EF0FF08C8220EF0FF09E
:101E2800C00E115C030E1258D8A01DEF0FF01FEF63
:101E38000FF020EF0FF08C9212002DEF0FF0030E31
:101E4800406E980EE82EFED7402EFCD73E06D8A04E
:101E58003F063E503F10D8A434EF0FF036EF0FF096
:101E680023EF0FF01200949C948EAD98AD9CAD8A30
:101E7800AC9CAC88AD9EAC86AC8E7E96AD849D8ABB
:101E88009D98190EB06E000E7F6E12006BCF3EF05B
:101E98001F0E3E16D8A453EF0FF055EF0FF04AEF80
:101EA8000FF06DB45AEF0FF05CEF0FF04AEF0FF040
:101EB8001200ACA262EF0FF064EF0FF06CEF0FF0BE
:101EC800AC98AFCF38F0AFCF38F0AC886EEF0FF0EA
:101ED800AFCF38F03850120080A275EF0FF077EFCF
:101EE8000FF07DEF0FF0000E3F6E000E3E6E81EF9B
:101EF8000FF0000E3F6E010E3E6E1200310ECD6ED9
:101F08009E0ECF6E570ECE6E9E909D809F80000EC7
:101F18002B6E1200958A958C280E6C6E000E6B6ED7
:101F2800270E6E6EC00E6D6E12003E6E3EC0AEFF86
:101F3800ADA2A1EF0FF0A3EF0FF09CEF0FF012008E
:101F4800386E38C0AEFFADA2ACEF0FF0AEEF0FF0B9
:101F5800A7EF0FF01200406E40C041F03F504126FD
:101F68004AEC0FF041C06FFF1200C70E776E7996EA
:101F7800798C000E766E12003F6E4AEC0FF03FC06F
:101F88006FFF12000C0E736E58C074FF7684120037
:0B1F9800140000001E000000D0073FF6
:101FA4008F868F88C6EC0FF01200E8EC0FF08F8656
:101FB4008F8812004AEC0FF06B8212004AEC0FF08B
:101FC4006B8412004AEC0FF06B801200000E736EEB
:041FD40076941200ED
:067FF800AEF703FBF8F1F7
:00000001FF
